{
  "_format": "hh-sol-artifact-1",
  "contractName": "PoolEscrowFactory",
  "sourceName": "contracts/wrapper/escrow/PoolEscrowFactory.sol",
  "abi": [
    {
      "inputs": [],
      "stateMutability": "nonpayable",
      "type": "constructor"
    },
    {
      "anonymous": false,
      "inputs": [
        {
          "indexed": false,
          "internalType": "address",
          "name": "",
          "type": "address"
        }
      ],
      "name": "EscrowCreated",
      "type": "event"
    },
    {
      "anonymous": false,
      "inputs": [
        {
          "indexed": false,
          "internalType": "uint8",
          "name": "version",
          "type": "uint8"
        }
      ],
      "name": "Initialized",
      "type": "event"
    },
    {
      "anonymous": false,
      "inputs": [
        {
          "indexed": true,
          "internalType": "address",
          "name": "previousOwner",
          "type": "address"
        },
        {
          "indexed": true,
          "internalType": "address",
          "name": "newOwner",
          "type": "address"
        }
      ],
      "name": "OwnershipTransferStarted",
      "type": "event"
    },
    {
      "anonymous": false,
      "inputs": [
        {
          "indexed": true,
          "internalType": "address",
          "name": "previousOwner",
          "type": "address"
        },
        {
          "indexed": true,
          "internalType": "address",
          "name": "newOwner",
          "type": "address"
        }
      ],
      "name": "OwnershipTransferred",
      "type": "event"
    },
    {
      "inputs": [],
      "name": "acceptOwnership",
      "outputs": [],
      "stateMutability": "nonpayable",
      "type": "function"
    },
    {
      "inputs": [
        {
          "internalType": "uint256",
          "name": "pid",
          "type": "uint256"
        },
        {
          "internalType": "address",
          "name": "booster",
          "type": "address"
        },
        {
          "internalType": "address",
          "name": "rewards",
          "type": "address"
        },
        {
          "internalType": "address",
          "name": "lpToken",
          "type": "address"
        }
      ],
      "name": "createEscrow",
      "outputs": [
        {
          "internalType": "address",
          "name": "",
          "type": "address"
        }
      ],
      "stateMutability": "payable",
      "type": "function"
    },
    {
      "inputs": [
        {
          "internalType": "address",
          "name": "owner",
          "type": "address"
        }
      ],
      "name": "initialize",
      "outputs": [],
      "stateMutability": "nonpayable",
      "type": "function"
    },
    {
      "inputs": [],
      "name": "owner",
      "outputs": [
        {
          "internalType": "address",
          "name": "",
          "type": "address"
        }
      ],
      "stateMutability": "view",
      "type": "function"
    },
    {
      "inputs": [],
      "name": "pendingOwner",
      "outputs": [
        {
          "internalType": "address",
          "name": "",
          "type": "address"
        }
      ],
      "stateMutability": "view",
      "type": "function"
    },
    {
      "inputs": [],
      "name": "renounceOwnership",
      "outputs": [],
      "stateMutability": "nonpayable",
      "type": "function"
    },
    {
      "inputs": [
        {
          "internalType": "address",
          "name": "newOwner",
          "type": "address"
        }
      ],
      "name": "transferOwnership",
      "outputs": [],
      "stateMutability": "nonpayable",
      "type": "function"
    }
  ],
  "bytecode": "0x608060405234801561001057600080fd5b5061001961001e565b6100dd565b600054610100900460ff161561008a5760405162461bcd60e51b815260206004820152602760248201527f496e697469616c697a61626c653a20636f6e747261637420697320696e697469604482015266616c697a696e6760c81b606482015260840160405180910390fd5b60005460ff908116146100db576000805460ff191660ff9081179091556040519081527f7f26b83ff96e1f2b6a682f133852f6798a09c465da95921460cefb38474024989060200160405180910390a15b565b611702806100ec6000396000f3fe608060405260043610620000795760003560e01c80638da5cb5b11620000545780638da5cb5b14620000e3578063c4d66de81462000103578063e30c39781462000128578063f2fde38b146200014857600080fd5b80636f7f6349146200007e578063715018a614620000b157806379ba509714620000cb575b600080fd5b620000956200008f366004620005a5565b6200016d565b6040516001600160a01b03909116815260200160405180910390f35b348015620000be57600080fd5b50620000c962000214565b005b348015620000d857600080fd5b50620000c96200022c565b348015620000f057600080fd5b506033546001600160a01b031662000095565b3480156200011057600080fd5b50620000c962000122366004620005f9565b620002ae565b3480156200013557600080fd5b506065546001600160a01b031662000095565b3480156200015557600080fd5b50620000c962000167366004620005f9565b620003d4565b600080853386868660405162000183906200057a565b9485526001600160a01b03938416602086015291831660408501528216606084015216608082015260a001604051809103906000f080158015620001cb573d6000803e3d6000fd5b506040516001600160a01b03821681529091507fdc172423e65e4eb718110c42ad3b66ac4b0a613e4d07bfb55f2477f2d1bf34eb9060200160405180910390a195945050505050565b6200021e62000448565b6200022a6000620004a4565b565b60655433906001600160a01b03168114620002a05760405162461bcd60e51b815260206004820152602960248201527f4f776e61626c6532537465703a2063616c6c6572206973206e6f7420746865206044820152683732bb9037bbb732b960b91b60648201526084015b60405180910390fd5b620002ab81620004a4565b50565b600054610100900460ff1615808015620002cf5750600054600160ff909116105b80620002eb5750303b158015620002eb575060005460ff166001145b620003505760405162461bcd60e51b815260206004820152602e60248201527f496e697469616c697a61626c653a20636f6e747261637420697320616c72656160448201526d191e481a5b9a5d1a585b1a5e995960921b606482015260840162000297565b6000805460ff19166001179055801562000374576000805461ff0019166101001790555b6200037e620004bf565b6200038982620004a4565b8015620003d0576000805461ff0019169055604051600181527f7f26b83ff96e1f2b6a682f133852f6798a09c465da95921460cefb38474024989060200160405180910390a15b5050565b620003de62000448565b606580546001600160a01b0383166001600160a01b03199091168117909155620004106033546001600160a01b031690565b6001600160a01b03167f38d16b8cac22d99fc7c124b9cd0de2d3fa1faef420bfe791d8c362d765e2270060405160405180910390a350565b6033546001600160a01b031633146200022a5760405162461bcd60e51b815260206004820181905260248201527f4f776e61626c653a2063616c6c6572206973206e6f7420746865206f776e6572604482015260640162000297565b606580546001600160a01b0319169055620002ab81620004f3565b600054610100900460ff16620004e95760405162461bcd60e51b815260040162000297906200061e565b6200022a62000545565b603380546001600160a01b038381166001600160a01b0319831681179093556040519116919082907f8be0079c531659141344cd1fd0a4f28419497f9722a3daafe3b4186f6b6457e090600090a35050565b600054610100900460ff166200056f5760405162461bcd60e51b815260040162000297906200061e565b6200022a33620004a4565b611063806200066a83390190565b80356001600160a01b0381168114620005a057600080fd5b919050565b60008060008060808587031215620005bc57600080fd5b84359350620005ce6020860162000588565b9250620005de6040860162000588565b9150620005ee6060860162000588565b905092959194509250565b6000602082840312156200060c57600080fd5b620006178262000588565b9392505050565b6020808252602b908201527f496e697469616c697a61626c653a20636f6e7472616374206973206e6f74206960408201526a6e697469616c697a696e6760a81b60608201526080019056fe60806040523480156200001157600080fd5b506040516200106338038062001063833981016040819052620000349162000584565b6001600160a01b03841615806200005257506001600160a01b038316155b806200006557506001600160a01b038216155b806200007857506001600160a01b038116155b15620000975760405163538ba4f960e01b815260040160405180910390fd5b6001859055600080546001600160a01b038087166001600160a01b03199283168117909355600280548783169084161790556003805486831690841617905560048054918516919092168117909155620000f491600019620000ff565b50505050506200068f565b6200010a836200012a565b6200012557620001256001600160a01b038416838362000165565b505050565b60006001600160a01b03821615806200015f57506001600160a01b03821673eeeeeeeeeeeeeeeeeeeeeeeeeeeeeeeeeeeeeeee145b92915050565b604080516001600160a01b038416602482015260448082018490528251808303909101815260649091019091526020810180516001600160e01b0390811663095ea7b360e01b17909152620001bf90859083906200023b16565b62000235576040516001600160a01b0384166024820152600060448201526200022990859063095ea7b360e01b9060640160408051808303601f190181529190526020810180516001600160e01b0319939093166001600160e01b0393841617905290620002eb16565b620002358482620002eb565b50505050565b6000806000846001600160a01b0316846040516200025a919062000611565b6000604051808303816000865af19150503d806000811462000299576040519150601f19603f3d011682016040523d82523d6000602084013e6200029e565b606091505b5091509150818015620002cc575080511580620002cc575080806020019051810190620002cc91906200062f565b8015620002e257506001600160a01b0385163b15155b95945050505050565b6040805180820190915260208082527f5361666545524332303a206c6f772d6c6576656c2063616c6c206661696c6564908201526000906200033a906001600160a01b038516908490620003c3565b90508051600014806200035e5750808060200190518101906200035e91906200062f565b620001255760405162461bcd60e51b815260206004820152602a60248201527f5361666545524332303a204552433230206f7065726174696f6e20646964206e6044820152691bdd081cdd58d8d9595960b21b60648201526084015b60405180910390fd5b6060620003d48484600085620003dc565b949350505050565b6060824710156200043f5760405162461bcd60e51b815260206004820152602660248201527f416464726573733a20696e73756666696369656e742062616c616e636520666f6044820152651c8818d85b1b60d21b6064820152608401620003ba565b600080866001600160a01b031685876040516200045d919062000611565b60006040518083038185875af1925050503d80600081146200049c576040519150601f19603f3d011682016040523d82523d6000602084013e620004a1565b606091505b509092509050620004b587838387620004c0565b979650505050505050565b60608315620005345782516000036200052c576001600160a01b0385163b6200052c5760405162461bcd60e51b815260206004820152601d60248201527f416464726573733a2063616c6c20746f206e6f6e2d636f6e74726163740000006044820152606401620003ba565b5081620003d4565b620003d483838151156200054b5781518083602001fd5b8060405162461bcd60e51b8152600401620003ba91906200065a565b80516001600160a01b03811681146200057f57600080fd5b919050565b600080600080600060a086880312156200059d57600080fd5b85519450620005af6020870162000567565b9350620005bf6040870162000567565b9250620005cf6060870162000567565b9150620005df6080870162000567565b90509295509295909350565b60005b8381101562000608578181015183820152602001620005ee565b50506000910152565b6000825162000625818460208701620005eb565b9190910192915050565b6000602082840312156200064257600080fd5b815180151581146200065357600080fd5b9392505050565b60208152600082518060208401526200067b816040850160208701620005eb565b601f01601f19169190910160400192915050565b6109c4806200069f6000396000f3fe608060405234801561001057600080fd5b50600436106100935760003560e01c8063c6def07611610066578063c6def07614610103578063dcc3e06e14610116578063e599490514610129578063f10684541461013c578063f5537ede1461015357600080fd5b80635fcbd28514610098578063ac210cc7146100c8578063b6b55f25146100db578063c3356ad1146100f0575b600080fd5b6004546100ab906001600160a01b031681565b6040516001600160a01b0390911681526020015b60405180910390f35b6000546100ab906001600160a01b031681565b6100ee6100e936600461080a565b610166565b005b6100ee6100fe36600461083f565b610235565b6002546100ab906001600160a01b031681565b6003546100ab906001600160a01b031681565b6100ee61013736600461086b565b6102ee565b61014560015481565b6040519081526020016100bf565b6100ee6101613660046108b6565b610334565b6000546001600160a01b031633146101915760405163075fd2b160e01b815260040160405180910390fd5b6002546004546101ae916001600160a01b03918216911683610378565b600254600180546040516321d0683360e11b815260048101919091526024810184905260448101919091526001600160a01b03909116906343a0d066906064016020604051808303816000875af115801561020d573d6000803e3d6000fd5b505050506040513d601f19601f8201168201806040525081019061023191906108f2565b5050565b6000546001600160a01b031633146102605760405163075fd2b160e01b815260040160405180910390fd5b600354604051636197390160e11b815260048101849052600060248201526001600160a01b039091169063c32e7202906044016020604051808303816000875af11580156102b2573d6000803e3d6000fd5b505050506040513d601f19601f820116820180604052508101906102d691906108f2565b50600454610231906001600160a01b03168284610399565b6000546001600160a01b031633146103195760405163075fd2b160e01b815260040160405180910390fd5b61032e6001600160a01b0385168484846103fc565b50505050565b6000546001600160a01b0316331461035f5760405163075fd2b160e01b815260040160405180910390fd5b6103736001600160a01b0384168383610399565b505050565b61038183610434565b610373576103736001600160a01b038416838361046e565b6040516001600160a01b03831660248201526044810182905261037390849063a9059cbb60e01b906064015b60408051601f198184030181529190526020810180516001600160e01b03166001600160e01b0319909316929092179091526104f9565b6040516001600160a01b038085166024830152831660448201526064810182905261032e9085906323b872dd60e01b906084016103c5565b60006001600160a01b038216158061046857506001600160a01b03821673eeeeeeeeeeeeeeeeeeeeeeeeeeeeeeeeeeeeeeee145b92915050565b604080516001600160a01b038416602482015260448082018490528251808303909101815260649091019091526020810180516001600160e01b031663095ea7b360e01b1790526104bf84826105d3565b61032e576040516001600160a01b0384166024820152600060448201526104f390859063095ea7b360e01b906064016103c5565b61032e84825b600061054e826040518060400160405280602081526020017f5361666545524332303a206c6f772d6c6576656c2063616c6c206661696c6564815250856001600160a01b031661067a9092919063ffffffff16565b905080516000148061056f57508080602001905181019061056f91906108f2565b6103735760405162461bcd60e51b815260206004820152602a60248201527f5361666545524332303a204552433230206f7065726174696f6e20646964206e6044820152691bdd081cdd58d8d9595960b21b60648201526084015b60405180910390fd5b6000806000846001600160a01b0316846040516105f0919061093f565b6000604051808303816000865af19150503d806000811461062d576040519150601f19603f3d011682016040523d82523d6000602084013e610632565b606091505b509150915081801561065c57508051158061065c57508080602001905181019061065c91906108f2565b801561067157506001600160a01b0385163b15155b95945050505050565b60606106898484600085610691565b949350505050565b6060824710156106f25760405162461bcd60e51b815260206004820152602660248201527f416464726573733a20696e73756666696369656e742062616c616e636520666f6044820152651c8818d85b1b60d21b60648201526084016105ca565b600080866001600160a01b0316858760405161070e919061093f565b60006040518083038185875af1925050503d806000811461074b576040519150601f19603f3d011682016040523d82523d6000602084013e610750565b606091505b50915091506107618783838761076c565b979650505050505050565b606083156107db5782516000036107d4576001600160a01b0385163b6107d45760405162461bcd60e51b815260206004820152601d60248201527f416464726573733a2063616c6c20746f206e6f6e2d636f6e747261637400000060448201526064016105ca565b5081610689565b61068983838151156107f05781518083602001fd5b8060405162461bcd60e51b81526004016105ca919061095b565b60006020828403121561081c57600080fd5b5035919050565b80356001600160a01b038116811461083a57600080fd5b919050565b6000806040838503121561085257600080fd5b8235915061086260208401610823565b90509250929050565b6000806000806080858703121561088157600080fd5b61088a85610823565b935061089860208601610823565b92506108a660408601610823565b9396929550929360600135925050565b6000806000606084860312156108cb57600080fd5b6108d484610823565b92506108e260208501610823565b9150604084013590509250925092565b60006020828403121561090457600080fd5b8151801515811461091457600080fd5b9392505050565b60005b8381101561093657818101518382015260200161091e565b50506000910152565b6000825161095181846020870161091b565b9190910192915050565b602081526000825180602084015261097a81604085016020870161091b565b601f01601f1916919091016040019291505056fea2646970667358221220b368c1b64a4a0f8be8299837918d6a73a01138af1aaedc737fcb750a5a7e39ae64736f6c63430008160033a2646970667358221220e9a6ad3736a9f7c6171bfc83177a149c64cebe9492761130a5066a3431f196ae64736f6c63430008160033",
  "linkReferences": {},
  "deployedLinkReferences": {}
}