{
  "_format": "hh-sol-artifact-1",
  "contractName": "FeeManager",
  "sourceName": "contracts/FeeManager.sol",
  "abi": [
    {
      "inputs": [],
      "stateMutability": "nonpayable",
      "type": "constructor"
    },
    {
      "inputs": [],
      "name": "NO_TREASURY_SET",
      "type": "error"
    },
    {
      "inputs": [],
      "name": "ZERO_ADDRESS",
      "type": "error"
    },
    {
      "anonymous": false,
      "inputs": [
        {
          "indexed": false,
          "internalType": "uint8",
          "name": "version",
          "type": "uint8"
        }
      ],
      "name": "Initialized",
      "type": "event"
    },
    {
      "anonymous": false,
      "inputs": [
        {
          "indexed": true,
          "internalType": "address",
          "name": "previousOwner",
          "type": "address"
        },
        {
          "indexed": true,
          "internalType": "address",
          "name": "newOwner",
          "type": "address"
        }
      ],
      "name": "OwnershipTransferStarted",
      "type": "event"
    },
    {
      "anonymous": false,
      "inputs": [
        {
          "indexed": true,
          "internalType": "address",
          "name": "previousOwner",
          "type": "address"
        },
        {
          "indexed": true,
          "internalType": "address",
          "name": "newOwner",
          "type": "address"
        }
      ],
      "name": "OwnershipTransferred",
      "type": "event"
    },
    {
      "inputs": [],
      "name": "acceptOwnership",
      "outputs": [],
      "stateMutability": "nonpayable",
      "type": "function"
    },
    {
      "inputs": [
        {
          "internalType": "address",
          "name": "token",
          "type": "address"
        },
        {
          "internalType": "uint256",
          "name": "amount",
          "type": "uint256"
        }
      ],
      "name": "doCutDepositFee",
      "outputs": [
        {
          "internalType": "uint256",
          "name": "",
          "type": "uint256"
        }
      ],
      "stateMutability": "nonpayable",
      "type": "function"
    },
    {
      "inputs": [
        {
          "internalType": "address",
          "name": "token",
          "type": "address"
        },
        {
          "internalType": "uint256",
          "name": "amount",
          "type": "uint256"
        }
      ],
      "name": "doCutRewardsFee",
      "outputs": [
        {
          "internalType": "uint256",
          "name": "",
          "type": "uint256"
        }
      ],
      "stateMutability": "nonpayable",
      "type": "function"
    },
    {
      "inputs": [
        {
          "internalType": "address",
          "name": "token",
          "type": "address"
        },
        {
          "internalType": "uint256",
          "name": "amount",
          "type": "uint256"
        }
      ],
      "name": "doCutVaultWithdrawFee",
      "outputs": [
        {
          "internalType": "uint256",
          "name": "",
          "type": "uint256"
        }
      ],
      "stateMutability": "nonpayable",
      "type": "function"
    },
    {
      "inputs": [
        {
          "internalType": "address",
          "name": "token",
          "type": "address"
        },
        {
          "internalType": "uint256",
          "name": "amount",
          "type": "uint256"
        }
      ],
      "name": "doCutWithdrawFee",
      "outputs": [
        {
          "internalType": "uint256",
          "name": "",
          "type": "uint256"
        }
      ],
      "stateMutability": "nonpayable",
      "type": "function"
    },
    {
      "inputs": [],
      "name": "getConfig",
      "outputs": [
        {
          "internalType": "contract IProtocolConfig",
          "name": "",
          "type": "address"
        }
      ],
      "stateMutability": "view",
      "type": "function"
    },
    {
      "inputs": [
        {
          "internalType": "contract IProtocolConfig",
          "name": "config",
          "type": "address"
        },
        {
          "internalType": "address",
          "name": "owner",
          "type": "address"
        }
      ],
      "name": "initialize",
      "outputs": [],
      "stateMutability": "nonpayable",
      "type": "function"
    },
    {
      "inputs": [],
      "name": "owner",
      "outputs": [
        {
          "internalType": "address",
          "name": "",
          "type": "address"
        }
      ],
      "stateMutability": "view",
      "type": "function"
    },
    {
      "inputs": [],
      "name": "pendingOwner",
      "outputs": [
        {
          "internalType": "address",
          "name": "",
          "type": "address"
        }
      ],
      "stateMutability": "view",
      "type": "function"
    },
    {
      "inputs": [],
      "name": "renounceOwnership",
      "outputs": [],
      "stateMutability": "nonpayable",
      "type": "function"
    },
    {
      "inputs": [
        {
          "internalType": "address",
          "name": "newOwner",
          "type": "address"
        }
      ],
      "name": "transferOwnership",
      "outputs": [],
      "stateMutability": "nonpayable",
      "type": "function"
    }
  ],
  "bytecode": "0x608060405234801561001057600080fd5b5061001961001e565b6100dd565b600054610100900460ff161561008a5760405162461bcd60e51b815260206004820152602760248201527f496e697469616c697a61626c653a20636f6e747261637420697320696e697469604482015266616c697a696e6760c81b606482015260840160405180910390fd5b60005460ff908116146100db576000805460ff191660ff9081179091556040519081527f7f26b83ff96e1f2b6a682f133852f6798a09c465da95921460cefb38474024989060200160405180910390a15b565b610d9c806100ec6000396000f3fe608060405234801561001057600080fd5b50600436106100a95760003560e01c80639860450b116100715780639860450b1461011e578063b300e95514610131578063c3f909d414610144578063e30c397814610155578063e43c128d14610166578063f2fde38b1461017957600080fd5b8063485cc955146100ae5780634e57db06146100c3578063715018a6146100e957806379ba5097146100f15780638da5cb5b146100f9575b600080fd5b6100c16100bc366004610b59565b61018c565b005b6100d66100d1366004610b92565b6102ef565b6040519081526020015b60405180910390f35b6100c161045a565b6100c161046e565b6033546001600160a01b03165b6040516001600160a01b0390911681526020016100e0565b6100d661012c366004610b92565b6104e8565b6100d661013f366004610b92565b610549565b6097546001600160a01b0316610106565b6065546001600160a01b0316610106565b6100d6610174366004610b92565b6105a3565b6100c1610187366004610bbe565b6105fd565b600054610100900460ff16158080156101ac5750600054600160ff909116105b806101c65750303b1580156101c6575060005460ff166001145b61022e5760405162461bcd60e51b815260206004820152602e60248201527f496e697469616c697a61626c653a20636f6e747261637420697320616c72656160448201526d191e481a5b9a5d1a585b1a5e995960921b60648201526084015b60405180910390fd5b6000805460ff191660011790558015610251576000805461ff0019166101001790555b61025961066e565b6102628261069d565b6001600160a01b0383166102895760405163538ba4f960e01b815260040160405180910390fd5b609780546001600160a01b0319166001600160a01b03851617905580156102ea576000805461ff0019169055604051600181527f7f26b83ff96e1f2b6a682f133852f6798a09c465da95921460cefb38474024989060200160405180910390a15b505050565b6000806103046097546001600160a01b031690565b9050806001600160a01b0316637da743196040518163ffffffff1660e01b8152600401602060405180830381865afa158015610344573d6000803e3d6000fd5b505050506040513d601f19601f820116820180604052508101906103689190610bdb565b816001600160a01b0316633170d4526040518163ffffffff1660e01b8152600401602060405180830381865afa1580156103a6573d6000803e3d6000fd5b505050506040513d601f19601f820116820180604052508101906103ca9190610bdb565b6103d49190610c0a565b42101561044f576104478484836001600160a01b031663fefe2d6b6040518163ffffffff1660e01b8152600401602060405180830381865afa15801561041e573d6000803e3d6000fd5b505050506040513d601f19601f820116820180604052508101906104429190610bdb565b6106b6565b915050610454565b829150505b92915050565b6104626107a3565b61046c600061069d565b565b60655433906001600160a01b031681146104dc5760405162461bcd60e51b815260206004820152602960248201527f4f776e61626c6532537465703a2063616c6c6572206973206e6f7420746865206044820152683732bb9037bbb732b960b91b6064820152608401610225565b6104e58161069d565b50565b60006105428383609760009054906101000a90046001600160a01b03166001600160a01b0316631540aa896040518163ffffffff1660e01b8152600401602060405180830381865afa15801561041e573d6000803e3d6000fd5b9392505050565b60006105428383609760009054906101000a90046001600160a01b03166001600160a01b0316630de705b56040518163ffffffff1660e01b8152600401602060405180830381865afa15801561041e573d6000803e3d6000fd5b60006105428383609760009054906101000a90046001600160a01b03166001600160a01b03166376289f386040518163ffffffff1660e01b8152600401602060405180830381865afa15801561041e573d6000803e3d6000fd5b6106056107a3565b606580546001600160a01b0383166001600160a01b031990911681179091556106366033546001600160a01b031690565b6001600160a01b03167f38d16b8cac22d99fc7c124b9cd0de2d3fa1faef420bfe791d8c362d765e2270060405160405180910390a350565b600054610100900460ff166106955760405162461bcd60e51b815260040161022590610c1d565b61046c6107fd565b606580546001600160a01b03191690556104e58161082d565b600080609760009054906101000a90046001600160a01b03166001600160a01b0316633b19e84a6040518163ffffffff1660e01b8152600401602060405180830381865afa15801561070c573d6000803e3d6000fd5b505050506040513d601f19601f820116820180604052508101906107309190610c68565b90506001600160a01b03811661075957604051636372534960e11b815260040160405180910390fd5b60006127106107688587610c85565b6107729190610c9c565b9050801561078f5761078f6001600160a01b03871633848461087f565b6107998186610cbe565b9695505050505050565b6033546001600160a01b0316331461046c5760405162461bcd60e51b815260206004820181905260248201527f4f776e61626c653a2063616c6c6572206973206e6f7420746865206f776e65726044820152606401610225565b600054610100900460ff166108245760405162461bcd60e51b815260040161022590610c1d565b61046c3361069d565b603380546001600160a01b038381166001600160a01b0319831681179093556040519116919082907f8be0079c531659141344cd1fd0a4f28419497f9722a3daafe3b4186f6b6457e090600090a35050565b604080516001600160a01b0385811660248301528416604482015260648082018490528251808303909101815260849091019091526020810180516001600160e01b03166323b872dd60e01b1790526108d99085906108df565b50505050565b6000610934826040518060400160405280602081526020017f5361666545524332303a206c6f772d6c6576656c2063616c6c206661696c6564815250856001600160a01b03166109b49092919063ffffffff16565b90508051600014806109555750808060200190518101906109559190610cd1565b6102ea5760405162461bcd60e51b815260206004820152602a60248201527f5361666545524332303a204552433230206f7065726174696f6e20646964206e6044820152691bdd081cdd58d8d9595960b21b6064820152608401610225565b60606109c384846000856109cb565b949350505050565b606082471015610a2c5760405162461bcd60e51b815260206004820152602660248201527f416464726573733a20696e73756666696369656e742062616c616e636520666f6044820152651c8818d85b1b60d21b6064820152608401610225565b600080866001600160a01b03168587604051610a489190610d17565b60006040518083038185875af1925050503d8060008114610a85576040519150601f19603f3d011682016040523d82523d6000602084013e610a8a565b606091505b5091509150610a9b87838387610aa6565b979650505050505050565b60608315610b15578251600003610b0e576001600160a01b0385163b610b0e5760405162461bcd60e51b815260206004820152601d60248201527f416464726573733a2063616c6c20746f206e6f6e2d636f6e74726163740000006044820152606401610225565b50816109c3565b6109c38383815115610b2a5781518083602001fd5b8060405162461bcd60e51b81526004016102259190610d33565b6001600160a01b03811681146104e557600080fd5b60008060408385031215610b6c57600080fd5b8235610b7781610b44565b91506020830135610b8781610b44565b809150509250929050565b60008060408385031215610ba557600080fd5b8235610bb081610b44565b946020939093013593505050565b600060208284031215610bd057600080fd5b813561054281610b44565b600060208284031215610bed57600080fd5b5051919050565b634e487b7160e01b600052601160045260246000fd5b8082018082111561045457610454610bf4565b6020808252602b908201527f496e697469616c697a61626c653a20636f6e7472616374206973206e6f74206960408201526a6e697469616c697a696e6760a81b606082015260800190565b600060208284031215610c7a57600080fd5b815161054281610b44565b808202811582820484141761045457610454610bf4565b600082610cb957634e487b7160e01b600052601260045260246000fd5b500490565b8181038181111561045457610454610bf4565b600060208284031215610ce357600080fd5b8151801515811461054257600080fd5b60005b83811015610d0e578181015183820152602001610cf6565b50506000910152565b60008251610d29818460208701610cf3565b9190910192915050565b6020815260008251806020840152610d52816040850160208701610cf3565b601f01601f1916919091016040019291505056fea26469706673582212209bf348a4bf009b1f8bdf4677f4e83f986dfe2213a567c0f8177a291a68195fa264736f6c63430008160033",
  "linkReferences": {},
  "deployedLinkReferences": {}
}