{
  "_format": "hh-sol-artifact-1",
  "contractName": "ProtocolConfig",
  "sourceName": "contracts/ProtocolConfig.sol",
  "abi": [
    {
      "inputs": [],
      "stateMutability": "nonpayable",
      "type": "constructor"
    },
    {
      "inputs": [],
      "name": "FEE_WINDOW_ALREADY_STARTED",
      "type": "error"
    },
    {
      "inputs": [
        {
          "internalType": "uint256",
          "name": "windowTime",
          "type": "uint256"
        }
      ],
      "name": "FEE_WINDOW_TOO_LONG",
      "type": "error"
    },
    {
      "inputs": [],
      "name": "INVALID_FEE_DISTRIBUTION",
      "type": "error"
    },
    {
      "inputs": [
        {
          "internalType": "uint256",
          "name": "ratio",
          "type": "uint256"
        }
      ],
      "name": "RATIO_TOO_HIGH",
      "type": "error"
    },
    {
      "inputs": [],
      "name": "ZERO_ADDRESS",
      "type": "error"
    },
    {
      "anonymous": false,
      "inputs": [
        {
          "indexed": false,
          "internalType": "uint8",
          "name": "version",
          "type": "uint8"
        }
      ],
      "name": "Initialized",
      "type": "event"
    },
    {
      "anonymous": false,
      "inputs": [
        {
          "indexed": true,
          "internalType": "address",
          "name": "previousOwner",
          "type": "address"
        },
        {
          "indexed": true,
          "internalType": "address",
          "name": "newOwner",
          "type": "address"
        }
      ],
      "name": "OwnershipTransferStarted",
      "type": "event"
    },
    {
      "anonymous": false,
      "inputs": [
        {
          "indexed": true,
          "internalType": "address",
          "name": "previousOwner",
          "type": "address"
        },
        {
          "indexed": true,
          "internalType": "address",
          "name": "newOwner",
          "type": "address"
        }
      ],
      "name": "OwnershipTransferred",
      "type": "event"
    },
    {
      "inputs": [],
      "name": "acceptOwnership",
      "outputs": [],
      "stateMutability": "nonpayable",
      "type": "function"
    },
    {
      "inputs": [],
      "name": "getBlbIchiVaultFeeRate",
      "outputs": [
        {
          "internalType": "uint256",
          "name": "",
          "type": "uint256"
        }
      ],
      "stateMutability": "view",
      "type": "function"
    },
    {
      "inputs": [],
      "name": "getBlbStabilityPool",
      "outputs": [
        {
          "internalType": "address",
          "name": "",
          "type": "address"
        }
      ],
      "stateMutability": "view",
      "type": "function"
    },
    {
      "inputs": [],
      "name": "getBlbStablePoolFeeRate",
      "outputs": [
        {
          "internalType": "uint256",
          "name": "",
          "type": "uint256"
        }
      ],
      "stateMutability": "view",
      "type": "function"
    },
    {
      "inputs": [],
      "name": "getBlbUsdcIchiVault",
      "outputs": [
        {
          "internalType": "address",
          "name": "",
          "type": "address"
        }
      ],
      "stateMutability": "view",
      "type": "function"
    },
    {
      "inputs": [],
      "name": "getDepositFee",
      "outputs": [
        {
          "internalType": "uint256",
          "name": "",
          "type": "uint256"
        }
      ],
      "stateMutability": "view",
      "type": "function"
    },
    {
      "inputs": [],
      "name": "getFeeManager",
      "outputs": [
        {
          "internalType": "contract IFeeManager",
          "name": "",
          "type": "address"
        }
      ],
      "stateMutability": "view",
      "type": "function"
    },
    {
      "inputs": [],
      "name": "getRewardFee",
      "outputs": [
        {
          "internalType": "uint256",
          "name": "",
          "type": "uint256"
        }
      ],
      "stateMutability": "view",
      "type": "function"
    },
    {
      "inputs": [],
      "name": "getTreasury",
      "outputs": [
        {
          "internalType": "address",
          "name": "",
          "type": "address"
        }
      ],
      "stateMutability": "view",
      "type": "function"
    },
    {
      "inputs": [],
      "name": "getTreasuryFeeRate",
      "outputs": [
        {
          "internalType": "uint256",
          "name": "",
          "type": "uint256"
        }
      ],
      "stateMutability": "view",
      "type": "function"
    },
    {
      "inputs": [],
      "name": "getWithdrawFee",
      "outputs": [
        {
          "internalType": "uint256",
          "name": "",
          "type": "uint256"
        }
      ],
      "stateMutability": "view",
      "type": "function"
    },
    {
      "inputs": [],
      "name": "getWithdrawVaultFee",
      "outputs": [
        {
          "internalType": "uint256",
          "name": "",
          "type": "uint256"
        }
      ],
      "stateMutability": "view",
      "type": "function"
    },
    {
      "inputs": [],
      "name": "getWithdrawVaultFeeWindow",
      "outputs": [
        {
          "internalType": "uint256",
          "name": "",
          "type": "uint256"
        }
      ],
      "stateMutability": "view",
      "type": "function"
    },
    {
      "inputs": [],
      "name": "getWithdrawVaultFeeWindowStartTime",
      "outputs": [
        {
          "internalType": "uint256",
          "name": "",
          "type": "uint256"
        }
      ],
      "stateMutability": "view",
      "type": "function"
    },
    {
      "inputs": [
        {
          "internalType": "address",
          "name": "treasury",
          "type": "address"
        },
        {
          "internalType": "address",
          "name": "owner",
          "type": "address"
        }
      ],
      "name": "initialize",
      "outputs": [],
      "stateMutability": "nonpayable",
      "type": "function"
    },
    {
      "inputs": [],
      "name": "owner",
      "outputs": [
        {
          "internalType": "address",
          "name": "",
          "type": "address"
        }
      ],
      "stateMutability": "view",
      "type": "function"
    },
    {
      "inputs": [],
      "name": "pendingOwner",
      "outputs": [
        {
          "internalType": "address",
          "name": "",
          "type": "address"
        }
      ],
      "stateMutability": "view",
      "type": "function"
    },
    {
      "inputs": [],
      "name": "renounceOwnership",
      "outputs": [],
      "stateMutability": "nonpayable",
      "type": "function"
    },
    {
      "inputs": [
        {
          "internalType": "address",
          "name": "pool",
          "type": "address"
        }
      ],
      "name": "setBlbStabilityPool",
      "outputs": [],
      "stateMutability": "nonpayable",
      "type": "function"
    },
    {
      "inputs": [
        {
          "internalType": "address",
          "name": "vault",
          "type": "address"
        }
      ],
      "name": "setBlbUsdcIchiVault",
      "outputs": [],
      "stateMutability": "nonpayable",
      "type": "function"
    },
    {
      "inputs": [
        {
          "internalType": "uint256",
          "name": "depositFee",
          "type": "uint256"
        }
      ],
      "name": "setDepositFee",
      "outputs": [],
      "stateMutability": "nonpayable",
      "type": "function"
    },
    {
      "inputs": [
        {
          "internalType": "uint256",
          "name": "treasuryFeeRate",
          "type": "uint256"
        },
        {
          "internalType": "uint256",
          "name": "blbStablePoolFeeRate",
          "type": "uint256"
        },
        {
          "internalType": "uint256",
          "name": "blbIchiVaultFeeRate",
          "type": "uint256"
        }
      ],
      "name": "setFeeDistribution",
      "outputs": [],
      "stateMutability": "nonpayable",
      "type": "function"
    },
    {
      "inputs": [
        {
          "internalType": "address",
          "name": "feeManager",
          "type": "address"
        }
      ],
      "name": "setFeeManager",
      "outputs": [],
      "stateMutability": "nonpayable",
      "type": "function"
    },
    {
      "inputs": [
        {
          "internalType": "uint256",
          "name": "rewardFee",
          "type": "uint256"
        }
      ],
      "name": "setRewardFee",
      "outputs": [],
      "stateMutability": "nonpayable",
      "type": "function"
    },
    {
      "inputs": [
        {
          "internalType": "address",
          "name": "treasury",
          "type": "address"
        }
      ],
      "name": "setTreasuryWallet",
      "outputs": [],
      "stateMutability": "nonpayable",
      "type": "function"
    },
    {
      "inputs": [
        {
          "internalType": "uint256",
          "name": "withdrawFee",
          "type": "uint256"
        }
      ],
      "name": "setWithdrawFee",
      "outputs": [],
      "stateMutability": "nonpayable",
      "type": "function"
    },
    {
      "inputs": [
        {
          "internalType": "uint256",
          "name": "withdrawVaultFeeWindow",
          "type": "uint256"
        }
      ],
      "name": "setWithdrawVaultFeeWindow",
      "outputs": [],
      "stateMutability": "nonpayable",
      "type": "function"
    },
    {
      "inputs": [],
      "name": "startVaultWithdrawFee",
      "outputs": [],
      "stateMutability": "nonpayable",
      "type": "function"
    },
    {
      "inputs": [
        {
          "internalType": "address",
          "name": "newOwner",
          "type": "address"
        }
      ],
      "name": "transferOwnership",
      "outputs": [],
      "stateMutability": "nonpayable",
      "type": "function"
    }
  ],
  "bytecode": "0x608060405234801561001057600080fd5b5061001961001e565b6100dd565b600054610100900460ff161561008a5760405162461bcd60e51b815260206004820152602760248201527f496e697469616c697a61626c653a20636f6e747261637420697320696e697469604482015266616c697a696e6760c81b606482015260840160405180910390fd5b60005460ff908116146100db576000805460ff191660ff9081179091556040519081527f7f26b83ff96e1f2b6a682f133852f6798a09c465da95921460cefb38474024989060200160405180910390a15b565b610b2d806100ec6000396000f3fe608060405234801561001057600080fd5b50600436106101cf5760003560e01c806386a31c0f11610104578063e30c3978116100a2578063f2fde38b11610071578063f2fde38b1461035c578063f30efd991461036f578063f5041d4b14610380578063fefe2d6b1461038857600080fd5b8063e30c39781461031f578063ec670aa614610330578063eeea936614610343578063f2d638261461034b57600080fd5b806393f4dc19116100de57806393f4dc19146102d3578063a8602fea146102e6578063b6ac642a146102f9578063ba8e568f1461030c57600080fd5b806386a31c0f146102b25780638da5cb5b146102ba5780639151dfe3146102cb57600080fd5b8063485cc95511610171578063715018a61161014b578063715018a61461029257806376289f381461029a57806379ba5097146102a25780637da74319146102aa57600080fd5b8063485cc95514610259578063490ae2101461026c5780636447ceac1461027f57600080fd5b80633170d452116101ad5780633170d452146102185780633b19e84a1461022057806341a2ac7014610231578063472d35b91461024657600080fd5b80630461f8db146101d45780630de705b5146101fe5780631540aa8914610210575b600080fd5b60a3546001600160a01b03165b6040516001600160a01b0390911681526020015b60405180910390f35b6098545b6040519081526020016101f5565b609954610202565b609d54610202565b60a1546001600160a01b03166101e1565b61024461023f3660046109cf565b610390565b005b610244610254366004610a04565b6103c8565b610244610267366004610a26565b610419565b61024461027a3660046109cf565b6105a4565b61024461028d366004610a04565b6105d7565b610244610628565b609a54610202565b61024461063c565b609c54610202565b609f54610202565b6033546001600160a01b03166101e1565b6102446106b6565b6102446102e1366004610a04565b6106e5565b6102446102f4366004610a04565b610736565b6102446103073660046109cf565b610787565b61024461031a366004610a59565b6107ba565b6065546001600160a01b03166101e1565b61024461033e3660046109cf565b610806565b60a054610202565b6097546001600160a01b03166101e1565b61024461036a366004610a04565b61083a565b60a2546001600160a01b03166101e1565b609e54610202565b609b54610202565b6103986108ab565b6107d08111156103c357604051630216804b60e61b8152600481018290526024015b60405180910390fd5b609a55565b6103d06108ab565b6001600160a01b0381166103f75760405163538ba4f960e01b815260040160405180910390fd5b609780546001600160a01b0319166001600160a01b0392909216919091179055565b600054610100900460ff16158080156104395750600054600160ff909116105b806104535750303b158015610453575060005460ff166001145b6104b65760405162461bcd60e51b815260206004820152602e60248201527f496e697469616c697a61626c653a20636f6e747261637420697320616c72656160448201526d191e481a5b9a5d1a585b1a5e995960921b60648201526084016103ba565b6000805460ff1916600117905580156104d9576000805461ff0019166101001790555b6104e1610905565b6104ea82610934565b6001600160a01b0383166105115760405163538ba4f960e01b815260040160405180910390fd5b60a180546001600160a01b0319166001600160a01b038516179055603260988190556099556103e8609a55610bb8609e55610dac609f81905560a0556064609b55624f1a00609c55801561059f576000805461ff0019169055604051600181527f7f26b83ff96e1f2b6a682f133852f6798a09c465da95921460cefb38474024989060200160405180910390a15b505050565b6105ac6108ab565b6107d08111156105d257604051630216804b60e61b8152600481018290526024016103ba565b609855565b6105df6108ab565b6001600160a01b0381166106065760405163538ba4f960e01b815260040160405180910390fd5b60a280546001600160a01b0319166001600160a01b0392909216919091179055565b6106306108ab565b61063a6000610934565b565b60655433906001600160a01b031681146106aa5760405162461bcd60e51b815260206004820152602960248201527f4f776e61626c6532537465703a2063616c6c6572206973206e6f7420746865206044820152683732bb9037bbb732b960b91b60648201526084016103ba565b6106b381610934565b50565b6106be6108ab565b609d54156106df576040516320fa6a5760e01b815260040160405180910390fd5b42609d55565b6106ed6108ab565b6001600160a01b0381166107145760405163538ba4f960e01b815260040160405180910390fd5b60a380546001600160a01b0319166001600160a01b0392909216919091179055565b61073e6108ab565b6001600160a01b0381166107655760405163538ba4f960e01b815260040160405180910390fd5b60a180546001600160a01b0319166001600160a01b0392909216919091179055565b61078f6108ab565b6107d08111156107b557604051630216804b60e61b8152600481018290526024016103ba565b609955565b6107c26108ab565b612710816107d08486610a85565b6107da9190610a85565b146107f857604051630e5bed8960e11b815260040160405180910390fd5b609e92909255609f5560a055565b61080e6108ab565b624f1a0081111561083557604051633831c9dd60e21b8152600481018290526024016103ba565b609c55565b6108426108ab565b606580546001600160a01b0383166001600160a01b031990911681179091556108736033546001600160a01b031690565b6001600160a01b03167f38d16b8cac22d99fc7c124b9cd0de2d3fa1faef420bfe791d8c362d765e2270060405160405180910390a350565b6033546001600160a01b0316331461063a5760405162461bcd60e51b815260206004820181905260248201527f4f776e61626c653a2063616c6c6572206973206e6f7420746865206f776e657260448201526064016103ba565b600054610100900460ff1661092c5760405162461bcd60e51b81526004016103ba90610aac565b61063a61094d565b606580546001600160a01b03191690556106b38161097d565b600054610100900460ff166109745760405162461bcd60e51b81526004016103ba90610aac565b61063a33610934565b603380546001600160a01b038381166001600160a01b0319831681179093556040519116919082907f8be0079c531659141344cd1fd0a4f28419497f9722a3daafe3b4186f6b6457e090600090a35050565b6000602082840312156109e157600080fd5b5035919050565b80356001600160a01b03811681146109ff57600080fd5b919050565b600060208284031215610a1657600080fd5b610a1f826109e8565b9392505050565b60008060408385031215610a3957600080fd5b610a42836109e8565b9150610a50602084016109e8565b90509250929050565b600080600060608486031215610a6e57600080fd5b505081359360208301359350604090920135919050565b80820180821115610aa657634e487b7160e01b600052601160045260246000fd5b92915050565b6020808252602b908201527f496e697469616c697a61626c653a20636f6e7472616374206973206e6f74206960408201526a6e697469616c697a696e6760a81b60608201526080019056fea2646970667358221220b3538ffbce3beb3323ff9cc338784f91031cc6caf0a71be54b42e59e627f7b0b64736f6c63430008160033",
  "linkReferences": {},
  "deployedLinkReferences": {}
}