{
  "_format": "hh-sol-artifact-1",
  "contractName": "UniswapV3AdapterOracle",
  "sourceName": "contracts/oracle/UniswapV3AdapterOracle.sol",
  "abi": [
    {
      "inputs": [],
      "stateMutability": "nonpayable",
      "type": "constructor"
    },
    {
      "inputs": [],
      "name": "INPUT_ARRAY_MISMATCH",
      "type": "error"
    },
    {
      "inputs": [
        {
          "internalType": "address",
          "name": "token",
          "type": "address"
        }
      ],
      "name": "NO_MEAN",
      "type": "error"
    },
    {
      "inputs": [
        {
          "internalType": "address",
          "name": "token",
          "type": "address"
        }
      ],
      "name": "NO_STABLEPOOL",
      "type": "error"
    },
    {
      "inputs": [
        {
          "internalType": "address",
          "name": "lp",
          "type": "address"
        }
      ],
      "name": "ORACLE_NOT_SUPPORT_LP",
      "type": "error"
    },
    {
      "inputs": [
        {
          "internalType": "uint256",
          "name": "delayTime",
          "type": "uint256"
        }
      ],
      "name": "TOO_LONG_DELAY",
      "type": "error"
    },
    {
      "inputs": [
        {
          "internalType": "uint256",
          "name": "mean",
          "type": "uint256"
        }
      ],
      "name": "TOO_LOW_MEAN",
      "type": "error"
    },
    {
      "inputs": [],
      "name": "ZERO_ADDRESS",
      "type": "error"
    },
    {
      "anonymous": false,
      "inputs": [
        {
          "indexed": false,
          "internalType": "uint8",
          "name": "version",
          "type": "uint8"
        }
      ],
      "name": "Initialized",
      "type": "event"
    },
    {
      "anonymous": false,
      "inputs": [
        {
          "indexed": true,
          "internalType": "address",
          "name": "previousOwner",
          "type": "address"
        },
        {
          "indexed": true,
          "internalType": "address",
          "name": "newOwner",
          "type": "address"
        }
      ],
      "name": "OwnershipTransferStarted",
      "type": "event"
    },
    {
      "anonymous": false,
      "inputs": [
        {
          "indexed": true,
          "internalType": "address",
          "name": "previousOwner",
          "type": "address"
        },
        {
          "indexed": true,
          "internalType": "address",
          "name": "newOwner",
          "type": "address"
        }
      ],
      "name": "OwnershipTransferred",
      "type": "event"
    },
    {
      "anonymous": false,
      "inputs": [
        {
          "indexed": false,
          "internalType": "address",
          "name": "token",
          "type": "address"
        }
      ],
      "name": "RegisterLpToken",
      "type": "event"
    },
    {
      "anonymous": false,
      "inputs": [
        {
          "indexed": false,
          "internalType": "address",
          "name": "token",
          "type": "address"
        },
        {
          "indexed": false,
          "internalType": "address",
          "name": "pool",
          "type": "address"
        }
      ],
      "name": "SetPoolStable",
      "type": "event"
    },
    {
      "anonymous": false,
      "inputs": [
        {
          "indexed": false,
          "internalType": "address",
          "name": "token",
          "type": "address"
        },
        {
          "indexed": false,
          "internalType": "uint256",
          "name": "gap",
          "type": "uint256"
        }
      ],
      "name": "SetTimeGap",
      "type": "event"
    },
    {
      "inputs": [],
      "name": "acceptOwnership",
      "outputs": [],
      "stateMutability": "nonpayable",
      "type": "function"
    },
    {
      "inputs": [],
      "name": "getBaseOracle",
      "outputs": [
        {
          "internalType": "contract IBaseOracle",
          "name": "",
          "type": "address"
        }
      ],
      "stateMutability": "view",
      "type": "function"
    },
    {
      "inputs": [
        {
          "internalType": "address",
          "name": "token",
          "type": "address"
        }
      ],
      "name": "getPrice",
      "outputs": [
        {
          "internalType": "uint256",
          "name": "",
          "type": "uint256"
        }
      ],
      "stateMutability": "nonpayable",
      "type": "function"
    },
    {
      "inputs": [
        {
          "internalType": "address",
          "name": "token",
          "type": "address"
        }
      ],
      "name": "getStablePool",
      "outputs": [
        {
          "internalType": "address",
          "name": "",
          "type": "address"
        }
      ],
      "stateMutability": "view",
      "type": "function"
    },
    {
      "inputs": [
        {
          "internalType": "address",
          "name": "token",
          "type": "address"
        }
      ],
      "name": "getTimeGap",
      "outputs": [
        {
          "internalType": "uint256",
          "name": "",
          "type": "uint256"
        }
      ],
      "stateMutability": "view",
      "type": "function"
    },
    {
      "inputs": [
        {
          "internalType": "address",
          "name": "pair",
          "type": "address"
        }
      ],
      "name": "getTokenInfo",
      "outputs": [
        {
          "components": [
            {
              "internalType": "address",
              "name": "token0",
              "type": "address"
            },
            {
              "internalType": "address",
              "name": "token1",
              "type": "address"
            },
            {
              "internalType": "uint8",
              "name": "token0Decimals",
              "type": "uint8"
            },
            {
              "internalType": "uint8",
              "name": "token1Decimals",
              "type": "uint8"
            },
            {
              "internalType": "address",
              "name": "stablePool",
              "type": "address"
            }
          ],
          "internalType": "struct UniswapV3AdapterOracle.TokenInfo",
          "name": "",
          "type": "tuple"
        }
      ],
      "stateMutability": "view",
      "type": "function"
    },
    {
      "inputs": [
        {
          "internalType": "contract IBaseOracle",
          "name": "base",
          "type": "address"
        },
        {
          "internalType": "address",
          "name": "owner",
          "type": "address"
        }
      ],
      "name": "initialize",
      "outputs": [],
      "stateMutability": "nonpayable",
      "type": "function"
    },
    {
      "inputs": [],
      "name": "owner",
      "outputs": [
        {
          "internalType": "address",
          "name": "",
          "type": "address"
        }
      ],
      "stateMutability": "view",
      "type": "function"
    },
    {
      "inputs": [],
      "name": "pendingOwner",
      "outputs": [
        {
          "internalType": "address",
          "name": "",
          "type": "address"
        }
      ],
      "stateMutability": "view",
      "type": "function"
    },
    {
      "inputs": [
        {
          "internalType": "address",
          "name": "token",
          "type": "address"
        }
      ],
      "name": "registerToken",
      "outputs": [],
      "stateMutability": "nonpayable",
      "type": "function"
    },
    {
      "inputs": [],
      "name": "renounceOwnership",
      "outputs": [],
      "stateMutability": "nonpayable",
      "type": "function"
    },
    {
      "inputs": [
        {
          "internalType": "address[]",
          "name": "tokens",
          "type": "address[]"
        },
        {
          "internalType": "address[]",
          "name": "pools",
          "type": "address[]"
        }
      ],
      "name": "setStablePools",
      "outputs": [],
      "stateMutability": "nonpayable",
      "type": "function"
    },
    {
      "inputs": [
        {
          "internalType": "address[]",
          "name": "tokens",
          "type": "address[]"
        },
        {
          "internalType": "uint256[]",
          "name": "gaps",
          "type": "uint256[]"
        }
      ],
      "name": "setTimeGap",
      "outputs": [],
      "stateMutability": "nonpayable",
      "type": "function"
    },
    {
      "inputs": [
        {
          "internalType": "address",
          "name": "newOwner",
          "type": "address"
        }
      ],
      "name": "transferOwnership",
      "outputs": [],
      "stateMutability": "nonpayable",
      "type": "function"
    }
  ],
  "bytecode": "0x608060405234801561001057600080fd5b50610019610026565b610021610026565b6100e5565b600054610100900460ff16156100925760405162461bcd60e51b815260206004820152602760248201527f496e697469616c697a61626c653a20636f6e747261637420697320696e697469604482015266616c697a696e6760c81b606482015260840160405180910390fd5b60005460ff908116146100e3576000805460ff191660ff9081179091556040519081527f7f26b83ff96e1f2b6a682f133852f6798a09c465da95921460cefb38474024989060200160405180910390a15b565b6116fd806100f46000396000f3fe608060405234801561001057600080fd5b50600436106100ea5760003560e01c806379ba50971161008c578063b2cb961611610066578063b2cb96161461022c578063d13d8a3914610258578063e30c39781461026b578063f2fde38b1461027c57600080fd5b806379ba5097146101ea5780638c11e98d146101f25780638da5cb5b1461021b57600080fd5b806341976e09116100c857806341976e091461019b578063485cc955146101bc578063715018a6146101cf5780637547e30b146101d757600080fd5b806309824a80146100ef5780631f69565f146101045780633088794e14610176575b600080fd5b6101026100fd366004611373565b61028f565b005b610117610112366004611373565b6105b5565b60405161016d9190600060a08201905060018060a01b0380845116835280602085015116602084015260ff604085015116604084015260ff60608501511660608401528060808501511660808401525092915050565b60405180910390f35b6097546001600160a01b03165b6040516001600160a01b03909116815260200161016d565b6101ae6101a9366004611373565b61064e565b60405190815260200161016d565b6101026101ca366004611397565b61091e565b610102610a33565b6101026101e536600461141c565b610a47565b610102610e0a565b6101ae610200366004611373565b6001600160a01b0316600090815260a2602052604090205490565b6033546001600160a01b0316610183565b61018361023a366004611373565b6001600160a01b03908116600090815260a360205260409020541690565b61010261026636600461141c565b610e84565b6065546001600160a01b0316610183565b61010261028a366004611373565b6110a0565b610297611111565b6001600160a01b0381166102be5760405163538ba4f960e01b815260040160405180910390fd5b6001600160a01b03818116600090815260a36020526040902054168061030757604051634e3160a760e01b81526001600160a01b03831660048201526024015b60405180910390fd5b6000816001600160a01b0316630dfe16816040518163ffffffff1660e01b8152600401602060405180830381865afa158015610347573d6000803e3d6000fd5b505050506040513d601f19601f8201168201806040525081019061036b9190611488565b90506000826001600160a01b031663d21220a76040518163ffffffff1660e01b8152600401602060405180830381865afa1580156103ad573d6000803e3d6000fd5b505050506040513d601f19601f820116820180604052508101906103d19190611488565b90506040518060a00160405280836001600160a01b03168152602001826001600160a01b03168152602001836001600160a01b031663313ce5676040518163ffffffff1660e01b8152600401602060405180830381865afa15801561043a573d6000803e3d6000fd5b505050506040513d601f19601f8201168201806040525081019061045e91906114a5565b60ff168152602001826001600160a01b031663313ce5676040518163ffffffff1660e01b8152600401602060405180830381865afa1580156104a4573d6000803e3d6000fd5b505050506040513d601f19601f820116820180604052508101906104c891906114a5565b60ff90811682526001600160a01b03808716602093840152878116600090815260a48452604090819020855181549084166001600160a01b0319918216178255948601516001820180548885015160608a01518816600160a81b0260ff60a81b1991909816600160a01b026001600160a81b031990921693871693909317179190911694909417909355608090940151600290920180549290911691909216179055517f40b39da51b8530ffd459fd9b3a53974555c0744c0f8b0f15499c129933acbd90906105a79085906001600160a01b0391909116815260200190565b60405180910390a150505050565b6040805160a081018252600080825260208201819052918101829052606081018290526080810191909152506001600160a01b03908116600090815260a46020908152604091829020825160a08101845281548516815260018201548086169382019390935260ff600160a01b8404811694820194909452600160a81b9092049092166060820152600290910154909116608082015290565b60008061065a836105b5565b60808101519091506001600160a01b0381166106945760405163385fd8c560e11b81526001600160a01b03851660048201526024016102fe565b6001600160a01b038416600090815260a260205260408120546106b69061116b565b90508063ffffffff166000036106ea57604051633642055760e11b81526001600160a01b03861660048201526024016102fe565b82516020840151600080806001600160a01b03808b169086160361071d575050506060850151604086015182919061072e565b505050604085015160608601518391905b604051638241348960e01b81526001600160a01b038816600482015263ffffffff8716602482015260009073__$50975bd21082d4b196a7c644d5cf6229e7$__906382413489906044016040805180830381865af4158015610794573d6000803e3d6000fd5b505050506040513d601f19601f820116820180604052508101906107b891906114c8565b509050600073__$50975bd21082d4b196a7c644d5cf6229e7$__6343c57a27836107eb6107e687600a611605565b6111d4565b8f896040518563ffffffff1660e01b815260040161083c949392919060029490940b84526001600160801b039290921660208401526001600160a01b03908116604084015216606082015260800190565b602060405180830381865af4158015610859573d6000803e3d6000fd5b505050506040513d601f19601f8201168201806040525081019061087d9190611614565b905061088a84600a611605565b6097546040516341976e0960e01b81526001600160a01b038881166004830152909116906341976e09906024016020604051808303816000875af11580156108d6573d6000803e3d6000fd5b505050506040513d601f19601f820116820180604052508101906108fa9190611614565b610904908361162d565b61090e9190611644565b9c9b505050505050505050505050565b600054610100900460ff161580801561093e5750600054600160ff909116105b806109585750303b158015610958575060005460ff166001145b6109bb5760405162461bcd60e51b815260206004820152602e60248201527f496e697469616c697a61626c653a20636f6e747261637420697320616c72656160448201526d191e481a5b9a5d1a585b1a5e995960921b60648201526084016102fe565b6000805460ff1916600117905580156109de576000805461ff0019166101001790555b6109e8838361123d565b8015610a2e576000805461ff0019169055604051600181527f7f26b83ff96e1f2b6a682f133852f6798a09c465da95921460cefb38474024989060200160405180910390a15b505050565b610a3b611111565b610a456000611294565b565b610a4f611111565b82818114610a705760405163025e650f60e01b815260040160405180910390fd5b60005b81811015610e02576000868683818110610a8f57610a8f611666565b9050602002016020810190610aa49190611373565b6001600160a01b03161480610ae857506000848483818110610ac857610ac8611666565b9050602002016020810190610add9190611373565b6001600160a01b0316145b15610b065760405163538ba4f960e01b815260040160405180910390fd5b838382818110610b1857610b18611666565b9050602002016020810190610b2d9190611373565b6001600160a01b0316630dfe16816040518163ffffffff1660e01b8152600401602060405180830381865afa158015610b6a573d6000803e3d6000fd5b505050506040513d601f19601f82011682018060405250810190610b8e9190611488565b6001600160a01b0316868683818110610ba957610ba9611666565b9050602002016020810190610bbe9190611373565b6001600160a01b031614158015610c945750838382818110610be257610be2611666565b9050602002016020810190610bf79190611373565b6001600160a01b031663d21220a76040518163ffffffff1660e01b8152600401602060405180830381865afa158015610c34573d6000803e3d6000fd5b505050506040513d601f19601f82011682018060405250810190610c589190611488565b6001600160a01b0316868683818110610c7357610c73611666565b9050602002016020810190610c889190611373565b6001600160a01b031614155b15610ce557838382818110610cab57610cab611666565b9050602002016020810190610cc09190611373565b604051634e3160a760e01b81526001600160a01b0390911660048201526024016102fe565b838382818110610cf757610cf7611666565b9050602002016020810190610d0c9190611373565b60a36000888885818110610d2257610d22611666565b9050602002016020810190610d379190611373565b6001600160a01b039081168252602082019290925260400160002080546001600160a01b031916929091169190911790557f3763166362772a0cb8a4c0ea91ee8d3ac227e94a6bf004f6ba87709159231087868683818110610d9b57610d9b611666565b9050602002016020810190610db09190611373565b858584818110610dc257610dc2611666565b9050602002016020810190610dd79190611373565b604080516001600160a01b0393841681529290911660208301520160405180910390a1600101610a73565b505050505050565b60655433906001600160a01b03168114610e785760405162461bcd60e51b815260206004820152602960248201527f4f776e61626c6532537465703a2063616c6c6572206973206e6f7420746865206044820152683732bb9037bbb732b960b91b60648201526084016102fe565b610e8181611294565b50565b610e8c611111565b82818114610ead5760405163025e650f60e01b815260040160405180910390fd5b60005b81811015610e02576202a300848483818110610ece57610ece611666565b905060200201351115610f1057838382818110610eed57610eed611666565b9050602002013560405163f5d3e54f60e01b81526004016102fe91815260200190565b610e10848483818110610f2557610f25611666565b905060200201351015610f6757838382818110610f4457610f44611666565b90506020020135604051635cab37cb60e11b81526004016102fe91815260200190565b6000868683818110610f7b57610f7b611666565b9050602002016020810190610f909190611373565b6001600160a01b031603610fb75760405163538ba4f960e01b815260040160405180910390fd5b838382818110610fc957610fc9611666565b9050602002013560a26000888885818110610fe657610fe6611666565b9050602002016020810190610ffb9190611373565b6001600160a01b031681526020810191909152604001600020557fd1b3641b73e6c323671a85001b02db34d4e63a7fa6d264896138094dd6b8bfdf86868381811061104857611048611666565b905060200201602081019061105d9190611373565b85858481811061106f5761106f611666565b604080516001600160a01b0390951685526020918202939093013590840152500160405180910390a1600101610eb0565b6110a8611111565b606580546001600160a01b0383166001600160a01b031990911681179091556110d96033546001600160a01b031690565b6001600160a01b03167f38d16b8cac22d99fc7c124b9cd0de2d3fa1faef420bfe791d8c362d765e2270060405160405180910390a350565b6033546001600160a01b03163314610a455760405162461bcd60e51b815260206004820181905260248201527f4f776e61626c653a2063616c6c6572206973206e6f7420746865206f776e657260448201526064016102fe565b600063ffffffff8211156111d05760405162461bcd60e51b815260206004820152602660248201527f53616665436173743a2076616c756520646f65736e27742066697420696e203360448201526532206269747360d01b60648201526084016102fe565b5090565b60006001600160801b038211156111d05760405162461bcd60e51b815260206004820152602760248201527f53616665436173743a2076616c756520646f65736e27742066697420696e20316044820152663238206269747360c81b60648201526084016102fe565b600054610100900460ff166112645760405162461bcd60e51b81526004016102fe9061167c565b609780546001600160a01b0319166001600160a01b0384161790556112876112ad565b61129081611294565b5050565b606580546001600160a01b0319169055610e81816112dc565b600054610100900460ff166112d45760405162461bcd60e51b81526004016102fe9061167c565b610a4561132e565b603380546001600160a01b038381166001600160a01b0319831681179093556040519116919082907f8be0079c531659141344cd1fd0a4f28419497f9722a3daafe3b4186f6b6457e090600090a35050565b600054610100900460ff166113555760405162461bcd60e51b81526004016102fe9061167c565b610a4533611294565b6001600160a01b0381168114610e8157600080fd5b60006020828403121561138557600080fd5b81356113908161135e565b9392505050565b600080604083850312156113aa57600080fd5b82356113b58161135e565b915060208301356113c58161135e565b809150509250929050565b60008083601f8401126113e257600080fd5b50813567ffffffffffffffff8111156113fa57600080fd5b6020830191508360208260051b850101111561141557600080fd5b9250929050565b6000806000806040858703121561143257600080fd5b843567ffffffffffffffff8082111561144a57600080fd5b611456888389016113d0565b9096509450602087013591508082111561146f57600080fd5b5061147c878288016113d0565b95989497509550505050565b60006020828403121561149a57600080fd5b81516113908161135e565b6000602082840312156114b757600080fd5b815160ff8116811461139057600080fd5b600080604083850312156114db57600080fd5b82518060020b81146114ec57600080fd5b60208401519092506001600160801b03811681146113c557600080fd5b634e487b7160e01b600052601160045260246000fd5b600181815b8085111561155a57816000190482111561154057611540611509565b8085161561154d57918102915b93841c9390800290611524565b509250929050565b600082611571575060016115ff565b8161157e575060006115ff565b8160018114611594576002811461159e576115ba565b60019150506115ff565b60ff8411156115af576115af611509565b50506001821b6115ff565b5060208310610133831016604e8410600b84101617156115dd575081810a6115ff565b6115e7838361151f565b80600019048211156115fb576115fb611509565b0290505b92915050565b600061139060ff841683611562565b60006020828403121561162657600080fd5b5051919050565b80820281158282048414176115ff576115ff611509565b60008261166157634e487b7160e01b600052601260045260246000fd5b500490565b634e487b7160e01b600052603260045260246000fd5b6020808252602b908201527f496e697469616c697a61626c653a20636f6e7472616374206973206e6f74206960408201526a6e697469616c697a696e6760a81b60608201526080019056fea26469706673582212207dea98297f18d5db695c7f6758f2106450d7d7ae569995bf4b9090b7d1aa0cbd64736f6c63430008160033",
  "linkReferences": {
    "contracts/libraries/UniV3/UniV3WrappedLibContainer.sol": {
      "UniV3WrappedLibContainer": [
        {
          "length": 20,
          "start": 2127
        },
        {
          "length": 20,
          "start": 2227
        }
      ]
    }
  },
  "deployedLinkReferences": {
    "contracts/libraries/UniV3/UniV3WrappedLibContainer.sol": {
      "UniV3WrappedLibContainer": [
        {
          "length": 20,
          "start": 1883
        },
        {
          "length": 20,
          "start": 1983
        }
      ]
    }
  }
}