{
  "_format": "hh-sol-artifact-1",
  "contractName": "ChainlinkAdapterOracle",
  "sourceName": "contracts/oracle/ChainlinkAdapterOracle.sol",
  "abi": [
    {
      "inputs": [],
      "stateMutability": "nonpayable",
      "type": "constructor"
    },
    {
      "inputs": [],
      "name": "INPUT_ARRAY_MISMATCH",
      "type": "error"
    },
    {
      "inputs": [
        {
          "internalType": "address",
          "name": "token",
          "type": "address"
        }
      ],
      "name": "NO_MAX_DELAY",
      "type": "error"
    },
    {
      "inputs": [
        {
          "internalType": "address",
          "name": "token",
          "type": "address"
        }
      ],
      "name": "PRICE_NEGATIVE",
      "type": "error"
    },
    {
      "inputs": [
        {
          "internalType": "address",
          "name": "token",
          "type": "address"
        }
      ],
      "name": "PRICE_OUTDATED",
      "type": "error"
    },
    {
      "inputs": [
        {
          "internalType": "uint256",
          "name": "delayTime",
          "type": "uint256"
        }
      ],
      "name": "TOO_LONG_DELAY",
      "type": "error"
    },
    {
      "inputs": [
        {
          "internalType": "uint256",
          "name": "mean",
          "type": "uint256"
        }
      ],
      "name": "TOO_LOW_MEAN",
      "type": "error"
    },
    {
      "inputs": [],
      "name": "ZERO_ADDRESS",
      "type": "error"
    },
    {
      "anonymous": false,
      "inputs": [
        {
          "indexed": false,
          "internalType": "uint8",
          "name": "version",
          "type": "uint8"
        }
      ],
      "name": "Initialized",
      "type": "event"
    },
    {
      "anonymous": false,
      "inputs": [
        {
          "indexed": true,
          "internalType": "address",
          "name": "previousOwner",
          "type": "address"
        },
        {
          "indexed": true,
          "internalType": "address",
          "name": "newOwner",
          "type": "address"
        }
      ],
      "name": "OwnershipTransferStarted",
      "type": "event"
    },
    {
      "anonymous": false,
      "inputs": [
        {
          "indexed": true,
          "internalType": "address",
          "name": "previousOwner",
          "type": "address"
        },
        {
          "indexed": true,
          "internalType": "address",
          "name": "newOwner",
          "type": "address"
        }
      ],
      "name": "OwnershipTransferred",
      "type": "event"
    },
    {
      "anonymous": false,
      "inputs": [
        {
          "indexed": false,
          "internalType": "address",
          "name": "token",
          "type": "address"
        }
      ],
      "name": "RegisterLpToken",
      "type": "event"
    },
    {
      "anonymous": false,
      "inputs": [
        {
          "indexed": false,
          "internalType": "address",
          "name": "registry",
          "type": "address"
        }
      ],
      "name": "SetRegistry",
      "type": "event"
    },
    {
      "anonymous": false,
      "inputs": [
        {
          "indexed": false,
          "internalType": "address",
          "name": "token",
          "type": "address"
        },
        {
          "indexed": false,
          "internalType": "uint256",
          "name": "gap",
          "type": "uint256"
        }
      ],
      "name": "SetTimeGap",
      "type": "event"
    },
    {
      "anonymous": false,
      "inputs": [
        {
          "indexed": true,
          "internalType": "address",
          "name": "token",
          "type": "address"
        },
        {
          "indexed": true,
          "internalType": "address",
          "name": "remappedToken",
          "type": "address"
        }
      ],
      "name": "SetTokenRemapping",
      "type": "event"
    },
    {
      "inputs": [],
      "name": "acceptOwnership",
      "outputs": [],
      "stateMutability": "nonpayable",
      "type": "function"
    },
    {
      "inputs": [],
      "name": "getFeedRegistry",
      "outputs": [
        {
          "internalType": "contract IFeedRegistry",
          "name": "",
          "type": "address"
        }
      ],
      "stateMutability": "view",
      "type": "function"
    },
    {
      "inputs": [
        {
          "internalType": "address",
          "name": "token",
          "type": "address"
        }
      ],
      "name": "getPrice",
      "outputs": [
        {
          "internalType": "uint256",
          "name": "",
          "type": "uint256"
        }
      ],
      "stateMutability": "view",
      "type": "function"
    },
    {
      "inputs": [
        {
          "internalType": "address",
          "name": "token",
          "type": "address"
        }
      ],
      "name": "getTimeGap",
      "outputs": [
        {
          "internalType": "uint256",
          "name": "",
          "type": "uint256"
        }
      ],
      "stateMutability": "view",
      "type": "function"
    },
    {
      "inputs": [
        {
          "internalType": "address",
          "name": "token",
          "type": "address"
        }
      ],
      "name": "getTokenRemapping",
      "outputs": [
        {
          "internalType": "address",
          "name": "",
          "type": "address"
        }
      ],
      "stateMutability": "view",
      "type": "function"
    },
    {
      "inputs": [
        {
          "internalType": "contract IFeedRegistry",
          "name": "registry",
          "type": "address"
        },
        {
          "internalType": "address",
          "name": "owner",
          "type": "address"
        }
      ],
      "name": "initialize",
      "outputs": [],
      "stateMutability": "nonpayable",
      "type": "function"
    },
    {
      "inputs": [],
      "name": "owner",
      "outputs": [
        {
          "internalType": "address",
          "name": "",
          "type": "address"
        }
      ],
      "stateMutability": "view",
      "type": "function"
    },
    {
      "inputs": [],
      "name": "pendingOwner",
      "outputs": [
        {
          "internalType": "address",
          "name": "",
          "type": "address"
        }
      ],
      "stateMutability": "view",
      "type": "function"
    },
    {
      "inputs": [],
      "name": "renounceOwnership",
      "outputs": [],
      "stateMutability": "nonpayable",
      "type": "function"
    },
    {
      "inputs": [
        {
          "internalType": "contract IFeedRegistry",
          "name": "registry",
          "type": "address"
        }
      ],
      "name": "setFeedRegistry",
      "outputs": [],
      "stateMutability": "nonpayable",
      "type": "function"
    },
    {
      "inputs": [
        {
          "internalType": "address[]",
          "name": "tokens",
          "type": "address[]"
        },
        {
          "internalType": "uint256[]",
          "name": "gaps",
          "type": "uint256[]"
        }
      ],
      "name": "setTimeGap",
      "outputs": [],
      "stateMutability": "nonpayable",
      "type": "function"
    },
    {
      "inputs": [
        {
          "internalType": "address[]",
          "name": "tokens",
          "type": "address[]"
        },
        {
          "internalType": "address[]",
          "name": "remappedTokens",
          "type": "address[]"
        }
      ],
      "name": "setTokenRemappings",
      "outputs": [],
      "stateMutability": "nonpayable",
      "type": "function"
    },
    {
      "inputs": [
        {
          "internalType": "address",
          "name": "newOwner",
          "type": "address"
        }
      ],
      "name": "transferOwnership",
      "outputs": [],
      "stateMutability": "nonpayable",
      "type": "function"
    }
  ],
  "bytecode": "0x608060405234801561001057600080fd5b5061001961001e565b6100dd565b600054610100900460ff161561008a5760405162461bcd60e51b815260206004820152602760248201527f496e697469616c697a61626c653a20636f6e747261637420697320696e697469604482015266616c697a696e6760c81b606482015260840160405180910390fd5b60005460ff908116146100db576000805460ff191660ff9081179091556040519081527f7f26b83ff96e1f2b6a682f133852f6798a09c465da95921460cefb38474024989060200160405180910390a15b565b6111c8806100ec6000396000f3fe608060405234801561001057600080fd5b50600436106100cf5760003560e01c80638c11e98d1161008c578063d13d8a3911610066578063d13d8a39146101c1578063e30c3978146101d4578063efb0f223146101e5578063f2fde38b146101f857600080fd5b80638c11e98d146101765780638da5cb5b1461019f578063ba518bd3146101b057600080fd5b806308c69b96146100d45780630fbedc1d146100e957806341976e0914610132578063485cc95514610153578063715018a61461016657806379ba50971461016e575b600080fd5b6100e76100e2366004610e3d565b61020b565b005b6101156100f7366004610ebe565b6001600160a01b039081166000908152609960205260409020541690565b6040516001600160a01b0390911681526020015b60405180910390f35b610145610140366004610ebe565b6103ae565b604051908152602001610129565b6100e7610161366004610ee2565b61077b565b6100e76108d9565b6100e76108ed565b610145610184366004610ebe565b6001600160a01b031660009081526097602052604090205490565b6033546001600160a01b0316610115565b6098546001600160a01b0316610115565b6100e76101cf366004610e3d565b610967565b6065546001600160a01b0316610115565b6100e76101f3366004610ebe565b610b83565b6100e7610206366004610ebe565b610c06565b610213610c77565b828181146102345760405163025e650f60e01b815260040160405180910390fd5b60005b818110156103a657600086868381811061025357610253610f1b565b90506020020160208101906102689190610ebe565b6001600160a01b03160361028f5760405163538ba4f960e01b815260040160405180910390fd5b8383828181106102a1576102a1610f1b565b90506020020160208101906102b69190610ebe565b609960008888858181106102cc576102cc610f1b565b90506020020160208101906102e19190610ebe565b6001600160a01b039081168252602082019290925260400160002080546001600160a01b0319169290911691909117905583838281811061032457610324610f1b565b90506020020160208101906103399190610ebe565b6001600160a01b031686868381811061035457610354610f1b565b90506020020160208101906103699190610ebe565b6001600160a01b03167fdb99134445c07379338e9d1d3ca5cd958bd95af80ce8e9b6d73882f9b12002e460405160405180910390a3600101610237565b505050505050565b6001600160a01b03808216600090815260996020526040812054909116806103d35750815b6001600160a01b0381166000908152609760205260408120549081900361041d57604051632555b68360e01b81526001600160a01b03851660048201526024015b60405180910390fd5b60006104316098546001600160a01b031690565b604051630b1c5a7560e31b81526001600160a01b03858116600483015261034860248301529192506000918316906358e2d3a890604401602060405180830381865afa158015610485573d6000803e3d6000fd5b505050506040513d601f19601f820116820180604052508101906104a99190610f31565b60405163bcfd032d60e01b81526001600160a01b038681166004830152610348602483015260ff9290921692506000918291829182919087169063bcfd032d9060440160a060405180830381865afa158015610509573d6000803e3d6000fd5b505050506040513d601f19601f8201168201806040525081019061052d9190610f73565b94509450509350935086426105429190610fd9565b82101561056d5760405163679faf0560e11b81526001600160a01b038b166004820152602401610414565b6000831361059957604051633047464160e21b81526001600160a01b038b166004820152602401610414565b8369ffffffffffffffffffff168169ffffffffffffffffffff1610156105dd5760405163679faf0560e11b81526001600160a01b038b166004820152602401610414565b737f39c581f595b53c5cb19bd0b3f8da6c935e2c9f196001600160a01b038b16016106cc5761060d856012610ff2565b61061890600a6110e9565b737f39c581f595b53c5cb19bd0b3f8da6c935e2ca06001600160a01b031663035faf826040518163ffffffff1660e01b8152600401602060405180830381865afa15801561066a573d6000803e3d6000fd5b505050506040513d601f19601f8201168201806040525081019061068e91906110f5565b670de0b6b3a76400006106a086610cd1565b6106aa919061110e565b6106b4919061110e565b6106be9190611125565b9a9950505050505050505050565b73e95a203b1a91a908f9b9ce46459d101078c2c3ca196001600160a01b038b160161075e576106fc856012610ff2565b61070790600a6110e9565b604051636c58d43d60e01b8152670de0b6b3a7640000600482015273e95a203b1a91a908f9b9ce46459d101078c2c3cb90636c58d43d90602401602060405180830381865afa15801561066a573d6000803e3d6000fd5b61076985600a6110e9565b670de0b6b3a76400006106aa85610cd1565b600054610100900460ff161580801561079b5750600054600160ff909116105b806107b55750303b1580156107b5575060005460ff166001145b6108185760405162461bcd60e51b815260206004820152602e60248201527f496e697469616c697a61626c653a20636f6e747261637420697320616c72656160448201526d191e481a5b9a5d1a585b1a5e995960921b6064820152608401610414565b6000805460ff19166001179055801561083b576000805461ff0019166101001790555b610843610d27565b61084c82610d56565b6001600160a01b0383166108735760405163538ba4f960e01b815260040160405180910390fd5b609880546001600160a01b0319166001600160a01b03851617905580156108d4576000805461ff0019169055604051600181527f7f26b83ff96e1f2b6a682f133852f6798a09c465da95921460cefb38474024989060200160405180910390a15b505050565b6108e1610c77565b6108eb6000610d56565b565b60655433906001600160a01b0316811461095b5760405162461bcd60e51b815260206004820152602960248201527f4f776e61626c6532537465703a2063616c6c6572206973206e6f7420746865206044820152683732bb9037bbb732b960b91b6064820152608401610414565b61096481610d56565b50565b61096f610c77565b828181146109905760405163025e650f60e01b815260040160405180910390fd5b60005b818110156103a6576202a3008484838181106109b1576109b1610f1b565b9050602002013511156109f3578383828181106109d0576109d0610f1b565b9050602002013560405163f5d3e54f60e01b815260040161041491815260200190565b610e10848483818110610a0857610a08610f1b565b905060200201351015610a4a57838382818110610a2757610a27610f1b565b90506020020135604051635cab37cb60e11b815260040161041491815260200190565b6000868683818110610a5e57610a5e610f1b565b9050602002016020810190610a739190610ebe565b6001600160a01b031603610a9a5760405163538ba4f960e01b815260040160405180910390fd5b838382818110610aac57610aac610f1b565b9050602002013560976000888885818110610ac957610ac9610f1b565b9050602002016020810190610ade9190610ebe565b6001600160a01b031681526020810191909152604001600020557fd1b3641b73e6c323671a85001b02db34d4e63a7fa6d264896138094dd6b8bfdf868683818110610b2b57610b2b610f1b565b9050602002016020810190610b409190610ebe565b858584818110610b5257610b52610f1b565b604080516001600160a01b0390951685526020918202939093013590840152500160405180910390a1600101610993565b610b8b610c77565b6001600160a01b038116610bb25760405163538ba4f960e01b815260040160405180910390fd5b609880546001600160a01b0319166001600160a01b0383169081179091556040519081527f278c70ced5f3e0e5eeb385b5ff9cb735748ba00a625147e66065ed48fc1562cd9060200160405180910390a150565b610c0e610c77565b606580546001600160a01b0383166001600160a01b03199091168117909155610c3f6033546001600160a01b031690565b6001600160a01b03167f38d16b8cac22d99fc7c124b9cd0de2d3fa1faef420bfe791d8c362d765e2270060405160405180910390a350565b6033546001600160a01b031633146108eb5760405162461bcd60e51b815260206004820181905260248201527f4f776e61626c653a2063616c6c6572206973206e6f7420746865206f776e65726044820152606401610414565b600080821215610d235760405162461bcd60e51b815260206004820181905260248201527f53616665436173743a2076616c7565206d75737420626520706f7369746976656044820152606401610414565b5090565b600054610100900460ff16610d4e5760405162461bcd60e51b815260040161041490611147565b6108eb610d6f565b606580546001600160a01b031916905561096481610d9f565b600054610100900460ff16610d965760405162461bcd60e51b815260040161041490611147565b6108eb33610d56565b603380546001600160a01b038381166001600160a01b0319831681179093556040519116919082907f8be0079c531659141344cd1fd0a4f28419497f9722a3daafe3b4186f6b6457e090600090a35050565b60008083601f840112610e0357600080fd5b50813567ffffffffffffffff811115610e1b57600080fd5b6020830191508360208260051b8501011115610e3657600080fd5b9250929050565b60008060008060408587031215610e5357600080fd5b843567ffffffffffffffff80821115610e6b57600080fd5b610e7788838901610df1565b90965094506020870135915080821115610e9057600080fd5b50610e9d87828801610df1565b95989497509550505050565b6001600160a01b038116811461096457600080fd5b600060208284031215610ed057600080fd5b8135610edb81610ea9565b9392505050565b60008060408385031215610ef557600080fd5b8235610f0081610ea9565b91506020830135610f1081610ea9565b809150509250929050565b634e487b7160e01b600052603260045260246000fd5b600060208284031215610f4357600080fd5b815160ff81168114610edb57600080fd5b805169ffffffffffffffffffff81168114610f6e57600080fd5b919050565b600080600080600060a08688031215610f8b57600080fd5b610f9486610f54565b9450602086015193506040860151925060608601519150610fb760808701610f54565b90509295509295909350565b634e487b7160e01b600052601160045260246000fd5b81810381811115610fec57610fec610fc3565b92915050565b80820180821115610fec57610fec610fc3565b600181815b8085111561104057816000190482111561102657611026610fc3565b8085161561103357918102915b93841c939080029061100a565b509250929050565b60008261105757506001610fec565b8161106457506000610fec565b816001811461107a5760028114611084576110a0565b6001915050610fec565b60ff84111561109557611095610fc3565b50506001821b610fec565b5060208310610133831016604e8410600b84101617156110c3575081810a610fec565b6110cd8383611005565b80600019048211156110e1576110e1610fc3565b029392505050565b6000610edb8383611048565b60006020828403121561110757600080fd5b5051919050565b8082028115828204841417610fec57610fec610fc3565b60008261114257634e487b7160e01b600052601260045260246000fd5b500490565b6020808252602b908201527f496e697469616c697a61626c653a20636f6e7472616374206973206e6f74206960408201526a6e697469616c697a696e6760a81b60608201526080019056fea264697066735822122001ff43f0e42476b0a2d84be189e5ac850c47b096cb303d2d3fba7797d1cba96064736f6c63430008160033",
  "linkReferences": {},
  "deployedLinkReferences": {}
}