{
  "_format": "hh-sol-artifact-1",
  "contractName": "WAuraBooster",
  "sourceName": "contracts/wrapper/WAuraBooster.sol",
  "abi": [
    {
      "inputs": [],
      "stateMutability": "nonpayable",
      "type": "constructor"
    },
    {
      "inputs": [
        {
          "internalType": "uint256",
          "name": "pid",
          "type": "uint256"
        }
      ],
      "name": "BAD_PID",
      "type": "error"
    },
    {
      "inputs": [
        {
          "internalType": "uint256",
          "name": "rewardPerShare",
          "type": "uint256"
        }
      ],
      "name": "BAD_REWARD_PER_SHARE",
      "type": "error"
    },
    {
      "inputs": [
        {
          "internalType": "uint256",
          "name": "tokenId",
          "type": "uint256"
        }
      ],
      "name": "DUPLICATE_TOKEN_ID",
      "type": "error"
    },
    {
      "inputs": [],
      "name": "ZERO_ADDRESS",
      "type": "error"
    },
    {
      "anonymous": false,
      "inputs": [
        {
          "indexed": true,
          "internalType": "address",
          "name": "account",
          "type": "address"
        },
        {
          "indexed": true,
          "internalType": "address",
          "name": "operator",
          "type": "address"
        },
        {
          "indexed": false,
          "internalType": "bool",
          "name": "approved",
          "type": "bool"
        }
      ],
      "name": "ApprovalForAll",
      "type": "event"
    },
    {
      "anonymous": false,
      "inputs": [
        {
          "indexed": true,
          "internalType": "uint256",
          "name": "id",
          "type": "uint256"
        },
        {
          "indexed": true,
          "internalType": "uint256",
          "name": "pid",
          "type": "uint256"
        },
        {
          "indexed": false,
          "internalType": "uint256",
          "name": "amount",
          "type": "uint256"
        }
      ],
      "name": "Burned",
      "type": "event"
    },
    {
      "anonymous": false,
      "inputs": [
        {
          "indexed": false,
          "internalType": "uint8",
          "name": "version",
          "type": "uint8"
        }
      ],
      "name": "Initialized",
      "type": "event"
    },
    {
      "anonymous": false,
      "inputs": [
        {
          "indexed": true,
          "internalType": "uint256",
          "name": "id",
          "type": "uint256"
        },
        {
          "indexed": true,
          "internalType": "uint256",
          "name": "pid",
          "type": "uint256"
        },
        {
          "indexed": false,
          "internalType": "uint256",
          "name": "amount",
          "type": "uint256"
        }
      ],
      "name": "Minted",
      "type": "event"
    },
    {
      "anonymous": false,
      "inputs": [
        {
          "indexed": true,
          "internalType": "address",
          "name": "previousOwner",
          "type": "address"
        },
        {
          "indexed": true,
          "internalType": "address",
          "name": "newOwner",
          "type": "address"
        }
      ],
      "name": "OwnershipTransferStarted",
      "type": "event"
    },
    {
      "anonymous": false,
      "inputs": [
        {
          "indexed": true,
          "internalType": "address",
          "name": "previousOwner",
          "type": "address"
        },
        {
          "indexed": true,
          "internalType": "address",
          "name": "newOwner",
          "type": "address"
        }
      ],
      "name": "OwnershipTransferred",
      "type": "event"
    },
    {
      "anonymous": false,
      "inputs": [
        {
          "indexed": true,
          "internalType": "address",
          "name": "operator",
          "type": "address"
        },
        {
          "indexed": true,
          "internalType": "address",
          "name": "from",
          "type": "address"
        },
        {
          "indexed": true,
          "internalType": "address",
          "name": "to",
          "type": "address"
        },
        {
          "indexed": false,
          "internalType": "uint256[]",
          "name": "ids",
          "type": "uint256[]"
        },
        {
          "indexed": false,
          "internalType": "uint256[]",
          "name": "values",
          "type": "uint256[]"
        }
      ],
      "name": "TransferBatch",
      "type": "event"
    },
    {
      "anonymous": false,
      "inputs": [
        {
          "indexed": true,
          "internalType": "address",
          "name": "operator",
          "type": "address"
        },
        {
          "indexed": true,
          "internalType": "address",
          "name": "from",
          "type": "address"
        },
        {
          "indexed": true,
          "internalType": "address",
          "name": "to",
          "type": "address"
        },
        {
          "indexed": false,
          "internalType": "uint256",
          "name": "id",
          "type": "uint256"
        },
        {
          "indexed": false,
          "internalType": "uint256",
          "name": "value",
          "type": "uint256"
        }
      ],
      "name": "TransferSingle",
      "type": "event"
    },
    {
      "anonymous": false,
      "inputs": [
        {
          "indexed": false,
          "internalType": "string",
          "name": "value",
          "type": "string"
        },
        {
          "indexed": true,
          "internalType": "uint256",
          "name": "id",
          "type": "uint256"
        }
      ],
      "name": "URI",
      "type": "event"
    },
    {
      "inputs": [],
      "name": "acceptOwnership",
      "outputs": [],
      "stateMutability": "nonpayable",
      "type": "function"
    },
    {
      "inputs": [
        {
          "internalType": "address",
          "name": "account",
          "type": "address"
        },
        {
          "internalType": "uint256",
          "name": "id",
          "type": "uint256"
        }
      ],
      "name": "balanceOf",
      "outputs": [
        {
          "internalType": "uint256",
          "name": "",
          "type": "uint256"
        }
      ],
      "stateMutability": "view",
      "type": "function"
    },
    {
      "inputs": [
        {
          "internalType": "address[]",
          "name": "accounts",
          "type": "address[]"
        },
        {
          "internalType": "uint256[]",
          "name": "ids",
          "type": "uint256[]"
        }
      ],
      "name": "balanceOfBatch",
      "outputs": [
        {
          "internalType": "uint256[]",
          "name": "",
          "type": "uint256[]"
        }
      ],
      "stateMutability": "view",
      "type": "function"
    },
    {
      "inputs": [
        {
          "internalType": "uint256",
          "name": "id",
          "type": "uint256"
        },
        {
          "internalType": "uint256",
          "name": "amount",
          "type": "uint256"
        }
      ],
      "name": "burn",
      "outputs": [
        {
          "internalType": "address[]",
          "name": "rewardTokens",
          "type": "address[]"
        },
        {
          "internalType": "uint256[]",
          "name": "rewards",
          "type": "uint256[]"
        }
      ],
      "stateMutability": "nonpayable",
      "type": "function"
    },
    {
      "inputs": [
        {
          "internalType": "uint256",
          "name": "id",
          "type": "uint256"
        }
      ],
      "name": "decodeId",
      "outputs": [
        {
          "internalType": "uint256",
          "name": "gid",
          "type": "uint256"
        },
        {
          "internalType": "uint256",
          "name": "balPerShare",
          "type": "uint256"
        }
      ],
      "stateMutability": "pure",
      "type": "function"
    },
    {
      "inputs": [
        {
          "internalType": "uint256",
          "name": "pid",
          "type": "uint256"
        },
        {
          "internalType": "uint256",
          "name": "balPerShare",
          "type": "uint256"
        }
      ],
      "name": "encodeId",
      "outputs": [
        {
          "internalType": "uint256",
          "name": "id",
          "type": "uint256"
        }
      ],
      "stateMutability": "pure",
      "type": "function"
    },
    {
      "inputs": [
        {
          "internalType": "uint256",
          "name": "pid",
          "type": "uint256"
        }
      ],
      "name": "extraRewardsLength",
      "outputs": [
        {
          "internalType": "uint256",
          "name": "",
          "type": "uint256"
        }
      ],
      "stateMutability": "view",
      "type": "function"
    },
    {
      "inputs": [],
      "name": "getAuraBooster",
      "outputs": [
        {
          "internalType": "contract IAuraBooster",
          "name": "",
          "type": "address"
        }
      ],
      "stateMutability": "view",
      "type": "function"
    },
    {
      "inputs": [],
      "name": "getAuraToken",
      "outputs": [
        {
          "internalType": "contract IAura",
          "name": "",
          "type": "address"
        }
      ],
      "stateMutability": "view",
      "type": "function"
    },
    {
      "inputs": [
        {
          "internalType": "address",
          "name": "bpt",
          "type": "address"
        }
      ],
      "name": "getBPTPoolId",
      "outputs": [
        {
          "internalType": "bytes32",
          "name": "",
          "type": "bytes32"
        }
      ],
      "stateMutability": "view",
      "type": "function"
    },
    {
      "inputs": [
        {
          "internalType": "uint256",
          "name": "pid",
          "type": "uint256"
        }
      ],
      "name": "getEscrow",
      "outputs": [
        {
          "internalType": "address",
          "name": "escrowAddress",
          "type": "address"
        }
      ],
      "stateMutability": "view",
      "type": "function"
    },
    {
      "inputs": [],
      "name": "getEscrowFactory",
      "outputs": [
        {
          "internalType": "contract IPoolEscrowFactory",
          "name": "",
          "type": "address"
        }
      ],
      "stateMutability": "view",
      "type": "function"
    },
    {
      "inputs": [
        {
          "internalType": "uint256",
          "name": "pid",
          "type": "uint256"
        },
        {
          "internalType": "uint256",
          "name": "index",
          "type": "uint256"
        }
      ],
      "name": "getExtraRewarder",
      "outputs": [
        {
          "internalType": "address",
          "name": "",
          "type": "address"
        }
      ],
      "stateMutability": "view",
      "type": "function"
    },
    {
      "inputs": [
        {
          "internalType": "uint256",
          "name": "tokenId",
          "type": "uint256"
        },
        {
          "internalType": "address",
          "name": "token",
          "type": "address"
        }
      ],
      "name": "getInitialTokenPerShare",
      "outputs": [
        {
          "internalType": "uint256",
          "name": "",
          "type": "uint256"
        }
      ],
      "stateMutability": "view",
      "type": "function"
    },
    {
      "inputs": [
        {
          "internalType": "uint256",
          "name": "pid",
          "type": "uint256"
        }
      ],
      "name": "getPoolInfoFromPoolId",
      "outputs": [
        {
          "internalType": "address",
          "name": "lptoken",
          "type": "address"
        },
        {
          "internalType": "address",
          "name": "token",
          "type": "address"
        },
        {
          "internalType": "address",
          "name": "gauge",
          "type": "address"
        },
        {
          "internalType": "address",
          "name": "auraRewards",
          "type": "address"
        },
        {
          "internalType": "address",
          "name": "stash",
          "type": "address"
        },
        {
          "internalType": "bool",
          "name": "shutdown",
          "type": "bool"
        }
      ],
      "stateMutability": "view",
      "type": "function"
    },
    {
      "inputs": [
        {
          "internalType": "address",
          "name": "bpt",
          "type": "address"
        }
      ],
      "name": "getPoolTokens",
      "outputs": [
        {
          "internalType": "address[]",
          "name": "tokens",
          "type": "address[]"
        },
        {
          "internalType": "uint256[]",
          "name": "balances",
          "type": "uint256[]"
        },
        {
          "internalType": "uint256",
          "name": "lastChangedBlock",
          "type": "uint256"
        }
      ],
      "stateMutability": "view",
      "type": "function"
    },
    {
      "inputs": [
        {
          "internalType": "uint256",
          "name": "id",
          "type": "uint256"
        }
      ],
      "name": "getUnderlyingToken",
      "outputs": [
        {
          "internalType": "address",
          "name": "uToken",
          "type": "address"
        }
      ],
      "stateMutability": "view",
      "type": "function"
    },
    {
      "inputs": [],
      "name": "getVault",
      "outputs": [
        {
          "internalType": "contract IBalancerVault",
          "name": "",
          "type": "address"
        }
      ],
      "stateMutability": "view",
      "type": "function"
    },
    {
      "inputs": [
        {
          "internalType": "address",
          "name": "aura",
          "type": "address"
        },
        {
          "internalType": "address",
          "name": "auraBooster",
          "type": "address"
        },
        {
          "internalType": "address",
          "name": "escrowFactory",
          "type": "address"
        },
        {
          "internalType": "address",
          "name": "balancerVault",
          "type": "address"
        },
        {
          "internalType": "address",
          "name": "owner",
          "type": "address"
        }
      ],
      "name": "initialize",
      "outputs": [],
      "stateMutability": "nonpayable",
      "type": "function"
    },
    {
      "inputs": [
        {
          "internalType": "address",
          "name": "account",
          "type": "address"
        },
        {
          "internalType": "address",
          "name": "operator",
          "type": "address"
        }
      ],
      "name": "isApprovedForAll",
      "outputs": [
        {
          "internalType": "bool",
          "name": "",
          "type": "bool"
        }
      ],
      "stateMutability": "view",
      "type": "function"
    },
    {
      "inputs": [
        {
          "internalType": "uint256",
          "name": "pid",
          "type": "uint256"
        },
        {
          "internalType": "uint256",
          "name": "amount",
          "type": "uint256"
        }
      ],
      "name": "mint",
      "outputs": [
        {
          "internalType": "uint256",
          "name": "id",
          "type": "uint256"
        }
      ],
      "stateMutability": "nonpayable",
      "type": "function"
    },
    {
      "inputs": [],
      "name": "owner",
      "outputs": [
        {
          "internalType": "address",
          "name": "",
          "type": "address"
        }
      ],
      "stateMutability": "view",
      "type": "function"
    },
    {
      "inputs": [],
      "name": "pendingOwner",
      "outputs": [
        {
          "internalType": "address",
          "name": "",
          "type": "address"
        }
      ],
      "stateMutability": "view",
      "type": "function"
    },
    {
      "inputs": [
        {
          "internalType": "uint256",
          "name": "tokenId",
          "type": "uint256"
        },
        {
          "internalType": "uint256",
          "name": "amount",
          "type": "uint256"
        }
      ],
      "name": "pendingRewards",
      "outputs": [
        {
          "internalType": "address[]",
          "name": "tokens",
          "type": "address[]"
        },
        {
          "internalType": "uint256[]",
          "name": "rewards",
          "type": "uint256[]"
        }
      ],
      "stateMutability": "view",
      "type": "function"
    },
    {
      "inputs": [],
      "name": "renounceOwnership",
      "outputs": [],
      "stateMutability": "nonpayable",
      "type": "function"
    },
    {
      "inputs": [
        {
          "internalType": "address",
          "name": "from",
          "type": "address"
        },
        {
          "internalType": "address",
          "name": "to",
          "type": "address"
        },
        {
          "internalType": "uint256[]",
          "name": "ids",
          "type": "uint256[]"
        },
        {
          "internalType": "uint256[]",
          "name": "amounts",
          "type": "uint256[]"
        },
        {
          "internalType": "bytes",
          "name": "data",
          "type": "bytes"
        }
      ],
      "name": "safeBatchTransferFrom",
      "outputs": [],
      "stateMutability": "nonpayable",
      "type": "function"
    },
    {
      "inputs": [
        {
          "internalType": "address",
          "name": "from",
          "type": "address"
        },
        {
          "internalType": "address",
          "name": "to",
          "type": "address"
        },
        {
          "internalType": "uint256",
          "name": "id",
          "type": "uint256"
        },
        {
          "internalType": "uint256",
          "name": "amount",
          "type": "uint256"
        },
        {
          "internalType": "bytes",
          "name": "data",
          "type": "bytes"
        }
      ],
      "name": "safeTransferFrom",
      "outputs": [],
      "stateMutability": "nonpayable",
      "type": "function"
    },
    {
      "inputs": [
        {
          "internalType": "address",
          "name": "operator",
          "type": "address"
        },
        {
          "internalType": "bool",
          "name": "approved",
          "type": "bool"
        }
      ],
      "name": "setApprovalForAll",
      "outputs": [],
      "stateMutability": "nonpayable",
      "type": "function"
    },
    {
      "inputs": [
        {
          "internalType": "bytes4",
          "name": "interfaceId",
          "type": "bytes4"
        }
      ],
      "name": "supportsInterface",
      "outputs": [
        {
          "internalType": "bool",
          "name": "",
          "type": "bool"
        }
      ],
      "stateMutability": "view",
      "type": "function"
    },
    {
      "inputs": [
        {
          "internalType": "uint256",
          "name": "pid",
          "type": "uint256"
        },
        {
          "internalType": "uint256",
          "name": "tokenId",
          "type": "uint256"
        }
      ],
      "name": "syncExtraRewards",
      "outputs": [],
      "stateMutability": "nonpayable",
      "type": "function"
    },
    {
      "inputs": [
        {
          "internalType": "address",
          "name": "newOwner",
          "type": "address"
        }
      ],
      "name": "transferOwnership",
      "outputs": [],
      "stateMutability": "nonpayable",
      "type": "function"
    },
    {
      "inputs": [
        {
          "internalType": "uint256",
          "name": "",
          "type": "uint256"
        }
      ],
      "name": "uri",
      "outputs": [
        {
          "internalType": "string",
          "name": "",
          "type": "string"
        }
      ],
      "stateMutability": "view",
      "type": "function"
    }
  ],
  "bytecode": "0x60806040523480156200001157600080fd5b506200001c62000022565b620000e3565b600054610100900460ff16156200008f5760405162461bcd60e51b815260206004820152602760248201527f496e697469616c697a61626c653a20636f6e747261637420697320696e697469604482015266616c697a696e6760c81b606482015260840160405180910390fd5b60005460ff90811614620000e1576000805460ff191660ff9081179091556040519081527f7f26b83ff96e1f2b6a682f133852f6798a09c465da95921460cefb38474024989060200160405180910390a15b565b613f2c80620000f36000396000f3fe608060405234801561001057600080fd5b50600436106101ef5760003560e01c80638d928af81161010f578063ca4f2803116100a2578063efc7acd611610071578063efc7acd614610501578063f22b4d2a14610514578063f242432a1461054b578063f2fde38b1461055e57600080fd5b8063ca4f28031461045b578063dc20c6fa1461047d578063e30c3978146104b4578063e985e9c5146104c557600080fd5b8063b390c0ab116100de578063b390c0ab14610410578063b4b7aab814610423578063b64d89a814610436578063bdcc0e721461044957600080fd5b80638d928af8146103c75780638da5cb5b146103d9578063a22cb465146103ea578063a4775772146103fd57600080fd5b80634e1273f411610187578063715018a611610156578063715018a61461037b57806379ba5097146103835780637ade57651461038b5780637d19e5961461039d57600080fd5b80634e1273f4146102be5780635ba2f909146102de5780635ef819ce1461033457806366fb2d1e1461035557600080fd5b80631b2ef1ca116101c35780631b2ef1ca1461027257806329f2b5bd146102855780632eb2c2d6146102985780634c3d5e60146102ab57600080fd5b8062fdd58e146101f457806301ffc9a71461021a5780630e89341c1461023d5780631459457a1461025d575b600080fd5b6102076102023660046131e0565b610571565b6040519081526020015b60405180910390f35b61022d610228366004613222565b61060c565b6040519015158152602001610211565b61025061024b36600461323f565b61065c565b60405161021191906132a8565b61027061026b3660046132bb565b6106f0565b005b61020761028036600461332c565b610960565b61020761029336600461332c565b610cf9565b6102706102a636600461349f565b610d53565b6102706102b936600461332c565b610d9f565b6102d16102cc36600461354d565b610f8d565b6040516102119190613656565b6102f16102ec36600461323f565b6110af565b604080516001600160a01b0397881681529587166020870152938616938501939093529084166060840152909216608082015290151560a082015260c001610211565b61034761034236600461332c565b61114d565b6040516102119291906136a3565b61012e546001600160a01b03165b6040516001600160a01b039091168152602001610211565b610270611530565b610270611544565b61012f546001600160a01b0316610363565b6103636103ab36600461323f565b600090815261013460205260409020546001600160a01b031690565b610130546001600160a01b0316610363565b60c9546001600160a01b0316610363565b6102706103f83660046136df565b6115be565b61036361040b36600461323f565b6115cd565b61034761041e36600461332c565b6115ea565b61036361043136600461332c565b611847565b61020761044436600461323f565b611867565b61012d546001600160a01b0316610363565b61046e610469366004613718565b61187f565b60405161021193929190613735565b61049f61048b36600461323f565b60f081901c916001600160f01b0390911690565b60408051928352602083019190915201610211565b60fb546001600160a01b0316610363565b61022d6104d336600461376b565b6001600160a01b03918216600090815260666020908152604080832093909416825291909152205460ff1690565b61020761050f366004613718565b61191e565b610207610522366004613799565b6000918252610131602090815260408084206001600160a01b0393909316845291905290205490565b6102706105593660046137be565b611982565b61027061056c366004613718565b6119c7565b60006001600160a01b0383166105e15760405162461bcd60e51b815260206004820152602a60248201527f455243313135353a2061646472657373207a65726f206973206e6f742061207660448201526930b634b21037bbb732b960b11b60648201526084015b60405180910390fd5b5060008181526065602090815260408083206001600160a01b03861684529091529020545b92915050565b60006001600160e01b03198216636cdb3d1360e11b148061063d57506001600160e01b031982166303a24d0760e21b145b8061060657506301ffc9a760e01b6001600160e01b0319831614610606565b60606067805461066b90613827565b80601f016020809104026020016040519081016040528092919081815260200182805461069790613827565b80156106e45780601f106106b9576101008083540402835291602001916106e4565b820191906000526020600020905b8154815290600101906020018083116106c757829003601f168201915b50505050509050919050565b600054610100900460ff16158080156107105750600054600160ff909116105b8061072a5750303b15801561072a575060005460ff166001145b61078d5760405162461bcd60e51b815260206004820152602e60248201527f496e697469616c697a61626c653a20636f6e747261637420697320616c72656160448201526d191e481a5b9a5d1a585b1a5e995960921b60648201526084016105d8565b6000805460ff1916600117905580156107b0576000805461ff0019166101001790555b6001600160a01b03861615806107cd57506001600160a01b038516155b806107df57506001600160a01b038416155b806107f157506001600160a01b038316155b1561080f5760405163538ba4f960e01b815260040160405180910390fd5b610817611a38565b61082082611a67565b610828611a80565b6108556040518060400160405280600c81526020016b3ba0bab930a137b7b9ba32b960a11b815250611aaf565b61012d80546001600160a01b038089166001600160a01b03199283161790925561012f805487841690831617905561012e805492881692909116821790556040805163718e05fb60e11b8152905163e31c0bf6916004808201926020929091908290030181865afa1580156108ce573d6000803e3d6000fd5b505050506040513d601f19601f820116820180604052508101906108f29190613861565b6101385561013080546001600160a01b0319166001600160a01b0385161790558015610958576000805461ff0019169055604051600181527f7f26b83ff96e1f2b6a682f133852f6798a09c465da95921460cefb38474024989060200160405180910390a15b505050505050565b600061096a611adf565b600080610976856110af565b505093505050915060006109a086600090815261013460205260409020546001600160a01b031690565b90506001600160a01b038116610a665761012f5461012e54604051636f7f634960e01b8152600481018990526001600160a01b03918216602482015284821660448201528582166064820152911690636f7f6349906084016020604051808303816000875af1158015610a17573d6000803e3d6000fd5b505050506040513d601f19601f82011682018060405250810190610a3b919061387a565b60008781526101346020526040902080546001600160a01b0319166001600160a01b03831617905590505b610a7b6001600160a01b038416338388611b38565b610a86866000611b98565b60405163b6b55f2560e01b8152600481018690526001600160a01b0382169063b6b55f2590602401600060405180830381600087803b158015610ac857600080fd5b505af1158015610adc573d6000803e3d6000fd5b505050506000826001600160a01b031663cd3daf9d6040518163ffffffff1660e01b8152600401602060405180830381865afa158015610b20573d6000803e3d6000fd5b505050506040513d601f19601f82011682018060405250810190610b449190613861565b9050610b508782610cf9565b9450610b5b85611f0e565b610b7633868860405180602001604052806000815250611f39565b6000836001600160a01b031663d55a23f46040518163ffffffff1660e01b8152600401602060405180830381865afa158015610bb6573d6000803e3d6000fd5b505050506040513d601f19601f82011682018060405250810190610bda9190613861565b905060005b81811015610c8c57604051632061aa2360e11b8152600481018290526000906001600160a01b038716906340c3544690602401602060405180830381865afa158015610c2f573d6000803e3d6000fd5b505050506040513d601f19601f82011682018060405250810190610c53919061387a565b60008b81526101366020526040812091925090610c71908a8461204f565b905080610c8257610c828983612086565b5050600101610bdf565b5060008881526101326020908152604080832054898452610133909252918290205551889087907f488bbf7ce8682b98371a0bb07d4e838ce2e533a907ceda8ac6ee658fdbd162e090610ce2908b815260200190565b60405180910390a350505050506106066001609755565b6000620100008310610d215760405163412c53f960e01b8152600481018490526024016105d8565b600160f01b8210610d485760405163065444c360e11b8152600481018390526024016105d8565b5060f09190911b1790565b6001600160a01b038516331480610d6f5750610d6f85336104d3565b610d8b5760405162461bcd60e51b81526004016105d890613897565b610d98858585858561212d565b5050505050565b6000610daa836110af565b505093505050506000610136600085815260200190815260200160002090506000826001600160a01b031663d55a23f46040518163ffffffff1660e01b8152600401602060405180830381865afa158015610e09573d6000803e3d6000fd5b505050506040513d601f19601f82011682018060405250810190610e2d9190613861565b905060005b8181101561095857604051632061aa2360e11b8152600481018290526000906001600160a01b038616906340c3544690602401602060405180830381865afa158015610e82573d6000803e3d6000fd5b505050506040513d601f19601f82011682018060405250810190610ea6919061387a565b90506000610eb585888461204f565b905080158015610ee957506000878152610131602090815260408083206001600160a01b0386168452909152902054600019145b15610f83576000826001600160a01b031663cd3daf9d6040518163ffffffff1660e01b8152600401602060405180830381865afa158015610f2e573d6000803e3d6000fd5b505050506040513d601f19601f82011682018060405250810190610f529190613861565b90508015610f81576000888152610131602090815260408083206001600160a01b038716845290915290208190555b505b5050600101610e32565b60608151835114610ff25760405162461bcd60e51b815260206004820152602960248201527f455243313135353a206163636f756e747320616e6420696473206c656e677468604482015268040dad2e6dac2e8c6d60bb1b60648201526084016105d8565b6000835167ffffffffffffffff81111561100e5761100e61334e565b604051908082528060200260200182016040528015611037578160200160208202803683370190505b50905060005b84518110156110a75761108285828151811061105b5761105b6138e5565b6020026020010151858381518110611075576110756138e5565b6020026020010151610571565b828281518110611094576110946138e5565b602090810291909101015260010161103d565b509392505050565b6000806000806000806110cb61012e546001600160a01b031690565b6001600160a01b0316631526fe27886040518263ffffffff1660e01b81526004016110f891815260200190565b60c060405180830381865afa158015611115573d6000803e3d6000fd5b505050506040513d601f19601f8201168201806040525081019061113991906138fb565b949c939b5091995097509550909350915050565b60f082901c60008181526101356020526040812054606092839290916001600160f01b038716916001600160a01b039091169061118984611867565b9050611196816002613998565b67ffffffffffffffff8111156111ae576111ae61334e565b6040519080825280602002602001820160405280156111d7578160200160208202803683370190505b5095506111e5816002613998565b67ffffffffffffffff8111156111fd576111fd61334e565b604051908082528060200260200182016040528015611226578160200160208202803683370190505b5094506000611234856110af565b50509350505050806001600160a01b031663f7c618c16040518163ffffffff1660e01b8152600401602060405180830381865afa158015611279573d6000803e3d6000fd5b505050506040513d601f19601f8201168201806040525081019061129d919061387a565b876000815181106112b0576112b06138e5565b60200260200101906001600160a01b031690816001600160a01b0316815250506112db84828a6122fe565b866000815181106112ee576112ee6138e5565b60209081029190910101525061012d546001600160a01b03168660018151811061131a5761131a6138e5565b60200260200101906001600160a01b031690816001600160a01b031681525050611345848489612395565b85600181518110611358576113586138e5565b60200260200101818152505060008060005b8381101561150d5760008781526101366020526040812061138b908361249b565b90506000816001600160a01b031663f7c618c16040518163ffffffff1660e01b8152600401602060405180830381865afa1580156113cd573d6000803e3d6000fd5b505050506040513d601f19601f820116820180604052508101906113f1919061387a565b9050866001600160a01b0316816001600160a01b03160361141757600193505050611505565b60008d8152610131602090815260408083206001600160a01b0386168452909152902054818c611448886002613998565b81518110611458576114586138e5565b60200260200101906001600160a01b031690816001600160a01b031681525050806000036114af5760008b61148e886002613998565b8151811061149e5761149e6138e5565b6020026020010181815250506114f4565b6114cb60001982146114c157816114c4565b60005b848f6122fe565b8b6114d7886002613998565b815181106114e7576114e76138e5565b6020026020010181815250505b856114fe816139ab565b9650505050505b60010161136a565b5080156115235760018851038852600187510387525b5050505050509250929050565b6115386124a7565b6115426000611a67565b565b60fb5433906001600160a01b031681146115b25760405162461bcd60e51b815260206004820152602960248201527f4f776e61626c6532537465703a2063616c6c6572206973206e6f7420746865206044820152683732bb9037bbb732b960b91b60648201526084016105d8565b6115bb81611a67565b50565b6115c9338383612501565b5050565b600060f082901c6115dd816110af565b5093979650505050505050565b6060806115f5611adf565b60f084901c600081815261013460205260409020546001600160a01b031680611620576116206139c4565b6000198503611636576116333387610571565b94505b6116408287611b98565b61164a868661114d565b909450925061165a3387876125e1565b600082815261013760205260408120548190608081901c906001600160801b031660405163c3356ad160e01b8152600481018a905233602482015291935091506001600160a01b0384169063c3356ad190604401600060405180830381600087803b1580156116c857600080fd5b505af11580156116dc573d6000803e3d6000fd5b505087519150600090505b818110156117df576000888281518110611703576117036138e5565b602002602001015190506000888381518110611721576117216138e5565b602002602001015190508060000361173a5750506117d7565b61012d546001600160a01b03166001600160a01b0316826001600160a01b03160361176c5761176981866139da565b94505b604051637aa9bf6f60e11b81526001600160a01b0383811660048301523360248301526044820183905288169063f5537ede90606401600060405180830381600087803b1580156117bc57600080fd5b505af11580156117d0573d6000803e3d6000fd5b5050505050505b6001016116e7565b50608083901b821760008681526101376020908152604091829020929092555189815286918b917f82ac44fe03cbf84203fdc07400a8a763498cf2ccaa9788e23b09d56f4fc85f72910160405180910390a350505050506118406001609755565b9250929050565b600082815261013660205260408120611860908361249b565b9392505050565b60008181526101366020526040812061060690612760565b6060806000611897610130546001600160a01b031690565b6001600160a01b031663f94d46686118ae8661191e565b6040518263ffffffff1660e01b81526004016118cc91815260200190565b600060405180830381865afa1580156118e9573d6000803e3d6000fd5b505050506040513d6000823e601f3d908101601f191682016040526119119190810190613a58565b9250925092509193909250565b6000816001600160a01b03166338fff2d06040518163ffffffff1660e01b8152600401602060405180830381865afa15801561195e573d6000803e3d6000fd5b505050506040513d601f19601f820116820180604052508101906106069190613861565b6001600160a01b03851633148061199e575061199e85336104d3565b6119ba5760405162461bcd60e51b81526004016105d890613897565b610d98858585858561276a565b6119cf6124a7565b60fb80546001600160a01b0383166001600160a01b03199091168117909155611a0060c9546001600160a01b031690565b6001600160a01b03167f38d16b8cac22d99fc7c124b9cd0de2d3fa1faef420bfe791d8c362d765e2270060405160405180910390a350565b600054610100900460ff16611a5f5760405162461bcd60e51b81526004016105d890613b31565b611542612898565b60fb80546001600160a01b03191690556115bb816128c8565b600054610100900460ff16611aa75760405162461bcd60e51b81526004016105d890613b31565b61154261291a565b600054610100900460ff16611ad65760405162461bcd60e51b81526004016105d890613b31565b6115bb81612941565b600260975403611b315760405162461bcd60e51b815260206004820152601f60248201527f5265656e7472616e637947756172643a207265656e7472616e742063616c6c0060448201526064016105d8565b6002609755565b604080516001600160a01b0385811660248301528416604482015260648082018490528251808303909101815260849091019091526020810180516001600160e01b03166323b872dd60e01b179052611b92908590612971565b50505050565b60008281526101356020526040812090611bbb61012d546001600160a01b031690565b6000858152610134602052604081205484549293506001600160a01b0390811692169080611be8886110af565b50945094505050506000826001600160a01b031663cd3daf9d6040518163ffffffff1660e01b8152600401602060405180830381865afa158015611c30573d6000803e3d6000fd5b505050506040513d601f19601f82011682018060405250810190611c549190613861565b90508715611c6657611c668989610d9f565b6001600160a01b038416611c7f57611c7f878484612a4b565b6040516370a0823160e01b81526001600160a01b038681166004830152600091908516906370a0823190602401602060405180830381865afa158015611cc9573d6000803e3d6000fd5b505050506040513d601f19601f82011682018060405250810190611ced9190613861565b905080600003611d90576040516370a0823160e01b81526001600160a01b038781166004830152611d719184918a16906370a0823190602401602060405180830381865afa158015611d43573d6000803e3d6000fd5b505050506040513d601f19601f82011682018060405250810190611d679190613861565b60809190911b1790565b60009a8b526101376020526040909a2099909955505050505050505050565b60008a81526101376020526040812054608081901c906001600160801b0316604051637050ccd960e01b81526001600160a01b038a81166004830152600060248301529193509087169150637050ccd9906044016020604051808303816000875af1158015611e03573d6000803e3d6000fd5b505050506040513d601f19601f82011682018060405250810190611e279190613b7c565b50611e328b88612bdc565b6040516370a0823160e01b81526001600160a01b038881166004830152600091908a16906370a0823190602401602060405180830381865afa158015611e7c573d6000803e3d6000fd5b505050506040513d601f19601f82011682018060405250810190611ea09190613861565b90506000611eae83836139da565b90508015611ee557611ec08185612c6b565b60008e8152610132602052604081208054909190611edf908490613998565b90915550505b608085901b821760009d8e526101376020526040909d209c909c55505050505050505050505050565b611f183382610571565b156115bb5760405163bc1de82760e01b8152600481018290526024016105d8565b6001600160a01b038416611f995760405162461bcd60e51b815260206004820152602160248201527f455243313135353a206d696e7420746f20746865207a65726f206164647265736044820152607360f81b60648201526084016105d8565b336000611fa585612c80565b90506000611fb285612c80565b905060008681526065602090815260408083206001600160a01b038b16845290915281208054879290611fe6908490613998565b909155505060408051878152602081018790526001600160a01b03808a1692600092918716917fc3d58168c5ae7397731d063d5bbf3d657854427343f4c083240f7aacaa2d0f62910160405180910390a461204683600089898989612ccb565b50505050505050565b600061205b8483612e26565b61207c576120698483612e48565b506120748383612086565b506001611860565b5060009392505050565b6000816001600160a01b031663cd3daf9d6040518163ffffffff1660e01b8152600401602060405180830381865afa1580156120c6573d6000803e3d6000fd5b505050506040513d601f19601f820116820180604052508101906120ea9190613861565b905080156120f857806120fc565b6000195b6000938452610131602090815260408086206001600160a01b039095168652939052919092205550565b6001609755565b815183511461218f5760405162461bcd60e51b815260206004820152602860248201527f455243313135353a2069647320616e6420616d6f756e7473206c656e677468206044820152670dad2e6dac2e8c6d60c31b60648201526084016105d8565b6001600160a01b0384166121b55760405162461bcd60e51b81526004016105d890613b99565b3360005b84518110156122985760008582815181106121d6576121d66138e5565b6020026020010151905060008583815181106121f4576121f46138e5565b60209081029190910181015160008481526065835260408082206001600160a01b038e1683529093529190912054909150818110156122455760405162461bcd60e51b81526004016105d890613bde565b60008381526065602090815260408083206001600160a01b038e8116855292528083208585039055908b16825281208054849290612284908490613998565b9091555050600190930192506121b9915050565b50846001600160a01b0316866001600160a01b0316826001600160a01b03167f4a39dc06d4c0dbc64b70af90fd698a233a518aa5d07e595d983b8c0526c8f7fb87876040516122e8929190613c28565b60405180910390a4610958818787878787612e5d565b600080836001600160a01b031663cd3daf9d6040518163ffffffff1660e01b8152600401602060405180830381865afa15801561233f573d6000803e3d6000fd5b505050506040513d601f19601f820116820180604052508101906123639190613861565b9050600085821161237557600061237f565b61237f86836139da565b905061238b8185612f18565b9695505050505050565b600083815261013460205260408120546001600160a01b0316816123b8866110af565b50506040516370a0823160e01b81526001600160a01b0387811660048301529195506000945090851692506370a082319150602401602060405180830381865afa15801561240a573d6000803e3d6000fd5b505050506040513d601f19601f8201168201806040525081019061242e9190613861565b9050806000036124445760009350505050611860565b600061013360006124558a8a610cf9565b81526020019081526020016000205461013260008a81526020019081526020016000205461248391906139da565b905061248f8187612f18565b98975050505050505050565b60006118608383612f2d565b60c9546001600160a01b031633146115425760405162461bcd60e51b815260206004820181905260248201527f4f776e61626c653a2063616c6c6572206973206e6f7420746865206f776e657260448201526064016105d8565b816001600160a01b0316836001600160a01b0316036125745760405162461bcd60e51b815260206004820152602960248201527f455243313135353a2073657474696e6720617070726f76616c20737461747573604482015268103337b91039b2b63360b91b60648201526084016105d8565b6001600160a01b03838116600081815260666020908152604080832094871680845294825291829020805460ff191686151590811790915591519182527f17307eab39ab6107e8899845ad3d59bd9653f200f220920489ca2b5937696c31910160405180910390a3505050565b6001600160a01b0383166126435760405162461bcd60e51b815260206004820152602360248201527f455243313135353a206275726e2066726f6d20746865207a65726f206164647260448201526265737360e81b60648201526084016105d8565b33600061264f84612c80565b9050600061265c84612c80565b6040805160208082018352600091829052888252606581528282206001600160a01b038b16835290522054909150848110156126e65760405162461bcd60e51b8152602060048201526024808201527f455243313135353a206275726e20616d6f756e7420657863656564732062616c604482015263616e636560e01b60648201526084016105d8565b60008681526065602090815260408083206001600160a01b038b81168086529184528285208a8703905582518b81529384018a90529092908816917fc3d58168c5ae7397731d063d5bbf3d657854427343f4c083240f7aacaa2d0f62910160405180910390a4604080516020810190915260009052612046565b6000610606825490565b6001600160a01b0384166127905760405162461bcd60e51b81526004016105d890613b99565b33600061279c85612c80565b905060006127a985612c80565b905060008681526065602090815260408083206001600160a01b038c168452909152902054858110156127ee5760405162461bcd60e51b81526004016105d890613bde565b60008781526065602090815260408083206001600160a01b038d8116855292528083208985039055908a1682528120805488929061282d908490613998565b909155505060408051888152602081018890526001600160a01b03808b16928c821692918816917fc3d58168c5ae7397731d063d5bbf3d657854427343f4c083240f7aacaa2d0f62910160405180910390a461288d848a8a8a8a8a612ccb565b505050505050505050565b600054610100900460ff166128bf5760405162461bcd60e51b81526004016105d890613b31565b61154233611a67565b60c980546001600160a01b038381166001600160a01b0319831681179093556040519116919082907f8be0079c531659141344cd1fd0a4f28419497f9722a3daafe3b4186f6b6457e090600090a35050565b600054610100900460ff166121265760405162461bcd60e51b81526004016105d890613b31565b600054610100900460ff166129685760405162461bcd60e51b81526004016105d890613b31565b6115bb81612f57565b60006129c6826040518060400160405280602081526020017f5361666545524332303a206c6f772d6c6576656c2063616c6c206661696c6564815250856001600160a01b0316612f639092919063ffffffff16565b90508051600014806129e75750808060200190518101906129e79190613b7c565b612a465760405162461bcd60e51b815260206004820152602a60248201527f5361666545524332303a204552433230206f7065726174696f6e20646964206e6044820152691bdd081cdd58d8d9595960b21b60648201526084016105d8565b505050565b6000826001600160a01b031663d55a23f46040518163ffffffff1660e01b8152600401602060405180830381865afa158015612a8b573d6000803e3d6000fd5b505050506040513d601f19601f82011682018060405250810190612aaf9190613861565b905060005b81811015610d9857604051632061aa2360e11b8152600481018290526000906001600160a01b038616906340c3544690602401602060405180830381865afa158015612b04573d6000803e3d6000fd5b505050506040513d601f19601f82011682018060405250810190612b28919061387a565b90506000816001600160a01b031663f7c618c16040518163ffffffff1660e01b8152600401602060405180830381865afa158015612b6a573d6000803e3d6000fd5b505050506040513d601f19601f82011682018060405250810190612b8e919061387a565b9050612b9a8186612f7a565b15612bd25786546001600160a01b039182166001600160a01b0319918216178855600188018054939092169216919091179055610d98565b5050600101612ab4565b6000612be783611867565b905060005b81811015611b92576000612c008583611847565b604051630c00007b60e41b81526001600160a01b0386811660048301529192509082169063c00007b090602401600060405180830381600087803b158015612c4757600080fd5b505af1158015612c5b573d6000803e3d6000fd5b5050505050806001019050612bec565b600061186083670de0b6b3a764000084612fff565b60408051600180825281830190925260609160009190602080830190803683370190505090508281600081518110612cba57612cba6138e5565b602090810291909101015292915050565b6001600160a01b0384163b156109585760405163f23a6e6160e01b81526001600160a01b0385169063f23a6e6190612d0f9089908990889088908890600401613c3b565b6020604051808303816000875af1925050508015612d4a575060408051601f3d908101601f19168201909252612d4791810190613c75565b60015b612df657612d56613c92565b806308c379a003612d8f5750612d6a613cae565b80612d755750612d91565b8060405162461bcd60e51b81526004016105d891906132a8565b505b60405162461bcd60e51b815260206004820152603460248201527f455243313135353a207472616e7366657220746f206e6f6e2d455243313135356044820152732932b1b2b4bb32b91034b6b83632b6b2b73a32b960611b60648201526084016105d8565b6001600160e01b0319811663f23a6e6160e01b146120465760405162461bcd60e51b81526004016105d890613d38565b6001600160a01b03811660009081526001830160205260408120541515611860565b6000611860836001600160a01b03841661301d565b6001600160a01b0384163b156109585760405163bc197c8160e01b81526001600160a01b0385169063bc197c8190612ea19089908990889088908890600401613d80565b6020604051808303816000875af1925050508015612edc575060408051601f3d908101601f19168201909252612ed991810190613c75565b60015b612ee857612d56613c92565b6001600160e01b0319811663bc197c8160e01b146120465760405162461bcd60e51b81526004016105d890613d38565b60006118608383670de0b6b3a7640000612fff565b6000826000018281548110612f4457612f446138e5565b9060005260206000200154905092915050565b60676115c98282613e1a565b6060612f72848460008561306c565b949350505050565b6000826001600160a01b031663d8da81316040518163ffffffff1660e01b8152600401602060405180830381865afa925050508015612fd6575060408051601f3d908101601f19168201909252612fd39181019061387a565b60015b612fe257506000610606565b826001600160a01b0316816001600160a01b031614915050610606565b600082600019048411830215820261301657600080fd5b5091020490565b600081815260018301602052604081205461306457508154600181810184556000848152602080822090930184905584548482528286019093526040902091909155610606565b506000610606565b6060824710156130cd5760405162461bcd60e51b815260206004820152602660248201527f416464726573733a20696e73756666696369656e742062616c616e636520666f6044820152651c8818d85b1b60d21b60648201526084016105d8565b600080866001600160a01b031685876040516130e99190613eda565b60006040518083038185875af1925050503d8060008114613126576040519150601f19603f3d011682016040523d82523d6000602084013e61312b565b606091505b509150915061313c87838387613147565b979650505050505050565b606083156131b65782516000036131af576001600160a01b0385163b6131af5760405162461bcd60e51b815260206004820152601d60248201527f416464726573733a2063616c6c20746f206e6f6e2d636f6e747261637400000060448201526064016105d8565b5081612f72565b612f728383815115612d755781518083602001fd5b6001600160a01b03811681146115bb57600080fd5b600080604083850312156131f357600080fd5b82356131fe816131cb565b946020939093013593505050565b6001600160e01b0319811681146115bb57600080fd5b60006020828403121561323457600080fd5b81356118608161320c565b60006020828403121561325157600080fd5b5035919050565b60005b8381101561327357818101518382015260200161325b565b50506000910152565b60008151808452613294816020860160208601613258565b601f01601f19169290920160200192915050565b602081526000611860602083018461327c565b600080600080600060a086880312156132d357600080fd5b85356132de816131cb565b945060208601356132ee816131cb565b935060408601356132fe816131cb565b9250606086013561330e816131cb565b9150608086013561331e816131cb565b809150509295509295909350565b6000806040838503121561333f57600080fd5b50508035926020909101359150565b634e487b7160e01b600052604160045260246000fd5b601f8201601f1916810167ffffffffffffffff8111828210171561338a5761338a61334e565b6040525050565b600067ffffffffffffffff8211156133ab576133ab61334e565b5060051b60200190565b600082601f8301126133c657600080fd5b813560206133d382613391565b6040516133e08282613364565b80915083815260208101915060208460051b87010193508684111561340457600080fd5b602086015b848110156134205780358352918301918301613409565b509695505050505050565b600082601f83011261343c57600080fd5b813567ffffffffffffffff8111156134565761345661334e565b60405161346d601f8301601f191660200182613364565b81815284602083860101111561348257600080fd5b816020850160208301376000918101602001919091529392505050565b600080600080600060a086880312156134b757600080fd5b85356134c2816131cb565b945060208601356134d2816131cb565b9350604086013567ffffffffffffffff808211156134ef57600080fd5b6134fb89838a016133b5565b9450606088013591508082111561351157600080fd5b61351d89838a016133b5565b9350608088013591508082111561353357600080fd5b506135408882890161342b565b9150509295509295909350565b6000806040838503121561356057600080fd5b823567ffffffffffffffff8082111561357857600080fd5b818501915085601f83011261358c57600080fd5b8135602061359982613391565b6040516135a68282613364565b83815260059390931b85018201928281019150898411156135c657600080fd5b948201945b838610156135ed5785356135de816131cb565b825294820194908201906135cb565b9650508601359250508082111561360357600080fd5b50613610858286016133b5565b9150509250929050565b60008151808452602080850194506020840160005b8381101561364b5781518752958201959082019060010161362f565b509495945050505050565b602081526000611860602083018461361a565b60008151808452602080850194506020840160005b8381101561364b5781516001600160a01b03168752958201959082019060010161367e565b6040815260006136b66040830185613669565b82810360208401526136c8818561361a565b95945050505050565b80151581146115bb57600080fd5b600080604083850312156136f257600080fd5b82356136fd816131cb565b9150602083013561370d816136d1565b809150509250929050565b60006020828403121561372a57600080fd5b8135611860816131cb565b6060815260006137486060830186613669565b828103602084015261375a818661361a565b915050826040830152949350505050565b6000806040838503121561377e57600080fd5b8235613789816131cb565b9150602083013561370d816131cb565b600080604083850312156137ac57600080fd5b82359150602083013561370d816131cb565b600080600080600060a086880312156137d657600080fd5b85356137e1816131cb565b945060208601356137f1816131cb565b93506040860135925060608601359150608086013567ffffffffffffffff81111561381b57600080fd5b6135408882890161342b565b600181811c9082168061383b57607f821691505b60208210810361385b57634e487b7160e01b600052602260045260246000fd5b50919050565b60006020828403121561387357600080fd5b5051919050565b60006020828403121561388c57600080fd5b8151611860816131cb565b6020808252602e908201527f455243313135353a2063616c6c6572206973206e6f7420746f6b656e206f776e60408201526d195c881bdc88185c1c1c9bdd995960921b606082015260800190565b634e487b7160e01b600052603260045260246000fd5b60008060008060008060c0878903121561391457600080fd5b865161391f816131cb565b6020880151909650613930816131cb565b6040880151909550613941816131cb565b6060880151909450613952816131cb565b6080880151909350613963816131cb565b60a0880151909250613974816136d1565b809150509295509295509295565b634e487b7160e01b600052601160045260246000fd5b8082018082111561060657610606613982565b6000600182016139bd576139bd613982565b5060010190565b634e487b7160e01b600052600160045260246000fd5b8181038181111561060657610606613982565b600082601f8301126139fe57600080fd5b81516020613a0b82613391565b604051613a188282613364565b80915083815260208101915060208460051b870101935086841115613a3c57600080fd5b602086015b848110156134205780518352918301918301613a41565b600080600060608486031215613a6d57600080fd5b835167ffffffffffffffff80821115613a8557600080fd5b818601915086601f830112613a9957600080fd5b81516020613aa682613391565b604051613ab38282613364565b83815260059390931b850182019282810191508a841115613ad357600080fd5b948201945b83861015613afa578551613aeb816131cb565b82529482019490820190613ad8565b91890151919750909350505080821115613b1357600080fd5b50613b20868287016139ed565b925050604084015190509250925092565b6020808252602b908201527f496e697469616c697a61626c653a20636f6e7472616374206973206e6f74206960408201526a6e697469616c697a696e6760a81b606082015260800190565b600060208284031215613b8e57600080fd5b8151611860816136d1565b60208082526025908201527f455243313135353a207472616e7366657220746f20746865207a65726f206164604082015264647265737360d81b606082015260800190565b6020808252602a908201527f455243313135353a20696e73756666696369656e742062616c616e636520666f60408201526939103a3930b739b332b960b11b606082015260800190565b6040815260006136b6604083018561361a565b6001600160a01b03868116825285166020820152604081018490526060810183905260a06080820181905260009061313c9083018461327c565b600060208284031215613c8757600080fd5b81516118608161320c565b600060033d1115613cab5760046000803e5060005160e01c5b90565b600060443d1015613cbc5790565b6040516003193d81016004833e81513d67ffffffffffffffff8160248401118184111715613cec57505050505090565b8285019150815181811115613d045750505050505090565b843d8701016020828501011115613d1e5750505050505090565b613d2d60208286010187613364565b509095945050505050565b60208082526028908201527f455243313135353a204552433131353552656365697665722072656a656374656040820152676420746f6b656e7360c01b606082015260800190565b6001600160a01b0386811682528516602082015260a060408201819052600090613dac9083018661361a565b8281036060840152613dbe818661361a565b9050828103608084015261248f818561327c565b601f821115612a46576000816000526020600020601f850160051c81016020861015613dfb5750805b601f850160051c820191505b8181101561095857828155600101613e07565b815167ffffffffffffffff811115613e3457613e3461334e565b613e4881613e428454613827565b84613dd2565b602080601f831160018114613e7d5760008415613e655750858301515b600019600386901b1c1916600185901b178555610958565b600085815260208120601f198616915b82811015613eac57888601518255948401946001909101908401613e8d565b5085821015613eca5787850151600019600388901b60f8161c191681555b5050505050600190811b01905550565b60008251613eec818460208701613258565b919091019291505056fea2646970667358221220fd06e9386beb31f992f8a41da1e90dcae4cda5962cbd57a098276229b2fde5f964736f6c63430008160033",
  "linkReferences": {},
  "deployedLinkReferences": {}
}