{
  "_format": "hh-sol-artifact-1",
  "contractName": "StableBPTOracle",
  "sourceName": "contracts/oracle/StableBPTOracle.sol",
  "abi": [
    {
      "inputs": [],
      "stateMutability": "nonpayable",
      "type": "constructor"
    },
    {
      "inputs": [
        {
          "internalType": "address",
          "name": "lp",
          "type": "address"
        }
      ],
      "name": "ORACLE_NOT_SUPPORT_LP",
      "type": "error"
    },
    {
      "inputs": [],
      "name": "ZERO_ADDRESS",
      "type": "error"
    },
    {
      "anonymous": false,
      "inputs": [
        {
          "indexed": false,
          "internalType": "uint8",
          "name": "version",
          "type": "uint8"
        }
      ],
      "name": "Initialized",
      "type": "event"
    },
    {
      "anonymous": false,
      "inputs": [
        {
          "indexed": true,
          "internalType": "address",
          "name": "previousOwner",
          "type": "address"
        },
        {
          "indexed": true,
          "internalType": "address",
          "name": "newOwner",
          "type": "address"
        }
      ],
      "name": "OwnershipTransferStarted",
      "type": "event"
    },
    {
      "anonymous": false,
      "inputs": [
        {
          "indexed": true,
          "internalType": "address",
          "name": "previousOwner",
          "type": "address"
        },
        {
          "indexed": true,
          "internalType": "address",
          "name": "newOwner",
          "type": "address"
        }
      ],
      "name": "OwnershipTransferred",
      "type": "event"
    },
    {
      "anonymous": false,
      "inputs": [
        {
          "indexed": false,
          "internalType": "address",
          "name": "token",
          "type": "address"
        }
      ],
      "name": "RegisterLpToken",
      "type": "event"
    },
    {
      "inputs": [],
      "name": "acceptOwnership",
      "outputs": [],
      "stateMutability": "nonpayable",
      "type": "function"
    },
    {
      "inputs": [],
      "name": "getBaseOracle",
      "outputs": [
        {
          "internalType": "contract IBaseOracle",
          "name": "",
          "type": "address"
        }
      ],
      "stateMutability": "view",
      "type": "function"
    },
    {
      "inputs": [
        {
          "internalType": "address",
          "name": "bpt",
          "type": "address"
        }
      ],
      "name": "getBptInfo",
      "outputs": [
        {
          "components": [
            {
              "internalType": "address[]",
              "name": "tokens",
              "type": "address[]"
            },
            {
              "internalType": "address[]",
              "name": "rateProviders",
              "type": "address[]"
            }
          ],
          "internalType": "struct StableBPTOracle.TokenInfo",
          "name": "",
          "type": "tuple"
        }
      ],
      "stateMutability": "view",
      "type": "function"
    },
    {
      "inputs": [
        {
          "internalType": "address",
          "name": "token",
          "type": "address"
        }
      ],
      "name": "getPrice",
      "outputs": [
        {
          "internalType": "uint256",
          "name": "",
          "type": "uint256"
        }
      ],
      "stateMutability": "nonpayable",
      "type": "function"
    },
    {
      "inputs": [],
      "name": "getWeightedPoolOracle",
      "outputs": [
        {
          "internalType": "address",
          "name": "",
          "type": "address"
        }
      ],
      "stateMutability": "view",
      "type": "function"
    },
    {
      "inputs": [
        {
          "internalType": "contract IBalancerVault",
          "name": "vault",
          "type": "address"
        },
        {
          "internalType": "contract IBaseOracle",
          "name": "base",
          "type": "address"
        },
        {
          "internalType": "address",
          "name": "owner",
          "type": "address"
        }
      ],
      "name": "initialize",
      "outputs": [],
      "stateMutability": "nonpayable",
      "type": "function"
    },
    {
      "inputs": [],
      "name": "owner",
      "outputs": [
        {
          "internalType": "address",
          "name": "",
          "type": "address"
        }
      ],
      "stateMutability": "view",
      "type": "function"
    },
    {
      "inputs": [],
      "name": "pendingOwner",
      "outputs": [
        {
          "internalType": "address",
          "name": "",
          "type": "address"
        }
      ],
      "stateMutability": "view",
      "type": "function"
    },
    {
      "inputs": [
        {
          "internalType": "address",
          "name": "bpt",
          "type": "address"
        }
      ],
      "name": "registerBpt",
      "outputs": [],
      "stateMutability": "nonpayable",
      "type": "function"
    },
    {
      "inputs": [],
      "name": "renounceOwnership",
      "outputs": [],
      "stateMutability": "nonpayable",
      "type": "function"
    },
    {
      "inputs": [
        {
          "internalType": "address",
          "name": "oracle",
          "type": "address"
        }
      ],
      "name": "setWeightedPoolOracle",
      "outputs": [],
      "stateMutability": "nonpayable",
      "type": "function"
    },
    {
      "inputs": [
        {
          "internalType": "address",
          "name": "newOwner",
          "type": "address"
        }
      ],
      "name": "transferOwnership",
      "outputs": [],
      "stateMutability": "nonpayable",
      "type": "function"
    }
  ],
  "bytecode": "0x608060405234801561001057600080fd5b50610019610026565b610021610026565b6100e5565b600054610100900460ff16156100925760405162461bcd60e51b815260206004820152602760248201527f496e697469616c697a61626c653a20636f6e747261637420697320696e697469604482015266616c697a696e6760c81b606482015260840160405180910390fd5b60005460ff908116146100e3576000805460ff191660ff9081179091556040519081527f7f26b83ff96e1f2b6a682f133852f6798a09c465da95921460cefb38474024989060200160405180910390a15b565b611461806100f46000396000f3fe608060405234801561001057600080fd5b50600436106100b45760003560e01c806379ba50971161007157806379ba5097146101455780638da5cb5b1461014d57806396a421041461015e578063c0c53b8b1461017e578063e30c397814610191578063f2fde38b146101a257600080fd5b8063257cc90d146100b95780633088794e146100ce5780633158952b146100f857806341976e091461010b578063590ed5a71461012c578063715018a61461013d575b600080fd5b6100cc6100c736600461103c565b6101b5565b005b6097546001600160a01b03165b6040516001600160a01b0390911681526020015b60405180910390f35b6100cc61010636600461103c565b6105f6565b61011e61011936600461103c565b610647565b6040519081526020016100ef565b60a2546001600160a01b03166100db565b6100cc610733565b6100cc610747565b6033546001600160a01b03166100db565b61017161016c36600461103c565b6107c1565b6040516100ef919061109e565b6100cc61018c3660046110e0565b6108b4565b6065546001600160a01b03166100db565b6100cc6101b036600461103c565b6109e5565b6101bd610a56565b6001600160a01b0381166101e45760405163538ba4f960e01b815260040160405180910390fd5b60a3546040805163038fff2d60e41b8152905183926000926001600160a01b039182169263f94d4668928616916338fff2d09160048083019260209291908290030181865afa15801561023b573d6000803e3d6000fd5b505050506040513d601f19601f8201168201806040525081019061025f919061112b565b6040518263ffffffff1660e01b815260040161027d91815260200190565b600060405180830381865afa15801561029a573d6000803e3d6000fd5b505050506040513d6000823e601f3d908101601f191682016040526102c29190810190611227565b505090506000826001600160a01b031663238a2d596040518163ffffffff1660e01b8152600401600060405180830381865afa158015610306573d6000803e3d6000fd5b505050506040513d6000823e601f3d908101601f1916820160405261032e91908101906112eb565b9050600082519050836001600160a01b03166382687a566040518163ffffffff1660e01b8152600401602060405180830381865afa925050508015610390575060408051601f3d908101601f1916820190925261038d9181019061112b565b60015b6103f65760408051808201825284815260208082018590526001600160a01b038816600090815260a482529290922081518051929391926103d49284920190610fad565b5060208281015180516103ed9260018501920190610fad565b509050506105b3565b6000610403600184611336565b67ffffffffffffffff81111561041b5761041b611144565b604051908082528060200260200182016040528015610444578160200160208202803683370190505b5090506000610454600185611336565b67ffffffffffffffff81111561046c5761046c611144565b604051908082528060200260200182016040528015610495578160200160208202803683370190505b5090506000805b8581101561055157848114610549578781815181106104bd576104bd611349565b60200260200101518483815181106104d7576104d7611349565b60200260200101906001600160a01b031690816001600160a01b03168152505086818151811061050957610509611349565b602002602001015183838151811061052357610523611349565b6001600160a01b0390921660209283029190910190910152816105458161135f565b9250505b60010161049c565b5060408051808201825284815260208082018590526001600160a01b038c16600090815260a482529290922081518051929391926105929284920190610fad565b5060208281015180516105ab9260018501920190610fad565b505050505050505b6040516001600160a01b03861681527f40b39da51b8530ffd459fd9b3a53974555c0744c0f8b0f15499c129933acbd909060200160405180910390a15050505050565b6105fe610a56565b6001600160a01b0381166106255760405163538ba4f960e01b815260040160405180910390fd5b60a280546001600160a01b0319166001600160a01b0392909216919091179055565b60a35460009061065f906001600160a01b0316610ab0565b600061066a836107c1565b80515190915060008190036106a25760405163385fd8c560e11b81526001600160a01b03851660048201526024015b60405180910390fd5b60006106b78360000151846020015184610b5d565b90506000856001600160a01b031663679aefce6040518163ffffffff1660e01b8152600401602060405180830381865afa1580156106f9573d6000803e3d6000fd5b505050506040513d601f19601f8201168201806040525081019061071d919061112b565b90506107298282610be6565b9695505050505050565b61073b610a56565b6107456000610c30565b565b60655433906001600160a01b031681146107b55760405162461bcd60e51b815260206004820152602960248201527f4f776e61626c6532537465703a2063616c6c6572206973206e6f7420746865206044820152683732bb9037bbb732b960b91b6064820152608401610699565b6107be81610c30565b50565b604080518082018252606080825260208083018290526001600160a01b038516600090815260a482528490208451815492830281018401865294850182815293949390928492849184018282801561084257602002820191906000526020600020905b81546001600160a01b03168152600190910190602001808311610824575b50505050508152602001600182018054806020026020016040519081016040528092919081815260200182805480156108a457602002820191906000526020600020905b81546001600160a01b03168152600190910190602001808311610886575b5050505050815250509050919050565b600054610100900460ff16158080156108d45750600054600160ff909116105b806108ee5750303b1580156108ee575060005460ff166001145b6109515760405162461bcd60e51b815260206004820152602e60248201527f496e697469616c697a61626c653a20636f6e747261637420697320616c72656160448201526d191e481a5b9a5d1a585b1a5e995960921b6064820152608401610699565b6000805460ff191660011790558015610974576000805461ff0019166101001790555b61097e8383610c49565b60a380546001600160a01b0319166001600160a01b03861617905580156109df576000805461ff0019169055604051600181527f7f26b83ff96e1f2b6a682f133852f6798a09c465da95921460cefb38474024989060200160405180910390a15b50505050565b6109ed610a56565b606580546001600160a01b0383166001600160a01b03199091168117909155610a1e6033546001600160a01b031690565b6001600160a01b03167f38d16b8cac22d99fc7c124b9cd0de2d3fa1faef420bfe791d8c362d765e2270060405160405180910390a350565b6033546001600160a01b031633146107455760405162461bcd60e51b815260206004820181905260248201527f4f776e61626c653a2063616c6c6572206973206e6f7420746865206f776e65726044820152606401610699565b604080516000602480830182905283518084039091018152604490920183526020820180516001600160e01b03166303a38fa160e21b17905291516001600160a01b0384169161271091610b049190611378565b6000604051808303818686fa925050503d8060008114610b40576040519150601f19603f3d011682016040523d82523d6000602084013e610b45565b606091505b50915050610b598151600014610190610c9c565b5050565b60008080805b84811015610bdb576000878281518110610b7f57610b7f611349565b602002602001015190506000878381518110610b9d57610b9d611349565b602002602001015190506000610bb38284610caa565b905085811080610bc1575083155b15610bcd578294508095505b505050806001019050610b63565b509095945050505050565b600080610bf383856113a7565b9050610c14841580610c0d575083610c0b86846113be565b145b6003610c9c565b610c26670de0b6b3a7640000826113be565b9150505b92915050565b606580546001600160a01b03191690556107be81610d42565b600054610100900460ff16610c705760405162461bcd60e51b8152600401610699906113e0565b609780546001600160a01b0319166001600160a01b038416179055610c93610d94565b610b5981610c30565b81610b5957610b5981610dc3565b600080610cb683610dd3565b90506001600160a01b03841615610d3b576000846001600160a01b031663679aefce6040518163ffffffff1660e01b8152600401602060405180830381865afa158015610d07573d6000803e3d6000fd5b505050506040513d601f19601f82011682018060405250810190610d2b919061112b565b9050610d378282610eb5565b9150505b9392505050565b603380546001600160a01b038381166001600160a01b0319831681179093556040519116919082907f8be0079c531659141344cd1fd0a4f28419497f9722a3daafe3b4186f6b6457e090600090a35050565b600054610100900460ff16610dbb5760405162461bcd60e51b8152600401610699906113e0565b610745610f1a565b6107be816210905360ea1b610f4a565b6097546040516341976e0960e01b81526001600160a01b03838116600483015260009216906341976e09906024016020604051808303816000875af1925050508015610e3c575060408051601f3d908101601f19168201909252610e399181019061112b565b60015b610c2a5760a2546040516341976e0960e01b81526001600160a01b038481166004830152909116906341976e09906024016020604051808303816000875af1925050508015610ea8575060408051601f3d908101601f19168201909252610ea59181019061112b565b60015b610c2a57610c2a82610647565b6000610ec48215156004610c9c565b82600003610ed457506000610c2a565b6000610ee8670de0b6b3a7640000856113a7565b9050610f08670de0b6b3a7640000610f0086846113be565b146005610c9c565b610f1283826113be565b915050610c2a565b600054610100900460ff16610f415760405162461bcd60e51b8152600401610699906113e0565b61074533610c30565b62461bcd60e51b600090815260206004526007602452600a808404818106603090810160081b958390069590950190829004918206850160101b01602363ffffff0060e086901c160160181b0190930160c81b604481905260e883901c91606490fd5b828054828255906000526020600020908101928215611002579160200282015b8281111561100257825182546001600160a01b0319166001600160a01b03909116178255602090920191600190910190610fcd565b5061100e929150611012565b5090565b5b8082111561100e5760008155600101611013565b6001600160a01b03811681146107be57600080fd5b60006020828403121561104e57600080fd5b8135610d3b81611027565b60008151808452602080850194506020840160005b838110156110935781516001600160a01b03168752958201959082019060010161106e565b509495945050505050565b6020815260008251604060208401526110ba6060840182611059565b90506020840151601f198483030160408501526110d78282611059565b95945050505050565b6000806000606084860312156110f557600080fd5b833561110081611027565b9250602084013561111081611027565b9150604084013561112081611027565b809150509250925092565b60006020828403121561113d57600080fd5b5051919050565b634e487b7160e01b600052604160045260246000fd5b604051601f8201601f1916810167ffffffffffffffff8111828210171561118357611183611144565b604052919050565b600067ffffffffffffffff8211156111a5576111a5611144565b5060051b60200190565b600082601f8301126111c057600080fd5b815160206111d56111d08361118b565b61115a565b8083825260208201915060208460051b8701019350868411156111f757600080fd5b602086015b8481101561121c57805161120f81611027565b83529183019183016111fc565b509695505050505050565b60008060006060848603121561123c57600080fd5b835167ffffffffffffffff8082111561125457600080fd5b611260878388016111af565b945060209150818601518181111561127757600080fd5b86019050601f8101871361128a57600080fd5b80516112986111d08261118b565b81815260059190911b820183019083810190898311156112b757600080fd5b928401925b828410156112d5578351825292840192908401906112bc565b8096505050505050604084015190509250925092565b6000602082840312156112fd57600080fd5b815167ffffffffffffffff81111561131457600080fd5b610c26848285016111af565b634e487b7160e01b600052601160045260246000fd5b81810381811115610c2a57610c2a611320565b634e487b7160e01b600052603260045260246000fd5b60006001820161137157611371611320565b5060010190565b6000825160005b81811015611399576020818601810151858301520161137f565b506000920191825250919050565b8082028115828204841417610c2a57610c2a611320565b6000826113db57634e487b7160e01b600052601260045260246000fd5b500490565b6020808252602b908201527f496e697469616c697a61626c653a20636f6e7472616374206973206e6f74206960408201526a6e697469616c697a696e6760a81b60608201526080019056fea264697066735822122009be422d77026ad11cc0bd755e6fb466e17cd8b1907c5d2af4ec515ef174fb6164736f6c63430008160033",
  "linkReferences": {},
  "deployedLinkReferences": {}
}