{
  "_format": "hh-sol-artifact-1",
  "contractName": "IchiSpell",
  "sourceName": "contracts/spell/IchiSpell.sol",
  "abi": [
    {
      "inputs": [],
      "stateMutability": "nonpayable",
      "type": "constructor"
    },
    {
      "inputs": [
        {
          "internalType": "uint256",
          "name": "strategyId",
          "type": "uint256"
        },
        {
          "internalType": "address",
          "name": "colToken",
          "type": "address"
        }
      ],
      "name": "COLLATERAL_NOT_EXIST",
      "type": "error"
    },
    {
      "inputs": [],
      "name": "EXCEED_MAX_LTV",
      "type": "error"
    },
    {
      "inputs": [
        {
          "internalType": "uint256",
          "name": "strategyId",
          "type": "uint256"
        }
      ],
      "name": "EXCEED_MAX_POS_SIZE",
      "type": "error"
    },
    {
      "inputs": [
        {
          "internalType": "uint256",
          "name": "strategyId",
          "type": "uint256"
        }
      ],
      "name": "EXCEED_MIN_POS_SIZE",
      "type": "error"
    },
    {
      "inputs": [
        {
          "internalType": "address",
          "name": "colToken",
          "type": "address"
        }
      ],
      "name": "INCORRECT_COLTOKEN",
      "type": "error"
    },
    {
      "inputs": [
        {
          "internalType": "address",
          "name": "debtToken",
          "type": "address"
        }
      ],
      "name": "INCORRECT_DEBT",
      "type": "error"
    },
    {
      "inputs": [
        {
          "internalType": "address",
          "name": "lpToken",
          "type": "address"
        }
      ],
      "name": "INCORRECT_LP",
      "type": "error"
    },
    {
      "inputs": [
        {
          "internalType": "uint256",
          "name": "pid",
          "type": "uint256"
        }
      ],
      "name": "INCORRECT_PID",
      "type": "error"
    },
    {
      "inputs": [
        {
          "internalType": "uint256",
          "name": "strategyId",
          "type": "uint256"
        }
      ],
      "name": "INCORRECT_STRATEGY_ID",
      "type": "error"
    },
    {
      "inputs": [
        {
          "internalType": "address",
          "name": "uToken",
          "type": "address"
        }
      ],
      "name": "INCORRECT_UNDERLYING",
      "type": "error"
    },
    {
      "inputs": [],
      "name": "INPUT_ARRAY_MISMATCH",
      "type": "error"
    },
    {
      "inputs": [],
      "name": "INVALID_POS_SIZE",
      "type": "error"
    },
    {
      "inputs": [
        {
          "internalType": "address",
          "name": "spell",
          "type": "address"
        },
        {
          "internalType": "uint256",
          "name": "strategyId",
          "type": "uint256"
        }
      ],
      "name": "STRATEGY_NOT_EXIST",
      "type": "error"
    },
    {
      "inputs": [],
      "name": "ZERO_ADDRESS",
      "type": "error"
    },
    {
      "inputs": [],
      "name": "ZERO_AMOUNT",
      "type": "error"
    },
    {
      "anonymous": false,
      "inputs": [
        {
          "indexed": false,
          "internalType": "uint256",
          "name": "strategyId",
          "type": "uint256"
        },
        {
          "indexed": false,
          "internalType": "address[]",
          "name": "collaterals",
          "type": "address[]"
        },
        {
          "indexed": false,
          "internalType": "uint256[]",
          "name": "maxLTVs",
          "type": "uint256[]"
        }
      ],
      "name": "CollateralsMaxLTVSet",
      "type": "event"
    },
    {
      "anonymous": false,
      "inputs": [
        {
          "indexed": false,
          "internalType": "uint8",
          "name": "version",
          "type": "uint8"
        }
      ],
      "name": "Initialized",
      "type": "event"
    },
    {
      "anonymous": false,
      "inputs": [
        {
          "indexed": true,
          "internalType": "address",
          "name": "previousOwner",
          "type": "address"
        },
        {
          "indexed": true,
          "internalType": "address",
          "name": "newOwner",
          "type": "address"
        }
      ],
      "name": "OwnershipTransferStarted",
      "type": "event"
    },
    {
      "anonymous": false,
      "inputs": [
        {
          "indexed": true,
          "internalType": "address",
          "name": "previousOwner",
          "type": "address"
        },
        {
          "indexed": true,
          "internalType": "address",
          "name": "newOwner",
          "type": "address"
        }
      ],
      "name": "OwnershipTransferred",
      "type": "event"
    },
    {
      "anonymous": false,
      "inputs": [
        {
          "indexed": false,
          "internalType": "uint256",
          "name": "strategyId",
          "type": "uint256"
        },
        {
          "indexed": false,
          "internalType": "address",
          "name": "vault",
          "type": "address"
        },
        {
          "indexed": false,
          "internalType": "uint256",
          "name": "minPosSize",
          "type": "uint256"
        },
        {
          "indexed": false,
          "internalType": "uint256",
          "name": "maxPosSize",
          "type": "uint256"
        }
      ],
      "name": "StrategyAdded",
      "type": "event"
    },
    {
      "anonymous": false,
      "inputs": [
        {
          "indexed": false,
          "internalType": "uint256",
          "name": "strategyId",
          "type": "uint256"
        },
        {
          "indexed": false,
          "internalType": "uint256",
          "name": "minPosSize",
          "type": "uint256"
        },
        {
          "indexed": false,
          "internalType": "uint256",
          "name": "maxPosSize",
          "type": "uint256"
        }
      ],
      "name": "StrategyPosSizeUpdated",
      "type": "event"
    },
    {
      "inputs": [],
      "name": "acceptOwnership",
      "outputs": [],
      "stateMutability": "nonpayable",
      "type": "function"
    },
    {
      "inputs": [
        {
          "internalType": "address",
          "name": "vault",
          "type": "address"
        },
        {
          "internalType": "uint256",
          "name": "minPosSize",
          "type": "uint256"
        },
        {
          "internalType": "uint256",
          "name": "maxPosSize",
          "type": "uint256"
        }
      ],
      "name": "addStrategy",
      "outputs": [],
      "stateMutability": "nonpayable",
      "type": "function"
    },
    {
      "inputs": [
        {
          "components": [
            {
              "internalType": "uint256",
              "name": "strategyId",
              "type": "uint256"
            },
            {
              "internalType": "address",
              "name": "collToken",
              "type": "address"
            },
            {
              "internalType": "address",
              "name": "borrowToken",
              "type": "address"
            },
            {
              "internalType": "uint256",
              "name": "amountRepay",
              "type": "uint256"
            },
            {
              "internalType": "uint256",
              "name": "amountPosRemove",
              "type": "uint256"
            },
            {
              "internalType": "uint256",
              "name": "amountShareWithdraw",
              "type": "uint256"
            },
            {
              "internalType": "uint256",
              "name": "amountOutMin",
              "type": "uint256"
            },
            {
              "internalType": "uint256",
              "name": "amountToSwap",
              "type": "uint256"
            },
            {
              "internalType": "bytes",
              "name": "swapData",
              "type": "bytes"
            }
          ],
          "internalType": "struct IBasicSpell.ClosePosParam",
          "name": "param",
          "type": "tuple"
        }
      ],
      "name": "closePosition",
      "outputs": [],
      "stateMutability": "nonpayable",
      "type": "function"
    },
    {
      "inputs": [
        {
          "components": [
            {
              "internalType": "uint256",
              "name": "strategyId",
              "type": "uint256"
            },
            {
              "internalType": "address",
              "name": "collToken",
              "type": "address"
            },
            {
              "internalType": "address",
              "name": "borrowToken",
              "type": "address"
            },
            {
              "internalType": "uint256",
              "name": "amountRepay",
              "type": "uint256"
            },
            {
              "internalType": "uint256",
              "name": "amountPosRemove",
              "type": "uint256"
            },
            {
              "internalType": "uint256",
              "name": "amountShareWithdraw",
              "type": "uint256"
            },
            {
              "internalType": "uint256",
              "name": "amountOutMin",
              "type": "uint256"
            },
            {
              "internalType": "uint256",
              "name": "amountToSwap",
              "type": "uint256"
            },
            {
              "internalType": "bytes",
              "name": "swapData",
              "type": "bytes"
            }
          ],
          "internalType": "struct IBasicSpell.ClosePosParam",
          "name": "param",
          "type": "tuple"
        }
      ],
      "name": "closePositionFarm",
      "outputs": [],
      "stateMutability": "nonpayable",
      "type": "function"
    },
    {
      "inputs": [],
      "name": "getAugustusSwapper",
      "outputs": [
        {
          "internalType": "address",
          "name": "",
          "type": "address"
        }
      ],
      "stateMutability": "view",
      "type": "function"
    },
    {
      "inputs": [],
      "name": "getBank",
      "outputs": [
        {
          "internalType": "contract IBank",
          "name": "",
          "type": "address"
        }
      ],
      "stateMutability": "view",
      "type": "function"
    },
    {
      "inputs": [],
      "name": "getIchiV2",
      "outputs": [
        {
          "internalType": "address",
          "name": "",
          "type": "address"
        }
      ],
      "stateMutability": "view",
      "type": "function"
    },
    {
      "inputs": [
        {
          "internalType": "uint256",
          "name": "strategyId",
          "type": "uint256"
        },
        {
          "internalType": "address",
          "name": "collateral",
          "type": "address"
        }
      ],
      "name": "getMaxLTV",
      "outputs": [
        {
          "internalType": "uint256",
          "name": "",
          "type": "uint256"
        }
      ],
      "stateMutability": "view",
      "type": "function"
    },
    {
      "inputs": [
        {
          "internalType": "uint256",
          "name": "strategyId",
          "type": "uint256"
        }
      ],
      "name": "getStrategy",
      "outputs": [
        {
          "components": [
            {
              "internalType": "address",
              "name": "vault",
              "type": "address"
            },
            {
              "internalType": "uint256",
              "name": "minPositionSize",
              "type": "uint256"
            },
            {
              "internalType": "uint256",
              "name": "maxPositionSize",
              "type": "uint256"
            }
          ],
          "internalType": "struct IBasicSpell.Strategy",
          "name": "",
          "type": "tuple"
        }
      ],
      "stateMutability": "view",
      "type": "function"
    },
    {
      "inputs": [],
      "name": "getTokenTransferProxy",
      "outputs": [
        {
          "internalType": "address",
          "name": "",
          "type": "address"
        }
      ],
      "stateMutability": "view",
      "type": "function"
    },
    {
      "inputs": [],
      "name": "getUniswapV3Router",
      "outputs": [
        {
          "internalType": "contract IUniswapV3Router",
          "name": "",
          "type": "address"
        }
      ],
      "stateMutability": "view",
      "type": "function"
    },
    {
      "inputs": [],
      "name": "getWETH",
      "outputs": [
        {
          "internalType": "address",
          "name": "",
          "type": "address"
        }
      ],
      "stateMutability": "view",
      "type": "function"
    },
    {
      "inputs": [],
      "name": "getWIchiFarm",
      "outputs": [
        {
          "internalType": "contract IWIchiFarm",
          "name": "",
          "type": "address"
        }
      ],
      "stateMutability": "view",
      "type": "function"
    },
    {
      "inputs": [],
      "name": "getWrappedERC20",
      "outputs": [
        {
          "internalType": "contract IWERC20",
          "name": "",
          "type": "address"
        }
      ],
      "stateMutability": "view",
      "type": "function"
    },
    {
      "inputs": [
        {
          "internalType": "address",
          "name": "token",
          "type": "address"
        },
        {
          "internalType": "uint256",
          "name": "amount",
          "type": "uint256"
        }
      ],
      "name": "increasePosition",
      "outputs": [],
      "stateMutability": "nonpayable",
      "type": "function"
    },
    {
      "inputs": [
        {
          "internalType": "contract IBank",
          "name": "bank",
          "type": "address"
        },
        {
          "internalType": "address",
          "name": "werc20",
          "type": "address"
        },
        {
          "internalType": "address",
          "name": "weth",
          "type": "address"
        },
        {
          "internalType": "address",
          "name": "wichiFarm",
          "type": "address"
        },
        {
          "internalType": "address",
          "name": "uniV3Router",
          "type": "address"
        },
        {
          "internalType": "address",
          "name": "augustusSwapper",
          "type": "address"
        },
        {
          "internalType": "address",
          "name": "tokenTransferProxy",
          "type": "address"
        },
        {
          "internalType": "address",
          "name": "owner",
          "type": "address"
        }
      ],
      "name": "initialize",
      "outputs": [],
      "stateMutability": "nonpayable",
      "type": "function"
    },
    {
      "inputs": [
        {
          "internalType": "address",
          "name": "",
          "type": "address"
        },
        {
          "internalType": "address",
          "name": "",
          "type": "address"
        },
        {
          "internalType": "uint256[]",
          "name": "",
          "type": "uint256[]"
        },
        {
          "internalType": "uint256[]",
          "name": "",
          "type": "uint256[]"
        },
        {
          "internalType": "bytes",
          "name": "",
          "type": "bytes"
        }
      ],
      "name": "onERC1155BatchReceived",
      "outputs": [
        {
          "internalType": "bytes4",
          "name": "",
          "type": "bytes4"
        }
      ],
      "stateMutability": "pure",
      "type": "function"
    },
    {
      "inputs": [
        {
          "internalType": "address",
          "name": "",
          "type": "address"
        },
        {
          "internalType": "address",
          "name": "",
          "type": "address"
        },
        {
          "internalType": "uint256",
          "name": "",
          "type": "uint256"
        },
        {
          "internalType": "uint256",
          "name": "",
          "type": "uint256"
        },
        {
          "internalType": "bytes",
          "name": "",
          "type": "bytes"
        }
      ],
      "name": "onERC1155Received",
      "outputs": [
        {
          "internalType": "bytes4",
          "name": "",
          "type": "bytes4"
        }
      ],
      "stateMutability": "pure",
      "type": "function"
    },
    {
      "inputs": [
        {
          "components": [
            {
              "internalType": "uint256",
              "name": "strategyId",
              "type": "uint256"
            },
            {
              "internalType": "address",
              "name": "collToken",
              "type": "address"
            },
            {
              "internalType": "uint256",
              "name": "collAmount",
              "type": "uint256"
            },
            {
              "internalType": "address",
              "name": "borrowToken",
              "type": "address"
            },
            {
              "internalType": "uint256",
              "name": "borrowAmount",
              "type": "uint256"
            },
            {
              "internalType": "uint256",
              "name": "farmingPoolId",
              "type": "uint256"
            }
          ],
          "internalType": "struct IBasicSpell.OpenPosParam",
          "name": "param",
          "type": "tuple"
        }
      ],
      "name": "openPosition",
      "outputs": [],
      "stateMutability": "nonpayable",
      "type": "function"
    },
    {
      "inputs": [
        {
          "components": [
            {
              "internalType": "uint256",
              "name": "strategyId",
              "type": "uint256"
            },
            {
              "internalType": "address",
              "name": "collToken",
              "type": "address"
            },
            {
              "internalType": "uint256",
              "name": "collAmount",
              "type": "uint256"
            },
            {
              "internalType": "address",
              "name": "borrowToken",
              "type": "address"
            },
            {
              "internalType": "uint256",
              "name": "borrowAmount",
              "type": "uint256"
            },
            {
              "internalType": "uint256",
              "name": "farmingPoolId",
              "type": "uint256"
            }
          ],
          "internalType": "struct IBasicSpell.OpenPosParam",
          "name": "param",
          "type": "tuple"
        }
      ],
      "name": "openPositionFarm",
      "outputs": [],
      "stateMutability": "nonpayable",
      "type": "function"
    },
    {
      "inputs": [],
      "name": "owner",
      "outputs": [
        {
          "internalType": "address",
          "name": "",
          "type": "address"
        }
      ],
      "stateMutability": "view",
      "type": "function"
    },
    {
      "inputs": [],
      "name": "pendingOwner",
      "outputs": [
        {
          "internalType": "address",
          "name": "",
          "type": "address"
        }
      ],
      "stateMutability": "view",
      "type": "function"
    },
    {
      "inputs": [
        {
          "internalType": "uint256",
          "name": "strategyId",
          "type": "uint256"
        },
        {
          "internalType": "address",
          "name": "collToken",
          "type": "address"
        },
        {
          "internalType": "uint256",
          "name": "collShareAmount",
          "type": "uint256"
        }
      ],
      "name": "reducePosition",
      "outputs": [],
      "stateMutability": "nonpayable",
      "type": "function"
    },
    {
      "inputs": [],
      "name": "renounceOwnership",
      "outputs": [],
      "stateMutability": "nonpayable",
      "type": "function"
    },
    {
      "inputs": [
        {
          "internalType": "uint256",
          "name": "strategyId",
          "type": "uint256"
        },
        {
          "internalType": "address[]",
          "name": "collaterals",
          "type": "address[]"
        },
        {
          "internalType": "uint256[]",
          "name": "maxLTVs",
          "type": "uint256[]"
        }
      ],
      "name": "setCollateralsMaxLTVs",
      "outputs": [],
      "stateMutability": "nonpayable",
      "type": "function"
    },
    {
      "inputs": [
        {
          "internalType": "uint256",
          "name": "strategyId",
          "type": "uint256"
        },
        {
          "internalType": "uint256",
          "name": "minPosSize",
          "type": "uint256"
        },
        {
          "internalType": "uint256",
          "name": "maxPosSize",
          "type": "uint256"
        }
      ],
      "name": "setPosSize",
      "outputs": [],
      "stateMutability": "nonpayable",
      "type": "function"
    },
    {
      "inputs": [
        {
          "internalType": "bytes4",
          "name": "interfaceId",
          "type": "bytes4"
        }
      ],
      "name": "supportsInterface",
      "outputs": [
        {
          "internalType": "bool",
          "name": "",
          "type": "bool"
        }
      ],
      "stateMutability": "view",
      "type": "function"
    },
    {
      "inputs": [
        {
          "internalType": "address",
          "name": "newOwner",
          "type": "address"
        }
      ],
      "name": "transferOwnership",
      "outputs": [],
      "stateMutability": "nonpayable",
      "type": "function"
    },
    {
      "stateMutability": "payable",
      "type": "receive"
    }
  ],
  "bytecode": "0x60806040523480156200001157600080fd5b506200001c6200002c565b620000266200002c565b620000ed565b600054610100900460ff1615620000995760405162461bcd60e51b815260206004820152602760248201527f496e697469616c697a61626c653a20636f6e747261637420697320696e697469604482015266616c697a696e6760c81b606482015260840160405180910390fd5b60005460ff90811614620000eb576000805460ff191660ff9081179091556040519081527f7f26b83ff96e1f2b6a682f133852f6798a09c465da95921460cefb38474024989060200160405180910390a15b565b614a5d80620000fd6000396000f3fe6080604052600436106101bb5760003560e01c80639b657070116100ec578063d2c4b5981161008a578063e537631b11610064578063e537631b1461053a578063f23a6e611461055a578063f2fde38b14610587578063fa34d611146105a757600080fd5b8063d2c4b598146104de578063d9d8633f146104fc578063e30c39781461051c57600080fd5b8063bc197c81116100c6578063bc197c811461040d578063be41d9d214610455578063cae5f11e14610475578063cfc0cc341461049357600080fd5b80639b657070146103b1578063ae8340cb146103cf578063b9e3de44146103ef57600080fd5b80633773678d1161015957806379ba50971161013357806379ba5097146103405780638a29e2de146103555780638b5c97c7146103755780638da5cb5b1461039357600080fd5b80633773678d146102ed57806360d704db1461030d578063715018a61461032b57600080fd5b80631a41241c116101955780631a41241c146102615780631ac2abfa1461028f5780631c04b670146102af5780631f418713146102cd57600080fd5b806301ffc9a7146101c7578063024aeb321461020d5780630f3c43831461022f57600080fd5b366101c257005b600080fd5b3480156101d357600080fd5b506101f86101e2366004613fa1565b6001600160e01b031916630271189760e51b1490565b60405190151581526020015b60405180910390f35b34801561021957600080fd5b5061022d6102283660046140af565b6105c7565b005b34801561023b57600080fd5b5060ca546001600160a01b03165b6040516001600160a01b039091168152602001610204565b34801561026d57600080fd5b5061028161027c36600461417c565b61076f565b604051908152602001610204565b34801561029b57600080fd5b5061022d6102aa3660046141ac565b610799565b3480156102bb57600080fd5b5060cb546001600160a01b0316610249565b3480156102d957600080fd5b5061022d6102e83660046141e8565b610887565b3480156102f957600080fd5b5061022d610308366004614214565b610989565b34801561031957600080fd5b506097546001600160a01b0316610249565b34801561033757600080fd5b5061022d610997565b34801561034c57600080fd5b5061022d6109ab565b34801561036157600080fd5b5061022d610370366004614240565b610a25565b34801561038157600080fd5b50609a546001600160a01b0316610249565b34801561039f57600080fd5b506033546001600160a01b0316610249565b3480156103bd57600080fd5b506098546001600160a01b0316610249565b3480156103db57600080fd5b5061022d6103ea3660046142e9565b610c7c565b3480156103fb57600080fd5b5060c9546001600160a01b0316610249565b34801561041957600080fd5b5061043c610428366004614389565b63bc197c8160e01b98975050505050505050565b6040516001600160e01b03199091168152602001610204565b34801561046157600080fd5b5061022d610470366004614448565b610dbc565b34801561048157600080fd5b506099546001600160a01b0316610249565b34801561049f57600080fd5b506104b36104ae366004614480565b610f1c565b6040805182516001600160a01b03168152602080840151908201529181015190820152606001610204565b3480156104ea57600080fd5b50609b546001600160a01b0316610249565b34801561050857600080fd5b5061022d6105173660046141ac565b610fa5565b34801561052857600080fd5b506065546001600160a01b0316610249565b34801561054657600080fd5b5061022d6105553660046142e9565b61131f565b34801561056657600080fd5b5061043c610575366004614499565b63f23a6e6160e01b9695505050505050565b34801561059357600080fd5b5061022d6105a2366004614515565b611915565b3480156105b357600080fd5b5061022d6105c2366004614532565b611986565b609c54839081106105f8573081604051637d8b9ec760e01b81526004016105ef929190614567565b60405180910390fd5b61060061199e565b8151835114158061061057508251155b1561062e5760405163025e650f60e01b815260040160405180910390fd5b60005b835181101561072d5760006001600160a01b031684828151811061065757610657614580565b60200260200101516001600160a01b0316036106865760405163538ba4f960e01b815260040160405180910390fd5b82818151811061069857610698614580565b60200260200101516000036106c057604051630f6fa54560e41b815260040160405180910390fd5b8281815181106106d2576106d2614580565b6020026020010151609d6000878152602001908152602001600020600086848151811061070157610701614580565b6020908102919091018101516001600160a01b0316825281019190915260400160002055600101610631565b507f27f3c4b3dd7f84e103b037b6d823521ed2147ae463c4d632bcff511d4818353984848460405161076193929190614596565b60405180910390a150505050565b6000828152609d602090815260408083206001600160a01b03851684529091529020545b92915050565b609c5481359081106107c2573081604051637d8b9ec760e01b81526004016105ef929190614567565b81356107d46040840160208501614515565b6000828152609d602090815260408083206001600160a01b038516845290915281205490036108285760405163771ebc0560e11b8152600481018390526001600160a01b03821660248201526044016105ef565b610866609c85600001358154811061084257610842614580565b60009182526020909120600390910201546001600160a01b031660808601356119f8565b61088161087b6097546001600160a01b031690565b85611ad6565b50505050565b609c54839081106108af573081604051637d8b9ec760e01b81526004016105ef929190614567565b6108b761199e565b816000036108d857604051630f6fa54560e41b815260040160405180910390fd5b8183106108f8576040516391b88ab760e01b815260040160405180910390fd5b82609c858154811061090c5761090c614580565b90600052602060002090600302016001018190555081609c858154811061093557610935614580565b6000918252602091829020600260039092020101919091556040805186815291820185905281018390527f02072ffe80e3752e5cc4fe3734dc5ebfcc8db5990257226f29c309147dd0562b90606001610761565b61099382826123d5565b5050565b61099f61199e565b6109a9600061240d565b565b60655433906001600160a01b03168114610a195760405162461bcd60e51b815260206004820152602960248201527f4f776e61626c6532537465703a2063616c6c6572206973206e6f7420746865206044820152683732bb9037bbb732b960b91b60648201526084016105ef565b610a228161240d565b50565b600054610100900460ff1615808015610a455750600054600160ff909116105b80610a5f5750303b158015610a5f575060005460ff166001145b610ac25760405162461bcd60e51b815260206004820152602e60248201527f496e697469616c697a61626c653a20636f6e747261637420697320616c72656160448201526d191e481a5b9a5d1a585b1a5e995960921b60648201526084016105ef565b6000805460ff191660011790558015610ae5576000805461ff0019166101001790555b610af3898989878787612426565b6001600160a01b038616610b1a5760405163538ba4f960e01b815260040160405180910390fd5b60ca80546001600160a01b0319166001600160a01b038816908117909155604080516301c04b6760e41b81529051631c04b670916004808201926020929091908290030181865afa158015610b73573d6000803e3d6000fd5b505050506040513d601f19601f82011682018060405250810190610b979190614625565b60cb80546001600160a01b0319166001600160a01b0392831617905560ca5460405163a22cb46560e01b81528b831660048201526001602482015291169063a22cb46590604401600060405180830381600087803b158015610bf857600080fd5b505af1158015610c0c573d6000803e3d6000fd5b505060c980546001600160a01b0319166001600160a01b03891617905550508015610c71576000805461ff0019169055604051600181527f7f26b83ff96e1f2b6a682f133852f6798a09c465da95921460cefb38474024989060200160405180910390a15b505050505050505050565b609c548135908110610ca5573081604051637d8b9ec760e01b81526004016105ef929190614567565b8135610cb76040840160208501614515565b6000828152609d602090815260408083206001600160a01b03851684529091528120549003610d0b5760405163771ebc0560e11b8152600481018390526001600160a01b03821660248201526044016105ef565b610d1484612564565b6000609c856000013581548110610d2d57610d2d614580565b60009182526020909120600390910201546040516370a0823160e01b81523060048201526001600160a01b039091169150610db590829081906370a0823190602401602060405180830381865afa158015610d8c573d6000803e3d6000fd5b505050506040513d601f19601f82011682018060405250810190610db09190614642565b61290c565b5050505050565b6097546040805163f70aedd960e01b815290516000926001600160a01b03169163f70aedd9916004808301926101009291908290030181865afa158015610e07573d6000803e3d6000fd5b505050506040513d601f19601f82011682018060405250810190610e2b919061466b565b9050600081602001516001600160a01b031663a47757728360a001516040518263ffffffff1660e01b8152600401610e6591815260200190565b602060405180830381865afa158015610e82573d6000803e3d6000fd5b505050506040513d601f19601f82011682018060405250810190610ea69190614625565b9050806001600160a01b0316609c8681548110610ec557610ec5614580565b60009182526020909120600390910201546001600160a01b031614610f005760405163b09dea7360e01b8152600481018690526024016105ef565b610f0a8484612a21565b610f1384612a59565b610db585612af6565b610f49604051806060016040528060006001600160a01b0316815260200160008152602001600081525090565b609c8281548110610f5c57610f5c614580565b600091825260209182902060408051606081018252600390930290910180546001600160a01b031683526001810154938301939093526002909201549181019190915292915050565b609c548135908110610fce573081604051637d8b9ec760e01b81526004016105ef929190614567565b8135610fe06040840160208501614515565b6000828152609d602090815260408083206001600160a01b038516845290915281205490036110345760405163771ebc0560e11b8152600481018390526001600160a01b03821660248201526044016105ef565b60006110486097546001600160a01b031690565b90506000609c86600001358154811061106357611063614580565b906000526020600020906003020160000160009054906101000a90046001600160a01b031690506000826001600160a01b031663f70aedd96040518163ffffffff1660e01b815260040161010060405180830381865afa1580156110cb573d6000803e3d6000fd5b505050506040513d601f19601f820116820180604052508101906110ef919061466b565b602081015160a082015191925090600061111160ca546001600160a01b031690565b9050600061112760cb546001600160a01b031690565b9050856001600160a01b0316846001600160a01b031663a4775772856040518263ffffffff1660e01b815260040161116191815260200190565b602060405180830381865afa15801561117e573d6000803e3d6000fd5b505050506040513d601f19601f820116820180604052508101906111a29190614625565b6001600160a01b0316146111d45760405163a1a006a360e01b81526001600160a01b03871660048201526024016105ef565b816001600160a01b0316846001600160a01b03161461121157604051634154f11960e01b81526001600160a01b03851660048201526024016105ef565b60405163458070cb60e11b815260808c013560048201526001600160a01b03881690638b00e196906024016020604051808303816000875af115801561125b573d6000803e3d6000fd5b505050506040513d601f19601f8201168201806040525081019061127f9190614642565b5060405163b390c0ab60e01b81526004810184905260808c013560248201526001600160a01b0383169063b390c0ab906044016020604051808303816000875af11580156112d1573d6000803e3d6000fd5b505050506040513d601f19601f820116820180604052508101906112f59190614642565b506112ff81612d09565b611309878c611ad6565b61131281612a59565b5050505050505050505050565b609c548135908110611348573081604051637d8b9ec760e01b81526004016105ef929190614567565b813561135a6040840160208501614515565b6000828152609d602090815260408083206001600160a01b038516845290915281205490036113ae5760405163771ebc0560e11b8152600481018390526001600160a01b03821660248201526044016105ef565b6000609c8560000135815481106113c7576113c7614580565b6000918252602080832060408051606081018252600390940290910180546001600160a01b0316845260018101549284019290925260029091015490820152915061141a60ca546001600160a01b031690565b90506000816001600160a01b031663b8c743636040518163ffffffff1660e01b8152600401602060405180830381865afa15801561145c573d6000803e3d6000fd5b505050506040513d601f19601f820116820180604052508101906114809190614625565b6040516378ed5d1f60e01b815260a089013560048201526001600160a01b0391909116906378ed5d1f90602401602060405180830381865afa1580156114ca573d6000803e3d6000fd5b505050506040513d601f19601f820116820180604052508101906114ee9190614625565b9050806001600160a01b031683600001516001600160a01b03161461153157604051632fa4e7ef60e11b81526001600160a01b03821660048201526024016105ef565b61153a87612564565b600061154e6097546001600160a01b031690565b90506000816001600160a01b031663f70aedd96040518163ffffffff1660e01b815260040161010060405180830381865afa158015611591573d6000803e3d6000fd5b505050506040513d601f19601f820116820180604052508101906115b5919061466b565b602081015160a082015160c08301519293509091801561179f57604051636e10637d60e11b8152600481018390526000906001600160a01b0389169063dc20c6fa906024016040805180830381865afa158015611616573d6000803e3d6000fd5b505050506040513d601f19601f8201168201806040525081019061163a919061471c565b509050808d60a00135146116675760405163283618b560e11b815260a08e013560048201526024016105ef565b876001600160a01b0316846001600160a01b0316146116a457604051634154f11960e01b81526001600160a01b03851660048201526024016105ef565b60405163458070cb60e11b8152600481018390526001600160a01b03871690638b00e196906024016020604051808303816000875af11580156116eb573d6000803e3d6000fd5b505050506040513d601f19601f8201168201806040525081019061170f9190614642565b5060405163b390c0ab60e01b815260048101849052602481018390526001600160a01b0389169063b390c0ab906044016020604051808303816000875af115801561175e573d6000803e3d6000fd5b505050506040513d601f19601f820116820180604052508101906117829190614642565b5061179d61179860cb546001600160a01b031690565b612d09565b505b50506040516370a0823160e01b8152306004820152600092506001600160a01b03851691506370a0823190602401602060405180830381865afa1580156117ea573d6000803e3d6000fd5b505050506040513d601f19601f8201168201806040525081019061180e9190614642565b90506118246001600160a01b0384168583612d1c565b604051630d9778e560e11b815260a08a01356004820152602481018290526000906001600160a01b03861690631b2ef1ca906044016020604051808303816000875af1158015611878573d6000803e3d6000fd5b505050506040513d601f19601f8201168201806040525081019061189c9190614642565b60405163314568d960e01b81526001600160a01b03878116600483015260248201839052604482018590529192509084169063314568d990606401600060405180830381600087803b1580156118f157600080fd5b505af1158015611905573d6000803e3d6000fd5b5050505050505050505050505050565b61191d61199e565b606580546001600160a01b0383166001600160a01b0319909116811790915561194e6033546001600160a01b031690565b6001600160a01b03167f38d16b8cac22d99fc7c124b9cd0de2d3fa1faef420bfe791d8c362d765e2270060405160405180910390a350565b61198e61199e565b611999838383612d3d565b505050565b6033546001600160a01b031633146109a95760405162461bcd60e51b815260206004820181905260248201527f4f776e61626c653a2063616c6c6572206973206e6f7420746865206f776e657260448201526064016105ef565b80156109935760975460405163458070cb60e11b8152600481018390526001600160a01b0390911690638b00e196906024016020604051808303816000875af1158015611a49573d6000803e3d6000fd5b505050506040513d601f19601f82011682018060405250810190611a6d9190614642565b609854604051632770a7eb60e21b81529192506001600160a01b031690639dc29fac90611aa09085908590600401614567565b600060405180830381600087803b158015611aba57600080fd5b505af1158015611ace573d6000803e3d6000fd5b505050505050565b6000609c826000013581548110611aef57611aef614580565b60009182526020918290206040805160608082018352600390940290920180546001600160a01b031680845260018083015496850196909652600290910154918301919091529093509190840135908101611c1957846001600160a01b031663269a4bad866001600160a01b031663d7ac71ff6040518163ffffffff1660e01b8152600401602060405180830381865afa158015611b91573d6000803e3d6000fd5b505050506040513d601f19601f82011682018060405250810190611bb59190614642565b6040518263ffffffff1660e01b8152600401611bd391815260200190565b6020604051808303816000875af1158015611bf2573d6000803e3d6000fd5b505050506040513d601f19601f82011682018060405250810190611c169190614642565b90505b608084013560018101611c91576040516370a0823160e01b81523060048201526001600160a01b038416906370a0823190602401602060405180830381865afa158015611c6a573d6000803e3d6000fd5b505050506040513d601f19601f82011682018060405250810190611c8e9190614642565b90505b604051627b8a6760e11b8152600481018290523060248201526001600160a01b0384169062f714ce9060440160408051808303816000875af1158015611cdb573d6000803e3d6000fd5b505050506040513d601f19601f82011682018060405250810190611cff919061471c565b5060009050611d146060870160408801614515565b6001600160a01b0316846001600160a01b0316630dfe16816040518163ffffffff1660e01b8152600401602060405180830381865afa158015611d5b573d6000803e3d6000fd5b505050506040513d601f19601f82011682018060405250810190611d7f9190614625565b6001600160a01b0316149050600081611df957846001600160a01b0316630dfe16816040518163ffffffff1660e01b8152600401602060405180830381865afa158015611dd0573d6000803e3d6000fd5b505050506040513d601f19601f82011682018060405250810190611df49190614625565b611e5b565b846001600160a01b031663d21220a76040518163ffffffff1660e01b8152600401602060405180830381865afa158015611e37573d6000803e3d6000fd5b505050506040513d601f19601f82011682018060405250810190611e5b9190614625565b6040516370a0823160e01b81523060048201526001600160a01b0391909116906370a0823190602401602060405180830381865afa158015611ea1573d6000803e3d6000fd5b505050506040513d601f19601f82011682018060405250810190611ec59190614642565b905080156123355760408051600280825260608201835260009260208301908036833701905050905082611f5a57856001600160a01b0316630dfe16816040518163ffffffff1660e01b8152600401602060405180830381865afa158015611f31573d6000803e3d6000fd5b505050506040513d601f19601f82011682018060405250810190611f559190614625565b611fbc565b856001600160a01b031663d21220a76040518163ffffffff1660e01b8152600401602060405180830381865afa158015611f98573d6000803e3d6000fd5b505050506040513d601f19601f82011682018060405250810190611fbc9190614625565b81600081518110611fcf57611fcf614580565b60200260200101906001600160a01b031690816001600160a01b0316815250508261205b57856001600160a01b031663d21220a76040518163ffffffff1660e01b8152600401602060405180830381865afa158015612032573d6000803e3d6000fd5b505050506040513d601f19601f820116820180604052508101906120569190614625565b6120bd565b856001600160a01b0316630dfe16816040518163ffffffff1660e01b8152600401602060405180830381865afa158015612099573d6000803e3d6000fd5b505050506040513d601f19601f820116820180604052508101906120bd9190614625565b816001815181106120d0576120d0614580565b60200260200101906001600160a01b031690816001600160a01b03168152505060006040518061010001604052808360008151811061211157612111614580565b60200260200101516001600160a01b031681526020018360018151811061213a5761213a614580565b60200260200101516001600160a01b03168152602001886001600160a01b03166316f0115b6040518163ffffffff1660e01b8152600401602060405180830381865afa15801561218e573d6000803e3d6000fd5b505050506040513d601f19601f820116820180604052508101906121b29190614625565b6001600160a01b031663ddca3f436040518163ffffffff1660e01b8152600401602060405180830381865afa1580156121ef573d6000803e3d6000fd5b505050506040513d601f19601f820116820180604052508101906122139190614740565b62ffffff1681523060208201524260408201526060810185905260c08b01356080820152600060a090910181905290915061225660c9546001600160a01b031690565b825190915061226f906001600160a01b03168286612d1c565b6040805163414bf38960e01b815283516001600160a01b0390811660048301526020850151811660248301529184015162ffffff1660448201526060840151821660648201526080840151608482015260a084015160a482015260c084015160c482015260e0840151821660e48201529082169063414bf38990610104016020604051808303816000875af115801561230c573d6000803e3d6000fd5b505050506040513d601f19601f820116820180604052508101906123309190614642565b505050505b6123526123486040890160208a01614515565b8860a00135612a21565b61237d6123656040890160208a01614515565b60e08901356123786101008b018b614765565b612ec3565b6123966123906060890160408a01614515565b85612ef7565b6123a08735612af6565b6123b86123b36060890160408a01614515565b612a59565b6123cb6123b36040890160208a01614515565b5050505050505050565b80156109935760975460405163a2fb342d60e01b81526001600160a01b039091169063a2fb342d90611aa09085908590600401614567565b606580546001600160a01b0319169055610a2281612fe8565b600054610100900460ff1661244d5760405162461bcd60e51b81526004016105ef906147ac565b6001600160a01b038616158061246a57506001600160a01b038516155b8061247c57506001600160a01b038416155b1561249a5760405163538ba4f960e01b815260040160405180910390fd5b6124a261303a565b6124ab8161240d565b609780546001600160a01b03199081166001600160a01b03898116918217909355609880548316898516908117909155609980548416898616179055609a80548416888616179055609b80549093169386169390931790915560405163a22cb46560e01b815260048101919091526001602482015263a22cb465906044015b600060405180830381600087803b15801561254457600080fd5b505af1158015612558573d6000803e3d6000fd5b50505050505050505050565b6000609c82600001358154811061257d5761257d614580565b600091825260209182902060408051606081018252600390930290910180546001600160a01b0316835260018101548385015260020154828201529092506125d7916125cd918501908501614515565b83604001356123d5565b80516125e96080840160608501614515565b6001600160a01b0316816001600160a01b0316630dfe16816040518163ffffffff1660e01b8152600401602060405180830381865afa158015612630573d6000803e3d6000fd5b505050506040513d601f19601f820116820180604052508101906126549190614625565b6001600160a01b0316141580156126ed57506126766080840160608501614515565b6001600160a01b0316816001600160a01b031663d21220a76040518163ffffffff1660e01b8152600401602060405180830381865afa1580156126bd573d6000803e3d6000fd5b505050506040513d601f19601f820116820180604052508101906126e19190614625565b6001600160a01b031614155b15612727576127026080840160608501614515565b60405163b488b80160e01b81526001600160a01b0390911660048201526024016105ef565b600061274661273c6080860160608701614515565b8560800135613069565b9050600061275a6080860160608701614515565b6001600160a01b0316836001600160a01b0316630dfe16816040518163ffffffff1660e01b8152600401602060405180830381865afa1580156127a1573d6000803e3d6000fd5b505050506040513d601f19601f820116820180604052508101906127c59190614625565b6001600160a01b03161490506127f683836127e66080890160608a01614515565b6001600160a01b03169190612d1c565b6000811561287d57604051638dbdbe6d60e01b815260048101849052600060248201523060448201526001600160a01b03851690638dbdbe6d906064016020604051808303816000875af1158015612852573d6000803e3d6000fd5b505050506040513d601f19601f820116820180604052508101906128769190614642565b90506128f8565b604051638dbdbe6d60e01b815260006004820152602481018490523060448201526001600160a01b03851690638dbdbe6d906064016020604051808303816000875af11580156128d1573d6000803e3d6000fd5b505050506040513d601f19601f820116820180604052508101906128f59190614642565b90505b6129028635612af6565b611ace8635613209565b80156109935760006129266098546001600160a01b031690565b905061293c6001600160a01b0384168284612d1c565b6040516340c10f1960e01b81526001600160a01b038216906340c10f199061296a9086908690600401614567565b6020604051808303816000875af1158015612989573d6000803e3d6000fd5b505050506040513d601f19601f820116820180604052508101906129ad9190614642565b5060975460405163314568d960e01b81526001600160a01b0383811660048301528581166024830152604482018590529091169063314568d990606401600060405180830381600087803b158015612a0457600080fd5b505af1158015612a18573d6000803e3d6000fd5b50505050505050565b801561099357609754604051637b7fb58960e11b81526001600160a01b039091169063f6ff6b1290611aa09085908590600401614567565b6000612a6e6001600160a01b0383163061360d565b90508015610993576097546040805163630dc7cb60e01b81529051611999926001600160a01b03169163630dc7cb9160048083019260209291908290030181865afa158015612ac1573d6000803e3d6000fd5b505050506040513d601f19601f82011682018060405250810190612ae59190614625565b6001600160a01b038416908361369f565b6000612b0a6097546001600160a01b031690565b90506000816001600160a01b031663d7ac71ff6040518163ffffffff1660e01b8152600401602060405180830381865afa158015612b4c573d6000803e3d6000fd5b505050506040513d601f19601f82011682018060405250810190612b709190614642565b60405163519f509960e01b8152600481018290529091506000906001600160a01b0384169063519f50999060240161010060405180830381865afa158015612bbc573d6000803e3d6000fd5b505050506040513d601f19601f82011682018060405250810190612be0919061466b565b60405163c0177bd560e01b8152600481018490529091506000906001600160a01b0385169063c0177bd5906024016020604051808303816000875af1158015612c2d573d6000803e3d6000fd5b505050506040513d601f19601f82011682018060405250810190612c519190614642565b6040516394d95d0560e01b8152600481018590529091506000906001600160a01b038616906394d95d05906024016020604051808303816000875af1158015612c9e573d6000803e3d6000fd5b505050506040513d601f19601f82011682018060405250810190612cc29190614642565b9050612710612cd587856040015161076f565b612cdf908361480d565b612ce99190614824565b821115611ace57604051639ec6e1ab60e01b815260040160405180910390fd5b612d1281613781565b50610a2281612a59565b612d258361395e565b611999576119996001600160a01b0384168383613997565b6001600160a01b038316612d645760405163538ba4f960e01b815260040160405180910390fd5b80600003612d8557604051630f6fa54560e41b815260040160405180910390fd5b808210612da5576040516391b88ab760e01b815260040160405180910390fd5b604080516060810182526001600160a01b03858116825260208201858152928201848152609c805460018082018355600083905294517faf85b9071dfafeac1409d3f1d19bafc9bc7c37974cde8df0ee6168f0086e539c600390920291820180546001600160a01b031916919095161790935593517faf85b9071dfafeac1409d3f1d19bafc9bc7c37974cde8df0ee6168f0086e539d830155517faf85b9071dfafeac1409d3f1d19bafc9bc7c37974cde8df0ee6168f0086e539e9091015590547f66ba603c43e21681e4417f6ba08d4984e7711e0f696718b5c621b9e1f12e649491612e9191614846565b604080519182526001600160a01b038616602083015281018490526060810183905260800160405180910390a1505050565b600083118015612ed257508015155b1561088157609a54609b54610db5916001600160a01b03908116911686868686613a63565b801561099357600080612f12846001600160a01b031661395e565b90506000612f286099546001600160a01b031690565b90508115612f8c57806001600160a01b031663d0e30db0856040518263ffffffff1660e01b81526004016000604051808303818588803b158015612f6b57600080fd5b505af1158015612f7f573d6000803e3d6000fd5b5050505050809250612f90565b8492505b6000612fa46097546001600160a01b031690565b9050612fba6001600160a01b0385168287612d1c565b604051630450cfaf60e31b81526001600160a01b038216906322867d789061252a9087908990600401614567565b603380546001600160a01b038381166001600160a01b0319831681179093556040519116919082907f8be0079c531659141344cd1fd0a4f28419497f9722a3daafe3b4186f6b6457e090600090a35050565b600054610100900460ff166130615760405162461bcd60e51b81526004016105ef906147ac565b6109a9613b62565b60008115610793576000613085846001600160a01b031661395e565b9050600061309b6097546001600160a01b031690565b905060006130b16099546001600160a01b031690565b9050821561318c57604051634b8a352960e01b81526001600160a01b03831690634b8a3529906130e79084908990600401614567565b6020604051808303816000875af1158015613106573d6000803e3d6000fd5b505050506040513d601f19601f8201168201806040525081019061312a9190614642565b604051632e1a7d4d60e01b8152600481018290529094506001600160a01b03821690632e1a7d4d90602401600060405180830381600087803b15801561316f57600080fd5b505af1158015613183573d6000803e3d6000fd5b50505050613200565b604051634b8a352960e01b81526001600160a01b03831690634b8a3529906131ba9089908990600401614567565b6020604051808303816000875af11580156131d9573d6000803e3d6000fd5b505050506040513d601f19601f820116820180604052508101906131fd9190614642565b93505b50505092915050565b600061321d6097546001600160a01b031690565b90506000609c838154811061323457613234614580565b6000918252602080832060408051606081018252600390940290910180546001600160a01b0390811685526001820154938501939093526002015483820152805163f70aedd960e01b815290519294509085169163f70aedd991600480820192610100929091908290030181865afa1580156132b4573d6000803e3d6000fd5b505050506040513d601f19601f820116820180604052508101906132d8919061466b565b60208101519091506000906001600160a01b0316156133e157836001600160a01b031663833b1fce6040518163ffffffff1660e01b8152600401602060405180830381865afa15801561332f573d6000803e3d6000fd5b505050506040513d601f19601f820116820180604052508101906133539190614625565b602083015160a084015160c08501516040516001621852b960e21b031981526001600160a01b0393841660048201526024810192909252604482015291169063ff9eb51c906064016020604051808303816000875af11580156133ba573d6000803e3d6000fd5b505050506040513d601f19601f820116820180604052508101906133de9190614642565b90505b82516040516370a0823160e01b81523060048201526000919082906001600160a01b038316906370a0823190602401602060405180830381865afa15801561342d573d6000803e3d6000fd5b505050506040513d601f19601f820116820180604052508101906134519190614642565b90506000876001600160a01b031663833b1fce6040518163ffffffff1660e01b8152600401602060405180830381865afa158015613493573d6000803e3d6000fd5b505050506040513d601f19601f820116820180604052508101906134b79190614625565b6040516341976e0960e01b81526001600160a01b03858116600483015291909116906341976e09906024016020604051808303816000875af1158015613501573d6000803e3d6000fd5b505050506040513d601f19601f820116820180604052508101906135259190614642565b9050826001600160a01b031663313ce5676040518163ffffffff1660e01b8152600401602060405180830381865afa158015613565573d6000803e3d6000fd5b505050506040513d601f19601f820116820180604052508101906135899190614859565b61359490600a614960565b61359e838361480d565b6135a89190614824565b60408801519094506135ba858761496f565b11156135dc5760405163d7eb71dd60e01b8152600481018a90526024016105ef565b60208701516135eb858761496f565b1015610c71576040516309f2a95760e01b8152600481018a90526024016105ef565b60006136188361395e565b1561362e57506001600160a01b03811631610793565b6040516370a0823160e01b81526001600160a01b0383811660048301528416906370a0823190602401602060405180830381865afa158015613674573d6000803e3d6000fd5b505050506040513d601f19601f820116820180604052508101906136989190614642565b9050610793565b6000816000036136b15750600161377a565b6136ba8461395e565b15613762576000836001600160a01b03168360405160006040518083038185875af1925050503d806000811461370c576040519150601f19603f3d011682016040523d82523d6000602084013e613711565b606091505b50509050806137585760405162461bcd60e51b8152602060048201526013602482015272115512081d1c985b9cd9995c8819985a5b1959606a1b60448201526064016105ef565b600191505061377a565b6137766001600160a01b0385168484613b92565b5060015b9392505050565b6040516370a0823160e01b815230600482015260009081906001600160a01b038416906370a0823190602401602060405180830381865afa1580156137ca573d6000803e3d6000fd5b505050506040513d601f19601f820116820180604052508101906137ee9190614642565b9050801561395857600061380a6097546001600160a01b031690565b9050613882816001600160a01b031663f2d638266040518163ffffffff1660e01b8152600401602060405180830381865afa15801561384d573d6000803e3d6000fd5b505050506040513d601f19601f820116820180604052508101906138719190614625565b6001600160a01b0386169084612d1c565b806001600160a01b031663f2d638266040518163ffffffff1660e01b8152600401602060405180830381865afa1580156138c0573d6000803e3d6000fd5b505050506040513d601f19601f820116820180604052508101906138e49190614625565b6001600160a01b031663e43c128d85846040518363ffffffff1660e01b8152600401613911929190614567565b6020604051808303816000875af1158015613930573d6000803e3d6000fd5b505050506040513d601f19601f820116820180604052508101906139549190614642565b9250505b50919050565b60006001600160a01b038216158061079357506001600160a01b03821673eeeeeeeeeeeeeeeeeeeeeeeeeeeeeeeeeeeeeeee1492915050565b600063095ea7b360e01b83836040516024016139b4929190614567565b60408051601f198184030181529190526020810180516001600160e01b03166001600160e01b03199093169290921790915290506139f28482613bb1565b610881576040516001600160a01b038416602482015260006044820152613a5990859063095ea7b360e01b906064015b60408051601f198184030181529190526020810180516001600160e01b03166001600160e01b031990931692909217909152613c58565b6108818482613c58565b6000613a70858786613d2d565b6060876001600160a01b03168484604051613a8c929190614982565b6000604051808303816000865af19150503d8060008114613ac9576040519150601f19603f3d011682016040523d82523d6000602084013e613ace565b606091505b5060405163095ea7b360e01b815291935091506001600160a01b0387169063095ea7b390613b03908a90600090600401614567565b6020604051808303816000875af1158015613b22573d6000803e3d6000fd5b505050506040513d601f19601f82011682018060405250810190613b469190614992565b50805115613b575780518082602001fd5b509695505050505050565b600054610100900460ff16613b895760405162461bcd60e51b81526004016105ef906147ac565b6109a93361240d565b6119998363a9059cbb60e01b8484604051602401613a22929190614567565b6000806000846001600160a01b031684604051613bce91906149d8565b6000604051808303816000865af19150503d8060008114613c0b576040519150601f19603f3d011682016040523d82523d6000602084013e613c10565b606091505b5091509150818015613c3a575080511580613c3a575080806020019051810190613c3a9190614992565b8015613c4f57506001600160a01b0385163b15155b95945050505050565b6000613cad826040518060400160405280602081526020017f5361666545524332303a206c6f772d6c6576656c2063616c6c206661696c6564815250856001600160a01b0316613e119092919063ffffffff16565b9050805160001480613cce575080806020019051810190613cce9190614992565b6119995760405162461bcd60e51b815260206004820152602a60248201527f5361666545524332303a204552433230206f7065726174696f6e20646964206e6044820152691bdd081cdd58d8d9595960b21b60648201526084016105ef565b60405163095ea7b360e01b81526001600160a01b0384169063095ea7b390613d5c908590600090600401614567565b6020604051808303816000875af1158015613d7b573d6000803e3d6000fd5b505050506040513d601f19601f82011682018060405250810190613d9f9190614992565b5060405163095ea7b360e01b81526001600160a01b0384169063095ea7b390613dce9085908590600401614567565b6020604051808303816000875af1158015613ded573d6000803e3d6000fd5b505050506040513d601f19601f820116820180604052508101906108819190614992565b6060613e208484600085613e28565b949350505050565b606082471015613e895760405162461bcd60e51b815260206004820152602660248201527f416464726573733a20696e73756666696369656e742062616c616e636520666f6044820152651c8818d85b1b60d21b60648201526084016105ef565b600080866001600160a01b03168587604051613ea591906149d8565b60006040518083038185875af1925050503d8060008114613ee2576040519150601f19603f3d011682016040523d82523d6000602084013e613ee7565b606091505b5091509150613ef887838387613f03565b979650505050505050565b60608315613f72578251600003613f6b576001600160a01b0385163b613f6b5760405162461bcd60e51b815260206004820152601d60248201527f416464726573733a2063616c6c20746f206e6f6e2d636f6e747261637400000060448201526064016105ef565b5081613e20565b613e208383815115613f875781518083602001fd5b8060405162461bcd60e51b81526004016105ef91906149f4565b600060208284031215613fb357600080fd5b81356001600160e01b03198116811461377a57600080fd5b634e487b7160e01b600052604160045260246000fd5b604051601f8201601f1916810167ffffffffffffffff8111828210171561400a5761400a613fcb565b604052919050565b600067ffffffffffffffff82111561402c5761402c613fcb565b5060051b60200190565b6001600160a01b0381168114610a2257600080fd5b600082601f83011261405c57600080fd5b8135602061407161406c83614012565b613fe1565b8083825260208201915060208460051b87010193508684111561409357600080fd5b602086015b84811015613b575780358352918301918301614098565b6000806000606084860312156140c457600080fd5b8335925060208085013567ffffffffffffffff808211156140e457600080fd5b818701915087601f8301126140f857600080fd5b813561410661406c82614012565b81815260059190911b8301840190848101908a83111561412557600080fd5b938501935b8285101561414c57843561413d81614036565b8252938501939085019061412a565b96505050604087013592508083111561416457600080fd5b50506141728682870161404b565b9150509250925092565b6000806040838503121561418f57600080fd5b8235915060208301356141a181614036565b809150509250929050565b6000602082840312156141be57600080fd5b813567ffffffffffffffff8111156141d557600080fd5b8201610120818503121561377a57600080fd5b6000806000606084860312156141fd57600080fd5b505081359360208301359350604090920135919050565b6000806040838503121561422757600080fd5b823561423281614036565b946020939093013593505050565b600080600080600080600080610100898b03121561425d57600080fd5b883561426881614036565b9750602089013561427881614036565b9650604089013561428881614036565b9550606089013561429881614036565b945060808901356142a881614036565b935060a08901356142b881614036565b925060c08901356142c881614036565b915060e08901356142d881614036565b809150509295985092959890939650565b600060c0828403121561395857600080fd5b60008083601f84011261430d57600080fd5b50813567ffffffffffffffff81111561432557600080fd5b6020830191508360208260051b850101111561434057600080fd5b9250929050565b60008083601f84011261435957600080fd5b50813567ffffffffffffffff81111561437157600080fd5b60208301915083602082850101111561434057600080fd5b60008060008060008060008060a0898b0312156143a557600080fd5b88356143b081614036565b975060208901356143c081614036565b9650604089013567ffffffffffffffff808211156143dd57600080fd5b6143e98c838d016142fb565b909850965060608b013591508082111561440257600080fd5b61440e8c838d016142fb565b909650945060808b013591508082111561442757600080fd5b506144348b828c01614347565b999c989b5096995094979396929594505050565b60008060006060848603121561445d57600080fd5b83359250602084013561446f81614036565b929592945050506040919091013590565b60006020828403121561449257600080fd5b5035919050565b60008060008060008060a087890312156144b257600080fd5b86356144bd81614036565b955060208701356144cd81614036565b94506040870135935060608701359250608087013567ffffffffffffffff8111156144f757600080fd5b61450389828a01614347565b979a9699509497509295939492505050565b60006020828403121561452757600080fd5b813561377a81614036565b60008060006060848603121561454757600080fd5b833561455281614036565b95602085013595506040909401359392505050565b6001600160a01b03929092168252602082015260400190565b634e487b7160e01b600052603260045260246000fd5b6000606082018583526020606081850152818651808452608086019150828801935060005b818110156145e05784516001600160a01b0316835293830193918301916001016145bb565b50508481036040860152855180825290820192508186019060005b81811015614617578251855293830193918301916001016145fb565b509298975050505050505050565b60006020828403121561463757600080fd5b815161377a81614036565b60006020828403121561465457600080fd5b5051919050565b805161466681614036565b919050565b600061010080838503121561467f57600080fd5b6040519081019067ffffffffffffffff821181831017156146a2576146a2613fcb565b81604052835191506146b382614036565b8181526146c26020850161465b565b60208201526146d36040850161465b565b60408201526146e46060850161465b565b60608201526080840151608082015260a084015160a082015260c084015160c082015260e084015160e0820152809250505092915050565b6000806040838503121561472f57600080fd5b505080516020909101519092909150565b60006020828403121561475257600080fd5b815162ffffff8116811461377a57600080fd5b6000808335601e1984360301811261477c57600080fd5b83018035915067ffffffffffffffff82111561479757600080fd5b60200191503681900382131561434057600080fd5b6020808252602b908201527f496e697469616c697a61626c653a20636f6e7472616374206973206e6f74206960408201526a6e697469616c697a696e6760a81b606082015260800190565b634e487b7160e01b600052601160045260246000fd5b8082028115828204841417610793576107936147f7565b60008261484157634e487b7160e01b600052601260045260246000fd5b500490565b81810381811115610793576107936147f7565b60006020828403121561486b57600080fd5b815160ff8116811461377a57600080fd5b600181815b808511156148b757816000190482111561489d5761489d6147f7565b808516156148aa57918102915b93841c9390800290614881565b509250929050565b6000826148ce57506001610793565b816148db57506000610793565b81600181146148f157600281146148fb57614917565b6001915050610793565b60ff84111561490c5761490c6147f7565b50506001821b610793565b5060208310610133831016604e8410600b841016171561493a575081810a610793565b614944838361487c565b8060001904821115614958576149586147f7565b029392505050565b600061377a60ff8416836148bf565b80820180821115610793576107936147f7565b8183823760009101908152919050565b6000602082840312156149a457600080fd5b8151801515811461377a57600080fd5b60005b838110156149cf5781810151838201526020016149b7565b50506000910152565b600082516149ea8184602087016149b4565b9190910192915050565b6020815260008251806020840152614a138160408501602087016149b4565b601f01601f1916919091016040019291505056fea2646970667358221220792f54a643e4d9d97338843df86014227a0ec6d2efbe1bb56cc425879405b44264736f6c63430008160033",
  "linkReferences": {},
  "deployedLinkReferences": {}
}