{
  "_format": "hh-sol-artifact-1",
  "contractName": "HardVault",
  "sourceName": "contracts/vault/HardVault.sol",
  "abi": [
    {
      "inputs": [],
      "stateMutability": "nonpayable",
      "type": "constructor"
    },
    {
      "inputs": [
        {
          "internalType": "uint256",
          "name": "tokenId",
          "type": "uint256"
        }
      ],
      "name": "INVALID_TOKEN_ID",
      "type": "error"
    },
    {
      "inputs": [],
      "name": "ZERO_ADDRESS",
      "type": "error"
    },
    {
      "inputs": [],
      "name": "ZERO_AMOUNT",
      "type": "error"
    },
    {
      "anonymous": false,
      "inputs": [
        {
          "indexed": true,
          "internalType": "address",
          "name": "account",
          "type": "address"
        },
        {
          "indexed": true,
          "internalType": "address",
          "name": "operator",
          "type": "address"
        },
        {
          "indexed": false,
          "internalType": "bool",
          "name": "approved",
          "type": "bool"
        }
      ],
      "name": "ApprovalForAll",
      "type": "event"
    },
    {
      "anonymous": false,
      "inputs": [
        {
          "indexed": true,
          "internalType": "address",
          "name": "account",
          "type": "address"
        },
        {
          "indexed": false,
          "internalType": "uint256",
          "name": "amount",
          "type": "uint256"
        },
        {
          "indexed": false,
          "internalType": "uint256",
          "name": "shareAmount",
          "type": "uint256"
        }
      ],
      "name": "Deposited",
      "type": "event"
    },
    {
      "anonymous": false,
      "inputs": [
        {
          "indexed": false,
          "internalType": "uint8",
          "name": "version",
          "type": "uint8"
        }
      ],
      "name": "Initialized",
      "type": "event"
    },
    {
      "anonymous": false,
      "inputs": [
        {
          "indexed": true,
          "internalType": "address",
          "name": "previousOwner",
          "type": "address"
        },
        {
          "indexed": true,
          "internalType": "address",
          "name": "newOwner",
          "type": "address"
        }
      ],
      "name": "OwnershipTransferStarted",
      "type": "event"
    },
    {
      "anonymous": false,
      "inputs": [
        {
          "indexed": true,
          "internalType": "address",
          "name": "previousOwner",
          "type": "address"
        },
        {
          "indexed": true,
          "internalType": "address",
          "name": "newOwner",
          "type": "address"
        }
      ],
      "name": "OwnershipTransferred",
      "type": "event"
    },
    {
      "anonymous": false,
      "inputs": [
        {
          "indexed": true,
          "internalType": "address",
          "name": "operator",
          "type": "address"
        },
        {
          "indexed": true,
          "internalType": "address",
          "name": "from",
          "type": "address"
        },
        {
          "indexed": true,
          "internalType": "address",
          "name": "to",
          "type": "address"
        },
        {
          "indexed": false,
          "internalType": "uint256[]",
          "name": "ids",
          "type": "uint256[]"
        },
        {
          "indexed": false,
          "internalType": "uint256[]",
          "name": "values",
          "type": "uint256[]"
        }
      ],
      "name": "TransferBatch",
      "type": "event"
    },
    {
      "anonymous": false,
      "inputs": [
        {
          "indexed": true,
          "internalType": "address",
          "name": "operator",
          "type": "address"
        },
        {
          "indexed": true,
          "internalType": "address",
          "name": "from",
          "type": "address"
        },
        {
          "indexed": true,
          "internalType": "address",
          "name": "to",
          "type": "address"
        },
        {
          "indexed": false,
          "internalType": "uint256",
          "name": "id",
          "type": "uint256"
        },
        {
          "indexed": false,
          "internalType": "uint256",
          "name": "value",
          "type": "uint256"
        }
      ],
      "name": "TransferSingle",
      "type": "event"
    },
    {
      "anonymous": false,
      "inputs": [
        {
          "indexed": false,
          "internalType": "string",
          "name": "value",
          "type": "string"
        },
        {
          "indexed": true,
          "internalType": "uint256",
          "name": "id",
          "type": "uint256"
        }
      ],
      "name": "URI",
      "type": "event"
    },
    {
      "anonymous": false,
      "inputs": [
        {
          "indexed": true,
          "internalType": "address",
          "name": "account",
          "type": "address"
        },
        {
          "indexed": false,
          "internalType": "uint256",
          "name": "amount",
          "type": "uint256"
        },
        {
          "indexed": false,
          "internalType": "uint256",
          "name": "shareAmount",
          "type": "uint256"
        }
      ],
      "name": "Withdrawn",
      "type": "event"
    },
    {
      "inputs": [],
      "name": "acceptOwnership",
      "outputs": [],
      "stateMutability": "nonpayable",
      "type": "function"
    },
    {
      "inputs": [
        {
          "internalType": "address",
          "name": "account",
          "type": "address"
        },
        {
          "internalType": "uint256",
          "name": "id",
          "type": "uint256"
        }
      ],
      "name": "balanceOf",
      "outputs": [
        {
          "internalType": "uint256",
          "name": "",
          "type": "uint256"
        }
      ],
      "stateMutability": "view",
      "type": "function"
    },
    {
      "inputs": [
        {
          "internalType": "address[]",
          "name": "accounts",
          "type": "address[]"
        },
        {
          "internalType": "uint256[]",
          "name": "ids",
          "type": "uint256[]"
        }
      ],
      "name": "balanceOfBatch",
      "outputs": [
        {
          "internalType": "uint256[]",
          "name": "",
          "type": "uint256[]"
        }
      ],
      "stateMutability": "view",
      "type": "function"
    },
    {
      "inputs": [
        {
          "internalType": "address",
          "name": "token",
          "type": "address"
        },
        {
          "internalType": "address",
          "name": "user",
          "type": "address"
        }
      ],
      "name": "balanceOfToken",
      "outputs": [
        {
          "internalType": "uint256",
          "name": "",
          "type": "uint256"
        }
      ],
      "stateMutability": "view",
      "type": "function"
    },
    {
      "inputs": [
        {
          "internalType": "address",
          "name": "token",
          "type": "address"
        },
        {
          "internalType": "uint256",
          "name": "amount",
          "type": "uint256"
        }
      ],
      "name": "deposit",
      "outputs": [
        {
          "internalType": "uint256",
          "name": "shareAmount",
          "type": "uint256"
        }
      ],
      "stateMutability": "nonpayable",
      "type": "function"
    },
    {
      "inputs": [],
      "name": "getConfig",
      "outputs": [
        {
          "internalType": "contract IProtocolConfig",
          "name": "",
          "type": "address"
        }
      ],
      "stateMutability": "view",
      "type": "function"
    },
    {
      "inputs": [
        {
          "internalType": "uint256",
          "name": "tokenId",
          "type": "uint256"
        }
      ],
      "name": "getUnderlyingToken",
      "outputs": [
        {
          "internalType": "address",
          "name": "token",
          "type": "address"
        }
      ],
      "stateMutability": "pure",
      "type": "function"
    },
    {
      "inputs": [
        {
          "internalType": "contract IProtocolConfig",
          "name": "config",
          "type": "address"
        },
        {
          "internalType": "address",
          "name": "owner",
          "type": "address"
        }
      ],
      "name": "initialize",
      "outputs": [],
      "stateMutability": "nonpayable",
      "type": "function"
    },
    {
      "inputs": [
        {
          "internalType": "address",
          "name": "account",
          "type": "address"
        },
        {
          "internalType": "address",
          "name": "operator",
          "type": "address"
        }
      ],
      "name": "isApprovedForAll",
      "outputs": [
        {
          "internalType": "bool",
          "name": "",
          "type": "bool"
        }
      ],
      "stateMutability": "view",
      "type": "function"
    },
    {
      "inputs": [],
      "name": "owner",
      "outputs": [
        {
          "internalType": "address",
          "name": "",
          "type": "address"
        }
      ],
      "stateMutability": "view",
      "type": "function"
    },
    {
      "inputs": [],
      "name": "pendingOwner",
      "outputs": [
        {
          "internalType": "address",
          "name": "",
          "type": "address"
        }
      ],
      "stateMutability": "view",
      "type": "function"
    },
    {
      "inputs": [],
      "name": "renounceOwnership",
      "outputs": [],
      "stateMutability": "nonpayable",
      "type": "function"
    },
    {
      "inputs": [
        {
          "internalType": "address",
          "name": "from",
          "type": "address"
        },
        {
          "internalType": "address",
          "name": "to",
          "type": "address"
        },
        {
          "internalType": "uint256[]",
          "name": "ids",
          "type": "uint256[]"
        },
        {
          "internalType": "uint256[]",
          "name": "amounts",
          "type": "uint256[]"
        },
        {
          "internalType": "bytes",
          "name": "data",
          "type": "bytes"
        }
      ],
      "name": "safeBatchTransferFrom",
      "outputs": [],
      "stateMutability": "nonpayable",
      "type": "function"
    },
    {
      "inputs": [
        {
          "internalType": "address",
          "name": "from",
          "type": "address"
        },
        {
          "internalType": "address",
          "name": "to",
          "type": "address"
        },
        {
          "internalType": "uint256",
          "name": "id",
          "type": "uint256"
        },
        {
          "internalType": "uint256",
          "name": "amount",
          "type": "uint256"
        },
        {
          "internalType": "bytes",
          "name": "data",
          "type": "bytes"
        }
      ],
      "name": "safeTransferFrom",
      "outputs": [],
      "stateMutability": "nonpayable",
      "type": "function"
    },
    {
      "inputs": [
        {
          "internalType": "address",
          "name": "operator",
          "type": "address"
        },
        {
          "internalType": "bool",
          "name": "approved",
          "type": "bool"
        }
      ],
      "name": "setApprovalForAll",
      "outputs": [],
      "stateMutability": "nonpayable",
      "type": "function"
    },
    {
      "inputs": [
        {
          "internalType": "bytes4",
          "name": "interfaceId",
          "type": "bytes4"
        }
      ],
      "name": "supportsInterface",
      "outputs": [
        {
          "internalType": "bool",
          "name": "",
          "type": "bool"
        }
      ],
      "stateMutability": "view",
      "type": "function"
    },
    {
      "inputs": [
        {
          "internalType": "address",
          "name": "newOwner",
          "type": "address"
        }
      ],
      "name": "transferOwnership",
      "outputs": [],
      "stateMutability": "nonpayable",
      "type": "function"
    },
    {
      "inputs": [
        {
          "internalType": "uint256",
          "name": "",
          "type": "uint256"
        }
      ],
      "name": "uri",
      "outputs": [
        {
          "internalType": "string",
          "name": "",
          "type": "string"
        }
      ],
      "stateMutability": "view",
      "type": "function"
    },
    {
      "inputs": [
        {
          "internalType": "address",
          "name": "token",
          "type": "address"
        },
        {
          "internalType": "uint256",
          "name": "shareAmount",
          "type": "uint256"
        }
      ],
      "name": "withdraw",
      "outputs": [
        {
          "internalType": "uint256",
          "name": "withdrawAmount",
          "type": "uint256"
        }
      ],
      "stateMutability": "nonpayable",
      "type": "function"
    }
  ],
  "bytecode": "0x60806040523480156200001157600080fd5b506200001c62000022565b620000e3565b600054610100900460ff16156200008f5760405162461bcd60e51b815260206004820152602760248201527f496e697469616c697a61626c653a20636f6e747261637420697320696e697469604482015266616c697a696e6760c81b606482015260840160405180910390fd5b60005460ff90811614620000e1576000805460ff191660ff9081179091556040519081527f7f26b83ff96e1f2b6a682f133852f6798a09c465da95921460cefb38474024989060200160405180910390a15b565b61267180620000f36000396000f3fe608060405234801561001057600080fd5b50600436106101205760003560e01c80638da5cb5b116100ad578063e985e9c511610071578063e985e9c514610267578063f242432a146102a3578063f2fde38b146102b6578063f3fef3a3146102c9578063f59e38b7146102dc57600080fd5b80638da5cb5b146101f9578063a22cb4651461021e578063a477577214610231578063c3f909d414610244578063e30c39781461025657600080fd5b806347e7ef24116100f457806347e7ef24146101a3578063485cc955146101b65780634e1273f4146101c9578063715018a6146101e957806379ba5097146101f157600080fd5b8062fdd58e1461012557806301ffc9a71461014b5780630e89341c1461016e5780632eb2c2d61461018e575b600080fd5b610138610133366004611c57565b6102ef565b6040519081526020015b60405180910390f35b61015e610159366004611c99565b61038a565b6040519015158152602001610142565b61018161017c366004611cb6565b6103da565b6040516101429190611d1f565b6101a161019c366004611e83565b61046e565b005b6101386101b1366004611c57565b6104ba565b6101a16101c4366004611f31565b61064e565b6101dc6101d7366004611f6a565b6107df565b6040516101429190612073565b6101a1610901565b6101a1610915565b6065546001600160a01b03165b6040516001600160a01b039091168152602001610142565b6101a161022c366004612094565b61098f565b61020661023f366004611cb6565b61099e565b61012d546001600160a01b0316610206565b6097546001600160a01b0316610206565b61015e610275366004611f31565b6001600160a01b03918216600090815260ca6020908152604080832093909416825291909152205460ff1690565b6101a16102b13660046120c2565b6109d0565b6101a16102c436600461212b565b610a15565b6101386102d7366004611c57565b610a86565b6101386102ea366004611f31565b610c87565b60006001600160a01b03831661035f5760405162461bcd60e51b815260206004820152602a60248201527f455243313135353a2061646472657373207a65726f206973206e6f742061207660448201526930b634b21037bbb732b960b11b60648201526084015b60405180910390fd5b50600081815260c9602090815260408083206001600160a01b03861684529091529020545b92915050565b60006001600160e01b03198216636cdb3d1360e11b14806103bb57506001600160e01b031982166303a24d0760e21b145b8061038457506301ffc9a760e01b6001600160e01b0319831614610384565b606060cb80546103e990612148565b80601f016020809104026020016040519081016040528092919081815260200182805461041590612148565b80156104625780601f1061043757610100808354040283529160200191610462565b820191906000526020600020905b81548152906001019060200180831161044557829003601f168201915b50505050509050919050565b6001600160a01b03851633148061048a575061048a8533610275565b6104a65760405162461bcd60e51b815260040161035690612182565b6104b38585858585610ca3565b5050505050565b60006104c4610e7c565b816000036104e557604051630f6fa54560e41b815260040160405180910390fd5b6040516370a0823160e01b815230600482015283906000906001600160a01b038316906370a0823190602401602060405180830381865afa15801561052e573d6000803e3d6000fd5b505050506040513d601f19601f8201168201806040525081019061055291906121d0565b90506105696001600160a01b038316333087610ed5565b6040516370a0823160e01b81523060048201526000906001600160a01b038416906370a0823190602401602060405180830381865afa1580156105b0573d6000803e3d6000fd5b505050506040513d601f19601f820116820180604052508101906105d491906121d0565b90506105e082826121ff565b935061060633876001600160a01b03168660405180602001604052806000815250610f46565b604080518681526020810186905233917f73a19dd210f1a7f902193214c0ee91dd35ee5b4d920cba8d519eca65a7b488ca910160405180910390a2505050610384600160fb55565b600054610100900460ff161580801561066e5750600054600160ff909116105b806106885750303b158015610688575060005460ff166001145b6106eb5760405162461bcd60e51b815260206004820152602e60248201527f496e697469616c697a61626c653a20636f6e747261637420697320616c72656160448201526d191e481a5b9a5d1a585b1a5e995960921b6064820152608401610356565b6000805460ff19166001179055801561070e576000805461ff0019166101001790555b610716611063565b61071e611092565b610727826110c1565b6107516040518060400160405280600981526020016812185c9915985d5b1d60ba1b8152506110da565b6001600160a01b0383166107785760405163538ba4f960e01b815260040160405180910390fd5b61012d80546001600160a01b0319166001600160a01b03851617905580156107da576000805461ff0019169055604051600181527f7f26b83ff96e1f2b6a682f133852f6798a09c465da95921460cefb38474024989060200160405180910390a15b505050565b606081518351146108445760405162461bcd60e51b815260206004820152602960248201527f455243313135353a206163636f756e747320616e6420696473206c656e677468604482015268040dad2e6dac2e8c6d60bb1b6064820152608401610356565b6000835167ffffffffffffffff81111561086057610860611d32565b604051908082528060200260200182016040528015610889578160200160208202803683370190505b50905060005b84518110156108f9576108d48582815181106108ad576108ad612212565b60200260200101518583815181106108c7576108c7612212565b60200260200101516102ef565b8282815181106108e6576108e6612212565b602090810291909101015260010161088f565b509392505050565b61090961110a565b61091360006110c1565b565b60975433906001600160a01b031681146109835760405162461bcd60e51b815260206004820152602960248201527f4f776e61626c6532537465703a2063616c6c6572206973206e6f7420746865206044820152683732bb9037bbb732b960b91b6064820152608401610356565b61098c816110c1565b50565b61099a338383611164565b5050565b806001600160a01b03811681146109cb57604051633add4c3760e01b815260048101839052602401610356565b919050565b6001600160a01b0385163314806109ec57506109ec8533610275565b610a085760405162461bcd60e51b815260040161035690612182565b6104b38585858585611244565b610a1d61110a565b609780546001600160a01b0383166001600160a01b03199091168117909155610a4e6065546001600160a01b031690565b6001600160a01b03167f38d16b8cac22d99fc7c124b9cd0de2d3fa1faef420bfe791d8c362d765e2270060405160405180910390a350565b6000610a90610e7c565b81600003610ab157604051630f6fa54560e41b815260040160405180910390fd5b6000610ac661012d546001600160a01b031690565b905083610add336001600160a01b03831686611372565b610b53826001600160a01b031663f2d638266040518163ffffffff1660e01b8152600401602060405180830381865afa158015610b1e573d6000803e3d6000fd5b505050506040513d601f19601f82011682018060405250810190610b429190612228565b6001600160a01b03831690866114f1565b816001600160a01b031663f2d638266040518163ffffffff1660e01b8152600401602060405180830381865afa158015610b91573d6000803e3d6000fd5b505050506040513d601f19601f82011682018060405250810190610bb59190612228565b60405163272bed8360e11b81526001600160a01b038381166004830152602482018790529190911690634e57db06906044016020604051808303816000875af1158015610c06573d6000803e3d6000fd5b505050506040513d601f19601f82011682018060405250810190610c2a91906121d0565b9250610c406001600160a01b0382163385611512565b604080518481526020810186905233917f92ccf450a286a957af52509bc1c9939d1a6a481783e142e41e2499f0bb66ebc6910160405180910390a25050610384600160fb55565b6000610c9c826001600160a01b0385166102ef565b9392505050565b8151835114610d055760405162461bcd60e51b815260206004820152602860248201527f455243313135353a2069647320616e6420616d6f756e7473206c656e677468206044820152670dad2e6dac2e8c6d60c31b6064820152608401610356565b6001600160a01b038416610d2b5760405162461bcd60e51b815260040161035690612245565b3360005b8451811015610e0e576000858281518110610d4c57610d4c612212565b602002602001015190506000858381518110610d6a57610d6a612212565b602090810291909101810151600084815260c9835260408082206001600160a01b038e168352909352919091205490915081811015610dbb5760405162461bcd60e51b81526004016103569061228a565b600083815260c9602090815260408083206001600160a01b038e8116855292528083208585039055908b16825281208054849290610dfa9084906122d4565b909155505060019093019250610d2f915050565b50846001600160a01b0316866001600160a01b0316826001600160a01b03167f4a39dc06d4c0dbc64b70af90fd698a233a518aa5d07e595d983b8c0526c8f7fb8787604051610e5e9291906122e7565b60405180910390a4610e74818787878787611542565b505050505050565b600260fb5403610ece5760405162461bcd60e51b815260206004820152601f60248201527f5265656e7472616e637947756172643a207265656e7472616e742063616c6c006044820152606401610356565b600260fb55565b6040516001600160a01b0380851660248301528316604482015260648101829052610f409085906323b872dd60e01b906084015b60408051601f198184030181529190526020810180516001600160e01b03166001600160e01b03199093169290921790915261169d565b50505050565b6001600160a01b038416610fa65760405162461bcd60e51b815260206004820152602160248201527f455243313135353a206d696e7420746f20746865207a65726f206164647265736044820152607360f81b6064820152608401610356565b336000610fb285611772565b90506000610fbf85611772565b9050600086815260c9602090815260408083206001600160a01b038b16845290915281208054879290610ff39084906122d4565b909155505060408051878152602081018790526001600160a01b03808a1692600092918716917fc3d58168c5ae7397731d063d5bbf3d657854427343f4c083240f7aacaa2d0f62910160405180910390a4611053836000898989896117bd565b50505050505050565b600160fb55565b600054610100900460ff1661108a5760405162461bcd60e51b81526004016103569061230c565b610913611878565b600054610100900460ff166110b95760405162461bcd60e51b81526004016103569061230c565b61091361189f565b609780546001600160a01b031916905561098c816118cf565b600054610100900460ff166111015760405162461bcd60e51b81526004016103569061230c565b61098c81611921565b6065546001600160a01b031633146109135760405162461bcd60e51b815260206004820181905260248201527f4f776e61626c653a2063616c6c6572206973206e6f7420746865206f776e65726044820152606401610356565b816001600160a01b0316836001600160a01b0316036111d75760405162461bcd60e51b815260206004820152602960248201527f455243313135353a2073657474696e6720617070726f76616c20737461747573604482015268103337b91039b2b63360b91b6064820152608401610356565b6001600160a01b03838116600081815260ca6020908152604080832094871680845294825291829020805460ff191686151590811790915591519182527f17307eab39ab6107e8899845ad3d59bd9653f200f220920489ca2b5937696c31910160405180910390a3505050565b6001600160a01b03841661126a5760405162461bcd60e51b815260040161035690612245565b33600061127685611772565b9050600061128385611772565b9050600086815260c9602090815260408083206001600160a01b038c168452909152902054858110156112c85760405162461bcd60e51b81526004016103569061228a565b600087815260c9602090815260408083206001600160a01b038d8116855292528083208985039055908a168252812080548892906113079084906122d4565b909155505060408051888152602081018890526001600160a01b03808b16928c821692918816917fc3d58168c5ae7397731d063d5bbf3d657854427343f4c083240f7aacaa2d0f62910160405180910390a4611367848a8a8a8a8a6117bd565b505050505050505050565b6001600160a01b0383166113d45760405162461bcd60e51b815260206004820152602360248201527f455243313135353a206275726e2066726f6d20746865207a65726f206164647260448201526265737360e81b6064820152608401610356565b3360006113e084611772565b905060006113ed84611772565b604080516020808201835260009182905288825260c981528282206001600160a01b038b16835290522054909150848110156114775760405162461bcd60e51b8152602060048201526024808201527f455243313135353a206275726e20616d6f756e7420657863656564732062616c604482015263616e636560e01b6064820152608401610356565b600086815260c9602090815260408083206001600160a01b038b81168086529184528285208a8703905582518b81529384018a90529092908816917fc3d58168c5ae7397731d063d5bbf3d657854427343f4c083240f7aacaa2d0f62910160405180910390a4604080516020810190915260009052611053565b6114fa83611951565b6107da576107da6001600160a01b038416838361198a565b6040516001600160a01b0383166024820152604481018290526107da90849063a9059cbb60e01b90606401610f09565b6001600160a01b0384163b15610e745760405163bc197c8160e01b81526001600160a01b0385169063bc197c81906115869089908990889088908890600401612357565b6020604051808303816000875af19250505080156115c1575060408051601f3d908101601f191682019092526115be918101906123b5565b60015b61166d576115cd6123d2565b806308c379a00361160657506115e16123ee565b806115ec5750611608565b8060405162461bcd60e51b81526004016103569190611d1f565b505b60405162461bcd60e51b815260206004820152603460248201527f455243313135353a207472616e7366657220746f206e6f6e2d455243313135356044820152732932b1b2b4bb32b91034b6b83632b6b2b73a32b960611b6064820152608401610356565b6001600160e01b0319811663bc197c8160e01b146110535760405162461bcd60e51b815260040161035690612478565b60006116f2826040518060400160405280602081526020017f5361666545524332303a206c6f772d6c6576656c2063616c6c206661696c6564815250856001600160a01b0316611a199092919063ffffffff16565b905080516000148061171357508080602001905181019061171391906124c0565b6107da5760405162461bcd60e51b815260206004820152602a60248201527f5361666545524332303a204552433230206f7065726174696f6e20646964206e6044820152691bdd081cdd58d8d9595960b21b6064820152608401610356565b604080516001808252818301909252606091600091906020808301908036833701905050905082816000815181106117ac576117ac612212565b602090810291909101015292915050565b6001600160a01b0384163b15610e745760405163f23a6e6160e01b81526001600160a01b0385169063f23a6e619061180190899089908890889088906004016124dd565b6020604051808303816000875af192505050801561183c575060408051601f3d908101601f19168201909252611839918101906123b5565b60015b611848576115cd6123d2565b6001600160e01b0319811663f23a6e6160e01b146110535760405162461bcd60e51b815260040161035690612478565b600054610100900460ff1661105c5760405162461bcd60e51b81526004016103569061230c565b600054610100900460ff166118c65760405162461bcd60e51b81526004016103569061230c565b610913336110c1565b606580546001600160a01b038381166001600160a01b0319831681179093556040519116919082907f8be0079c531659141344cd1fd0a4f28419497f9722a3daafe3b4186f6b6457e090600090a35050565b600054610100900460ff166119485760405162461bcd60e51b81526004016103569061230c565b61098c81611a30565b60006001600160a01b038216158061038457506001600160a01b03821673eeeeeeeeeeeeeeeeeeeeeeeeeeeeeeeeeeeeeeee1492915050565b604080516001600160a01b038416602482015260448082018490528251808303909101815260649091019091526020810180516001600160e01b031663095ea7b360e01b1790526119db8482611a3c565b610f40576040516001600160a01b038416602482015260006044820152611a0f90859063095ea7b360e01b90606401610f09565b610f40848261169d565b6060611a288484600085611ae3565b949350505050565b60cb61099a828261255f565b6000806000846001600160a01b031684604051611a59919061261f565b6000604051808303816000865af19150503d8060008114611a96576040519150601f19603f3d011682016040523d82523d6000602084013e611a9b565b606091505b5091509150818015611ac5575080511580611ac5575080806020019051810190611ac591906124c0565b8015611ada57506001600160a01b0385163b15155b95945050505050565b606082471015611b445760405162461bcd60e51b815260206004820152602660248201527f416464726573733a20696e73756666696369656e742062616c616e636520666f6044820152651c8818d85b1b60d21b6064820152608401610356565b600080866001600160a01b03168587604051611b60919061261f565b60006040518083038185875af1925050503d8060008114611b9d576040519150601f19603f3d011682016040523d82523d6000602084013e611ba2565b606091505b5091509150611bb387838387611bbe565b979650505050505050565b60608315611c2d578251600003611c26576001600160a01b0385163b611c265760405162461bcd60e51b815260206004820152601d60248201527f416464726573733a2063616c6c20746f206e6f6e2d636f6e74726163740000006044820152606401610356565b5081611a28565b611a2883838151156115ec5781518083602001fd5b6001600160a01b038116811461098c57600080fd5b60008060408385031215611c6a57600080fd5b8235611c7581611c42565b946020939093013593505050565b6001600160e01b03198116811461098c57600080fd5b600060208284031215611cab57600080fd5b8135610c9c81611c83565b600060208284031215611cc857600080fd5b5035919050565b60005b83811015611cea578181015183820152602001611cd2565b50506000910152565b60008151808452611d0b816020860160208601611ccf565b601f01601f19169290920160200192915050565b602081526000610c9c6020830184611cf3565b634e487b7160e01b600052604160045260246000fd5b601f8201601f1916810167ffffffffffffffff81118282101715611d6e57611d6e611d32565b6040525050565b600067ffffffffffffffff821115611d8f57611d8f611d32565b5060051b60200190565b600082601f830112611daa57600080fd5b81356020611db782611d75565b604051611dc48282611d48565b80915083815260208101915060208460051b870101935086841115611de857600080fd5b602086015b84811015611e045780358352918301918301611ded565b509695505050505050565b600082601f830112611e2057600080fd5b813567ffffffffffffffff811115611e3a57611e3a611d32565b604051611e51601f8301601f191660200182611d48565b818152846020838601011115611e6657600080fd5b816020850160208301376000918101602001919091529392505050565b600080600080600060a08688031215611e9b57600080fd5b8535611ea681611c42565b94506020860135611eb681611c42565b9350604086013567ffffffffffffffff80821115611ed357600080fd5b611edf89838a01611d99565b94506060880135915080821115611ef557600080fd5b611f0189838a01611d99565b93506080880135915080821115611f1757600080fd5b50611f2488828901611e0f565b9150509295509295909350565b60008060408385031215611f4457600080fd5b8235611f4f81611c42565b91506020830135611f5f81611c42565b809150509250929050565b60008060408385031215611f7d57600080fd5b823567ffffffffffffffff80821115611f9557600080fd5b818501915085601f830112611fa957600080fd5b81356020611fb682611d75565b604051611fc38282611d48565b83815260059390931b8501820192828101915089841115611fe357600080fd5b948201945b8386101561200a578535611ffb81611c42565b82529482019490820190611fe8565b9650508601359250508082111561202057600080fd5b5061202d85828601611d99565b9150509250929050565b60008151808452602080850194506020840160005b838110156120685781518752958201959082019060010161204c565b509495945050505050565b602081526000610c9c6020830184612037565b801515811461098c57600080fd5b600080604083850312156120a757600080fd5b82356120b281611c42565b91506020830135611f5f81612086565b600080600080600060a086880312156120da57600080fd5b85356120e581611c42565b945060208601356120f581611c42565b93506040860135925060608601359150608086013567ffffffffffffffff81111561211f57600080fd5b611f2488828901611e0f565b60006020828403121561213d57600080fd5b8135610c9c81611c42565b600181811c9082168061215c57607f821691505b60208210810361217c57634e487b7160e01b600052602260045260246000fd5b50919050565b6020808252602e908201527f455243313135353a2063616c6c6572206973206e6f7420746f6b656e206f776e60408201526d195c881bdc88185c1c1c9bdd995960921b606082015260800190565b6000602082840312156121e257600080fd5b5051919050565b634e487b7160e01b600052601160045260246000fd5b81810381811115610384576103846121e9565b634e487b7160e01b600052603260045260246000fd5b60006020828403121561223a57600080fd5b8151610c9c81611c42565b60208082526025908201527f455243313135353a207472616e7366657220746f20746865207a65726f206164604082015264647265737360d81b606082015260800190565b6020808252602a908201527f455243313135353a20696e73756666696369656e742062616c616e636520666f60408201526939103a3930b739b332b960b11b606082015260800190565b80820180821115610384576103846121e9565b6040815260006122fa6040830185612037565b8281036020840152611ada8185612037565b6020808252602b908201527f496e697469616c697a61626c653a20636f6e7472616374206973206e6f74206960408201526a6e697469616c697a696e6760a81b606082015260800190565b6001600160a01b0386811682528516602082015260a06040820181905260009061238390830186612037565b82810360608401526123958186612037565b905082810360808401526123a98185611cf3565b98975050505050505050565b6000602082840312156123c757600080fd5b8151610c9c81611c83565b600060033d11156123eb5760046000803e5060005160e01c5b90565b600060443d10156123fc5790565b6040516003193d81016004833e81513d67ffffffffffffffff816024840111818411171561242c57505050505090565b82850191508151818111156124445750505050505090565b843d870101602082850101111561245e5750505050505090565b61246d60208286010187611d48565b509095945050505050565b60208082526028908201527f455243313135353a204552433131353552656365697665722072656a656374656040820152676420746f6b656e7360c01b606082015260800190565b6000602082840312156124d257600080fd5b8151610c9c81612086565b6001600160a01b03868116825285166020820152604081018490526060810183905260a060808201819052600090611bb390830184611cf3565b601f8211156107da576000816000526020600020601f850160051c810160208610156125405750805b601f850160051c820191505b81811015610e745782815560010161254c565b815167ffffffffffffffff81111561257957612579611d32565b61258d816125878454612148565b84612517565b602080601f8311600181146125c257600084156125aa5750858301515b600019600386901b1c1916600185901b178555610e74565b600085815260208120601f198616915b828110156125f1578886015182559484019460019091019084016125d2565b508582101561260f5787850151600019600388901b60f8161c191681555b5050505050600190811b01905550565b60008251612631818460208701611ccf565b919091019291505056fea264697066735822122068179770d9f779a2632622592adfd6cc549e98ef538c2cda9ccf08049ad928a264736f6c63430008160033",
  "linkReferences": {},
  "deployedLinkReferences": {}
}