{
  "_format": "hh-sol-artifact-1",
  "contractName": "BlueberryBank",
  "sourceName": "contracts/BlueberryBank.sol",
  "abi": [
    {
      "inputs": [],
      "stateMutability": "nonpayable",
      "type": "constructor"
    },
    {
      "inputs": [
        {
          "internalType": "uint256",
          "name": "positionId",
          "type": "uint256"
        }
      ],
      "name": "BAD_COLLATERAL",
      "type": "error"
    },
    {
      "inputs": [
        {
          "internalType": "uint256",
          "name": "posId",
          "type": "uint256"
        }
      ],
      "name": "BAD_POSITION",
      "type": "error"
    },
    {
      "inputs": [],
      "name": "BANK_ALREADY_LISTED",
      "type": "error"
    },
    {
      "inputs": [],
      "name": "BANK_LIMIT",
      "type": "error"
    },
    {
      "inputs": [
        {
          "internalType": "uint8",
          "name": "index",
          "type": "uint8"
        }
      ],
      "name": "BANK_NOT_EXIST",
      "type": "error"
    },
    {
      "inputs": [
        {
          "internalType": "address",
          "name": "token",
          "type": "address"
        }
      ],
      "name": "BANK_NOT_LISTED",
      "type": "error"
    },
    {
      "inputs": [
        {
          "internalType": "uint256",
          "name": "amount",
          "type": "uint256"
        }
      ],
      "name": "BORROW_FAILED",
      "type": "error"
    },
    {
      "inputs": [],
      "name": "BORROW_NOT_ALLOWED",
      "type": "error"
    },
    {
      "inputs": [
        {
          "internalType": "uint256",
          "name": "borrowAmount",
          "type": "uint256"
        }
      ],
      "name": "BORROW_ZERO_SHARE",
      "type": "error"
    },
    {
      "inputs": [],
      "name": "BTOKEN_ALREADY_ADDED",
      "type": "error"
    },
    {
      "inputs": [
        {
          "internalType": "address",
          "name": "collToken",
          "type": "address"
        }
      ],
      "name": "DIFF_COL_EXIST",
      "type": "error"
    },
    {
      "inputs": [
        {
          "internalType": "address",
          "name": "debtToken",
          "type": "address"
        }
      ],
      "name": "INCORRECT_DEBT",
      "type": "error"
    },
    {
      "inputs": [
        {
          "internalType": "address",
          "name": "uToken",
          "type": "address"
        }
      ],
      "name": "INCORRECT_UNDERLYING",
      "type": "error"
    },
    {
      "inputs": [],
      "name": "INPUT_ARRAY_MISMATCH",
      "type": "error"
    },
    {
      "inputs": [],
      "name": "INSUFFICIENT_COLLATERAL",
      "type": "error"
    },
    {
      "inputs": [
        {
          "internalType": "address",
          "name": "uToken",
          "type": "address"
        }
      ],
      "name": "INVALID_UTOKEN",
      "type": "error"
    },
    {
      "inputs": [],
      "name": "LEND_NOT_ALLOWED",
      "type": "error"
    },
    {
      "inputs": [
        {
          "internalType": "uint256",
          "name": "threshold",
          "type": "uint256"
        }
      ],
      "name": "LIQ_THRESHOLD_TOO_HIGH",
      "type": "error"
    },
    {
      "inputs": [
        {
          "internalType": "uint256",
          "name": "threshold",
          "type": "uint256"
        }
      ],
      "name": "LIQ_THRESHOLD_TOO_LOW",
      "type": "error"
    },
    {
      "inputs": [],
      "name": "LOCKED",
      "type": "error"
    },
    {
      "inputs": [
        {
          "internalType": "uint256",
          "name": "positionId",
          "type": "uint256"
        },
        {
          "internalType": "address",
          "name": "sender",
          "type": "address"
        }
      ],
      "name": "NOT_FROM_OWNER",
      "type": "error"
    },
    {
      "inputs": [
        {
          "internalType": "address",
          "name": "from",
          "type": "address"
        }
      ],
      "name": "NOT_FROM_SPELL",
      "type": "error"
    },
    {
      "inputs": [],
      "name": "NOT_IN_EXEC",
      "type": "error"
    },
    {
      "inputs": [
        {
          "internalType": "uint256",
          "name": "positionId",
          "type": "uint256"
        }
      ],
      "name": "NOT_LIQUIDATABLE",
      "type": "error"
    },
    {
      "inputs": [],
      "name": "NOT_UNDER_EXECUTION",
      "type": "error"
    },
    {
      "inputs": [
        {
          "internalType": "address",
          "name": "token",
          "type": "address"
        }
      ],
      "name": "ORACLE_NOT_SUPPORT",
      "type": "error"
    },
    {
      "inputs": [
        {
          "internalType": "address",
          "name": "wToken",
          "type": "address"
        }
      ],
      "name": "ORACLE_NOT_SUPPORT_WTOKEN",
      "type": "error"
    },
    {
      "inputs": [],
      "name": "REPAY_ALLOW_NOT_WARMED_UP",
      "type": "error"
    },
    {
      "inputs": [
        {
          "internalType": "uint256",
          "name": "repay",
          "type": "uint256"
        },
        {
          "internalType": "uint256",
          "name": "debt",
          "type": "uint256"
        }
      ],
      "name": "REPAY_EXCEEDS_DEBT",
      "type": "error"
    },
    {
      "inputs": [
        {
          "internalType": "uint256",
          "name": "amount",
          "type": "uint256"
        }
      ],
      "name": "REPAY_FAILED",
      "type": "error"
    },
    {
      "inputs": [],
      "name": "REPAY_NOT_ALLOWED",
      "type": "error"
    },
    {
      "inputs": [
        {
          "internalType": "address",
          "name": "spell",
          "type": "address"
        }
      ],
      "name": "SPELL_NOT_WHITELISTED",
      "type": "error"
    },
    {
      "inputs": [
        {
          "internalType": "address",
          "name": "token",
          "type": "address"
        }
      ],
      "name": "TOKEN_NOT_WHITELISTED",
      "type": "error"
    },
    {
      "inputs": [],
      "name": "WITHDRAW_LEND_NOT_ALLOWED",
      "type": "error"
    },
    {
      "inputs": [],
      "name": "ZERO_ADDRESS",
      "type": "error"
    },
    {
      "inputs": [],
      "name": "ZERO_AMOUNT",
      "type": "error"
    },
    {
      "anonymous": false,
      "inputs": [
        {
          "indexed": false,
          "internalType": "address",
          "name": "token",
          "type": "address"
        },
        {
          "indexed": false,
          "internalType": "address",
          "name": "bToken",
          "type": "address"
        },
        {
          "indexed": false,
          "internalType": "address",
          "name": "softVault",
          "type": "address"
        },
        {
          "indexed": false,
          "internalType": "address",
          "name": "hardVault",
          "type": "address"
        }
      ],
      "name": "AddBank",
      "type": "event"
    },
    {
      "anonymous": false,
      "inputs": [
        {
          "indexed": false,
          "internalType": "uint256",
          "name": "positionId",
          "type": "uint256"
        },
        {
          "indexed": false,
          "internalType": "address",
          "name": "caller",
          "type": "address"
        },
        {
          "indexed": false,
          "internalType": "address",
          "name": "token",
          "type": "address"
        },
        {
          "indexed": false,
          "internalType": "uint256",
          "name": "amount",
          "type": "uint256"
        },
        {
          "indexed": false,
          "internalType": "uint256",
          "name": "share",
          "type": "uint256"
        }
      ],
      "name": "Borrow",
      "type": "event"
    },
    {
      "anonymous": false,
      "inputs": [
        {
          "indexed": false,
          "internalType": "uint256",
          "name": "positionId",
          "type": "uint256"
        },
        {
          "indexed": false,
          "internalType": "address",
          "name": "owner",
          "type": "address"
        }
      ],
      "name": "Execute",
      "type": "event"
    },
    {
      "anonymous": false,
      "inputs": [
        {
          "indexed": false,
          "internalType": "uint8",
          "name": "version",
          "type": "uint8"
        }
      ],
      "name": "Initialized",
      "type": "event"
    },
    {
      "anonymous": false,
      "inputs": [
        {
          "indexed": false,
          "internalType": "uint256",
          "name": "positionId",
          "type": "uint256"
        },
        {
          "indexed": false,
          "internalType": "address",
          "name": "caller",
          "type": "address"
        },
        {
          "indexed": false,
          "internalType": "address",
          "name": "token",
          "type": "address"
        },
        {
          "indexed": false,
          "internalType": "uint256",
          "name": "amount",
          "type": "uint256"
        }
      ],
      "name": "Lend",
      "type": "event"
    },
    {
      "anonymous": false,
      "inputs": [
        {
          "indexed": false,
          "internalType": "uint256",
          "name": "positionId",
          "type": "uint256"
        },
        {
          "indexed": false,
          "internalType": "address",
          "name": "liquidator",
          "type": "address"
        },
        {
          "indexed": false,
          "internalType": "address",
          "name": "debtToken",
          "type": "address"
        },
        {
          "indexed": false,
          "internalType": "uint256",
          "name": "amount",
          "type": "uint256"
        },
        {
          "indexed": false,
          "internalType": "uint256",
          "name": "share",
          "type": "uint256"
        },
        {
          "indexed": false,
          "internalType": "uint256",
          "name": "positionSize",
          "type": "uint256"
        },
        {
          "indexed": false,
          "internalType": "uint256",
          "name": "underlyingVaultSize",
          "type": "uint256"
        }
      ],
      "name": "Liquidate",
      "type": "event"
    },
    {
      "anonymous": false,
      "inputs": [
        {
          "indexed": false,
          "internalType": "address",
          "name": "token",
          "type": "address"
        },
        {
          "indexed": false,
          "internalType": "address",
          "name": "bToken",
          "type": "address"
        },
        {
          "indexed": false,
          "internalType": "address",
          "name": "softVault",
          "type": "address"
        },
        {
          "indexed": false,
          "internalType": "address",
          "name": "hardVault",
          "type": "address"
        }
      ],
      "name": "ModifyBank",
      "type": "event"
    },
    {
      "anonymous": false,
      "inputs": [
        {
          "indexed": true,
          "internalType": "address",
          "name": "previousOwner",
          "type": "address"
        },
        {
          "indexed": true,
          "internalType": "address",
          "name": "newOwner",
          "type": "address"
        }
      ],
      "name": "OwnershipTransferStarted",
      "type": "event"
    },
    {
      "anonymous": false,
      "inputs": [
        {
          "indexed": true,
          "internalType": "address",
          "name": "previousOwner",
          "type": "address"
        },
        {
          "indexed": true,
          "internalType": "address",
          "name": "newOwner",
          "type": "address"
        }
      ],
      "name": "OwnershipTransferred",
      "type": "event"
    },
    {
      "anonymous": false,
      "inputs": [
        {
          "indexed": false,
          "internalType": "uint256",
          "name": "positionId",
          "type": "uint256"
        },
        {
          "indexed": false,
          "internalType": "address",
          "name": "owner",
          "type": "address"
        },
        {
          "indexed": false,
          "internalType": "address",
          "name": "caller",
          "type": "address"
        },
        {
          "indexed": false,
          "internalType": "address",
          "name": "token",
          "type": "address"
        },
        {
          "indexed": false,
          "internalType": "uint256",
          "name": "id",
          "type": "uint256"
        },
        {
          "indexed": false,
          "internalType": "uint256",
          "name": "amount",
          "type": "uint256"
        }
      ],
      "name": "PutCollateral",
      "type": "event"
    },
    {
      "anonymous": false,
      "inputs": [
        {
          "indexed": false,
          "internalType": "uint256",
          "name": "positionId",
          "type": "uint256"
        },
        {
          "indexed": false,
          "internalType": "address",
          "name": "caller",
          "type": "address"
        },
        {
          "indexed": false,
          "internalType": "address",
          "name": "token",
          "type": "address"
        },
        {
          "indexed": false,
          "internalType": "uint256",
          "name": "amount",
          "type": "uint256"
        },
        {
          "indexed": false,
          "internalType": "uint256",
          "name": "share",
          "type": "uint256"
        }
      ],
      "name": "Repay",
      "type": "event"
    },
    {
      "anonymous": false,
      "inputs": [
        {
          "indexed": false,
          "internalType": "address",
          "name": "oracle",
          "type": "address"
        }
      ],
      "name": "SetOracle",
      "type": "event"
    },
    {
      "anonymous": false,
      "inputs": [
        {
          "indexed": true,
          "internalType": "address",
          "name": "token",
          "type": "address"
        },
        {
          "indexed": false,
          "internalType": "bool",
          "name": "isWhitelisted",
          "type": "bool"
        }
      ],
      "name": "SetWhitelistERC1155",
      "type": "event"
    },
    {
      "anonymous": false,
      "inputs": [
        {
          "indexed": true,
          "internalType": "address",
          "name": "token",
          "type": "address"
        },
        {
          "indexed": false,
          "internalType": "bool",
          "name": "isWhitelisted",
          "type": "bool"
        }
      ],
      "name": "SetWhitelistToken",
      "type": "event"
    },
    {
      "anonymous": false,
      "inputs": [
        {
          "indexed": false,
          "internalType": "uint256",
          "name": "positionId",
          "type": "uint256"
        },
        {
          "indexed": false,
          "internalType": "address",
          "name": "caller",
          "type": "address"
        },
        {
          "indexed": false,
          "internalType": "address",
          "name": "token",
          "type": "address"
        },
        {
          "indexed": false,
          "internalType": "uint256",
          "name": "id",
          "type": "uint256"
        },
        {
          "indexed": false,
          "internalType": "uint256",
          "name": "amount",
          "type": "uint256"
        }
      ],
      "name": "TakeCollateral",
      "type": "event"
    },
    {
      "anonymous": false,
      "inputs": [
        {
          "indexed": false,
          "internalType": "uint256",
          "name": "positionId",
          "type": "uint256"
        },
        {
          "indexed": false,
          "internalType": "address",
          "name": "caller",
          "type": "address"
        },
        {
          "indexed": false,
          "internalType": "address",
          "name": "token",
          "type": "address"
        },
        {
          "indexed": false,
          "internalType": "uint256",
          "name": "amount",
          "type": "uint256"
        }
      ],
      "name": "WithdrawLend",
      "type": "event"
    },
    {
      "inputs": [],
      "name": "EXECUTOR",
      "outputs": [
        {
          "internalType": "address",
          "name": "",
          "type": "address"
        }
      ],
      "stateMutability": "view",
      "type": "function"
    },
    {
      "inputs": [],
      "name": "POSITION_ID",
      "outputs": [
        {
          "internalType": "uint256",
          "name": "",
          "type": "uint256"
        }
      ],
      "stateMutability": "view",
      "type": "function"
    },
    {
      "inputs": [],
      "name": "SPELL",
      "outputs": [
        {
          "internalType": "address",
          "name": "",
          "type": "address"
        }
      ],
      "stateMutability": "view",
      "type": "function"
    },
    {
      "inputs": [],
      "name": "acceptOwnership",
      "outputs": [],
      "stateMutability": "nonpayable",
      "type": "function"
    },
    {
      "inputs": [
        {
          "internalType": "address",
          "name": "token",
          "type": "address"
        }
      ],
      "name": "accrue",
      "outputs": [],
      "stateMutability": "nonpayable",
      "type": "function"
    },
    {
      "inputs": [
        {
          "internalType": "address[]",
          "name": "tokens",
          "type": "address[]"
        }
      ],
      "name": "accrueAll",
      "outputs": [],
      "stateMutability": "nonpayable",
      "type": "function"
    },
    {
      "inputs": [
        {
          "internalType": "address",
          "name": "token",
          "type": "address"
        },
        {
          "internalType": "address",
          "name": "softVault",
          "type": "address"
        },
        {
          "internalType": "address",
          "name": "hardVault",
          "type": "address"
        },
        {
          "internalType": "uint256",
          "name": "liqThreshold",
          "type": "uint256"
        }
      ],
      "name": "addBank",
      "outputs": [],
      "stateMutability": "nonpayable",
      "type": "function"
    },
    {
      "inputs": [
        {
          "internalType": "address",
          "name": "token",
          "type": "address"
        },
        {
          "internalType": "uint256",
          "name": "amount",
          "type": "uint256"
        }
      ],
      "name": "borrow",
      "outputs": [
        {
          "internalType": "uint256",
          "name": "borrowedAmount",
          "type": "uint256"
        }
      ],
      "stateMutability": "nonpayable",
      "type": "function"
    },
    {
      "inputs": [
        {
          "internalType": "uint256",
          "name": "positionId",
          "type": "uint256"
        }
      ],
      "name": "currentPositionDebt",
      "outputs": [
        {
          "internalType": "uint256",
          "name": "",
          "type": "uint256"
        }
      ],
      "stateMutability": "nonpayable",
      "type": "function"
    },
    {
      "inputs": [
        {
          "internalType": "uint256",
          "name": "positionId",
          "type": "uint256"
        },
        {
          "internalType": "address",
          "name": "spell",
          "type": "address"
        },
        {
          "internalType": "bytes",
          "name": "data",
          "type": "bytes"
        }
      ],
      "name": "execute",
      "outputs": [
        {
          "internalType": "uint256",
          "name": "",
          "type": "uint256"
        }
      ],
      "stateMutability": "nonpayable",
      "type": "function"
    },
    {
      "inputs": [],
      "name": "getAllBanks",
      "outputs": [
        {
          "internalType": "address[]",
          "name": "",
          "type": "address[]"
        }
      ],
      "stateMutability": "view",
      "type": "function"
    },
    {
      "inputs": [
        {
          "internalType": "address",
          "name": "token",
          "type": "address"
        }
      ],
      "name": "getBankInfo",
      "outputs": [
        {
          "components": [
            {
              "internalType": "bool",
              "name": "isListed",
              "type": "bool"
            },
            {
              "internalType": "uint8",
              "name": "index",
              "type": "uint8"
            },
            {
              "internalType": "address",
              "name": "hardVault",
              "type": "address"
            },
            {
              "internalType": "address",
              "name": "softVault",
              "type": "address"
            },
            {
              "internalType": "address",
              "name": "bToken",
              "type": "address"
            },
            {
              "internalType": "uint256",
              "name": "totalShare",
              "type": "uint256"
            },
            {
              "internalType": "uint256",
              "name": "liqThreshold",
              "type": "uint256"
            }
          ],
          "internalType": "struct IBank.Bank",
          "name": "bank",
          "type": "tuple"
        }
      ],
      "stateMutability": "view",
      "type": "function"
    },
    {
      "inputs": [],
      "name": "getBankStatus",
      "outputs": [
        {
          "internalType": "uint256",
          "name": "",
          "type": "uint256"
        }
      ],
      "stateMutability": "view",
      "type": "function"
    },
    {
      "inputs": [],
      "name": "getConfig",
      "outputs": [
        {
          "internalType": "contract IProtocolConfig",
          "name": "",
          "type": "address"
        }
      ],
      "stateMutability": "view",
      "type": "function"
    },
    {
      "inputs": [],
      "name": "getCurrentPositionInfo",
      "outputs": [
        {
          "components": [
            {
              "internalType": "address",
              "name": "owner",
              "type": "address"
            },
            {
              "internalType": "address",
              "name": "collToken",
              "type": "address"
            },
            {
              "internalType": "address",
              "name": "underlyingToken",
              "type": "address"
            },
            {
              "internalType": "address",
              "name": "debtToken",
              "type": "address"
            },
            {
              "internalType": "uint256",
              "name": "underlyingVaultShare",
              "type": "uint256"
            },
            {
              "internalType": "uint256",
              "name": "collId",
              "type": "uint256"
            },
            {
              "internalType": "uint256",
              "name": "collateralSize",
              "type": "uint256"
            },
            {
              "internalType": "uint256",
              "name": "debtShare",
              "type": "uint256"
            }
          ],
          "internalType": "struct IBank.Position",
          "name": "",
          "type": "tuple"
        }
      ],
      "stateMutability": "view",
      "type": "function"
    },
    {
      "inputs": [
        {
          "internalType": "uint256",
          "name": "positionId",
          "type": "uint256"
        }
      ],
      "name": "getDebtValue",
      "outputs": [
        {
          "internalType": "uint256",
          "name": "debtValue",
          "type": "uint256"
        }
      ],
      "stateMutability": "nonpayable",
      "type": "function"
    },
    {
      "inputs": [],
      "name": "getFeeManager",
      "outputs": [
        {
          "internalType": "contract IFeeManager",
          "name": "",
          "type": "address"
        }
      ],
      "stateMutability": "view",
      "type": "function"
    },
    {
      "inputs": [
        {
          "internalType": "uint256",
          "name": "positionId",
          "type": "uint256"
        }
      ],
      "name": "getIsolatedCollateralValue",
      "outputs": [
        {
          "internalType": "uint256",
          "name": "icollValue",
          "type": "uint256"
        }
      ],
      "stateMutability": "nonpayable",
      "type": "function"
    },
    {
      "inputs": [],
      "name": "getNextPositionId",
      "outputs": [
        {
          "internalType": "uint256",
          "name": "",
          "type": "uint256"
        }
      ],
      "stateMutability": "view",
      "type": "function"
    },
    {
      "inputs": [],
      "name": "getOracle",
      "outputs": [
        {
          "internalType": "contract ICoreOracle",
          "name": "",
          "type": "address"
        }
      ],
      "stateMutability": "view",
      "type": "function"
    },
    {
      "inputs": [
        {
          "internalType": "uint256",
          "name": "positionId",
          "type": "uint256"
        }
      ],
      "name": "getPositionDebt",
      "outputs": [
        {
          "internalType": "uint256",
          "name": "debt",
          "type": "uint256"
        }
      ],
      "stateMutability": "view",
      "type": "function"
    },
    {
      "inputs": [
        {
          "internalType": "uint256",
          "name": "positionId",
          "type": "uint256"
        }
      ],
      "name": "getPositionInfo",
      "outputs": [
        {
          "components": [
            {
              "internalType": "address",
              "name": "owner",
              "type": "address"
            },
            {
              "internalType": "address",
              "name": "collToken",
              "type": "address"
            },
            {
              "internalType": "address",
              "name": "underlyingToken",
              "type": "address"
            },
            {
              "internalType": "address",
              "name": "debtToken",
              "type": "address"
            },
            {
              "internalType": "uint256",
              "name": "underlyingVaultShare",
              "type": "uint256"
            },
            {
              "internalType": "uint256",
              "name": "collId",
              "type": "uint256"
            },
            {
              "internalType": "uint256",
              "name": "collateralSize",
              "type": "uint256"
            },
            {
              "internalType": "uint256",
              "name": "debtShare",
              "type": "uint256"
            }
          ],
          "internalType": "struct IBank.Position",
          "name": "",
          "type": "tuple"
        }
      ],
      "stateMutability": "view",
      "type": "function"
    },
    {
      "inputs": [
        {
          "internalType": "uint256",
          "name": "positionId",
          "type": "uint256"
        }
      ],
      "name": "getPositionRisk",
      "outputs": [
        {
          "internalType": "uint256",
          "name": "risk",
          "type": "uint256"
        }
      ],
      "stateMutability": "nonpayable",
      "type": "function"
    },
    {
      "inputs": [
        {
          "internalType": "uint256",
          "name": "positionId",
          "type": "uint256"
        }
      ],
      "name": "getPositionValue",
      "outputs": [
        {
          "internalType": "uint256",
          "name": "positionValue",
          "type": "uint256"
        }
      ],
      "stateMutability": "nonpayable",
      "type": "function"
    },
    {
      "inputs": [],
      "name": "getRepayResumedTimestamp",
      "outputs": [
        {
          "internalType": "uint256",
          "name": "",
          "type": "uint256"
        }
      ],
      "stateMutability": "view",
      "type": "function"
    },
    {
      "inputs": [
        {
          "internalType": "contract ICoreOracle",
          "name": "oracle",
          "type": "address"
        },
        {
          "internalType": "contract IProtocolConfig",
          "name": "config",
          "type": "address"
        },
        {
          "internalType": "address",
          "name": "owner",
          "type": "address"
        }
      ],
      "name": "initialize",
      "outputs": [],
      "stateMutability": "nonpayable",
      "type": "function"
    },
    {
      "inputs": [],
      "name": "isBorrowAllowed",
      "outputs": [
        {
          "internalType": "bool",
          "name": "",
          "type": "bool"
        }
      ],
      "stateMutability": "view",
      "type": "function"
    },
    {
      "inputs": [],
      "name": "isLendAllowed",
      "outputs": [
        {
          "internalType": "bool",
          "name": "",
          "type": "bool"
        }
      ],
      "stateMutability": "view",
      "type": "function"
    },
    {
      "inputs": [
        {
          "internalType": "uint256",
          "name": "positionId",
          "type": "uint256"
        }
      ],
      "name": "isLiquidatable",
      "outputs": [
        {
          "internalType": "bool",
          "name": "",
          "type": "bool"
        }
      ],
      "stateMutability": "nonpayable",
      "type": "function"
    },
    {
      "inputs": [],
      "name": "isRepayAllowed",
      "outputs": [
        {
          "internalType": "bool",
          "name": "",
          "type": "bool"
        }
      ],
      "stateMutability": "view",
      "type": "function"
    },
    {
      "inputs": [
        {
          "internalType": "address",
          "name": "spell",
          "type": "address"
        }
      ],
      "name": "isSpellWhitelisted",
      "outputs": [
        {
          "internalType": "bool",
          "name": "",
          "type": "bool"
        }
      ],
      "stateMutability": "view",
      "type": "function"
    },
    {
      "inputs": [
        {
          "internalType": "address",
          "name": "token",
          "type": "address"
        }
      ],
      "name": "isTokenWhitelisted",
      "outputs": [
        {
          "internalType": "bool",
          "name": "",
          "type": "bool"
        }
      ],
      "stateMutability": "view",
      "type": "function"
    },
    {
      "inputs": [],
      "name": "isWithdrawLendAllowed",
      "outputs": [
        {
          "internalType": "bool",
          "name": "",
          "type": "bool"
        }
      ],
      "stateMutability": "view",
      "type": "function"
    },
    {
      "inputs": [
        {
          "internalType": "address",
          "name": "token",
          "type": "address"
        }
      ],
      "name": "isWrappedTokenWhitelisted",
      "outputs": [
        {
          "internalType": "bool",
          "name": "",
          "type": "bool"
        }
      ],
      "stateMutability": "view",
      "type": "function"
    },
    {
      "inputs": [
        {
          "internalType": "address",
          "name": "token",
          "type": "address"
        },
        {
          "internalType": "uint256",
          "name": "amount",
          "type": "uint256"
        }
      ],
      "name": "lend",
      "outputs": [],
      "stateMutability": "nonpayable",
      "type": "function"
    },
    {
      "inputs": [
        {
          "internalType": "uint256",
          "name": "positionId",
          "type": "uint256"
        },
        {
          "internalType": "address",
          "name": "debtToken",
          "type": "address"
        },
        {
          "internalType": "uint256",
          "name": "amountCall",
          "type": "uint256"
        }
      ],
      "name": "liquidate",
      "outputs": [],
      "stateMutability": "nonpayable",
      "type": "function"
    },
    {
      "inputs": [
        {
          "internalType": "uint8",
          "name": "bankIndex",
          "type": "uint8"
        },
        {
          "internalType": "address",
          "name": "token",
          "type": "address"
        },
        {
          "internalType": "address",
          "name": "softVault",
          "type": "address"
        },
        {
          "internalType": "address",
          "name": "hardVault",
          "type": "address"
        },
        {
          "internalType": "uint256",
          "name": "liqThreshold",
          "type": "uint256"
        }
      ],
      "name": "modifyBank",
      "outputs": [],
      "stateMutability": "nonpayable",
      "type": "function"
    },
    {
      "inputs": [
        {
          "internalType": "address",
          "name": "",
          "type": "address"
        },
        {
          "internalType": "address",
          "name": "",
          "type": "address"
        },
        {
          "internalType": "uint256[]",
          "name": "",
          "type": "uint256[]"
        },
        {
          "internalType": "uint256[]",
          "name": "",
          "type": "uint256[]"
        },
        {
          "internalType": "bytes",
          "name": "",
          "type": "bytes"
        }
      ],
      "name": "onERC1155BatchReceived",
      "outputs": [
        {
          "internalType": "bytes4",
          "name": "",
          "type": "bytes4"
        }
      ],
      "stateMutability": "pure",
      "type": "function"
    },
    {
      "inputs": [
        {
          "internalType": "address",
          "name": "",
          "type": "address"
        },
        {
          "internalType": "address",
          "name": "",
          "type": "address"
        },
        {
          "internalType": "uint256",
          "name": "",
          "type": "uint256"
        },
        {
          "internalType": "uint256",
          "name": "",
          "type": "uint256"
        },
        {
          "internalType": "bytes",
          "name": "",
          "type": "bytes"
        }
      ],
      "name": "onERC1155Received",
      "outputs": [
        {
          "internalType": "bytes4",
          "name": "",
          "type": "bytes4"
        }
      ],
      "stateMutability": "pure",
      "type": "function"
    },
    {
      "inputs": [],
      "name": "owner",
      "outputs": [
        {
          "internalType": "address",
          "name": "",
          "type": "address"
        }
      ],
      "stateMutability": "view",
      "type": "function"
    },
    {
      "inputs": [],
      "name": "pendingOwner",
      "outputs": [
        {
          "internalType": "address",
          "name": "",
          "type": "address"
        }
      ],
      "stateMutability": "view",
      "type": "function"
    },
    {
      "inputs": [
        {
          "internalType": "address",
          "name": "collToken",
          "type": "address"
        },
        {
          "internalType": "uint256",
          "name": "collId",
          "type": "uint256"
        },
        {
          "internalType": "uint256",
          "name": "amountCall",
          "type": "uint256"
        }
      ],
      "name": "putCollateral",
      "outputs": [],
      "stateMutability": "nonpayable",
      "type": "function"
    },
    {
      "inputs": [],
      "name": "renounceOwnership",
      "outputs": [],
      "stateMutability": "nonpayable",
      "type": "function"
    },
    {
      "inputs": [
        {
          "internalType": "address",
          "name": "token",
          "type": "address"
        },
        {
          "internalType": "uint256",
          "name": "amountCall",
          "type": "uint256"
        }
      ],
      "name": "repay",
      "outputs": [],
      "stateMutability": "nonpayable",
      "type": "function"
    },
    {
      "inputs": [
        {
          "internalType": "uint256",
          "name": "bankStatus",
          "type": "uint256"
        }
      ],
      "name": "setBankStatus",
      "outputs": [],
      "stateMutability": "nonpayable",
      "type": "function"
    },
    {
      "inputs": [
        {
          "internalType": "bytes4",
          "name": "interfaceId",
          "type": "bytes4"
        }
      ],
      "name": "supportsInterface",
      "outputs": [
        {
          "internalType": "bool",
          "name": "",
          "type": "bool"
        }
      ],
      "stateMutability": "view",
      "type": "function"
    },
    {
      "inputs": [
        {
          "internalType": "uint256",
          "name": "amount",
          "type": "uint256"
        }
      ],
      "name": "takeCollateral",
      "outputs": [
        {
          "internalType": "uint256",
          "name": "",
          "type": "uint256"
        }
      ],
      "stateMutability": "nonpayable",
      "type": "function"
    },
    {
      "inputs": [
        {
          "internalType": "address",
          "name": "newOwner",
          "type": "address"
        }
      ],
      "name": "transferOwnership",
      "outputs": [],
      "stateMutability": "nonpayable",
      "type": "function"
    },
    {
      "inputs": [
        {
          "internalType": "address[]",
          "name": "tokens",
          "type": "address[]"
        },
        {
          "internalType": "bool",
          "name": "ok",
          "type": "bool"
        }
      ],
      "name": "whitelistERC1155",
      "outputs": [],
      "stateMutability": "nonpayable",
      "type": "function"
    },
    {
      "inputs": [
        {
          "internalType": "address[]",
          "name": "spells",
          "type": "address[]"
        },
        {
          "internalType": "bool[]",
          "name": "statuses",
          "type": "bool[]"
        }
      ],
      "name": "whitelistSpells",
      "outputs": [],
      "stateMutability": "nonpayable",
      "type": "function"
    },
    {
      "inputs": [
        {
          "internalType": "address[]",
          "name": "tokens",
          "type": "address[]"
        },
        {
          "internalType": "bool[]",
          "name": "statuses",
          "type": "bool[]"
        }
      ],
      "name": "whitelistTokens",
      "outputs": [],
      "stateMutability": "nonpayable",
      "type": "function"
    },
    {
      "inputs": [
        {
          "internalType": "address",
          "name": "token",
          "type": "address"
        },
        {
          "internalType": "uint256",
          "name": "shareAmount",
          "type": "uint256"
        }
      ],
      "name": "withdrawLend",
      "outputs": [],
      "stateMutability": "nonpayable",
      "type": "function"
    }
  ],
  "bytecode": "0x60806040523480156200001157600080fd5b506200001c62000022565b620000e3565b600054610100900460ff16156200008f5760405162461bcd60e51b815260206004820152602760248201527f496e697469616c697a61626c653a20636f6e747261637420697320696e697469604482015266616c697a696e6760c81b606482015260840160405180910390fd5b60005460ff90811614620000e1576000805460ff191660ff9081179091556040519081527f7f26b83ff96e1f2b6a682f133852f6798a09c465da95921460cefb38474024989060200160405180910390a15b565b614fca80620000f36000396000f3fe608060405234801561001057600080fd5b506004361061030c5760003560e01c80638da5cb5b1161019d578063bd83eb4c116100e9578063e6f089ec116100a2578063f2d638261161007c578063f2d638261461088b578063f2fde38b14610893578063f6ff6b12146108a6578063f70aedd9146108b957600080fd5b8063e6f089ec1461084b578063e73c4e251461085e578063f23a6e611461086b57600080fd5b8063bd83eb4c146107e8578063c0177bd5146107fb578063c0c53b8b1461080e578063c3f909d414610821578063d7ac71ff14610832578063e30c39781461083a57600080fd5b8063a2fb342d11610156578063b5af090f11610130578063b5af090f14610766578063b86a0aaa14610792578063b8fe1c42146107a5578063bc197c81146107ad57600080fd5b8063a2fb342d14610733578063aed023dc14610746578063b3c26e9c1461075957600080fd5b80638da5cb5b146106a85780639042dad5146106b957806394d95d05146106cc578063951c8a07146106df5780639548f37e146106f4578063961a1cd21461070757600080fd5b8063519f50991161025c57806376636722116102155780637b79413a116101ef5780637b79413a146105425780637cbdae6f14610671578063833b1fce146106845780638b00e1961461069557600080fd5b8063766367221461051657806379ba50971461052757806379bd1eac1461052f57600080fd5b8063519f50991461043157806362548d8c146104b5578063630dc7cb146104c85780636680ac0b146104e8578063710a9f68146104fb578063715018a61461050e57600080fd5b8063269a4bad116102c957806338bd678a116102a357806338bd678a146103d257806342ec4d91146103e557806349aa2e81146104115780634b8a35291461041e57600080fd5b8063269a4bad1461039f57806326e53350146103b2578063314568d9146103bf57600080fd5b806301ffc9a71461031157806303de63551461034a578063067f4ddd1461035f5780630b6b838614610371578063211a44431461037957806322867d781461038c575b600080fd5b61033561031f36600461455f565b6001600160e01b031916630271189760e51b1490565b60405190151581526020015b60405180910390f35b61035d6103583660046145d5565b6108c1565b005b609d545b604051908152602001610341565b609e54610363565b610335610387366004614641565b610b30565b61035d61039a36600461466f565b610b6c565b6103636103ad366004614641565b610cba565b609e546004161515610335565b61035d6103cd36600461469b565b610cee565b61035d6103e03660046147b3565b610f64565b6103356103f33660046147e8565b6001600160a01b0316600090815260a5602052604090205460ff1690565b609e546001161515610335565b61036361042c36600461466f565b610f9e565b61044461043f366004614641565b611226565b604051610341919060006101008201905060018060a01b03808451168352806020850151166020840152806040850151166040840152806060850151166060840152506080830151608083015260a083015160a083015260c083015160c083015260e083015160e083015292915050565b61035d6104c33660046145d5565b6112ac565b6104d06113b1565b6040516001600160a01b039091168152602001610341565b61035d6104f63660046147e8565b6113f5565b610363610509366004614805565b6114af565b61035d611714565b609a546001600160a01b03166104d0565b61035d611728565b61035d61053d3660046148b6565b6117a2565b6106066105503660046147e8565b6040805160e081018252600080825260208201819052918101829052606081018290526080810182905260a0810182905260c0810191909152506001600160a01b03908116600090815260a16020908152604091829020825160e081018452815460ff80821615158352610100820416938201939093526201000090920484169282019290925260018201548316606082015260028201549092166080830152600381015460a08301526004015460c082015290565b6040516103419190600060e08201905082511515825260ff6020840151166020830152604083015160018060a01b038082166040850152806060860151166060850152806080860151166080850152505060a083015160a083015260c083015160c083015292915050565b61035d61067f366004614641565b611b36565b609c546001600160a01b03166104d0565b6103636106a3366004614641565b611b74565b6033546001600160a01b03166104d0565b6103636106c7366004614641565b611cf2565b6103636106da366004614641565b611d88565b6106e7611f61565b60405161034191906148ee565b61035d61070236600461493b565b611fc3565b6103356107153660046147e8565b6001600160a01b0316600090815260a6602052604090205460ff1690565b61035d61074136600461466f565b612315565b61035d61075436600461499a565b61270d565b609e546008161515610335565b6103356107743660046147e8565b6001600160a01b0316600090815260a4602052604090205460ff1690565b6103636107a0366004614641565b6127d6565b609f54610363565b6107cf6107bb366004614a2e565b63bc197c8160e01b98975050505050505050565b6040516001600160e01b03199091168152602001610341565b6103636107f6366004614641565b612b3f565b610363610809366004614641565b612da0565b61035d61081c366004614aed565b612e5d565b609b546001600160a01b03166104d0565b609954610363565b6065546001600160a01b03166104d0565b61035d610859366004614b38565b613042565b609e546002161515610335565b6107cf610879366004614ba2565b63f23a6e6160e01b9695505050505050565b6104d06132ef565b61035d6108a13660046147e8565b613362565b61035d6108b436600461466f565b6133d3565b61044461376d565b6108c9613820565b8281146108e95760405163025e650f60e01b815260040160405180910390fd5b60005b83811015610b295782828281811061090657610906614c1e565b905060200201602081019061091b9190614c34565b80156109c65750609c546001600160a01b03166375151b6386868481811061094557610945614c1e565b905060200201602081019061095a91906147e8565b6040516001600160e01b031960e084901b1681526001600160a01b0390911660048201526024016020604051808303816000875af11580156109a0573d6000803e3d6000fd5b505050506040513d601f19601f820116820180604052508101906109c49190614c51565b155b15610a1c578484828181106109dd576109dd614c1e565b90506020020160208101906109f291906147e8565b60405163155fa42560e01b81526001600160a01b0390911660048201526024015b60405180910390fd5b828282818110610a2e57610a2e614c1e565b9050602002016020810190610a439190614c34565b60a46000878785818110610a5957610a59614c1e565b9050602002016020810190610a6e91906147e8565b6001600160a01b031681526020810191909152604001600020805460ff1916911515919091179055848482818110610aa857610aa8614c1e565b9050602002016020810190610abd91906147e8565b6001600160a01b03167f0a4552f1105808db6a44587c9ef0a7c4064bf620b9d843b514ad7365bd52239a848484818110610af957610af9614c1e565b9050602002016020810190610b0e9190614c34565b604051901515815260200160405180910390a26001016108ec565b5050505050565b600081815260a360209081526040808320600201546001600160a01b0316835260a1909152812060040154610b6483611cf2565b101592915050565b60001960995403610b9057604051633f795dab60e01b815260040160405180910390fd5b609a546001600160a01b03163314610bbd57604051632ee6aa4960e01b8152336004820152602401610a13565b600160985414610be05760405163a1422f6960e01b815260040160405180910390fd5b600260985581610bef816113f5565b6001600160a01b038316600090815260a46020526040902054839060ff16610c355760405163d0a6758b60e01b81526001600160a01b0382166004820152602401610a13565b609e54600216610c58576040516334b99c7760e11b815260040160405180910390fd5b600080610c68609954878761387a565b915091507f9181b2981704b7cf4448130f29cb5da1f41e0418d000e7f8880000b09bcbea4560995433888585604051610ca5959493929190614c6e565b60405180910390a15050600160985550505050565b600081815260a360205260408120600301546001600160a01b0316610cde816113f5565b610ce783612b3f565b9392505050565b60001960995403610d1257604051633f795dab60e01b815260040160405180910390fd5b609a546001600160a01b03163314610d3f57604051632ee6aa4960e01b8152336004820152602401610a13565b600160985414610d625760405163a1422f6960e01b815260040160405180910390fd5b60026098556001600160a01b038316600090815260a56020526040902054839060ff16610dad5760405163d0a6758b60e01b81526001600160a01b0382166004820152602401610a13565b609954600090815260a36020526040902060018101546001600160a01b038681169116141580610de1575083816005015414155b15610edc57609c54604051635afcdda160e11b81526001600160a01b039091169063b5f9bb4290610e189088908890600401614c9d565b6020604051808303816000875af1158015610e37573d6000803e3d6000fd5b505050506040513d601f19601f82011682018060405250810190610e5b9190614c51565b610e8357604051630f7ff61760e11b81526001600160a01b0386166004820152602401610a13565b600681015415610eb757600181015460405163a19d532160e01b81526001600160a01b039091166004820152602401610a13565b6001810180546001600160a01b0319166001600160a01b038716179055600581018490555b6000610ee98686866139bf565b905080826006016000828254610eff9190614ccc565b90915550506099548254604080519283526001600160a01b0391821660208401523390830152871660608201526080810186905260a081018290527fc5aca5cc1c259196b655af70661a6f72c1826c85b0c5c607d27da0a92a9408399060c001610ca5565b60005b8151811015610f9a57610f92828281518110610f8557610f85614c1e565b60200260200101516113f5565b600101610f67565b5050565b600060001960995403610fc457604051633f795dab60e01b815260040160405180910390fd5b609a546001600160a01b03163314610ff157604051632ee6aa4960e01b8152336004820152602401610a13565b6001609854146110145760405163a1422f6960e01b815260040160405180910390fd5b600260985582611023816113f5565b6001600160a01b038416600090815260a46020526040902054849060ff166110695760405163d0a6758b60e01b81526001600160a01b0382166004820152602401610a13565b609e5460011661108c57604051634d2a0d3160e11b815260040160405180910390fd5b6001600160a01b03808616600090815260a160209081526040808320609954845260a390925290912060038101549192909116156111045760038101546001600160a01b038881169116146110ff5760405163b488b80160e01b81526001600160a01b0388166004820152602401610a13565b611122565b6003810180546001600160a01b0319166001600160a01b0389161790555b6003820154600061113289613b1d565b905060008215611155576111508261114a858c614cdf565b90613ba1565b611157565b885b90508060000361117d57604051633fbab50360e01b8152600481018a9052602401610a13565b808560030160008282546111919190614ccc565b92505081905550808460070160008282546111ac9190614ccc565b909155506111bc90508a8a613bc4565b97506111d26001600160a01b038b16338a613d4d565b7fef18174796a5d2f91d51dc5e907a4d7867bbd6e800f6225168e0453d581d0dcd609954338c8c8560405161120b959493929190614c6e565b60405180910390a15050600160985550939695505050505050565b61122e6144f6565b50600090815260a3602090815260409182902082516101008101845281546001600160a01b039081168252600183015481169382019390935260028201548316938101939093526003810154909116606083015260048101546080830152600581015460a0830152600681015460c08301526007015460e082015290565b6112b4613820565b8281146112d45760405163025e650f60e01b815260040160405180910390fd5b60005b83811015610b295760008585838181106112f3576112f3614c1e565b905060200201602081019061130891906147e8565b6001600160a01b03160361132f5760405163538ba4f960e01b815260040160405180910390fd5b82828281811061134157611341614c1e565b90506020020160208101906113569190614c34565b60a6600087878581811061136c5761136c614c1e565b905060200201602081019061138191906147e8565b6001600160a01b031681526020810191909152604001600020805460ff19169115159190911790556001016112d7565b609954600090600181016113d8576040516316ceba0760e21b815260040160405180910390fd5b600090815260a360205260409020546001600160a01b0316919050565b6001600160a01b038116600090815260a160205260409020805460ff1661143a5760405163f6e98bbd60e01b81526001600160a01b0383166004820152602401610a13565b60028101546040516305eff7ef60e21b81523060048201526001600160a01b03909116906317bfdfbc906024016020604051808303816000875af1158015611486573d6000803e3d6000fd5b505050506040513d601f19601f820116820180604052508101906114aa9190614cf6565b505050565b60006001609754146114d45760405163a1422f6960e01b815260040160405180910390fd5b60026097556001600160a01b038316600090815260a6602052604090205460ff1661151d576040516358ba279960e01b81526001600160a01b0384166004820152602401610a13565b8360000361155e57609d805490600061153583614d0f565b90915550600081815260a36020526040902080546001600160a01b0319163317905593506115c3565b609d5484106115835760405163085cfa3b60e11b815260048101859052602401610a13565b600084815260a360205260409020546001600160a01b031633146115c357604051635a08b9bd60e11b815260048101859052336024820152604401610a13565b6099849055609a80546001600160a01b0319166001600160a01b03851690811790915560405160009182916115f9908690614d4c565b6000604051808303816000865af19150503d8060008114611636576040519150601f19603f3d011682016040523d82523d6000602084013e61163b565b606091505b50915091508161168d578051156116555780518082602001fd5b60405162461bcd60e51b815260206004820152600d60248201526c1898590818d85cdd0818d85b1b609a1b6044820152606401610a13565b61169686610b30565b156116b45760405163399510ad60e21b815260040160405180910390fd5b600019609955609a80546001600160a01b0319166001179055604080518781523360208201527f060c8d1a634a03980e75eb63c749a805b9b8b4b3dfa32f1ace3889aea1e460d1910160405180910390a150506001609755509192915050565b61171c613820565b6117266000613da3565b565b60655433906001600160a01b031681146117965760405162461bcd60e51b815260206004820152602960248201527f4f776e61626c6532537465703a2063616c6c6572206973206e6f7420746865206044820152683732bb9037bbb732b960b91b6064820152608401610a13565b61179f81613da3565b50565b6001609754146117c55760405163a1422f6960e01b815260040160405180910390fd5b6002609755816117d4816113f5565b609e546002166117f7576040516334b99c7760e11b815260040160405180910390fd5b8160000361181857604051630f6fa54560e41b815260040160405180910390fd5b61182184610b30565b61184157604051637ac7541560e01b815260048101859052602401610a13565b600084815260a3602090815260408083206002808201546001600160a01b03908116865260a1855294839020835160e081018552815460ff808216151583526101008204169682019690965262010000909504861693850193909352600183810154861660608601529083015485166080850152600383015460a085015260049092015460c0840152908101549092166118f157604051630542b02f60e01b815260048101879052602401610a13565b613840609f546119019190614ccc565b42101561192157604051630ccee6ef60e21b815260040160405180910390fd5b600782015460008061193489898961387a565b9150915060008382876006015461194b9190614cdf565b6119559190614d68565b905060008483886004015461196a9190614cdf565b6119749190614d68565b90508187600601600082825461198a9190614d8a565b92505081905550808760040160008282546119a59190614d8a565b909155505060018701546005880154604051637921219560e11b81526001600160a01b039092169163f242432a916119e591309133918890600401614d9d565b600060405180830381600087803b1580156119ff57600080fd5b505af1158015611a13573d6000803e3d6000fd5b5050506002880154611a2e91506001600160a01b0316613dbc565b15611a51576060860151611a4c906001600160a01b03163383613d4d565b611ac1565b60408087015160028901549151637921219560e11b81526001600160a01b039182169263f242432a92611a8e923092339216908790600401614d9d565b600060405180830381600087803b158015611aa857600080fd5b505af1158015611abc573d6000803e3d6000fd5b505050505b604080518c81523360208201526001600160a01b038c1681830152606081018690526080810185905260a0810184905260c0810183905290517fe226831b9bcd388aeb7302d8e31fe0ffea78e95ff8253828c9e5ad4221ba401d9181900360e00190a150506001609755505050505050505050565b611b3e613820565b6000611b4e609e54600216151590565b609e839055905060028216151581158015611b665750805b156114aa5742609f55505050565b600060001960995403611b9a57604051633f795dab60e01b815260040160405180910390fd5b609a546001600160a01b03163314611bc757604051632ee6aa4960e01b8152336004820152602401610a13565b600160985414611bea5760405163a1422f6960e01b815260040160405180910390fd5b6002609855609954600090815260a36020526040902060018301611c1057806006015492505b82816006016000828254611c249190614d8a565b909155505060018101546005820154604051637921219560e11b81526001600160a01b039092169163f242432a91611c6491309133918990600401614d9d565b600060405180830381600087803b158015611c7e57600080fd5b505af1158015611c92573d6000803e3d6000fd5b5050609954600184015460058501546040517fa61ee435e629eecbcb5df77d05e802c71092439cdbeb225d95305f5a159755a39550611ce0945033926001600160a01b031691908990614c6e565b60405180910390a15050600160985590565b600080611cfe836127d6565b90506000611d0b84612da0565b90506000611d1885611d88565b905080158015611d26575082155b8015611d30575081155b80611d3b5750818310155b15611d495760009350611d80565b80600003611d5b576127109350611d80565b80612710611d698585614d8a565b611d739190614cdf565b611d7d9190614d68565b93505b505050919050565b600081815260a36020908152604080832081516101008101835281546001600160a01b0390811682526001830154811694820194909452600282015484169281018390526003820154909316606084015260048101546080840152600581015460a0840152600681015460c08401526007015460e08301528290611e0b90613dbc565b15611eda57670de0b6b3a7640000826080015160a1600085604001516001600160a01b03166001600160a01b0316815260200190815260200160002060020160009054906101000a90046001600160a01b03166001600160a01b031663182df0f56040518163ffffffff1660e01b8152600401602060405180830381865afa158015611e9b573d6000803e3d6000fd5b505050506040513d601f19601f82011682018060405250810190611ebf9190614cf6565b611ec99190614cdf565b611ed39190614d68565b9050611ee1565b5060808101515b609c546040808401519051636d34cd1760e01b81526001600160a01b0390921691636d34cd1791611f16918590600401614c9d565b6020604051808303816000875af1158015611f35573d6000803e3d6000fd5b505050506040513d601f19601f82011682018060405250810190611f599190614cf6565b949350505050565b606060a0805480602002602001604051908101604052809291908181526020018280548015611fb957602002820191906000526020600020905b81546001600160a01b03168152600190910190602001808311611f9b575b5050505050905090565b611fcb613820565b6001600160a01b038416600090815260a46020526040902054849060ff166120115760405163d0a6758b60e01b81526001600160a01b0382166004820152602401610a13565b6001600160a01b038416158061202e57506001600160a01b038316155b1561204c5760405163538ba4f960e01b815260040160405180910390fd5b61271082111561207257604051638928b5e960e01b815260048101839052602401610a13565b611f4082101561209857604051635f85557960e01b815260048101839052602401610a13565b6001600160a01b03808616600090815260a16020908152604080832081516390250dcf60e01b8152915190948916926390250dcf92600480820193918290030181865afa1580156120ed573d6000803e3d6000fd5b505050506040513d601f19601f820116820180604052508101906121119190614dd5565b6001600160a01b038116600090815260a2602052604090205490915060ff161561214e57604051632f53a8bb60e01b815260040160405180910390fd5b815460ff161561217157604051630c5c209360e11b815260040160405180910390fd5b60a054610100811061219657604051638aaff22360e01b815260040160405180910390fd5b6001600160a01b03828116600081815260a26020526040908190208054600160ff19909116811790915586546002880180546001600160a01b0319908116909517905587820180549094168c86161790935561ffff1990921661010060ff86160217821762010000600160b01b03191662010000938a169384021786556004808701899055905163a22cb46560e01b8152908101839052602481019190915263a22cb46590604401600060405180830381600087803b15801561225857600080fd5b505af115801561226c573d6000803e3d6000fd5b505060a080546001810182556000919091527f78fdc8d422c49ced035a9edf18d00d3c6a8d81df210f3e5e448e045e77b41e880180546001600160a01b0319166001600160a01b038c81169182179092556040805191825286831660208301528b83169082015290891660608201527f110059ef9db762501f341cb35fc60ec6c4667be05f312dc112683396aff872579250608001905060405180910390a15050505050505050565b6000196099540361233957604051633f795dab60e01b815260040160405180910390fd5b609a546001600160a01b0316331461236657604051632ee6aa4960e01b8152336004820152602401610a13565b6001609854146123895760405163a1422f6960e01b815260040160405180910390fd5b600260985581612398816113f5565b6001600160a01b038316600090815260a46020526040902054839060ff166123de5760405163d0a6758b60e01b81526001600160a01b0382166004820152602401610a13565b609e54600416612401576040516301d9569360e61b815260040160405180910390fd5b609954600090815260a3602090815260408083206001600160a01b03808916855260a190935292206002830154909116156124765760028201546001600160a01b038781169116146124715760405163a1a006a360e01b81526001600160a01b0387166004820152602401610a13565b612494565b6002820180546001600160a01b0319166001600160a01b0388161790555b600061249e6132ef565b83549091506124bb906001600160a01b0389811691163089613e4a565b6124cf6001600160a01b0388168288613e82565b60405163b300e95560e01b81526001600160a01b0382169063b300e955906124fd908a908a90600401614c9d565b6020604051808303816000875af115801561251c573d6000803e3d6000fd5b505050506040513d601f19601f820116820180604052508101906125409190614cf6565b955061254b87613dbc565b156125fb57600182015461256c906001600160a01b03898116911688613e82565b600182015460405163b6b55f2560e01b8152600481018890526001600160a01b039091169063b6b55f25906024016020604051808303816000875af11580156125b9573d6000803e3d6000fd5b505050506040513d601f19601f820116820180604052508101906125dd9190614cf6565b8360040160008282546125f09190614ccc565b909155506126ac9050565b815461261a906001600160a01b03898116916201000090041688613e82565b81546040516311f9fbc960e21b8152620100009091046001600160a01b0316906347e7ef2490612650908a908a90600401614c9d565b6020604051808303816000875af115801561266f573d6000803e3d6000fd5b505050506040513d601f19601f820116820180604052508101906126939190614cf6565b8360040160008282546126a69190614ccc565b90915550505b609954604080519182523360208301526001600160a01b03891690820152606081018790527f77c494147cc26c9ccb1f3f1926fb5bffa128633d935fdf7147dff0da6f740db4906080015b60405180910390a1505060016098555050505050565b612715613820565b60005b82518110156114aa57600083828151811061273557612735614c1e565b6020026020010151905060006001600160a01b0316816001600160a01b0316036127725760405163538ba4f960e01b815260040160405180910390fd5b6001600160a01b038116600081815260a56020908152604091829020805460ff191687151590811790915591519182527fec6817678ecd1396c1046a13a026051f8208d63a26559f6d0e51ea34f0d0d09d910160405180910390a250600101612718565b600081815260a36020908152604080832081516101008101835281546001600160a01b039081168252600183015481169482019490945260028201548416928101929092526003810154909216606082015260048201546080820152600582015460a0820152600682015460c0820181905260079092015460e08201529082036128635750600092915050565b60208101516001600160a01b031661289157604051630542b02f60e01b815260048101849052602401610a13565b609c54602082015160a083015160c08401516040516001621852b960e21b031981526001600160a01b03938416600482015260248101929092526044820152600092919091169063ff9eb51c906064016020604051808303816000875af1158015612900573d6000803e3d6000fd5b505050506040513d601f19601f820116820180604052508101906129249190614cf6565b9050600080600084602001516001600160a01b0316635ef819ce8660a001518760c001516040518363ffffffff1660e01b815260040161296e929190918252602082015260400190565b6000604051808303816000875af115801561298d573d6000803e3d6000fd5b505050506040513d6000823e601f3d908101601f191682016040526129b59190810190614e51565b9150915060005b8251811015612b2957609c5483516001600160a01b03909116906375151b63908590849081106129ee576129ee614c1e565b60200260200101516040518263ffffffff1660e01b8152600401612a2191906001600160a01b0391909116815260200190565b6020604051808303816000875af1158015612a40573d6000803e3d6000fd5b505050506040513d601f19601f82011682018060405250810190612a649190614c51565b15612b2157609c5483516001600160a01b0390911690636d34cd1790859084908110612a9257612a92614c1e565b6020026020010151848481518110612aac57612aac614c1e565b60200260200101516040518363ffffffff1660e01b8152600401612ad1929190614c9d565b6020604051808303816000875af1158015612af0573d6000803e3d6000fd5b505050506040513d601f19601f82011682018060405250810190612b149190614cf6565b612b1e9085614ccc565b93505b6001016129bc565b50612b348385614ccc565b979650505050505050565b60008060a36000848152602001908152602001600020604051806101000160405290816000820160009054906101000a90046001600160a01b03166001600160a01b03166001600160a01b031681526020016001820160009054906101000a90046001600160a01b03166001600160a01b03166001600160a01b031681526020016002820160009054906101000a90046001600160a01b03166001600160a01b03166001600160a01b031681526020016003820160009054906101000a90046001600160a01b03166001600160a01b03166001600160a01b031681526020016004820154815260200160058201548152602001600682015481526020016007820154815250509050600060a1600083606001516001600160a01b03166001600160a01b031681526020019081526020016000206040518060e00160405290816000820160009054906101000a900460ff161515151581526020016000820160019054906101000a900460ff1660ff1660ff1681526020016000820160029054906101000a90046001600160a01b03166001600160a01b03166001600160a01b031681526020016001820160009054906101000a90046001600160a01b03166001600160a01b03166001600160a01b031681526020016002820160009054906101000a90046001600160a01b03166001600160a01b03166001600160a01b031681526020016003820154815260200160048201548152505090508160e0015160001480612d6d575060a0810151155b15612d7c575060009392505050565b611f598160a00151612d918460600151613b1d565b8460e0015161114a9190614cdf565b600081815260a36020908152604080832081516101008101835281546001600160a01b039081168252600183015481169482019490945260028201548416928101929092526003810154909216606082015260048201546080820152600582015460a0820152600682015460c082015260079091015460e082015281612e2584612b3f565b609c546060840151604051636d34cd1760e01b81529293506001600160a01b0390911691636d34cd1791611f16918590600401614c9d565b600054610100900460ff1615808015612e7d5750600054600160ff909116105b80612e975750303b158015612e97575060005460ff166001145b612efa5760405162461bcd60e51b815260206004820152602e60248201527f496e697469616c697a61626c653a20636f6e747261637420697320616c72656160448201526d191e481a5b9a5d1a585b1a5e995960921b6064820152608401610a13565b6000805460ff191660011790558015612f1d576000805461ff0019166101001790555b612f25613ea3565b612f2e82613da3565b6001600160a01b0384161580612f4b57506001600160a01b038316155b15612f695760405163538ba4f960e01b815260040160405180910390fd5b600160978190556098819055600019609955609a80546001600160a01b03199081168317909155609b805482166001600160a01b0387811691909117909155609c8054909216908716908117909155609d91909155600f609e556040519081527fd3b5d1e0ffaeff528910f3663f0adace7694ab8241d58e17a91351ced2e080319060200160405180910390a1801561303c576000805461ff0019169055604051600181527f7f26b83ff96e1f2b6a682f133852f6798a09c465da95921460cefb38474024989060200160405180910390a15b50505050565b61304a613820565b6001600160a01b038416600090815260a46020526040902054849060ff166130905760405163d0a6758b60e01b81526001600160a01b0382166004820152602401610a13565b6001600160a01b03841615806130ad57506001600160a01b038316155b156130cb5760405163538ba4f960e01b815260040160405180910390fd5b6127108211156130f157604051638928b5e960e01b815260048101839052602401610a13565b611f4082101561311757604051635f85557960e01b815260048101839052602401610a13565b60a05460ff8716106131415760405163c2bdb01f60e01b815260ff87166004820152602401610a13565b600060a08760ff168154811061315957613159614c1e565b60009182526020808320909101546001600160a01b0390811680845260a18352604080852081516390250dcf60e01b815291519296509493928a16926390250dcf926004808401938290030181865afa1580156131ba573d6000803e3d6000fd5b505050506040513d601f19601f820116820180604052508101906131de9190614dd5565b6002830180546001600160a01b03199081166001600160a01b0384811691909117909255600180860180549092168b841617909155845462010000600160b01b03191662010000928a16928302178555600480860189905560405163a22cb46560e01b815290810183905260248101919091529192509063a22cb46590604401600060405180830381600087803b15801561327857600080fd5b505af115801561328c573d6000803e3d6000fd5b5050604080516001600160a01b038c8116825285811660208301528b8116828401528a16606082015290517f8abb302d7761e12330e8657a137535793e68712cf7021b87d1016e705e3a27159350908190036080019150a1505050505050505050565b609b546040805163796b1c1360e11b815290516000926001600160a01b03169163f2d638269160048083019260209291908290030181865afa158015613339573d6000803e3d6000fd5b505050506040513d601f19601f8201168201806040525081019061335d9190614dd5565b905090565b61336a613820565b606580546001600160a01b0383166001600160a01b0319909116811790915561339b6033546001600160a01b031690565b6001600160a01b03167f38d16b8cac22d99fc7c124b9cd0de2d3fa1faef420bfe791d8c362d765e2270060405160405180910390a350565b600019609954036133f757604051633f795dab60e01b815260040160405180910390fd5b609a546001600160a01b0316331461342457604051632ee6aa4960e01b8152336004820152602401610a13565b6001609854146134475760405163a1422f6960e01b815260040160405180910390fd5b600260985581613456816113f5565b609e546008166134795760405163294b917560e11b815260040160405180910390fd5b609954600090815260a3602090815260408083206001600160a01b0380881680865260a1855294839020835160e081018552815460ff80821615158352610100820416968201969096526201000090950482169385019390935260018301548116606085015260028084015482166080860152600384015460a086015260049093015460c0850152918101549093911614613532576040516356e6e56f60e11b81526001600160a01b0386166004820152602401610a13565b600019840361354357816004015493505b600061354e86613dbc565b156135e557606082015161356d906001600160a01b0381169087613e82565b6060820151604051632e1a7d4d60e01b8152600481018790526001600160a01b0390911690632e1a7d4d906024016020604051808303816000875af11580156135ba573d6000803e3d6000fd5b505050506040513d601f19601f820116820180604052508101906135de9190614cf6565b905061365d565b81604001516001600160a01b031663f3fef3a387876040518363ffffffff1660e01b8152600401613617929190614c9d565b6020604051808303816000875af1158015613636573d6000803e3d6000fd5b505050506040513d601f19601f8201168201806040525081019061365a9190614cf6565b90505b60006136676132ef565b90508584600401600082825461367d9190614d8a565b9091555061369790506001600160a01b0388168284613e82565b604051639860450b60e01b81526001600160a01b03821690639860450b906136c5908a908690600401614c9d565b6020604051808303816000875af11580156136e4573d6000803e3d6000fd5b505050506040513d601f19601f820116820180604052508101906137089190614cf6565b915061371e6001600160a01b0388163384613d4d565b609954604080519182523360208301526001600160a01b03891690820152606081018390527ff1e67ca791a03e6154f447c6adbce87374be012e6cd4e6cd875984ca7d033f49906080016126f7565b6137756144f6565b6000196099540361379f5760995460405163085cfa3b60e11b8152600401610a1391815260200190565b50609954600090815260a3602090815260409182902082516101008101845281546001600160a01b039081168252600183015481169382019390935260028201548316938101939093526003810154909116606083015260048101546080830152600581015460a0830152600681015460c08301526007015460e082015290565b6033546001600160a01b031633146117265760405162461bcd60e51b815260206004820181905260248201527f4f776e61626c653a2063616c6c6572206973206e6f7420746865206f776e65726044820152606401610a13565b6001600160a01b03808316600081815260a16020908152604080832088845260a39092528220600381015492948594929391929116146138d85760405163b488b80160e01b81526001600160a01b0387166004820152602401610a13565b600382015460006138e888613b1d565b600784015490915060006139008461114a8585614cdf565b90508089111561390e578098505b6139188a8a613ed2565b985060006139268b8b613fd6565b90508181111561395257604051620a043960e71b81526004810182905260248101839052604401610a13565b600082821461397557846139668784614cdf565b6139709190614d68565b613977565b835b90508088600301600082825461398d9190614d8a565b92505081905550808760070160008282546139a89190614d8a565b90915550919d909c509a5050505050505050505050565b600080846001600160a01b031662fdd58e30866040518363ffffffff1660e01b81526004016139ef929190614c9d565b602060405180830381865afa158015613a0c573d6000803e3d6000fd5b505050506040513d601f19601f82011682018060405250810190613a309190614cf6565b604051637921219560e11b81529091506001600160a01b0386169063f242432a90613a65903390309089908990600401614d9d565b600060405180830381600087803b158015613a7f57600080fd5b505af1158015613a93573d6000803e3d6000fd5b5050604051627eeac760e11b8152600092506001600160a01b038816915062fdd58e90613ac69030908990600401614c9d565b602060405180830381865afa158015613ae3573d6000803e3d6000fd5b505050506040513d601f19601f82011682018060405250810190613b079190614cf6565b9050613b138282614d8a565b9695505050505050565b6001600160a01b03818116600090815260a160205260408082206002015490516395dd919360e01b8152306004820152919216906395dd919390602401602060405180830381865afa158015613b77573d6000803e3d6000fd5b505050506040513d601f19601f82011682018060405250810190613b9b9190614cf6565b92915050565b6000816001613bb08286614ccc565b613bba9190614d8a565b610ce79190614d68565b6001600160a01b03828116600081815260a160205260408082206002015490516370a0823160e01b81523060048201529193169185918491906370a0823190602401602060405180830381865afa158015613c23573d6000803e3d6000fd5b505050506040513d601f19601f82011682018060405250810190613c479190614cf6565b60405163317afabb60e21b8152600481018790529091506001600160a01b0384169063c5ebeaec906024016020604051808303816000875af1158015613c91573d6000803e3d6000fd5b505050506040513d601f19601f82011682018060405250810190613cb59190614cf6565b15613cd6576040516333dc11b360e01b815260048101869052602401610a13565b6040516370a0823160e01b81523060048201526000906001600160a01b038416906370a0823190602401602060405180830381865afa158015613d1d573d6000803e3d6000fd5b505050506040513d601f19601f82011682018060405250810190613d419190614cf6565b9050612b348282614d8a565b6114aa8363a9059cbb60e01b8484604051602401613d6c929190614c9d565b60408051601f198184030181529190526020810180516001600160e01b03166001600160e01b0319909316929092179091526140b3565b606580546001600160a01b031916905561179f81614188565b6001600160a01b03808216600081815260a160209081526040808320600101548151631dce337960e31b815291519395169263ee719bc8926004808401939192918290030181865afa158015613e16573d6000803e3d6000fd5b505050506040513d601f19601f82011682018060405250810190613e3a9190614dd5565b6001600160a01b03161492915050565b6040516001600160a01b038085166024830152831660448201526064810182905261303c9085906323b872dd60e01b90608401613d6c565b613e8b836141da565b6114aa576114aa6001600160a01b0384168383614213565b600054610100900460ff16613eca5760405162461bcd60e51b8152600401610a1390614f16565b6117266142ac565b6040516370a0823160e01b815230600482015260009081906001600160a01b038516906370a0823190602401602060405180830381865afa158015613f1b573d6000803e3d6000fd5b505050506040513d601f19601f82011682018060405250810190613f3f9190614cf6565b9050613f566001600160a01b038516333086613e4a565b6040516370a0823160e01b81523060048201526000906001600160a01b038616906370a0823190602401602060405180830381865afa158015613f9d573d6000803e3d6000fd5b505050506040513d601f19601f82011682018060405250810190613fc19190614cf6565b9050613fcd8282614d8a565b95945050505050565b6001600160a01b03808316600081815260a1602052604081206002015490921690614002908285613e82565b600061400d85613b1d565b60405163073a938160e11b8152600481018690529091506001600160a01b03831690630e752702906024016020604051808303816000875af1158015614057573d6000803e3d6000fd5b505050506040513d601f19601f8201168201806040525081019061407b9190614cf6565b1561409c57604051631975572360e01b815260048101859052602401610a13565b60006140a786613b1d565b9050613b138183614d8a565b6000614108826040518060400160405280602081526020017f5361666545524332303a206c6f772d6c6576656c2063616c6c206661696c6564815250856001600160a01b03166142dc9092919063ffffffff16565b90508051600014806141295750808060200190518101906141299190614c51565b6114aa5760405162461bcd60e51b815260206004820152602a60248201527f5361666545524332303a204552433230206f7065726174696f6e20646964206e6044820152691bdd081cdd58d8d9595960b21b6064820152608401610a13565b603380546001600160a01b038381166001600160a01b0319831681179093556040519116919082907f8be0079c531659141344cd1fd0a4f28419497f9722a3daafe3b4186f6b6457e090600090a35050565b60006001600160a01b0382161580613b9b57506001600160a01b03821673eeeeeeeeeeeeeeeeeeeeeeeeeeeeeeeeeeeeeeee1492915050565b600063095ea7b360e01b8383604051602401614230929190614c9d565b60408051601f198184030181529190526020810180516001600160e01b03166001600160e01b031990931692909217909152905061426e84826142eb565b61303c576040516001600160a01b0384166024820152600060448201526142a290859063095ea7b360e01b90606401613d6c565b61303c84826140b3565b600054610100900460ff166142d35760405162461bcd60e51b8152600401610a1390614f16565b61172633613da3565b6060611f59848460008561438d565b6000806000846001600160a01b0316846040516143089190614d4c565b6000604051808303816000865af19150503d8060008114614345576040519150601f19603f3d011682016040523d82523d6000602084013e61434a565b606091505b50915091508180156143745750805115806143745750808060200190518101906143749190614c51565b8015613fcd57506001600160a01b0385163b1515613fcd565b6060824710156143ee5760405162461bcd60e51b815260206004820152602660248201527f416464726573733a20696e73756666696369656e742062616c616e636520666f6044820152651c8818d85b1b60d21b6064820152608401610a13565b600080866001600160a01b0316858760405161440a9190614d4c565b60006040518083038185875af1925050503d8060008114614447576040519150601f19603f3d011682016040523d82523d6000602084013e61444c565b606091505b5091509150612b3487838387606083156144c75782516000036144c0576001600160a01b0385163b6144c05760405162461bcd60e51b815260206004820152601d60248201527f416464726573733a2063616c6c20746f206e6f6e2d636f6e74726163740000006044820152606401610a13565b5081611f59565b611f5983838151156144dc5781518083602001fd5b8060405162461bcd60e51b8152600401610a139190614f61565b60405180610100016040528060006001600160a01b0316815260200160006001600160a01b0316815260200160006001600160a01b0316815260200160006001600160a01b03168152602001600081526020016000815260200160008152602001600081525090565b60006020828403121561457157600080fd5b81356001600160e01b031981168114610ce757600080fd5b60008083601f84011261459b57600080fd5b50813567ffffffffffffffff8111156145b357600080fd5b6020830191508360208260051b85010111156145ce57600080fd5b9250929050565b600080600080604085870312156145eb57600080fd5b843567ffffffffffffffff8082111561460357600080fd5b61460f88838901614589565b9096509450602087013591508082111561462857600080fd5b5061463587828801614589565b95989497509550505050565b60006020828403121561465357600080fd5b5035919050565b6001600160a01b038116811461179f57600080fd5b6000806040838503121561468257600080fd5b823561468d8161465a565b946020939093013593505050565b6000806000606084860312156146b057600080fd5b83356146bb8161465a565b95602085013595506040909401359392505050565b634e487b7160e01b600052604160045260246000fd5b604051601f8201601f1916810167ffffffffffffffff8111828210171561470f5761470f6146d0565b604052919050565b600067ffffffffffffffff821115614731576147316146d0565b5060051b60200190565b600082601f83011261474c57600080fd5b8135602061476161475c83614717565b6146e6565b8083825260208201915060208460051b87010193508684111561478357600080fd5b602086015b848110156147a857803561479b8161465a565b8352918301918301614788565b509695505050505050565b6000602082840312156147c557600080fd5b813567ffffffffffffffff8111156147dc57600080fd5b611f598482850161473b565b6000602082840312156147fa57600080fd5b8135610ce78161465a565b60008060006060848603121561481a57600080fd5b8335925060208085013561482d8161465a565b9250604085013567ffffffffffffffff8082111561484a57600080fd5b818701915087601f83011261485e57600080fd5b813581811115614870576148706146d0565b614882601f8201601f191685016146e6565b9150808252888482850101111561489857600080fd5b80848401858401376000848284010152508093505050509250925092565b6000806000606084860312156148cb57600080fd5b8335925060208401356148dd8161465a565b929592945050506040919091013590565b6020808252825182820181905260009190848201906040850190845b8181101561492f5783516001600160a01b03168352928401929184019160010161490a565b50909695505050505050565b6000806000806080858703121561495157600080fd5b843561495c8161465a565b9350602085013561496c8161465a565b9250604085013561497c8161465a565b9396929550929360600135925050565b801515811461179f57600080fd5b600080604083850312156149ad57600080fd5b823567ffffffffffffffff8111156149c457600080fd5b6149d08582860161473b565b92505060208301356149e18161498c565b809150509250929050565b60008083601f8401126149fe57600080fd5b50813567ffffffffffffffff811115614a1657600080fd5b6020830191508360208285010111156145ce57600080fd5b60008060008060008060008060a0898b031215614a4a57600080fd5b8835614a558161465a565b97506020890135614a658161465a565b9650604089013567ffffffffffffffff80821115614a8257600080fd5b614a8e8c838d01614589565b909850965060608b0135915080821115614aa757600080fd5b614ab38c838d01614589565b909650945060808b0135915080821115614acc57600080fd5b50614ad98b828c016149ec565b999c989b5096995094979396929594505050565b600080600060608486031215614b0257600080fd5b8335614b0d8161465a565b92506020840135614b1d8161465a565b91506040840135614b2d8161465a565b809150509250925092565b600080600080600060a08688031215614b5057600080fd5b853560ff81168114614b6157600080fd5b94506020860135614b718161465a565b93506040860135614b818161465a565b92506060860135614b918161465a565b949793965091946080013592915050565b60008060008060008060a08789031215614bbb57600080fd5b8635614bc68161465a565b95506020870135614bd68161465a565b94506040870135935060608701359250608087013567ffffffffffffffff811115614c0057600080fd5b614c0c89828a016149ec565b979a9699509497509295939492505050565b634e487b7160e01b600052603260045260246000fd5b600060208284031215614c4657600080fd5b8135610ce78161498c565b600060208284031215614c6357600080fd5b8151610ce78161498c565b9485526001600160a01b0393841660208601529190921660408401526060830191909152608082015260a00190565b6001600160a01b03929092168252602082015260400190565b634e487b7160e01b600052601160045260246000fd5b80820180821115613b9b57613b9b614cb6565b8082028115828204841417613b9b57613b9b614cb6565b600060208284031215614d0857600080fd5b5051919050565b600060018201614d2157614d21614cb6565b5060010190565b60005b83811015614d43578181015183820152602001614d2b565b50506000910152565b60008251614d5e818460208701614d28565b9190910192915050565b600082614d8557634e487b7160e01b600052601260045260246000fd5b500490565b81810381811115613b9b57613b9b614cb6565b6001600160a01b0394851681529290931660208301526040820152606081019190915260a06080820181905260009082015260c00190565b600060208284031215614de757600080fd5b8151610ce78161465a565b600082601f830112614e0357600080fd5b81516020614e1361475c83614717565b8083825260208201915060208460051b870101935086841115614e3557600080fd5b602086015b848110156147a85780518352918301918301614e3a565b60008060408385031215614e6457600080fd5b825167ffffffffffffffff80821115614e7c57600080fd5b818501915085601f830112614e9057600080fd5b81516020614ea061475c83614717565b82815260059290921b84018101918181019089841115614ebf57600080fd5b948201945b83861015614ee6578551614ed78161465a565b82529482019490820190614ec4565b91880151919650909350505080821115614eff57600080fd5b50614f0c85828601614df2565b9150509250929050565b6020808252602b908201527f496e697469616c697a61626c653a20636f6e7472616374206973206e6f74206960408201526a6e697469616c697a696e6760a81b606082015260800190565b6020815260008251806020840152614f80816040850160208701614d28565b601f01601f1916919091016040019291505056fea264697066735822122086ab10cfcaf1195450532fbfd5b44fe3942910524e8928315b572169d1664b9364736f6c63430008160033",
  "linkReferences": {},
  "deployedLinkReferences": {}
}