{
  "_format": "hh-sol-artifact-1",
  "contractName": "CurveStableOracle",
  "sourceName": "contracts/oracle/CurveStableOracle.sol",
  "abi": [
    {
      "inputs": [],
      "stateMutability": "nonpayable",
      "type": "constructor"
    },
    {
      "inputs": [
        {
          "internalType": "address",
          "name": "lp",
          "type": "address"
        }
      ],
      "name": "ORACLE_NOT_SUPPORT_LP",
      "type": "error"
    },
    {
      "inputs": [],
      "name": "ZERO_ADDRESS",
      "type": "error"
    },
    {
      "anonymous": false,
      "inputs": [
        {
          "indexed": false,
          "internalType": "uint8",
          "name": "version",
          "type": "uint8"
        }
      ],
      "name": "Initialized",
      "type": "event"
    },
    {
      "anonymous": false,
      "inputs": [
        {
          "indexed": true,
          "internalType": "address",
          "name": "previousOwner",
          "type": "address"
        },
        {
          "indexed": true,
          "internalType": "address",
          "name": "newOwner",
          "type": "address"
        }
      ],
      "name": "OwnershipTransferStarted",
      "type": "event"
    },
    {
      "anonymous": false,
      "inputs": [
        {
          "indexed": true,
          "internalType": "address",
          "name": "previousOwner",
          "type": "address"
        },
        {
          "indexed": true,
          "internalType": "address",
          "name": "newOwner",
          "type": "address"
        }
      ],
      "name": "OwnershipTransferred",
      "type": "event"
    },
    {
      "anonymous": false,
      "inputs": [
        {
          "indexed": false,
          "internalType": "address",
          "name": "token",
          "type": "address"
        }
      ],
      "name": "RegisterLpToken",
      "type": "event"
    },
    {
      "inputs": [],
      "name": "acceptOwnership",
      "outputs": [],
      "stateMutability": "nonpayable",
      "type": "function"
    },
    {
      "inputs": [],
      "name": "getAddressProvider",
      "outputs": [
        {
          "internalType": "contract ICurveAddressProvider",
          "name": "",
          "type": "address"
        }
      ],
      "stateMutability": "view",
      "type": "function"
    },
    {
      "inputs": [],
      "name": "getBaseOracle",
      "outputs": [
        {
          "internalType": "contract IBaseOracle",
          "name": "",
          "type": "address"
        }
      ],
      "stateMutability": "view",
      "type": "function"
    },
    {
      "inputs": [
        {
          "internalType": "address",
          "name": "crvLp",
          "type": "address"
        }
      ],
      "name": "getPoolInfo",
      "outputs": [
        {
          "internalType": "address",
          "name": "pool",
          "type": "address"
        },
        {
          "internalType": "address[]",
          "name": "coins",
          "type": "address[]"
        },
        {
          "internalType": "uint256",
          "name": "virtualPrice",
          "type": "uint256"
        }
      ],
      "stateMutability": "view",
      "type": "function"
    },
    {
      "inputs": [
        {
          "internalType": "address",
          "name": "crvLp",
          "type": "address"
        }
      ],
      "name": "getPrice",
      "outputs": [
        {
          "internalType": "uint256",
          "name": "",
          "type": "uint256"
        }
      ],
      "stateMutability": "nonpayable",
      "type": "function"
    },
    {
      "inputs": [
        {
          "internalType": "address",
          "name": "crvLp",
          "type": "address"
        }
      ],
      "name": "getTokenInfo",
      "outputs": [
        {
          "components": [
            {
              "internalType": "address",
              "name": "pool",
              "type": "address"
            },
            {
              "internalType": "address[]",
              "name": "tokens",
              "type": "address[]"
            },
            {
              "internalType": "uint256",
              "name": "registryIndex",
              "type": "uint256"
            }
          ],
          "internalType": "struct CurveBaseOracle.TokenInfo",
          "name": "",
          "type": "tuple"
        }
      ],
      "stateMutability": "view",
      "type": "function"
    },
    {
      "inputs": [
        {
          "internalType": "contract ICurveAddressProvider",
          "name": "addressProvider",
          "type": "address"
        },
        {
          "internalType": "contract IBaseOracle",
          "name": "base",
          "type": "address"
        },
        {
          "internalType": "address",
          "name": "owner",
          "type": "address"
        }
      ],
      "name": "initialize",
      "outputs": [],
      "stateMutability": "nonpayable",
      "type": "function"
    },
    {
      "inputs": [],
      "name": "owner",
      "outputs": [
        {
          "internalType": "address",
          "name": "",
          "type": "address"
        }
      ],
      "stateMutability": "view",
      "type": "function"
    },
    {
      "inputs": [],
      "name": "pendingOwner",
      "outputs": [
        {
          "internalType": "address",
          "name": "",
          "type": "address"
        }
      ],
      "stateMutability": "view",
      "type": "function"
    },
    {
      "inputs": [
        {
          "internalType": "address",
          "name": "crvLp",
          "type": "address"
        }
      ],
      "name": "registerCurveLp",
      "outputs": [],
      "stateMutability": "nonpayable",
      "type": "function"
    },
    {
      "inputs": [],
      "name": "renounceOwnership",
      "outputs": [],
      "stateMutability": "nonpayable",
      "type": "function"
    },
    {
      "inputs": [
        {
          "internalType": "address",
          "name": "newOwner",
          "type": "address"
        }
      ],
      "name": "transferOwnership",
      "outputs": [],
      "stateMutability": "nonpayable",
      "type": "function"
    },
    {
      "stateMutability": "payable",
      "type": "receive"
    }
  ],
  "bytecode": "0x60806040523480156200001157600080fd5b506200001c62000036565b6200002662000036565b6200003062000036565b620000f7565b600054610100900460ff1615620000a35760405162461bcd60e51b815260206004820152602760248201527f496e697469616c697a61626c653a20636f6e747261637420697320696e697469604482015266616c697a696e6760c81b606482015260840160405180910390fd5b60005460ff90811614620000f5576000805460ff191660ff9081179091556040519081527f7f26b83ff96e1f2b6a682f133852f6798a09c465da95921460cefb38474024989060200160405180910390a15b565b6117d680620001076000396000f3fe6080604052600436106100ab5760003560e01c806379ba50971161006457806379ba5097146101b35780638da5cb5b146101c8578063c0c53b8b146101e6578063e30c397814610206578063f2fde38b14610224578063f8c689341461024457600080fd5b806306bfa938146100b75780631f69565f146100ef5780633088794e1461011c5780633fd629391461014e57806341976e0914610170578063715018a61461019e57600080fd5b366100b257005b600080fd5b3480156100c357600080fd5b506100d76100d2366004611402565b610262565b6040516100e693929190611426565b60405180910390f35b3480156100fb57600080fd5b5061010f61010a366004611402565b61027f565b6040516100e6919061148b565b34801561012857600080fd5b506097546001600160a01b03165b6040516001600160a01b0390911681526020016100e6565b34801561015a57600080fd5b5061016e610169366004611402565b610349565b005b34801561017c57600080fd5b5061019061018b366004611402565b610408565b6040519081526020016100e6565b3480156101aa57600080fd5b5061016e610516565b3480156101bf57600080fd5b5061016e61052a565b3480156101d457600080fd5b506033546001600160a01b0316610136565b3480156101f257600080fd5b5061016e610201366004611501565b6105a9565b34801561021257600080fd5b506065546001600160a01b0316610136565b34801561023057600080fd5b5061016e61023f366004611402565b6106c0565b34801561025057600080fd5b5060a2546001600160a01b0316610136565b60006060600061027184610731565b9250925092505b9193909250565b6102ac604051806060016040528060006001600160a01b0316815260200160608152602001600081525090565b6001600160a01b03808316600090815260a3602090815260409182902082516060810184528154909416845260018101805484518185028101850190955280855291938584019390929083018282801561032f57602002820191906000526020600020905b81546001600160a01b03168152600190910190602001808311610311575b505050505081526020016002820154815250509050919050565b6103516108e8565b6001600160a01b0381166103785760405163538ba4f960e01b815260040160405180910390fd5b600080600061038684610942565b604080516060810182526001600160a01b03858116825260208083018681528385018690528b8316600090815260a3835294909420835181546001600160a01b0319169316929092178255925180519699509497509295509391926103f49260018501929190910190611319565b506040820151816002015590505050505050565b60008060008061041785610731565b9250925092506104288383516110d3565b60001960005b83518110156104ee5760975484516000916001600160a01b0316906341976e09908790859081106104615761046161154c565b60200260200101516040518263ffffffff1660e01b815260040161049491906001600160a01b0391909116815260200190565b6020604051808303816000875af11580156104b3573d6000803e3d6000fd5b505050506040513d601f19601f820116820180604052508101906104d79190611562565b9050828110156104e5578092505b5060010161042e565b50670de0b6b3a7640000610502838361157b565b61050c91906115a6565b9695505050505050565b61051e6108e8565b61052860006111cf565b565b60655433906001600160a01b0316811461059d5760405162461bcd60e51b815260206004820152602960248201527f4f776e61626c6532537465703a2063616c6c6572206973206e6f7420746865206044820152683732bb9037bbb732b960b91b60648201526084015b60405180910390fd5b6105a6816111cf565b50565b600054610100900460ff16158080156105c95750600054600160ff909116105b806105e35750303b1580156105e3575060005460ff166001145b6106465760405162461bcd60e51b815260206004820152602e60248201527f496e697469616c697a61626c653a20636f6e747261637420697320616c72656160448201526d191e481a5b9a5d1a585b1a5e995960921b6064820152608401610594565b6000805460ff191660011790558015610669576000805461ff0019166101001790555b6106748484846111e8565b80156106ba576000805461ff0019169055604051600181527f7f26b83ff96e1f2b6a682f133852f6798a09c465da95921460cefb38474024989060200160405180910390a15b50505050565b6106c86108e8565b606580546001600160a01b0383166001600160a01b031990911681179091556106f96033546001600160a01b031690565b6001600160a01b03167f38d16b8cac22d99fc7c124b9cd0de2d3fa1faef420bfe791d8c362d765e2270060405160405180910390a350565b600060606000806107418561027f565b80519091506001600160a01b03166107775760405163385fd8c560e11b81526001600160a01b0386166004820152602401610594565b80604001516000036108745760a2546040805163a262904b60e01b815290516000926001600160a01b03169163a262904b9160048083019260209291908290030181865afa1580156107cd573d6000803e3d6000fd5b505050506040513d601f19601f820116820180604052508101906107f191906115d8565b825160208401516040516362db83a560e11b81526001600160a01b038a8116600483015292985090965091925082169063c5b7074a90602401602060405180830381865afa158015610847573d6000803e3d6000fd5b505050506040513d601f19601f8201168201806040525081019061086b9190611562565b92505050610278565b80604001516005148061088b575080604001516007145b156108e05760a254604082810151905163124fd3dd60e21b815260048101919091526000916001600160a01b03169063493f4f7490602401602060405180830381865afa1580156107cd573d6000803e3d6000fd5b509193909250565b6033546001600160a01b031633146105285760405162461bcd60e51b815260206004820181905260248201527f4f776e61626c653a2063616c6c6572206973206e6f7420746865206f776e65726044820152606401610594565b6000606060008060a260009054906101000a90046001600160a01b03166001600160a01b031663a262904b6040518163ffffffff1660e01b8152600401602060405180830381865afa15801561099c573d6000803e3d6000fd5b505050506040513d601f19601f820116820180604052508101906109c091906115d8565b60405163bdf475c360e01b81526001600160a01b0387811660048301529192509082169063bdf475c390602401602060405180830381865afa158015610a0a573d6000803e3d6000fd5b505050506040513d601f19601f82011682018060405250810190610a2e91906115d8565b93506001600160a01b03841615610bc75760405163940494f160e01b81526001600160a01b0385811660048301526000919083169063940494f1906024016040805180830381865afa158015610a88573d6000803e3d6000fd5b505050506040513d601f19601f82011682018060405250810190610aac91906115f5565b50604051639ac90d3d60e01b81526001600160a01b038781166004830152919250600091841690639ac90d3d9060240161010060405180830381865afa158015610afa573d6000803e3d6000fd5b505050506040513d601f19601f82011682018060405250810190610b1e919061162f565b90508167ffffffffffffffff811115610b3957610b39611619565b604051908082528060200260200182016040528015610b62578160200160208202803683370190505b50945060005b82811015610bb957818160088110610b8257610b8261154c565b6020020151868281518110610b9957610b9961154c565b6001600160a01b0390921660209283029190910190910152600101610b68565b506000935061027892505050565b60a25460405163124fd3dd60e21b8152600560048201526001600160a01b039091169063493f4f7490602401602060405180830381865afa158015610c10573d6000803e3d6000fd5b505050506040513d601f19601f82011682018060405250810190610c3491906115d8565b60405163bdf475c360e01b81526001600160a01b0387811660048301529192509082169063bdf475c390602401602060405180830381865afa158015610c7e573d6000803e3d6000fd5b505050506040513d601f19601f82011682018060405250810190610ca291906115d8565b93506001600160a01b03841615610e3b5760405163940494f160e01b81526001600160a01b0385811660048301526000919083169063940494f190602401602060405180830381865afa158015610cfd573d6000803e3d6000fd5b505050506040513d601f19601f82011682018060405250810190610d219190611562565b604051639ac90d3d60e01b81526001600160a01b038781166004830152919250600091841690639ac90d3d9060240161010060405180830381865afa158015610d6e573d6000803e3d6000fd5b505050506040513d601f19601f82011682018060405250810190610d92919061162f565b90508167ffffffffffffffff811115610dad57610dad611619565b604051908082528060200260200182016040528015610dd6578160200160208202803683370190505b50945060005b82811015610e2d57818160088110610df657610df661154c565b6020020151868281518110610e0d57610e0d61154c565b6001600160a01b0390921660209283029190910190910152600101610ddc565b506005935061027892505050565b60a25460405163124fd3dd60e21b8152600760048201526001600160a01b039091169063493f4f7490602401602060405180830381865afa158015610e84573d6000803e3d6000fd5b505050506040513d601f19601f82011682018060405250810190610ea891906115d8565b60405163bdf475c360e01b81526001600160a01b0387811660048301529192509082169063bdf475c390602401602060405180830381865afa158015610ef2573d6000803e3d6000fd5b505050506040513d601f19601f82011682018060405250810190610f1691906115d8565b93506001600160a01b038416156110af5760405163940494f160e01b81526001600160a01b0385811660048301526000919083169063940494f190602401602060405180830381865afa158015610f71573d6000803e3d6000fd5b505050506040513d601f19601f82011682018060405250810190610f959190611562565b604051639ac90d3d60e01b81526001600160a01b038781166004830152919250600091841690639ac90d3d9060240161010060405180830381865afa158015610fe2573d6000803e3d6000fd5b505050506040513d601f19601f82011682018060405250810190611006919061162f565b90508167ffffffffffffffff81111561102157611021611619565b60405190808252806020026020018201604052801561104a578160200160208202803683370190505b50945060005b828110156110a15781816008811061106a5761106a61154c565b60200201518682815181106110815761108161154c565b6001600160a01b0390921660209283029190910190910152600101611050565b506007935061027892505050565b60405163385fd8c560e11b81526001600160a01b0386166004820152602401610594565b81600282900361114c576110e561137e565b6040516316cd8e2760e21b81526001600160a01b03831690635b36389c906111149060009085906004016116c3565b600060405180830381600087803b15801561112e57600080fd5b505af1158015611142573d6000803e3d6000fd5b5050505050505050565b8160030361118b5761115c61139c565b60405163ecb586a560e01b81526001600160a01b0383169063ecb586a5906111149060009085906004016116fb565b816004036111ca5761119b6113ba565b604051637d49d87560e01b81526001600160a01b03831690637d49d87590611114906000908590600401611728565b505050565b606580546001600160a01b03191690556105a681611216565b6111f28282611268565b505060a280546001600160a01b0319166001600160a01b0392909216919091179055565b603380546001600160a01b038381166001600160a01b0319831681179093556040519116919082907f8be0079c531659141344cd1fd0a4f28419497f9722a3daafe3b4186f6b6457e090600090a35050565b600054610100900460ff1661128f5760405162461bcd60e51b815260040161059490611755565b609780546001600160a01b0319166001600160a01b0384161790556112b26112bf565b6112bb816111cf565b5050565b600054610100900460ff166112e65760405162461bcd60e51b815260040161059490611755565b610528600054610100900460ff166113105760405162461bcd60e51b815260040161059490611755565b610528336111cf565b82805482825590600052602060002090810192821561136e579160200282015b8281111561136e57825182546001600160a01b0319166001600160a01b03909116178255602090920191600190910190611339565b5061137a9291506113d8565b5090565b60405180604001604052806002906020820280368337509192915050565b60405180606001604052806003906020820280368337509192915050565b60405180608001604052806004906020820280368337509192915050565b5b8082111561137a57600081556001016113d9565b6001600160a01b03811681146105a657600080fd5b60006020828403121561141457600080fd5b813561141f816113ed565b9392505050565b6001600160a01b038481168252606060208084018290528551918401829052600092868201929091906080860190855b81811015611474578551851683529483019491830191600101611456565b505080945050505050826040830152949350505050565b602080825282516001600160a01b03908116838301528382015160606040850152805160808501819052600093929183019190849060a08701905b808310156114e8578451841682529385019360019290920191908501906114c6565b5060408801516060880152809550505050505092915050565b60008060006060848603121561151657600080fd5b8335611521816113ed565b92506020840135611531816113ed565b91506040840135611541816113ed565b809150509250925092565b634e487b7160e01b600052603260045260246000fd5b60006020828403121561157457600080fd5b5051919050565b80820281158282048414176115a057634e487b7160e01b600052601160045260246000fd5b92915050565b6000826115c357634e487b7160e01b600052601260045260246000fd5b500490565b80516115d3816113ed565b919050565b6000602082840312156115ea57600080fd5b815161141f816113ed565b6000806040838503121561160857600080fd5b505080516020909101519092909150565b634e487b7160e01b600052604160045260246000fd5b600061010080838503121561164357600080fd5b83601f84011261165257600080fd5b60405181810181811067ffffffffffffffff8211171561168257634e487b7160e01b600052604160045260246000fd5b60405290830190808583111561169757600080fd5b845b838110156116b8576116aa816115c8565b825260209182019101611699565b509095945050505050565b8281526060810160208083018460005b60028110156116f0578151835291830191908301906001016116d3565b505050509392505050565b8281526080810160208083018460005b60038110156116f05781518352918301919083019060010161170b565b82815260a0810160208083018460005b60048110156116f057815183529183019190830190600101611738565b6020808252602b908201527f496e697469616c697a61626c653a20636f6e7472616374206973206e6f74206960408201526a6e697469616c697a696e6760a81b60608201526080019056fea2646970667358221220a34cc4ef840e43a6f0ff566115309a8613f110037e2c12e265ba9c3d068aea6064736f6c63430008160033",
  "linkReferences": {},
  "deployedLinkReferences": {}
}