{
  "_format": "hh-sol-artifact-1",
  "contractName": "WIchiFarm",
  "sourceName": "contracts/wrapper/WIchiFarm.sol",
  "abi": [
    {
      "inputs": [],
      "stateMutability": "nonpayable",
      "type": "constructor"
    },
    {
      "inputs": [
        {
          "internalType": "uint256",
          "name": "pid",
          "type": "uint256"
        }
      ],
      "name": "BAD_PID",
      "type": "error"
    },
    {
      "inputs": [
        {
          "internalType": "uint256",
          "name": "rewardPerShare",
          "type": "uint256"
        }
      ],
      "name": "BAD_REWARD_PER_SHARE",
      "type": "error"
    },
    {
      "inputs": [
        {
          "internalType": "uint256",
          "name": "tokenId",
          "type": "uint256"
        }
      ],
      "name": "DUPLICATE_TOKEN_ID",
      "type": "error"
    },
    {
      "inputs": [],
      "name": "ZERO_ADDRESS",
      "type": "error"
    },
    {
      "anonymous": false,
      "inputs": [
        {
          "indexed": true,
          "internalType": "address",
          "name": "account",
          "type": "address"
        },
        {
          "indexed": true,
          "internalType": "address",
          "name": "operator",
          "type": "address"
        },
        {
          "indexed": false,
          "internalType": "bool",
          "name": "approved",
          "type": "bool"
        }
      ],
      "name": "ApprovalForAll",
      "type": "event"
    },
    {
      "anonymous": false,
      "inputs": [
        {
          "indexed": true,
          "internalType": "uint256",
          "name": "id",
          "type": "uint256"
        },
        {
          "indexed": true,
          "internalType": "uint256",
          "name": "pid",
          "type": "uint256"
        },
        {
          "indexed": false,
          "internalType": "uint256",
          "name": "amount",
          "type": "uint256"
        }
      ],
      "name": "Burned",
      "type": "event"
    },
    {
      "anonymous": false,
      "inputs": [
        {
          "indexed": false,
          "internalType": "uint8",
          "name": "version",
          "type": "uint8"
        }
      ],
      "name": "Initialized",
      "type": "event"
    },
    {
      "anonymous": false,
      "inputs": [
        {
          "indexed": true,
          "internalType": "uint256",
          "name": "id",
          "type": "uint256"
        },
        {
          "indexed": true,
          "internalType": "uint256",
          "name": "pid",
          "type": "uint256"
        },
        {
          "indexed": false,
          "internalType": "uint256",
          "name": "amount",
          "type": "uint256"
        }
      ],
      "name": "Minted",
      "type": "event"
    },
    {
      "anonymous": false,
      "inputs": [
        {
          "indexed": true,
          "internalType": "address",
          "name": "previousOwner",
          "type": "address"
        },
        {
          "indexed": true,
          "internalType": "address",
          "name": "newOwner",
          "type": "address"
        }
      ],
      "name": "OwnershipTransferStarted",
      "type": "event"
    },
    {
      "anonymous": false,
      "inputs": [
        {
          "indexed": true,
          "internalType": "address",
          "name": "previousOwner",
          "type": "address"
        },
        {
          "indexed": true,
          "internalType": "address",
          "name": "newOwner",
          "type": "address"
        }
      ],
      "name": "OwnershipTransferred",
      "type": "event"
    },
    {
      "anonymous": false,
      "inputs": [
        {
          "indexed": true,
          "internalType": "address",
          "name": "operator",
          "type": "address"
        },
        {
          "indexed": true,
          "internalType": "address",
          "name": "from",
          "type": "address"
        },
        {
          "indexed": true,
          "internalType": "address",
          "name": "to",
          "type": "address"
        },
        {
          "indexed": false,
          "internalType": "uint256[]",
          "name": "ids",
          "type": "uint256[]"
        },
        {
          "indexed": false,
          "internalType": "uint256[]",
          "name": "values",
          "type": "uint256[]"
        }
      ],
      "name": "TransferBatch",
      "type": "event"
    },
    {
      "anonymous": false,
      "inputs": [
        {
          "indexed": true,
          "internalType": "address",
          "name": "operator",
          "type": "address"
        },
        {
          "indexed": true,
          "internalType": "address",
          "name": "from",
          "type": "address"
        },
        {
          "indexed": true,
          "internalType": "address",
          "name": "to",
          "type": "address"
        },
        {
          "indexed": false,
          "internalType": "uint256",
          "name": "id",
          "type": "uint256"
        },
        {
          "indexed": false,
          "internalType": "uint256",
          "name": "value",
          "type": "uint256"
        }
      ],
      "name": "TransferSingle",
      "type": "event"
    },
    {
      "anonymous": false,
      "inputs": [
        {
          "indexed": false,
          "internalType": "string",
          "name": "value",
          "type": "string"
        },
        {
          "indexed": true,
          "internalType": "uint256",
          "name": "id",
          "type": "uint256"
        }
      ],
      "name": "URI",
      "type": "event"
    },
    {
      "inputs": [],
      "name": "acceptOwnership",
      "outputs": [],
      "stateMutability": "nonpayable",
      "type": "function"
    },
    {
      "inputs": [
        {
          "internalType": "address",
          "name": "account",
          "type": "address"
        },
        {
          "internalType": "uint256",
          "name": "id",
          "type": "uint256"
        }
      ],
      "name": "balanceOf",
      "outputs": [
        {
          "internalType": "uint256",
          "name": "",
          "type": "uint256"
        }
      ],
      "stateMutability": "view",
      "type": "function"
    },
    {
      "inputs": [
        {
          "internalType": "address[]",
          "name": "accounts",
          "type": "address[]"
        },
        {
          "internalType": "uint256[]",
          "name": "ids",
          "type": "uint256[]"
        }
      ],
      "name": "balanceOfBatch",
      "outputs": [
        {
          "internalType": "uint256[]",
          "name": "",
          "type": "uint256[]"
        }
      ],
      "stateMutability": "view",
      "type": "function"
    },
    {
      "inputs": [
        {
          "internalType": "uint256",
          "name": "id",
          "type": "uint256"
        },
        {
          "internalType": "uint256",
          "name": "amount",
          "type": "uint256"
        }
      ],
      "name": "burn",
      "outputs": [
        {
          "internalType": "uint256",
          "name": "",
          "type": "uint256"
        }
      ],
      "stateMutability": "nonpayable",
      "type": "function"
    },
    {
      "inputs": [
        {
          "internalType": "uint256",
          "name": "id",
          "type": "uint256"
        }
      ],
      "name": "decodeId",
      "outputs": [
        {
          "internalType": "uint256",
          "name": "pid",
          "type": "uint256"
        },
        {
          "internalType": "uint256",
          "name": "ichiPerShare",
          "type": "uint256"
        }
      ],
      "stateMutability": "pure",
      "type": "function"
    },
    {
      "inputs": [
        {
          "internalType": "uint256",
          "name": "pid",
          "type": "uint256"
        },
        {
          "internalType": "uint256",
          "name": "ichiPerShare",
          "type": "uint256"
        }
      ],
      "name": "encodeId",
      "outputs": [
        {
          "internalType": "uint256",
          "name": "id",
          "type": "uint256"
        }
      ],
      "stateMutability": "pure",
      "type": "function"
    },
    {
      "inputs": [],
      "name": "getIchiFarm",
      "outputs": [
        {
          "internalType": "contract IIchiFarm",
          "name": "",
          "type": "address"
        }
      ],
      "stateMutability": "view",
      "type": "function"
    },
    {
      "inputs": [],
      "name": "getIchiV1",
      "outputs": [
        {
          "internalType": "contract IERC20Upgradeable",
          "name": "",
          "type": "address"
        }
      ],
      "stateMutability": "view",
      "type": "function"
    },
    {
      "inputs": [],
      "name": "getIchiV2",
      "outputs": [
        {
          "internalType": "contract IIchiV2",
          "name": "",
          "type": "address"
        }
      ],
      "stateMutability": "view",
      "type": "function"
    },
    {
      "inputs": [
        {
          "internalType": "uint256",
          "name": "id",
          "type": "uint256"
        }
      ],
      "name": "getUnderlyingToken",
      "outputs": [
        {
          "internalType": "address",
          "name": "",
          "type": "address"
        }
      ],
      "stateMutability": "view",
      "type": "function"
    },
    {
      "inputs": [
        {
          "internalType": "address",
          "name": "ichi",
          "type": "address"
        },
        {
          "internalType": "address",
          "name": "ichiV1",
          "type": "address"
        },
        {
          "internalType": "address",
          "name": "ichiFarm",
          "type": "address"
        },
        {
          "internalType": "address",
          "name": "owner",
          "type": "address"
        }
      ],
      "name": "initialize",
      "outputs": [],
      "stateMutability": "nonpayable",
      "type": "function"
    },
    {
      "inputs": [
        {
          "internalType": "address",
          "name": "account",
          "type": "address"
        },
        {
          "internalType": "address",
          "name": "operator",
          "type": "address"
        }
      ],
      "name": "isApprovedForAll",
      "outputs": [
        {
          "internalType": "bool",
          "name": "",
          "type": "bool"
        }
      ],
      "stateMutability": "view",
      "type": "function"
    },
    {
      "inputs": [
        {
          "internalType": "uint256",
          "name": "pid",
          "type": "uint256"
        },
        {
          "internalType": "uint256",
          "name": "amount",
          "type": "uint256"
        }
      ],
      "name": "mint",
      "outputs": [
        {
          "internalType": "uint256",
          "name": "",
          "type": "uint256"
        }
      ],
      "stateMutability": "nonpayable",
      "type": "function"
    },
    {
      "inputs": [],
      "name": "owner",
      "outputs": [
        {
          "internalType": "address",
          "name": "",
          "type": "address"
        }
      ],
      "stateMutability": "view",
      "type": "function"
    },
    {
      "inputs": [],
      "name": "pendingOwner",
      "outputs": [
        {
          "internalType": "address",
          "name": "",
          "type": "address"
        }
      ],
      "stateMutability": "view",
      "type": "function"
    },
    {
      "inputs": [
        {
          "internalType": "uint256",
          "name": "tokenId",
          "type": "uint256"
        },
        {
          "internalType": "uint256",
          "name": "amount",
          "type": "uint256"
        }
      ],
      "name": "pendingRewards",
      "outputs": [
        {
          "internalType": "address[]",
          "name": "tokens",
          "type": "address[]"
        },
        {
          "internalType": "uint256[]",
          "name": "rewards",
          "type": "uint256[]"
        }
      ],
      "stateMutability": "view",
      "type": "function"
    },
    {
      "inputs": [],
      "name": "renounceOwnership",
      "outputs": [],
      "stateMutability": "nonpayable",
      "type": "function"
    },
    {
      "inputs": [
        {
          "internalType": "address",
          "name": "from",
          "type": "address"
        },
        {
          "internalType": "address",
          "name": "to",
          "type": "address"
        },
        {
          "internalType": "uint256[]",
          "name": "ids",
          "type": "uint256[]"
        },
        {
          "internalType": "uint256[]",
          "name": "amounts",
          "type": "uint256[]"
        },
        {
          "internalType": "bytes",
          "name": "data",
          "type": "bytes"
        }
      ],
      "name": "safeBatchTransferFrom",
      "outputs": [],
      "stateMutability": "nonpayable",
      "type": "function"
    },
    {
      "inputs": [
        {
          "internalType": "address",
          "name": "from",
          "type": "address"
        },
        {
          "internalType": "address",
          "name": "to",
          "type": "address"
        },
        {
          "internalType": "uint256",
          "name": "id",
          "type": "uint256"
        },
        {
          "internalType": "uint256",
          "name": "amount",
          "type": "uint256"
        },
        {
          "internalType": "bytes",
          "name": "data",
          "type": "bytes"
        }
      ],
      "name": "safeTransferFrom",
      "outputs": [],
      "stateMutability": "nonpayable",
      "type": "function"
    },
    {
      "inputs": [
        {
          "internalType": "address",
          "name": "operator",
          "type": "address"
        },
        {
          "internalType": "bool",
          "name": "approved",
          "type": "bool"
        }
      ],
      "name": "setApprovalForAll",
      "outputs": [],
      "stateMutability": "nonpayable",
      "type": "function"
    },
    {
      "inputs": [
        {
          "internalType": "bytes4",
          "name": "interfaceId",
          "type": "bytes4"
        }
      ],
      "name": "supportsInterface",
      "outputs": [
        {
          "internalType": "bool",
          "name": "",
          "type": "bool"
        }
      ],
      "stateMutability": "view",
      "type": "function"
    },
    {
      "inputs": [
        {
          "internalType": "address",
          "name": "newOwner",
          "type": "address"
        }
      ],
      "name": "transferOwnership",
      "outputs": [],
      "stateMutability": "nonpayable",
      "type": "function"
    },
    {
      "inputs": [
        {
          "internalType": "uint256",
          "name": "",
          "type": "uint256"
        }
      ],
      "name": "uri",
      "outputs": [
        {
          "internalType": "string",
          "name": "",
          "type": "string"
        }
      ],
      "stateMutability": "view",
      "type": "function"
    }
  ],
  "bytecode": "0x60806040523480156200001157600080fd5b506200001c62000022565b620000e3565b600054610100900460ff16156200008f5760405162461bcd60e51b815260206004820152602760248201527f496e697469616c697a61626c653a20636f6e747261637420697320696e697469604482015266616c697a696e6760c81b606482015260840160405180910390fd5b60005460ff90811614620000e1576000805460ff191660ff9081179091556040519081527f7f26b83ff96e1f2b6a682f133852f6798a09c465da95921460cefb38474024989060200160405180910390a15b565b61300c80620000f36000396000f3fe608060405234801561001057600080fd5b506004361061014c5760003560e01c80638da5cb5b116100c3578063e30c39781161007c578063e30c3978146102ff578063e985e9c514610310578063f242432a1461034c578063f2fde38b1461035f578063f6d34f5d14610372578063f8c8765e1461038457600080fd5b80638da5cb5b1461026c578063a22cb4651461027d578063a477577214610290578063b390c0ab146102a3578063b8c74363146102b6578063dc20c6fa146102c857600080fd5b806329f2b5bd1161011557806329f2b5bd146101f35780632eb2c2d6146102065780634e1273f41461021b5780635ef819ce1461023b578063715018a61461025c57806379ba50971461026457600080fd5b8062fdd58e1461015157806301ffc9a7146101775780630e89341c1461019a5780631b2ef1ca146101ba5780631c04b670146101cd575b600080fd5b61016461015f366004612399565b610397565b6040519081526020015b60405180910390f35b61018a6101853660046123db565b610432565b604051901515815260200161016e565b6101ad6101a83660046123f8565b610482565b60405161016e9190612461565b6101646101c8366004612474565b610516565b61012e546001600160a01b03165b6040516001600160a01b03909116815260200161016e565b610164610201366004612474565b610722565b6102196102143660046125e7565b61077c565b005b61022e610229366004612695565b6107c8565b60405161016e919061279e565b61024e610249366004612474565b6108ea565b60405161016e9291906127b1565b610219610b88565b610219610b9c565b60c9546001600160a01b03166101db565b61021961028b366004612820565b610c16565b6101db61029e3660046123f8565b610c25565b6101646102b1366004612474565b610ca3565b61012f546001600160a01b03166101db565b6102ea6102d63660046123f8565b60f081901c916001600160f01b0390911690565b6040805192835260208301919091520161016e565b60fb546001600160a01b03166101db565b61018a61031e366004612859565b6001600160a01b03918216600090815260666020908152604080832093909416825291909152205460ff1690565b61021961035a366004612887565b611100565b61021961036d3660046128f0565b611145565b61012d546001600160a01b03166101db565b61021961039236600461290d565b6111b6565b60006001600160a01b0383166104075760405162461bcd60e51b815260206004820152602a60248201527f455243313135353a2061646472657373207a65726f206973206e6f742061207660448201526930b634b21037bbb732b960b11b60648201526084015b60405180910390fd5b5060008181526065602090815260408083206001600160a01b03861684529091529020545b92915050565b60006001600160e01b03198216636cdb3d1360e11b148061046357506001600160e01b031982166303a24d0760e21b145b8061042c57506301ffc9a760e01b6001600160e01b031983161461042c565b60606067805461049190612969565b80601f01602080910402602001604051908101604052809291908181526020018280546104bd90612969565b801561050a5780601f106104df5761010080835404028352916020019161050a565b820191906000526020600020905b8154815290600101906020018083116104ed57829003601f168201915b50505050509050919050565b6000610520611392565b600061053561012f546001600160a01b031690565b6040516378ed5d1f60e01b8152600481018690529091506000906001600160a01b038316906378ed5d1f90602401602060405180830381865afa158015610580573d6000803e3d6000fd5b505050506040513d601f19601f820116820180604052508101906105a491906129a3565b90506105bb6001600160a01b0382163330876113eb565b6105cf6001600160a01b038216838661145c565b604051638dbdbe6d60e01b815260048101869052602481018590523060448201526001600160a01b03831690638dbdbe6d90606401600060405180830381600087803b15801561061e57600080fd5b505af1158015610632573d6000803e3d6000fd5b5050604051631526fe2760e01b815260048101889052600092506001600160a01b0385169150631526fe2790602401606060405180830381865afa15801561067e573d6000803e3d6000fd5b505050506040513d601f19601f820116820180604052508101906106a291906129c0565b5050905060006106b28783610722565b90506106bd81611482565b6106d8338288604051806020016040528060008152506114ad565b86817f488bbf7ce8682b98371a0bb07d4e838ce2e533a907ceda8ac6ee658fdbd162e08860405161070b91815260200190565b60405180910390a3935050505061042c6001609755565b600062010000831061074a5760405163412c53f960e01b8152600481018490526024016103fe565b600160f01b82106107715760405163065444c360e11b8152600481018390526024016103fe565b5060f09190911b1790565b6001600160a01b0385163314806107985750610798853361031e565b6107b45760405162461bcd60e51b81526004016103fe906129ee565b6107c185858585856115ca565b5050505050565b6060815183511461082d5760405162461bcd60e51b815260206004820152602960248201527f455243313135353a206163636f756e747320616e6420696473206c656e677468604482015268040dad2e6dac2e8c6d60bb1b60648201526084016103fe565b6000835167ffffffffffffffff81111561084957610849612496565b604051908082528060200260200182016040528015610872578160200160208202803683370190505b50905060005b84518110156108e2576108bd85828151811061089657610896612a3c565b60200260200101518583815181106108b0576108b0612a3c565b6020026020010151610397565b8282815181106108cf576108cf612a3c565b6020908102919091010152600101610878565b509392505050565b61012f54606090819060f085901c906001600160f01b038616906000906001600160a01b03166040516378ed5d1f60e01b8152600481018590529091506000906001600160a01b038316906378ed5d1f90602401602060405180830381865afa15801561095b573d6000803e3d6000fd5b505050506040513d601f19601f8201168201806040525081019061097f91906129a3565b6001600160a01b031663313ce5676040518163ffffffff1660e01b8152600401602060405180830381865afa1580156109bc573d6000803e3d6000fd5b505050506040513d601f19601f820116820180604052508101906109e09190612a52565b60ff1690506000826001600160a01b0316631526fe27866040518263ffffffff1660e01b8152600401610a1591815260200190565b606060405180830381865afa158015610a32573d6000803e3d6000fd5b505050506040513d601f19601f82011682018060405250810190610a5691906129c0565b505090506000610a7c83600a610a6c9190612b6f565b610a768b88612b7b565b906117a3565b610a8a90633b9aca00612b7b565b90506000610a9984600a612b6f565b610aa38b85612b7b565b610ab190633b9aca00612b7b565b610abb9190612b92565b90506000828211610acd576000610ad7565b610ad78383612bb4565b604080516001808252818301909252919250602080830190803683375050604080516001808252818301909252929c50905060208083019080368337505061012e54919a50506001600160a01b03168a600081518110610b3957610b39612a3c565b60200260200101906001600160a01b031690816001600160a01b0316815250508089600081518110610b6d57610b6d612a3c565b60200260200101818152505050505050505050509250929050565b610b906117c6565b610b9a6000611820565b565b60fb5433906001600160a01b03168114610c0a5760405162461bcd60e51b815260206004820152602960248201527f4f776e61626c6532537465703a2063616c6c6572206973206e6f7420746865206044820152683732bb9037bbb732b960b91b60648201526084016103fe565b610c1381611820565b50565b610c21338383611839565b5050565b60008060f083901c61012f546040516378ed5d1f60e01b8152600481018390529192506001600160a01b0316906378ed5d1f90602401602060405180830381865afa158015610c78573d6000803e3d6000fd5b505050506040513d601f19601f82011682018060405250810190610c9c91906129a3565b9392505050565b6000610cad611392565b6000198203610cc357610cc03384610397565b91505b60f083901c610cd3338585611919565b6000610ce861012f546001600160a01b031690565b90506000610cff61012e546001600160a01b031690565b60405163862a7d6160e01b8152600481018590523060248201529091506000906001600160a01b0384169063862a7d6190604401602060405180830381865afa158015610d50573d6000803e3d6000fd5b505050506040513d601f19601f82011682018060405250810190610d749190612bc7565b604051630c7e663b60e11b8152600481018690523060248201529091506001600160a01b038416906318fccc7690604401600060405180830381600087803b158015610dbf57600080fd5b505af1158015610dd3573d6000803e3d6000fd5b5050604051630ad58d2f60e01b815260048101879052602481018990523060448201526001600160a01b0386169250630ad58d2f9150606401600060405180830381600087803b158015610e2657600080fd5b505af1158015610e3a573d6000803e3d6000fd5b505050506000811115610eba5761012d54610e5f906001600160a01b0316838361145c565b60405163fa411bd160e01b8152600481018290526001600160a01b0383169063fa411bd190602401600060405180830381600087803b158015610ea157600080fd5b505af1158015610eb5573d6000803e3d6000fd5b505050505b6040516378ed5d1f60e01b8152600481018590526000906001600160a01b038516906378ed5d1f90602401602060405180830381865afa158015610f02573d6000803e3d6000fd5b505050506040513d601f19601f82011682018060405250810190610f2691906129a3565b9050610f3c6001600160a01b0382163389611a98565b6000610f4889896108ea565b915050600081600081518110610f6057610f60612a3c565b60200260200101511115611098576110983382600081518110610f8557610f85612a3c565b60209081029190910101516040516370a0823160e01b81523060048201526001600160a01b038816906370a0823190602401602060405180830381865afa158015610fd4573d6000803e3d6000fd5b505050506040513d601f19601f82011682018060405250810190610ff89190612bc7565b101561106b576040516370a0823160e01b81523060048201526001600160a01b038716906370a0823190602401602060405180830381865afa158015611042573d6000803e3d6000fd5b505050506040513d601f19601f820116820180604052508101906110669190612bc7565b611087565b8260008151811061107e5761107e612a3c565b60200260200101515b6001600160a01b0387169190611a98565b85897f82ac44fe03cbf84203fdc07400a8a763498cf2ccaa9788e23b09d56f4fc85f728a6040516110cb91815260200190565b60405180910390a3806000815181106110e6576110e6612a3c565b6020026020010151965050505050505061042c6001609755565b6001600160a01b03851633148061111c575061111c853361031e565b6111385760405162461bcd60e51b81526004016103fe906129ee565b6107c18585858585611ac8565b61114d6117c6565b60fb80546001600160a01b0383166001600160a01b0319909116811790915561117e60c9546001600160a01b031690565b6001600160a01b03167f38d16b8cac22d99fc7c124b9cd0de2d3fa1faef420bfe791d8c362d765e2270060405160405180910390a350565b600054610100900460ff16158080156111d65750600054600160ff909116105b806111f05750303b1580156111f0575060005460ff166001145b6112535760405162461bcd60e51b815260206004820152602e60248201527f496e697469616c697a61626c653a20636f6e747261637420697320616c72656160448201526d191e481a5b9a5d1a585b1a5e995960921b60648201526084016103fe565b6000805460ff191660011790558015611276576000805461ff0019166101001790555b6001600160a01b038516158061129357506001600160a01b038416155b806112a557506001600160a01b038316155b156112c35760405163538ba4f960e01b815260040160405180910390fd5b6112cb611bf6565b6112d482611820565b6112dc611c25565b6113066040518060400160405280600981526020016877496368694661726d60b81b815250611c54565b61012e80546001600160a01b038088166001600160a01b03199283161790925561012d805487841690831617905561012f80549286169290911691909117905580156107c1576000805461ff0019169055604051600181527f7f26b83ff96e1f2b6a682f133852f6798a09c465da95921460cefb38474024989060200160405180910390a15050505050565b6002609754036113e45760405162461bcd60e51b815260206004820152601f60248201527f5265656e7472616e637947756172643a207265656e7472616e742063616c6c0060448201526064016103fe565b6002609755565b6040516001600160a01b03808516602483015283166044820152606481018290526114569085906323b872dd60e01b906084015b60408051601f198184030181529190526020810180516001600160e01b03166001600160e01b031990931692909217909152611c84565b50505050565b61146583611d59565b61147d5761147d6001600160a01b0384168383611d92565b505050565b61148c3382610397565b15610c135760405163bc1de82760e01b8152600481018290526024016103fe565b6001600160a01b03841661150d5760405162461bcd60e51b815260206004820152602160248201527f455243313135353a206d696e7420746f20746865207a65726f206164647265736044820152607360f81b60648201526084016103fe565b33600061151985611e21565b9050600061152685611e21565b905060008681526065602090815260408083206001600160a01b038b1684529091528120805487929061155a908490612be0565b909155505060408051878152602081018790526001600160a01b03808a1692600092918716917fc3d58168c5ae7397731d063d5bbf3d657854427343f4c083240f7aacaa2d0f62910160405180910390a46115ba83600089898989611e6c565b50505050505050565b6001609755565b815183511461162c5760405162461bcd60e51b815260206004820152602860248201527f455243313135353a2069647320616e6420616d6f756e7473206c656e677468206044820152670dad2e6dac2e8c6d60c31b60648201526084016103fe565b6001600160a01b0384166116525760405162461bcd60e51b81526004016103fe90612bf3565b3360005b845181101561173557600085828151811061167357611673612a3c565b60200260200101519050600085838151811061169157611691612a3c565b60209081029190910181015160008481526065835260408082206001600160a01b038e1683529093529190912054909150818110156116e25760405162461bcd60e51b81526004016103fe90612c38565b60008381526065602090815260408083206001600160a01b038e8116855292528083208585039055908b16825281208054849290611721908490612be0565b909155505060019093019250611656915050565b50846001600160a01b0316866001600160a01b0316826001600160a01b03167f4a39dc06d4c0dbc64b70af90fd698a233a518aa5d07e595d983b8c0526c8f7fb8787604051611785929190612c82565b60405180910390a461179b818787878787611fc7565b505050505050565b60008160016117b28286612be0565b6117bc9190612bb4565b610c9c9190612b92565b60c9546001600160a01b03163314610b9a5760405162461bcd60e51b815260206004820181905260248201527f4f776e61626c653a2063616c6c6572206973206e6f7420746865206f776e657260448201526064016103fe565b60fb80546001600160a01b0319169055610c1381612082565b816001600160a01b0316836001600160a01b0316036118ac5760405162461bcd60e51b815260206004820152602960248201527f455243313135353a2073657474696e6720617070726f76616c20737461747573604482015268103337b91039b2b63360b91b60648201526084016103fe565b6001600160a01b03838116600081815260666020908152604080832094871680845294825291829020805460ff191686151590811790915591519182527f17307eab39ab6107e8899845ad3d59bd9653f200f220920489ca2b5937696c31910160405180910390a3505050565b6001600160a01b03831661197b5760405162461bcd60e51b815260206004820152602360248201527f455243313135353a206275726e2066726f6d20746865207a65726f206164647260448201526265737360e81b60648201526084016103fe565b33600061198784611e21565b9050600061199484611e21565b6040805160208082018352600091829052888252606581528282206001600160a01b038b1683529052205490915084811015611a1e5760405162461bcd60e51b8152602060048201526024808201527f455243313135353a206275726e20616d6f756e7420657863656564732062616c604482015263616e636560e01b60648201526084016103fe565b60008681526065602090815260408083206001600160a01b038b81168086529184528285208a8703905582518b81529384018a90529092908816917fc3d58168c5ae7397731d063d5bbf3d657854427343f4c083240f7aacaa2d0f62910160405180910390a46040805160208101909152600090526115ba565b6040516001600160a01b03831660248201526044810182905261147d90849063a9059cbb60e01b9060640161141f565b6001600160a01b038416611aee5760405162461bcd60e51b81526004016103fe90612bf3565b336000611afa85611e21565b90506000611b0785611e21565b905060008681526065602090815260408083206001600160a01b038c16845290915290205485811015611b4c5760405162461bcd60e51b81526004016103fe90612c38565b60008781526065602090815260408083206001600160a01b038d8116855292528083208985039055908a16825281208054889290611b8b908490612be0565b909155505060408051888152602081018890526001600160a01b03808b16928c821692918816917fc3d58168c5ae7397731d063d5bbf3d657854427343f4c083240f7aacaa2d0f62910160405180910390a4611beb848a8a8a8a8a611e6c565b505050505050505050565b600054610100900460ff16611c1d5760405162461bcd60e51b81526004016103fe90612ca7565b610b9a6120d4565b600054610100900460ff16611c4c5760405162461bcd60e51b81526004016103fe90612ca7565b610b9a612104565b600054610100900460ff16611c7b5760405162461bcd60e51b81526004016103fe90612ca7565b610c138161212b565b6000611cd9826040518060400160405280602081526020017f5361666545524332303a206c6f772d6c6576656c2063616c6c206661696c6564815250856001600160a01b031661215b9092919063ffffffff16565b9050805160001480611cfa575080806020019051810190611cfa9190612cf2565b61147d5760405162461bcd60e51b815260206004820152602a60248201527f5361666545524332303a204552433230206f7065726174696f6e20646964206e6044820152691bdd081cdd58d8d9595960b21b60648201526084016103fe565b60006001600160a01b038216158061042c57506001600160a01b03821673eeeeeeeeeeeeeeeeeeeeeeeeeeeeeeeeeeeeeeee1492915050565b604080516001600160a01b038416602482015260448082018490528251808303909101815260649091019091526020810180516001600160e01b031663095ea7b360e01b179052611de38482612172565b611456576040516001600160a01b038416602482015260006044820152611e1790859063095ea7b360e01b9060640161141f565b6114568482611c84565b60408051600180825281830190925260609160009190602080830190803683370190505090508281600081518110611e5b57611e5b612a3c565b602090810291909101015292915050565b6001600160a01b0384163b1561179b5760405163f23a6e6160e01b81526001600160a01b0385169063f23a6e6190611eb09089908990889088908890600401612d0f565b6020604051808303816000875af1925050508015611eeb575060408051601f3d908101601f19168201909252611ee891810190612d49565b60015b611f9757611ef7612d66565b806308c379a003611f305750611f0b612d82565b80611f165750611f32565b8060405162461bcd60e51b81526004016103fe9190612461565b505b60405162461bcd60e51b815260206004820152603460248201527f455243313135353a207472616e7366657220746f206e6f6e2d455243313135356044820152732932b1b2b4bb32b91034b6b83632b6b2b73a32b960611b60648201526084016103fe565b6001600160e01b0319811663f23a6e6160e01b146115ba5760405162461bcd60e51b81526004016103fe90612e0c565b6001600160a01b0384163b1561179b5760405163bc197c8160e01b81526001600160a01b0385169063bc197c819061200b9089908990889088908890600401612e54565b6020604051808303816000875af1925050508015612046575060408051601f3d908101601f1916820190925261204391810190612d49565b60015b61205257611ef7612d66565b6001600160e01b0319811663bc197c8160e01b146115ba5760405162461bcd60e51b81526004016103fe90612e0c565b60c980546001600160a01b038381166001600160a01b0319831681179093556040519116919082907f8be0079c531659141344cd1fd0a4f28419497f9722a3daafe3b4186f6b6457e090600090a35050565b600054610100900460ff166120fb5760405162461bcd60e51b81526004016103fe90612ca7565b610b9a33611820565b600054610100900460ff166115c35760405162461bcd60e51b81526004016103fe90612ca7565b600054610100900460ff166121525760405162461bcd60e51b81526004016103fe90612ca7565b610c1381612219565b606061216a8484600085612225565b949350505050565b6000806000846001600160a01b03168460405161218f9190612eb2565b6000604051808303816000865af19150503d80600081146121cc576040519150601f19603f3d011682016040523d82523d6000602084013e6121d1565b606091505b50915091508180156121fb5750805115806121fb5750808060200190518101906121fb9190612cf2565b801561221057506001600160a01b0385163b15155b95945050505050565b6067610c218282612f16565b6060824710156122865760405162461bcd60e51b815260206004820152602660248201527f416464726573733a20696e73756666696369656e742062616c616e636520666f6044820152651c8818d85b1b60d21b60648201526084016103fe565b600080866001600160a01b031685876040516122a29190612eb2565b60006040518083038185875af1925050503d80600081146122df576040519150601f19603f3d011682016040523d82523d6000602084013e6122e4565b606091505b50915091506122f587838387612300565b979650505050505050565b6060831561236f578251600003612368576001600160a01b0385163b6123685760405162461bcd60e51b815260206004820152601d60248201527f416464726573733a2063616c6c20746f206e6f6e2d636f6e747261637400000060448201526064016103fe565b508161216a565b61216a8383815115611f165781518083602001fd5b6001600160a01b0381168114610c1357600080fd5b600080604083850312156123ac57600080fd5b82356123b781612384565b946020939093013593505050565b6001600160e01b031981168114610c1357600080fd5b6000602082840312156123ed57600080fd5b8135610c9c816123c5565b60006020828403121561240a57600080fd5b5035919050565b60005b8381101561242c578181015183820152602001612414565b50506000910152565b6000815180845261244d816020860160208601612411565b601f01601f19169290920160200192915050565b602081526000610c9c6020830184612435565b6000806040838503121561248757600080fd5b50508035926020909101359150565b634e487b7160e01b600052604160045260246000fd5b601f8201601f1916810167ffffffffffffffff811182821017156124d2576124d2612496565b6040525050565b600067ffffffffffffffff8211156124f3576124f3612496565b5060051b60200190565b600082601f83011261250e57600080fd5b8135602061251b826124d9565b60405161252882826124ac565b80915083815260208101915060208460051b87010193508684111561254c57600080fd5b602086015b848110156125685780358352918301918301612551565b509695505050505050565b600082601f83011261258457600080fd5b813567ffffffffffffffff81111561259e5761259e612496565b6040516125b5601f8301601f1916602001826124ac565b8181528460208386010111156125ca57600080fd5b816020850160208301376000918101602001919091529392505050565b600080600080600060a086880312156125ff57600080fd5b853561260a81612384565b9450602086013561261a81612384565b9350604086013567ffffffffffffffff8082111561263757600080fd5b61264389838a016124fd565b9450606088013591508082111561265957600080fd5b61266589838a016124fd565b9350608088013591508082111561267b57600080fd5b5061268888828901612573565b9150509295509295909350565b600080604083850312156126a857600080fd5b823567ffffffffffffffff808211156126c057600080fd5b818501915085601f8301126126d457600080fd5b813560206126e1826124d9565b6040516126ee82826124ac565b83815260059390931b850182019282810191508984111561270e57600080fd5b948201945b8386101561273557853561272681612384565b82529482019490820190612713565b9650508601359250508082111561274b57600080fd5b50612758858286016124fd565b9150509250929050565b60008151808452602080850194506020840160005b8381101561279357815187529582019590820190600101612777565b509495945050505050565b602081526000610c9c6020830184612762565b604080825283519082018190526000906020906060840190828701845b828110156127f35781516001600160a01b0316845292840192908401906001016127ce565b50505083810360208501526128088186612762565b9695505050505050565b8015158114610c1357600080fd5b6000806040838503121561283357600080fd5b823561283e81612384565b9150602083013561284e81612812565b809150509250929050565b6000806040838503121561286c57600080fd5b823561287781612384565b9150602083013561284e81612384565b600080600080600060a0868803121561289f57600080fd5b85356128aa81612384565b945060208601356128ba81612384565b93506040860135925060608601359150608086013567ffffffffffffffff8111156128e457600080fd5b61268888828901612573565b60006020828403121561290257600080fd5b8135610c9c81612384565b6000806000806080858703121561292357600080fd5b843561292e81612384565b9350602085013561293e81612384565b9250604085013561294e81612384565b9150606085013561295e81612384565b939692955090935050565b600181811c9082168061297d57607f821691505b60208210810361299d57634e487b7160e01b600052602260045260246000fd5b50919050565b6000602082840312156129b557600080fd5b8151610c9c81612384565b6000806000606084860312156129d557600080fd5b8351925060208401519150604084015190509250925092565b6020808252602e908201527f455243313135353a2063616c6c6572206973206e6f7420746f6b656e206f776e60408201526d195c881bdc88185c1c1c9bdd995960921b606082015260800190565b634e487b7160e01b600052603260045260246000fd5b600060208284031215612a6457600080fd5b815160ff81168114610c9c57600080fd5b634e487b7160e01b600052601160045260246000fd5b600181815b80851115612ac6578160001904821115612aac57612aac612a75565b80851615612ab957918102915b93841c9390800290612a90565b509250929050565b600082612add5750600161042c565b81612aea5750600061042c565b8160018114612b005760028114612b0a57612b26565b600191505061042c565b60ff841115612b1b57612b1b612a75565b50506001821b61042c565b5060208310610133831016604e8410600b8410161715612b49575081810a61042c565b612b538383612a8b565b8060001904821115612b6757612b67612a75565b029392505050565b6000610c9c8383612ace565b808202811582820484141761042c5761042c612a75565b600082612baf57634e487b7160e01b600052601260045260246000fd5b500490565b8181038181111561042c5761042c612a75565b600060208284031215612bd957600080fd5b5051919050565b8082018082111561042c5761042c612a75565b60208082526025908201527f455243313135353a207472616e7366657220746f20746865207a65726f206164604082015264647265737360d81b606082015260800190565b6020808252602a908201527f455243313135353a20696e73756666696369656e742062616c616e636520666f60408201526939103a3930b739b332b960b11b606082015260800190565b604081526000612c956040830185612762565b82810360208401526122108185612762565b6020808252602b908201527f496e697469616c697a61626c653a20636f6e7472616374206973206e6f74206960408201526a6e697469616c697a696e6760a81b606082015260800190565b600060208284031215612d0457600080fd5b8151610c9c81612812565b6001600160a01b03868116825285166020820152604081018490526060810183905260a0608082018190526000906122f590830184612435565b600060208284031215612d5b57600080fd5b8151610c9c816123c5565b600060033d1115612d7f5760046000803e5060005160e01c5b90565b600060443d1015612d905790565b6040516003193d81016004833e81513d67ffffffffffffffff8160248401118184111715612dc057505050505090565b8285019150815181811115612dd85750505050505090565b843d8701016020828501011115612df25750505050505090565b612e01602082860101876124ac565b509095945050505050565b60208082526028908201527f455243313135353a204552433131353552656365697665722072656a656374656040820152676420746f6b656e7360c01b606082015260800190565b6001600160a01b0386811682528516602082015260a060408201819052600090612e8090830186612762565b8281036060840152612e928186612762565b90508281036080840152612ea68185612435565b98975050505050505050565b60008251612ec4818460208701612411565b9190910192915050565b601f82111561147d576000816000526020600020601f850160051c81016020861015612ef75750805b601f850160051c820191505b8181101561179b57828155600101612f03565b815167ffffffffffffffff811115612f3057612f30612496565b612f4481612f3e8454612969565b84612ece565b602080601f831160018114612f795760008415612f615750858301515b600019600386901b1c1916600185901b17855561179b565b600085815260208120601f198616915b82811015612fa857888601518255948401946001909101908401612f89565b5085821015612fc65787850151600019600388901b60f8161c191681555b5050505050600190811b0190555056fea26469706673582212207dcf2f721d202cf668f09374d6eaaf0a6869fe00e236c56d7da615efef6919fd64736f6c63430008160033",
  "linkReferences": {},
  "deployedLinkReferences": {}
}