{
  "_format": "hh-sol-artifact-1",
  "contractName": "CoreOracle",
  "sourceName": "contracts/oracle/CoreOracle.sol",
  "abi": [
    {
      "inputs": [],
      "stateMutability": "nonpayable",
      "type": "constructor"
    },
    {
      "inputs": [],
      "name": "INPUT_ARRAY_MISMATCH",
      "type": "error"
    },
    {
      "inputs": [
        {
          "internalType": "address",
          "name": "token",
          "type": "address"
        }
      ],
      "name": "NO_ORACLE_ROUTE",
      "type": "error"
    },
    {
      "inputs": [
        {
          "internalType": "address",
          "name": "token",
          "type": "address"
        }
      ],
      "name": "PRICE_FAILED",
      "type": "error"
    },
    {
      "inputs": [],
      "name": "ZERO_ADDRESS",
      "type": "error"
    },
    {
      "anonymous": false,
      "inputs": [
        {
          "indexed": false,
          "internalType": "uint8",
          "name": "version",
          "type": "uint8"
        }
      ],
      "name": "Initialized",
      "type": "event"
    },
    {
      "anonymous": false,
      "inputs": [
        {
          "indexed": true,
          "internalType": "address",
          "name": "previousOwner",
          "type": "address"
        },
        {
          "indexed": true,
          "internalType": "address",
          "name": "newOwner",
          "type": "address"
        }
      ],
      "name": "OwnershipTransferStarted",
      "type": "event"
    },
    {
      "anonymous": false,
      "inputs": [
        {
          "indexed": true,
          "internalType": "address",
          "name": "previousOwner",
          "type": "address"
        },
        {
          "indexed": true,
          "internalType": "address",
          "name": "newOwner",
          "type": "address"
        }
      ],
      "name": "OwnershipTransferred",
      "type": "event"
    },
    {
      "anonymous": false,
      "inputs": [
        {
          "indexed": false,
          "internalType": "address",
          "name": "account",
          "type": "address"
        }
      ],
      "name": "Paused",
      "type": "event"
    },
    {
      "anonymous": false,
      "inputs": [
        {
          "indexed": false,
          "internalType": "address",
          "name": "token",
          "type": "address"
        }
      ],
      "name": "RegisterLpToken",
      "type": "event"
    },
    {
      "anonymous": false,
      "inputs": [
        {
          "indexed": true,
          "internalType": "address",
          "name": "token",
          "type": "address"
        },
        {
          "indexed": false,
          "internalType": "address",
          "name": "route",
          "type": "address"
        }
      ],
      "name": "SetRoute",
      "type": "event"
    },
    {
      "anonymous": false,
      "inputs": [
        {
          "indexed": false,
          "internalType": "address",
          "name": "account",
          "type": "address"
        }
      ],
      "name": "Unpaused",
      "type": "event"
    },
    {
      "inputs": [],
      "name": "acceptOwnership",
      "outputs": [],
      "stateMutability": "nonpayable",
      "type": "function"
    },
    {
      "inputs": [
        {
          "internalType": "address",
          "name": "token",
          "type": "address"
        }
      ],
      "name": "getPrice",
      "outputs": [
        {
          "internalType": "uint256",
          "name": "",
          "type": "uint256"
        }
      ],
      "stateMutability": "nonpayable",
      "type": "function"
    },
    {
      "inputs": [
        {
          "internalType": "address",
          "name": "token",
          "type": "address"
        }
      ],
      "name": "getRoute",
      "outputs": [
        {
          "internalType": "address",
          "name": "",
          "type": "address"
        }
      ],
      "stateMutability": "view",
      "type": "function"
    },
    {
      "inputs": [
        {
          "internalType": "address",
          "name": "token",
          "type": "address"
        },
        {
          "internalType": "uint256",
          "name": "amount",
          "type": "uint256"
        }
      ],
      "name": "getTokenValue",
      "outputs": [
        {
          "internalType": "uint256",
          "name": "",
          "type": "uint256"
        }
      ],
      "stateMutability": "nonpayable",
      "type": "function"
    },
    {
      "inputs": [
        {
          "internalType": "address",
          "name": "token",
          "type": "address"
        },
        {
          "internalType": "uint256",
          "name": "id",
          "type": "uint256"
        },
        {
          "internalType": "uint256",
          "name": "amount",
          "type": "uint256"
        }
      ],
      "name": "getWrappedTokenValue",
      "outputs": [
        {
          "internalType": "uint256",
          "name": "positionValue",
          "type": "uint256"
        }
      ],
      "stateMutability": "nonpayable",
      "type": "function"
    },
    {
      "inputs": [
        {
          "internalType": "address",
          "name": "owner",
          "type": "address"
        }
      ],
      "name": "initialize",
      "outputs": [],
      "stateMutability": "nonpayable",
      "type": "function"
    },
    {
      "inputs": [
        {
          "internalType": "address",
          "name": "token",
          "type": "address"
        }
      ],
      "name": "isTokenSupported",
      "outputs": [
        {
          "internalType": "bool",
          "name": "",
          "type": "bool"
        }
      ],
      "stateMutability": "nonpayable",
      "type": "function"
    },
    {
      "inputs": [
        {
          "internalType": "address",
          "name": "token",
          "type": "address"
        },
        {
          "internalType": "uint256",
          "name": "tokenId",
          "type": "uint256"
        }
      ],
      "name": "isWrappedTokenSupported",
      "outputs": [
        {
          "internalType": "bool",
          "name": "",
          "type": "bool"
        }
      ],
      "stateMutability": "nonpayable",
      "type": "function"
    },
    {
      "inputs": [],
      "name": "owner",
      "outputs": [
        {
          "internalType": "address",
          "name": "",
          "type": "address"
        }
      ],
      "stateMutability": "view",
      "type": "function"
    },
    {
      "inputs": [],
      "name": "pause",
      "outputs": [],
      "stateMutability": "nonpayable",
      "type": "function"
    },
    {
      "inputs": [],
      "name": "paused",
      "outputs": [
        {
          "internalType": "bool",
          "name": "",
          "type": "bool"
        }
      ],
      "stateMutability": "view",
      "type": "function"
    },
    {
      "inputs": [],
      "name": "pendingOwner",
      "outputs": [
        {
          "internalType": "address",
          "name": "",
          "type": "address"
        }
      ],
      "stateMutability": "view",
      "type": "function"
    },
    {
      "inputs": [],
      "name": "renounceOwnership",
      "outputs": [],
      "stateMutability": "nonpayable",
      "type": "function"
    },
    {
      "inputs": [
        {
          "internalType": "address[]",
          "name": "tokens",
          "type": "address[]"
        },
        {
          "internalType": "address[]",
          "name": "oracleRoutes",
          "type": "address[]"
        }
      ],
      "name": "setRoutes",
      "outputs": [],
      "stateMutability": "nonpayable",
      "type": "function"
    },
    {
      "inputs": [
        {
          "internalType": "address",
          "name": "newOwner",
          "type": "address"
        }
      ],
      "name": "transferOwnership",
      "outputs": [],
      "stateMutability": "nonpayable",
      "type": "function"
    },
    {
      "inputs": [],
      "name": "unpause",
      "outputs": [],
      "stateMutability": "nonpayable",
      "type": "function"
    }
  ],
  "bytecode": "0x608060405234801561001057600080fd5b5061001961001e565b6100dd565b600054610100900460ff161561008a5760405162461bcd60e51b815260206004820152602760248201527f496e697469616c697a61626c653a20636f6e747261637420697320696e697469604482015266616c697a696e6760c81b606482015260840160405180910390fd5b60005460ff908116146100db576000805460ff191660ff9081179091556040519081527f7f26b83ff96e1f2b6a682f133852f6798a09c465da95921460cefb38474024989060200160405180910390a15b565b610edb806100ec6000396000f3fe608060405234801561001057600080fd5b50600436106101005760003560e01c80638456cb5911610097578063e30c397811610066578063e30c397814610205578063e777d0ec14610216578063f2fde38b14610229578063ff9eb51c1461023c57600080fd5b80638456cb59146101c65780638da5cb5b146101ce578063b5f9bb42146101df578063c4d66de8146101f257600080fd5b80636d34cd17116100d35780636d34cd1714610190578063715018a6146101a357806375151b63146101ab57806379ba5097146101be57600080fd5b80633f4ba83a1461010557806341976e091461010f578063481fd65c146101355780635c975abb14610179575b600080fd5b61010d61024f565b005b61012261011d366004610b76565b610261565b6040519081526020015b60405180910390f35b610161610143366004610b76565b6001600160a01b03908116600090815260c960205260409020541690565b6040516001600160a01b03909116815260200161012c565b60975460ff165b604051901515815260200161012c565b61012261019e366004610b93565b610272565b61010d610285565b6101806101b9366004610b76565b610297565b61010d6102a2565b61010d610321565b6033546001600160a01b0316610161565b6101806101ed366004610b93565b610331565b61010d610200366004610b76565b6103b2565b6065546001600160a01b0316610161565b61010d610224366004610c0b565b6104cd565b61010d610237366004610b76565b610607565b61012261024a366004610c77565b610678565b6102576106fb565b61025f610755565b565b600061026c826107a7565b92915050565b600061027e8383610893565b9392505050565b61028d6106fb565b61025f6000610926565b600061026c8261093f565b60655433906001600160a01b031681146103155760405162461bcd60e51b815260206004820152602960248201527f4f776e61626c6532537465703a2063616c6c6572206973206e6f7420746865206044820152683732bb9037bbb732b960b91b60648201526084015b60405180910390fd5b61031e81610926565b50565b6103296106fb565b61025f6109e4565b60405163523babb960e11b81526004810182905260009081906001600160a01b0385169063a477577290602401602060405180830381865afa15801561037b573d6000803e3d6000fd5b505050506040513d601f19601f8201168201806040525081019061039f9190610cac565b90506103aa8161093f565b949350505050565b600054610100900460ff16158080156103d25750600054600160ff909116105b806103ec5750303b1580156103ec575060005460ff166001145b61044f5760405162461bcd60e51b815260206004820152602e60248201527f496e697469616c697a61626c653a20636f6e747261637420697320616c72656160448201526d191e481a5b9a5d1a585b1a5e995960921b606482015260840161030c565b6000805460ff191660011790558015610472576000805461ff0019166101001790555b61047a610a21565b61048382610926565b80156104c9576000805461ff0019169055604051600181527f7f26b83ff96e1f2b6a682f133852f6798a09c465da95921460cefb38474024989060200160405180910390a15b5050565b6104d56106fb565b828181146104f65760405163025e650f60e01b815260040160405180910390fd5b60005b818110156105ff57600086868381811061051557610515610cc9565b905060200201602081019061052a9190610b76565b9050600085858481811061054057610540610cc9565b90506020020160208101906105559190610b76565b90506001600160a01b038216158061057457506001600160a01b038116155b156105925760405163538ba4f960e01b815260040160405180910390fd5b6001600160a01b03828116600081815260c9602090815260409182902080546001600160a01b0319169486169485179055905192835290917fa8c96090e146ce1076efa81e5424d56e13d5c3854943f7926406c12d15d6dbe9910160405180910390a250506001016104f9565b505050505050565b61060f6106fb565b606580546001600160a01b0383166001600160a01b031990911681179091556106406033546001600160a01b031690565b6001600160a01b03167f38d16b8cac22d99fc7c124b9cd0de2d3fa1faef420bfe791d8c362d765e2270060405160405180910390a350565b60405163523babb960e11b81526004810183905260009081906001600160a01b0386169063a477577290602401602060405180830381865afa1580156106c2573d6000803e3d6000fd5b505050506040513d601f19601f820116820180604052508101906106e69190610cac565b90506106f28184610893565b95945050505050565b6033546001600160a01b0316331461025f5760405162461bcd60e51b815260206004820181905260248201527f4f776e61626c653a2063616c6c6572206973206e6f7420746865206f776e6572604482015260640161030c565b61075d610a50565b6097805460ff191690557f5db9ee0a495bf2e6ff9c91a7834c1ba4fdd244a5e8aa4e537bd38aeae4b073aa335b6040516001600160a01b03909116815260200160405180910390a1565b60006107b1610a99565b6001600160a01b03808316600090815260c9602052604090205416806107f557604051630c8b4fd160e01b81526001600160a01b038416600482015260240161030c565b6040516341976e0960e01b81526001600160a01b038481166004830152600091908316906341976e09906024016020604051808303816000875af1158015610841573d6000803e3d6000fd5b505050506040513d601f19601f820116820180604052508101906108659190610cdf565b90508060000361027e5760405163ef6dfde360e01b81526001600160a01b038516600482015260240161030c565b600080836001600160a01b031663313ce5676040518163ffffffff1660e01b8152600401602060405180830381865afa1580156108d4573d6000803e3d6000fd5b505050506040513d601f19601f820116820180604052508101906108f89190610cf8565b60ff16905061090881600a610e15565b83610912866107a7565b61091c9190610e21565b6103aa9190610e38565b606580546001600160a01b031916905561031e81610adf565b6001600160a01b03808216600090815260c960205260408120549091168061096a5750600092915050565b6040516341976e0960e01b81526001600160a01b0384811660048301528216906341976e09906024016020604051808303816000875af19250505080156109ce575060408051601f3d908101601f191682019092526109cb91810190610cdf565b60015b6109db5750600092915050565b15159392505050565b6109ec610a99565b6097805460ff191660011790557f62e78cea01bee320cd4e420270b5ea74000d11b0c9f74754ebdbfc544b05a25861078a3390565b600054610100900460ff16610a485760405162461bcd60e51b815260040161030c90610e5a565b61025f610b31565b60975460ff1661025f5760405162461bcd60e51b815260206004820152601460248201527314185d5cd8589b194e881b9bdd081c185d5cd95960621b604482015260640161030c565b60975460ff161561025f5760405162461bcd60e51b815260206004820152601060248201526f14185d5cd8589b194e881c185d5cd95960821b604482015260640161030c565b603380546001600160a01b038381166001600160a01b0319831681179093556040519116919082907f8be0079c531659141344cd1fd0a4f28419497f9722a3daafe3b4186f6b6457e090600090a35050565b600054610100900460ff16610b585760405162461bcd60e51b815260040161030c90610e5a565b61025f33610926565b6001600160a01b038116811461031e57600080fd5b600060208284031215610b8857600080fd5b813561027e81610b61565b60008060408385031215610ba657600080fd5b8235610bb181610b61565b946020939093013593505050565b60008083601f840112610bd157600080fd5b50813567ffffffffffffffff811115610be957600080fd5b6020830191508360208260051b8501011115610c0457600080fd5b9250929050565b60008060008060408587031215610c2157600080fd5b843567ffffffffffffffff80821115610c3957600080fd5b610c4588838901610bbf565b90965094506020870135915080821115610c5e57600080fd5b50610c6b87828801610bbf565b95989497509550505050565b600080600060608486031215610c8c57600080fd5b8335610c9781610b61565b95602085013595506040909401359392505050565b600060208284031215610cbe57600080fd5b815161027e81610b61565b634e487b7160e01b600052603260045260246000fd5b600060208284031215610cf157600080fd5b5051919050565b600060208284031215610d0a57600080fd5b815160ff8116811461027e57600080fd5b634e487b7160e01b600052601160045260246000fd5b600181815b80851115610d6c578160001904821115610d5257610d52610d1b565b80851615610d5f57918102915b93841c9390800290610d36565b509250929050565b600082610d835750600161026c565b81610d905750600061026c565b8160018114610da65760028114610db057610dcc565b600191505061026c565b60ff841115610dc157610dc1610d1b565b50506001821b61026c565b5060208310610133831016604e8410600b8410161715610def575081810a61026c565b610df98383610d31565b8060001904821115610e0d57610e0d610d1b565b029392505050565b600061027e8383610d74565b808202811582820484141761026c5761026c610d1b565b600082610e5557634e487b7160e01b600052601260045260246000fd5b500490565b6020808252602b908201527f496e697469616c697a61626c653a20636f6e7472616374206973206e6f74206960408201526a6e697469616c697a696e6760a81b60608201526080019056fea2646970667358221220aee5a7e6e39af723853f449b7a2d0e9a0ca0fe524532e771480dd42a876a033964736f6c63430008160033",
  "linkReferences": {},
  "deployedLinkReferences": {}
}