{
  "_format": "hh-sol-artifact-1",
  "contractName": "WConvexBooster",
  "sourceName": "contracts/wrapper/WConvexBooster.sol",
  "abi": [
    {
      "inputs": [],
      "stateMutability": "nonpayable",
      "type": "constructor"
    },
    {
      "inputs": [
        {
          "internalType": "uint256",
          "name": "pid",
          "type": "uint256"
        }
      ],
      "name": "BAD_PID",
      "type": "error"
    },
    {
      "inputs": [
        {
          "internalType": "uint256",
          "name": "rewardPerShare",
          "type": "uint256"
        }
      ],
      "name": "BAD_REWARD_PER_SHARE",
      "type": "error"
    },
    {
      "inputs": [],
      "name": "ZERO_ADDRESS",
      "type": "error"
    },
    {
      "anonymous": false,
      "inputs": [
        {
          "indexed": true,
          "internalType": "address",
          "name": "account",
          "type": "address"
        },
        {
          "indexed": true,
          "internalType": "address",
          "name": "operator",
          "type": "address"
        },
        {
          "indexed": false,
          "internalType": "bool",
          "name": "approved",
          "type": "bool"
        }
      ],
      "name": "ApprovalForAll",
      "type": "event"
    },
    {
      "anonymous": false,
      "inputs": [
        {
          "indexed": true,
          "internalType": "uint256",
          "name": "id",
          "type": "uint256"
        },
        {
          "indexed": true,
          "internalType": "uint256",
          "name": "pid",
          "type": "uint256"
        },
        {
          "indexed": false,
          "internalType": "uint256",
          "name": "amount",
          "type": "uint256"
        }
      ],
      "name": "Burned",
      "type": "event"
    },
    {
      "anonymous": false,
      "inputs": [
        {
          "indexed": false,
          "internalType": "uint8",
          "name": "version",
          "type": "uint8"
        }
      ],
      "name": "Initialized",
      "type": "event"
    },
    {
      "anonymous": false,
      "inputs": [
        {
          "indexed": true,
          "internalType": "uint256",
          "name": "id",
          "type": "uint256"
        },
        {
          "indexed": true,
          "internalType": "uint256",
          "name": "pid",
          "type": "uint256"
        },
        {
          "indexed": false,
          "internalType": "uint256",
          "name": "amount",
          "type": "uint256"
        }
      ],
      "name": "Minted",
      "type": "event"
    },
    {
      "anonymous": false,
      "inputs": [
        {
          "indexed": true,
          "internalType": "address",
          "name": "previousOwner",
          "type": "address"
        },
        {
          "indexed": true,
          "internalType": "address",
          "name": "newOwner",
          "type": "address"
        }
      ],
      "name": "OwnershipTransferStarted",
      "type": "event"
    },
    {
      "anonymous": false,
      "inputs": [
        {
          "indexed": true,
          "internalType": "address",
          "name": "previousOwner",
          "type": "address"
        },
        {
          "indexed": true,
          "internalType": "address",
          "name": "newOwner",
          "type": "address"
        }
      ],
      "name": "OwnershipTransferred",
      "type": "event"
    },
    {
      "anonymous": false,
      "inputs": [
        {
          "indexed": true,
          "internalType": "address",
          "name": "operator",
          "type": "address"
        },
        {
          "indexed": true,
          "internalType": "address",
          "name": "from",
          "type": "address"
        },
        {
          "indexed": true,
          "internalType": "address",
          "name": "to",
          "type": "address"
        },
        {
          "indexed": false,
          "internalType": "uint256[]",
          "name": "ids",
          "type": "uint256[]"
        },
        {
          "indexed": false,
          "internalType": "uint256[]",
          "name": "values",
          "type": "uint256[]"
        }
      ],
      "name": "TransferBatch",
      "type": "event"
    },
    {
      "anonymous": false,
      "inputs": [
        {
          "indexed": true,
          "internalType": "address",
          "name": "operator",
          "type": "address"
        },
        {
          "indexed": true,
          "internalType": "address",
          "name": "from",
          "type": "address"
        },
        {
          "indexed": true,
          "internalType": "address",
          "name": "to",
          "type": "address"
        },
        {
          "indexed": false,
          "internalType": "uint256",
          "name": "id",
          "type": "uint256"
        },
        {
          "indexed": false,
          "internalType": "uint256",
          "name": "value",
          "type": "uint256"
        }
      ],
      "name": "TransferSingle",
      "type": "event"
    },
    {
      "anonymous": false,
      "inputs": [
        {
          "indexed": false,
          "internalType": "string",
          "name": "value",
          "type": "string"
        },
        {
          "indexed": true,
          "internalType": "uint256",
          "name": "id",
          "type": "uint256"
        }
      ],
      "name": "URI",
      "type": "event"
    },
    {
      "inputs": [],
      "name": "acceptOwnership",
      "outputs": [],
      "stateMutability": "nonpayable",
      "type": "function"
    },
    {
      "inputs": [
        {
          "internalType": "address",
          "name": "account",
          "type": "address"
        },
        {
          "internalType": "uint256",
          "name": "id",
          "type": "uint256"
        }
      ],
      "name": "balanceOf",
      "outputs": [
        {
          "internalType": "uint256",
          "name": "",
          "type": "uint256"
        }
      ],
      "stateMutability": "view",
      "type": "function"
    },
    {
      "inputs": [
        {
          "internalType": "address[]",
          "name": "accounts",
          "type": "address[]"
        },
        {
          "internalType": "uint256[]",
          "name": "ids",
          "type": "uint256[]"
        }
      ],
      "name": "balanceOfBatch",
      "outputs": [
        {
          "internalType": "uint256[]",
          "name": "",
          "type": "uint256[]"
        }
      ],
      "stateMutability": "view",
      "type": "function"
    },
    {
      "inputs": [
        {
          "internalType": "uint256",
          "name": "id",
          "type": "uint256"
        },
        {
          "internalType": "uint256",
          "name": "amount",
          "type": "uint256"
        }
      ],
      "name": "burn",
      "outputs": [
        {
          "internalType": "address[]",
          "name": "rewardTokens",
          "type": "address[]"
        },
        {
          "internalType": "uint256[]",
          "name": "rewards",
          "type": "uint256[]"
        }
      ],
      "stateMutability": "nonpayable",
      "type": "function"
    },
    {
      "inputs": [
        {
          "internalType": "uint256",
          "name": "id",
          "type": "uint256"
        }
      ],
      "name": "decodeId",
      "outputs": [
        {
          "internalType": "uint256",
          "name": "pid",
          "type": "uint256"
        },
        {
          "internalType": "uint256",
          "name": "cvxPerShare",
          "type": "uint256"
        }
      ],
      "stateMutability": "pure",
      "type": "function"
    },
    {
      "inputs": [
        {
          "internalType": "uint256",
          "name": "pid",
          "type": "uint256"
        },
        {
          "internalType": "uint256",
          "name": "cvxPerShare",
          "type": "uint256"
        }
      ],
      "name": "encodeId",
      "outputs": [
        {
          "internalType": "uint256",
          "name": "id",
          "type": "uint256"
        }
      ],
      "stateMutability": "pure",
      "type": "function"
    },
    {
      "inputs": [
        {
          "internalType": "uint256",
          "name": "pid",
          "type": "uint256"
        }
      ],
      "name": "extraRewardsLength",
      "outputs": [
        {
          "internalType": "uint256",
          "name": "",
          "type": "uint256"
        }
      ],
      "stateMutability": "view",
      "type": "function"
    },
    {
      "inputs": [],
      "name": "getCvxBooster",
      "outputs": [
        {
          "internalType": "contract ICvxBooster",
          "name": "",
          "type": "address"
        }
      ],
      "stateMutability": "view",
      "type": "function"
    },
    {
      "inputs": [],
      "name": "getCvxToken",
      "outputs": [
        {
          "internalType": "contract IConvex",
          "name": "",
          "type": "address"
        }
      ],
      "stateMutability": "view",
      "type": "function"
    },
    {
      "inputs": [
        {
          "internalType": "uint256",
          "name": "pid",
          "type": "uint256"
        }
      ],
      "name": "getEscrow",
      "outputs": [
        {
          "internalType": "address",
          "name": "escrowAddress",
          "type": "address"
        }
      ],
      "stateMutability": "view",
      "type": "function"
    },
    {
      "inputs": [],
      "name": "getEscrowFactory",
      "outputs": [
        {
          "internalType": "contract IPoolEscrowFactory",
          "name": "",
          "type": "address"
        }
      ],
      "stateMutability": "view",
      "type": "function"
    },
    {
      "inputs": [
        {
          "internalType": "uint256",
          "name": "pid",
          "type": "uint256"
        },
        {
          "internalType": "uint256",
          "name": "index",
          "type": "uint256"
        }
      ],
      "name": "getExtraRewarder",
      "outputs": [
        {
          "internalType": "address",
          "name": "",
          "type": "address"
        }
      ],
      "stateMutability": "view",
      "type": "function"
    },
    {
      "inputs": [
        {
          "internalType": "uint256",
          "name": "tokenId",
          "type": "uint256"
        },
        {
          "internalType": "address",
          "name": "token",
          "type": "address"
        }
      ],
      "name": "getInitialTokenPerShare",
      "outputs": [
        {
          "internalType": "uint256",
          "name": "",
          "type": "uint256"
        }
      ],
      "stateMutability": "view",
      "type": "function"
    },
    {
      "inputs": [
        {
          "internalType": "uint256",
          "name": "pid",
          "type": "uint256"
        }
      ],
      "name": "getPoolInfoFromPoolId",
      "outputs": [
        {
          "internalType": "address",
          "name": "lptoken",
          "type": "address"
        },
        {
          "internalType": "address",
          "name": "token",
          "type": "address"
        },
        {
          "internalType": "address",
          "name": "gauge",
          "type": "address"
        },
        {
          "internalType": "address",
          "name": "crvRewards",
          "type": "address"
        },
        {
          "internalType": "address",
          "name": "stash",
          "type": "address"
        },
        {
          "internalType": "bool",
          "name": "shutdown",
          "type": "bool"
        }
      ],
      "stateMutability": "view",
      "type": "function"
    },
    {
      "inputs": [
        {
          "internalType": "uint256",
          "name": "id",
          "type": "uint256"
        }
      ],
      "name": "getUnderlyingToken",
      "outputs": [
        {
          "internalType": "address",
          "name": "uToken",
          "type": "address"
        }
      ],
      "stateMutability": "view",
      "type": "function"
    },
    {
      "inputs": [
        {
          "internalType": "address",
          "name": "cvx",
          "type": "address"
        },
        {
          "internalType": "address",
          "name": "cvxBooster",
          "type": "address"
        },
        {
          "internalType": "address",
          "name": "escrowFactory",
          "type": "address"
        },
        {
          "internalType": "address",
          "name": "owner",
          "type": "address"
        }
      ],
      "name": "initialize",
      "outputs": [],
      "stateMutability": "nonpayable",
      "type": "function"
    },
    {
      "inputs": [
        {
          "internalType": "address",
          "name": "account",
          "type": "address"
        },
        {
          "internalType": "address",
          "name": "operator",
          "type": "address"
        }
      ],
      "name": "isApprovedForAll",
      "outputs": [
        {
          "internalType": "bool",
          "name": "",
          "type": "bool"
        }
      ],
      "stateMutability": "view",
      "type": "function"
    },
    {
      "inputs": [
        {
          "internalType": "uint256",
          "name": "pid",
          "type": "uint256"
        },
        {
          "internalType": "uint256",
          "name": "amount",
          "type": "uint256"
        }
      ],
      "name": "mint",
      "outputs": [
        {
          "internalType": "uint256",
          "name": "id",
          "type": "uint256"
        }
      ],
      "stateMutability": "nonpayable",
      "type": "function"
    },
    {
      "inputs": [],
      "name": "owner",
      "outputs": [
        {
          "internalType": "address",
          "name": "",
          "type": "address"
        }
      ],
      "stateMutability": "view",
      "type": "function"
    },
    {
      "inputs": [],
      "name": "pendingOwner",
      "outputs": [
        {
          "internalType": "address",
          "name": "",
          "type": "address"
        }
      ],
      "stateMutability": "view",
      "type": "function"
    },
    {
      "inputs": [
        {
          "internalType": "uint256",
          "name": "tokenId",
          "type": "uint256"
        },
        {
          "internalType": "uint256",
          "name": "amount",
          "type": "uint256"
        }
      ],
      "name": "pendingRewards",
      "outputs": [
        {
          "internalType": "address[]",
          "name": "tokens",
          "type": "address[]"
        },
        {
          "internalType": "uint256[]",
          "name": "rewards",
          "type": "uint256[]"
        }
      ],
      "stateMutability": "view",
      "type": "function"
    },
    {
      "inputs": [],
      "name": "renounceOwnership",
      "outputs": [],
      "stateMutability": "nonpayable",
      "type": "function"
    },
    {
      "inputs": [
        {
          "internalType": "address",
          "name": "from",
          "type": "address"
        },
        {
          "internalType": "address",
          "name": "to",
          "type": "address"
        },
        {
          "internalType": "uint256[]",
          "name": "ids",
          "type": "uint256[]"
        },
        {
          "internalType": "uint256[]",
          "name": "amounts",
          "type": "uint256[]"
        },
        {
          "internalType": "bytes",
          "name": "data",
          "type": "bytes"
        }
      ],
      "name": "safeBatchTransferFrom",
      "outputs": [],
      "stateMutability": "nonpayable",
      "type": "function"
    },
    {
      "inputs": [
        {
          "internalType": "address",
          "name": "from",
          "type": "address"
        },
        {
          "internalType": "address",
          "name": "to",
          "type": "address"
        },
        {
          "internalType": "uint256",
          "name": "id",
          "type": "uint256"
        },
        {
          "internalType": "uint256",
          "name": "amount",
          "type": "uint256"
        },
        {
          "internalType": "bytes",
          "name": "data",
          "type": "bytes"
        }
      ],
      "name": "safeTransferFrom",
      "outputs": [],
      "stateMutability": "nonpayable",
      "type": "function"
    },
    {
      "inputs": [
        {
          "internalType": "address",
          "name": "operator",
          "type": "address"
        },
        {
          "internalType": "bool",
          "name": "approved",
          "type": "bool"
        }
      ],
      "name": "setApprovalForAll",
      "outputs": [],
      "stateMutability": "nonpayable",
      "type": "function"
    },
    {
      "inputs": [
        {
          "internalType": "bytes4",
          "name": "interfaceId",
          "type": "bytes4"
        }
      ],
      "name": "supportsInterface",
      "outputs": [
        {
          "internalType": "bool",
          "name": "",
          "type": "bool"
        }
      ],
      "stateMutability": "view",
      "type": "function"
    },
    {
      "inputs": [
        {
          "internalType": "address",
          "name": "newOwner",
          "type": "address"
        }
      ],
      "name": "transferOwnership",
      "outputs": [],
      "stateMutability": "nonpayable",
      "type": "function"
    },
    {
      "inputs": [
        {
          "internalType": "uint256",
          "name": "",
          "type": "uint256"
        }
      ],
      "name": "uri",
      "outputs": [
        {
          "internalType": "string",
          "name": "",
          "type": "string"
        }
      ],
      "stateMutability": "view",
      "type": "function"
    }
  ],
  "bytecode": "0x60806040523480156200001157600080fd5b506200001c62000022565b620000e3565b600054610100900460ff16156200008f5760405162461bcd60e51b815260206004820152602760248201527f496e697469616c697a61626c653a20636f6e747261637420697320696e697469604482015266616c697a696e6760c81b606482015260840160405180910390fd5b60005460ff90811614620000e1576000805460ff191660ff9081179091556040519081527f7f26b83ff96e1f2b6a682f133852f6798a09c465da95921460cefb38474024989060200160405180910390a15b565b613a8b80620000f36000396000f3fe608060405234801561001057600080fd5b50600436106101c35760003560e01c80637d19e596116100f9578063dc20c6fa11610097578063f22b4d2a11610071578063f22b4d2a1461047b578063f242432a146104b2578063f2fde38b146104c5578063f8c8765e146104d857600080fd5b8063dc20c6fa146103f7578063e30c39781461042e578063e985e9c51461043f57600080fd5b8063a4775772116100d3578063a4775772146103ab578063b390c0ab146103be578063b4b7aab8146103d1578063b64d89a8146103e457600080fd5b80637d19e5961461035d5780638da5cb5b14610387578063a22cb4651461039857600080fd5b80635ba2f9091161016657806373854eb11161014057806373854eb11461030b57806379ba5097146103315780637ade5765146103395780637bfd553f1461034b57600080fd5b80635ba2f9091461028c5780635ef819ce146102e2578063715018a61461030357600080fd5b80631b2ef1ca116101a25780631b2ef1ca1461023157806329f2b5bd146102445780632eb2c2d6146102575780634e1273f41461026c57600080fd5b8062fdd58e146101c857806301ffc9a7146101ee5780630e89341c14610211575b600080fd5b6101db6101d6366004612d7b565b6104eb565b6040519081526020015b60405180910390f35b6102016101fc366004612dbd565b610586565b60405190151581526020016101e5565b61022461021f366004612dda565b6105d6565b6040516101e59190612e43565b6101db61023f366004612e56565b61066a565b6101db610252366004612e56565b6109e9565b61026a610265366004612fc9565b610a43565b005b61027f61027a366004613077565b610a8f565b6040516101e59190613180565b61029f61029a366004612dda565b610bb1565b604080516001600160a01b0397881681529587166020870152938616938501939093529084166060840152909216608082015290151560a082015260c0016101e5565b6102f56102f0366004612e56565b610c4f565b6040516101e5929190613193565b61026a611024565b61012d546001600160a01b03165b6040516001600160a01b0390911681526020016101e5565b61026a611038565b61012f546001600160a01b0316610319565b61012e546001600160a01b0316610319565b61031961036b366004612dda565b600090815261013460205260409020546001600160a01b031690565b60c9546001600160a01b0316610319565b61026a6103a6366004613202565b6110b2565b6103196103b9366004612dda565b6110c1565b6102f56103cc366004612e56565b6110de565b6103196103df366004612e56565b6112cb565b6101db6103f2366004612dda565b6112eb565b610419610405366004612dda565b60f081901c916001600160f01b0390911690565b604080519283526020830191909152016101e5565b60fb546001600160a01b0316610319565b61020161044d36600461323b565b6001600160a01b03918216600090815260666020908152604080832093909416825291909152205460ff1690565b6101db610489366004613269565b6000918252610130602090815260408084206001600160a01b0393909316845291905290205490565b61026a6104c036600461328e565b611303565b61026a6104d33660046132f7565b611348565b61026a6104e6366004613314565b6113b9565b60006001600160a01b03831661055b5760405162461bcd60e51b815260206004820152602a60248201527f455243313135353a2061646472657373207a65726f206973206e6f742061207660448201526930b634b21037bbb732b960b11b60648201526084015b60405180910390fd5b5060008181526065602090815260408083206001600160a01b03861684529091529020545b92915050565b60006001600160e01b03198216636cdb3d1360e11b14806105b757506001600160e01b031982166303a24d0760e21b145b8061058057506301ffc9a760e01b6001600160e01b0319831614610580565b6060606780546105e590613370565b80601f016020809104026020016040519081016040528092919081815260200182805461061190613370565b801561065e5780601f106106335761010080835404028352916020019161065e565b820191906000526020600020905b81548152906001019060200180831161064157829003601f168201915b50505050509050919050565b600061067461159a565b60008061068085610bb1565b505093505050915060006106aa86600090815261013460205260409020546001600160a01b031690565b90506001600160a01b0381166107705761012f5461012d54604051636f7f634960e01b8152600481018990526001600160a01b03918216602482015284821660448201528582166064820152911690636f7f6349906084016020604051808303816000875af1158015610721573d6000803e3d6000fd5b505050506040513d601f19601f8201168201806040525081019061074591906133aa565b60008781526101346020526040902080546001600160a01b0319166001600160a01b03831617905590505b6107856001600160a01b0384163383886115f3565b61078e86611653565b60405163b6b55f2560e01b8152600481018690526001600160a01b0382169063b6b55f2590602401600060405180830381600087803b1580156107d057600080fd5b505af11580156107e4573d6000803e3d6000fd5b505050506000826001600160a01b031663cd3daf9d6040518163ffffffff1660e01b8152600401602060405180830381865afa158015610828573d6000803e3d6000fd5b505050506040513d601f19601f8201168201806040525081019061084c91906133c7565b905061085887826109e9565b945061087533868860405180602001604052806000815250611947565b6000836001600160a01b031663d55a23f46040518163ffffffff1660e01b8152600401602060405180830381865afa1580156108b5573d6000803e3d6000fd5b505050506040513d601f19601f820116820180604052508101906108d991906133c7565b905060005b8181101561097c57604051632061aa2360e11b8152600481018290526000906001600160a01b038716906340c3544690602401602060405180830381865afa15801561092e573d6000803e3d6000fd5b505050506040513d601f19601f8201168201806040525081019061095291906133aa565b905060006109618b8a84611a54565b905080610972576109728983611a9b565b50506001016108de565b5060008881526101316020908152604080832054898452610132909252918290205551889087907f488bbf7ce8682b98371a0bb07d4e838ce2e533a907ceda8ac6ee658fdbd162e0906109d2908b815260200190565b60405180910390a350505050506105806001609755565b6000620100008310610a115760405163412c53f960e01b815260048101849052602401610552565b600160f01b8210610a385760405163065444c360e11b815260048101839052602401610552565b5060f09190911b1790565b6001600160a01b038516331480610a5f5750610a5f853361044d565b610a7b5760405162461bcd60e51b8152600401610552906133e0565b610a888585858585611b42565b5050505050565b60608151835114610af45760405162461bcd60e51b815260206004820152602960248201527f455243313135353a206163636f756e747320616e6420696473206c656e677468604482015268040dad2e6dac2e8c6d60bb1b6064820152608401610552565b6000835167ffffffffffffffff811115610b1057610b10612e78565b604051908082528060200260200182016040528015610b39578160200160208202803683370190505b50905060005b8451811015610ba957610b84858281518110610b5d57610b5d61342e565b6020026020010151858381518110610b7757610b7761342e565b60200260200101516104eb565b828281518110610b9657610b9661342e565b6020908102919091010152600101610b3f565b509392505050565b600080600080600080610bcd61012d546001600160a01b031690565b6001600160a01b0316631526fe27886040518263ffffffff1660e01b8152600401610bfa91815260200190565b60c060405180830381865afa158015610c17573d6000803e3d6000fd5b505050506040513d601f19601f82011682018060405250810190610c3b9190613444565b949c939b5091995097509550909350915050565b60608060f084901c6001600160f01b038516600080610c6d84610bb1565b50509350505091506000826001600160a01b031663313ce5676040518163ffffffff1660e01b8152600401602060405180830381865afa158015610cb5573d6000803e3d6000fd5b505050506040513d601f19601f82011682018060405250810190610cd991906134cb565b60ff1690506000610ce9866112eb565b9050610cf6816002613504565b67ffffffffffffffff811115610d0e57610d0e612e78565b604051908082528060200260200182016040528015610d37578160200160208202803683370190505b509750610d45816002613504565b67ffffffffffffffff811115610d5d57610d5d612e78565b604051908082528060200260200182016040528015610d86578160200160208202803683370190505b509650826001600160a01b031663f7c618c16040518163ffffffff1660e01b8152600401602060405180830381865afa158015610dc7573d6000803e3d6000fd5b505050506040513d601f19601f82011682018060405250810190610deb91906133aa565b88600081518110610dfe57610dfe61342e565b60200260200101906001600160a01b031690816001600160a01b031681525050610e2a85848b85611d1b565b87600081518110610e3d57610e3d61342e565b602090810291909101015261012e5488516001600160a01b039091169089906001908110610e6d57610e6d61342e565b60200260200101906001600160a01b031690816001600160a01b031681525050610e9886868b611dc8565b87600181518110610eab57610eab61342e565b60200260200101818152505060005b81811015611016576000610ece88836112cb565b60008d8152610130602090815260408083206001600160a01b0385168085529083529281902054815163f7c618c160e01b815291519495509363f7c618c1926004808401939192918290030181865afa158015610f2f573d6000803e3d6000fd5b505050506040513d601f19601f82011682018060405250810190610f5391906133aa565b8b610f5f856002613504565b81518110610f6f57610f6f61342e565b60200260200101906001600160a01b031690816001600160a01b03168152505080600003610fc65760008a610fa5856002613504565b81518110610fb557610fb561342e565b60200260200101818152505061100c565b610fe36000198214610fd85781610fdb565b60005b838e88611d1b565b8a610fef856002613504565b81518110610fff57610fff61342e565b6020026020010181815250505b5050600101610eba565b505050505050509250929050565b61102c611fb3565b611036600061200d565b565b60fb5433906001600160a01b031681146110a65760405162461bcd60e51b815260206004820152602960248201527f4f776e61626c6532537465703a2063616c6c6572206973206e6f7420746865206044820152683732bb9037bbb732b960b91b6064820152608401610552565b6110af8161200d565b50565b6110bd338383612026565b5050565b600060f082901c6110d181610bb1565b5093979650505050505050565b6060806110e961159a565b60f084901c600081815261013460205260409020546001600160a01b03168061111457611114613517565b600019850361112a5761112733876104eb565b94505b61113382611653565b61113d8686610c4f565b909450925061114d338787612106565b60405163c3356ad160e01b8152600481018690523360248201526001600160a01b0382169063c3356ad190604401600060405180830381600087803b15801561119557600080fd5b505af11580156111a9573d6000803e3d6000fd5b505085519150600090505b8181101561127b5760008682815181106111d0576111d061342e565b60200260200101519050836001600160a01b031663f5537ede82338986815181106111fd576111fd61342e565b60209081029190910101516040516001600160e01b031960e086901b1681526001600160a01b0393841660048201529290911660248301526044820152606401600060405180830381600087803b15801561125757600080fd5b505af115801561126b573d6000803e3d6000fd5b50505050508060010190506111b4565b5082877f82ac44fe03cbf84203fdc07400a8a763498cf2ccaa9788e23b09d56f4fc85f72886040516112af91815260200190565b60405180910390a35050506112c46001609755565b9250929050565b6000828152610135602052604081206112e49083612285565b9392505050565b60008181526101356020526040812061058090612291565b6001600160a01b03851633148061131f575061131f853361044d565b61133b5760405162461bcd60e51b8152600401610552906133e0565b610a88858585858561229b565b611350611fb3565b60fb80546001600160a01b0383166001600160a01b0319909116811790915561138160c9546001600160a01b031690565b6001600160a01b03167f38d16b8cac22d99fc7c124b9cd0de2d3fa1faef420bfe791d8c362d765e2270060405160405180910390a350565b600054610100900460ff16158080156113d95750600054600160ff909116105b806113f35750303b1580156113f3575060005460ff166001145b6114565760405162461bcd60e51b815260206004820152602e60248201527f496e697469616c697a61626c653a20636f6e747261637420697320616c72656160448201526d191e481a5b9a5d1a585b1a5e995960921b6064820152608401610552565b6000805460ff191660011790558015611479576000805461ff0019166101001790555b6001600160a01b038516158061149657506001600160a01b038416155b806114a857506001600160a01b038316155b156114c65760405163538ba4f960e01b815260040160405180910390fd5b6114ce6123c9565b6114d78261200d565b6114df6123f8565b61150e6040518060400160405280600e81526020016d3ba1b7b73b32bc2137b7b9ba32b960911b815250612427565b61012f80546001600160a01b038086166001600160a01b03199283161790925561012e805488841690831617905561012d8054928716929091169190911790558015610a88576000805461ff0019169055604051600181527f7f26b83ff96e1f2b6a682f133852f6798a09c465da95921460cefb38474024989060200160405180910390a15050505050565b6002609754036115ec5760405162461bcd60e51b815260206004820152601f60248201527f5265656e7472616e637947756172643a207265656e7472616e742063616c6c006044820152606401610552565b6002609755565b604080516001600160a01b0385811660248301528416604482015260648082018490528251808303909101815260849091019091526020810180516001600160e01b03166323b872dd60e01b17905261164d908590612457565b50505050565b600061166861012e546001600160a01b031690565b600083815261013460205260408120549192506001600160a01b039091169061169084610bb1565b50506040516370a0823160e01b81526001600160a01b0387811660048301529195506000945090851692506370a082319150602401602060405180830381865afa1580156116e2573d6000803e3d6000fd5b505050506040513d601f19601f8201168201806040525081019061170691906133c7565b9050816001600160a01b031663cd3daf9d6040518163ffffffff1660e01b8152600401602060405180830381865afa158015611746573d6000803e3d6000fd5b505050506040513d601f19601f8201168201806040525081019061176a91906133c7565b6000868152610133602052604081209190915581900361178b575050505050565b6040516370a0823160e01b81526001600160a01b038481166004830152600091908616906370a0823190602401602060405180830381865afa1580156117d5573d6000803e3d6000fd5b505050506040513d601f19601f820116820180604052508101906117f991906133c7565b604051637050ccd960e01b81526001600160a01b0386811660048301526000602483015291925090841690637050ccd9906044016020604051808303816000875af115801561184c573d6000803e3d6000fd5b505050506040513d601f19601f82011682018060405250810190611870919061352d565b506040516370a0823160e01b81526001600160a01b03858116600483015260009183918816906370a0823190602401602060405180830381865afa1580156118bc573d6000803e3d6000fd5b505050506040513d601f19601f820116820180604052508101906118e091906133c7565b6118ea919061354a565b90506118f68786612531565b801561193e578261190f670de0b6b3a76400008361355d565b6119199190613574565b6000888152610131602052604081208054909190611938908490613504565b90915550505b50505050505050565b6001600160a01b0384166119a75760405162461bcd60e51b815260206004820152602160248201527f455243313135353a206d696e7420746f20746865207a65726f206164647265736044820152607360f81b6064820152608401610552565b3360006119b3856125da565b905060006119c0856125da565b905060008681526065602090815260408083206001600160a01b038b168452909152812080548792906119f4908490613504565b909155505060408051878152602081018790526001600160a01b03808a1692600092918716917fc3d58168c5ae7397731d063d5bbf3d657854427343f4c083240f7aacaa2d0f62910160405180910390a461193e83600089898989612625565b600083815261013560205260408120611a6d8184612780565b611a9057611a7b81846127a2565b50611a868484611a9b565b60019150506112e4565b506000949350505050565b6000816001600160a01b031663cd3daf9d6040518163ffffffff1660e01b8152600401602060405180830381865afa158015611adb573d6000803e3d6000fd5b505050506040513d601f19601f82011682018060405250810190611aff91906133c7565b90508015611b0d5780611b11565b6000195b6000938452610130602090815260408086206001600160a01b039095168652939052919092205550565b6001609755565b8151835114611ba45760405162461bcd60e51b815260206004820152602860248201527f455243313135353a2069647320616e6420616d6f756e7473206c656e677468206044820152670dad2e6dac2e8c6d60c31b6064820152608401610552565b6001600160a01b038416611bca5760405162461bcd60e51b815260040161055290613596565b3360005b8451811015611cad576000858281518110611beb57611beb61342e565b602002602001015190506000858381518110611c0957611c0961342e565b60209081029190910181015160008481526065835260408082206001600160a01b038e168352909352919091205490915081811015611c5a5760405162461bcd60e51b8152600401610552906135db565b60008381526065602090815260408083206001600160a01b038e8116855292528083208585039055908b16825281208054849290611c99908490613504565b909155505060019093019250611bce915050565b50846001600160a01b0316866001600160a01b0316826001600160a01b03167f4a39dc06d4c0dbc64b70af90fd698a233a518aa5d07e595d983b8c0526c8f7fb8787604051611cfd929190613625565b60405180910390a4611d138187878787876127b7565b505050505050565b600080846001600160a01b031663cd3daf9d6040518163ffffffff1660e01b8152600401602060405180830381865afa158015611d5c573d6000803e3d6000fd5b505050506040513d601f19601f82011682018060405250810190611d8091906133c7565b90506000868211611d92576000611d9c565b611d9c878361354a565b9050611da984600a613737565b611db3868361355d565b611dbd9190613574565b979650505050505050565b600083815261013460205260408120546001600160a01b03168180611dec87610bb1565b50506040516370a0823160e01b81526001600160a01b038881166004830152949650909450600093851692506370a082319150602401602060405180830381865afa158015611e3f573d6000803e3d6000fd5b505050506040513d601f19601f82011682018060405250810190611e6391906133c7565b905080600003611e7a5760009450505050506112e4565b60006101326000611e8b8b8b6109e9565b81526020019081526020016000205461013160008b815260200190815260200160002054611eb9919061354a565b60008a81526101336020908152604080832054815163313ce56760e01b81529151949550936001600160a01b0389169263313ce56792600480820193918290030181865afa158015611f0f573d6000803e3d6000fd5b505050506040513d601f19601f82011682018060405250810190611f3391906134cb565b60ff1690506000611f4683878785611d1b565b90508015611f86576000611f5982612872565b905085611f6e670de0b6b3a76400008361355d565b611f789190613574565b611f829086613504565b9450505b670de0b6b3a7640000611f998b8661355d565b611fa39190613574565b9c9b505050505050505050505050565b60c9546001600160a01b031633146110365760405162461bcd60e51b815260206004820181905260248201527f4f776e61626c653a2063616c6c6572206973206e6f7420746865206f776e65726044820152606401610552565b60fb80546001600160a01b03191690556110af81612aa2565b816001600160a01b0316836001600160a01b0316036120995760405162461bcd60e51b815260206004820152602960248201527f455243313135353a2073657474696e6720617070726f76616c20737461747573604482015268103337b91039b2b63360b91b6064820152608401610552565b6001600160a01b03838116600081815260666020908152604080832094871680845294825291829020805460ff191686151590811790915591519182527f17307eab39ab6107e8899845ad3d59bd9653f200f220920489ca2b5937696c31910160405180910390a3505050565b6001600160a01b0383166121685760405162461bcd60e51b815260206004820152602360248201527f455243313135353a206275726e2066726f6d20746865207a65726f206164647260448201526265737360e81b6064820152608401610552565b336000612174846125da565b90506000612181846125da565b6040805160208082018352600091829052888252606581528282206001600160a01b038b168352905220549091508481101561220b5760405162461bcd60e51b8152602060048201526024808201527f455243313135353a206275726e20616d6f756e7420657863656564732062616c604482015263616e636560e01b6064820152608401610552565b60008681526065602090815260408083206001600160a01b038b81168086529184528285208a8703905582518b81529384018a90529092908816917fc3d58168c5ae7397731d063d5bbf3d657854427343f4c083240f7aacaa2d0f62910160405180910390a460408051602081019091526000905261193e565b60006112e48383612af4565b6000610580825490565b6001600160a01b0384166122c15760405162461bcd60e51b815260040161055290613596565b3360006122cd856125da565b905060006122da856125da565b905060008681526065602090815260408083206001600160a01b038c1684529091529020548581101561231f5760405162461bcd60e51b8152600401610552906135db565b60008781526065602090815260408083206001600160a01b038d8116855292528083208985039055908a1682528120805488929061235e908490613504565b909155505060408051888152602081018890526001600160a01b03808b16928c821692918816917fc3d58168c5ae7397731d063d5bbf3d657854427343f4c083240f7aacaa2d0f62910160405180910390a46123be848a8a8a8a8a612625565b505050505050505050565b600054610100900460ff166123f05760405162461bcd60e51b815260040161055290613743565b611036612b1e565b600054610100900460ff1661241f5760405162461bcd60e51b815260040161055290613743565b611036612b4e565b600054610100900460ff1661244e5760405162461bcd60e51b815260040161055290613743565b6110af81612b75565b60006124ac826040518060400160405280602081526020017f5361666545524332303a206c6f772d6c6576656c2063616c6c206661696c6564815250856001600160a01b0316612ba59092919063ffffffff16565b90508051600014806124cd5750808060200190518101906124cd919061352d565b61252c5760405162461bcd60e51b815260206004820152602a60248201527f5361666545524332303a204552433230206f7065726174696f6e20646964206e6044820152691bdd081cdd58d8d9595960b21b6064820152608401610552565b505050565b60008281526101356020526040812061254990612291565b905060005b8181101561164d5760008481526101356020526040812061256f9083612285565b604051630c00007b60e41b81526001600160a01b0386811660048301529192509082169063c00007b090602401600060405180830381600087803b1580156125b657600080fd5b505af11580156125ca573d6000803e3d6000fd5b505050505080600101905061254e565b604080516001808252818301909252606091600091906020808301908036833701905050905082816000815181106126145761261461342e565b602090810291909101015292915050565b6001600160a01b0384163b15611d135760405163f23a6e6160e01b81526001600160a01b0385169063f23a6e6190612669908990899088908890889060040161378e565b6020604051808303816000875af19250505080156126a4575060408051601f3d908101601f191682019092526126a1918101906137c8565b60015b612750576126b06137e5565b806308c379a0036126e957506126c4613801565b806126cf57506126eb565b8060405162461bcd60e51b81526004016105529190612e43565b505b60405162461bcd60e51b815260206004820152603460248201527f455243313135353a207472616e7366657220746f206e6f6e2d455243313135356044820152732932b1b2b4bb32b91034b6b83632b6b2b73a32b960611b6064820152608401610552565b6001600160e01b0319811663f23a6e6160e01b1461193e5760405162461bcd60e51b81526004016105529061388b565b6001600160a01b038116600090815260018301602052604081205415156112e4565b60006112e4836001600160a01b038416612bbc565b6001600160a01b0384163b15611d135760405163bc197c8160e01b81526001600160a01b0385169063bc197c81906127fb90899089908890889088906004016138d3565b6020604051808303816000875af1925050508015612836575060408051601f3d908101601f19168201909252612833918101906137c8565b60015b612842576126b06137e5565b6001600160e01b0319811663bc197c8160e01b1461193e5760405162461bcd60e51b81526004016105529061388b565b60008160000361288457506000919050565b600061289961012e546001600160a01b031690565b90506000816001600160a01b0316631f96e76f6040518163ffffffff1660e01b8152600401602060405180830381865afa1580156128db573d6000803e3d6000fd5b505050506040513d601f19601f820116820180604052508101906128ff91906133c7565b90506000826001600160a01b03166318160ddd6040518163ffffffff1660e01b8152600401602060405180830381865afa158015612941573d6000803e3d6000fd5b505050506040513d601f19601f8201168201806040525081019061296591906133c7565b90506000836001600160a01b031663d5abeb016040518163ffffffff1660e01b8152600401602060405180830381865afa1580156129a7573d6000803e3d6000fd5b505050506040513d601f19601f820116820180604052508101906129cb91906133c7565b90506000846001600160a01b031663aa74e6226040518163ffffffff1660e01b8152600401602060405180830381865afa158015612a0d573d6000803e3d6000fd5b505050506040513d601f19601f82011682018060405250810190612a3191906133c7565b90506000612a3f8285613574565b905083600003612a4d578796505b84811015612a97576000612a61828761354a565b905085612a6e828b61355d565b612a789190613574565b97506000612a86868661354a565b905080891115612a94578098505b50505b505050505050919050565b60c980546001600160a01b038381166001600160a01b0319831681179093556040519116919082907f8be0079c531659141344cd1fd0a4f28419497f9722a3daafe3b4186f6b6457e090600090a35050565b6000826000018281548110612b0b57612b0b61342e565b9060005260206000200154905092915050565b600054610100900460ff16612b455760405162461bcd60e51b815260040161055290613743565b6110363361200d565b600054610100900460ff16611b3b5760405162461bcd60e51b815260040161055290613743565b600054610100900460ff16612b9c5760405162461bcd60e51b815260040161055290613743565b6110af81612c0b565b6060612bb48484600085612c17565b949350505050565b6000818152600183016020526040812054612c0357508154600181810184556000848152602080822090930184905584548482528286019093526040902091909155610580565b506000610580565b60676110bd8282613979565b606082471015612c785760405162461bcd60e51b815260206004820152602660248201527f416464726573733a20696e73756666696369656e742062616c616e636520666f6044820152651c8818d85b1b60d21b6064820152608401610552565b600080866001600160a01b03168587604051612c949190613a39565b60006040518083038185875af1925050503d8060008114612cd1576040519150601f19603f3d011682016040523d82523d6000602084013e612cd6565b606091505b5091509150611dbd8783838760608315612d51578251600003612d4a576001600160a01b0385163b612d4a5760405162461bcd60e51b815260206004820152601d60248201527f416464726573733a2063616c6c20746f206e6f6e2d636f6e74726163740000006044820152606401610552565b5081612bb4565b612bb483838151156126cf5781518083602001fd5b6001600160a01b03811681146110af57600080fd5b60008060408385031215612d8e57600080fd5b8235612d9981612d66565b946020939093013593505050565b6001600160e01b0319811681146110af57600080fd5b600060208284031215612dcf57600080fd5b81356112e481612da7565b600060208284031215612dec57600080fd5b5035919050565b60005b83811015612e0e578181015183820152602001612df6565b50506000910152565b60008151808452612e2f816020860160208601612df3565b601f01601f19169290920160200192915050565b6020815260006112e46020830184612e17565b60008060408385031215612e6957600080fd5b50508035926020909101359150565b634e487b7160e01b600052604160045260246000fd5b601f8201601f1916810167ffffffffffffffff81118282101715612eb457612eb4612e78565b6040525050565b600067ffffffffffffffff821115612ed557612ed5612e78565b5060051b60200190565b600082601f830112612ef057600080fd5b81356020612efd82612ebb565b604051612f0a8282612e8e565b80915083815260208101915060208460051b870101935086841115612f2e57600080fd5b602086015b84811015612f4a5780358352918301918301612f33565b509695505050505050565b600082601f830112612f6657600080fd5b813567ffffffffffffffff811115612f8057612f80612e78565b604051612f97601f8301601f191660200182612e8e565b818152846020838601011115612fac57600080fd5b816020850160208301376000918101602001919091529392505050565b600080600080600060a08688031215612fe157600080fd5b8535612fec81612d66565b94506020860135612ffc81612d66565b9350604086013567ffffffffffffffff8082111561301957600080fd5b61302589838a01612edf565b9450606088013591508082111561303b57600080fd5b61304789838a01612edf565b9350608088013591508082111561305d57600080fd5b5061306a88828901612f55565b9150509295509295909350565b6000806040838503121561308a57600080fd5b823567ffffffffffffffff808211156130a257600080fd5b818501915085601f8301126130b657600080fd5b813560206130c382612ebb565b6040516130d08282612e8e565b83815260059390931b85018201928281019150898411156130f057600080fd5b948201945b8386101561311757853561310881612d66565b825294820194908201906130f5565b9650508601359250508082111561312d57600080fd5b5061313a85828601612edf565b9150509250929050565b60008151808452602080850194506020840160005b8381101561317557815187529582019590820190600101613159565b509495945050505050565b6020815260006112e46020830184613144565b604080825283519082018190526000906020906060840190828701845b828110156131d55781516001600160a01b0316845292840192908401906001016131b0565b50505083810360208501526131ea8186613144565b9695505050505050565b80151581146110af57600080fd5b6000806040838503121561321557600080fd5b823561322081612d66565b91506020830135613230816131f4565b809150509250929050565b6000806040838503121561324e57600080fd5b823561325981612d66565b9150602083013561323081612d66565b6000806040838503121561327c57600080fd5b82359150602083013561323081612d66565b600080600080600060a086880312156132a657600080fd5b85356132b181612d66565b945060208601356132c181612d66565b93506040860135925060608601359150608086013567ffffffffffffffff8111156132eb57600080fd5b61306a88828901612f55565b60006020828403121561330957600080fd5b81356112e481612d66565b6000806000806080858703121561332a57600080fd5b843561333581612d66565b9350602085013561334581612d66565b9250604085013561335581612d66565b9150606085013561336581612d66565b939692955090935050565b600181811c9082168061338457607f821691505b6020821081036133a457634e487b7160e01b600052602260045260246000fd5b50919050565b6000602082840312156133bc57600080fd5b81516112e481612d66565b6000602082840312156133d957600080fd5b5051919050565b6020808252602e908201527f455243313135353a2063616c6c6572206973206e6f7420746f6b656e206f776e60408201526d195c881bdc88185c1c1c9bdd995960921b606082015260800190565b634e487b7160e01b600052603260045260246000fd5b60008060008060008060c0878903121561345d57600080fd5b865161346881612d66565b602088015190965061347981612d66565b604088015190955061348a81612d66565b606088015190945061349b81612d66565b60808801519093506134ac81612d66565b60a08801519092506134bd816131f4565b809150509295509295509295565b6000602082840312156134dd57600080fd5b815160ff811681146112e457600080fd5b634e487b7160e01b600052601160045260246000fd5b80820180821115610580576105806134ee565b634e487b7160e01b600052600160045260246000fd5b60006020828403121561353f57600080fd5b81516112e4816131f4565b81810381811115610580576105806134ee565b8082028115828204841417610580576105806134ee565b60008261359157634e487b7160e01b600052601260045260246000fd5b500490565b60208082526025908201527f455243313135353a207472616e7366657220746f20746865207a65726f206164604082015264647265737360d81b606082015260800190565b6020808252602a908201527f455243313135353a20696e73756666696369656e742062616c616e636520666f60408201526939103a3930b739b332b960b11b606082015260800190565b6040815260006136386040830185613144565b828103602084015261364a8185613144565b95945050505050565b600181815b8085111561368e578160001904821115613674576136746134ee565b8085161561368157918102915b93841c9390800290613658565b509250929050565b6000826136a557506001610580565b816136b257506000610580565b81600181146136c857600281146136d2576136ee565b6001915050610580565b60ff8411156136e3576136e36134ee565b50506001821b610580565b5060208310610133831016604e8410600b8410161715613711575081810a610580565b61371b8383613653565b806000190482111561372f5761372f6134ee565b029392505050565b60006112e48383613696565b6020808252602b908201527f496e697469616c697a61626c653a20636f6e7472616374206973206e6f74206960408201526a6e697469616c697a696e6760a81b606082015260800190565b6001600160a01b03868116825285166020820152604081018490526060810183905260a060808201819052600090611dbd90830184612e17565b6000602082840312156137da57600080fd5b81516112e481612da7565b600060033d11156137fe5760046000803e5060005160e01c5b90565b600060443d101561380f5790565b6040516003193d81016004833e81513d67ffffffffffffffff816024840111818411171561383f57505050505090565b82850191508151818111156138575750505050505090565b843d87010160208285010111156138715750505050505090565b61388060208286010187612e8e565b509095945050505050565b60208082526028908201527f455243313135353a204552433131353552656365697665722072656a656374656040820152676420746f6b656e7360c01b606082015260800190565b6001600160a01b0386811682528516602082015260a0604082018190526000906138ff90830186613144565b82810360608401526139118186613144565b905082810360808401526139258185612e17565b98975050505050505050565b601f82111561252c576000816000526020600020601f850160051c8101602086101561395a5750805b601f850160051c820191505b81811015611d1357828155600101613966565b815167ffffffffffffffff81111561399357613993612e78565b6139a7816139a18454613370565b84613931565b602080601f8311600181146139dc57600084156139c45750858301515b600019600386901b1c1916600185901b178555611d13565b600085815260208120601f198616915b82811015613a0b578886015182559484019460019091019084016139ec565b5085821015613a295787850151600019600388901b60f8161c191681555b5050505050600190811b01905550565b60008251613a4b818460208701612df3565b919091019291505056fea2646970667358221220082f76aec32b09c896e928d5943e0d01a691880d9c4abe8f992427ad59570f3764736f6c63430008160033",
  "linkReferences": {},
  "deployedLinkReferences": {}
}