{
  "address": "0x504F2e3De65F12074a0a43399f307FeFfB186aCd",
  "abi": [
    {
      "inputs": [],
      "name": "EXCEED_DEVIATION",
      "type": "error"
    },
    {
      "inputs": [
        {
          "internalType": "uint256",
          "name": "length",
          "type": "uint256"
        }
      ],
      "name": "EXCEED_SOURCE_LEN",
      "type": "error"
    },
    {
      "inputs": [],
      "name": "INPUT_ARRAY_MISMATCH",
      "type": "error"
    },
    {
      "inputs": [
        {
          "internalType": "address",
          "name": "token",
          "type": "address"
        }
      ],
      "name": "NO_PRIMARY_SOURCE",
      "type": "error"
    },
    {
      "inputs": [
        {
          "internalType": "address",
          "name": "token",
          "type": "address"
        }
      ],
      "name": "NO_VALID_SOURCE",
      "type": "error"
    },
    {
      "inputs": [
        {
          "internalType": "uint256",
          "name": "deviation",
          "type": "uint256"
        }
      ],
      "name": "OUT_OF_DEVIATION_CAP",
      "type": "error"
    },
    {
      "inputs": [],
      "name": "ZERO_ADDRESS",
      "type": "error"
    },
    {
      "anonymous": false,
      "inputs": [
        {
          "indexed": true,
          "internalType": "address",
          "name": "previousOwner",
          "type": "address"
        },
        {
          "indexed": true,
          "internalType": "address",
          "name": "newOwner",
          "type": "address"
        }
      ],
      "name": "OwnershipTransferred",
      "type": "event"
    },
    {
      "anonymous": false,
      "inputs": [
        {
          "indexed": true,
          "internalType": "address",
          "name": "token",
          "type": "address"
        },
        {
          "indexed": false,
          "internalType": "uint256",
          "name": "maxPriceDeviation",
          "type": "uint256"
        },
        {
          "indexed": false,
          "internalType": "contract IBaseOracle[]",
          "name": "oracles",
          "type": "address[]"
        }
      ],
      "name": "SetPrimarySources",
      "type": "event"
    },
    {
      "inputs": [
        {
          "internalType": "address",
          "name": "token",
          "type": "address"
        }
      ],
      "name": "getPrice",
      "outputs": [
        {
          "internalType": "uint256",
          "name": "",
          "type": "uint256"
        }
      ],
      "stateMutability": "nonpayable",
      "type": "function"
    },
    {
      "inputs": [
        {
          "internalType": "address",
          "name": "",
          "type": "address"
        }
      ],
      "name": "maxPriceDeviations",
      "outputs": [
        {
          "internalType": "uint256",
          "name": "",
          "type": "uint256"
        }
      ],
      "stateMutability": "view",
      "type": "function"
    },
    {
      "inputs": [],
      "name": "owner",
      "outputs": [
        {
          "internalType": "address",
          "name": "",
          "type": "address"
        }
      ],
      "stateMutability": "view",
      "type": "function"
    },
    {
      "inputs": [
        {
          "internalType": "address",
          "name": "",
          "type": "address"
        }
      ],
      "name": "primarySourceCount",
      "outputs": [
        {
          "internalType": "uint256",
          "name": "",
          "type": "uint256"
        }
      ],
      "stateMutability": "view",
      "type": "function"
    },
    {
      "inputs": [
        {
          "internalType": "address",
          "name": "",
          "type": "address"
        },
        {
          "internalType": "uint256",
          "name": "",
          "type": "uint256"
        }
      ],
      "name": "primarySources",
      "outputs": [
        {
          "internalType": "contract IBaseOracle",
          "name": "",
          "type": "address"
        }
      ],
      "stateMutability": "view",
      "type": "function"
    },
    {
      "inputs": [],
      "name": "renounceOwnership",
      "outputs": [],
      "stateMutability": "nonpayable",
      "type": "function"
    },
    {
      "inputs": [
        {
          "internalType": "address[]",
          "name": "tokens",
          "type": "address[]"
        },
        {
          "internalType": "uint256[]",
          "name": "maxPriceDeviationList",
          "type": "uint256[]"
        },
        {
          "internalType": "contract IBaseOracle[][]",
          "name": "allSources",
          "type": "address[][]"
        }
      ],
      "name": "setMultiPrimarySources",
      "outputs": [],
      "stateMutability": "nonpayable",
      "type": "function"
    },
    {
      "inputs": [
        {
          "internalType": "address",
          "name": "token",
          "type": "address"
        },
        {
          "internalType": "uint256",
          "name": "maxPriceDeviation",
          "type": "uint256"
        },
        {
          "internalType": "contract IBaseOracle[]",
          "name": "sources",
          "type": "address[]"
        }
      ],
      "name": "setPrimarySources",
      "outputs": [],
      "stateMutability": "nonpayable",
      "type": "function"
    },
    {
      "inputs": [
        {
          "internalType": "address",
          "name": "newOwner",
          "type": "address"
        }
      ],
      "name": "transferOwnership",
      "outputs": [],
      "stateMutability": "nonpayable",
      "type": "function"
    }
  ],
  "transactionHash": "0x8ca287eebb39f712890fb0a7a0cd1543339693ff337e14b615ab17c7677231b2",
  "args": [],
  "numDeployments": 1,
  "solcInputHash": "40a5e959dbaee40ef6eeed84d8383760",
  "bytecode": "0x608060405234801561001057600080fd5b5061001a3361001f565b61006f565b600080546001600160a01b038381166001600160a01b0319831681178455604051919092169283917f8be0079c531659141344cd1fd0a4f28419497f9722a3daafe3b4186f6b6457e09190a35050565b610f6c8061007e6000396000f3fe608060405234801561001057600080fd5b50600436106100935760003560e01c80638da5cb5b116100665780638da5cb5b146100fb578063bb0e70e014610120578063c66683c014610140578063e431a4f514610174578063f2fde38b1461018757600080fd5b806341976e0914610098578063507b9ede146100be578063715018a6146100d357806389752929146100db575b600080fd5b6100ab6100a6366004610ad5565b61019a565b6040519081526020015b60405180910390f35b6100d16100cc366004610cb3565b6106c0565b005b6100d1610773565b6100ab6100e9366004610ad5565b60016020526000908152604090205481565b6000546001600160a01b03165b6040516001600160a01b0390911681526020016100b5565b6100ab61012e366004610ad5565b60036020526000908152604090205481565b61010861014e366004610d99565b60026020908152600092835260408084209091529082529020546001600160a01b031681565b6100d1610182366004610dc5565b610787565b6100d1610195366004610ad5565b61079f565b6001600160a01b0381166000908152600160205260408120548082036101e35760405163daa6404b60e01b81526001600160a01b03841660048201526024015b60405180910390fd5b60008167ffffffffffffffff8111156101fe576101fe610af9565b604051908082528060200260200182016040528015610227578160200160208202803683370190505b5090506000805b83811015610303576001600160a01b038681166000818152600260209081526040808320868452909152908190205490516341976e0960e01b81526004810192909252909116906341976e09906024016020604051808303816000875af19250505080156102b9575060408051601f3d908101601f191682019092526102b691810190610e14565b60015b156102f15780156102ef578084846102d081610e43565b9550815181106102e2576102e2610e5c565b6020026020010181815250505b505b806102fb81610e43565b91505061022e565b50806000036103305760405163bb3328ed60e01b81526001600160a01b03861660048201526024016101da565b60005b61033e600183610e72565b8110156104535760005b60016103548385610e72565b61035e9190610e72565b8110156104405783610371826001610e8b565b8151811061038157610381610e5c565b602002602001015184828151811061039b5761039b610e5c565b6020026020010151111561042e57836103b5826001610e8b565b815181106103c5576103c5610e5c565b60200260200101518482815181106103df576103df610e5c565b60200260200101518583815181106103f9576103f9610e5c565b602002602001018684600161040e9190610e8b565b8151811061041e5761041e610e5c565b6020908102919091010191909152525b8061043881610e43565b915050610348565b508061044b81610e43565b915050610333565b506001600160a01b038516600090815260036020526040902054600182900361049c578260008151811061048957610489610e5c565b6020026020010151945050505050919050565b81600203610556576104e3836000815181106104ba576104ba610e5c565b6020026020010151846001815181106104d5576104d5610e5c565b602002602001015183610818565b61050057604051637114d53360e01b815260040160405180910390fd5b60028360018151811061051557610515610e5c565b60200260200101518460008151811061053057610530610e5c565b60200260200101516105429190610e8b565b61054c9190610e9e565b9695505050505050565b60006105978460008151811061056e5761056e610e5c565b60200260200101518560018151811061058957610589610e5c565b602002602001015184610818565b905060006105da856001815181106105b1576105b1610e5c565b6020026020010151866002815181106105cc576105cc610e5c565b602002602001015185610818565b90508180156105e65750805b1561061357846001815181106105fe576105fe610e5c565b60200260200101519650505050505050919050565b81156106715760028560018151811061062e5761062e610e5c565b60200260200101518660008151811061064957610649610e5c565b602002602001015161065b9190610e8b565b6106659190610e9e565b98975050505050505050565b80156106a75760028560028151811061068c5761068c610e5c565b60200260200101518660018151811061064957610649610e5c565b604051637114d53360e01b815260040160405180910390fd5b6106c861086e565b805183511415806106db57508151835114155b156106f95760405163025e650f60e01b815260040160405180910390fd5b60005b835181101561076d5761075b84828151811061071a5761071a610e5c565b602002602001015184838151811061073457610734610e5c565b602002602001015184848151811061074e5761074e610e5c565b60200260200101516108c8565b8061076581610e43565b9150506106fc565b50505050565b61077b61086e565b6107856000610a70565b565b61078f61086e565b61079a8383836108c8565b505050565b6107a761086e565b6001600160a01b03811661080c5760405162461bcd60e51b815260206004820152602660248201527f4f776e61626c653a206e6577206f776e657220697320746865207a65726f206160448201526564647265737360d01b60648201526084016101da565b61081581610a70565b50565b600080838511610828578361082a565b845b9050600084861161083b578561083d565b845b9050838261271061084e8483610e72565b6108589190610ec0565b6108629190610e9e565b11159695505050505050565b6000546001600160a01b031633146107855760405162461bcd60e51b815260206004820181905260248201527f4f776e61626c653a2063616c6c6572206973206e6f7420746865206f776e657260448201526064016101da565b6001600160a01b0383166108ef5760405163538ba4f960e01b815260040160405180910390fd5b6103e882111561091557604051631a6b806360e21b8152600481018390526024016101da565b60038151111561093d57805160405163118f6cf360e11b81526004016101da91815260200190565b80516001600160a01b038416600090815260016020908152604080832093909355600390529081208390555b8151811015610a275760006001600160a01b031682828151811061098f5761098f610e5c565b60200260200101516001600160a01b0316036109be5760405163538ba4f960e01b815260040160405180910390fd5b8181815181106109d0576109d0610e5c565b6020908102919091018101516001600160a01b0386811660009081526002845260408082208683529094529290922080546001600160a01b0319169290911691909117905580610a1f81610e43565b915050610969565b50826001600160a01b03167ffaf0e7a4bd03038343c2a7e8953d95dfec44a01478bba4f65a5b5ec9c397da538383604051610a63929190610edf565b60405180910390a2505050565b600080546001600160a01b038381166001600160a01b0319831681178455604051919092169283917f8be0079c531659141344cd1fd0a4f28419497f9722a3daafe3b4186f6b6457e09190a35050565b6001600160a01b038116811461081557600080fd5b600060208284031215610ae757600080fd5b8135610af281610ac0565b9392505050565b634e487b7160e01b600052604160045260246000fd5b604051601f8201601f1916810167ffffffffffffffff81118282101715610b3857610b38610af9565b604052919050565b600067ffffffffffffffff821115610b5a57610b5a610af9565b5060051b60200190565b600082601f830112610b7557600080fd5b81356020610b8a610b8583610b40565b610b0f565b82815260059290921b84018101918181019086841115610ba957600080fd5b8286015b84811015610bc45780358352918301918301610bad565b509695505050505050565b600082601f830112610be057600080fd5b81356020610bf0610b8583610b40565b82815260059290921b84018101918181019086841115610c0f57600080fd5b8286015b84811015610bc4578035610c2681610ac0565b8352918301918301610c13565b600082601f830112610c4457600080fd5b81356020610c54610b8583610b40565b82815260059290921b84018101918181019086841115610c7357600080fd5b8286015b84811015610bc457803567ffffffffffffffff811115610c975760008081fd5b610ca58986838b0101610bcf565b845250918301918301610c77565b600080600060608486031215610cc857600080fd5b833567ffffffffffffffff80821115610ce057600080fd5b818601915086601f830112610cf457600080fd5b81356020610d04610b8583610b40565b82815260059290921b8401810191818101908a841115610d2357600080fd5b948201945b83861015610d4a578535610d3b81610ac0565b82529482019490820190610d28565b97505087013592505080821115610d6057600080fd5b610d6c87838801610b64565b93506040860135915080821115610d8257600080fd5b50610d8f86828701610c33565b9150509250925092565b60008060408385031215610dac57600080fd5b8235610db781610ac0565b946020939093013593505050565b600080600060608486031215610dda57600080fd5b8335610de581610ac0565b925060208401359150604084013567ffffffffffffffff811115610e0857600080fd5b610d8f86828701610bcf565b600060208284031215610e2657600080fd5b5051919050565b634e487b7160e01b600052601160045260246000fd5b600060018201610e5557610e55610e2d565b5060010190565b634e487b7160e01b600052603260045260246000fd5b81810381811115610e8557610e85610e2d565b92915050565b80820180821115610e8557610e85610e2d565b600082610ebb57634e487b7160e01b600052601260045260246000fd5b500490565b6000816000190483118215151615610eda57610eda610e2d565b500290565b6000604082018483526020604081850152818551808452606086019150828701935060005b81811015610f295784516001600160a01b031683529383019391830191600101610f04565b509097965050505050505056fea264697066735822122012fdc9806fc678df0cb06538ec5cfb636efa148c9db79b683266f9bd86c2cbc064736f6c63430008100033",
  "devdoc": {
    "author": "BlueberryProtocol",
    "events": {
      "SetPrimarySources(address,uint256,address[])": {
        "params": {
          "maxPriceDeviation": "Maximum allowed price deviation.",
          "oracles": "List of oracle sources set for the token.",
          "token": "Address of the token whose oracle sources were updated."
        }
      }
    },
    "kind": "dev",
    "methods": {
      "getPrice(address)": {
        "params": {
          "token": "Address of the token to fetch the price for."
        },
        "returns": {
          "_0": "The aggregated USD price of the token, scaled by 10**18."
        }
      },
      "owner()": {
        "details": "Returns the address of the current owner."
      },
      "renounceOwnership()": {
        "details": "Leaves the contract without owner. It will not be possible to call `onlyOwner` functions anymore. Can only be called by the current owner. NOTE: Renouncing ownership will leave the contract without an owner, thereby removing any functionality that is only available to the owner."
      },
      "setMultiPrimarySources(address[],uint256[],address[][])": {
        "params": {
          "allSources": "list of oracle sources, one list for each token.",
          "maxPriceDeviationList": "List of maximum allowed price deviations (in 1e18).",
          "tokens": "List of token addresses."
        }
      },
      "setPrimarySources(address,uint256,address[])": {
        "details": "Only owner can set primary sources",
        "params": {
          "maxPriceDeviation": "Maximum price deviation (in 1e18) of price feeds",
          "sources": "Oracle sources for the token",
          "token": "Token address to set oracle sources"
        }
      },
      "transferOwnership(address)": {
        "details": "Transfers ownership of the contract to a new account (`newOwner`). Can only be called by the current owner."
      }
    },
    "title": "AggregatorOracle",
    "version": 1
  },
  "userdoc": {
    "errors": {
      "EXCEED_DEVIATION()": [
        {
          "notice": "Thrown when the deviation value exceeds the threshold."
        }
      ],
      "EXCEED_SOURCE_LEN(uint256)": [
        {
          "notice": "Thrown when the number of sources exceeds the allowed length."
        }
      ],
      "INPUT_ARRAY_MISMATCH()": [
        {
          "notice": "Thrown when the lengths of input arrays do not match."
        }
      ],
      "NO_PRIMARY_SOURCE(address)": [
        {
          "notice": "Thrown when no primary source is available for the token."
        }
      ],
      "NO_VALID_SOURCE(address)": [
        {
          "notice": "Thrown when no valid price source is available for the token."
        }
      ],
      "OUT_OF_DEVIATION_CAP(uint256)": [
        {
          "notice": "Thrown when the price deviation exceeds allowed limits."
        }
      ],
      "ZERO_ADDRESS()": [
        {
          "notice": "Thrown when the address provided is the zero address."
        }
      ]
    },
    "events": {
      "SetPrimarySources(address,uint256,address[])": {
        "notice": "Emitted when primary oracle sources are set or updated for a token."
      }
    },
    "kind": "user",
    "methods": {
      "getPrice(address)": {
        "notice": "Fetch the aggregated USD price of a token. If there are multiple valid sources, the function aggregates and ensures the data is within acceptable deviation limits."
      },
      "primarySourceCount(address)": {
        "notice": "Mapping of primary oracle sources associated with each token."
      },
      "primarySources(address,uint256)": {
        "notice": "Mapping from token to (mapping from index to oracle source)"
      },
      "setMultiPrimarySources(address[],uint256[],address[][])": {
        "notice": "Set or update the primary oracle sources for multiple tokens at once. Can only be called by the contract owner."
      },
      "setPrimarySources(address,uint256,address[])": {
        "notice": "Set primary oracle sources for the given token"
      }
    },
    "notice": "This contract aggregates price feeds from multiple oracle sources,          ensuring a more reliable and resilient price data.",
    "version": 1
  },
  "storageLayout": {
    "storage": [
      {
        "astId": 3374,
        "contract": "contracts/oracle/AggregatorOracle.sol:AggregatorOracle",
        "label": "_owner",
        "offset": 0,
        "slot": "0",
        "type": "t_address"
      },
      {
        "astId": 25271,
        "contract": "contracts/oracle/AggregatorOracle.sol:AggregatorOracle",
        "label": "primarySourceCount",
        "offset": 0,
        "slot": "1",
        "type": "t_mapping(t_address,t_uint256)"
      },
      {
        "astId": 25279,
        "contract": "contracts/oracle/AggregatorOracle.sol:AggregatorOracle",
        "label": "primarySources",
        "offset": 0,
        "slot": "2",
        "type": "t_mapping(t_address,t_mapping(t_uint256,t_contract(IBaseOracle)13365))"
      },
      {
        "astId": 25283,
        "contract": "contracts/oracle/AggregatorOracle.sol:AggregatorOracle",
        "label": "maxPriceDeviations",
        "offset": 0,
        "slot": "3",
        "type": "t_mapping(t_address,t_uint256)"
      }
    ],
    "types": {
      "t_address": {
        "encoding": "inplace",
        "label": "address",
        "numberOfBytes": "20"
      },
      "t_contract(IBaseOracle)13365": {
        "encoding": "inplace",
        "label": "contract IBaseOracle",
        "numberOfBytes": "20"
      },
      "t_mapping(t_address,t_mapping(t_uint256,t_contract(IBaseOracle)13365))": {
        "encoding": "mapping",
        "key": "t_address",
        "label": "mapping(address => mapping(uint256 => contract IBaseOracle))",
        "numberOfBytes": "32",
        "value": "t_mapping(t_uint256,t_contract(IBaseOracle)13365)"
      },
      "t_mapping(t_address,t_uint256)": {
        "encoding": "mapping",
        "key": "t_address",
        "label": "mapping(address => uint256)",
        "numberOfBytes": "32",
        "value": "t_uint256"
      },
      "t_mapping(t_uint256,t_contract(IBaseOracle)13365)": {
        "encoding": "mapping",
        "key": "t_uint256",
        "label": "mapping(uint256 => contract IBaseOracle)",
        "numberOfBytes": "32",
        "value": "t_contract(IBaseOracle)13365"
      },
      "t_uint256": {
        "encoding": "inplace",
        "label": "uint256",
        "numberOfBytes": "32"
      }
    }
  }
}