{
  "address": "0xD828099906C4Fecd42948D5c15D502899eb9daA0",
  "abi": [
    {
      "inputs": [],
      "stateMutability": "nonpayable",
      "type": "constructor"
    },
    {
      "inputs": [
        {
          "internalType": "uint256",
          "name": "positionId",
          "type": "uint256"
        }
      ],
      "name": "BAD_COLLATERAL",
      "type": "error"
    },
    {
      "inputs": [
        {
          "internalType": "uint256",
          "name": "posId",
          "type": "uint256"
        }
      ],
      "name": "BAD_POSITION",
      "type": "error"
    },
    {
      "inputs": [],
      "name": "BANK_ALREADY_LISTED",
      "type": "error"
    },
    {
      "inputs": [],
      "name": "BANK_LIMIT",
      "type": "error"
    },
    {
      "inputs": [
        {
          "internalType": "address",
          "name": "token",
          "type": "address"
        }
      ],
      "name": "BANK_NOT_LISTED",
      "type": "error"
    },
    {
      "inputs": [
        {
          "internalType": "uint256",
          "name": "amount",
          "type": "uint256"
        }
      ],
      "name": "BORROW_FAILED",
      "type": "error"
    },
    {
      "inputs": [],
      "name": "BORROW_NOT_ALLOWED",
      "type": "error"
    },
    {
      "inputs": [
        {
          "internalType": "uint256",
          "name": "borrowAmount",
          "type": "uint256"
        }
      ],
      "name": "BORROW_ZERO_SHARE",
      "type": "error"
    },
    {
      "inputs": [],
      "name": "BTOKEN_ALREADY_ADDED",
      "type": "error"
    },
    {
      "inputs": [
        {
          "internalType": "address",
          "name": "collToken",
          "type": "address"
        }
      ],
      "name": "DIFF_COL_EXIST",
      "type": "error"
    },
    {
      "inputs": [
        {
          "internalType": "address",
          "name": "debtToken",
          "type": "address"
        }
      ],
      "name": "INCORRECT_DEBT",
      "type": "error"
    },
    {
      "inputs": [
        {
          "internalType": "address",
          "name": "uToken",
          "type": "address"
        }
      ],
      "name": "INCORRECT_UNDERLYING",
      "type": "error"
    },
    {
      "inputs": [],
      "name": "INPUT_ARRAY_MISMATCH",
      "type": "error"
    },
    {
      "inputs": [],
      "name": "INSUFFICIENT_COLLATERAL",
      "type": "error"
    },
    {
      "inputs": [
        {
          "internalType": "address",
          "name": "uToken",
          "type": "address"
        }
      ],
      "name": "INVALID_UTOKEN",
      "type": "error"
    },
    {
      "inputs": [],
      "name": "LEND_NOT_ALLOWED",
      "type": "error"
    },
    {
      "inputs": [
        {
          "internalType": "uint256",
          "name": "threshold",
          "type": "uint256"
        }
      ],
      "name": "LIQ_THRESHOLD_TOO_HIGH",
      "type": "error"
    },
    {
      "inputs": [
        {
          "internalType": "uint256",
          "name": "threshold",
          "type": "uint256"
        }
      ],
      "name": "LIQ_THRESHOLD_TOO_LOW",
      "type": "error"
    },
    {
      "inputs": [],
      "name": "LOCKED",
      "type": "error"
    },
    {
      "inputs": [
        {
          "internalType": "address",
          "name": "from",
          "type": "address"
        }
      ],
      "name": "NOT_EOA",
      "type": "error"
    },
    {
      "inputs": [
        {
          "internalType": "uint256",
          "name": "positionId",
          "type": "uint256"
        },
        {
          "internalType": "address",
          "name": "sender",
          "type": "address"
        }
      ],
      "name": "NOT_FROM_OWNER",
      "type": "error"
    },
    {
      "inputs": [
        {
          "internalType": "address",
          "name": "from",
          "type": "address"
        }
      ],
      "name": "NOT_FROM_SPELL",
      "type": "error"
    },
    {
      "inputs": [],
      "name": "NOT_IN_EXEC",
      "type": "error"
    },
    {
      "inputs": [
        {
          "internalType": "uint256",
          "name": "positionId",
          "type": "uint256"
        }
      ],
      "name": "NOT_LIQUIDATABLE",
      "type": "error"
    },
    {
      "inputs": [],
      "name": "NOT_UNDER_EXECUTION",
      "type": "error"
    },
    {
      "inputs": [
        {
          "internalType": "address",
          "name": "token",
          "type": "address"
        }
      ],
      "name": "ORACLE_NOT_SUPPORT",
      "type": "error"
    },
    {
      "inputs": [
        {
          "internalType": "address",
          "name": "wToken",
          "type": "address"
        }
      ],
      "name": "ORACLE_NOT_SUPPORT_WTOKEN",
      "type": "error"
    },
    {
      "inputs": [],
      "name": "REPAY_ALLOW_NOT_WARMED_UP",
      "type": "error"
    },
    {
      "inputs": [
        {
          "internalType": "uint256",
          "name": "repay",
          "type": "uint256"
        },
        {
          "internalType": "uint256",
          "name": "debt",
          "type": "uint256"
        }
      ],
      "name": "REPAY_EXCEEDS_DEBT",
      "type": "error"
    },
    {
      "inputs": [
        {
          "internalType": "uint256",
          "name": "amount",
          "type": "uint256"
        }
      ],
      "name": "REPAY_FAILED",
      "type": "error"
    },
    {
      "inputs": [],
      "name": "REPAY_NOT_ALLOWED",
      "type": "error"
    },
    {
      "inputs": [
        {
          "internalType": "address",
          "name": "spell",
          "type": "address"
        }
      ],
      "name": "SPELL_NOT_WHITELISTED",
      "type": "error"
    },
    {
      "inputs": [
        {
          "internalType": "address",
          "name": "token",
          "type": "address"
        }
      ],
      "name": "TOKEN_NOT_WHITELISTED",
      "type": "error"
    },
    {
      "inputs": [],
      "name": "WITHDRAW_LEND_NOT_ALLOWED",
      "type": "error"
    },
    {
      "inputs": [],
      "name": "ZERO_ADDRESS",
      "type": "error"
    },
    {
      "inputs": [],
      "name": "ZERO_AMOUNT",
      "type": "error"
    },
    {
      "anonymous": false,
      "inputs": [
        {
          "indexed": false,
          "internalType": "address",
          "name": "token",
          "type": "address"
        },
        {
          "indexed": false,
          "internalType": "address",
          "name": "bToken",
          "type": "address"
        },
        {
          "indexed": false,
          "internalType": "address",
          "name": "softVault",
          "type": "address"
        },
        {
          "indexed": false,
          "internalType": "address",
          "name": "hardVault",
          "type": "address"
        }
      ],
      "name": "AddBank",
      "type": "event"
    },
    {
      "anonymous": false,
      "inputs": [
        {
          "indexed": false,
          "internalType": "uint256",
          "name": "positionId",
          "type": "uint256"
        },
        {
          "indexed": false,
          "internalType": "address",
          "name": "caller",
          "type": "address"
        },
        {
          "indexed": false,
          "internalType": "address",
          "name": "token",
          "type": "address"
        },
        {
          "indexed": false,
          "internalType": "uint256",
          "name": "amount",
          "type": "uint256"
        },
        {
          "indexed": false,
          "internalType": "uint256",
          "name": "share",
          "type": "uint256"
        }
      ],
      "name": "Borrow",
      "type": "event"
    },
    {
      "anonymous": false,
      "inputs": [
        {
          "indexed": false,
          "internalType": "uint256",
          "name": "positionId",
          "type": "uint256"
        },
        {
          "indexed": false,
          "internalType": "address",
          "name": "owner",
          "type": "address"
        }
      ],
      "name": "Execute",
      "type": "event"
    },
    {
      "anonymous": false,
      "inputs": [
        {
          "indexed": false,
          "internalType": "uint8",
          "name": "version",
          "type": "uint8"
        }
      ],
      "name": "Initialized",
      "type": "event"
    },
    {
      "anonymous": false,
      "inputs": [
        {
          "indexed": false,
          "internalType": "uint256",
          "name": "positionId",
          "type": "uint256"
        },
        {
          "indexed": false,
          "internalType": "address",
          "name": "caller",
          "type": "address"
        },
        {
          "indexed": false,
          "internalType": "address",
          "name": "token",
          "type": "address"
        },
        {
          "indexed": false,
          "internalType": "uint256",
          "name": "amount",
          "type": "uint256"
        }
      ],
      "name": "Lend",
      "type": "event"
    },
    {
      "anonymous": false,
      "inputs": [
        {
          "indexed": false,
          "internalType": "uint256",
          "name": "positionId",
          "type": "uint256"
        },
        {
          "indexed": false,
          "internalType": "address",
          "name": "liquidator",
          "type": "address"
        },
        {
          "indexed": false,
          "internalType": "address",
          "name": "debtToken",
          "type": "address"
        },
        {
          "indexed": false,
          "internalType": "uint256",
          "name": "amount",
          "type": "uint256"
        },
        {
          "indexed": false,
          "internalType": "uint256",
          "name": "share",
          "type": "uint256"
        },
        {
          "indexed": false,
          "internalType": "uint256",
          "name": "positionSize",
          "type": "uint256"
        },
        {
          "indexed": false,
          "internalType": "uint256",
          "name": "underlyingVaultSize",
          "type": "uint256"
        }
      ],
      "name": "Liquidate",
      "type": "event"
    },
    {
      "anonymous": false,
      "inputs": [
        {
          "indexed": true,
          "internalType": "address",
          "name": "previousOwner",
          "type": "address"
        },
        {
          "indexed": true,
          "internalType": "address",
          "name": "newOwner",
          "type": "address"
        }
      ],
      "name": "OwnershipTransferred",
      "type": "event"
    },
    {
      "anonymous": false,
      "inputs": [
        {
          "indexed": false,
          "internalType": "uint256",
          "name": "positionId",
          "type": "uint256"
        },
        {
          "indexed": false,
          "internalType": "address",
          "name": "owner",
          "type": "address"
        },
        {
          "indexed": false,
          "internalType": "address",
          "name": "caller",
          "type": "address"
        },
        {
          "indexed": false,
          "internalType": "address",
          "name": "token",
          "type": "address"
        },
        {
          "indexed": false,
          "internalType": "uint256",
          "name": "id",
          "type": "uint256"
        },
        {
          "indexed": false,
          "internalType": "uint256",
          "name": "amount",
          "type": "uint256"
        }
      ],
      "name": "PutCollateral",
      "type": "event"
    },
    {
      "anonymous": false,
      "inputs": [
        {
          "indexed": false,
          "internalType": "uint256",
          "name": "positionId",
          "type": "uint256"
        },
        {
          "indexed": false,
          "internalType": "address",
          "name": "caller",
          "type": "address"
        },
        {
          "indexed": false,
          "internalType": "address",
          "name": "token",
          "type": "address"
        },
        {
          "indexed": false,
          "internalType": "uint256",
          "name": "amount",
          "type": "uint256"
        },
        {
          "indexed": false,
          "internalType": "uint256",
          "name": "share",
          "type": "uint256"
        }
      ],
      "name": "Repay",
      "type": "event"
    },
    {
      "anonymous": false,
      "inputs": [
        {
          "indexed": false,
          "internalType": "address",
          "name": "oracle",
          "type": "address"
        }
      ],
      "name": "SetOracle",
      "type": "event"
    },
    {
      "anonymous": false,
      "inputs": [
        {
          "indexed": true,
          "internalType": "address",
          "name": "token",
          "type": "address"
        },
        {
          "indexed": false,
          "internalType": "bool",
          "name": "isWhitelisted",
          "type": "bool"
        }
      ],
      "name": "SetWhitelistERC1155",
      "type": "event"
    },
    {
      "anonymous": false,
      "inputs": [
        {
          "indexed": true,
          "internalType": "address",
          "name": "token",
          "type": "address"
        },
        {
          "indexed": false,
          "internalType": "bool",
          "name": "isWhitelisted",
          "type": "bool"
        }
      ],
      "name": "SetWhitelistToken",
      "type": "event"
    },
    {
      "anonymous": false,
      "inputs": [
        {
          "indexed": false,
          "internalType": "uint256",
          "name": "positionId",
          "type": "uint256"
        },
        {
          "indexed": false,
          "internalType": "address",
          "name": "caller",
          "type": "address"
        },
        {
          "indexed": false,
          "internalType": "address",
          "name": "token",
          "type": "address"
        },
        {
          "indexed": false,
          "internalType": "uint256",
          "name": "id",
          "type": "uint256"
        },
        {
          "indexed": false,
          "internalType": "uint256",
          "name": "amount",
          "type": "uint256"
        }
      ],
      "name": "TakeCollateral",
      "type": "event"
    },
    {
      "anonymous": false,
      "inputs": [
        {
          "indexed": false,
          "internalType": "uint256",
          "name": "positionId",
          "type": "uint256"
        },
        {
          "indexed": false,
          "internalType": "address",
          "name": "caller",
          "type": "address"
        },
        {
          "indexed": false,
          "internalType": "address",
          "name": "token",
          "type": "address"
        },
        {
          "indexed": false,
          "internalType": "uint256",
          "name": "amount",
          "type": "uint256"
        }
      ],
      "name": "WithdrawLend",
      "type": "event"
    },
    {
      "inputs": [],
      "name": "EXECUTOR",
      "outputs": [
        {
          "internalType": "address",
          "name": "",
          "type": "address"
        }
      ],
      "stateMutability": "view",
      "type": "function"
    },
    {
      "inputs": [],
      "name": "POSITION_ID",
      "outputs": [
        {
          "internalType": "uint256",
          "name": "",
          "type": "uint256"
        }
      ],
      "stateMutability": "view",
      "type": "function"
    },
    {
      "inputs": [],
      "name": "SPELL",
      "outputs": [
        {
          "internalType": "address",
          "name": "",
          "type": "address"
        }
      ],
      "stateMutability": "view",
      "type": "function"
    },
    {
      "inputs": [],
      "name": "_GENERAL_LOCK",
      "outputs": [
        {
          "internalType": "uint256",
          "name": "",
          "type": "uint256"
        }
      ],
      "stateMutability": "view",
      "type": "function"
    },
    {
      "inputs": [],
      "name": "_IN_EXEC_LOCK",
      "outputs": [
        {
          "internalType": "uint256",
          "name": "",
          "type": "uint256"
        }
      ],
      "stateMutability": "view",
      "type": "function"
    },
    {
      "inputs": [
        {
          "internalType": "address",
          "name": "token",
          "type": "address"
        }
      ],
      "name": "accrue",
      "outputs": [],
      "stateMutability": "nonpayable",
      "type": "function"
    },
    {
      "inputs": [
        {
          "internalType": "address[]",
          "name": "tokens",
          "type": "address[]"
        }
      ],
      "name": "accrueAll",
      "outputs": [],
      "stateMutability": "nonpayable",
      "type": "function"
    },
    {
      "inputs": [
        {
          "internalType": "address",
          "name": "token",
          "type": "address"
        },
        {
          "internalType": "address",
          "name": "softVault",
          "type": "address"
        },
        {
          "internalType": "address",
          "name": "hardVault",
          "type": "address"
        },
        {
          "internalType": "uint256",
          "name": "liqThreshold",
          "type": "uint256"
        }
      ],
      "name": "addBank",
      "outputs": [],
      "stateMutability": "nonpayable",
      "type": "function"
    },
    {
      "inputs": [
        {
          "internalType": "uint256",
          "name": "",
          "type": "uint256"
        }
      ],
      "name": "allBanks",
      "outputs": [
        {
          "internalType": "address",
          "name": "",
          "type": "address"
        }
      ],
      "stateMutability": "view",
      "type": "function"
    },
    {
      "inputs": [],
      "name": "allowContractCalls",
      "outputs": [
        {
          "internalType": "bool",
          "name": "",
          "type": "bool"
        }
      ],
      "stateMutability": "view",
      "type": "function"
    },
    {
      "inputs": [
        {
          "internalType": "address",
          "name": "",
          "type": "address"
        }
      ],
      "name": "bTokenInBank",
      "outputs": [
        {
          "internalType": "bool",
          "name": "",
          "type": "bool"
        }
      ],
      "stateMutability": "view",
      "type": "function"
    },
    {
      "inputs": [],
      "name": "bankStatus",
      "outputs": [
        {
          "internalType": "uint256",
          "name": "",
          "type": "uint256"
        }
      ],
      "stateMutability": "view",
      "type": "function"
    },
    {
      "inputs": [
        {
          "internalType": "address",
          "name": "",
          "type": "address"
        }
      ],
      "name": "banks",
      "outputs": [
        {
          "internalType": "bool",
          "name": "isListed",
          "type": "bool"
        },
        {
          "internalType": "uint8",
          "name": "index",
          "type": "uint8"
        },
        {
          "internalType": "address",
          "name": "hardVault",
          "type": "address"
        },
        {
          "internalType": "address",
          "name": "softVault",
          "type": "address"
        },
        {
          "internalType": "address",
          "name": "bToken",
          "type": "address"
        },
        {
          "internalType": "uint256",
          "name": "totalShare",
          "type": "uint256"
        },
        {
          "internalType": "uint256",
          "name": "liqThreshold",
          "type": "uint256"
        }
      ],
      "stateMutability": "view",
      "type": "function"
    },
    {
      "inputs": [
        {
          "internalType": "address",
          "name": "token",
          "type": "address"
        },
        {
          "internalType": "uint256",
          "name": "amount",
          "type": "uint256"
        }
      ],
      "name": "borrow",
      "outputs": [
        {
          "internalType": "uint256",
          "name": "borrowedAmount",
          "type": "uint256"
        }
      ],
      "stateMutability": "nonpayable",
      "type": "function"
    },
    {
      "inputs": [],
      "name": "config",
      "outputs": [
        {
          "internalType": "contract IProtocolConfig",
          "name": "",
          "type": "address"
        }
      ],
      "stateMutability": "view",
      "type": "function"
    },
    {
      "inputs": [
        {
          "internalType": "uint256",
          "name": "positionId",
          "type": "uint256"
        }
      ],
      "name": "currentPositionDebt",
      "outputs": [
        {
          "internalType": "uint256",
          "name": "",
          "type": "uint256"
        }
      ],
      "stateMutability": "nonpayable",
      "type": "function"
    },
    {
      "inputs": [
        {
          "internalType": "uint256",
          "name": "positionId",
          "type": "uint256"
        },
        {
          "internalType": "address",
          "name": "spell",
          "type": "address"
        },
        {
          "internalType": "bytes",
          "name": "data",
          "type": "bytes"
        }
      ],
      "name": "execute",
      "outputs": [
        {
          "internalType": "uint256",
          "name": "",
          "type": "uint256"
        }
      ],
      "stateMutability": "nonpayable",
      "type": "function"
    },
    {
      "inputs": [],
      "name": "feeManager",
      "outputs": [
        {
          "internalType": "contract IFeeManager",
          "name": "",
          "type": "address"
        }
      ],
      "stateMutability": "view",
      "type": "function"
    },
    {
      "inputs": [
        {
          "internalType": "address",
          "name": "token",
          "type": "address"
        }
      ],
      "name": "getBankInfo",
      "outputs": [
        {
          "internalType": "bool",
          "name": "isListed",
          "type": "bool"
        },
        {
          "internalType": "address",
          "name": "bToken",
          "type": "address"
        },
        {
          "internalType": "uint256",
          "name": "totalShare",
          "type": "uint256"
        }
      ],
      "stateMutability": "view",
      "type": "function"
    },
    {
      "inputs": [],
      "name": "getCurrentPositionInfo",
      "outputs": [
        {
          "components": [
            {
              "internalType": "address",
              "name": "owner",
              "type": "address"
            },
            {
              "internalType": "address",
              "name": "collToken",
              "type": "address"
            },
            {
              "internalType": "address",
              "name": "underlyingToken",
              "type": "address"
            },
            {
              "internalType": "address",
              "name": "debtToken",
              "type": "address"
            },
            {
              "internalType": "uint256",
              "name": "underlyingVaultShare",
              "type": "uint256"
            },
            {
              "internalType": "uint256",
              "name": "collId",
              "type": "uint256"
            },
            {
              "internalType": "uint256",
              "name": "collateralSize",
              "type": "uint256"
            },
            {
              "internalType": "uint256",
              "name": "debtShare",
              "type": "uint256"
            }
          ],
          "internalType": "struct IBank.Position",
          "name": "",
          "type": "tuple"
        }
      ],
      "stateMutability": "view",
      "type": "function"
    },
    {
      "inputs": [
        {
          "internalType": "uint256",
          "name": "positionId",
          "type": "uint256"
        }
      ],
      "name": "getDebtValue",
      "outputs": [
        {
          "internalType": "uint256",
          "name": "debtValue",
          "type": "uint256"
        }
      ],
      "stateMutability": "nonpayable",
      "type": "function"
    },
    {
      "inputs": [
        {
          "internalType": "uint256",
          "name": "positionId",
          "type": "uint256"
        }
      ],
      "name": "getIsolatedCollateralValue",
      "outputs": [
        {
          "internalType": "uint256",
          "name": "icollValue",
          "type": "uint256"
        }
      ],
      "stateMutability": "nonpayable",
      "type": "function"
    },
    {
      "inputs": [
        {
          "internalType": "uint256",
          "name": "positionId",
          "type": "uint256"
        }
      ],
      "name": "getPositionDebt",
      "outputs": [
        {
          "internalType": "uint256",
          "name": "debt",
          "type": "uint256"
        }
      ],
      "stateMutability": "view",
      "type": "function"
    },
    {
      "inputs": [
        {
          "internalType": "uint256",
          "name": "positionId",
          "type": "uint256"
        }
      ],
      "name": "getPositionInfo",
      "outputs": [
        {
          "components": [
            {
              "internalType": "address",
              "name": "owner",
              "type": "address"
            },
            {
              "internalType": "address",
              "name": "collToken",
              "type": "address"
            },
            {
              "internalType": "address",
              "name": "underlyingToken",
              "type": "address"
            },
            {
              "internalType": "address",
              "name": "debtToken",
              "type": "address"
            },
            {
              "internalType": "uint256",
              "name": "underlyingVaultShare",
              "type": "uint256"
            },
            {
              "internalType": "uint256",
              "name": "collId",
              "type": "uint256"
            },
            {
              "internalType": "uint256",
              "name": "collateralSize",
              "type": "uint256"
            },
            {
              "internalType": "uint256",
              "name": "debtShare",
              "type": "uint256"
            }
          ],
          "internalType": "struct IBank.Position",
          "name": "",
          "type": "tuple"
        }
      ],
      "stateMutability": "view",
      "type": "function"
    },
    {
      "inputs": [
        {
          "internalType": "uint256",
          "name": "positionId",
          "type": "uint256"
        }
      ],
      "name": "getPositionRisk",
      "outputs": [
        {
          "internalType": "uint256",
          "name": "risk",
          "type": "uint256"
        }
      ],
      "stateMutability": "nonpayable",
      "type": "function"
    },
    {
      "inputs": [
        {
          "internalType": "uint256",
          "name": "positionId",
          "type": "uint256"
        }
      ],
      "name": "getPositionValue",
      "outputs": [
        {
          "internalType": "uint256",
          "name": "positionValue",
          "type": "uint256"
        }
      ],
      "stateMutability": "nonpayable",
      "type": "function"
    },
    {
      "inputs": [
        {
          "internalType": "contract ICoreOracle",
          "name": "oracle_",
          "type": "address"
        },
        {
          "internalType": "contract IProtocolConfig",
          "name": "config_",
          "type": "address"
        }
      ],
      "name": "initialize",
      "outputs": [],
      "stateMutability": "nonpayable",
      "type": "function"
    },
    {
      "inputs": [],
      "name": "isBorrowAllowed",
      "outputs": [
        {
          "internalType": "bool",
          "name": "",
          "type": "bool"
        }
      ],
      "stateMutability": "view",
      "type": "function"
    },
    {
      "inputs": [],
      "name": "isLendAllowed",
      "outputs": [
        {
          "internalType": "bool",
          "name": "",
          "type": "bool"
        }
      ],
      "stateMutability": "view",
      "type": "function"
    },
    {
      "inputs": [
        {
          "internalType": "uint256",
          "name": "positionId",
          "type": "uint256"
        }
      ],
      "name": "isLiquidatable",
      "outputs": [
        {
          "internalType": "bool",
          "name": "",
          "type": "bool"
        }
      ],
      "stateMutability": "nonpayable",
      "type": "function"
    },
    {
      "inputs": [],
      "name": "isRepayAllowed",
      "outputs": [
        {
          "internalType": "bool",
          "name": "",
          "type": "bool"
        }
      ],
      "stateMutability": "view",
      "type": "function"
    },
    {
      "inputs": [],
      "name": "isWithdrawLendAllowed",
      "outputs": [
        {
          "internalType": "bool",
          "name": "",
          "type": "bool"
        }
      ],
      "stateMutability": "view",
      "type": "function"
    },
    {
      "inputs": [
        {
          "internalType": "address",
          "name": "token",
          "type": "address"
        },
        {
          "internalType": "uint256",
          "name": "amount",
          "type": "uint256"
        }
      ],
      "name": "lend",
      "outputs": [],
      "stateMutability": "nonpayable",
      "type": "function"
    },
    {
      "inputs": [
        {
          "internalType": "uint256",
          "name": "positionId",
          "type": "uint256"
        },
        {
          "internalType": "address",
          "name": "debtToken",
          "type": "address"
        },
        {
          "internalType": "uint256",
          "name": "amountCall",
          "type": "uint256"
        }
      ],
      "name": "liquidate",
      "outputs": [],
      "stateMutability": "nonpayable",
      "type": "function"
    },
    {
      "inputs": [],
      "name": "nextPositionId",
      "outputs": [
        {
          "internalType": "uint256",
          "name": "",
          "type": "uint256"
        }
      ],
      "stateMutability": "view",
      "type": "function"
    },
    {
      "inputs": [
        {
          "internalType": "address",
          "name": "",
          "type": "address"
        },
        {
          "internalType": "address",
          "name": "",
          "type": "address"
        },
        {
          "internalType": "uint256[]",
          "name": "",
          "type": "uint256[]"
        },
        {
          "internalType": "uint256[]",
          "name": "",
          "type": "uint256[]"
        },
        {
          "internalType": "bytes",
          "name": "",
          "type": "bytes"
        }
      ],
      "name": "onERC1155BatchReceived",
      "outputs": [
        {
          "internalType": "bytes4",
          "name": "",
          "type": "bytes4"
        }
      ],
      "stateMutability": "pure",
      "type": "function"
    },
    {
      "inputs": [
        {
          "internalType": "address",
          "name": "",
          "type": "address"
        },
        {
          "internalType": "address",
          "name": "",
          "type": "address"
        },
        {
          "internalType": "uint256",
          "name": "",
          "type": "uint256"
        },
        {
          "internalType": "uint256",
          "name": "",
          "type": "uint256"
        },
        {
          "internalType": "bytes",
          "name": "",
          "type": "bytes"
        }
      ],
      "name": "onERC1155Received",
      "outputs": [
        {
          "internalType": "bytes4",
          "name": "",
          "type": "bytes4"
        }
      ],
      "stateMutability": "pure",
      "type": "function"
    },
    {
      "inputs": [],
      "name": "oracle",
      "outputs": [
        {
          "internalType": "contract ICoreOracle",
          "name": "",
          "type": "address"
        }
      ],
      "stateMutability": "view",
      "type": "function"
    },
    {
      "inputs": [],
      "name": "owner",
      "outputs": [
        {
          "internalType": "address",
          "name": "",
          "type": "address"
        }
      ],
      "stateMutability": "view",
      "type": "function"
    },
    {
      "inputs": [
        {
          "internalType": "uint256",
          "name": "",
          "type": "uint256"
        }
      ],
      "name": "positions",
      "outputs": [
        {
          "internalType": "address",
          "name": "owner",
          "type": "address"
        },
        {
          "internalType": "address",
          "name": "collToken",
          "type": "address"
        },
        {
          "internalType": "address",
          "name": "underlyingToken",
          "type": "address"
        },
        {
          "internalType": "address",
          "name": "debtToken",
          "type": "address"
        },
        {
          "internalType": "uint256",
          "name": "underlyingVaultShare",
          "type": "uint256"
        },
        {
          "internalType": "uint256",
          "name": "collId",
          "type": "uint256"
        },
        {
          "internalType": "uint256",
          "name": "collateralSize",
          "type": "uint256"
        },
        {
          "internalType": "uint256",
          "name": "debtShare",
          "type": "uint256"
        }
      ],
      "stateMutability": "view",
      "type": "function"
    },
    {
      "inputs": [
        {
          "internalType": "address",
          "name": "collToken",
          "type": "address"
        },
        {
          "internalType": "uint256",
          "name": "collId",
          "type": "uint256"
        },
        {
          "internalType": "uint256",
          "name": "amountCall",
          "type": "uint256"
        }
      ],
      "name": "putCollateral",
      "outputs": [],
      "stateMutability": "nonpayable",
      "type": "function"
    },
    {
      "inputs": [],
      "name": "renounceOwnership",
      "outputs": [],
      "stateMutability": "nonpayable",
      "type": "function"
    },
    {
      "inputs": [
        {
          "internalType": "address",
          "name": "token",
          "type": "address"
        },
        {
          "internalType": "uint256",
          "name": "amountCall",
          "type": "uint256"
        }
      ],
      "name": "repay",
      "outputs": [],
      "stateMutability": "nonpayable",
      "type": "function"
    },
    {
      "inputs": [],
      "name": "repayResumedTimestamp",
      "outputs": [
        {
          "internalType": "uint256",
          "name": "",
          "type": "uint256"
        }
      ],
      "stateMutability": "view",
      "type": "function"
    },
    {
      "inputs": [
        {
          "internalType": "bool",
          "name": "ok",
          "type": "bool"
        }
      ],
      "name": "setAllowContractCalls",
      "outputs": [],
      "stateMutability": "nonpayable",
      "type": "function"
    },
    {
      "inputs": [
        {
          "internalType": "uint256",
          "name": "_bankStatus",
          "type": "uint256"
        }
      ],
      "name": "setBankStatus",
      "outputs": [],
      "stateMutability": "nonpayable",
      "type": "function"
    },
    {
      "inputs": [
        {
          "internalType": "bytes4",
          "name": "interfaceId",
          "type": "bytes4"
        }
      ],
      "name": "supportsInterface",
      "outputs": [
        {
          "internalType": "bool",
          "name": "",
          "type": "bool"
        }
      ],
      "stateMutability": "view",
      "type": "function"
    },
    {
      "inputs": [
        {
          "internalType": "uint256",
          "name": "amount",
          "type": "uint256"
        }
      ],
      "name": "takeCollateral",
      "outputs": [
        {
          "internalType": "uint256",
          "name": "",
          "type": "uint256"
        }
      ],
      "stateMutability": "nonpayable",
      "type": "function"
    },
    {
      "inputs": [
        {
          "internalType": "address",
          "name": "newOwner",
          "type": "address"
        }
      ],
      "name": "transferOwnership",
      "outputs": [],
      "stateMutability": "nonpayable",
      "type": "function"
    },
    {
      "inputs": [
        {
          "internalType": "address[]",
          "name": "contracts",
          "type": "address[]"
        },
        {
          "internalType": "bool[]",
          "name": "statuses",
          "type": "bool[]"
        }
      ],
      "name": "whitelistContracts",
      "outputs": [],
      "stateMutability": "nonpayable",
      "type": "function"
    },
    {
      "inputs": [
        {
          "internalType": "address[]",
          "name": "tokens",
          "type": "address[]"
        },
        {
          "internalType": "bool",
          "name": "ok",
          "type": "bool"
        }
      ],
      "name": "whitelistERC1155",
      "outputs": [],
      "stateMutability": "nonpayable",
      "type": "function"
    },
    {
      "inputs": [
        {
          "internalType": "address[]",
          "name": "spells",
          "type": "address[]"
        },
        {
          "internalType": "bool[]",
          "name": "statuses",
          "type": "bool[]"
        }
      ],
      "name": "whitelistSpells",
      "outputs": [],
      "stateMutability": "nonpayable",
      "type": "function"
    },
    {
      "inputs": [
        {
          "internalType": "address[]",
          "name": "tokens",
          "type": "address[]"
        },
        {
          "internalType": "bool[]",
          "name": "statuses",
          "type": "bool[]"
        }
      ],
      "name": "whitelistTokens",
      "outputs": [],
      "stateMutability": "nonpayable",
      "type": "function"
    },
    {
      "inputs": [
        {
          "internalType": "address",
          "name": "",
          "type": "address"
        }
      ],
      "name": "whitelistedContracts",
      "outputs": [
        {
          "internalType": "bool",
          "name": "",
          "type": "bool"
        }
      ],
      "stateMutability": "view",
      "type": "function"
    },
    {
      "inputs": [
        {
          "internalType": "address",
          "name": "",
          "type": "address"
        }
      ],
      "name": "whitelistedSpells",
      "outputs": [
        {
          "internalType": "bool",
          "name": "",
          "type": "bool"
        }
      ],
      "stateMutability": "view",
      "type": "function"
    },
    {
      "inputs": [
        {
          "internalType": "address",
          "name": "",
          "type": "address"
        }
      ],
      "name": "whitelistedTokens",
      "outputs": [
        {
          "internalType": "bool",
          "name": "",
          "type": "bool"
        }
      ],
      "stateMutability": "view",
      "type": "function"
    },
    {
      "inputs": [
        {
          "internalType": "address",
          "name": "",
          "type": "address"
        }
      ],
      "name": "whitelistedWrappedTokens",
      "outputs": [
        {
          "internalType": "bool",
          "name": "",
          "type": "bool"
        }
      ],
      "stateMutability": "view",
      "type": "function"
    },
    {
      "inputs": [
        {
          "internalType": "address",
          "name": "token",
          "type": "address"
        },
        {
          "internalType": "uint256",
          "name": "shareAmount",
          "type": "uint256"
        }
      ],
      "name": "withdrawLend",
      "outputs": [],
      "stateMutability": "nonpayable",
      "type": "function"
    }
  ],
  "transactionHash": "0xfd186af6f76578915d93fca36b8ba8875bf1d14dfa4fedc66017ea06902398c1",
  "args": [],
  "numDeployments": 1,
  "solcInputHash": "40a5e959dbaee40ef6eeed84d8383760",
  "bytecode": "0x60806040523480156200001157600080fd5b506200001c62000022565b620000e4565b600054610100900460ff16156200008f5760405162461bcd60e51b815260206004820152602760248201527f496e697469616c697a61626c653a20636f6e747261637420697320696e697469604482015266616c697a696e6760c81b606482015260840160405180910390fd5b60005460ff9081161015620000e2576000805460ff191660ff9081179091556040519081527f7f26b83ff96e1f2b6a682f133852f6798a09c465da95921460cefb38474024989060200160405180910390a15b565b614d7380620000f46000396000f3fe608060405234801561001057600080fd5b506004361061038e5760003560e01c806380c3b8c2116101de578063bc197c811161010f578063d7ac71ff116100ad578063f23a6e611161007c578063f23a6e6114610a29578063f2fde38b14610a49578063f6ff6b1214610a5c578063f70aedd914610a6f57600080fd5b8063d7ac71ff146109dd578063daf9c210146109e6578063dd6f3c7014610a09578063e73c4e2514610a1c57600080fd5b8063c9a4bb3f116100e9578063c9a4bb3f146109b6578063d05e44a4146109bf578063d0fb0203146109c8578063d2ffc9f3146109d057600080fd5b8063bc197c8114610955578063bd83eb4c14610990578063c0177bd5146109a357600080fd5b80639548f37e1161017c578063aed023dc11610156578063aed023dc146108ff578063b3c26e9c14610912578063b43aa79a1461091f578063b86a0aaa1461094257600080fd5b80639548f37e1461082857806399fbab881461083b578063a2fb342d146108ec57600080fd5b80638b00e196116101b85780638b00e196146107de5780638da5cb5b146107f15780639042dad51461080257806394d95d051461081557600080fd5b806380c3b8c21461070e57806386c0dc88146107b2578063899346c7146107d557600080fd5b806349aa2e81116102c3578063715018a6116102615780637b79413a116102305780637b79413a146106175780637cbdae6f146106d55780637dc0d1d0146106e85780637de3fa67146106fb57600080fd5b8063715018a6146105d657806376636722146105de57806379502c55146105f157806379bd1eac1461060457600080fd5b806362548d8c1161029d57806362548d8c1461057d578063630dc7cb146105905780636680ac0b146105b0578063710a9f68146105c357600080fd5b806349aa2e81146104d95780634b8a3529146104e6578063519f5099146104f957600080fd5b806322867d7811610330578063314568d91161030a578063314568d91461047d57806338bd678a14610490578063391feebb146104a3578063485cc955146104c657600080fd5b806322867d781461044a578063269a4bad1461045d57806326e533501461047057600080fd5b8063071feca31161036c578063071feca3146103f85780630e5641e61461040b5780630ebcce7f14610414578063211a44431461043757600080fd5b806301ffc9a71461039357806303de6355146103cc5780630639282e146103e1575b600080fd5b6103b76103a13660046143dc565b6001600160e01b031916630271189760e51b1490565b60405190151581526020015b60405180910390f35b6103df6103da366004614452565b610a77565b005b6103ea606d5481565b6040519081526020016103c3565b6103df6104063660046144cc565b610cf0565b6103ea606c5481565b6103b76104223660046144fe565b60706020526000908152604090205460ff1681565b6103b761044536600461451b565b610d0b565b6103df610458366004614534565b610d47565b6103ea61046b36600461451b565b610e95565b606c5460041615156103b7565b6103df61048b366004614560565b610ec9565b6103df61049e366004614674565b61113f565b6103b76104b13660046144fe565b60766020526000908152604090205460ff1681565b6103df6104d43660046146a9565b611183565b606c5460011615156103b7565b6103ea6104f4366004614534565b61135e565b61050c61050736600461451b565b6115e6565b6040516103c3919060006101008201905060018060a01b03808451168352806020850151166020840152806040850151166040840152806060850151166060840152506080830151608083015260a083015160a083015260c083015160c083015260e083015160e083015292915050565b6103df61058b366004614452565b61166c565b61059861177b565b6040516001600160a01b0390911681526020016103c3565b6103df6105be3660046144fe565b6117bf565b6103ea6105d13660046146e2565b611874565b6103df611b23565b606854610598906001600160a01b031681565b606954610598906001600160a01b031681565b6103df610612366004614793565b611b37565b6106b06106253660046144fe565b6001600160a01b038082166000908152606f6020908152604091829020825160e081018452815460ff8082161515808452610100830490911694830194909452620100009004851693810193909352600181015484166060840152600281015490931660808301819052600384015460a0840181905260049094015460c09093019290925293909250565b6040805193151584526001600160a01b039092166020840152908201526060016103c3565b6103df6106e336600461451b565b611ecb565b606a54610598906001600160a01b031681565b6103df610709366004614452565b611f09565b61076a61071c3660046144fe565b606f602052600090815260409020805460018201546002830154600384015460049094015460ff808516956101008604909116946001600160a01b0362010000909104811694811693169187565b60408051971515885260ff90961660208801526001600160a01b0394851695870195909552918316606086015291909116608084015260a083015260c082015260e0016103c3565b6103b76107c03660046144fe565b60756020526000908152604090205460ff1681565b6103ea606b5481565b6103ea6107ec36600461451b565b612018565b6033546001600160a01b0316610598565b6103ea61081036600461451b565b612196565b6103ea61082336600461451b565b61222c565b6103df6108363660046147cb565b6123ea565b61089d61084936600461451b565b607160205260009081526040902080546001820154600283015460038401546004850154600586015460068701546007909701546001600160a01b0396871697958716969485169593909416939192909188565b604080516001600160a01b03998a168152978916602089015295881695870195909552959092166060850152608084015260a083015260c082019290925260e0810191909152610100016103c3565b6103df6108fa366004614534565b612749565b6103df61090d36600461481c565b612b23565b606c5460081615156103b7565b6103b761092d3660046144fe565b60746020526000908152604090205460ff1681565b6103ea61095036600461451b565b612bf6565b6109776109633660046148a5565b63bc197c8160e01b98975050505050505050565b6040516001600160e01b031990911681526020016103c3565b6103ea61099e36600461451b565b612f69565b6103ea6109b136600461451b565b6131ca565b6103ea60665481565b6103ea60655481565b610598613287565b6072546103b79060ff1681565b6103ea60675481565b6103b76109f43660046144fe565b60736020526000908152604090205460ff1681565b610598610a1736600461451b565b6132fa565b606c5460021615156103b7565b610977610a37366004614964565b63f23a6e6160e01b9695505050505050565b6103df610a573660046144fe565b613324565b6103df610a6a366004614534565b61339d565b61050c613726565b610a7f6137d9565b828114610a9f5760405163025e650f60e01b815260040160405180910390fd5b60005b83811015610ce957828282818110610abc57610abc6149e0565b9050602002016020810190610ad191906144cc565b8015610b7c5750606a546001600160a01b03166375151b63868684818110610afb57610afb6149e0565b9050602002016020810190610b1091906144fe565b6040516001600160e01b031960e084901b1681526001600160a01b0390911660048201526024016020604051808303816000875af1158015610b56573d6000803e3d6000fd5b505050506040513d601f19601f82011682018060405250810190610b7a91906149f6565b155b15610bd257848482818110610b9357610b936149e0565b9050602002016020810190610ba891906144fe565b60405163155fa42560e01b81526001600160a01b0390911660048201526024015b60405180910390fd5b828282818110610be457610be46149e0565b9050602002016020810190610bf991906144cc565b60736000878785818110610c0f57610c0f6149e0565b9050602002016020810190610c2491906144fe565b6001600160a01b031681526020810191909152604001600020805460ff1916911515919091179055848482818110610c5e57610c5e6149e0565b9050602002016020810190610c7391906144fe565b6001600160a01b03167f0a4552f1105808db6a44587c9ef0a7c4064bf620b9d843b514ad7365bd52239a848484818110610caf57610caf6149e0565b9050602002016020810190610cc491906144cc565b604051901515815260200160405180910390a280610ce181614a29565b915050610aa2565b5050505050565b610cf86137d9565b6072805460ff1916911515919091179055565b6000818152607160209081526040808320600201546001600160a01b03168352606f909152812060040154610d3f83612196565b101592915050565b60001960675403610d6b57604051633f795dab60e01b815260040160405180910390fd5b6068546001600160a01b03163314610d9857604051632ee6aa4960e01b8152336004820152602401610bc9565b600160665414610dbb5760405163a1422f6960e01b815260040160405180910390fd5b600260665581610dca816117bf565b6001600160a01b038316600090815260736020526040902054839060ff16610e105760405163d0a6758b60e01b81526001600160a01b0382166004820152602401610bc9565b606c54600216610e33576040516334b99c7760e11b815260040160405180910390fd5b600080610e436067548787613833565b915091507f9181b2981704b7cf4448130f29cb5da1f41e0418d000e7f8880000b09bcbea4560675433888585604051610e80959493929190614a42565b60405180910390a15050600160665550505050565b6000818152607160205260408120600301546001600160a01b0316610eb9816117bf565b610ec283612f69565b9392505050565b60001960675403610eed57604051633f795dab60e01b815260040160405180910390fd5b6068546001600160a01b03163314610f1a57604051632ee6aa4960e01b8152336004820152602401610bc9565b600160665414610f3d5760405163a1422f6960e01b815260040160405180910390fd5b60026066556001600160a01b038316600090815260746020526040902054839060ff16610f885760405163d0a6758b60e01b81526001600160a01b0382166004820152602401610bc9565b606754600090815260716020526040902060018101546001600160a01b038681169116141580610fbc575083816005015414155b156110b757606a54604051635afcdda160e11b81526001600160a01b039091169063b5f9bb4290610ff39088908890600401614a71565b6020604051808303816000875af1158015611012573d6000803e3d6000fd5b505050506040513d601f19601f8201168201806040525081019061103691906149f6565b61105e57604051630f7ff61760e11b81526001600160a01b0386166004820152602401610bc9565b60068101541561109257600181015460405163a19d532160e01b81526001600160a01b039091166004820152602401610bc9565b6001810180546001600160a01b0319166001600160a01b038716179055600581018490555b60006110c4868686613978565b9050808260060160008282546110da9190614a8a565b90915550506067548254604080519283526001600160a01b0391821660208401523390830152871660608201526080810186905260a081018290527fc5aca5cc1c259196b655af70661a6f72c1826c85b0c5c607d27da0a92a9408399060c001610e80565b60005b815181101561117f5761116d828281518110611160576111606149e0565b60200260200101516117bf565b8061117781614a29565b915050611142565b5050565b600054610100900460ff16158080156111a35750600054600160ff909116105b806111bd5750303b1580156111bd575060005460ff166001145b6112205760405162461bcd60e51b815260206004820152602e60248201527f496e697469616c697a61626c653a20636f6e747261637420697320616c72656160448201526d191e481a5b9a5d1a585b1a5e995960921b6064820152608401610bc9565b6000805460ff191660011790558015611243576000805461ff0019166101001790555b61124b613ad6565b6001600160a01b038316158061126857506001600160a01b038216155b156112865760405163538ba4f960e01b815260040160405180910390fd5b600160658190556066819055600019606755606880546001600160a01b031990811683179091556069805482166001600160a01b0386811691909117909155606a8054909216908616908117909155606b91909155600f606c556040519081527fd3b5d1e0ffaeff528910f3663f0adace7694ab8241d58e17a91351ced2e080319060200160405180910390a18015611359576000805461ff0019169055604051600181527f7f26b83ff96e1f2b6a682f133852f6798a09c465da95921460cefb38474024989060200160405180910390a15b505050565b60006000196067540361138457604051633f795dab60e01b815260040160405180910390fd5b6068546001600160a01b031633146113b157604051632ee6aa4960e01b8152336004820152602401610bc9565b6001606654146113d45760405163a1422f6960e01b815260040160405180910390fd5b6002606655826113e3816117bf565b6001600160a01b038416600090815260736020526040902054849060ff166114295760405163d0a6758b60e01b81526001600160a01b0382166004820152602401610bc9565b606c5460011661144c57604051634d2a0d3160e11b815260040160405180910390fd5b6001600160a01b038086166000908152606f602090815260408083206067548452607190925290912060038101549192909116156114c45760038101546001600160a01b038881169116146114bf5760405163b488b80160e01b81526001600160a01b0388166004820152602401610bc9565b6114e2565b6003810180546001600160a01b0319166001600160a01b0389161790555b600382015460006114f289613b05565b905060008215611515576115108261150a858c614a9d565b90613b89565b611517565b885b90508060000361153d57604051633fbab50360e01b8152600481018a9052602401610bc9565b808560030160008282546115519190614a8a565b925050819055508084600701600082825461156c9190614a8a565b9091555061157c90508a8a613bac565b97506115926001600160a01b038b16338a613d35565b7fef18174796a5d2f91d51dc5e907a4d7867bbd6e800f6225168e0453d581d0dcd606754338c8c856040516115cb959493929190614a42565b60405180910390a15050600160665550939695505050505050565b6115ee614373565b5060009081526071602090815260409182902082516101008101845281546001600160a01b039081168252600183015481169382019390935260028201548316938101939093526003810154909116606083015260048101546080830152600581015460a0830152600681015460c08301526007015460e082015290565b6116746137d9565b8281146116945760405163025e650f60e01b815260040160405180910390fd5b60005b83811015610ce95760008585838181106116b3576116b36149e0565b90506020020160208101906116c891906144fe565b6001600160a01b0316036116ef5760405163538ba4f960e01b815260040160405180910390fd5b828282818110611701576117016149e0565b905060200201602081019061171691906144cc565b6075600087878581811061172c5761172c6149e0565b905060200201602081019061174191906144fe565b6001600160a01b031681526020810191909152604001600020805460ff19169115159190911790558061177381614a29565b915050611697565b606754600090600181016117a2576040516316ceba0760e21b815260040160405180910390fd5b6000908152607160205260409020546001600160a01b0316919050565b6001600160a01b0381166000908152606f60205260409020805460ff166118045760405163f6e98bbd60e01b81526001600160a01b0383166004820152602401610bc9565b60028101546040516305eff7ef60e21b81523060048201526001600160a01b03909116906317bfdfbc906024016020604051808303816000875af1158015611850573d6000803e3d6000fd5b505050506040513d601f19601f820116820180604052508101906113599190614abc565b60006001606554146118995760405163a1422f6960e01b815260040160405180910390fd5b600260655560725460ff161580156118c157503360009081526076602052604090205460ff16155b156118e857333b156118e857604051631ebe781b60e21b8152336004820152602401610bc9565b6001600160a01b03831660009081526075602052604090205460ff1661192c576040516358ba279960e01b81526001600160a01b0384166004820152602401610bc9565b8360000361196d57606b805490600061194483614a29565b90915550600081815260716020526040902080546001600160a01b0319163317905593506119d2565b606b5484106119925760405163085cfa3b60e11b815260048101859052602401610bc9565b6000848152607160205260409020546001600160a01b031633146119d257604051635a08b9bd60e11b815260048101859052336024820152604401610bc9565b6067849055606880546001600160a01b0319166001600160a01b0385169081179091556040516000918291611a08908690614af9565b6000604051808303816000865af19150503d8060008114611a45576040519150601f19603f3d011682016040523d82523d6000602084013e611a4a565b606091505b509150915081611a9c57805115611a645780518082602001fd5b60405162461bcd60e51b815260206004820152600d60248201526c1898590818d85cdd0818d85b1b609a1b6044820152606401610bc9565b611aa586610d0b565b15611ac35760405163399510ad60e21b815260040160405180910390fd5b600019606755606880546001600160a01b0319166001179055604080518781523360208201527f060c8d1a634a03980e75eb63c749a805b9b8b4b3dfa32f1ace3889aea1e460d1910160405180910390a150506001606555509192915050565b611b2b6137d9565b611b356000613d8b565b565b600160655414611b5a5760405163a1422f6960e01b815260040160405180910390fd5b600260655581611b69816117bf565b606c54600216611b8c576040516334b99c7760e11b815260040160405180910390fd5b81600003611bad57604051630f6fa54560e41b815260040160405180910390fd5b611bb684610d0b565b611bd657604051637ac7541560e01b815260048101859052602401610bc9565b60008481526071602090815260408083206002808201546001600160a01b039081168652606f855294839020835160e081018552815460ff808216151583526101008204169682019690965262010000909504861693850193909352600183810154861660608601529083015485166080850152600383015460a085015260049092015460c084015290810154909216611c8657604051630542b02f60e01b815260048101879052602401610bc9565b613840606d54611c969190614a8a565b421015611cb657604051630ccee6ef60e21b815260040160405180910390fd5b6007820154600080611cc9898989613833565b91509150600083828760060154611ce09190614a9d565b611cea9190614b15565b9050600084838860040154611cff9190614a9d565b611d099190614b15565b905081876006016000828254611d1f9190614b37565b9250508190555080876004016000828254611d3a9190614b37565b909155505060018701546005880154604051637921219560e11b81526001600160a01b039092169163f242432a91611d7a91309133918890600401614b4a565b600060405180830381600087803b158015611d9457600080fd5b505af1158015611da8573d6000803e3d6000fd5b5050506002880154611dc391506001600160a01b0316613ddd565b15611de6576060860151611de1906001600160a01b03163383613d35565b611e56565b60408087015160028901549151637921219560e11b81526001600160a01b039182169263f242432a92611e23923092339216908790600401614b4a565b600060405180830381600087803b158015611e3d57600080fd5b505af1158015611e51573d6000803e3d6000fd5b505050505b604080518c81523360208201526001600160a01b038c1681830152606081018690526080810185905260a0810184905260c0810183905290517fe226831b9bcd388aeb7302d8e31fe0ffea78e95ff8253828c9e5ad4221ba401d9181900360e00190a150506001606555505050505050505050565b611ed36137d9565b6000611ee3606c54600216151590565b606c839055905060028216151581158015611efb5750805b156113595742606d55505050565b611f116137d9565b828114611f315760405163025e650f60e01b815260040160405180910390fd5b60005b83811015610ce9576000858583818110611f5057611f506149e0565b9050602002016020810190611f6591906144fe565b6001600160a01b031603611f8c5760405163538ba4f960e01b815260040160405180910390fd5b828282818110611f9e57611f9e6149e0565b9050602002016020810190611fb391906144cc565b60766000878785818110611fc957611fc96149e0565b9050602002016020810190611fde91906144fe565b6001600160a01b031681526020810191909152604001600020805460ff19169115159190911790558061201081614a29565b915050611f34565b60006000196067540361203e57604051633f795dab60e01b815260040160405180910390fd5b6068546001600160a01b0316331461206b57604051632ee6aa4960e01b8152336004820152602401610bc9565b60016066541461208e5760405163a1422f6960e01b815260040160405180910390fd5b60026066556067546000908152607160205260409020600183016120b457806006015492505b828160060160008282546120c89190614b37565b909155505060018101546005820154604051637921219560e11b81526001600160a01b039092169163f242432a9161210891309133918990600401614b4a565b600060405180830381600087803b15801561212257600080fd5b505af1158015612136573d6000803e3d6000fd5b5050606754600184015460058501546040517fa61ee435e629eecbcb5df77d05e802c71092439cdbeb225d95305f5a159755a39550612184945033926001600160a01b031691908990614a42565b60405180910390a15050600160665590565b6000806121a283612bf6565b905060006121af846131ca565b905060006121bc8561222c565b9050801580156121ca575082155b80156121d4575081155b806121df5750818310155b156121ed5760009350612224565b806000036121ff576127109350612224565b8061271061220d8585614b37565b6122179190614a9d565b6122219190614b15565b93505b505050919050565b600081815260716020908152604080832081516101008101835281546001600160a01b0390811682526001830154811694820194909452600282015484169281018390526003820154909316606084015260048101546080840152600581015460a0840152600681015460c08401526007015460e083015282906122af90613ddd565b1561236357608082015160608301516001600160a01b039081166000908152606f602090815260409182902060020154825163182df0f560e01b81529251670de0b6b3a76400009594919091169263182df0f59260048083019391928290030181865afa158015612324573d6000803e3d6000fd5b505050506040513d601f19601f820116820180604052508101906123489190614abc565b6123529190614a9d565b61235c9190614b15565b905061236a565b5060808101515b606a546040808401519051636d34cd1760e01b81526001600160a01b0390921691636d34cd179161239f918590600401614a71565b6020604051808303816000875af11580156123be573d6000803e3d6000fd5b505050506040513d601f19601f820116820180604052508101906123e29190614abc565b949350505050565b6123f26137d9565b6001600160a01b038416600090815260736020526040902054849060ff166124385760405163d0a6758b60e01b81526001600160a01b0382166004820152602401610bc9565b6001600160a01b038416158061245557506001600160a01b038316155b156124735760405163538ba4f960e01b815260040160405180910390fd5b61271082111561249957604051638928b5e960e01b815260048101839052602401610bc9565b611f408210156124bf57604051635f85557960e01b815260048101839052602401610bc9565b6001600160a01b038086166000908152606f602090815260408083208151630c07ac2160e11b81529151909489169263180f584292600480820193918290030181865afa158015612514573d6000803e3d6000fd5b505050506040513d601f19601f820116820180604052508101906125389190614b82565b6001600160a01b03811660009081526070602052604090205490915060ff161561257557604051632f53a8bb60e01b815260040160405180910390fd5b815460ff161561259857604051630c5c209360e11b815260040160405180910390fd5b606e54610100116125bc57604051638aaff22360e01b815260040160405180910390fd5b6001600160a01b03818116600081815260706020526040908190208054600160ff199182168117909255865490811682178755606e546002880180546001600160a01b0319908116909617905587830180549095168c87161790945561ffff191661010060ff9094169390930292909217821762010000600160b01b031916620100009389169384021785556004808601889055905163a22cb46560e01b8152908101839052602481019190915263a22cb46590604401600060405180830381600087803b15801561268d57600080fd5b505af11580156126a1573d6000803e3d6000fd5b5050606e80546001810182556000919091527f9930d9ff0dee0ef5ca2f7710ea66b8f84dd0f5f5351ecffe72b952cd9db7142a0180546001600160a01b0319166001600160a01b038b81169182179092556040805191825285831660208301528a83169082015290881660608201527f110059ef9db762501f341cb35fc60ec6c4667be05f312dc112683396aff872579250608001905060405180910390a150505050505050565b6000196067540361276d57604051633f795dab60e01b815260040160405180910390fd5b6068546001600160a01b0316331461279a57604051632ee6aa4960e01b8152336004820152602401610bc9565b6001606654146127bd5760405163a1422f6960e01b815260040160405180910390fd5b6002606655816127cc816117bf565b6001600160a01b038316600090815260736020526040902054839060ff166128125760405163d0a6758b60e01b81526001600160a01b0382166004820152602401610bc9565b606c54600416612835576040516301d9569360e61b815260040160405180910390fd5b60675460009081526071602090815260408083206001600160a01b038089168552606f90935292206002830154909116156128aa5760028201546001600160a01b038781169116146128a55760405163a1a006a360e01b81526001600160a01b0387166004820152602401610bc9565b6128c8565b6002820180546001600160a01b0319166001600160a01b0388161790555b81546128e2906001600160a01b0388811691163088613e6b565b6128f4866128ee613287565b87613ea9565b6128fc613287565b6001600160a01b031663b300e95587876040518363ffffffff1660e01b8152600401612929929190614a71565b6020604051808303816000875af1158015612948573d6000803e3d6000fd5b505050506040513d601f19601f8201168201806040525081019061296c9190614abc565b945061297786613ddd565b15612a255760018101546129969087906001600160a01b031687613ea9565b600181015460405163b6b55f2560e01b8152600481018790526001600160a01b039091169063b6b55f25906024016020604051808303816000875af11580156129e3573d6000803e3d6000fd5b505050506040513d601f19601f82011682018060405250810190612a079190614abc565b826004016000828254612a1a9190614a8a565b90915550612ad49050565b8054612a429087906201000090046001600160a01b031687613ea9565b80546040516311f9fbc960e21b8152620100009091046001600160a01b0316906347e7ef2490612a789089908990600401614a71565b6020604051808303816000875af1158015612a97573d6000803e3d6000fd5b505050506040513d601f19601f82011682018060405250810190612abb9190614abc565b826004016000828254612ace9190614a8a565b90915550505b606754604080519182523360208301526001600160a01b03881690820152606081018690527f77c494147cc26c9ccb1f3f1926fb5bffa128633d935fdf7147dff0da6f740db490608001610e80565b612b2b6137d9565b60005b8251811015611359576000838281518110612b4b57612b4b6149e0565b6020026020010151905060006001600160a01b0316816001600160a01b031603612b885760405163538ba4f960e01b815260040160405180910390fd5b6001600160a01b038116600081815260746020908152604091829020805460ff191687151590811790915591519182527fec6817678ecd1396c1046a13a026051f8208d63a26559f6d0e51ea34f0d0d09d910160405180910390a25080612bee81614a29565b915050612b2e565b600081815260716020908152604080832081516101008101835281546001600160a01b039081168252600183015481169482019490945260028201548416928101929092526003810154909216606082015260048201546080820152600582015460a0820152600682015460c0820181905260079092015460e0820152908203612c835750600092915050565b60208101516001600160a01b0316612cb157604051630542b02f60e01b815260048101849052602401610bc9565b606a54602082015160a083015160c08401516040516001621852b960e21b031981526001600160a01b03938416600482015260248101929092526044820152600092919091169063ff9eb51c906064016020604051808303816000875af1158015612d20573d6000803e3d6000fd5b505050506040513d601f19601f82011682018060405250810190612d449190614abc565b9050600080600084602001516001600160a01b0316635ef819ce8660a001518760c001516040518363ffffffff1660e01b8152600401612d8e929190918252602082015260400190565b6000604051808303816000875af1158015612dad573d6000803e3d6000fd5b505050506040513d6000823e601f3d908101601f19168201604052612dd59190810190614bfa565b9150915060005b8251811015612f5357606a5483516001600160a01b03909116906375151b6390859084908110612e0e57612e0e6149e0565b60200260200101516040518263ffffffff1660e01b8152600401612e4191906001600160a01b0391909116815260200190565b6020604051808303816000875af1158015612e60573d6000803e3d6000fd5b505050506040513d601f19601f82011682018060405250810190612e8491906149f6565b15612f4157606a5483516001600160a01b0390911690636d34cd1790859084908110612eb257612eb26149e0565b6020026020010151848481518110612ecc57612ecc6149e0565b60200260200101516040518363ffffffff1660e01b8152600401612ef1929190614a71565b6020604051808303816000875af1158015612f10573d6000803e3d6000fd5b505050506040513d601f19601f82011682018060405250810190612f349190614abc565b612f3e9085614a8a565b93505b80612f4b81614a29565b915050612ddc565b50612f5e8385614a8a565b979650505050505050565b60008060716000848152602001908152602001600020604051806101000160405290816000820160009054906101000a90046001600160a01b03166001600160a01b03166001600160a01b031681526020016001820160009054906101000a90046001600160a01b03166001600160a01b03166001600160a01b031681526020016002820160009054906101000a90046001600160a01b03166001600160a01b03166001600160a01b031681526020016003820160009054906101000a90046001600160a01b03166001600160a01b03166001600160a01b0316815260200160048201548152602001600582015481526020016006820154815260200160078201548152505090506000606f600083606001516001600160a01b03166001600160a01b031681526020019081526020016000206040518060e00160405290816000820160009054906101000a900460ff161515151581526020016000820160019054906101000a900460ff1660ff1660ff1681526020016000820160029054906101000a90046001600160a01b03166001600160a01b03166001600160a01b031681526020016001820160009054906101000a90046001600160a01b03166001600160a01b03166001600160a01b031681526020016002820160009054906101000a90046001600160a01b03166001600160a01b03166001600160a01b031681526020016003820154815260200160048201548152505090508160e0015160001480613197575060a0810151155b156131a6575060009392505050565b6123e28160a001516131bb8460600151613b05565b8460e0015161150a9190614a9d565b600081815260716020908152604080832081516101008101835281546001600160a01b039081168252600183015481169482019490945260028201548416928101929092526003810154909216606082015260048201546080820152600582015460a0820152600682015460c082015260079091015460e08201528161324f84612f69565b606a546060840151604051636d34cd1760e01b81529293506001600160a01b0390911691636d34cd179161239f918590600401614a71565b6069546040805163d0fb020360e01b815290516000926001600160a01b03169163d0fb02039160048083019260209291908290030181865afa1580156132d1573d6000803e3d6000fd5b505050506040513d601f19601f820116820180604052508101906132f59190614b82565b905090565b606e818154811061330a57600080fd5b6000918252602090912001546001600160a01b0316905081565b61332c6137d9565b6001600160a01b0381166133915760405162461bcd60e51b815260206004820152602660248201527f4f776e61626c653a206e6577206f776e657220697320746865207a65726f206160448201526564647265737360d01b6064820152608401610bc9565b61339a81613d8b565b50565b600019606754036133c157604051633f795dab60e01b815260040160405180910390fd5b6068546001600160a01b031633146133ee57604051632ee6aa4960e01b8152336004820152602401610bc9565b6001606654146134115760405163a1422f6960e01b815260040160405180910390fd5b600260665581613420816117bf565b606c546008166134435760405163294b917560e11b815260040160405180910390fd5b60675460009081526071602090815260408083206001600160a01b03808816808652606f855294839020835160e081018552815460ff80821615158352610100820416968201969096526201000090950482169385019390935260018301548116606085015260028084015482166080860152600384015460a086015260049093015460c08501529181015490939116146134fc576040516356e6e56f60e11b81526001600160a01b0386166004820152602401610bc9565b600019840361350d57816004015493505b600061351886613ddd565b156135a557606082015161352d908087613ea9565b6060820151604051632e1a7d4d60e01b8152600481018790526001600160a01b0390911690632e1a7d4d906024016020604051808303816000875af115801561357a573d6000803e3d6000fd5b505050506040513d601f19601f8201168201806040525081019061359e9190614abc565b905061361d565b81604001516001600160a01b031663f3fef3a387876040518363ffffffff1660e01b81526004016135d7929190614a71565b6020604051808303816000875af11580156135f6573d6000803e3d6000fd5b505050506040513d601f19601f8201168201806040525081019061361a9190614abc565b90505b848360040160008282546136319190614b37565b90915550613649905086613643613287565b83613ea9565b613651613287565b6001600160a01b0316639860450b87836040518363ffffffff1660e01b815260040161367e929190614a71565b6020604051808303816000875af115801561369d573d6000803e3d6000fd5b505050506040513d601f19601f820116820180604052508101906136c19190614abc565b90506136d76001600160a01b0387163383613d35565b606754604080519182523360208301526001600160a01b03881690820152606081018290527ff1e67ca791a03e6154f447c6adbce87374be012e6cd4e6cd875984ca7d033f4990608001610e80565b61372e614373565b600019606754036137585760675460405163085cfa3b60e11b8152600401610bc991815260200190565b5060675460009081526071602090815260409182902082516101008101845281546001600160a01b039081168252600183015481169382019390935260028201548316938101939093526003810154909116606083015260048101546080830152600581015460a0830152600681015460c08301526007015460e082015290565b6033546001600160a01b03163314611b355760405162461bcd60e51b815260206004820181905260248201527f4f776e61626c653a2063616c6c6572206973206e6f7420746865206f776e65726044820152606401610bc9565b6001600160a01b038083166000818152606f6020908152604080832088845260719092528220600381015492948594929391929116146138915760405163b488b80160e01b81526001600160a01b0387166004820152602401610bc9565b600382015460006138a188613b05565b600784015490915060006138b98461150a8585614a9d565b9050808911156138c7578098505b6138d18a8a613f8d565b985060006138df8b8b614091565b90508181111561390b57604051620a043960e71b81526004810182905260248101839052604401610bc9565b600082821461392e578461391f8784614a9d565b6139299190614b15565b613930565b835b9050808860030160008282546139469190614b37565b92505081905550808760070160008282546139619190614b37565b90915550919d909c509a5050505050505050505050565b600080846001600160a01b031662fdd58e30866040518363ffffffff1660e01b81526004016139a8929190614a71565b602060405180830381865afa1580156139c5573d6000803e3d6000fd5b505050506040513d601f19601f820116820180604052508101906139e99190614abc565b604051637921219560e11b81529091506001600160a01b0386169063f242432a90613a1e903390309089908990600401614b4a565b600060405180830381600087803b158015613a3857600080fd5b505af1158015613a4c573d6000803e3d6000fd5b5050604051627eeac760e11b8152600092506001600160a01b038816915062fdd58e90613a7f9030908990600401614a71565b602060405180830381865afa158015613a9c573d6000803e3d6000fd5b505050506040513d601f19601f82011682018060405250810190613ac09190614abc565b9050613acc8282614b37565b9695505050505050565b600054610100900460ff16613afd5760405162461bcd60e51b8152600401610bc990614cbf565b611b3561416d565b6001600160a01b038181166000908152606f60205260408082206002015490516395dd919360e01b8152306004820152919216906395dd919390602401602060405180830381865afa158015613b5f573d6000803e3d6000fd5b505050506040513d601f19601f82011682018060405250810190613b839190614abc565b92915050565b6000816001613b988286614a8a565b613ba29190614b37565b610ec29190614b15565b6001600160a01b038281166000818152606f60205260408082206002015490516370a0823160e01b81523060048201529193169185918491906370a0823190602401602060405180830381865afa158015613c0b573d6000803e3d6000fd5b505050506040513d601f19601f82011682018060405250810190613c2f9190614abc565b60405163317afabb60e21b8152600481018790529091506001600160a01b0384169063c5ebeaec906024016020604051808303816000875af1158015613c79573d6000803e3d6000fd5b505050506040513d601f19601f82011682018060405250810190613c9d9190614abc565b15613cbe576040516333dc11b360e01b815260048101869052602401610bc9565b6040516370a0823160e01b81523060048201526000906001600160a01b038416906370a0823190602401602060405180830381865afa158015613d05573d6000803e3d6000fd5b505050506040513d601f19601f82011682018060405250810190613d299190614abc565b9050612f5e8282614b37565b6113598363a9059cbb60e01b8484604051602401613d54929190614a71565b60408051601f198184030181529190526020810180516001600160e01b03166001600160e01b03199093169290921790915261419d565b603380546001600160a01b038381166001600160a01b0319831681179093556040519116919082907f8be0079c531659141344cd1fd0a4f28419497f9722a3daafe3b4186f6b6457e090600090a35050565b6001600160a01b038082166000818152606f60209081526040808320600101548151636331563760e01b81529151939516926363315637926004808401939192918290030181865afa158015613e37573d6000803e3d6000fd5b505050506040513d601f19601f82011682018060405250810190613e5b9190614b82565b6001600160a01b03161492915050565b6040516001600160a01b0380851660248301528316604482015260648101829052613ea39085906323b872dd60e01b90608401613d54565b50505050565b60405163095ea7b360e01b81526001600160a01b0384169063095ea7b390613ed8908590600090600401614a71565b6020604051808303816000875af1158015613ef7573d6000803e3d6000fd5b505050506040513d601f19601f82011682018060405250810190613f1b91906149f6565b5060405163095ea7b360e01b81526001600160a01b0384169063095ea7b390613f4a9085908590600401614a71565b6020604051808303816000875af1158015613f69573d6000803e3d6000fd5b505050506040513d601f19601f82011682018060405250810190613ea391906149f6565b6040516370a0823160e01b815230600482015260009081906001600160a01b038516906370a0823190602401602060405180830381865afa158015613fd6573d6000803e3d6000fd5b505050506040513d601f19601f82011682018060405250810190613ffa9190614abc565b90506140116001600160a01b038516333086613e6b565b6040516370a0823160e01b81523060048201526000906001600160a01b038616906370a0823190602401602060405180830381865afa158015614058573d6000803e3d6000fd5b505050506040513d601f19601f8201168201806040525081019061407c9190614abc565b90506140888282614b37565b95945050505050565b6001600160a01b038083166000908152606f60205260408120600201549091166140bc848285613ea9565b60006140c785613b05565b60405163073a938160e11b8152600481018690529091506001600160a01b03831690630e752702906024016020604051808303816000875af1158015614111573d6000803e3d6000fd5b505050506040513d601f19601f820116820180604052508101906141359190614abc565b1561415657604051631975572360e01b815260048101859052602401610bc9565b600061416186613b05565b9050613acc8183614b37565b600054610100900460ff166141945760405162461bcd60e51b8152600401610bc990614cbf565b611b3533613d8b565b60006141f2826040518060400160405280602081526020017f5361666545524332303a206c6f772d6c6576656c2063616c6c206661696c6564815250856001600160a01b031661426f9092919063ffffffff16565b805190915015611359578080602001905181019061421091906149f6565b6113595760405162461bcd60e51b815260206004820152602a60248201527f5361666545524332303a204552433230206f7065726174696f6e20646964206e6044820152691bdd081cdd58d8d9595960b21b6064820152608401610bc9565b60606123e28484600085856001600160a01b0385163b6142d15760405162461bcd60e51b815260206004820152601d60248201527f416464726573733a2063616c6c20746f206e6f6e2d636f6e74726163740000006044820152606401610bc9565b600080866001600160a01b031685876040516142ed9190614af9565b60006040518083038185875af1925050503d806000811461432a576040519150601f19603f3d011682016040523d82523d6000602084013e61432f565b606091505b5091509150612f5e82828660608315614349575081610ec2565b8251156143595782518084602001fd5b8160405162461bcd60e51b8152600401610bc99190614d0a565b60405180610100016040528060006001600160a01b0316815260200160006001600160a01b0316815260200160006001600160a01b0316815260200160006001600160a01b03168152602001600081526020016000815260200160008152602001600081525090565b6000602082840312156143ee57600080fd5b81356001600160e01b031981168114610ec257600080fd5b60008083601f84011261441857600080fd5b50813567ffffffffffffffff81111561443057600080fd5b6020830191508360208260051b850101111561444b57600080fd5b9250929050565b6000806000806040858703121561446857600080fd5b843567ffffffffffffffff8082111561448057600080fd5b61448c88838901614406565b909650945060208701359150808211156144a557600080fd5b506144b287828801614406565b95989497509550505050565b801515811461339a57600080fd5b6000602082840312156144de57600080fd5b8135610ec2816144be565b6001600160a01b038116811461339a57600080fd5b60006020828403121561451057600080fd5b8135610ec2816144e9565b60006020828403121561452d57600080fd5b5035919050565b6000806040838503121561454757600080fd5b8235614552816144e9565b946020939093013593505050565b60008060006060848603121561457557600080fd5b8335614580816144e9565b95602085013595506040909401359392505050565b634e487b7160e01b600052604160045260246000fd5b604051601f8201601f1916810167ffffffffffffffff811182821017156145d4576145d4614595565b604052919050565b600067ffffffffffffffff8211156145f6576145f6614595565b5060051b60200190565b600082601f83011261461157600080fd5b81356020614626614621836145dc565b6145ab565b82815260059290921b8401810191818101908684111561464557600080fd5b8286015b8481101561466957803561465c816144e9565b8352918301918301614649565b509695505050505050565b60006020828403121561468657600080fd5b813567ffffffffffffffff81111561469d57600080fd5b6123e284828501614600565b600080604083850312156146bc57600080fd5b82356146c7816144e9565b915060208301356146d7816144e9565b809150509250929050565b6000806000606084860312156146f757600080fd5b8335925060208085013561470a816144e9565b9250604085013567ffffffffffffffff8082111561472757600080fd5b818701915087601f83011261473b57600080fd5b81358181111561474d5761474d614595565b61475f601f8201601f191685016145ab565b9150808252888482850101111561477557600080fd5b80848401858401376000848284010152508093505050509250925092565b6000806000606084860312156147a857600080fd5b8335925060208401356147ba816144e9565b929592945050506040919091013590565b600080600080608085870312156147e157600080fd5b84356147ec816144e9565b935060208501356147fc816144e9565b9250604085013561480c816144e9565b9396929550929360600135925050565b6000806040838503121561482f57600080fd5b823567ffffffffffffffff81111561484657600080fd5b61485285828601614600565b92505060208301356146d7816144be565b60008083601f84011261487557600080fd5b50813567ffffffffffffffff81111561488d57600080fd5b60208301915083602082850101111561444b57600080fd5b60008060008060008060008060a0898b0312156148c157600080fd5b88356148cc816144e9565b975060208901356148dc816144e9565b9650604089013567ffffffffffffffff808211156148f957600080fd5b6149058c838d01614406565b909850965060608b013591508082111561491e57600080fd5b61492a8c838d01614406565b909650945060808b013591508082111561494357600080fd5b506149508b828c01614863565b999c989b5096995094979396929594505050565b60008060008060008060a0878903121561497d57600080fd5b8635614988816144e9565b95506020870135614998816144e9565b94506040870135935060608701359250608087013567ffffffffffffffff8111156149c257600080fd5b6149ce89828a01614863565b979a9699509497509295939492505050565b634e487b7160e01b600052603260045260246000fd5b600060208284031215614a0857600080fd5b8151610ec2816144be565b634e487b7160e01b600052601160045260246000fd5b600060018201614a3b57614a3b614a13565b5060010190565b9485526001600160a01b0393841660208601529190921660408401526060830191909152608082015260a00190565b6001600160a01b03929092168252602082015260400190565b80820180821115613b8357613b83614a13565b6000816000190483118215151615614ab757614ab7614a13565b500290565b600060208284031215614ace57600080fd5b5051919050565b60005b83811015614af0578181015183820152602001614ad8565b50506000910152565b60008251614b0b818460208701614ad5565b9190910192915050565b600082614b3257634e487b7160e01b600052601260045260246000fd5b500490565b81810381811115613b8357613b83614a13565b6001600160a01b0394851681529290931660208301526040820152606081019190915260a06080820181905260009082015260c00190565b600060208284031215614b9457600080fd5b8151610ec2816144e9565b600082601f830112614bb057600080fd5b81516020614bc0614621836145dc565b82815260059290921b84018101918181019086841115614bdf57600080fd5b8286015b848110156146695780518352918301918301614be3565b60008060408385031215614c0d57600080fd5b825167ffffffffffffffff80821115614c2557600080fd5b818501915085601f830112614c3957600080fd5b81516020614c49614621836145dc565b82815260059290921b84018101918181019089841115614c6857600080fd5b948201945b83861015614c8f578551614c80816144e9565b82529482019490820190614c6d565b91880151919650909350505080821115614ca857600080fd5b50614cb585828601614b9f565b9150509250929050565b6020808252602b908201527f496e697469616c697a61626c653a20636f6e7472616374206973206e6f74206960408201526a6e697469616c697a696e6760a81b606082015260800190565b6020815260008251806020840152614d29816040850160208701614ad5565b601f01601f1916919091016040019291505056fea2646970667358221220229f2692774852c5e6f629d2e9d5b781d6e67f3534567a99249e89422c03b44864736f6c63430008100033",
  "devdoc": {
    "author": "BlueberryProtocol",
    "kind": "dev",
    "methods": {
      "EXECUTOR()": {
        "details": "An executor is the owner of the current position.",
        "returns": {
          "_0": "Address of the executor."
        }
      },
      "accrue(address)": {
        "details": "Trigger interest accrual for a specific bank.",
        "params": {
          "token": "The address of the underlying token to trigger the interest accrual."
        }
      },
      "accrueAll(address[])": {
        "details": "Convenient function to trigger interest accrual for multiple banks.",
        "params": {
          "tokens": "An array of token addresses to trigger interest accrual for."
        }
      },
      "addBank(address,address,address,uint256)": {
        "details": "Add a new bank entity with associated vaults.Emits a {AddBank} event.",
        "params": {
          "hardVault": "Address of the hardVault.",
          "liqThreshold": "Liquidation threshold.",
          "softVault": "Address of the softVault.",
          "token": "Address of the underlying token for the bank."
        }
      },
      "borrow(address,uint256)": {
        "details": "This function must only be called from a spell while under execution.Emit a {Borrow} event.",
        "params": {
          "amount": "The amount of tokens the user wishes to borrow.",
          "token": "The token to borrow from the bank."
        },
        "returns": {
          "borrowedAmount": "Returns the actual amount borrowed from the bank."
        }
      },
      "constructor": {
        "custom:oz-upgrades-unsafe-allow": "constructor"
      },
      "currentPositionDebt(uint256)": {
        "details": "Trigger interest accrual and return the current debt balance for a specific position.",
        "params": {
          "positionId": "The ID of the position to query for the debt balance. The current debt balance for the specified position."
        }
      },
      "execute(uint256,address,bytes)": {
        "details": "Executes a specific action on a position.Emit an {Execute} event.",
        "params": {
          "data": "Data payload to pass to the spell for execution.",
          "positionId": "Unique identifier of the position, or zero for a new position.",
          "spell": "Address of the contract (\"spell\") that contains the logic for the action to be executed."
        }
      },
      "feeManager()": {
        "details": "Get the current FeeManager interface from the configuration.",
        "returns": {
          "_0": "An interface representing the current FeeManager."
        }
      },
      "getBankInfo(address)": {
        "details": "Retrieve information about a specific bank.",
        "params": {
          "token": "The token address to query for bank information."
        },
        "returns": {
          "bToken": "The address of the bToken associated with the bank.",
          "isListed": "Whether the bank is listed or not.",
          "totalShare": "The total shares in the bank."
        }
      },
      "getCurrentPositionInfo()": {
        "details": "Fetches details about the current active position.",
        "returns": {
          "_0": "Position object containing all details about the current position."
        }
      },
      "getDebtValue(uint256)": {
        "details": "Computes the total USD value of the debt of a given position.",
        "params": {
          "positionId": "ID of the position to compute the debt value for."
        },
        "returns": {
          "debtValue": "Total USD value of the position's debt."
        }
      },
      "getIsolatedCollateralValue(uint256)": {
        "details": "Computes the USD value of the isolated collateral for a given position.",
        "params": {
          "positionId": "ID of the position to compute the isolated collateral value for."
        },
        "returns": {
          "icollValue": "USD value of the isolated collateral."
        }
      },
      "getPositionDebt(uint256)": {
        "details": "Should call accrue first to obtain the current debt.",
        "params": {
          "positionId": "The ID of the position to query."
        }
      },
      "getPositionInfo(uint256)": {
        "details": "Fetches details about a specific position using its ID.",
        "params": {
          "positionId": "Unique identifier of the position."
        },
        "returns": {
          "_0": "Position object containing all details about the position."
        }
      },
      "getPositionRisk(uint256)": {
        "details": "Computes the risk ratio of a specified position.",
        "params": {
          "positionId": "ID of the position to assess risk for."
        },
        "returns": {
          "risk": "The risk ratio of the position (based on a scale of 1e4)."
        }
      },
      "getPositionValue(uint256)": {
        "details": "Computes the total USD value of the collateral of a given position.",
        "params": {
          "positionId": "ID of the position to compute the value for."
        },
        "returns": {
          "positionValue": "Total USD value of the collateral and pending rewards."
        }
      },
      "initialize(address,address)": {
        "details": "Initialize the bank smart contract, using msg.sender as the first governor.Emits a {SetOracle} event.",
        "params": {
          "config_": "The Protocol config address",
          "oracle_": "The oracle smart contract address."
        }
      },
      "isBorrowAllowed()": {
        "details": "Determine if borrowing is currently allowed based on the bank's status flags.",
        "returns": {
          "_0": "A boolean indicating whether borrowing is permitted."
        }
      },
      "isLendAllowed()": {
        "details": "Determine if lending is currently allowed based on the bank's status flags.",
        "returns": {
          "_0": "A boolean indicating whether lending is permitted."
        }
      },
      "isLiquidatable(uint256)": {
        "details": "Determines if a given position can be liquidated based on its risk ratio.",
        "params": {
          "positionId": "ID of the position to check."
        },
        "returns": {
          "_0": "True if the position can be liquidated; otherwise, false."
        }
      },
      "isRepayAllowed()": {
        "details": "Determine if repayments are currently allowed based on the bank's status flags.",
        "returns": {
          "_0": "A boolean indicating whether repayments are permitted."
        }
      },
      "isWithdrawLendAllowed()": {
        "details": "Determine if withdrawing from lending is currently allowed based on the bank's status flags.",
        "returns": {
          "_0": "A boolean indicating whether withdrawing from lending is permitted."
        }
      },
      "lend(address,uint256)": {
        "details": "Lend tokens to the bank as isolated collateral.Emit a {Lend} event.",
        "params": {
          "amount": "The number of tokens to lend.",
          "token": "The address of the token to lend."
        }
      },
      "liquidate(uint256,address,uint256)": {
        "details": "Liquidates a position by repaying its debt and taking the collateral.Emits a {Liquidate} event.",
        "params": {
          "amountCall": "The amount of debt to be repaid when calling transferFrom.",
          "debtToken": "The token in which the debt is denominated.",
          "positionId": "The unique identifier of the position to liquidate."
        }
      },
      "onERC1155BatchReceived(address,address,uint256[],uint256[],bytes)": {
        "details": "This function is called at the end of a  `safeBatchTransferFrom` after the balances have been updated."
      },
      "onERC1155Received(address,address,uint256,uint256,bytes)": {
        "details": "This function is called at the end of a  `safeTransferFrom` after the balance has been updated."
      },
      "owner()": {
        "details": "Returns the address of the current owner."
      },
      "putCollateral(address,uint256,uint256)": {
        "details": "Must only be called during execution.",
        "params": {
          "amountCall": "The amount of tokens to add as collateral.",
          "collId": "The token ID for collateral (i.e., uint256 format of LP address).",
          "collToken": "The ERC1155 token wrapped for collateral (i.e., Wrapped token of LP)."
        }
      },
      "renounceOwnership()": {
        "details": "Leaves the contract without owner. It will not be possible to call `onlyOwner` functions anymore. Can only be called by the current owner. NOTE: Renouncing ownership will leave the contract without an owner, thereby removing any functionality that is only available to the owner."
      },
      "repay(address,uint256)": {
        "details": "This function must only be called while under execution.Emit a {Repay} event.",
        "params": {
          "amountCall": "The amount of tokens to be repaid.",
          "token": "The token to repay to the bank."
        }
      },
      "setAllowContractCalls(bool)": {
        "details": "Toggles the allowance of contract calls.",
        "params": {
          "ok": "If true, contract calls are allowed. Otherwise, only EOA calls are allowed."
        }
      },
      "setBankStatus(uint256)": {
        "details": "Update the bank's operational status flags.",
        "params": {
          "_bankStatus": "The new status flags for the bank."
        }
      },
      "supportsInterface(bytes4)": {
        "details": "Returns true if the interfaceId is 0x01ffc9a7 (IERC1155Receiver)."
      },
      "takeCollateral(uint256)": {
        "details": "Must only be called during execution.",
        "params": {
          "amount": "The amount of tokens to be withdrawn as collateral."
        },
        "returns": {
          "_0": "Returns the amount of collateral withdrawn."
        }
      },
      "transferOwnership(address)": {
        "details": "Transfers ownership of the contract to a new account (`newOwner`). Can only be called by the current owner."
      },
      "whitelistContracts(address[],bool[])": {
        "details": "Sets whitelist statuses for various contracts.",
        "params": {
          "contracts": "List of contract addresses.",
          "statuses": "Corresponding list of whitelist statuses to set."
        }
      },
      "whitelistERC1155(address[],bool)": {
        "details": "Set the whitelist status for specific wrapped tokens (ERC1155).",
        "params": {
          "ok": "Boolean indicating the desired whitelist status for the provided tokens.",
          "tokens": "Array of wrapped token addresses to set their whitelist status."
        }
      },
      "whitelistSpells(address[],bool[])": {
        "details": "Set the whitelist status for specific spells.",
        "params": {
          "spells": "Array of spell addresses to change their whitelist status.",
          "statuses": "Array of boolean values indicating the desired whitelist status for each spell."
        }
      },
      "whitelistTokens(address[],bool[])": {
        "details": "Set the whitelist status for specific tokens.",
        "params": {
          "statuses": "Array of boolean values indicating the desired whitelist status for each token.",
          "tokens": "Array of token addresses to change their whitelist status."
        }
      },
      "withdrawLend(address,uint256)": {
        "details": "Withdraw isolated collateral tokens previously lent to the bank.Emit a {WithdrawLend} event.",
        "params": {
          "shareAmount": "The number of vault share tokens to withdraw.",
          "token": "The address of the isolated collateral token to withdraw."
        }
      }
    },
    "stateVariables": {
      "POSITION_ID": {
        "return": "Current position ID.",
        "returns": {
          "_0": "Current position ID."
        }
      },
      "SPELL": {
        "return": "Current spell address.",
        "returns": {
          "_0": "Current spell address."
        }
      },
      "oracle": {
        "details": "The protocol config address."
      }
    },
    "title": "BlueberryBank",
    "version": 1
  },
  "userdoc": {
    "errors": {
      "BAD_COLLATERAL(uint256)": [
        {
          "notice": "Thrown when collateral for a specific position is flagged as bad or invalid."
        }
      ],
      "BAD_POSITION(uint256)": [
        {
          "notice": "Thrown when a position is flagged as bad or invalid."
        }
      ],
      "BANK_ALREADY_LISTED()": [
        {
          "notice": "Thrown when a bank is already listed for a given token."
        }
      ],
      "BANK_LIMIT()": [
        {
          "notice": "Thrown when the bank limit is reached."
        }
      ],
      "BANK_NOT_LISTED(address)": [
        {
          "notice": "Thrown when a bank isn't listed for a given token."
        }
      ],
      "BORROW_FAILED(uint256)": [
        {
          "notice": "Thrown when borrowing from the vault fails."
        }
      ],
      "BORROW_NOT_ALLOWED()": [
        {
          "notice": "Thrown when the borrowing action isn't allowed."
        }
      ],
      "BORROW_ZERO_SHARE(uint256)": [
        {
          "notice": "Thrown when a borrow operation results in zero shares."
        }
      ],
      "BTOKEN_ALREADY_ADDED()": [
        {
          "notice": "Thrown when the BTOKEN is already added."
        }
      ],
      "DIFF_COL_EXIST(address)": [
        {
          "notice": "Thrown when a different collateral type exists."
        }
      ],
      "INCORRECT_UNDERLYING(address)": [
        {
          "notice": "Thrown when an incorrect underlying token is provided."
        }
      ],
      "INPUT_ARRAY_MISMATCH()": [
        {
          "notice": "Thrown when the lengths of input arrays do not match."
        }
      ],
      "INSUFFICIENT_COLLATERAL()": [
        {
          "notice": "Thrown when there's insufficient collateral for an operation."
        }
      ],
      "INVALID_UTOKEN(address)": [
        {
          "notice": "Thrown when an invalid utility token is provided."
        }
      ],
      "LEND_NOT_ALLOWED()": [
        {
          "notice": "Thrown when the lending action isn't allowed."
        }
      ],
      "LIQ_THRESHOLD_TOO_HIGH(uint256)": [
        {
          "notice": "Thrown when the liquidation threshold is set too high."
        }
      ],
      "LIQ_THRESHOLD_TOO_LOW(uint256)": [
        {
          "notice": "Thrown when the liquidation threshold is set too low."
        }
      ],
      "LOCKED()": [
        {
          "notice": "Thrown when certain actions are locked."
        }
      ],
      "NOT_EOA(address)": [
        {
          "notice": "Thrown when a transaction isn't initiated  by an externally owned account (EOA)."
        }
      ],
      "NOT_FROM_OWNER(uint256,address)": [
        {
          "notice": "Thrown when the sender is not the owner of a given position ID."
        }
      ],
      "NOT_FROM_SPELL(address)": [
        {
          "notice": "Thrown when a transaction isn't initiated by the expected spell."
        }
      ],
      "NOT_IN_EXEC()": [
        {
          "notice": "Thrown when an action isn't executed."
        }
      ],
      "NOT_LIQUIDATABLE(uint256)": [
        {
          "notice": "Thrown when a position is not eligible for liquidation."
        }
      ],
      "NOT_UNDER_EXECUTION()": [
        {
          "notice": "Thrown when a function is called without a required execution flag."
        }
      ],
      "ORACLE_NOT_SUPPORT(address)": [
        {
          "notice": "Thrown when the oracle doesn't support a specific token."
        }
      ],
      "ORACLE_NOT_SUPPORT_WTOKEN(address)": [
        {
          "notice": "Thrown when the oracle doesn't support a specific wToken."
        }
      ],
      "REPAY_ALLOW_NOT_WARMED_UP()": [
        {
          "notice": "Thrown when the repayment allowance hasn't been warmed up."
        }
      ],
      "REPAY_EXCEEDS_DEBT(uint256,uint256)": [
        {
          "notice": "Thrown when an attempted repayment exceeds the actual debt."
        }
      ],
      "REPAY_FAILED(uint256)": [
        {
          "notice": "Thrown when repaying to the vault fails."
        }
      ],
      "REPAY_NOT_ALLOWED()": [
        {
          "notice": "Thrown when the repaying action isn't allowed."
        }
      ],
      "SPELL_NOT_WHITELISTED(address)": [
        {
          "notice": "Thrown when a spell address isn't whitelisted."
        }
      ],
      "TOKEN_NOT_WHITELISTED(address)": [
        {
          "notice": "Thrown when a token isn't whitelisted."
        }
      ],
      "WITHDRAW_LEND_NOT_ALLOWED()": [
        {
          "notice": "Thrown when the redeeming action isn't allowed."
        }
      ],
      "ZERO_ADDRESS()": [
        {
          "notice": "Thrown when the address provided is the zero address."
        }
      ],
      "ZERO_AMOUNT()": [
        {
          "notice": "Thrown when an action involves zero amount of tokens."
        }
      ]
    },
    "events": {
      "AddBank(address,address,address,address)": {
        "notice": "Emitted when a new bank is added by the owner."
      },
      "Borrow(uint256,address,address,uint256,uint256)": {
        "notice": "Emitted when a user borrows tokens from a bank."
      },
      "Execute(uint256,address)": {
        "notice": "Emitted when a position is executed."
      },
      "Lend(uint256,address,address,uint256)": {
        "notice": "Emitted when tokens are lent to the bank."
      },
      "Liquidate(uint256,address,address,uint256,uint256,uint256,uint256)": {
        "notice": "Emitted when a position is liquidated."
      },
      "PutCollateral(uint256,address,address,address,uint256,uint256)": {
        "notice": "Emitted when a user adds tokens as collateral."
      },
      "Repay(uint256,address,address,uint256,uint256)": {
        "notice": "Emitted when a user repays borrowed tokens to a bank."
      },
      "SetOracle(address)": {
        "notice": "Emitted when the oracle's address is updated by the owner."
      },
      "SetWhitelistERC1155(address,bool)": {
        "notice": "Emitted when a Wrapped ERC1155 token is whitelisted or removed by the owner."
      },
      "SetWhitelistToken(address,bool)": {
        "notice": "Emitted when a token is whitelisted or removed by the owner."
      },
      "TakeCollateral(uint256,address,address,uint256,uint256)": {
        "notice": "Emitted when a user retrieves tokens from their collateral."
      },
      "WithdrawLend(uint256,address,address,uint256)": {
        "notice": "Emitted when lent tokens are withdrawn from the bank."
      }
    },
    "kind": "user",
    "methods": {
      "EXECUTOR()": {
        "notice": "Fetches the executor of the current position."
      },
      "POSITION_ID()": {
        "notice": "Returns the ID of the currently executed position."
      },
      "SPELL()": {
        "notice": "Returns the address of the currently executed spell."
      },
      "_GENERAL_LOCK()": {
        "notice": "Temporary variables used across functions."
      },
      "allBanks(uint256)": {
        "notice": "Collections of banks and positions."
      },
      "allowContractCalls()": {
        "notice": "Flags and whitelists"
      },
      "bTokenInBank(address)": {
        "notice": "Mapping from token to bank data."
      },
      "bankStatus()": {
        "notice": "Next available position ID, starting from 1 (see initialize)."
      },
      "banks(address)": {
        "notice": "The list of all listed banks."
      },
      "borrow(address,uint256)": {
        "notice": "Allows users to borrow tokens from the specified bank."
      },
      "config()": {
        "notice": "Configurations and oracle addresses."
      },
      "execute(uint256,address,bytes)": {
        "notice": "This can be used for various operations like adjusting collateral, repaying debt, etc."
      },
      "getCurrentPositionInfo()": {
        "notice": "This function assumes the presence of an active position and will revert if there's none."
      },
      "getDebtValue(uint256)": {
        "notice": "Ensure to call `accrue` beforehand to account for any interest changes."
      },
      "getIsolatedCollateralValue(uint256)": {
        "notice": "Ensure to call `accrue` beforehand to get the most recent value."
      },
      "getPositionDebt(uint256)": {
        "notice": "Retrieve the debt of a given position, considering the stored debt interest."
      },
      "getPositionRisk(uint256)": {
        "notice": "A higher risk ratio implies greater risk associated with the position.         when:  riskRatio = (ov - pv) / cv         where: riskRatio = (debt - positionValue) / isolatedCollateralValue"
      },
      "getPositionValue(uint256)": {
        "notice": "The returned value includes both the collateral and any pending rewards."
      },
      "isBorrowAllowed()": {
        "notice": "Check the last bit of bankStatus."
      },
      "isLendAllowed()": {
        "notice": "Check the third-to-last bit of bankStatus."
      },
      "isRepayAllowed()": {
        "notice": "Check the second-to-last bit of bankStatus."
      },
      "isWithdrawLendAllowed()": {
        "notice": "Check the fourth-to-last bit of bankStatus."
      },
      "lend(address,uint256)": {
        "notice": "The tokens lent will be used as collateral in the bank and might earn interest or other rewards."
      },
      "liquidate(uint256,address,uint256)": {
        "notice": "Liquidation can only be triggered if the position is deemed liquidatable          and other conditions are met."
      },
      "nextPositionId()": {
        "notice": "State variables for position and bank."
      },
      "onERC1155BatchReceived(address,address,uint256[],uint256[],bytes)": {
        "notice": "Handle the receipt of multiple ERC1155 token types."
      },
      "onERC1155Received(address,address,uint256,uint256,bytes)": {
        "notice": "Handle the receipt of a single ERC1155 token type."
      },
      "positions(uint256)": {
        "notice": "Mapping from bToken to its existence in bank."
      },
      "putCollateral(address,uint256,uint256)": {
        "notice": "Allows users to provide additional collateral."
      },
      "repay(address,uint256)": {
        "notice": "Allows users to repay their borrowed tokens to the bank."
      },
      "repayResumedTimestamp()": {
        "notice": "Each bit stores certain bank status, e.g. borrow allowed, repay allowed"
      },
      "supportsInterface(bytes4)": {
        "notice": "Checks if the contract supports a given interface."
      },
      "takeCollateral(uint256)": {
        "notice": "Allows users to withdraw a portion of their collateral."
      },
      "whitelistedContracts(address)": {
        "notice": "Mapping from spell to whitelist status"
      },
      "whitelistedSpells(address)": {
        "notice": "Mapping from token to whitelist status"
      },
      "whitelistedWrappedTokens(address)": {
        "notice": "Mapping from token to whitelist status"
      },
      "withdrawLend(address,uint256)": {
        "notice": "This will reduce the isolated collateral and might also reduce the position's overall health."
      }
    },
    "notice": "Blueberry Bank is the main contract that stores user's positions and track the borrowing of tokens",
    "version": 1
  },
  "storageLayout": {
    "storage": [
      {
        "astId": 241,
        "contract": "contracts/BlueBerryBank.sol:BlueBerryBank",
        "label": "_initialized",
        "offset": 0,
        "slot": "0",
        "type": "t_uint8"
      },
      {
        "astId": 244,
        "contract": "contracts/BlueBerryBank.sol:BlueBerryBank",
        "label": "_initializing",
        "offset": 1,
        "slot": "0",
        "type": "t_bool"
      },
      {
        "astId": 3309,
        "contract": "contracts/BlueBerryBank.sol:BlueBerryBank",
        "label": "__gap",
        "offset": 0,
        "slot": "1",
        "type": "t_array(t_uint256)50_storage"
      },
      {
        "astId": 113,
        "contract": "contracts/BlueBerryBank.sol:BlueBerryBank",
        "label": "_owner",
        "offset": 0,
        "slot": "51",
        "type": "t_address"
      },
      {
        "astId": 233,
        "contract": "contracts/BlueBerryBank.sol:BlueBerryBank",
        "label": "__gap",
        "offset": 0,
        "slot": "52",
        "type": "t_array(t_uint256)49_storage"
      },
      {
        "astId": 9606,
        "contract": "contracts/BlueBerryBank.sol:BlueBerryBank",
        "label": "_GENERAL_LOCK",
        "offset": 0,
        "slot": "101",
        "type": "t_uint256"
      },
      {
        "astId": 9608,
        "contract": "contracts/BlueBerryBank.sol:BlueBerryBank",
        "label": "_IN_EXEC_LOCK",
        "offset": 0,
        "slot": "102",
        "type": "t_uint256"
      },
      {
        "astId": 9610,
        "contract": "contracts/BlueBerryBank.sol:BlueBerryBank",
        "label": "POSITION_ID",
        "offset": 0,
        "slot": "103",
        "type": "t_uint256"
      },
      {
        "astId": 9612,
        "contract": "contracts/BlueBerryBank.sol:BlueBerryBank",
        "label": "SPELL",
        "offset": 0,
        "slot": "104",
        "type": "t_address"
      },
      {
        "astId": 9616,
        "contract": "contracts/BlueBerryBank.sol:BlueBerryBank",
        "label": "config",
        "offset": 0,
        "slot": "105",
        "type": "t_contract(IProtocolConfig)13609"
      },
      {
        "astId": 9620,
        "contract": "contracts/BlueBerryBank.sol:BlueBerryBank",
        "label": "oracle",
        "offset": 0,
        "slot": "106",
        "type": "t_contract(ICoreOracle)13419"
      },
      {
        "astId": 9623,
        "contract": "contracts/BlueBerryBank.sol:BlueBerryBank",
        "label": "nextPositionId",
        "offset": 0,
        "slot": "107",
        "type": "t_uint256"
      },
      {
        "astId": 9626,
        "contract": "contracts/BlueBerryBank.sol:BlueBerryBank",
        "label": "bankStatus",
        "offset": 0,
        "slot": "108",
        "type": "t_uint256"
      },
      {
        "astId": 9629,
        "contract": "contracts/BlueBerryBank.sol:BlueBerryBank",
        "label": "repayResumedTimestamp",
        "offset": 0,
        "slot": "109",
        "type": "t_uint256"
      },
      {
        "astId": 9633,
        "contract": "contracts/BlueBerryBank.sol:BlueBerryBank",
        "label": "allBanks",
        "offset": 0,
        "slot": "110",
        "type": "t_array(t_address)dyn_storage"
      },
      {
        "astId": 9639,
        "contract": "contracts/BlueBerryBank.sol:BlueBerryBank",
        "label": "banks",
        "offset": 0,
        "slot": "111",
        "type": "t_mapping(t_address,t_struct(Bank)12988_storage)"
      },
      {
        "astId": 9644,
        "contract": "contracts/BlueBerryBank.sol:BlueBerryBank",
        "label": "bTokenInBank",
        "offset": 0,
        "slot": "112",
        "type": "t_mapping(t_address,t_bool)"
      },
      {
        "astId": 9650,
        "contract": "contracts/BlueBerryBank.sol:BlueBerryBank",
        "label": "positions",
        "offset": 0,
        "slot": "113",
        "type": "t_mapping(t_uint256,t_struct(Position)13012_storage)"
      },
      {
        "astId": 9653,
        "contract": "contracts/BlueBerryBank.sol:BlueBerryBank",
        "label": "allowContractCalls",
        "offset": 0,
        "slot": "114",
        "type": "t_bool"
      },
      {
        "astId": 9657,
        "contract": "contracts/BlueBerryBank.sol:BlueBerryBank",
        "label": "whitelistedTokens",
        "offset": 0,
        "slot": "115",
        "type": "t_mapping(t_address,t_bool)"
      },
      {
        "astId": 9662,
        "contract": "contracts/BlueBerryBank.sol:BlueBerryBank",
        "label": "whitelistedWrappedTokens",
        "offset": 0,
        "slot": "116",
        "type": "t_mapping(t_address,t_bool)"
      },
      {
        "astId": 9667,
        "contract": "contracts/BlueBerryBank.sol:BlueBerryBank",
        "label": "whitelistedSpells",
        "offset": 0,
        "slot": "117",
        "type": "t_mapping(t_address,t_bool)"
      },
      {
        "astId": 9672,
        "contract": "contracts/BlueBerryBank.sol:BlueBerryBank",
        "label": "whitelistedContracts",
        "offset": 0,
        "slot": "118",
        "type": "t_mapping(t_address,t_bool)"
      }
    ],
    "types": {
      "t_address": {
        "encoding": "inplace",
        "label": "address",
        "numberOfBytes": "20"
      },
      "t_array(t_address)dyn_storage": {
        "base": "t_address",
        "encoding": "dynamic_array",
        "label": "address[]",
        "numberOfBytes": "32"
      },
      "t_array(t_uint256)49_storage": {
        "base": "t_uint256",
        "encoding": "inplace",
        "label": "uint256[49]",
        "numberOfBytes": "1568"
      },
      "t_array(t_uint256)50_storage": {
        "base": "t_uint256",
        "encoding": "inplace",
        "label": "uint256[50]",
        "numberOfBytes": "1600"
      },
      "t_bool": {
        "encoding": "inplace",
        "label": "bool",
        "numberOfBytes": "1"
      },
      "t_contract(ICoreOracle)13419": {
        "encoding": "inplace",
        "label": "contract ICoreOracle",
        "numberOfBytes": "20"
      },
      "t_contract(IProtocolConfig)13609": {
        "encoding": "inplace",
        "label": "contract IProtocolConfig",
        "numberOfBytes": "20"
      },
      "t_mapping(t_address,t_bool)": {
        "encoding": "mapping",
        "key": "t_address",
        "label": "mapping(address => bool)",
        "numberOfBytes": "32",
        "value": "t_bool"
      },
      "t_mapping(t_address,t_struct(Bank)12988_storage)": {
        "encoding": "mapping",
        "key": "t_address",
        "label": "mapping(address => struct IBank.Bank)",
        "numberOfBytes": "32",
        "value": "t_struct(Bank)12988_storage"
      },
      "t_mapping(t_uint256,t_struct(Position)13012_storage)": {
        "encoding": "mapping",
        "key": "t_uint256",
        "label": "mapping(uint256 => struct IBank.Position)",
        "numberOfBytes": "32",
        "value": "t_struct(Position)13012_storage"
      },
      "t_struct(Bank)12988_storage": {
        "encoding": "inplace",
        "label": "struct IBank.Bank",
        "members": [
          {
            "astId": 12969,
            "contract": "contracts/BlueBerryBank.sol:BlueBerryBank",
            "label": "isListed",
            "offset": 0,
            "slot": "0",
            "type": "t_bool"
          },
          {
            "astId": 12972,
            "contract": "contracts/BlueBerryBank.sol:BlueBerryBank",
            "label": "index",
            "offset": 1,
            "slot": "0",
            "type": "t_uint8"
          },
          {
            "astId": 12975,
            "contract": "contracts/BlueBerryBank.sol:BlueBerryBank",
            "label": "hardVault",
            "offset": 2,
            "slot": "0",
            "type": "t_address"
          },
          {
            "astId": 12978,
            "contract": "contracts/BlueBerryBank.sol:BlueBerryBank",
            "label": "softVault",
            "offset": 0,
            "slot": "1",
            "type": "t_address"
          },
          {
            "astId": 12981,
            "contract": "contracts/BlueBerryBank.sol:BlueBerryBank",
            "label": "bToken",
            "offset": 0,
            "slot": "2",
            "type": "t_address"
          },
          {
            "astId": 12984,
            "contract": "contracts/BlueBerryBank.sol:BlueBerryBank",
            "label": "totalShare",
            "offset": 0,
            "slot": "3",
            "type": "t_uint256"
          },
          {
            "astId": 12987,
            "contract": "contracts/BlueBerryBank.sol:BlueBerryBank",
            "label": "liqThreshold",
            "offset": 0,
            "slot": "4",
            "type": "t_uint256"
          }
        ],
        "numberOfBytes": "160"
      },
      "t_struct(Position)13012_storage": {
        "encoding": "inplace",
        "label": "struct IBank.Position",
        "members": [
          {
            "astId": 12990,
            "contract": "contracts/BlueBerryBank.sol:BlueBerryBank",
            "label": "owner",
            "offset": 0,
            "slot": "0",
            "type": "t_address"
          },
          {
            "astId": 12993,
            "contract": "contracts/BlueBerryBank.sol:BlueBerryBank",
            "label": "collToken",
            "offset": 0,
            "slot": "1",
            "type": "t_address"
          },
          {
            "astId": 12996,
            "contract": "contracts/BlueBerryBank.sol:BlueBerryBank",
            "label": "underlyingToken",
            "offset": 0,
            "slot": "2",
            "type": "t_address"
          },
          {
            "astId": 12999,
            "contract": "contracts/BlueBerryBank.sol:BlueBerryBank",
            "label": "debtToken",
            "offset": 0,
            "slot": "3",
            "type": "t_address"
          },
          {
            "astId": 13002,
            "contract": "contracts/BlueBerryBank.sol:BlueBerryBank",
            "label": "underlyingVaultShare",
            "offset": 0,
            "slot": "4",
            "type": "t_uint256"
          },
          {
            "astId": 13005,
            "contract": "contracts/BlueBerryBank.sol:BlueBerryBank",
            "label": "collId",
            "offset": 0,
            "slot": "5",
            "type": "t_uint256"
          },
          {
            "astId": 13008,
            "contract": "contracts/BlueBerryBank.sol:BlueBerryBank",
            "label": "collateralSize",
            "offset": 0,
            "slot": "6",
            "type": "t_uint256"
          },
          {
            "astId": 13011,
            "contract": "contracts/BlueBerryBank.sol:BlueBerryBank",
            "label": "debtShare",
            "offset": 0,
            "slot": "7",
            "type": "t_uint256"
          }
        ],
        "numberOfBytes": "256"
      },
      "t_uint256": {
        "encoding": "inplace",
        "label": "uint256",
        "numberOfBytes": "32"
      },
      "t_uint8": {
        "encoding": "inplace",
        "label": "uint8",
        "numberOfBytes": "1"
      }
    }
  }
}