{
  "address": "0xAd831795348FDeE0C4Ae38bEbB09e1DF76595343",
  "abi": [
    {
      "inputs": [],
      "stateMutability": "nonpayable",
      "type": "constructor"
    },
    {
      "inputs": [],
      "name": "INPUT_ARRAY_MISMATCH",
      "type": "error"
    },
    {
      "inputs": [
        {
          "internalType": "address",
          "name": "token",
          "type": "address"
        }
      ],
      "name": "NO_ORACLE_ROUTE",
      "type": "error"
    },
    {
      "inputs": [
        {
          "internalType": "address",
          "name": "token",
          "type": "address"
        }
      ],
      "name": "PRICE_FAILED",
      "type": "error"
    },
    {
      "inputs": [],
      "name": "ZERO_ADDRESS",
      "type": "error"
    },
    {
      "anonymous": false,
      "inputs": [
        {
          "indexed": false,
          "internalType": "uint8",
          "name": "version",
          "type": "uint8"
        }
      ],
      "name": "Initialized",
      "type": "event"
    },
    {
      "anonymous": false,
      "inputs": [
        {
          "indexed": true,
          "internalType": "address",
          "name": "previousOwner",
          "type": "address"
        },
        {
          "indexed": true,
          "internalType": "address",
          "name": "newOwner",
          "type": "address"
        }
      ],
      "name": "OwnershipTransferred",
      "type": "event"
    },
    {
      "anonymous": false,
      "inputs": [
        {
          "indexed": false,
          "internalType": "address",
          "name": "account",
          "type": "address"
        }
      ],
      "name": "Paused",
      "type": "event"
    },
    {
      "anonymous": false,
      "inputs": [
        {
          "indexed": true,
          "internalType": "address",
          "name": "token",
          "type": "address"
        },
        {
          "indexed": false,
          "internalType": "address",
          "name": "route",
          "type": "address"
        }
      ],
      "name": "SetRoute",
      "type": "event"
    },
    {
      "anonymous": false,
      "inputs": [
        {
          "indexed": false,
          "internalType": "address",
          "name": "account",
          "type": "address"
        }
      ],
      "name": "Unpaused",
      "type": "event"
    },
    {
      "inputs": [
        {
          "internalType": "address",
          "name": "token",
          "type": "address"
        }
      ],
      "name": "getPrice",
      "outputs": [
        {
          "internalType": "uint256",
          "name": "",
          "type": "uint256"
        }
      ],
      "stateMutability": "nonpayable",
      "type": "function"
    },
    {
      "inputs": [
        {
          "internalType": "address",
          "name": "token",
          "type": "address"
        },
        {
          "internalType": "uint256",
          "name": "amount",
          "type": "uint256"
        }
      ],
      "name": "getTokenValue",
      "outputs": [
        {
          "internalType": "uint256",
          "name": "",
          "type": "uint256"
        }
      ],
      "stateMutability": "nonpayable",
      "type": "function"
    },
    {
      "inputs": [
        {
          "internalType": "address",
          "name": "token",
          "type": "address"
        },
        {
          "internalType": "uint256",
          "name": "id",
          "type": "uint256"
        },
        {
          "internalType": "uint256",
          "name": "amount",
          "type": "uint256"
        }
      ],
      "name": "getWrappedTokenValue",
      "outputs": [
        {
          "internalType": "uint256",
          "name": "positionValue",
          "type": "uint256"
        }
      ],
      "stateMutability": "nonpayable",
      "type": "function"
    },
    {
      "inputs": [],
      "name": "initialize",
      "outputs": [],
      "stateMutability": "nonpayable",
      "type": "function"
    },
    {
      "inputs": [
        {
          "internalType": "address",
          "name": "token",
          "type": "address"
        }
      ],
      "name": "isTokenSupported",
      "outputs": [
        {
          "internalType": "bool",
          "name": "",
          "type": "bool"
        }
      ],
      "stateMutability": "nonpayable",
      "type": "function"
    },
    {
      "inputs": [
        {
          "internalType": "address",
          "name": "token",
          "type": "address"
        },
        {
          "internalType": "uint256",
          "name": "tokenId",
          "type": "uint256"
        }
      ],
      "name": "isWrappedTokenSupported",
      "outputs": [
        {
          "internalType": "bool",
          "name": "",
          "type": "bool"
        }
      ],
      "stateMutability": "nonpayable",
      "type": "function"
    },
    {
      "inputs": [],
      "name": "owner",
      "outputs": [
        {
          "internalType": "address",
          "name": "",
          "type": "address"
        }
      ],
      "stateMutability": "view",
      "type": "function"
    },
    {
      "inputs": [],
      "name": "pause",
      "outputs": [],
      "stateMutability": "nonpayable",
      "type": "function"
    },
    {
      "inputs": [],
      "name": "paused",
      "outputs": [
        {
          "internalType": "bool",
          "name": "",
          "type": "bool"
        }
      ],
      "stateMutability": "view",
      "type": "function"
    },
    {
      "inputs": [],
      "name": "renounceOwnership",
      "outputs": [],
      "stateMutability": "nonpayable",
      "type": "function"
    },
    {
      "inputs": [
        {
          "internalType": "address",
          "name": "",
          "type": "address"
        }
      ],
      "name": "routes",
      "outputs": [
        {
          "internalType": "address",
          "name": "",
          "type": "address"
        }
      ],
      "stateMutability": "view",
      "type": "function"
    },
    {
      "inputs": [
        {
          "internalType": "address[]",
          "name": "tokens",
          "type": "address[]"
        },
        {
          "internalType": "address[]",
          "name": "oracleRoutes",
          "type": "address[]"
        }
      ],
      "name": "setRoutes",
      "outputs": [],
      "stateMutability": "nonpayable",
      "type": "function"
    },
    {
      "inputs": [
        {
          "internalType": "address",
          "name": "newOwner",
          "type": "address"
        }
      ],
      "name": "transferOwnership",
      "outputs": [],
      "stateMutability": "nonpayable",
      "type": "function"
    },
    {
      "inputs": [],
      "name": "unpause",
      "outputs": [],
      "stateMutability": "nonpayable",
      "type": "function"
    }
  ],
  "transactionHash": "0xe56b16ca5dd1dabe143d7b8611f711786710d02f3968b196eab0e3f492e134c1",
  "args": [],
  "numDeployments": 1,
  "solcInputHash": "40a5e959dbaee40ef6eeed84d8383760",
  "bytecode": "0x608060405234801561001057600080fd5b5061001961001e565b6100de565b600054610100900460ff161561008a5760405162461bcd60e51b815260206004820152602760248201527f496e697469616c697a61626c653a20636f6e747261637420697320696e697469604482015266616c697a696e6760c81b606482015260840160405180910390fd5b60005460ff90811610156100dc576000805460ff191660ff9081179091556040519081527f7f26b83ff96e1f2b6a682f133852f6798a09c465da95921460cefb38474024989060200160405180910390a15b565b610e2c806100ed6000396000f3fe608060405234801561001057600080fd5b50600436106100ea5760003560e01c80638456cb591161008c578063d740965911610066578063d7409659146101ac578063e777d0ec146101d5578063f2fde38b146101e8578063ff9eb51c146101fb57600080fd5b80638456cb591461016c5780638da5cb5b14610174578063b5f9bb421461019957600080fd5b80636d34cd17116100c85780636d34cd1714610136578063715018a61461014957806375151b63146101515780638129fc1c1461016457600080fd5b80633f4ba83a146100ef57806341976e09146100f95780635c975abb1461011f575b600080fd5b6100f761020e565b005b61010c610107366004610aa6565b610220565b6040519081526020015b60405180910390f35b60655460ff165b6040519015158152602001610116565b61010c610144366004610ac3565b610231565b6100f7610244565b61012661015f366004610aa6565b610256565b6100f7610261565b6100f7610377565b6033546001600160a01b03165b6040516001600160a01b039091168152602001610116565b6101266101a7366004610ac3565b610387565b6101816101ba366004610aa6565b6097602052600090815260409020546001600160a01b031681565b6100f76101e3366004610b3b565b610408565b6100f76101f6366004610aa6565b61054b565b61010c610209366004610ba7565b6105c1565b610216610644565b61021e61069e565b565b600061022b826106f0565b92915050565b600061023d83836107dc565b9392505050565b61024c610644565b61021e600061086f565b600061022b826108c1565b600054610100900460ff16158080156102815750600054600160ff909116105b8061029b5750303b15801561029b575060005460ff166001145b6103035760405162461bcd60e51b815260206004820152602e60248201527f496e697469616c697a61626c653a20636f6e747261637420697320616c72656160448201526d191e481a5b9a5d1a585b1a5e995960921b60648201526084015b60405180910390fd5b6000805460ff191660011790558015610326576000805461ff0019166101001790555b61032e610966565b8015610374576000805461ff0019169055604051600181527f7f26b83ff96e1f2b6a682f133852f6798a09c465da95921460cefb38474024989060200160405180910390a15b50565b61037f610644565b61021e610995565b60405163523babb960e11b81526004810182905260009081906001600160a01b0385169063a477577290602401602060405180830381865afa1580156103d1573d6000803e3d6000fd5b505050506040513d601f19601f820116820180604052508101906103f59190610bdc565b9050610400816108c1565b949350505050565b610410610644565b8281146104305760405163025e650f60e01b815260040160405180910390fd5b60005b8381101561054457600085858381811061044f5761044f610bf9565b90506020020160208101906104649190610aa6565b9050600084848481811061047a5761047a610bf9565b905060200201602081019061048f9190610aa6565b90506001600160a01b03821615806104ae57506001600160a01b038116155b156104cc5760405163538ba4f960e01b815260040160405180910390fd5b6001600160a01b0382811660008181526097602090815260409182902080546001600160a01b0319169486169485179055905192835290917fa8c96090e146ce1076efa81e5424d56e13d5c3854943f7926406c12d15d6dbe9910160405180910390a25050808061053c90610c25565b915050610433565b5050505050565b610553610644565b6001600160a01b0381166105b85760405162461bcd60e51b815260206004820152602660248201527f4f776e61626c653a206e6577206f776e657220697320746865207a65726f206160448201526564647265737360d01b60648201526084016102fa565b6103748161086f565b60405163523babb960e11b81526004810183905260009081906001600160a01b0386169063a477577290602401602060405180830381865afa15801561060b573d6000803e3d6000fd5b505050506040513d601f19601f8201168201806040525081019061062f9190610bdc565b905061063b81846107dc565b95945050505050565b6033546001600160a01b0316331461021e5760405162461bcd60e51b815260206004820181905260248201527f4f776e61626c653a2063616c6c6572206973206e6f7420746865206f776e657260448201526064016102fa565b6106a66109d2565b6065805460ff191690557f5db9ee0a495bf2e6ff9c91a7834c1ba4fdd244a5e8aa4e537bd38aeae4b073aa335b6040516001600160a01b03909116815260200160405180910390a1565b60006106fa610a1b565b6001600160a01b03808316600090815260976020526040902054168061073e57604051630c8b4fd160e01b81526001600160a01b03841660048201526024016102fa565b6040516341976e0960e01b81526001600160a01b038481166004830152600091908316906341976e09906024016020604051808303816000875af115801561078a573d6000803e3d6000fd5b505050506040513d601f19601f820116820180604052508101906107ae9190610c3e565b90508060000361023d5760405163ef6dfde360e01b81526001600160a01b03851660048201526024016102fa565b600080836001600160a01b031663313ce5676040518163ffffffff1660e01b8152600401602060405180830381865afa15801561081d573d6000803e3d6000fd5b505050506040513d601f19601f820116820180604052508101906108419190610c57565b60ff16905061085181600a610d5e565b8361085b866106f0565b6108659190610d6a565b6104009190610d89565b603380546001600160a01b038381166001600160a01b0319831681179093556040519116919082907f8be0079c531659141344cd1fd0a4f28419497f9722a3daafe3b4186f6b6457e090600090a35050565b6001600160a01b03808216600090815260976020526040812054909116806108ec5750600092915050565b6040516341976e0960e01b81526001600160a01b0384811660048301528216906341976e09906024016020604051808303816000875af1925050508015610950575060408051601f3d908101601f1916820190925261094d91810190610c3e565b60015b61095d5750600092915050565b15159392505050565b600054610100900460ff1661098d5760405162461bcd60e51b81526004016102fa90610dab565b61021e610a61565b61099d610a1b565b6065805460ff191660011790557f62e78cea01bee320cd4e420270b5ea74000d11b0c9f74754ebdbfc544b05a2586106d33390565b60655460ff1661021e5760405162461bcd60e51b815260206004820152601460248201527314185d5cd8589b194e881b9bdd081c185d5cd95960621b60448201526064016102fa565b60655460ff161561021e5760405162461bcd60e51b815260206004820152601060248201526f14185d5cd8589b194e881c185d5cd95960821b60448201526064016102fa565b600054610100900460ff16610a885760405162461bcd60e51b81526004016102fa90610dab565b61021e3361086f565b6001600160a01b038116811461037457600080fd5b600060208284031215610ab857600080fd5b813561023d81610a91565b60008060408385031215610ad657600080fd5b8235610ae181610a91565b946020939093013593505050565b60008083601f840112610b0157600080fd5b50813567ffffffffffffffff811115610b1957600080fd5b6020830191508360208260051b8501011115610b3457600080fd5b9250929050565b60008060008060408587031215610b5157600080fd5b843567ffffffffffffffff80821115610b6957600080fd5b610b7588838901610aef565b90965094506020870135915080821115610b8e57600080fd5b50610b9b87828801610aef565b95989497509550505050565b600080600060608486031215610bbc57600080fd5b8335610bc781610a91565b95602085013595506040909401359392505050565b600060208284031215610bee57600080fd5b815161023d81610a91565b634e487b7160e01b600052603260045260246000fd5b634e487b7160e01b600052601160045260246000fd5b600060018201610c3757610c37610c0f565b5060010190565b600060208284031215610c5057600080fd5b5051919050565b600060208284031215610c6957600080fd5b815160ff8116811461023d57600080fd5b600181815b80851115610cb5578160001904821115610c9b57610c9b610c0f565b80851615610ca857918102915b93841c9390800290610c7f565b509250929050565b600082610ccc5750600161022b565b81610cd95750600061022b565b8160018114610cef5760028114610cf957610d15565b600191505061022b565b60ff841115610d0a57610d0a610c0f565b50506001821b61022b565b5060208310610133831016604e8410600b8410161715610d38575081810a61022b565b610d428383610c7a565b8060001904821115610d5657610d56610c0f565b029392505050565b600061023d8383610cbd565b6000816000190483118215151615610d8457610d84610c0f565b500290565b600082610da657634e487b7160e01b600052601260045260246000fd5b500490565b6020808252602b908201527f496e697469616c697a61626c653a20636f6e7472616374206973206e6f74206960408201526a6e697469616c697a696e6760a81b60608201526080019056fea26469706673582212206a4d5ef84b47289088290d48316a55e3027dccf74de4cf542d042e2edb4ab54a64736f6c63430008100033",
  "devdoc": {
    "author": "BlueberryProtocol",
    "kind": "dev",
    "methods": {
      "constructor": {
        "custom:oz-upgrades-unsafe-allow": "constructor"
      },
      "getPrice(address)": {
        "params": {
          "token": "ERC-20 token address."
        },
        "returns": {
          "_0": "price Price of the token."
        }
      },
      "getTokenValue(address,uint256)": {
        "params": {
          "amount": "Amount of the token.",
          "token": "ERC20 token address."
        },
        "returns": {
          "_0": "value USD value of the token amount."
        }
      },
      "getWrappedTokenValue(address,uint256,uint256)": {
        "params": {
          "amount": "Token amount (assumed to be in 1e18 format).",
          "id": "ERC1155 token ID.",
          "token": "ERC1155 Wrapper token address."
        },
        "returns": {
          "positionValue": "The USD value of the wrapped token."
        }
      },
      "initialize()": {
        "details": "Initializes the CoreOracle contract"
      },
      "isTokenSupported(address)": {
        "params": {
          "token": "ERC20 token address to check."
        },
        "returns": {
          "_0": "bool True if supported, false otherwise."
        }
      },
      "isWrappedTokenSupported(address,uint256)": {
        "details": "This is specific to the Blueberry protocol's ERC1155 wrappers (e.g., WERC20).",
        "params": {
          "token": "ERC1155 token address.",
          "tokenId": "ERC1155 token ID."
        },
        "returns": {
          "_0": "bool True if the underlying token is supported, false otherwise"
        }
      },
      "owner()": {
        "details": "Returns the address of the current owner."
      },
      "paused()": {
        "details": "Returns true if the contract is paused, and false otherwise."
      },
      "renounceOwnership()": {
        "details": "Leaves the contract without owner. It will not be possible to call `onlyOwner` functions anymore. Can only be called by the current owner. NOTE: Renouncing ownership will leave the contract without an owner, thereby removing any functionality that is only available to the owner."
      },
      "setRoutes(address[],address[])": {
        "params": {
          "oracleRoutes": "Array of oracle addresses corresponding to each token.",
          "tokens": "Array of token addresses."
        }
      },
      "transferOwnership(address)": {
        "details": "Transfers ownership of the contract to a new account (`newOwner`). Can only be called by the current owner."
      }
    },
    "stateVariables": {
      "routes": {
        "details": "Mapping from token to oracle routes. => Aggregator | LP Oracle | AdapterOracle ..."
      }
    },
    "title": "CoreOracle",
    "version": 1
  },
  "userdoc": {
    "errors": {
      "INPUT_ARRAY_MISMATCH()": [
        {
          "notice": "Thrown when the lengths of input arrays do not match."
        }
      ],
      "NO_ORACLE_ROUTE(address)": [
        {
          "notice": "Thrown when there is no route to fetch data for the oracle"
        }
      ],
      "PRICE_FAILED(address)": [
        {
          "notice": "Thrown when the price fetch process fails for a token."
        }
      ],
      "ZERO_ADDRESS()": [
        {
          "notice": "Thrown when the address provided is the zero address."
        }
      ]
    },
    "events": {
      "SetRoute(address,address)": {
        "notice": "Event emitted when the owner sets a new oracle route for a given token."
      }
    },
    "kind": "user",
    "methods": {
      "getPrice(address)": {
        "notice": "Fetches the price of the given token in USD with 18 decimals precision."
      },
      "getTokenValue(address,uint256)": {
        "notice": "Fetches the USD value of the specified amount of a token."
      },
      "getWrappedTokenValue(address,uint256,uint256)": {
        "notice": "Calculates the USD value of wrapped ERC1155 tokens."
      },
      "isTokenSupported(address)": {
        "notice": "Checks if the oracle supports the given ERC20 token."
      },
      "isWrappedTokenSupported(address,uint256)": {
        "notice": "Determines if the oracle supports the underlying token of a given wrapped token."
      },
      "pause()": {
        "notice": "Pauses the contract. This function can only be called by the owner."
      },
      "setRoutes(address[],address[])": {
        "notice": "Register oracle routes for specific tokens."
      },
      "unpause()": {
        "notice": "Unpauses the contract. This function can only be called by the owner."
      }
    },
    "notice": "This oracle contract provides reliable price feeds to the Bank contract. It maintains a registry of routes pointing to price feed sources. The price feed sources can be aggregators, liquidity pool oracles, or any other custom oracles that conform to the `IBaseOracle` interface.",
    "version": 1
  },
  "storageLayout": {
    "storage": [
      {
        "astId": 241,
        "contract": "contracts/oracle/CoreOracle.sol:CoreOracle",
        "label": "_initialized",
        "offset": 0,
        "slot": "0",
        "type": "t_uint8"
      },
      {
        "astId": 244,
        "contract": "contracts/oracle/CoreOracle.sol:CoreOracle",
        "label": "_initializing",
        "offset": 1,
        "slot": "0",
        "type": "t_bool"
      },
      {
        "astId": 3309,
        "contract": "contracts/oracle/CoreOracle.sol:CoreOracle",
        "label": "__gap",
        "offset": 0,
        "slot": "1",
        "type": "t_array(t_uint256)50_storage"
      },
      {
        "astId": 113,
        "contract": "contracts/oracle/CoreOracle.sol:CoreOracle",
        "label": "_owner",
        "offset": 0,
        "slot": "51",
        "type": "t_address"
      },
      {
        "astId": 233,
        "contract": "contracts/oracle/CoreOracle.sol:CoreOracle",
        "label": "__gap",
        "offset": 0,
        "slot": "52",
        "type": "t_array(t_uint256)49_storage"
      },
      {
        "astId": 406,
        "contract": "contracts/oracle/CoreOracle.sol:CoreOracle",
        "label": "_paused",
        "offset": 0,
        "slot": "101",
        "type": "t_bool"
      },
      {
        "astId": 511,
        "contract": "contracts/oracle/CoreOracle.sol:CoreOracle",
        "label": "__gap",
        "offset": 0,
        "slot": "102",
        "type": "t_array(t_uint256)49_storage"
      },
      {
        "astId": 26964,
        "contract": "contracts/oracle/CoreOracle.sol:CoreOracle",
        "label": "routes",
        "offset": 0,
        "slot": "151",
        "type": "t_mapping(t_address,t_address)"
      }
    ],
    "types": {
      "t_address": {
        "encoding": "inplace",
        "label": "address",
        "numberOfBytes": "20"
      },
      "t_array(t_uint256)49_storage": {
        "base": "t_uint256",
        "encoding": "inplace",
        "label": "uint256[49]",
        "numberOfBytes": "1568"
      },
      "t_array(t_uint256)50_storage": {
        "base": "t_uint256",
        "encoding": "inplace",
        "label": "uint256[50]",
        "numberOfBytes": "1600"
      },
      "t_bool": {
        "encoding": "inplace",
        "label": "bool",
        "numberOfBytes": "1"
      },
      "t_mapping(t_address,t_address)": {
        "encoding": "mapping",
        "key": "t_address",
        "label": "mapping(address => address)",
        "numberOfBytes": "32",
        "value": "t_address"
      },
      "t_uint256": {
        "encoding": "inplace",
        "label": "uint256",
        "numberOfBytes": "32"
      },
      "t_uint8": {
        "encoding": "inplace",
        "label": "uint8",
        "numberOfBytes": "1"
      }
    }
  }
}