{
  "address": "0xbEC0072A623439Fe199e4FD106F5016F7b274ae0",
  "abi": [
    {
      "inputs": [
        {
          "internalType": "contract IBaseOracle",
          "name": "base_",
          "type": "address"
        },
        {
          "internalType": "contract ICurveAddressProvider",
          "name": "addressProvider_",
          "type": "address"
        }
      ],
      "stateMutability": "nonpayable",
      "type": "constructor"
    },
    {
      "inputs": [
        {
          "internalType": "address",
          "name": "lp",
          "type": "address"
        }
      ],
      "name": "ORACLE_NOT_SUPPORT_LP",
      "type": "error"
    },
    {
      "anonymous": false,
      "inputs": [
        {
          "indexed": false,
          "internalType": "address",
          "name": "crvLp",
          "type": "address"
        },
        {
          "indexed": false,
          "internalType": "address",
          "name": "pool",
          "type": "address"
        },
        {
          "indexed": false,
          "internalType": "address[]",
          "name": "underlyingTokens",
          "type": "address[]"
        }
      ],
      "name": "CurveLpRegistered",
      "type": "event"
    },
    {
      "anonymous": false,
      "inputs": [
        {
          "indexed": true,
          "internalType": "address",
          "name": "previousOwner",
          "type": "address"
        },
        {
          "indexed": true,
          "internalType": "address",
          "name": "newOwner",
          "type": "address"
        }
      ],
      "name": "OwnershipTransferred",
      "type": "event"
    },
    {
      "inputs": [],
      "name": "addressProvider",
      "outputs": [
        {
          "internalType": "contract ICurveAddressProvider",
          "name": "",
          "type": "address"
        }
      ],
      "stateMutability": "view",
      "type": "function"
    },
    {
      "inputs": [],
      "name": "base",
      "outputs": [
        {
          "internalType": "contract IBaseOracle",
          "name": "",
          "type": "address"
        }
      ],
      "stateMutability": "view",
      "type": "function"
    },
    {
      "inputs": [
        {
          "internalType": "address",
          "name": "crvLp",
          "type": "address"
        }
      ],
      "name": "getPoolInfo",
      "outputs": [
        {
          "internalType": "address",
          "name": "pool",
          "type": "address"
        },
        {
          "internalType": "address[]",
          "name": "coins",
          "type": "address[]"
        },
        {
          "internalType": "uint256",
          "name": "virtualPrice",
          "type": "uint256"
        }
      ],
      "stateMutability": "nonpayable",
      "type": "function"
    },
    {
      "inputs": [
        {
          "internalType": "address",
          "name": "crvLp",
          "type": "address"
        }
      ],
      "name": "getPrice",
      "outputs": [
        {
          "internalType": "uint256",
          "name": "",
          "type": "uint256"
        }
      ],
      "stateMutability": "nonpayable",
      "type": "function"
    },
    {
      "inputs": [],
      "name": "owner",
      "outputs": [
        {
          "internalType": "address",
          "name": "",
          "type": "address"
        }
      ],
      "stateMutability": "view",
      "type": "function"
    },
    {
      "inputs": [],
      "name": "renounceOwnership",
      "outputs": [],
      "stateMutability": "nonpayable",
      "type": "function"
    },
    {
      "inputs": [
        {
          "internalType": "address",
          "name": "newOwner",
          "type": "address"
        }
      ],
      "name": "transferOwnership",
      "outputs": [],
      "stateMutability": "nonpayable",
      "type": "function"
    },
    {
      "stateMutability": "payable",
      "type": "receive"
    }
  ],
  "transactionHash": "0x73216f288e322b8012fc3b6653a3439cc0d94a561714f2b87ef8bad9ea071434",
  "args": [
    "0xAe1209dc6d0fe6DC56D34F20d4133c8EEFa2137c",
    "0x0000000022d53366457f9d5e68ec105046fc4383"
  ],
  "numDeployments": 1,
  "solcInputHash": "40a5e959dbaee40ef6eeed84d8383760",
  "bytecode": "0x60c060405234801561001057600080fd5b5060405161121638038061121683398101604081905261002f916100c4565b6001600160a01b03821660805281816100473361005c565b6001600160a01b031660a052506100fe915050565b600080546001600160a01b038381166001600160a01b0319831681178455604051919092169283917f8be0079c531659141344cd1fd0a4f28419497f9722a3daafe3b4186f6b6457e09190a35050565b6001600160a01b03811681146100c157600080fd5b50565b600080604083850312156100d757600080fd5b82516100e2816100ac565b60208401519092506100f3816100ac565b809150509250929050565b60805160a0516110d861013e6000396000818160ca015281816103a4015281816106b2015261093e015260008181610144015261020b01526110d86000f3fe6080604052600436106100745760003560e01c80635001f3b51161004e5780635001f3b514610132578063715018a6146101665780638da5cb5b1461017d578063f2fde38b1461019b57600080fd5b806306bfa938146100805780632954018c146100b857806341976e091461010457600080fd5b3661007b57005b600080fd5b34801561008c57600080fd5b506100a061009b366004610ded565b6101bb565b6040516100af93929190610e11565b60405180910390f35b3480156100c457600080fd5b506100ec7f000000000000000000000000000000000000000000000000000000000000000081565b6040516001600160a01b0390911681526020016100af565b34801561011057600080fd5b5061012461011f366004610ded565b6101d8565b6040519081526020016100af565b34801561013e57600080fd5b506100ec7f000000000000000000000000000000000000000000000000000000000000000081565b34801561017257600080fd5b5061017b610309565b005b34801561018957600080fd5b506000546001600160a01b03166100ec565b3480156101a757600080fd5b5061017b6101b6366004610ded565b61031d565b6000606060006101ca8461039b565b9250925092505b9193909250565b6000806000806101e78561039b565b9250925092506101f8838351610bd8565b60001960005b83518110156102e15760007f00000000000000000000000000000000000000000000000000000000000000006001600160a01b03166341976e0986848151811061024a5761024a610e76565b60200260200101516040518263ffffffff1660e01b815260040161027d91906001600160a01b0391909116815260200190565b6020604051808303816000875af115801561029c573d6000803e3d6000fd5b505050506040513d601f19601f820116820180604052508101906102c09190610e8c565b9050828110156102ce578092505b50806102d981610ebb565b9150506101fe565b50670de0b6b3a76400006102f58383610ed4565b6102ff9190610ef3565b9695505050505050565b610311610cd4565b61031b6000610d2e565b565b610325610cd4565b6001600160a01b03811661038f5760405162461bcd60e51b815260206004820152602660248201527f4f776e61626c653a206e6577206f776e657220697320746865207a65726f206160448201526564647265737360d01b60648201526084015b60405180910390fd5b61039881610d2e565b50565b600060606000807f00000000000000000000000000000000000000000000000000000000000000006001600160a01b031663a262904b6040518163ffffffff1660e01b8152600401602060405180830381865afa158015610400573d6000803e3d6000fd5b505050506040513d601f19601f820116820180604052508101906104249190610f25565b60405163bdf475c360e01b81526001600160a01b0387811660048301529192509082169063bdf475c390602401602060405180830381865afa15801561046e573d6000803e3d6000fd5b505050506040513d601f19601f820116820180604052508101906104929190610f25565b93506001600160a01b0384161561069c5760405163940494f160e01b81526001600160a01b0385811660048301526000919083169063940494f1906024016040805180830381865afa1580156104ec573d6000803e3d6000fd5b505050506040513d601f19601f820116820180604052508101906105109190610f42565b50604051639ac90d3d60e01b81526001600160a01b038781166004830152919250600091841690639ac90d3d9060240161010060405180830381865afa15801561055e573d6000803e3d6000fd5b505050506040513d601f19601f820116820180604052508101906105829190610f7c565b90508167ffffffffffffffff81111561059d5761059d610f66565b6040519080825280602002602001820160405280156105c6578160200160208202803683370190505b50945060005b82811015610627578181600881106105e6576105e6610e76565b60200201518682815181106105fd576105fd610e76565b6001600160a01b03909216602092830291909101909101528061061f81610ebb565b9150506105cc565b506040516362db83a560e11b81526001600160a01b03888116600483015284169063c5b7074a90602401602060405180830381865afa15801561066e573d6000803e3d6000fd5b505050506040513d601f19601f820116820180604052508101906106929190610e8c565b93505050506101d1565b60405163124fd3dd60e21b8152600560048201527f00000000000000000000000000000000000000000000000000000000000000006001600160a01b03169063493f4f7490602401602060405180830381865afa158015610701573d6000803e3d6000fd5b505050506040513d601f19601f820116820180604052508101906107259190610f25565b60405163bdf475c360e01b81526001600160a01b0387811660048301529192509082169063bdf475c390602401602060405180830381865afa15801561076f573d6000803e3d6000fd5b505050506040513d601f19601f820116820180604052508101906107939190610f25565b93506001600160a01b038416156109285760405163940494f160e01b81526001600160a01b0385811660048301526000919083169063940494f190602401602060405180830381865afa1580156107ee573d6000803e3d6000fd5b505050506040513d601f19601f820116820180604052508101906108129190610e8c565b604051639ac90d3d60e01b81526001600160a01b038781166004830152919250600091841690639ac90d3d9060240161010060405180830381865afa15801561085f573d6000803e3d6000fd5b505050506040513d601f19601f820116820180604052508101906108839190610f7c565b90508167ffffffffffffffff81111561089e5761089e610f66565b6040519080825280602002602001820160405280156108c7578160200160208202803683370190505b50945060005b82811015610627578181600881106108e7576108e7610e76565b60200201518682815181106108fe576108fe610e76565b6001600160a01b03909216602092830291909101909101528061092081610ebb565b9150506108cd565b60405163124fd3dd60e21b8152600760048201527f00000000000000000000000000000000000000000000000000000000000000006001600160a01b03169063493f4f7490602401602060405180830381865afa15801561098d573d6000803e3d6000fd5b505050506040513d601f19601f820116820180604052508101906109b19190610f25565b60405163bdf475c360e01b81526001600160a01b0387811660048301529192509082169063bdf475c390602401602060405180830381865afa1580156109fb573d6000803e3d6000fd5b505050506040513d601f19601f82011682018060405250810190610a1f9190610f25565b93506001600160a01b03841615610bb45760405163940494f160e01b81526001600160a01b0385811660048301526000919083169063940494f190602401602060405180830381865afa158015610a7a573d6000803e3d6000fd5b505050506040513d601f19601f82011682018060405250810190610a9e9190610e8c565b604051639ac90d3d60e01b81526001600160a01b038781166004830152919250600091841690639ac90d3d9060240161010060405180830381865afa158015610aeb573d6000803e3d6000fd5b505050506040513d601f19601f82011682018060405250810190610b0f9190610f7c565b90508167ffffffffffffffff811115610b2a57610b2a610f66565b604051908082528060200260200182016040528015610b53578160200160208202803683370190505b50945060005b8281101561062757818160088110610b7357610b73610e76565b6020020151868281518110610b8a57610b8a610e76565b6001600160a01b039092166020928302919091019091015280610bac81610ebb565b915050610b59565b60405163385fd8c560e11b81526001600160a01b0386166004820152602401610386565b816002829003610c5157610bea610d7e565b6040516316cd8e2760e21b81526001600160a01b03831690635b36389c90610c19906000908590600401611010565b600060405180830381600087803b158015610c3357600080fd5b505af1158015610c47573d6000803e3d6000fd5b5050505050505050565b81600303610c9057610c61610d9c565b60405163ecb586a560e01b81526001600160a01b0383169063ecb586a590610c19906000908590600401611048565b81600403610ccf57610ca0610dba565b604051637d49d87560e01b81526001600160a01b03831690637d49d87590610c19906000908590600401611075565b505050565b6000546001600160a01b0316331461031b5760405162461bcd60e51b815260206004820181905260248201527f4f776e61626c653a2063616c6c6572206973206e6f7420746865206f776e65726044820152606401610386565b600080546001600160a01b038381166001600160a01b0319831681178455604051919092169283917f8be0079c531659141344cd1fd0a4f28419497f9722a3daafe3b4186f6b6457e09190a35050565b60405180604001604052806002906020820280368337509192915050565b60405180606001604052806003906020820280368337509192915050565b60405180608001604052806004906020820280368337509192915050565b6001600160a01b038116811461039857600080fd5b600060208284031215610dff57600080fd5b8135610e0a81610dd8565b9392505050565b6001600160a01b038481168252606060208084018290528551918401829052600092868201929091906080860190855b81811015610e5f578551851683529483019491830191600101610e41565b505080945050505050826040830152949350505050565b634e487b7160e01b600052603260045260246000fd5b600060208284031215610e9e57600080fd5b5051919050565b634e487b7160e01b600052601160045260246000fd5b600060018201610ecd57610ecd610ea5565b5060010190565b6000816000190483118215151615610eee57610eee610ea5565b500290565b600082610f1057634e487b7160e01b600052601260045260246000fd5b500490565b8051610f2081610dd8565b919050565b600060208284031215610f3757600080fd5b8151610e0a81610dd8565b60008060408385031215610f5557600080fd5b505080516020909101519092909150565b634e487b7160e01b600052604160045260246000fd5b6000610100808385031215610f9057600080fd5b83601f840112610f9f57600080fd5b60405181810181811067ffffffffffffffff82111715610fcf57634e487b7160e01b600052604160045260246000fd5b604052908301908085831115610fe457600080fd5b845b8381101561100557610ff781610f15565b825260209182019101610fe6565b509095945050505050565b8281526060810160208083018460005b600281101561103d57815183529183019190830190600101611020565b505050509392505050565b8281526080810160208083018460005b600381101561103d57815183529183019190830190600101611058565b82815260a0810160208083018460005b600481101561103d5781518352918301919083019060010161108556fea264697066735822122089ac7ea05ecd9645c514275c9646f54e5f8cd6da68fc6b8f944363c7b531524564736f6c63430008100033",
  "devdoc": {
    "author": "BlueberryProtocol",
    "kind": "dev",
    "methods": {
      "constructor": {
        "params": {
          "addressProvider_": "The address of the curve address provider.",
          "base_": "The address of the base oracle."
        }
      },
      "getPoolInfo(address)": {
        "params": {
          "crvLp": "The Curve LP token address."
        },
        "returns": {
          "coins": "The list of underlying tokens in the pool.",
          "pool": "The Curve pool address.",
          "virtualPrice": "The virtual price of the Curve pool."
        }
      },
      "getPrice(address)": {
        "details": "Uses the minimum underlying token price for calculation.",
        "params": {
          "crvLp": "The ERC-20 Curve LP token address."
        },
        "returns": {
          "_0": "The USD value of the Curve LP token."
        }
      },
      "owner()": {
        "details": "Returns the address of the current owner."
      },
      "renounceOwnership()": {
        "details": "Leaves the contract without owner. It will not be possible to call `onlyOwner` functions anymore. Can only be called by the current owner. NOTE: Renouncing ownership will leave the contract without an owner, thereby removing any functionality that is only available to the owner."
      },
      "transferOwnership(address)": {
        "details": "Transfers ownership of the contract to a new account (`newOwner`). Can only be called by the current owner."
      }
    },
    "title": "Curve Stable Oracle",
    "version": 1
  },
  "userdoc": {
    "errors": {
      "ORACLE_NOT_SUPPORT_LP(address)": [
        {
          "notice": "Thrown when the oracle doesn't support a specific LP pair token."
        }
      ]
    },
    "events": {
      "CurveLpRegistered(address,address,address[])": {
        "notice": "Emitted when a Curve LP token is registered with its associated pool and underlying tokens."
      }
    },
    "kind": "user",
    "methods": {
      "addressProvider()": {
        "notice": "Address provider for Curve-related contracts."
      },
      "constructor": {
        "notice": "Constructor initializes the CurveBaseOracle with the provided parameters."
      },
      "getPoolInfo(address)": {
        "notice": "Fetches Curve pool details for the provided Curve LP token."
      },
      "getPrice(address)": {
        "notice": "Returns the USD value of the specified Curve LP token with 18 decimals of precision."
      }
    },
    "notice": "Oracle contract that provides price feeds for Curve stable LP tokens.",
    "version": 1
  },
  "storageLayout": {
    "storage": [
      {
        "astId": 3374,
        "contract": "contracts/oracle/CurveStableOracle.sol:CurveStableOracle",
        "label": "_owner",
        "offset": 0,
        "slot": "0",
        "type": "t_address"
      }
    ],
    "types": {
      "t_address": {
        "encoding": "inplace",
        "label": "address",
        "numberOfBytes": "20"
      }
    }
  }
}