{
  "address": "0x349Bb6e09d3382042B553F98c22d54CE67039A01",
  "abi": [
    {
      "inputs": [],
      "stateMutability": "nonpayable",
      "type": "constructor"
    },
    {
      "inputs": [
        {
          "internalType": "uint256",
          "name": "tokenId",
          "type": "uint256"
        }
      ],
      "name": "INVALID_TOKEN_ID",
      "type": "error"
    },
    {
      "inputs": [],
      "name": "ZERO_ADDRESS",
      "type": "error"
    },
    {
      "inputs": [],
      "name": "ZERO_AMOUNT",
      "type": "error"
    },
    {
      "anonymous": false,
      "inputs": [
        {
          "indexed": true,
          "internalType": "address",
          "name": "account",
          "type": "address"
        },
        {
          "indexed": true,
          "internalType": "address",
          "name": "operator",
          "type": "address"
        },
        {
          "indexed": false,
          "internalType": "bool",
          "name": "approved",
          "type": "bool"
        }
      ],
      "name": "ApprovalForAll",
      "type": "event"
    },
    {
      "anonymous": false,
      "inputs": [
        {
          "indexed": true,
          "internalType": "address",
          "name": "account",
          "type": "address"
        },
        {
          "indexed": false,
          "internalType": "uint256",
          "name": "amount",
          "type": "uint256"
        },
        {
          "indexed": false,
          "internalType": "uint256",
          "name": "shareAmount",
          "type": "uint256"
        }
      ],
      "name": "Deposited",
      "type": "event"
    },
    {
      "anonymous": false,
      "inputs": [
        {
          "indexed": false,
          "internalType": "uint8",
          "name": "version",
          "type": "uint8"
        }
      ],
      "name": "Initialized",
      "type": "event"
    },
    {
      "anonymous": false,
      "inputs": [
        {
          "indexed": true,
          "internalType": "address",
          "name": "previousOwner",
          "type": "address"
        },
        {
          "indexed": true,
          "internalType": "address",
          "name": "newOwner",
          "type": "address"
        }
      ],
      "name": "OwnershipTransferred",
      "type": "event"
    },
    {
      "anonymous": false,
      "inputs": [
        {
          "indexed": true,
          "internalType": "address",
          "name": "operator",
          "type": "address"
        },
        {
          "indexed": true,
          "internalType": "address",
          "name": "from",
          "type": "address"
        },
        {
          "indexed": true,
          "internalType": "address",
          "name": "to",
          "type": "address"
        },
        {
          "indexed": false,
          "internalType": "uint256[]",
          "name": "ids",
          "type": "uint256[]"
        },
        {
          "indexed": false,
          "internalType": "uint256[]",
          "name": "values",
          "type": "uint256[]"
        }
      ],
      "name": "TransferBatch",
      "type": "event"
    },
    {
      "anonymous": false,
      "inputs": [
        {
          "indexed": true,
          "internalType": "address",
          "name": "operator",
          "type": "address"
        },
        {
          "indexed": true,
          "internalType": "address",
          "name": "from",
          "type": "address"
        },
        {
          "indexed": true,
          "internalType": "address",
          "name": "to",
          "type": "address"
        },
        {
          "indexed": false,
          "internalType": "uint256",
          "name": "id",
          "type": "uint256"
        },
        {
          "indexed": false,
          "internalType": "uint256",
          "name": "value",
          "type": "uint256"
        }
      ],
      "name": "TransferSingle",
      "type": "event"
    },
    {
      "anonymous": false,
      "inputs": [
        {
          "indexed": false,
          "internalType": "string",
          "name": "value",
          "type": "string"
        },
        {
          "indexed": true,
          "internalType": "uint256",
          "name": "id",
          "type": "uint256"
        }
      ],
      "name": "URI",
      "type": "event"
    },
    {
      "anonymous": false,
      "inputs": [
        {
          "indexed": true,
          "internalType": "address",
          "name": "account",
          "type": "address"
        },
        {
          "indexed": false,
          "internalType": "uint256",
          "name": "amount",
          "type": "uint256"
        },
        {
          "indexed": false,
          "internalType": "uint256",
          "name": "shareAmount",
          "type": "uint256"
        }
      ],
      "name": "Withdrawn",
      "type": "event"
    },
    {
      "inputs": [
        {
          "internalType": "address",
          "name": "account",
          "type": "address"
        },
        {
          "internalType": "uint256",
          "name": "id",
          "type": "uint256"
        }
      ],
      "name": "balanceOf",
      "outputs": [
        {
          "internalType": "uint256",
          "name": "",
          "type": "uint256"
        }
      ],
      "stateMutability": "view",
      "type": "function"
    },
    {
      "inputs": [
        {
          "internalType": "address[]",
          "name": "accounts",
          "type": "address[]"
        },
        {
          "internalType": "uint256[]",
          "name": "ids",
          "type": "uint256[]"
        }
      ],
      "name": "balanceOfBatch",
      "outputs": [
        {
          "internalType": "uint256[]",
          "name": "",
          "type": "uint256[]"
        }
      ],
      "stateMutability": "view",
      "type": "function"
    },
    {
      "inputs": [
        {
          "internalType": "address",
          "name": "token",
          "type": "address"
        },
        {
          "internalType": "address",
          "name": "user",
          "type": "address"
        }
      ],
      "name": "balanceOfERC20",
      "outputs": [
        {
          "internalType": "uint256",
          "name": "",
          "type": "uint256"
        }
      ],
      "stateMutability": "view",
      "type": "function"
    },
    {
      "inputs": [],
      "name": "config",
      "outputs": [
        {
          "internalType": "contract IProtocolConfig",
          "name": "",
          "type": "address"
        }
      ],
      "stateMutability": "view",
      "type": "function"
    },
    {
      "inputs": [
        {
          "internalType": "address",
          "name": "token",
          "type": "address"
        },
        {
          "internalType": "uint256",
          "name": "amount",
          "type": "uint256"
        }
      ],
      "name": "deposit",
      "outputs": [
        {
          "internalType": "uint256",
          "name": "shareAmount",
          "type": "uint256"
        }
      ],
      "stateMutability": "nonpayable",
      "type": "function"
    },
    {
      "inputs": [
        {
          "internalType": "uint256",
          "name": "tokenId",
          "type": "uint256"
        }
      ],
      "name": "getUnderlyingToken",
      "outputs": [
        {
          "internalType": "address",
          "name": "token",
          "type": "address"
        }
      ],
      "stateMutability": "pure",
      "type": "function"
    },
    {
      "inputs": [
        {
          "internalType": "contract IProtocolConfig",
          "name": "_config",
          "type": "address"
        }
      ],
      "name": "initialize",
      "outputs": [],
      "stateMutability": "nonpayable",
      "type": "function"
    },
    {
      "inputs": [
        {
          "internalType": "address",
          "name": "account",
          "type": "address"
        },
        {
          "internalType": "address",
          "name": "operator",
          "type": "address"
        }
      ],
      "name": "isApprovedForAll",
      "outputs": [
        {
          "internalType": "bool",
          "name": "",
          "type": "bool"
        }
      ],
      "stateMutability": "view",
      "type": "function"
    },
    {
      "inputs": [],
      "name": "owner",
      "outputs": [
        {
          "internalType": "address",
          "name": "",
          "type": "address"
        }
      ],
      "stateMutability": "view",
      "type": "function"
    },
    {
      "inputs": [],
      "name": "renounceOwnership",
      "outputs": [],
      "stateMutability": "nonpayable",
      "type": "function"
    },
    {
      "inputs": [
        {
          "internalType": "address",
          "name": "from",
          "type": "address"
        },
        {
          "internalType": "address",
          "name": "to",
          "type": "address"
        },
        {
          "internalType": "uint256[]",
          "name": "ids",
          "type": "uint256[]"
        },
        {
          "internalType": "uint256[]",
          "name": "amounts",
          "type": "uint256[]"
        },
        {
          "internalType": "bytes",
          "name": "data",
          "type": "bytes"
        }
      ],
      "name": "safeBatchTransferFrom",
      "outputs": [],
      "stateMutability": "nonpayable",
      "type": "function"
    },
    {
      "inputs": [
        {
          "internalType": "address",
          "name": "from",
          "type": "address"
        },
        {
          "internalType": "address",
          "name": "to",
          "type": "address"
        },
        {
          "internalType": "uint256",
          "name": "id",
          "type": "uint256"
        },
        {
          "internalType": "uint256",
          "name": "amount",
          "type": "uint256"
        },
        {
          "internalType": "bytes",
          "name": "data",
          "type": "bytes"
        }
      ],
      "name": "safeTransferFrom",
      "outputs": [],
      "stateMutability": "nonpayable",
      "type": "function"
    },
    {
      "inputs": [
        {
          "internalType": "address",
          "name": "operator",
          "type": "address"
        },
        {
          "internalType": "bool",
          "name": "approved",
          "type": "bool"
        }
      ],
      "name": "setApprovalForAll",
      "outputs": [],
      "stateMutability": "nonpayable",
      "type": "function"
    },
    {
      "inputs": [
        {
          "internalType": "bytes4",
          "name": "interfaceId",
          "type": "bytes4"
        }
      ],
      "name": "supportsInterface",
      "outputs": [
        {
          "internalType": "bool",
          "name": "",
          "type": "bool"
        }
      ],
      "stateMutability": "view",
      "type": "function"
    },
    {
      "inputs": [
        {
          "internalType": "address",
          "name": "newOwner",
          "type": "address"
        }
      ],
      "name": "transferOwnership",
      "outputs": [],
      "stateMutability": "nonpayable",
      "type": "function"
    },
    {
      "inputs": [
        {
          "internalType": "uint256",
          "name": "",
          "type": "uint256"
        }
      ],
      "name": "uri",
      "outputs": [
        {
          "internalType": "string",
          "name": "",
          "type": "string"
        }
      ],
      "stateMutability": "view",
      "type": "function"
    },
    {
      "inputs": [
        {
          "internalType": "address",
          "name": "token",
          "type": "address"
        },
        {
          "internalType": "uint256",
          "name": "shareAmount",
          "type": "uint256"
        }
      ],
      "name": "withdraw",
      "outputs": [
        {
          "internalType": "uint256",
          "name": "withdrawAmount",
          "type": "uint256"
        }
      ],
      "stateMutability": "nonpayable",
      "type": "function"
    }
  ],
  "transactionHash": "0x1db0934b569958c85a0affe3bd5adc35803996cf003dce212150ade04df74ada",
  "args": [],
  "numDeployments": 1,
  "solcInputHash": "40a5e959dbaee40ef6eeed84d8383760",
  "bytecode": "0x60806040523480156200001157600080fd5b506200001c62000022565b620000e4565b600054610100900460ff16156200008f5760405162461bcd60e51b815260206004820152602760248201527f496e697469616c697a61626c653a20636f6e747261637420697320696e697469604482015266616c697a696e6760c81b606482015260840160405180910390fd5b60005460ff9081161015620000e2576000805460ff191660ff9081179091556040519081527f7f26b83ff96e1f2b6a682f133852f6798a09c465da95921460cefb38474024989060200160405180910390a15b565b61258f80620000f46000396000f3fe608060405234801561001057600080fd5b506004361061010a5760003560e01c80637e50205e116100a2578063c4d66de811610071578063c4d66de81461023d578063e985e9c514610250578063f242432a1461028c578063f2fde38b1461029f578063f3fef3a3146102b257600080fd5b80637e50205e146101f35780638da5cb5b14610206578063a22cb46514610217578063a47757721461022a57600080fd5b806347e7ef24116100de57806347e7ef241461018d5780634e1273f4146101a0578063715018a6146101c057806379502c55146101c857600080fd5b8062fdd58e1461010f57806301ffc9a7146101355780630e89341c146101585780632eb2c2d614610178575b600080fd5b61012261011d366004611b5a565b6102c5565b6040519081526020015b60405180910390f35b610148610143366004611b9c565b610360565b604051901515815260200161012c565b61016b610166366004611bb9565b6103b0565b60405161012c9190611c22565b61018b610186366004611d81565b610444565b005b61012261019b366004611b5a565b610490565b6101b36101ae366004611e2f565b610675565b60405161012c9190611f37565b61018b61079f565b60fb546101db906001600160a01b031681565b6040516001600160a01b03909116815260200161012c565b610122610201366004611f4a565b6107b3565b6033546001600160a01b03166101db565b61018b610225366004611f91565b6107cf565b6101db610238366004611bb9565b6107de565b61018b61024b366004611fbf565b610810565b61014861025e366004611f4a565b6001600160a01b03918216600090815260986020908152604080832093909416825291909152205460ff1690565b61018b61029a366004611fdc565b610995565b61018b6102ad366004611fbf565b6109da565b6101226102c0366004611b5a565b610a53565b60006001600160a01b0383166103355760405162461bcd60e51b815260206004820152602a60248201527f455243313135353a2061646472657373207a65726f206973206e6f742061207660448201526930b634b21037bbb732b960b11b60648201526084015b60405180910390fd5b5060008181526097602090815260408083206001600160a01b03861684529091529020545b92915050565b60006001600160e01b03198216636cdb3d1360e11b148061039157506001600160e01b031982166303a24d0760e21b145b8061035a57506301ffc9a760e01b6001600160e01b031983161461035a565b6060609980546103bf90612045565b80601f01602080910402602001604051908101604052809291908181526020018280546103eb90612045565b80156104385780601f1061040d57610100808354040283529160200191610438565b820191906000526020600020905b81548152906001019060200180831161041b57829003601f168201915b50505050509050919050565b6001600160a01b0385163314806104605750610460853361025e565b61047c5760405162461bcd60e51b815260040161032c9061207f565b6104898585858585610cad565b5050505050565b6000600260c954036104e45760405162461bcd60e51b815260206004820152601f60248201527f5265656e7472616e637947756172643a207265656e7472616e742063616c6c00604482015260640161032c565b600260c955600082900361050b57604051630f6fa54560e41b815260040160405180910390fd5b6040516370a0823160e01b815230600482015283906000906001600160a01b038316906370a0823190602401602060405180830381865afa158015610554573d6000803e3d6000fd5b505050506040513d601f19601f8201168201806040525081019061057891906120ce565b905061058f6001600160a01b038316333087610e8d565b6040516370a0823160e01b81523060048201526000906001600160a01b038416906370a0823190602401602060405180830381865afa1580156105d6573d6000803e3d6000fd5b505050506040513d601f19601f820116820180604052508101906105fa91906120ce565b905061060682826120fd565b935061062c33876001600160a01b03168660405180602001604052806000815250610efe565b604080518681526020810186905233917f73a19dd210f1a7f902193214c0ee91dd35ee5b4d920cba8d519eca65a7b488ca910160405180910390a25050600160c9555092915050565b606081518351146106da5760405162461bcd60e51b815260206004820152602960248201527f455243313135353a206163636f756e747320616e6420696473206c656e677468604482015268040dad2e6dac2e8c6d60bb1b606482015260840161032c565b6000835167ffffffffffffffff8111156106f6576106f6611c35565b60405190808252806020026020018201604052801561071f578160200160208202803683370190505b50905060005b84518110156107975761076a85828151811061074357610743612110565b602002602001015185838151811061075d5761075d612110565b60200260200101516102c5565b82828151811061077c5761077c612110565b602090810291909101015261079081612126565b9050610725565b509392505050565b6107a7611014565b6107b1600061106e565b565b60006107c8826001600160a01b0385166102c5565b9392505050565b6107da3383836110c0565b5050565b806001600160a01b038116811461080b57604051633add4c3760e01b81526004810183905260240161032c565b919050565b600054610100900460ff16158080156108305750600054600160ff909116105b8061084a5750303b15801561084a575060005460ff166001145b6108ad5760405162461bcd60e51b815260206004820152602e60248201527f496e697469616c697a61626c653a20636f6e747261637420697320616c72656160448201526d191e481a5b9a5d1a585b1a5e995960921b606482015260840161032c565b6000805460ff1916600117905580156108d0576000805461ff0019166101001790555b6108d86111a0565b6108e06111cf565b61090a6040518060400160405280600981526020016812185c9915985d5b1d60ba1b8152506111fe565b6001600160a01b0382166109315760405163538ba4f960e01b815260040160405180910390fd5b60fb80546001600160a01b0319166001600160a01b03841617905580156107da576000805461ff0019169055604051600181527f7f26b83ff96e1f2b6a682f133852f6798a09c465da95921460cefb38474024989060200160405180910390a15050565b6001600160a01b0385163314806109b157506109b1853361025e565b6109cd5760405162461bcd60e51b815260040161032c9061207f565b610489858585858561122e565b6109e2611014565b6001600160a01b038116610a475760405162461bcd60e51b815260206004820152602660248201527f4f776e61626c653a206e6577206f776e657220697320746865207a65726f206160448201526564647265737360d01b606482015260840161032c565b610a508161106e565b50565b6000600260c95403610aa75760405162461bcd60e51b815260206004820152601f60248201527f5265656e7472616e637947756172643a207265656e7472616e742063616c6c00604482015260640161032c565b600260c9556000829003610ace57604051630f6fa54560e41b815260040160405180910390fd5b82610ae3336001600160a01b0383168561135c565b610b648160fb60009054906101000a90046001600160a01b03166001600160a01b031663d0fb02036040518163ffffffff1660e01b8152600401602060405180830381865afa158015610b3a573d6000803e3d6000fd5b505050506040513d601f19601f82011682018060405250810190610b5e919061213f565b856114db565b60fb60009054906101000a90046001600160a01b03166001600160a01b031663d0fb02036040518163ffffffff1660e01b8152600401602060405180830381865afa158015610bb7573d6000803e3d6000fd5b505050506040513d601f19601f82011682018060405250810190610bdb919061213f565b60405163272bed8360e11b81526001600160a01b038381166004830152602482018690529190911690634e57db06906044016020604051808303816000875af1158015610c2c573d6000803e3d6000fd5b505050506040513d601f19601f82011682018060405250810190610c5091906120ce565b9150610c666001600160a01b03821633846115c2565b604080518381526020810185905233917f92ccf450a286a957af52509bc1c9939d1a6a481783e142e41e2499f0bb66ebc6910160405180910390a250600160c95592915050565b8151835114610d0f5760405162461bcd60e51b815260206004820152602860248201527f455243313135353a2069647320616e6420616d6f756e7473206c656e677468206044820152670dad2e6dac2e8c6d60c31b606482015260840161032c565b6001600160a01b038416610d355760405162461bcd60e51b815260040161032c9061215c565b3360005b8451811015610e1f576000858281518110610d5657610d56612110565b602002602001015190506000858381518110610d7457610d74612110565b60209081029190910181015160008481526097835260408082206001600160a01b038e168352909352919091205490915081811015610dc55760405162461bcd60e51b815260040161032c906121a1565b60008381526097602090815260408083206001600160a01b038e8116855292528083208585039055908b16825281208054849290610e049084906121eb565b9250508190555050505080610e1890612126565b9050610d39565b50846001600160a01b0316866001600160a01b0316826001600160a01b03167f4a39dc06d4c0dbc64b70af90fd698a233a518aa5d07e595d983b8c0526c8f7fb8787604051610e6f9291906121fe565b60405180910390a4610e858187878787876115f7565b505050505050565b6040516001600160a01b0380851660248301528316604482015260648101829052610ef89085906323b872dd60e01b906084015b60408051601f198184030181529190526020810180516001600160e01b03166001600160e01b031990931692909217909152611752565b50505050565b6001600160a01b038416610f5e5760405162461bcd60e51b815260206004820152602160248201527f455243313135353a206d696e7420746f20746865207a65726f206164647265736044820152607360f81b606482015260840161032c565b336000610f6a85611824565b90506000610f7785611824565b905060008681526097602090815260408083206001600160a01b038b16845290915281208054879290610fab9084906121eb565b909155505060408051878152602081018790526001600160a01b03808a1692600092918716917fc3d58168c5ae7397731d063d5bbf3d657854427343f4c083240f7aacaa2d0f62910160405180910390a461100b8360008989898961186f565b50505050505050565b6033546001600160a01b031633146107b15760405162461bcd60e51b815260206004820181905260248201527f4f776e61626c653a2063616c6c6572206973206e6f7420746865206f776e6572604482015260640161032c565b603380546001600160a01b038381166001600160a01b0319831681179093556040519116919082907f8be0079c531659141344cd1fd0a4f28419497f9722a3daafe3b4186f6b6457e090600090a35050565b816001600160a01b0316836001600160a01b0316036111335760405162461bcd60e51b815260206004820152602960248201527f455243313135353a2073657474696e6720617070726f76616c20737461747573604482015268103337b91039b2b63360b91b606482015260840161032c565b6001600160a01b03838116600081815260986020908152604080832094871680845294825291829020805460ff191686151590811790915591519182527f17307eab39ab6107e8899845ad3d59bd9653f200f220920489ca2b5937696c31910160405180910390a3505050565b600054610100900460ff166111c75760405162461bcd60e51b815260040161032c9061222c565b6107b161192a565b600054610100900460ff166111f65760405162461bcd60e51b815260040161032c9061222c565b6107b1611958565b600054610100900460ff166112255760405162461bcd60e51b815260040161032c9061222c565b610a5081611988565b6001600160a01b0384166112545760405162461bcd60e51b815260040161032c9061215c565b33600061126085611824565b9050600061126d85611824565b905060008681526097602090815260408083206001600160a01b038c168452909152902054858110156112b25760405162461bcd60e51b815260040161032c906121a1565b60008781526097602090815260408083206001600160a01b038d8116855292528083208985039055908a168252812080548892906112f19084906121eb565b909155505060408051888152602081018890526001600160a01b03808b16928c821692918816917fc3d58168c5ae7397731d063d5bbf3d657854427343f4c083240f7aacaa2d0f62910160405180910390a4611351848a8a8a8a8a61186f565b505050505050505050565b6001600160a01b0383166113be5760405162461bcd60e51b815260206004820152602360248201527f455243313135353a206275726e2066726f6d20746865207a65726f206164647260448201526265737360e81b606482015260840161032c565b3360006113ca84611824565b905060006113d784611824565b6040805160208082018352600091829052888252609781528282206001600160a01b038b16835290522054909150848110156114615760405162461bcd60e51b8152602060048201526024808201527f455243313135353a206275726e20616d6f756e7420657863656564732062616c604482015263616e636560e01b606482015260840161032c565b60008681526097602090815260408083206001600160a01b038b81168086529184528285208a8703905582518b81529384018a90529092908816917fc3d58168c5ae7397731d063d5bbf3d657854427343f4c083240f7aacaa2d0f62910160405180910390a460408051602081019091526000905261100b565b60405163095ea7b360e01b81526001600160a01b0383811660048301526000602483015284169063095ea7b3906044016020604051808303816000875af115801561152a573d6000803e3d6000fd5b505050506040513d601f19601f8201168201806040525081019061154e9190612277565b5060405163095ea7b360e01b81526001600160a01b0383811660048301526024820183905284169063095ea7b3906044016020604051808303816000875af115801561159e573d6000803e3d6000fd5b505050506040513d601f19601f82011682018060405250810190610ef89190612277565b6040516001600160a01b0383166024820152604481018290526115f290849063a9059cbb60e01b90606401610ec1565b505050565b6001600160a01b0384163b15610e855760405163bc197c8160e01b81526001600160a01b0385169063bc197c819061163b9089908990889088908890600401612294565b6020604051808303816000875af1925050508015611676575060408051601f3d908101601f19168201909252611673918101906122f2565b60015b6117225761168261230f565b806308c379a0036116bb575061169661232b565b806116a157506116bd565b8060405162461bcd60e51b815260040161032c9190611c22565b505b60405162461bcd60e51b815260206004820152603460248201527f455243313135353a207472616e7366657220746f206e6f6e20455243313135356044820152732932b1b2b4bb32b91034b6b83632b6b2b73a32b960611b606482015260840161032c565b6001600160e01b0319811663bc197c8160e01b1461100b5760405162461bcd60e51b815260040161032c906123b5565b60006117a7826040518060400160405280602081526020017f5361666545524332303a206c6f772d6c6576656c2063616c6c206661696c6564815250856001600160a01b03166119b89092919063ffffffff16565b8051909150156115f257808060200190518101906117c59190612277565b6115f25760405162461bcd60e51b815260206004820152602a60248201527f5361666545524332303a204552433230206f7065726174696f6e20646964206e6044820152691bdd081cdd58d8d9595960b21b606482015260840161032c565b6040805160018082528183019092526060916000919060208083019080368337019050509050828160008151811061185e5761185e612110565b602090810291909101015292915050565b6001600160a01b0384163b15610e855760405163f23a6e6160e01b81526001600160a01b0385169063f23a6e61906118b390899089908890889088906004016123fd565b6020604051808303816000875af19250505080156118ee575060408051601f3d908101601f191682019092526118eb918101906122f2565b60015b6118fa5761168261230f565b6001600160e01b0319811663f23a6e6160e01b1461100b5760405162461bcd60e51b815260040161032c906123b5565b600054610100900460ff166119515760405162461bcd60e51b815260040161032c9061222c565b600160c955565b600054610100900460ff1661197f5760405162461bcd60e51b815260040161032c9061222c565b6107b13361106e565b600054610100900460ff166119af5760405162461bcd60e51b815260040161032c9061222c565b610a50816119cf565b60606119c784846000856119db565b949350505050565b60996107da828261247d565b606082471015611a3c5760405162461bcd60e51b815260206004820152602660248201527f416464726573733a20696e73756666696369656e742062616c616e636520666f6044820152651c8818d85b1b60d21b606482015260840161032c565b6001600160a01b0385163b611a935760405162461bcd60e51b815260206004820152601d60248201527f416464726573733a2063616c6c20746f206e6f6e2d636f6e7472616374000000604482015260640161032c565b600080866001600160a01b03168587604051611aaf919061253d565b60006040518083038185875af1925050503d8060008114611aec576040519150601f19603f3d011682016040523d82523d6000602084013e611af1565b606091505b5091509150611b01828286611b0c565b979650505050505050565b60608315611b1b5750816107c8565b825115611b2b5782518084602001fd5b8160405162461bcd60e51b815260040161032c9190611c22565b6001600160a01b0381168114610a5057600080fd5b60008060408385031215611b6d57600080fd5b8235611b7881611b45565b946020939093013593505050565b6001600160e01b031981168114610a5057600080fd5b600060208284031215611bae57600080fd5b81356107c881611b86565b600060208284031215611bcb57600080fd5b5035919050565b60005b83811015611bed578181015183820152602001611bd5565b50506000910152565b60008151808452611c0e816020860160208601611bd2565b601f01601f19169290920160200192915050565b6020815260006107c86020830184611bf6565b634e487b7160e01b600052604160045260246000fd5b601f8201601f1916810167ffffffffffffffff81118282101715611c7157611c71611c35565b6040525050565b600067ffffffffffffffff821115611c9257611c92611c35565b5060051b60200190565b600082601f830112611cad57600080fd5b81356020611cba82611c78565b604051611cc78282611c4b565b83815260059390931b8501820192828101915086841115611ce757600080fd5b8286015b84811015611d025780358352918301918301611ceb565b509695505050505050565b600082601f830112611d1e57600080fd5b813567ffffffffffffffff811115611d3857611d38611c35565b604051611d4f601f8301601f191660200182611c4b565b818152846020838601011115611d6457600080fd5b816020850160208301376000918101602001919091529392505050565b600080600080600060a08688031215611d9957600080fd5b8535611da481611b45565b94506020860135611db481611b45565b9350604086013567ffffffffffffffff80821115611dd157600080fd5b611ddd89838a01611c9c565b94506060880135915080821115611df357600080fd5b611dff89838a01611c9c565b93506080880135915080821115611e1557600080fd5b50611e2288828901611d0d565b9150509295509295909350565b60008060408385031215611e4257600080fd5b823567ffffffffffffffff80821115611e5a57600080fd5b818501915085601f830112611e6e57600080fd5b81356020611e7b82611c78565b604051611e888282611c4b565b83815260059390931b8501820192828101915089841115611ea857600080fd5b948201945b83861015611ecf578535611ec081611b45565b82529482019490820190611ead565b96505086013592505080821115611ee557600080fd5b50611ef285828601611c9c565b9150509250929050565b600081518084526020808501945080840160005b83811015611f2c57815187529582019590820190600101611f10565b509495945050505050565b6020815260006107c86020830184611efc565b60008060408385031215611f5d57600080fd5b8235611f6881611b45565b91506020830135611f7881611b45565b809150509250929050565b8015158114610a5057600080fd5b60008060408385031215611fa457600080fd5b8235611faf81611b45565b91506020830135611f7881611f83565b600060208284031215611fd157600080fd5b81356107c881611b45565b600080600080600060a08688031215611ff457600080fd5b8535611fff81611b45565b9450602086013561200f81611b45565b93506040860135925060608601359150608086013567ffffffffffffffff81111561203957600080fd5b611e2288828901611d0d565b600181811c9082168061205957607f821691505b60208210810361207957634e487b7160e01b600052602260045260246000fd5b50919050565b6020808252602f908201527f455243313135353a2063616c6c6572206973206e6f7420746f6b656e206f776e60408201526e195c881b9bdc88185c1c1c9bdd9959608a1b606082015260800190565b6000602082840312156120e057600080fd5b5051919050565b634e487b7160e01b600052601160045260246000fd5b8181038181111561035a5761035a6120e7565b634e487b7160e01b600052603260045260246000fd5b600060018201612138576121386120e7565b5060010190565b60006020828403121561215157600080fd5b81516107c881611b45565b60208082526025908201527f455243313135353a207472616e7366657220746f20746865207a65726f206164604082015264647265737360d81b606082015260800190565b6020808252602a908201527f455243313135353a20696e73756666696369656e742062616c616e636520666f60408201526939103a3930b739b332b960b11b606082015260800190565b8082018082111561035a5761035a6120e7565b6040815260006122116040830185611efc565b82810360208401526122238185611efc565b95945050505050565b6020808252602b908201527f496e697469616c697a61626c653a20636f6e7472616374206973206e6f74206960408201526a6e697469616c697a696e6760a81b606082015260800190565b60006020828403121561228957600080fd5b81516107c881611f83565b6001600160a01b0386811682528516602082015260a0604082018190526000906122c090830186611efc565b82810360608401526122d28186611efc565b905082810360808401526122e68185611bf6565b98975050505050505050565b60006020828403121561230457600080fd5b81516107c881611b86565b600060033d11156123285760046000803e5060005160e01c5b90565b600060443d10156123395790565b6040516003193d81016004833e81513d67ffffffffffffffff816024840111818411171561236957505050505090565b82850191508151818111156123815750505050505090565b843d870101602082850101111561239b5750505050505090565b6123aa60208286010187611c4b565b509095945050505050565b60208082526028908201527f455243313135353a204552433131353552656365697665722072656a656374656040820152676420746f6b656e7360c01b606082015260800190565b6001600160a01b03868116825285166020820152604081018490526060810183905260a060808201819052600090611b0190830184611bf6565b601f8211156115f257600081815260208120601f850160051c8101602086101561245e5750805b601f850160051c820191505b81811015610e855782815560010161246a565b815167ffffffffffffffff81111561249757612497611c35565b6124ab816124a58454612045565b84612437565b602080601f8311600181146124e057600084156124c85750858301515b600019600386901b1c1916600185901b178555610e85565b600085815260208120601f198616915b8281101561250f578886015182559484019460019091019084016124f0565b508582101561252d5787850151600019600388901b60f8161c191681555b5050505050600190811b01905550565b6000825161254f818460208701611bd2565b919091019291505056fea264697066735822122073a164ec805af26edeb26d5347a5ab788019dbc8d2e6826d77fc93d7fc0bf2a764736f6c63430008100033",
  "devdoc": {
    "details": "The HardVault is an ERC1155 contract where each LP token is associated with a unique tokenId.      The tokenId is derived from the LP token address. Only LP tokens listed by the Blueberry team      can be used as collateral in this vault.",
    "events": {
      "Deposited(address,uint256,uint256)": {
        "details": "Emitted when a user deposits ERC20 tokens into the vault.",
        "params": {
          "account": "Address of the user.",
          "amount": "Amount of ERC20 tokens deposited.",
          "shareAmount": "Amount of ERC1155 tokens minted."
        }
      },
      "Withdrawn(address,uint256,uint256)": {
        "details": "Emitted when a user withdraws ERC20 tokens from the vault.",
        "params": {
          "account": "Address of the user.",
          "amount": "Amount of ERC20 tokens withdrawn.",
          "shareAmount": "Amount of ERC1155 tokens burned."
        }
      }
    },
    "kind": "dev",
    "methods": {
      "balanceOf(address,uint256)": {
        "details": "See {IERC1155-balanceOf}. Requirements: - `account` cannot be the zero address."
      },
      "balanceOfBatch(address[],uint256[])": {
        "details": "See {IERC1155-balanceOfBatch}. Requirements: - `accounts` and `ids` must have the same length."
      },
      "balanceOfERC20(address,address)": {
        "params": {
          "token": "Address of the ERC20 token.",
          "user": "Address of the user."
        },
        "returns": {
          "_0": "Balance of the user for the given token."
        }
      },
      "constructor": {
        "custom:oz-upgrades-unsafe-allow": "constructor"
      },
      "deposit(address,uint256)": {
        "details": "Emits a {Deposited} event.",
        "params": {
          "amount": "The amount of ERC20 tokens to deposit.",
          "token": "The ERC20 token to deposit."
        },
        "returns": {
          "shareAmount": "The amount of ERC1155 tokens minted in return."
        }
      },
      "getUnderlyingToken(uint256)": {
        "params": {
          "tokenId": "The tokenId to resolve."
        },
        "returns": {
          "token": "Address of the corresponding ERC20 token."
        }
      },
      "initialize(address)": {
        "params": {
          "_config": "Address of the protocol configuration."
        }
      },
      "isApprovedForAll(address,address)": {
        "details": "See {IERC1155-isApprovedForAll}."
      },
      "owner()": {
        "details": "Returns the address of the current owner."
      },
      "renounceOwnership()": {
        "details": "Leaves the contract without owner. It will not be possible to call `onlyOwner` functions anymore. Can only be called by the current owner. NOTE: Renouncing ownership will leave the contract without an owner, thereby removing any functionality that is only available to the owner."
      },
      "safeBatchTransferFrom(address,address,uint256[],uint256[],bytes)": {
        "details": "See {IERC1155-safeBatchTransferFrom}."
      },
      "safeTransferFrom(address,address,uint256,uint256,bytes)": {
        "details": "See {IERC1155-safeTransferFrom}."
      },
      "setApprovalForAll(address,bool)": {
        "details": "See {IERC1155-setApprovalForAll}."
      },
      "supportsInterface(bytes4)": {
        "details": "See {IERC165-supportsInterface}."
      },
      "transferOwnership(address)": {
        "details": "Transfers ownership of the contract to a new account (`newOwner`). Can only be called by the current owner."
      },
      "uri(uint256)": {
        "details": "See {IERC1155MetadataURI-uri}. This implementation returns the same URI for *all* token types. It relies on the token type ID substitution mechanism https://eips.ethereum.org/EIPS/eip-1155#metadata[defined in the EIP]. Clients calling this function must replace the `\\{id\\}` substring with the actual token type ID."
      },
      "withdraw(address,uint256)": {
        "details": "Emits a {Withdrawn} event.",
        "params": {
          "shareAmount": "The amount of ERC1155 tokens to burn.",
          "token": "The ERC20 token to withdraw."
        },
        "returns": {
          "withdrawAmount": "The amount of ERC20 tokens withdrawn."
        }
      }
    },
    "stateVariables": {
      "config": {
        "details": "address of protocol config"
      }
    },
    "title": "HardVault",
    "version": 1
  },
  "userdoc": {
    "errors": {
      "INVALID_TOKEN_ID(uint256)": [
        {
          "notice": "Thrown when an invalid token ID is provided."
        }
      ],
      "ZERO_ADDRESS()": [
        {
          "notice": "Thrown when the address provided is the zero address."
        }
      ],
      "ZERO_AMOUNT()": [
        {
          "notice": "Thrown when an action involves zero amount of tokens."
        }
      ]
    },
    "kind": "user",
    "methods": {
      "balanceOfERC20(address,address)": {
        "notice": "Gets the balance of a specific ERC20 token for a user."
      },
      "deposit(address,uint256)": {
        "notice": "Allows a user to deposit ERC20 tokens into the vault and mint corresponding ERC1155 tokens."
      },
      "getUnderlyingToken(uint256)": {
        "notice": "Maps a tokenId to its underlying ERC20 token."
      },
      "initialize(address)": {
        "notice": "Initializes the HardVault contract with protocol configuration."
      },
      "withdraw(address,uint256)": {
        "notice": "Allows a user to burn their ERC1155 tokens and withdraw the underlying ERC20 tokens."
      }
    },
    "notice": "The HardVault contract is used to lock LP tokens as collateral.         This vault simply holds onto LP tokens deposited by users, serving as collateral storage.",
    "version": 1
  },
  "storageLayout": {
    "storage": [
      {
        "astId": 241,
        "contract": "contracts/vault/HardVault.sol:HardVault",
        "label": "_initialized",
        "offset": 0,
        "slot": "0",
        "type": "t_uint8"
      },
      {
        "astId": 244,
        "contract": "contracts/vault/HardVault.sol:HardVault",
        "label": "_initializing",
        "offset": 1,
        "slot": "0",
        "type": "t_bool"
      },
      {
        "astId": 3309,
        "contract": "contracts/vault/HardVault.sol:HardVault",
        "label": "__gap",
        "offset": 0,
        "slot": "1",
        "type": "t_array(t_uint256)50_storage"
      },
      {
        "astId": 113,
        "contract": "contracts/vault/HardVault.sol:HardVault",
        "label": "_owner",
        "offset": 0,
        "slot": "51",
        "type": "t_address"
      },
      {
        "astId": 233,
        "contract": "contracts/vault/HardVault.sol:HardVault",
        "label": "__gap",
        "offset": 0,
        "slot": "52",
        "type": "t_array(t_uint256)49_storage"
      },
      {
        "astId": 3353,
        "contract": "contracts/vault/HardVault.sol:HardVault",
        "label": "__gap",
        "offset": 0,
        "slot": "101",
        "type": "t_array(t_uint256)50_storage"
      },
      {
        "astId": 600,
        "contract": "contracts/vault/HardVault.sol:HardVault",
        "label": "_balances",
        "offset": 0,
        "slot": "151",
        "type": "t_mapping(t_uint256,t_mapping(t_address,t_uint256))"
      },
      {
        "astId": 606,
        "contract": "contracts/vault/HardVault.sol:HardVault",
        "label": "_operatorApprovals",
        "offset": 0,
        "slot": "152",
        "type": "t_mapping(t_address,t_mapping(t_address,t_bool))"
      },
      {
        "astId": 608,
        "contract": "contracts/vault/HardVault.sol:HardVault",
        "label": "_uri",
        "offset": 0,
        "slot": "153",
        "type": "t_string_storage"
      },
      {
        "astId": 1815,
        "contract": "contracts/vault/HardVault.sol:HardVault",
        "label": "__gap",
        "offset": 0,
        "slot": "154",
        "type": "t_array(t_uint256)47_storage"
      },
      {
        "astId": 526,
        "contract": "contracts/vault/HardVault.sol:HardVault",
        "label": "_status",
        "offset": 0,
        "slot": "201",
        "type": "t_uint256"
      },
      {
        "astId": 570,
        "contract": "contracts/vault/HardVault.sol:HardVault",
        "label": "__gap",
        "offset": 0,
        "slot": "202",
        "type": "t_array(t_uint256)49_storage"
      },
      {
        "astId": 35310,
        "contract": "contracts/vault/HardVault.sol:HardVault",
        "label": "config",
        "offset": 0,
        "slot": "251",
        "type": "t_contract(IProtocolConfig)13609"
      }
    ],
    "types": {
      "t_address": {
        "encoding": "inplace",
        "label": "address",
        "numberOfBytes": "20"
      },
      "t_array(t_uint256)47_storage": {
        "base": "t_uint256",
        "encoding": "inplace",
        "label": "uint256[47]",
        "numberOfBytes": "1504"
      },
      "t_array(t_uint256)49_storage": {
        "base": "t_uint256",
        "encoding": "inplace",
        "label": "uint256[49]",
        "numberOfBytes": "1568"
      },
      "t_array(t_uint256)50_storage": {
        "base": "t_uint256",
        "encoding": "inplace",
        "label": "uint256[50]",
        "numberOfBytes": "1600"
      },
      "t_bool": {
        "encoding": "inplace",
        "label": "bool",
        "numberOfBytes": "1"
      },
      "t_contract(IProtocolConfig)13609": {
        "encoding": "inplace",
        "label": "contract IProtocolConfig",
        "numberOfBytes": "20"
      },
      "t_mapping(t_address,t_bool)": {
        "encoding": "mapping",
        "key": "t_address",
        "label": "mapping(address => bool)",
        "numberOfBytes": "32",
        "value": "t_bool"
      },
      "t_mapping(t_address,t_mapping(t_address,t_bool))": {
        "encoding": "mapping",
        "key": "t_address",
        "label": "mapping(address => mapping(address => bool))",
        "numberOfBytes": "32",
        "value": "t_mapping(t_address,t_bool)"
      },
      "t_mapping(t_address,t_uint256)": {
        "encoding": "mapping",
        "key": "t_address",
        "label": "mapping(address => uint256)",
        "numberOfBytes": "32",
        "value": "t_uint256"
      },
      "t_mapping(t_uint256,t_mapping(t_address,t_uint256))": {
        "encoding": "mapping",
        "key": "t_uint256",
        "label": "mapping(uint256 => mapping(address => uint256))",
        "numberOfBytes": "32",
        "value": "t_mapping(t_address,t_uint256)"
      },
      "t_string_storage": {
        "encoding": "bytes",
        "label": "string",
        "numberOfBytes": "32"
      },
      "t_uint256": {
        "encoding": "inplace",
        "label": "uint256",
        "numberOfBytes": "32"
      },
      "t_uint8": {
        "encoding": "inplace",
        "label": "uint8",
        "numberOfBytes": "1"
      }
    }
  }
}