{
  "address": "0xe6c021Eb75287904e6aad578F22d8AE272b9384F",
  "abi": [
    {
      "inputs": [
        {
          "internalType": "contract IBaseOracle",
          "name": "_base",
          "type": "address"
        }
      ],
      "stateMutability": "nonpayable",
      "type": "constructor"
    },
    {
      "inputs": [],
      "name": "EXCEED_DEVIATION",
      "type": "error"
    },
    {
      "inputs": [
        {
          "internalType": "uint256",
          "name": "deviation",
          "type": "uint256"
        }
      ],
      "name": "OUT_OF_DEVIATION_CAP",
      "type": "error"
    },
    {
      "inputs": [
        {
          "internalType": "uint256",
          "name": "delayTime",
          "type": "uint256"
        }
      ],
      "name": "TOO_LONG_DELAY",
      "type": "error"
    },
    {
      "inputs": [
        {
          "internalType": "uint256",
          "name": "mean",
          "type": "uint256"
        }
      ],
      "name": "TOO_LOW_MEAN",
      "type": "error"
    },
    {
      "inputs": [],
      "name": "ZERO_ADDRESS",
      "type": "error"
    },
    {
      "anonymous": false,
      "inputs": [
        {
          "indexed": true,
          "internalType": "address",
          "name": "previousOwner",
          "type": "address"
        },
        {
          "indexed": true,
          "internalType": "address",
          "name": "newOwner",
          "type": "address"
        }
      ],
      "name": "OwnershipTransferred",
      "type": "event"
    },
    {
      "anonymous": false,
      "inputs": [
        {
          "indexed": true,
          "internalType": "address",
          "name": "token",
          "type": "address"
        },
        {
          "indexed": false,
          "internalType": "uint256",
          "name": "maxPriceDeviation",
          "type": "uint256"
        }
      ],
      "name": "SetPriceDeviation",
      "type": "event"
    },
    {
      "inputs": [],
      "name": "base",
      "outputs": [
        {
          "internalType": "contract IBaseOracle",
          "name": "",
          "type": "address"
        }
      ],
      "stateMutability": "view",
      "type": "function"
    },
    {
      "inputs": [
        {
          "internalType": "address",
          "name": "token",
          "type": "address"
        }
      ],
      "name": "getPrice",
      "outputs": [
        {
          "internalType": "uint256",
          "name": "",
          "type": "uint256"
        }
      ],
      "stateMutability": "nonpayable",
      "type": "function"
    },
    {
      "inputs": [
        {
          "internalType": "address",
          "name": "",
          "type": "address"
        }
      ],
      "name": "maxPriceDeviations",
      "outputs": [
        {
          "internalType": "uint256",
          "name": "",
          "type": "uint256"
        }
      ],
      "stateMutability": "view",
      "type": "function"
    },
    {
      "inputs": [],
      "name": "owner",
      "outputs": [
        {
          "internalType": "address",
          "name": "",
          "type": "address"
        }
      ],
      "stateMutability": "view",
      "type": "function"
    },
    {
      "inputs": [],
      "name": "renounceOwnership",
      "outputs": [],
      "stateMutability": "nonpayable",
      "type": "function"
    },
    {
      "inputs": [
        {
          "internalType": "address",
          "name": "token",
          "type": "address"
        },
        {
          "internalType": "uint256",
          "name": "maxPriceDeviation",
          "type": "uint256"
        }
      ],
      "name": "setPriceDeviation",
      "outputs": [],
      "stateMutability": "nonpayable",
      "type": "function"
    },
    {
      "inputs": [
        {
          "internalType": "contract IICHIVault",
          "name": "vault",
          "type": "address"
        }
      ],
      "name": "spotPrice0InToken1",
      "outputs": [
        {
          "internalType": "uint256",
          "name": "",
          "type": "uint256"
        }
      ],
      "stateMutability": "view",
      "type": "function"
    },
    {
      "inputs": [
        {
          "internalType": "address",
          "name": "newOwner",
          "type": "address"
        }
      ],
      "name": "transferOwnership",
      "outputs": [],
      "stateMutability": "nonpayable",
      "type": "function"
    },
    {
      "inputs": [
        {
          "internalType": "contract IICHIVault",
          "name": "vault",
          "type": "address"
        }
      ],
      "name": "twapPrice0InToken1",
      "outputs": [
        {
          "internalType": "uint256",
          "name": "",
          "type": "uint256"
        }
      ],
      "stateMutability": "view",
      "type": "function"
    }
  ],
  "transactionHash": "0x89dd58a65da81f57a1210078683452c34f9457feac3e449ff6ce425afa1e39f8",
  "args": [
    "0x504F2e3De65F12074a0a43399f307FeFfB186aCd"
  ],
  "numDeployments": 1,
  "solcInputHash": "40a5e959dbaee40ef6eeed84d8383760",
  "bytecode": "0x60a060405234801561001057600080fd5b506040516111c23803806111c283398101604081905261002f9161009b565b6001600160a01b0381166080526100453361004b565b506100cb565b600080546001600160a01b038381166001600160a01b0319831681178455604051919092169283917f8be0079c531659141344cd1fd0a4f28419497f9722a3daafe3b4186f6b6457e09190a35050565b6000602082840312156100ad57600080fd5b81516001600160a01b03811681146100c457600080fd5b9392505050565b6080516110cf6100f36000396000818160c3015281816103b6015261044801526110cf6000f3fe608060405234801561001057600080fd5b50600436106100935760003560e01c80638da5cb5b116100665780638da5cb5b1461011a578063b7f263841461012b578063bb0e70e01461013e578063d4c55a281461015e578063f2fde38b1461017157600080fd5b806341976e09146100985780635001f3b5146100be57806353997a5f146100fd578063715018a614610112575b600080fd5b6100ab6100a6366004610d80565b610184565b6040519081526020015b60405180910390f35b6100e57f000000000000000000000000000000000000000000000000000000000000000081565b6040516001600160a01b0390911681526020016100b5565b61011061010b366004610da4565b61066c565b005b61011061071f565b6000546001600160a01b03166100e5565b6100ab610139366004610d80565b610733565b6100ab61014c366004610d80565b60016020526000908152604090205481565b6100ab61016c366004610d80565b610a41565b61011061017f366004610d80565b610bf2565b6000808290506000816001600160a01b03166318160ddd6040518163ffffffff1660e01b8152600401602060405180830381865afa1580156101ca573d6000803e3d6000fd5b505050506040513d601f19601f820116820180604052508101906101ee9190610dd0565b905080600003610202575060009392505050565b6000826001600160a01b0316630dfe16816040518163ffffffff1660e01b8152600401602060405180830381865afa158015610242573d6000803e3d6000fd5b505050506040513d601f19601f820116820180604052508101906102669190610de9565b90506000836001600160a01b031663d21220a76040518163ffffffff1660e01b8152600401602060405180830381865afa1580156102a8573d6000803e3d6000fd5b505050506040513d601f19601f820116820180604052508101906102cc9190610de9565b905060006102d985610a41565b905060006102e686610733565b6001600160a01b03851660009081526001602052604090205490915061030d838383610c6b565b61032a57604051637114d53360e01b815260040160405180910390fd5b600080886001600160a01b031663c4a7761e6040518163ffffffff1660e01b81526004016040805180830381865afa15801561036a573d6000803e3d6000fd5b505050506040513d601f19601f8201168201806040525081019061038e9190610e06565b6040516341976e0960e01b81526001600160a01b038a811660048301529294509092506000917f000000000000000000000000000000000000000000000000000000000000000016906341976e09906024016020604051808303816000875af11580156103ff573d6000803e3d6000fd5b505050506040513d601f19601f820116820180604052508101906104239190610dd0565b6040516341976e0960e01b81526001600160a01b0389811660048301529192506000917f000000000000000000000000000000000000000000000000000000000000000016906341976e09906024016020604051808303816000875af1158015610491573d6000803e3d6000fd5b505050506040513d601f19601f820116820180604052508101906104b59190610dd0565b90506000896001600160a01b031663313ce5676040518163ffffffff1660e01b8152600401602060405180830381865afa1580156104f7573d6000803e3d6000fd5b505050506040513d601f19601f8201168201806040525081019061051b9190610e2a565b60ff1690506000896001600160a01b031663313ce5676040518163ffffffff1660e01b8152600401602060405180830381865afa158015610560573d6000803e3d6000fd5b505050506040513d601f19601f820116820180604052508101906105849190610e2a565b60ff169050600061059682600a610f47565b6105a08588610f53565b6105aa9190610f72565b6105b584600a610f47565b6105bf878a610f53565b6105c99190610f72565b6105d39190610f94565b90508c8e6001600160a01b031663313ce5676040518163ffffffff1660e01b8152600401602060405180830381865afa158015610614573d6000803e3d6000fd5b505050506040513d601f19601f820116820180604052508101906106389190610e2a565b61064390600a610fa7565b61064d9083610f53565b6106579190610f72565b9e505050505050505050505050505050919050565b610674610cc1565b6001600160a01b03821661069b5760405163538ba4f960e01b815260040160405180910390fd5b6103e88111156106c657604051631a6b806360e21b8152600481018290526024015b60405180910390fd5b6001600160a01b03821660008181526001602052604090819020839055517fbcc48d4ac37a64aecfe6bd804bc60445843735ed2ea3a4eb2be82fd9817601b5906107139084815260200190565b60405180910390a25050565b610727610cc1565b6107316000610d1b565b565b600080826001600160a01b031663f62073266040518163ffffffff1660e01b8152600401602060405180830381865afa158015610774573d6000803e3d6000fd5b505050506040513d601f19601f820116820180604052508101906107989190610fb6565b90506202a30063ffffffff821611156107cc5760405163f5d3e54f60e01b815263ffffffff821660048201526024016106bd565b610e1063ffffffff821610156107fd57604051635cab37cb60e11b815263ffffffff821660048201526024016106bd565b600073bedac0aadbf32514eB67c233C9b365513741B2666382413489856001600160a01b03166316f0115b6040518163ffffffff1660e01b8152600401602060405180830381865afa158015610857573d6000803e3d6000fd5b505050506040513d601f19601f8201168201806040525081019061087b9190610de9565b6040516001600160e01b031960e084901b1681526001600160a01b03909116600482015263ffffffff851660248201526044016040805180830381865af41580156108ca573d6000803e3d6000fd5b505050506040513d601f19601f820116820180604052508101906108ee9190610ff3565b50905073bedac0aadbf32514eB67c233C9b365513741B2666343c57a2782670de0b6b3a7640000876001600160a01b0316630dfe16816040518163ffffffff1660e01b8152600401602060405180830381865afa158015610953573d6000803e3d6000fd5b505050506040513d601f19601f820116820180604052508101906109779190610de9565b886001600160a01b031663d21220a76040518163ffffffff1660e01b8152600401602060405180830381865afa1580156109b5573d6000803e3d6000fd5b505050506040513d601f19601f820116820180604052508101906109d99190610de9565b6040518563ffffffff1660e01b81526004016109f89493929190611036565b602060405180830381865af4158015610a15573d6000803e3d6000fd5b505050506040513d601f19601f82011682018060405250810190610a399190610dd0565b949350505050565b600073bedac0aadbf32514eB67c233C9b365513741B2666343c57a27836001600160a01b031663065e53606040518163ffffffff1660e01b8152600401602060405180830381865afa158015610a9b573d6000803e3d6000fd5b505050506040513d601f19601f82011682018060405250810190610abf919061106b565b670de0b6b3a7640000856001600160a01b0316630dfe16816040518163ffffffff1660e01b8152600401602060405180830381865afa158015610b06573d6000803e3d6000fd5b505050506040513d601f19601f82011682018060405250810190610b2a9190610de9565b866001600160a01b031663d21220a76040518163ffffffff1660e01b8152600401602060405180830381865afa158015610b68573d6000803e3d6000fd5b505050506040513d601f19601f82011682018060405250810190610b8c9190610de9565b6040518563ffffffff1660e01b8152600401610bab9493929190611036565b602060405180830381865af4158015610bc8573d6000803e3d6000fd5b505050506040513d601f19601f82011682018060405250810190610bec9190610dd0565b92915050565b610bfa610cc1565b6001600160a01b038116610c5f5760405162461bcd60e51b815260206004820152602660248201527f4f776e61626c653a206e6577206f776e657220697320746865207a65726f206160448201526564647265737360d01b60648201526084016106bd565b610c6881610d1b565b50565b600080838511610c7b5783610c7d565b845b90506000848611610c8e5785610c90565b845b90508382612710610ca18483611086565b610cab9190610f53565b610cb59190610f72565b11159695505050505050565b6000546001600160a01b031633146107315760405162461bcd60e51b815260206004820181905260248201527f4f776e61626c653a2063616c6c6572206973206e6f7420746865206f776e657260448201526064016106bd565b600080546001600160a01b038381166001600160a01b0319831681178455604051919092169283917f8be0079c531659141344cd1fd0a4f28419497f9722a3daafe3b4186f6b6457e09190a35050565b6001600160a01b0381168114610c6857600080fd5b600060208284031215610d9257600080fd5b8135610d9d81610d6b565b9392505050565b60008060408385031215610db757600080fd5b8235610dc281610d6b565b946020939093013593505050565b600060208284031215610de257600080fd5b5051919050565b600060208284031215610dfb57600080fd5b8151610d9d81610d6b565b60008060408385031215610e1957600080fd5b505080516020909101519092909150565b600060208284031215610e3c57600080fd5b815160ff81168114610d9d57600080fd5b634e487b7160e01b600052601160045260246000fd5b600181815b80851115610e9e578160001904821115610e8457610e84610e4d565b80851615610e9157918102915b93841c9390800290610e68565b509250929050565b600082610eb557506001610bec565b81610ec257506000610bec565b8160018114610ed85760028114610ee257610efe565b6001915050610bec565b60ff841115610ef357610ef3610e4d565b50506001821b610bec565b5060208310610133831016604e8410600b8410161715610f21575081810a610bec565b610f2b8383610e63565b8060001904821115610f3f57610f3f610e4d565b029392505050565b6000610d9d8383610ea6565b6000816000190483118215151615610f6d57610f6d610e4d565b500290565b600082610f8f57634e487b7160e01b600052601260045260246000fd5b500490565b80820180821115610bec57610bec610e4d565b6000610d9d60ff841683610ea6565b600060208284031215610fc857600080fd5b815163ffffffff81168114610d9d57600080fd5b8051600281900b8114610fee57600080fd5b919050565b6000806040838503121561100657600080fd5b61100f83610fdc565b915060208301516001600160801b038116811461102b57600080fd5b809150509250929050565b60029490940b84526001600160801b039290921660208401526001600160a01b03908116604084015216606082015260800190565b60006020828403121561107d57600080fd5b610d9d82610fdc565b81810381811115610bec57610bec610e4d56fea264697066735822122019dae3b39cccc097359dee4f5a7d8e2302a4654d1495461724cef58edbf80cfc64736f6c63430008100033",
  "deployedBytecode": "0x608060405234801561001057600080fd5b50600436106100935760003560e01c80638da5cb5b116100665780638da5cb5b1461011a578063b7f263841461012b578063bb0e70e01461013e578063d4c55a281461015e578063f2fde38b1461017157600080fd5b806341976e09146100985780635001f3b5146100be57806353997a5f146100fd578063715018a614610112575b600080fd5b6100ab6100a6366004610d80565b610184565b6040519081526020015b60405180910390f35b6100e57f000000000000000000000000000000000000000000000000000000000000000081565b6040516001600160a01b0390911681526020016100b5565b61011061010b366004610da4565b61066c565b005b61011061071f565b6000546001600160a01b03166100e5565b6100ab610139366004610d80565b610733565b6100ab61014c366004610d80565b60016020526000908152604090205481565b6100ab61016c366004610d80565b610a41565b61011061017f366004610d80565b610bf2565b6000808290506000816001600160a01b03166318160ddd6040518163ffffffff1660e01b8152600401602060405180830381865afa1580156101ca573d6000803e3d6000fd5b505050506040513d601f19601f820116820180604052508101906101ee9190610dd0565b905080600003610202575060009392505050565b6000826001600160a01b0316630dfe16816040518163ffffffff1660e01b8152600401602060405180830381865afa158015610242573d6000803e3d6000fd5b505050506040513d601f19601f820116820180604052508101906102669190610de9565b90506000836001600160a01b031663d21220a76040518163ffffffff1660e01b8152600401602060405180830381865afa1580156102a8573d6000803e3d6000fd5b505050506040513d601f19601f820116820180604052508101906102cc9190610de9565b905060006102d985610a41565b905060006102e686610733565b6001600160a01b03851660009081526001602052604090205490915061030d838383610c6b565b61032a57604051637114d53360e01b815260040160405180910390fd5b600080886001600160a01b031663c4a7761e6040518163ffffffff1660e01b81526004016040805180830381865afa15801561036a573d6000803e3d6000fd5b505050506040513d601f19601f8201168201806040525081019061038e9190610e06565b6040516341976e0960e01b81526001600160a01b038a811660048301529294509092506000917f000000000000000000000000000000000000000000000000000000000000000016906341976e09906024016020604051808303816000875af11580156103ff573d6000803e3d6000fd5b505050506040513d601f19601f820116820180604052508101906104239190610dd0565b6040516341976e0960e01b81526001600160a01b0389811660048301529192506000917f000000000000000000000000000000000000000000000000000000000000000016906341976e09906024016020604051808303816000875af1158015610491573d6000803e3d6000fd5b505050506040513d601f19601f820116820180604052508101906104b59190610dd0565b90506000896001600160a01b031663313ce5676040518163ffffffff1660e01b8152600401602060405180830381865afa1580156104f7573d6000803e3d6000fd5b505050506040513d601f19601f8201168201806040525081019061051b9190610e2a565b60ff1690506000896001600160a01b031663313ce5676040518163ffffffff1660e01b8152600401602060405180830381865afa158015610560573d6000803e3d6000fd5b505050506040513d601f19601f820116820180604052508101906105849190610e2a565b60ff169050600061059682600a610f47565b6105a08588610f53565b6105aa9190610f72565b6105b584600a610f47565b6105bf878a610f53565b6105c99190610f72565b6105d39190610f94565b90508c8e6001600160a01b031663313ce5676040518163ffffffff1660e01b8152600401602060405180830381865afa158015610614573d6000803e3d6000fd5b505050506040513d601f19601f820116820180604052508101906106389190610e2a565b61064390600a610fa7565b61064d9083610f53565b6106579190610f72565b9e505050505050505050505050505050919050565b610674610cc1565b6001600160a01b03821661069b5760405163538ba4f960e01b815260040160405180910390fd5b6103e88111156106c657604051631a6b806360e21b8152600481018290526024015b60405180910390fd5b6001600160a01b03821660008181526001602052604090819020839055517fbcc48d4ac37a64aecfe6bd804bc60445843735ed2ea3a4eb2be82fd9817601b5906107139084815260200190565b60405180910390a25050565b610727610cc1565b6107316000610d1b565b565b600080826001600160a01b031663f62073266040518163ffffffff1660e01b8152600401602060405180830381865afa158015610774573d6000803e3d6000fd5b505050506040513d601f19601f820116820180604052508101906107989190610fb6565b90506202a30063ffffffff821611156107cc5760405163f5d3e54f60e01b815263ffffffff821660048201526024016106bd565b610e1063ffffffff821610156107fd57604051635cab37cb60e11b815263ffffffff821660048201526024016106bd565b600073__$50975bd21082d4b196a7c644d5cf6229e7$__6382413489856001600160a01b03166316f0115b6040518163ffffffff1660e01b8152600401602060405180830381865afa158015610857573d6000803e3d6000fd5b505050506040513d601f19601f8201168201806040525081019061087b9190610de9565b6040516001600160e01b031960e084901b1681526001600160a01b03909116600482015263ffffffff851660248201526044016040805180830381865af41580156108ca573d6000803e3d6000fd5b505050506040513d601f19601f820116820180604052508101906108ee9190610ff3565b50905073__$50975bd21082d4b196a7c644d5cf6229e7$__6343c57a2782670de0b6b3a7640000876001600160a01b0316630dfe16816040518163ffffffff1660e01b8152600401602060405180830381865afa158015610953573d6000803e3d6000fd5b505050506040513d601f19601f820116820180604052508101906109779190610de9565b886001600160a01b031663d21220a76040518163ffffffff1660e01b8152600401602060405180830381865afa1580156109b5573d6000803e3d6000fd5b505050506040513d601f19601f820116820180604052508101906109d99190610de9565b6040518563ffffffff1660e01b81526004016109f89493929190611036565b602060405180830381865af4158015610a15573d6000803e3d6000fd5b505050506040513d601f19601f82011682018060405250810190610a399190610dd0565b949350505050565b600073__$50975bd21082d4b196a7c644d5cf6229e7$__6343c57a27836001600160a01b031663065e53606040518163ffffffff1660e01b8152600401602060405180830381865afa158015610a9b573d6000803e3d6000fd5b505050506040513d601f19601f82011682018060405250810190610abf919061106b565b670de0b6b3a7640000856001600160a01b0316630dfe16816040518163ffffffff1660e01b8152600401602060405180830381865afa158015610b06573d6000803e3d6000fd5b505050506040513d601f19601f82011682018060405250810190610b2a9190610de9565b866001600160a01b031663d21220a76040518163ffffffff1660e01b8152600401602060405180830381865afa158015610b68573d6000803e3d6000fd5b505050506040513d601f19601f82011682018060405250810190610b8c9190610de9565b6040518563ffffffff1660e01b8152600401610bab9493929190611036565b602060405180830381865af4158015610bc8573d6000803e3d6000fd5b505050506040513d601f19601f82011682018060405250810190610bec9190610dd0565b92915050565b610bfa610cc1565b6001600160a01b038116610c5f5760405162461bcd60e51b815260206004820152602660248201527f4f776e61626c653a206e6577206f776e657220697320746865207a65726f206160448201526564647265737360d01b60648201526084016106bd565b610c6881610d1b565b50565b600080838511610c7b5783610c7d565b845b90506000848611610c8e5785610c90565b845b90508382612710610ca18483611086565b610cab9190610f53565b610cb59190610f72565b11159695505050505050565b6000546001600160a01b031633146107315760405162461bcd60e51b815260206004820181905260248201527f4f776e61626c653a2063616c6c6572206973206e6f7420746865206f776e657260448201526064016106bd565b600080546001600160a01b038381166001600160a01b0319831681178455604051919092169283917f8be0079c531659141344cd1fd0a4f28419497f9722a3daafe3b4186f6b6457e09190a35050565b6001600160a01b0381168114610c6857600080fd5b600060208284031215610d9257600080fd5b8135610d9d81610d6b565b9392505050565b60008060408385031215610db757600080fd5b8235610dc281610d6b565b946020939093013593505050565b600060208284031215610de257600080fd5b5051919050565b600060208284031215610dfb57600080fd5b8151610d9d81610d6b565b60008060408385031215610e1957600080fd5b505080516020909101519092909150565b600060208284031215610e3c57600080fd5b815160ff81168114610d9d57600080fd5b634e487b7160e01b600052601160045260246000fd5b600181815b80851115610e9e578160001904821115610e8457610e84610e4d565b80851615610e9157918102915b93841c9390800290610e68565b509250929050565b600082610eb557506001610bec565b81610ec257506000610bec565b8160018114610ed85760028114610ee257610efe565b6001915050610bec565b60ff841115610ef357610ef3610e4d565b50506001821b610bec565b5060208310610133831016604e8410600b8410161715610f21575081810a610bec565b610f2b8383610e63565b8060001904821115610f3f57610f3f610e4d565b029392505050565b6000610d9d8383610ea6565b6000816000190483118215151615610f6d57610f6d610e4d565b500290565b600082610f8f57634e487b7160e01b600052601260045260246000fd5b500490565b80820180821115610bec57610bec610e4d565b6000610d9d60ff841683610ea6565b600060208284031215610fc857600080fd5b815163ffffffff81168114610d9d57600080fd5b8051600281900b8114610fee57600080fd5b919050565b6000806040838503121561100657600080fd5b61100f83610fdc565b915060208301516001600160801b038116811461102b57600080fd5b809150509250929050565b60029490940b84526001600160801b039290921660208401526001600160a01b03908116604084015216606082015260800190565b60006020828403121561107d57600080fd5b610d9d82610fdc565b81810381811115610bec57610bec610e4d56fea264697066735822122019dae3b39cccc097359dee4f5a7d8e2302a4654d1495461724cef58edbf80cfc64736f6c63430008100033",
  "libraries": {
    "UniV3WrappedLibContainer": "0xbedac0aadbf32514eB67c233C9b365513741B266"
  },
  "devdoc": {
    "author": "BlueberryProtocol",
    "details": "The logic of this oracle is using legacy & traditional mathematics of Uniswap V2 Lp Oracle.      Base token prices are fetched from Chainlink or Band Protocol.      To prevent flashloan price manipulations, it compares spot & twap prices from Uni V3 Pool.",
    "events": {
      "SetPriceDeviation(address,uint256)": {
        "params": {
          "maxPriceDeviation": "The new maximum price deviation (in 1e18 format).",
          "token": "The address of the token."
        }
      }
    },
    "kind": "dev",
    "methods": {
      "constructor": {
        "params": {
          "_base": "The base oracle instance."
        }
      },
      "getPrice(address)": {
        "params": {
          "token": "The vault token to get the price of."
        },
        "returns": {
          "_0": "price USD price of token in 18 decimal"
        }
      },
      "owner()": {
        "details": "Returns the address of the current owner."
      },
      "renounceOwnership()": {
        "details": "Leaves the contract without owner. It will not be possible to call `onlyOwner` functions anymore. Can only be called by the current owner. NOTE: Renouncing ownership will leave the contract without an owner, thereby removing any functionality that is only available to the owner."
      },
      "setPriceDeviation(address,uint256)": {
        "details": "Input token is the underlying token of ICHI Vaults which is token0 or token1 of Uni V3 Pool",
        "params": {
          "maxPriceDeviation": "Max price deviation (in 1e18) of price feeds",
          "token": "Token to price deviation"
        }
      },
      "spotPrice0InToken1(address)": {
        "details": "Returns token0 price of 1e18 amount",
        "params": {
          "vault": "ICHI Vault address"
        },
        "returns": {
          "_0": "price spot price of token0 quoted in token1"
        }
      },
      "transferOwnership(address)": {
        "details": "Transfers ownership of the contract to a new account (`newOwner`). Can only be called by the current owner."
      },
      "twapPrice0InToken1(address)": {
        "details": "Returns token0 price of 1e18 amount",
        "params": {
          "vault": "ICHI Vault address"
        },
        "returns": {
          "_0": "price spot price of token0 quoted in token1"
        }
      }
    },
    "title": "Ichi Vault Oracle",
    "version": 1
  },
  "userdoc": {
    "errors": {
      "EXCEED_DEVIATION()": [
        {
          "notice": "Thrown when the deviation value exceeds the threshold."
        }
      ],
      "OUT_OF_DEVIATION_CAP(uint256)": [
        {
          "notice": "Thrown when the price deviation exceeds allowed limits."
        }
      ],
      "TOO_LONG_DELAY(uint256)": [
        {
          "notice": "Thrown when the delay time exceeds allowed limits."
        }
      ],
      "TOO_LOW_MEAN(uint256)": [
        {
          "notice": "Thrown when the mean price is below the acceptable threshold."
        }
      ],
      "ZERO_ADDRESS()": [
        {
          "notice": "Thrown when the address provided is the zero address."
        }
      ]
    },
    "events": {
      "SetPriceDeviation(address,uint256)": {
        "notice": "Event emitted when the maximum price deviation for a token is set or updated."
      }
    },
    "kind": "user",
    "methods": {
      "constructor": {
        "notice": "Constructs a new instance of the contract."
      },
      "getPrice(address)": {
        "notice": "Return vault token price in USD, with 18 decimals of precision."
      },
      "maxPriceDeviations(address)": {
        "notice": "Mapping to keep track of the maximum price deviation allowed for each token"
      },
      "setPriceDeviation(address,uint256)": {
        "notice": "Set price deviations for given token"
      },
      "spotPrice0InToken1(address)": {
        "notice": "Get token0 spot price quoted in token1"
      },
      "twapPrice0InToken1(address)": {
        "notice": "Get token0 twap price quoted in token1"
      }
    },
    "notice": "Oracle contract provides price feeds of Ichi Vault tokens",
    "version": 1
  },
  "storageLayout": {
    "storage": [
      {
        "astId": 3374,
        "contract": "contracts/oracle/IchiVaultOracle.sol:IchiVaultOracle",
        "label": "_owner",
        "offset": 0,
        "slot": "0",
        "type": "t_address"
      },
      {
        "astId": 28464,
        "contract": "contracts/oracle/IchiVaultOracle.sol:IchiVaultOracle",
        "label": "maxPriceDeviations",
        "offset": 0,
        "slot": "1",
        "type": "t_mapping(t_address,t_uint256)"
      }
    ],
    "types": {
      "t_address": {
        "encoding": "inplace",
        "label": "address",
        "numberOfBytes": "20"
      },
      "t_mapping(t_address,t_uint256)": {
        "encoding": "mapping",
        "key": "t_address",
        "label": "mapping(address => uint256)",
        "numberOfBytes": "32",
        "value": "t_uint256"
      },
      "t_uint256": {
        "encoding": "inplace",
        "label": "uint256",
        "numberOfBytes": "32"
      }
    }
  }
}