{
  "address": "0x0aeB49D6A428926b70be378a7F89E42dfc72f905",
  "abi": [
    {
      "inputs": [],
      "name": "INPUT_ARRAY_MISMATCH",
      "type": "error"
    },
    {
      "anonymous": false,
      "inputs": [
        {
          "indexed": true,
          "internalType": "address",
          "name": "previousOwner",
          "type": "address"
        },
        {
          "indexed": true,
          "internalType": "address",
          "name": "newOwner",
          "type": "address"
        }
      ],
      "name": "OwnershipTransferred",
      "type": "event"
    },
    {
      "anonymous": false,
      "inputs": [
        {
          "indexed": false,
          "internalType": "address",
          "name": "token",
          "type": "address"
        },
        {
          "indexed": false,
          "internalType": "uint256",
          "name": "px",
          "type": "uint256"
        }
      ],
      "name": "SetPrice",
      "type": "event"
    },
    {
      "inputs": [
        {
          "internalType": "address",
          "name": "token",
          "type": "address"
        }
      ],
      "name": "getPrice",
      "outputs": [
        {
          "internalType": "uint256",
          "name": "",
          "type": "uint256"
        }
      ],
      "stateMutability": "nonpayable",
      "type": "function"
    },
    {
      "inputs": [],
      "name": "owner",
      "outputs": [
        {
          "internalType": "address",
          "name": "",
          "type": "address"
        }
      ],
      "stateMutability": "view",
      "type": "function"
    },
    {
      "inputs": [
        {
          "internalType": "address",
          "name": "",
          "type": "address"
        }
      ],
      "name": "prices",
      "outputs": [
        {
          "internalType": "uint256",
          "name": "",
          "type": "uint256"
        }
      ],
      "stateMutability": "view",
      "type": "function"
    },
    {
      "inputs": [],
      "name": "renounceOwnership",
      "outputs": [],
      "stateMutability": "nonpayable",
      "type": "function"
    },
    {
      "inputs": [
        {
          "internalType": "address[]",
          "name": "tokens",
          "type": "address[]"
        },
        {
          "internalType": "uint256[]",
          "name": "pxs",
          "type": "uint256[]"
        }
      ],
      "name": "setPrice",
      "outputs": [],
      "stateMutability": "nonpayable",
      "type": "function"
    },
    {
      "inputs": [
        {
          "internalType": "address",
          "name": "newOwner",
          "type": "address"
        }
      ],
      "name": "transferOwnership",
      "outputs": [],
      "stateMutability": "nonpayable",
      "type": "function"
    }
  ],
  "transactionHash": "0x3ca386638379171010cb27dd41667b812135e5e52d6d9c172a93ac0759b26cd2",
  "args": [],
  "numDeployments": 1,
  "solcInputHash": "40a5e959dbaee40ef6eeed84d8383760",
  "bytecode": "0x608060405234801561001057600080fd5b5061001a3361001f565b61006f565b600080546001600160a01b038381166001600160a01b0319831681178455604051919092169283917f8be0079c531659141344cd1fd0a4f28419497f9722a3daafe3b4186f6b6457e09190a35050565b6105b98061007e6000396000f3fe608060405234801561001057600080fd5b50600436106100625760003560e01c806341976e0914610067578063715018a6146100a35780638da5cb5b146100ad578063cfed246b146100c8578063d441987d146100e8578063f2fde38b146100fb575b600080fd5b61009061007536600461038e565b6001600160a01b031660009081526001602052604090205490565b6040519081526020015b60405180910390f35b6100ab61010e565b005b6000546040516001600160a01b03909116815260200161009a565b6100906100d636600461038e565b60016020526000908152604090205481565b6100ab6100f6366004610486565b610122565b6100ab61010936600461038e565b61024a565b6101166102c8565b6101206000610322565b565b61012a6102c8565b805182511461014c5760405163025e650f60e01b815260040160405180910390fd5b60005b82518110156102455781818151811061016a5761016a610546565b60200260200101516001600085848151811061018857610188610546565b60200260200101516001600160a01b03166001600160a01b03168152602001908152602001600020819055507f95dce27040c59c8b1c445b284f81a3aaae6eecd7d08d5c7684faee64cdb514a18382815181106101e7576101e7610546565b602002602001015183838151811061020157610201610546565b602002602001015160405161022b9291906001600160a01b03929092168252602082015260400190565b60405180910390a18061023d8161055c565b91505061014f565b505050565b6102526102c8565b6001600160a01b0381166102bc5760405162461bcd60e51b815260206004820152602660248201527f4f776e61626c653a206e6577206f776e657220697320746865207a65726f206160448201526564647265737360d01b60648201526084015b60405180910390fd5b6102c581610322565b50565b6000546001600160a01b031633146101205760405162461bcd60e51b815260206004820181905260248201527f4f776e61626c653a2063616c6c6572206973206e6f7420746865206f776e657260448201526064016102b3565b600080546001600160a01b038381166001600160a01b0319831681178455604051919092169283917f8be0079c531659141344cd1fd0a4f28419497f9722a3daafe3b4186f6b6457e09190a35050565b80356001600160a01b038116811461038957600080fd5b919050565b6000602082840312156103a057600080fd5b6103a982610372565b9392505050565b634e487b7160e01b600052604160045260246000fd5b604051601f8201601f1916810167ffffffffffffffff811182821017156103ef576103ef6103b0565b604052919050565b600067ffffffffffffffff821115610411576104116103b0565b5060051b60200190565b600082601f83011261042c57600080fd5b8135602061044161043c836103f7565b6103c6565b82815260059290921b8401810191818101908684111561046057600080fd5b8286015b8481101561047b5780358352918301918301610464565b509695505050505050565b6000806040838503121561049957600080fd5b823567ffffffffffffffff808211156104b157600080fd5b818501915085601f8301126104c557600080fd5b813560206104d561043c836103f7565b82815260059290921b840181019181810190898411156104f457600080fd5b948201945b838610156105195761050a86610372565b825294820194908201906104f9565b9650508601359250508082111561052f57600080fd5b5061053c8582860161041b565b9150509250929050565b634e487b7160e01b600052603260045260246000fd5b60006001820161057c57634e487b7160e01b600052601160045260246000fd5b506001019056fea264697066735822122076301f036a9c4fb3aa04067bfd8f0fc273c08fe97a97bd9f5d91f32f140393e664736f6c63430008100033",
  "devdoc": {
    "kind": "dev",
    "methods": {
      "getPrice(address)": {
        "details": "Return the USD based price of the given input, multiplied by 10**18.",
        "params": {
          "token": "The ERC-20 token to check the value."
        }
      },
      "owner()": {
        "details": "Returns the address of the current owner."
      },
      "renounceOwnership()": {
        "details": "Leaves the contract without owner. It will not be possible to call `onlyOwner` functions anymore. Can only be called by the current owner. NOTE: Renouncing ownership will leave the contract without an owner, thereby removing any functionality that is only available to the owner."
      },
      "setPrice(address[],uint256[])": {
        "details": "Set the prices of the given token addresses.",
        "params": {
          "pxs": "The price data points, representing token value in USD, based 1e18.",
          "tokens": "The token addresses to set the prices."
        }
      },
      "transferOwnership(address)": {
        "details": "Transfers ownership of the contract to a new account (`newOwner`). Can only be called by the current owner."
      }
    },
    "version": 1
  },
  "userdoc": {
    "errors": {
      "INPUT_ARRAY_MISMATCH()": [
        {
          "notice": "Thrown when the lengths of input arrays do not match."
        }
      ]
    },
    "events": {
      "SetPrice(address,uint256)": {
        "notice": "The governor sets oracle price for a token."
      }
    },
    "kind": "user",
    "methods": {},
    "version": 1
  },
  "storageLayout": {
    "storage": [
      {
        "astId": 3374,
        "contract": "contracts/mock/MockOracle.sol:MockOracle",
        "label": "_owner",
        "offset": 0,
        "slot": "0",
        "type": "t_address"
      },
      {
        "astId": 23954,
        "contract": "contracts/mock/MockOracle.sol:MockOracle",
        "label": "prices",
        "offset": 0,
        "slot": "1",
        "type": "t_mapping(t_address,t_uint256)"
      }
    ],
    "types": {
      "t_address": {
        "encoding": "inplace",
        "label": "address",
        "numberOfBytes": "20"
      },
      "t_mapping(t_address,t_uint256)": {
        "encoding": "mapping",
        "key": "t_address",
        "label": "mapping(address => uint256)",
        "numberOfBytes": "32",
        "value": "t_uint256"
      },
      "t_uint256": {
        "encoding": "inplace",
        "label": "uint256",
        "numberOfBytes": "32"
      }
    }
  }
}