{
  "address": "0x7221519F3C5374a61E882a917780a74E29e1E777",
  "abi": [
    {
      "inputs": [],
      "stateMutability": "nonpayable",
      "type": "constructor"
    },
    {
      "inputs": [],
      "name": "FEE_WINDOW_ALREADY_STARTED",
      "type": "error"
    },
    {
      "inputs": [
        {
          "internalType": "uint256",
          "name": "windowTime",
          "type": "uint256"
        }
      ],
      "name": "FEE_WINDOW_TOO_LONG",
      "type": "error"
    },
    {
      "inputs": [],
      "name": "INVALID_FEE_DISTRIBUTION",
      "type": "error"
    },
    {
      "inputs": [
        {
          "internalType": "uint256",
          "name": "ratio",
          "type": "uint256"
        }
      ],
      "name": "RATIO_TOO_HIGH",
      "type": "error"
    },
    {
      "inputs": [],
      "name": "ZERO_ADDRESS",
      "type": "error"
    },
    {
      "anonymous": false,
      "inputs": [
        {
          "indexed": false,
          "internalType": "uint8",
          "name": "version",
          "type": "uint8"
        }
      ],
      "name": "Initialized",
      "type": "event"
    },
    {
      "anonymous": false,
      "inputs": [
        {
          "indexed": true,
          "internalType": "address",
          "name": "previousOwner",
          "type": "address"
        },
        {
          "indexed": true,
          "internalType": "address",
          "name": "newOwner",
          "type": "address"
        }
      ],
      "name": "OwnershipTransferred",
      "type": "event"
    },
    {
      "inputs": [],
      "name": "blbIchiVaultFeeRate",
      "outputs": [
        {
          "internalType": "uint256",
          "name": "",
          "type": "uint256"
        }
      ],
      "stateMutability": "view",
      "type": "function"
    },
    {
      "inputs": [],
      "name": "blbStabilityPool",
      "outputs": [
        {
          "internalType": "address",
          "name": "",
          "type": "address"
        }
      ],
      "stateMutability": "view",
      "type": "function"
    },
    {
      "inputs": [],
      "name": "blbStablePoolFeeRate",
      "outputs": [
        {
          "internalType": "uint256",
          "name": "",
          "type": "uint256"
        }
      ],
      "stateMutability": "view",
      "type": "function"
    },
    {
      "inputs": [],
      "name": "blbUsdcIchiVault",
      "outputs": [
        {
          "internalType": "address",
          "name": "",
          "type": "address"
        }
      ],
      "stateMutability": "view",
      "type": "function"
    },
    {
      "inputs": [],
      "name": "depositFee",
      "outputs": [
        {
          "internalType": "uint256",
          "name": "",
          "type": "uint256"
        }
      ],
      "stateMutability": "view",
      "type": "function"
    },
    {
      "inputs": [],
      "name": "feeManager",
      "outputs": [
        {
          "internalType": "contract IFeeManager",
          "name": "",
          "type": "address"
        }
      ],
      "stateMutability": "view",
      "type": "function"
    },
    {
      "inputs": [
        {
          "internalType": "address",
          "name": "treasury_",
          "type": "address"
        }
      ],
      "name": "initialize",
      "outputs": [],
      "stateMutability": "nonpayable",
      "type": "function"
    },
    {
      "inputs": [],
      "name": "owner",
      "outputs": [
        {
          "internalType": "address",
          "name": "",
          "type": "address"
        }
      ],
      "stateMutability": "view",
      "type": "function"
    },
    {
      "inputs": [],
      "name": "renounceOwnership",
      "outputs": [],
      "stateMutability": "nonpayable",
      "type": "function"
    },
    {
      "inputs": [],
      "name": "rewardFee",
      "outputs": [
        {
          "internalType": "uint256",
          "name": "",
          "type": "uint256"
        }
      ],
      "stateMutability": "view",
      "type": "function"
    },
    {
      "inputs": [
        {
          "internalType": "address",
          "name": "pool_",
          "type": "address"
        }
      ],
      "name": "setBlbStabilityPool",
      "outputs": [],
      "stateMutability": "nonpayable",
      "type": "function"
    },
    {
      "inputs": [
        {
          "internalType": "address",
          "name": "vault_",
          "type": "address"
        }
      ],
      "name": "setBlbUsdcIchiVault",
      "outputs": [],
      "stateMutability": "nonpayable",
      "type": "function"
    },
    {
      "inputs": [
        {
          "internalType": "uint256",
          "name": "depositFee_",
          "type": "uint256"
        }
      ],
      "name": "setDepositFee",
      "outputs": [],
      "stateMutability": "nonpayable",
      "type": "function"
    },
    {
      "inputs": [
        {
          "internalType": "uint256",
          "name": "treasuryFeeRate_",
          "type": "uint256"
        },
        {
          "internalType": "uint256",
          "name": "blbStablePoolFeeRate_",
          "type": "uint256"
        },
        {
          "internalType": "uint256",
          "name": "blbIchiVaultFeeRate_",
          "type": "uint256"
        }
      ],
      "name": "setFeeDistribution",
      "outputs": [],
      "stateMutability": "nonpayable",
      "type": "function"
    },
    {
      "inputs": [
        {
          "internalType": "address",
          "name": "feeManager_",
          "type": "address"
        }
      ],
      "name": "setFeeManager",
      "outputs": [],
      "stateMutability": "nonpayable",
      "type": "function"
    },
    {
      "inputs": [
        {
          "internalType": "uint256",
          "name": "rewardFee_",
          "type": "uint256"
        }
      ],
      "name": "setRewardFee",
      "outputs": [],
      "stateMutability": "nonpayable",
      "type": "function"
    },
    {
      "inputs": [
        {
          "internalType": "address",
          "name": "treasury_",
          "type": "address"
        }
      ],
      "name": "setTreasuryWallet",
      "outputs": [],
      "stateMutability": "nonpayable",
      "type": "function"
    },
    {
      "inputs": [
        {
          "internalType": "uint256",
          "name": "withdrawFee_",
          "type": "uint256"
        }
      ],
      "name": "setWithdrawFee",
      "outputs": [],
      "stateMutability": "nonpayable",
      "type": "function"
    },
    {
      "inputs": [
        {
          "internalType": "uint256",
          "name": "withdrawVaultFeeWindow_",
          "type": "uint256"
        }
      ],
      "name": "setWithdrawVaultFeeWindow",
      "outputs": [],
      "stateMutability": "nonpayable",
      "type": "function"
    },
    {
      "inputs": [],
      "name": "startVaultWithdrawFee",
      "outputs": [],
      "stateMutability": "nonpayable",
      "type": "function"
    },
    {
      "inputs": [
        {
          "internalType": "address",
          "name": "newOwner",
          "type": "address"
        }
      ],
      "name": "transferOwnership",
      "outputs": [],
      "stateMutability": "nonpayable",
      "type": "function"
    },
    {
      "inputs": [],
      "name": "treasury",
      "outputs": [
        {
          "internalType": "address",
          "name": "",
          "type": "address"
        }
      ],
      "stateMutability": "view",
      "type": "function"
    },
    {
      "inputs": [],
      "name": "treasuryFeeRate",
      "outputs": [
        {
          "internalType": "uint256",
          "name": "",
          "type": "uint256"
        }
      ],
      "stateMutability": "view",
      "type": "function"
    },
    {
      "inputs": [],
      "name": "withdrawFee",
      "outputs": [
        {
          "internalType": "uint256",
          "name": "",
          "type": "uint256"
        }
      ],
      "stateMutability": "view",
      "type": "function"
    },
    {
      "inputs": [],
      "name": "withdrawVaultFee",
      "outputs": [
        {
          "internalType": "uint256",
          "name": "",
          "type": "uint256"
        }
      ],
      "stateMutability": "view",
      "type": "function"
    },
    {
      "inputs": [],
      "name": "withdrawVaultFeeWindow",
      "outputs": [
        {
          "internalType": "uint256",
          "name": "",
          "type": "uint256"
        }
      ],
      "stateMutability": "view",
      "type": "function"
    },
    {
      "inputs": [],
      "name": "withdrawVaultFeeWindowStartTime",
      "outputs": [
        {
          "internalType": "uint256",
          "name": "",
          "type": "uint256"
        }
      ],
      "stateMutability": "view",
      "type": "function"
    }
  ],
  "transactionHash": "0xa095b48a37f056a03eef675eece88535e5c18139bc8602b50e23035db709a0a2",
  "args": [],
  "numDeployments": 1,
  "solcInputHash": "40a5e959dbaee40ef6eeed84d8383760",
  "bytecode": "0x608060405234801561001057600080fd5b5061001961001e565b6100de565b600054610100900460ff161561008a5760405162461bcd60e51b815260206004820152602760248201527f496e697469616c697a61626c653a20636f6e747261637420697320696e697469604482015266616c697a696e6760c81b606482015260840160405180910390fd5b60005460ff90811610156100dc576000805460ff191660ff9081179091556040519081527f7f26b83ff96e1f2b6a682f133852f6798a09c465da95921460cefb38474024989060200160405180910390a15b565b610a2c806100ed6000396000f3fe608060405234801561001057600080fd5b50600436106101a95760003560e01c806374ff36f7116100f9578063ba8e568f11610097578063e941fa7811610071578063e941fa7814610328578063ec670aa614610331578063f2fde38b14610344578063fbe5db361461035757600080fd5b8063ba8e568f146102ef578063c4d66de814610302578063d0fb02031461031557600080fd5b80639151dfe3116100d35780639151dfe3146102ae57806393f4dc19146102b6578063a8602fea146102c9578063b6ac642a146102dc57600080fd5b806374ff36f71461028b5780638b424267146102945780638da5cb5b1461029d57600080fd5b80635321f12c116101665780636660103211610140578063666010321461026857806367a5279314610271578063715018a61461027a57806371df5a8d1461028257600080fd5b80635321f12c1461023957806361d027b3146102425780636447ceac1461025557600080fd5b806304592e1e146101ae578063088203e6146101de57806312d2f841146101f557806341a2ac70146101fe578063472d35b914610213578063490ae21014610226575b600080fd5b6071546101c1906001600160a01b031681565b6040516001600160a01b0390911681526020015b60405180910390f35b6101e7606b5481565b6040519081526020016101d5565b6101e7606a5481565b61021161020c36600461090f565b61036a565b005b610211610221366004610928565b6103a2565b61021161023436600461090f565b6103f3565b6101e7606e5481565b606f546101c1906001600160a01b031681565b610211610263366004610928565b610426565b6101e7606c5481565b6101e760665481565b610211610477565b6101e7606d5481565b6101e760695481565b6101e760685481565b6033546001600160a01b03166101c1565b61021161048b565b6102116102c4366004610928565b6104ba565b6102116102d7366004610928565b61050b565b6102116102ea36600461090f565b61055c565b6102116102fd366004610958565b61058f565b610211610310366004610928565b6105db565b6065546101c1906001600160a01b031681565b6101e760675481565b61021161033f36600461090f565b61075c565b610211610352366004610928565b610790565b6070546101c1906001600160a01b031681565b610372610809565b6107d081111561039d57604051630216804b60e61b8152600481018290526024015b60405180910390fd5b606855565b6103aa610809565b6001600160a01b0381166103d15760405163538ba4f960e01b815260040160405180910390fd5b606580546001600160a01b0319166001600160a01b0392909216919091179055565b6103fb610809565b6107d081111561042157604051630216804b60e61b815260048101829052602401610394565b606655565b61042e610809565b6001600160a01b0381166104555760405163538ba4f960e01b815260040160405180910390fd5b607080546001600160a01b0319166001600160a01b0392909216919091179055565b61047f610809565b6104896000610863565b565b610493610809565b606b54156104b4576040516320fa6a5760e01b815260040160405180910390fd5b42606b55565b6104c2610809565b6001600160a01b0381166104e95760405163538ba4f960e01b815260040160405180910390fd5b607180546001600160a01b0319166001600160a01b0392909216919091179055565b610513610809565b6001600160a01b03811661053a5760405163538ba4f960e01b815260040160405180910390fd5b606f80546001600160a01b0319166001600160a01b0392909216919091179055565b610564610809565b6107d081111561058a57604051630216804b60e61b815260048101829052602401610394565b606755565b610597610809565b612710816105a58486610984565b6105af9190610984565b146105cd57604051630e5bed8960e11b815260040160405180910390fd5b606c92909255606d55606e55565b600054610100900460ff16158080156105fb5750600054600160ff909116105b806106155750303b158015610615575060005460ff166001145b6106785760405162461bcd60e51b815260206004820152602e60248201527f496e697469616c697a61626c653a20636f6e747261637420697320616c72656160448201526d191e481a5b9a5d1a585b1a5e995960921b6064820152608401610394565b6000805460ff19166001179055801561069b576000805461ff0019166101001790555b6106a36108b5565b6001600160a01b0382166106ca5760405163538ba4f960e01b815260040160405180910390fd5b606f80546001600160a01b0319166001600160a01b038416179055603260668190556067556103e8606855610bb8606c55610dac606d819055606e556064606955624f1a00606a558015610758576000805461ff0019169055604051600181527f7f26b83ff96e1f2b6a682f133852f6798a09c465da95921460cefb38474024989060200160405180910390a15b5050565b610764610809565b624f1a0081111561078b57604051633831c9dd60e21b815260048101829052602401610394565b606a55565b610798610809565b6001600160a01b0381166107fd5760405162461bcd60e51b815260206004820152602660248201527f4f776e61626c653a206e6577206f776e657220697320746865207a65726f206160448201526564647265737360d01b6064820152608401610394565b61080681610863565b50565b6033546001600160a01b031633146104895760405162461bcd60e51b815260206004820181905260248201527f4f776e61626c653a2063616c6c6572206973206e6f7420746865206f776e65726044820152606401610394565b603380546001600160a01b038381166001600160a01b0319831681179093556040519116919082907f8be0079c531659141344cd1fd0a4f28419497f9722a3daafe3b4186f6b6457e090600090a35050565b600054610100900460ff166108dc5760405162461bcd60e51b8152600401610394906109ab565b610489600054610100900460ff166109065760405162461bcd60e51b8152600401610394906109ab565b61048933610863565b60006020828403121561092157600080fd5b5035919050565b60006020828403121561093a57600080fd5b81356001600160a01b038116811461095157600080fd5b9392505050565b60008060006060848603121561096d57600080fd5b505081359360208301359350604090920135919050565b808201808211156109a557634e487b7160e01b600052601160045260246000fd5b92915050565b6020808252602b908201527f496e697469616c697a61626c653a20636f6e7472616374206973206e6f74206960408201526a6e697469616c697a696e6760a81b60608201526080019056fea264697066735822122073d6aa15185dd832b50f8477353eeb1e9aa605593a6b38d5bbdbf1edaf3709e864736f6c63430008100033",
  "devdoc": {
    "author": "BlueberryProtocol",
    "kind": "dev",
    "methods": {
      "constructor": {
        "custom:oz-upgrades-unsafe-allow": "constructor"
      },
      "initialize(address)": {
        "details": "Initializes the contract with the given treasury address.",
        "params": {
          "treasury_": "Address of the treasury."
        }
      },
      "owner()": {
        "details": "Returns the address of the current owner."
      },
      "renounceOwnership()": {
        "details": "Leaves the contract without owner. It will not be possible to call `onlyOwner` functions anymore. Can only be called by the current owner. NOTE: Renouncing ownership will leave the contract without an owner, thereby removing any functionality that is only available to the owner."
      },
      "setBlbStabilityPool(address)": {
        "details": "Owner priviledged function to set $BLB stability pool address",
        "params": {
          "pool_": "Address of the new stability pool"
        }
      },
      "setBlbUsdcIchiVault(address)": {
        "details": "Owner priviledged function to set $BLB-ICHI vault address",
        "params": {
          "vault_": "Address of the new vault"
        }
      },
      "setDepositFee(uint256)": {
        "details": "Owner priviledged function to set deposit fee",
        "params": {
          "depositFee_": "Fee rate applied to the deposit"
        }
      },
      "setFeeDistribution(uint256,uint256,uint256)": {
        "details": "Owner priviledged function to set the distribution rates for the various fees",
        "params": {
          "blbIchiVaultFeeRate_": "Fee rate applied to the $BLB-ICHI vault",
          "blbStablePoolFeeRate_": "Fee rate applied to the $BLB liquidity pool",
          "treasuryFeeRate_": "Fee rate sent to treasury"
        }
      },
      "setFeeManager(address)": {
        "details": "Owner priviledged function to set fee manager address",
        "params": {
          "feeManager_": "Address of the new fee manager"
        }
      },
      "setRewardFee(uint256)": {
        "details": "Owner priviledged function to set reward fee",
        "params": {
          "rewardFee_": "Fee rate applied to the rewards"
        }
      },
      "setTreasuryWallet(address)": {
        "details": "Owner priviledged function to set treasury address",
        "params": {
          "treasury_": "Address of the new treasury"
        }
      },
      "setWithdrawFee(uint256)": {
        "details": "Owner priviledged function to set withdraw fee",
        "params": {
          "withdrawFee_": "Fee rate applied to the withdraw"
        }
      },
      "setWithdrawVaultFeeWindow(uint256)": {
        "details": "Owner priviledged function to set withdraw vault fee window duration",
        "params": {
          "withdrawVaultFeeWindow_": "Duration of the withdraw vault fee window"
        }
      },
      "startVaultWithdrawFee()": {
        "details": "Owner priviledged function to start the withdraw vault fee window"
      },
      "transferOwnership(address)": {
        "details": "Transfers ownership of the contract to a new account (`newOwner`). Can only be called by the current owner."
      }
    },
    "stateVariables": {
      "rewardFee": {
        "return": "The reward fee rate.",
        "returns": {
          "_0": "The reward fee rate."
        }
      },
      "withdrawFee": {
        "return": "The withdrawal fee rate.",
        "returns": {
          "_0": "The withdrawal fee rate."
        }
      }
    },
    "title": "ProtocolConfig",
    "version": 1
  },
  "userdoc": {
    "errors": {
      "FEE_WINDOW_ALREADY_STARTED()": [
        {
          "notice": "Thrown when a fee window has already started."
        }
      ],
      "FEE_WINDOW_TOO_LONG(uint256)": [
        {
          "notice": "Thrown when a fee window duration is too long."
        }
      ],
      "INVALID_FEE_DISTRIBUTION()": [
        {
          "notice": "Thrown when an invalid fee distribution is detected."
        }
      ],
      "RATIO_TOO_HIGH(uint256)": [
        {
          "notice": "Thrown when a certain ratio is too high for an operation."
        }
      ],
      "ZERO_ADDRESS()": [
        {
          "notice": "Thrown when the address provided is the zero address."
        }
      ]
    },
    "kind": "user",
    "methods": {
      "blbIchiVaultFeeRate()": {
        "notice": "Portion of the fee for $BLB stablecoin pool."
      },
      "blbStabilityPool()": {
        "notice": "Address of the $BLB-USDC ICHI vault."
      },
      "blbStablePoolFeeRate()": {
        "notice": "Portion of the fee sent to the protocol's treasury."
      },
      "blbUsdcIchiVault()": {
        "notice": "Address of the protocol's treasury."
      },
      "depositFee()": {
        "notice": "Fee structures related to leveraging activities."
      },
      "feeManager()": {
        "notice": "Fee manager of the protocol to handle different types of fees."
      },
      "rewardFee()": {
        "notice": "Retrieve the reward fee rate applied when users claim rewards from the protocol."
      },
      "startVaultWithdrawFee()": {
        "notice": "This function can only be called once per vault"
      },
      "treasury()": {
        "notice": "Addresses associated with the protocol."
      },
      "treasuryFeeRate()": {
        "notice": "Fee distribution rates."
      },
      "withdrawFee()": {
        "notice": "Retrieve the withdrawal fee rate applied when users withdraw from the protocol."
      },
      "withdrawVaultFee()": {
        "notice": "Fee structures related to vault operations."
      },
      "withdrawVaultFeeWindow()": {
        "notice": "Fee applied on vault withdrawals."
      },
      "withdrawVaultFeeWindowStartTime()": {
        "notice": "Time window for which the vault withdrawal fee applies."
      }
    },
    "notice": "This contract acts as the central point of all configurable states in the Blueberry Protocol.         It holds references to fee management, various fee types and values,          treasury settings, and other system configurations.",
    "version": 1
  },
  "storageLayout": {
    "storage": [
      {
        "astId": 241,
        "contract": "contracts/ProtocolConfig.sol:ProtocolConfig",
        "label": "_initialized",
        "offset": 0,
        "slot": "0",
        "type": "t_uint8"
      },
      {
        "astId": 244,
        "contract": "contracts/ProtocolConfig.sol:ProtocolConfig",
        "label": "_initializing",
        "offset": 1,
        "slot": "0",
        "type": "t_bool"
      },
      {
        "astId": 3309,
        "contract": "contracts/ProtocolConfig.sol:ProtocolConfig",
        "label": "__gap",
        "offset": 0,
        "slot": "1",
        "type": "t_array(t_uint256)50_storage"
      },
      {
        "astId": 113,
        "contract": "contracts/ProtocolConfig.sol:ProtocolConfig",
        "label": "_owner",
        "offset": 0,
        "slot": "51",
        "type": "t_address"
      },
      {
        "astId": 233,
        "contract": "contracts/ProtocolConfig.sol:ProtocolConfig",
        "label": "__gap",
        "offset": 0,
        "slot": "52",
        "type": "t_array(t_uint256)49_storage"
      },
      {
        "astId": 12593,
        "contract": "contracts/ProtocolConfig.sol:ProtocolConfig",
        "label": "feeManager",
        "offset": 0,
        "slot": "101",
        "type": "t_contract(IFeeManager)13509"
      },
      {
        "astId": 12596,
        "contract": "contracts/ProtocolConfig.sol:ProtocolConfig",
        "label": "depositFee",
        "offset": 0,
        "slot": "102",
        "type": "t_uint256"
      },
      {
        "astId": 12598,
        "contract": "contracts/ProtocolConfig.sol:ProtocolConfig",
        "label": "withdrawFee",
        "offset": 0,
        "slot": "103",
        "type": "t_uint256"
      },
      {
        "astId": 12600,
        "contract": "contracts/ProtocolConfig.sol:ProtocolConfig",
        "label": "rewardFee",
        "offset": 0,
        "slot": "104",
        "type": "t_uint256"
      },
      {
        "astId": 12603,
        "contract": "contracts/ProtocolConfig.sol:ProtocolConfig",
        "label": "withdrawVaultFee",
        "offset": 0,
        "slot": "105",
        "type": "t_uint256"
      },
      {
        "astId": 12606,
        "contract": "contracts/ProtocolConfig.sol:ProtocolConfig",
        "label": "withdrawVaultFeeWindow",
        "offset": 0,
        "slot": "106",
        "type": "t_uint256"
      },
      {
        "astId": 12609,
        "contract": "contracts/ProtocolConfig.sol:ProtocolConfig",
        "label": "withdrawVaultFeeWindowStartTime",
        "offset": 0,
        "slot": "107",
        "type": "t_uint256"
      },
      {
        "astId": 12612,
        "contract": "contracts/ProtocolConfig.sol:ProtocolConfig",
        "label": "treasuryFeeRate",
        "offset": 0,
        "slot": "108",
        "type": "t_uint256"
      },
      {
        "astId": 12615,
        "contract": "contracts/ProtocolConfig.sol:ProtocolConfig",
        "label": "blbStablePoolFeeRate",
        "offset": 0,
        "slot": "109",
        "type": "t_uint256"
      },
      {
        "astId": 12618,
        "contract": "contracts/ProtocolConfig.sol:ProtocolConfig",
        "label": "blbIchiVaultFeeRate",
        "offset": 0,
        "slot": "110",
        "type": "t_uint256"
      },
      {
        "astId": 12621,
        "contract": "contracts/ProtocolConfig.sol:ProtocolConfig",
        "label": "treasury",
        "offset": 0,
        "slot": "111",
        "type": "t_address"
      },
      {
        "astId": 12624,
        "contract": "contracts/ProtocolConfig.sol:ProtocolConfig",
        "label": "blbUsdcIchiVault",
        "offset": 0,
        "slot": "112",
        "type": "t_address"
      },
      {
        "astId": 12627,
        "contract": "contracts/ProtocolConfig.sol:ProtocolConfig",
        "label": "blbStabilityPool",
        "offset": 0,
        "slot": "113",
        "type": "t_address"
      }
    ],
    "types": {
      "t_address": {
        "encoding": "inplace",
        "label": "address",
        "numberOfBytes": "20"
      },
      "t_array(t_uint256)49_storage": {
        "base": "t_uint256",
        "encoding": "inplace",
        "label": "uint256[49]",
        "numberOfBytes": "1568"
      },
      "t_array(t_uint256)50_storage": {
        "base": "t_uint256",
        "encoding": "inplace",
        "label": "uint256[50]",
        "numberOfBytes": "1600"
      },
      "t_bool": {
        "encoding": "inplace",
        "label": "bool",
        "numberOfBytes": "1"
      },
      "t_contract(IFeeManager)13509": {
        "encoding": "inplace",
        "label": "contract IFeeManager",
        "numberOfBytes": "20"
      },
      "t_uint256": {
        "encoding": "inplace",
        "label": "uint256",
        "numberOfBytes": "32"
      },
      "t_uint8": {
        "encoding": "inplace",
        "label": "uint8",
        "numberOfBytes": "1"
      }
    }
  }
}