{
  "address": "0xaEE8462030D77A9F55d7A89ccAcF72711Fa73AdB",
  "abi": [
    {
      "inputs": [
        {
          "internalType": "contract IBaseOracle",
          "name": "_base",
          "type": "address"
        }
      ],
      "stateMutability": "nonpayable",
      "type": "constructor"
    },
    {
      "inputs": [],
      "name": "INPUT_ARRAY_MISMATCH",
      "type": "error"
    },
    {
      "inputs": [
        {
          "internalType": "address",
          "name": "token",
          "type": "address"
        }
      ],
      "name": "NO_MEAN",
      "type": "error"
    },
    {
      "inputs": [
        {
          "internalType": "address",
          "name": "token",
          "type": "address"
        }
      ],
      "name": "NO_STABLEPOOL",
      "type": "error"
    },
    {
      "inputs": [
        {
          "internalType": "uint256",
          "name": "delayTime",
          "type": "uint256"
        }
      ],
      "name": "TOO_LONG_DELAY",
      "type": "error"
    },
    {
      "inputs": [
        {
          "internalType": "uint256",
          "name": "mean",
          "type": "uint256"
        }
      ],
      "name": "TOO_LOW_MEAN",
      "type": "error"
    },
    {
      "inputs": [],
      "name": "ZERO_ADDRESS",
      "type": "error"
    },
    {
      "anonymous": false,
      "inputs": [
        {
          "indexed": true,
          "internalType": "address",
          "name": "previousOwner",
          "type": "address"
        },
        {
          "indexed": true,
          "internalType": "address",
          "name": "newOwner",
          "type": "address"
        }
      ],
      "name": "OwnershipTransferred",
      "type": "event"
    },
    {
      "anonymous": false,
      "inputs": [
        {
          "indexed": false,
          "internalType": "address",
          "name": "token",
          "type": "address"
        },
        {
          "indexed": false,
          "internalType": "address",
          "name": "pool",
          "type": "address"
        }
      ],
      "name": "SetPoolStable",
      "type": "event"
    },
    {
      "anonymous": false,
      "inputs": [
        {
          "indexed": false,
          "internalType": "address",
          "name": "token",
          "type": "address"
        },
        {
          "indexed": false,
          "internalType": "uint256",
          "name": "gap",
          "type": "uint256"
        }
      ],
      "name": "SetTimeGap",
      "type": "event"
    },
    {
      "inputs": [],
      "name": "base",
      "outputs": [
        {
          "internalType": "contract IBaseOracle",
          "name": "",
          "type": "address"
        }
      ],
      "stateMutability": "view",
      "type": "function"
    },
    {
      "inputs": [
        {
          "internalType": "address",
          "name": "token",
          "type": "address"
        }
      ],
      "name": "getPrice",
      "outputs": [
        {
          "internalType": "uint256",
          "name": "",
          "type": "uint256"
        }
      ],
      "stateMutability": "nonpayable",
      "type": "function"
    },
    {
      "inputs": [],
      "name": "owner",
      "outputs": [
        {
          "internalType": "address",
          "name": "",
          "type": "address"
        }
      ],
      "stateMutability": "view",
      "type": "function"
    },
    {
      "inputs": [],
      "name": "renounceOwnership",
      "outputs": [],
      "stateMutability": "nonpayable",
      "type": "function"
    },
    {
      "inputs": [
        {
          "internalType": "address[]",
          "name": "tokens",
          "type": "address[]"
        },
        {
          "internalType": "address[]",
          "name": "pools",
          "type": "address[]"
        }
      ],
      "name": "setStablePools",
      "outputs": [],
      "stateMutability": "nonpayable",
      "type": "function"
    },
    {
      "inputs": [
        {
          "internalType": "address[]",
          "name": "tokens",
          "type": "address[]"
        },
        {
          "internalType": "uint256[]",
          "name": "gaps",
          "type": "uint256[]"
        }
      ],
      "name": "setTimeGap",
      "outputs": [],
      "stateMutability": "nonpayable",
      "type": "function"
    },
    {
      "inputs": [
        {
          "internalType": "address",
          "name": "",
          "type": "address"
        }
      ],
      "name": "stablePools",
      "outputs": [
        {
          "internalType": "address",
          "name": "",
          "type": "address"
        }
      ],
      "stateMutability": "view",
      "type": "function"
    },
    {
      "inputs": [
        {
          "internalType": "address",
          "name": "",
          "type": "address"
        }
      ],
      "name": "timeGaps",
      "outputs": [
        {
          "internalType": "uint256",
          "name": "",
          "type": "uint256"
        }
      ],
      "stateMutability": "view",
      "type": "function"
    },
    {
      "inputs": [
        {
          "internalType": "address",
          "name": "newOwner",
          "type": "address"
        }
      ],
      "name": "transferOwnership",
      "outputs": [],
      "stateMutability": "nonpayable",
      "type": "function"
    }
  ],
  "transactionHash": "0x77bc43323c5d234e54b8a767e683cebead231033c5e2b01cbcd98518d333c858",
  "args": [
    "0x504F2e3De65F12074a0a43399f307FeFfB186aCd"
  ],
  "numDeployments": 1,
  "solcInputHash": "40a5e959dbaee40ef6eeed84d8383760",
  "bytecode": "0x60a060405234801561001057600080fd5b5060405161122738038061122783398101604081905261002f9161009b565b6001600160a01b0381166080526100453361004b565b506100cb565b600080546001600160a01b038381166001600160a01b0319831681178455604051919092169283917f8be0079c531659141344cd1fd0a4f28419497f9722a3daafe3b4186f6b6457e09190a35050565b6000602082840312156100ad57600080fd5b81516001600160a01b03811681146100c457600080fd5b9392505050565b60805161113a6100ed60003960008181610104015261056a015261113a6000f3fe608060405234801561001057600080fd5b50600436106100935760003560e01c8063715018a611610066578063715018a6146101465780637547e30b146101505780638da5cb5b14610163578063d13d8a3914610174578063f2fde38b1461018757600080fd5b806308b23d921461009857806341976e09146100de5780635001f3b5146100ff57806363a17c5614610126575b600080fd5b6100c16100a6366004610e08565b6002602052600090815260409020546001600160a01b031681565b6040516001600160a01b0390911681526020015b60405180910390f35b6100f16100ec366004610e08565b61019a565b6040519081526020016100d5565b6100c17f000000000000000000000000000000000000000000000000000000000000000081565b6100f1610134366004610e08565b60016020526000908152604090205481565b61014e6105fa565b005b61014e61015e366004610e78565b61060e565b6000546001600160a01b03166100c1565b61014e610182366004610e78565b6109d9565b61014e610195366004610e08565b610bfe565b6001600160a01b03811660009081526001602052604081205481906101be90610c77565b90508063ffffffff166000036101f757604051633642055760e11b81526001600160a01b03841660048201526024015b60405180910390fd5b6001600160a01b03808416600090815260026020526040902054168061023b57604051634e3160a760e01b81526001600160a01b03851660048201526024016101ee565b6000816001600160a01b0316630dfe16816040518163ffffffff1660e01b8152600401602060405180830381865afa15801561027b573d6000803e3d6000fd5b505050506040513d601f19601f8201168201806040525081019061029f9190610ee4565b90506000826001600160a01b031663d21220a76040518163ffffffff1660e01b8152600401602060405180830381865afa1580156102e1573d6000803e3d6000fd5b505050506040513d601f19601f820116820180604052508101906103059190610ee4565b90506000866001600160a01b0316836001600160a01b031614610328578261032a565b815b90506000816001600160a01b031663313ce5676040518163ffffffff1660e01b8152600401602060405180830381865afa15801561036c573d6000803e3d6000fd5b505050506040513d601f19601f820116820180604052508101906103909190610f01565b90506000886001600160a01b031663313ce5676040518163ffffffff1660e01b8152600401602060405180830381865afa1580156103d2573d6000803e3d6000fd5b505050506040513d601f19601f820116820180604052508101906103f69190610f01565b604051638241348960e01b81526001600160a01b038816600482015263ffffffff8916602482015290915060009073bedac0aadbf32514eB67c233C9b365513741B266906382413489906044016040805180830381865af415801561045f573d6000803e3d6000fd5b505050506040513d601f19601f820116820180604052508101906104839190610f24565b509050600073bedac0aadbf32514eB67c233C9b365513741B2666343c57a27836104b66104b187600a61106c565b610ce0565b6040516001600160e01b031960e085901b16815260029290920b60048301526001600160801b031660248201526001600160a01b03808f16604483015288166064820152608401602060405180830381865af415801561051a573d6000803e3d6000fd5b505050506040513d601f19601f8201168201806040525081019061053e919061107b565b905061054b84600a61106c565b6040516341976e0960e01b81526001600160a01b0387811660048301527f000000000000000000000000000000000000000000000000000000000000000016906341976e09906024016020604051808303816000875af11580156105b3573d6000803e3d6000fd5b505050506040513d601f19601f820116820180604052508101906105d7919061107b565b6105e19083611094565b6105eb91906110b3565b9b9a5050505050505050505050565b610602610d49565b61060c6000610da3565b565b610616610d49565b8281146106365760405163025e650f60e01b815260040160405180910390fd5b60005b838110156109d2576000858583818110610655576106556110d5565b905060200201602081019061066a9190610e08565b6001600160a01b031614806106ae5750600083838381811061068e5761068e6110d5565b90506020020160208101906106a39190610e08565b6001600160a01b0316145b156106cc5760405163538ba4f960e01b815260040160405180910390fd5b8282828181106106de576106de6110d5565b90506020020160208101906106f39190610e08565b6001600160a01b0316630dfe16816040518163ffffffff1660e01b8152600401602060405180830381865afa158015610730573d6000803e3d6000fd5b505050506040513d601f19601f820116820180604052508101906107549190610ee4565b6001600160a01b031685858381811061076f5761076f6110d5565b90506020020160208101906107849190610e08565b6001600160a01b03161415801561085a57508282828181106107a8576107a86110d5565b90506020020160208101906107bd9190610e08565b6001600160a01b031663d21220a76040518163ffffffff1660e01b8152600401602060405180830381865afa1580156107fa573d6000803e3d6000fd5b505050506040513d601f19601f8201168201806040525081019061081e9190610ee4565b6001600160a01b0316858583818110610839576108396110d5565b905060200201602081019061084e9190610e08565b6001600160a01b031614155b156108ab57828282818110610871576108716110d5565b90506020020160208101906108869190610e08565b604051634e3160a760e01b81526001600160a01b0390911660048201526024016101ee565b8282828181106108bd576108bd6110d5565b90506020020160208101906108d29190610e08565b600260008787858181106108e8576108e86110d5565b90506020020160208101906108fd9190610e08565b6001600160a01b039081168252602082019290925260400160002080546001600160a01b031916929091169190911790557f3763166362772a0cb8a4c0ea91ee8d3ac227e94a6bf004f6ba87709159231087858583818110610961576109616110d5565b90506020020160208101906109769190610e08565b848484818110610988576109886110d5565b905060200201602081019061099d9190610e08565b604080516001600160a01b0393841681529290911660208301520160405180910390a1806109ca816110eb565b915050610639565b5050505050565b6109e1610d49565b828114610a015760405163025e650f60e01b815260040160405180910390fd5b60005b838110156109d2576202a300838383818110610a2257610a226110d5565b905060200201351115610a6457828282818110610a4157610a416110d5565b9050602002013560405163f5d3e54f60e01b81526004016101ee91815260200190565b610e10838383818110610a7957610a796110d5565b905060200201351015610abb57828282818110610a9857610a986110d5565b90506020020135604051635cab37cb60e11b81526004016101ee91815260200190565b6000858583818110610acf57610acf6110d5565b9050602002016020810190610ae49190610e08565b6001600160a01b031603610b0b5760405163538ba4f960e01b815260040160405180910390fd5b828282818110610b1d57610b1d6110d5565b9050602002013560016000878785818110610b3a57610b3a6110d5565b9050602002016020810190610b4f9190610e08565b6001600160a01b031681526020810191909152604001600020557fd1b3641b73e6c323671a85001b02db34d4e63a7fa6d264896138094dd6b8bfdf858583818110610b9c57610b9c6110d5565b9050602002016020810190610bb19190610e08565b848484818110610bc357610bc36110d5565b604080516001600160a01b0390951685526020918202939093013590840152500160405180910390a180610bf6816110eb565b915050610a04565b610c06610d49565b6001600160a01b038116610c6b5760405162461bcd60e51b815260206004820152602660248201527f4f776e61626c653a206e6577206f776e657220697320746865207a65726f206160448201526564647265737360d01b60648201526084016101ee565b610c7481610da3565b50565b600063ffffffff821115610cdc5760405162461bcd60e51b815260206004820152602660248201527f53616665436173743a2076616c756520646f65736e27742066697420696e203360448201526532206269747360d01b60648201526084016101ee565b5090565b60006001600160801b03821115610cdc5760405162461bcd60e51b815260206004820152602760248201527f53616665436173743a2076616c756520646f65736e27742066697420696e20316044820152663238206269747360c81b60648201526084016101ee565b6000546001600160a01b0316331461060c5760405162461bcd60e51b815260206004820181905260248201527f4f776e61626c653a2063616c6c6572206973206e6f7420746865206f776e657260448201526064016101ee565b600080546001600160a01b038381166001600160a01b0319831681178455604051919092169283917f8be0079c531659141344cd1fd0a4f28419497f9722a3daafe3b4186f6b6457e09190a35050565b6001600160a01b0381168114610c7457600080fd5b600060208284031215610e1a57600080fd5b8135610e2581610df3565b9392505050565b60008083601f840112610e3e57600080fd5b50813567ffffffffffffffff811115610e5657600080fd5b6020830191508360208260051b8501011115610e7157600080fd5b9250929050565b60008060008060408587031215610e8e57600080fd5b843567ffffffffffffffff80821115610ea657600080fd5b610eb288838901610e2c565b90965094506020870135915080821115610ecb57600080fd5b50610ed887828801610e2c565b95989497509550505050565b600060208284031215610ef657600080fd5b8151610e2581610df3565b600060208284031215610f1357600080fd5b815160ff81168114610e2557600080fd5b60008060408385031215610f3757600080fd5b82518060020b8114610f4857600080fd5b60208401519092506001600160801b0381168114610f6557600080fd5b809150509250929050565b634e487b7160e01b600052601160045260246000fd5b600181815b80851115610fc1578160001904821115610fa757610fa7610f70565b80851615610fb457918102915b93841c9390800290610f8b565b509250929050565b600082610fd857506001611066565b81610fe557506000611066565b8160018114610ffb576002811461100557611021565b6001915050611066565b60ff84111561101657611016610f70565b50506001821b611066565b5060208310610133831016604e8410600b8410161715611044575081810a611066565b61104e8383610f86565b806000190482111561106257611062610f70565b0290505b92915050565b6000610e2560ff841683610fc9565b60006020828403121561108d57600080fd5b5051919050565b60008160001904831182151516156110ae576110ae610f70565b500290565b6000826110d057634e487b7160e01b600052601260045260246000fd5b500490565b634e487b7160e01b600052603260045260246000fd5b6000600182016110fd576110fd610f70565b506001019056fea26469706673582212204bc8427efdcab360fa0072add5f145da8b065ebfad2d8ee831ba2d611177972364736f6c63430008100033",
  "deployedBytecode": "0x608060405234801561001057600080fd5b50600436106100935760003560e01c8063715018a611610066578063715018a6146101465780637547e30b146101505780638da5cb5b14610163578063d13d8a3914610174578063f2fde38b1461018757600080fd5b806308b23d921461009857806341976e09146100de5780635001f3b5146100ff57806363a17c5614610126575b600080fd5b6100c16100a6366004610e08565b6002602052600090815260409020546001600160a01b031681565b6040516001600160a01b0390911681526020015b60405180910390f35b6100f16100ec366004610e08565b61019a565b6040519081526020016100d5565b6100c17f000000000000000000000000000000000000000000000000000000000000000081565b6100f1610134366004610e08565b60016020526000908152604090205481565b61014e6105fa565b005b61014e61015e366004610e78565b61060e565b6000546001600160a01b03166100c1565b61014e610182366004610e78565b6109d9565b61014e610195366004610e08565b610bfe565b6001600160a01b03811660009081526001602052604081205481906101be90610c77565b90508063ffffffff166000036101f757604051633642055760e11b81526001600160a01b03841660048201526024015b60405180910390fd5b6001600160a01b03808416600090815260026020526040902054168061023b57604051634e3160a760e01b81526001600160a01b03851660048201526024016101ee565b6000816001600160a01b0316630dfe16816040518163ffffffff1660e01b8152600401602060405180830381865afa15801561027b573d6000803e3d6000fd5b505050506040513d601f19601f8201168201806040525081019061029f9190610ee4565b90506000826001600160a01b031663d21220a76040518163ffffffff1660e01b8152600401602060405180830381865afa1580156102e1573d6000803e3d6000fd5b505050506040513d601f19601f820116820180604052508101906103059190610ee4565b90506000866001600160a01b0316836001600160a01b031614610328578261032a565b815b90506000816001600160a01b031663313ce5676040518163ffffffff1660e01b8152600401602060405180830381865afa15801561036c573d6000803e3d6000fd5b505050506040513d601f19601f820116820180604052508101906103909190610f01565b90506000886001600160a01b031663313ce5676040518163ffffffff1660e01b8152600401602060405180830381865afa1580156103d2573d6000803e3d6000fd5b505050506040513d601f19601f820116820180604052508101906103f69190610f01565b604051638241348960e01b81526001600160a01b038816600482015263ffffffff8916602482015290915060009073__$50975bd21082d4b196a7c644d5cf6229e7$__906382413489906044016040805180830381865af415801561045f573d6000803e3d6000fd5b505050506040513d601f19601f820116820180604052508101906104839190610f24565b509050600073__$50975bd21082d4b196a7c644d5cf6229e7$__6343c57a27836104b66104b187600a61106c565b610ce0565b6040516001600160e01b031960e085901b16815260029290920b60048301526001600160801b031660248201526001600160a01b03808f16604483015288166064820152608401602060405180830381865af415801561051a573d6000803e3d6000fd5b505050506040513d601f19601f8201168201806040525081019061053e919061107b565b905061054b84600a61106c565b6040516341976e0960e01b81526001600160a01b0387811660048301527f000000000000000000000000000000000000000000000000000000000000000016906341976e09906024016020604051808303816000875af11580156105b3573d6000803e3d6000fd5b505050506040513d601f19601f820116820180604052508101906105d7919061107b565b6105e19083611094565b6105eb91906110b3565b9b9a5050505050505050505050565b610602610d49565b61060c6000610da3565b565b610616610d49565b8281146106365760405163025e650f60e01b815260040160405180910390fd5b60005b838110156109d2576000858583818110610655576106556110d5565b905060200201602081019061066a9190610e08565b6001600160a01b031614806106ae5750600083838381811061068e5761068e6110d5565b90506020020160208101906106a39190610e08565b6001600160a01b0316145b156106cc5760405163538ba4f960e01b815260040160405180910390fd5b8282828181106106de576106de6110d5565b90506020020160208101906106f39190610e08565b6001600160a01b0316630dfe16816040518163ffffffff1660e01b8152600401602060405180830381865afa158015610730573d6000803e3d6000fd5b505050506040513d601f19601f820116820180604052508101906107549190610ee4565b6001600160a01b031685858381811061076f5761076f6110d5565b90506020020160208101906107849190610e08565b6001600160a01b03161415801561085a57508282828181106107a8576107a86110d5565b90506020020160208101906107bd9190610e08565b6001600160a01b031663d21220a76040518163ffffffff1660e01b8152600401602060405180830381865afa1580156107fa573d6000803e3d6000fd5b505050506040513d601f19601f8201168201806040525081019061081e9190610ee4565b6001600160a01b0316858583818110610839576108396110d5565b905060200201602081019061084e9190610e08565b6001600160a01b031614155b156108ab57828282818110610871576108716110d5565b90506020020160208101906108869190610e08565b604051634e3160a760e01b81526001600160a01b0390911660048201526024016101ee565b8282828181106108bd576108bd6110d5565b90506020020160208101906108d29190610e08565b600260008787858181106108e8576108e86110d5565b90506020020160208101906108fd9190610e08565b6001600160a01b039081168252602082019290925260400160002080546001600160a01b031916929091169190911790557f3763166362772a0cb8a4c0ea91ee8d3ac227e94a6bf004f6ba87709159231087858583818110610961576109616110d5565b90506020020160208101906109769190610e08565b848484818110610988576109886110d5565b905060200201602081019061099d9190610e08565b604080516001600160a01b0393841681529290911660208301520160405180910390a1806109ca816110eb565b915050610639565b5050505050565b6109e1610d49565b828114610a015760405163025e650f60e01b815260040160405180910390fd5b60005b838110156109d2576202a300838383818110610a2257610a226110d5565b905060200201351115610a6457828282818110610a4157610a416110d5565b9050602002013560405163f5d3e54f60e01b81526004016101ee91815260200190565b610e10838383818110610a7957610a796110d5565b905060200201351015610abb57828282818110610a9857610a986110d5565b90506020020135604051635cab37cb60e11b81526004016101ee91815260200190565b6000858583818110610acf57610acf6110d5565b9050602002016020810190610ae49190610e08565b6001600160a01b031603610b0b5760405163538ba4f960e01b815260040160405180910390fd5b828282818110610b1d57610b1d6110d5565b9050602002013560016000878785818110610b3a57610b3a6110d5565b9050602002016020810190610b4f9190610e08565b6001600160a01b031681526020810191909152604001600020557fd1b3641b73e6c323671a85001b02db34d4e63a7fa6d264896138094dd6b8bfdf858583818110610b9c57610b9c6110d5565b9050602002016020810190610bb19190610e08565b848484818110610bc357610bc36110d5565b604080516001600160a01b0390951685526020918202939093013590840152500160405180910390a180610bf6816110eb565b915050610a04565b610c06610d49565b6001600160a01b038116610c6b5760405162461bcd60e51b815260206004820152602660248201527f4f776e61626c653a206e6577206f776e657220697320746865207a65726f206160448201526564647265737360d01b60648201526084016101ee565b610c7481610da3565b50565b600063ffffffff821115610cdc5760405162461bcd60e51b815260206004820152602660248201527f53616665436173743a2076616c756520646f65736e27742066697420696e203360448201526532206269747360d01b60648201526084016101ee565b5090565b60006001600160801b03821115610cdc5760405162461bcd60e51b815260206004820152602760248201527f53616665436173743a2076616c756520646f65736e27742066697420696e20316044820152663238206269747360c81b60648201526084016101ee565b6000546001600160a01b0316331461060c5760405162461bcd60e51b815260206004820181905260248201527f4f776e61626c653a2063616c6c6572206973206e6f7420746865206f776e657260448201526064016101ee565b600080546001600160a01b038381166001600160a01b0319831681178455604051919092169283917f8be0079c531659141344cd1fd0a4f28419497f9722a3daafe3b4186f6b6457e09190a35050565b6001600160a01b0381168114610c7457600080fd5b600060208284031215610e1a57600080fd5b8135610e2581610df3565b9392505050565b60008083601f840112610e3e57600080fd5b50813567ffffffffffffffff811115610e5657600080fd5b6020830191508360208260051b8501011115610e7157600080fd5b9250929050565b60008060008060408587031215610e8e57600080fd5b843567ffffffffffffffff80821115610ea657600080fd5b610eb288838901610e2c565b90965094506020870135915080821115610ecb57600080fd5b50610ed887828801610e2c565b95989497509550505050565b600060208284031215610ef657600080fd5b8151610e2581610df3565b600060208284031215610f1357600080fd5b815160ff81168114610e2557600080fd5b60008060408385031215610f3757600080fd5b82518060020b8114610f4857600080fd5b60208401519092506001600160801b0381168114610f6557600080fd5b809150509250929050565b634e487b7160e01b600052601160045260246000fd5b600181815b80851115610fc1578160001904821115610fa757610fa7610f70565b80851615610fb457918102915b93841c9390800290610f8b565b509250929050565b600082610fd857506001611066565b81610fe557506000611066565b8160018114610ffb576002811461100557611021565b6001915050611066565b60ff84111561101657611016610f70565b50506001821b611066565b5060208310610133831016604e8410600b8410161715611044575081810a611066565b61104e8383610f86565b806000190482111561106257611062610f70565b0290505b92915050565b6000610e2560ff841683610fc9565b60006020828403121561108d57600080fd5b5051919050565b60008160001904831182151516156110ae576110ae610f70565b500290565b6000826110d057634e487b7160e01b600052601260045260246000fd5b500490565b634e487b7160e01b600052603260045260246000fd5b6000600182016110fd576110fd610f70565b506001019056fea26469706673582212204bc8427efdcab360fa0072add5f145da8b065ebfad2d8ee831ba2d611177972364736f6c63430008100033",
  "libraries": {
    "UniV3WrappedLibContainer": "0xbedac0aadbf32514eB67c233C9b365513741B266"
  },
  "devdoc": {
    "author": "BlueberryProtocol",
    "kind": "dev",
    "methods": {
      "getPrice(address)": {
        "params": {
          "token": "The vault token to get the price of."
        },
        "returns": {
          "_0": "price USD price of token in 18 decimals."
        }
      },
      "owner()": {
        "details": "Returns the address of the current owner."
      },
      "renounceOwnership()": {
        "details": "Leaves the contract without owner. It will not be possible to call `onlyOwner` functions anymore. Can only be called by the current owner. NOTE: Renouncing ownership will leave the contract without an owner, thereby removing any functionality that is only available to the owner."
      },
      "setStablePools(address[],address[])": {
        "params": {
          "pools": "list of reference pool addresses",
          "tokens": "list of tokens to set stablecoin pool references"
        }
      },
      "setTimeGap(address[],uint256[])": {
        "params": {
          "gaps": "Corresponding list of time gaps to set for each token.",
          "tokens": "List of token addresses for which time gaps will be set."
        }
      },
      "transferOwnership(address)": {
        "details": "Transfers ownership of the contract to a new account (`newOwner`). Can only be called by the current owner."
      }
    },
    "stateVariables": {
      "stablePools": {
        "details": "Mapping from token address to Uni V3 pool of token/(USDT|USDC|DAI) pair"
      }
    },
    "title": "Uniswap V3 Adapter Oracle",
    "version": 1
  },
  "userdoc": {
    "errors": {
      "INPUT_ARRAY_MISMATCH()": [
        {
          "notice": "Thrown when the lengths of input arrays do not match."
        }
      ],
      "NO_MEAN(address)": [
        {
          "notice": "Thrown when no mean price is set for the token."
        }
      ],
      "NO_STABLEPOOL(address)": [
        {
          "notice": "Thrown when no stable pool exists for the token."
        }
      ],
      "TOO_LONG_DELAY(uint256)": [
        {
          "notice": "Thrown when the delay time exceeds allowed limits."
        }
      ],
      "TOO_LOW_MEAN(uint256)": [
        {
          "notice": "Thrown when the mean price is below the acceptable threshold."
        }
      ],
      "ZERO_ADDRESS()": [
        {
          "notice": "Thrown when the address provided is the zero address."
        }
      ]
    },
    "events": {
      "SetTimeGap(address,uint256)": {
        "notice": "Emitted when a time gap for a specific token is set or updated."
      }
    },
    "kind": "user",
    "methods": {
      "getPrice(address)": {
        "notice": "Return USD price of given token, multiplied by 10**18."
      },
      "setStablePools(address[],address[])": {
        "notice": "Set stablecoin pools for multiple tokens"
      },
      "setTimeGap(address[],uint256[])": {
        "notice": "Allows the owner to set time gaps for a list of tokens.  The time gap is used to determine the acceptable age of the oracle data."
      },
      "timeGaps(address)": {
        "notice": "A mapping that associates each token address with its respective time gap. Time gap represents the acceptable age of the data before it is considered outdated."
      }
    },
    "notice": "Oracle contract which provides price feeds of tokens from Uni V3 pool paired with stablecoins",
    "version": 1
  },
  "storageLayout": {
    "storage": [
      {
        "astId": 3374,
        "contract": "contracts/oracle/UniswapV3AdapterOracle.sol:UniswapV3AdapterOracle",
        "label": "_owner",
        "offset": 0,
        "slot": "0",
        "type": "t_address"
      },
      {
        "astId": 26010,
        "contract": "contracts/oracle/UniswapV3AdapterOracle.sol:UniswapV3AdapterOracle",
        "label": "timeGaps",
        "offset": 0,
        "slot": "1",
        "type": "t_mapping(t_address,t_uint256)"
      },
      {
        "astId": 29070,
        "contract": "contracts/oracle/UniswapV3AdapterOracle.sol:UniswapV3AdapterOracle",
        "label": "stablePools",
        "offset": 0,
        "slot": "2",
        "type": "t_mapping(t_address,t_address)"
      }
    ],
    "types": {
      "t_address": {
        "encoding": "inplace",
        "label": "address",
        "numberOfBytes": "20"
      },
      "t_mapping(t_address,t_address)": {
        "encoding": "mapping",
        "key": "t_address",
        "label": "mapping(address => address)",
        "numberOfBytes": "32",
        "value": "t_address"
      },
      "t_mapping(t_address,t_uint256)": {
        "encoding": "mapping",
        "key": "t_address",
        "label": "mapping(address => uint256)",
        "numberOfBytes": "32",
        "value": "t_uint256"
      },
      "t_uint256": {
        "encoding": "inplace",
        "label": "uint256",
        "numberOfBytes": "32"
      }
    }
  }
}