{
  "address": "0xbedac0aadbf32514eB67c233C9b365513741B266",
  "abi": [
    {
      "inputs": [
        {
          "internalType": "address",
          "name": "pool",
          "type": "address"
        },
        {
          "internalType": "uint32",
          "name": "secondsAgo",
          "type": "uint32"
        }
      ],
      "name": "consult",
      "outputs": [
        {
          "internalType": "int24",
          "name": "arithmeticMeanTick",
          "type": "int24"
        },
        {
          "internalType": "uint128",
          "name": "harmonicMeanLiquidity",
          "type": "uint128"
        }
      ],
      "stateMutability": "view",
      "type": "function"
    },
    {
      "inputs": [
        {
          "internalType": "uint160",
          "name": "sqrtRatioX96",
          "type": "uint160"
        },
        {
          "internalType": "uint160",
          "name": "sqrtRatioAX96",
          "type": "uint160"
        },
        {
          "internalType": "uint160",
          "name": "sqrtRatioBX96",
          "type": "uint160"
        },
        {
          "internalType": "uint128",
          "name": "liquidity",
          "type": "uint128"
        }
      ],
      "name": "getAmountsForLiquidity",
      "outputs": [
        {
          "internalType": "uint256",
          "name": "amount0",
          "type": "uint256"
        },
        {
          "internalType": "uint256",
          "name": "amount1",
          "type": "uint256"
        }
      ],
      "stateMutability": "pure",
      "type": "function"
    },
    {
      "inputs": [
        {
          "internalType": "uint160",
          "name": "sqrtRatioX96",
          "type": "uint160"
        },
        {
          "internalType": "uint160",
          "name": "sqrtRatioAX96",
          "type": "uint160"
        },
        {
          "internalType": "uint160",
          "name": "sqrtRatioBX96",
          "type": "uint160"
        },
        {
          "internalType": "uint256",
          "name": "amount0",
          "type": "uint256"
        },
        {
          "internalType": "uint256",
          "name": "amount1",
          "type": "uint256"
        }
      ],
      "name": "getLiquidityForAmounts",
      "outputs": [
        {
          "internalType": "uint128",
          "name": "liquidity",
          "type": "uint128"
        }
      ],
      "stateMutability": "pure",
      "type": "function"
    },
    {
      "inputs": [
        {
          "internalType": "int24",
          "name": "tick",
          "type": "int24"
        },
        {
          "internalType": "uint128",
          "name": "baseAmount",
          "type": "uint128"
        },
        {
          "internalType": "address",
          "name": "baseToken",
          "type": "address"
        },
        {
          "internalType": "address",
          "name": "quoteToken",
          "type": "address"
        }
      ],
      "name": "getQuoteAtTick",
      "outputs": [
        {
          "internalType": "uint256",
          "name": "quoteAmount",
          "type": "uint256"
        }
      ],
      "stateMutability": "pure",
      "type": "function"
    },
    {
      "inputs": [
        {
          "internalType": "int24",
          "name": "tick",
          "type": "int24"
        }
      ],
      "name": "getSqrtRatioAtTick",
      "outputs": [
        {
          "internalType": "uint160",
          "name": "sqrtPriceX96",
          "type": "uint160"
        }
      ],
      "stateMutability": "pure",
      "type": "function"
    }
  ],
  "transactionHash": "0x9ec715ffe46b4c7251fbe175e8b5d214dc4fdbd537366306cb95675d62b27f03",
  "args": [],
  "numDeployments": 1,
  "solcInputHash": "aa7578fc11acc5d73cb8ae4e0690da85",
  "bytecode": "0x610dc5610026600b82828239805160001a60731461001957fe5b30600052607381538281f3fe73000000000000000000000000000000000000000030146080604052600436106100615760003560e01c806343c57a27146100665780636098fd4a146100be578063824134891461011c578063986cfba314610174578063c72e160b146101b0575b600080fd5b6100ac6004803603608081101561007c57600080fd5b50803560020b906001600160801b03602082013516906001600160a01b036040820135811691606001351661020f565b60408051918252519081900360200190f35b610100600480360360a08110156100d457600080fd5b506001600160a01b03813581169160208101358216916040820135169060608101359060800135610226565b604080516001600160801b039092168252519081900360200190f35b61014e6004803603604081101561013257600080fd5b5080356001600160a01b0316906020013563ffffffff1661023f565b6040805160029390930b83526001600160801b0390911660208301528051918290030190f35b6101946004803603602081101561018a57600080fd5b503560020b610257565b604080516001600160a01b039092168252519081900360200190f35b6101f6600480360360808110156101c657600080fd5b5080356001600160a01b0390811691602081013582169160408201351690606001356001600160801b0316610268565b6040805192835260208301919091528051918290030190f35b600061021d85858585610284565b95945050505050565b6000610235868686868661037b565b9695505050505050565b60008061024c8484610433565b909590945092505050565b6000610262826107a2565b92915050565b60008061027786868686610ad4565b9097909650945050505050565b600080610290866107a2565b90506001600160801b036001600160a01b038216116102ff576001600160a01b03808216800290848116908616106102df576102da600160c01b876001600160801b031683610b70565b6102f7565b6102f781876001600160801b0316600160c01b610b70565b925050610372565b600061031e6001600160a01b0383168068010000000000000000610b70565b9050836001600160a01b0316856001600160a01b03161061035657610351600160801b876001600160801b031683610b70565b61036e565b61036e81876001600160801b0316600160801b610b70565b9250505b50949350505050565b6000836001600160a01b0316856001600160a01b0316111561039b579293925b846001600160a01b0316866001600160a01b0316116103c6576103bf858585610c20565b905061021d565b836001600160a01b0316866001600160a01b031610156104285760006103ed878686610c20565b905060006103fc878986610c83565b9050806001600160801b0316826001600160801b03161061041d578061041f565b815b9250505061021d565b610235858584610c83565b60008063ffffffff8316610473576040805162461bcd60e51b8152602060048201526002602482015261042560f41b604482015290519081900360640190fd5b60408051600280825260608201835260009260208301908036833701905050905083816000815181106104a257fe5b602002602001019063ffffffff16908163ffffffff16815250506000816001815181106104cb57fe5b63ffffffff90921660209283029190910182015260405163883bdbfd60e01b81526004810182815283516024830152835160009384936001600160a01b038b169363883bdbfd9388939192839260449091019185820191028083838b5b83811015610540578181015183820152602001610528565b505050509050019250505060006040518083038186803b15801561056357600080fd5b505afa158015610577573d6000803e3d6000fd5b505050506040513d6000823e601f3d908101601f1916820160409081528110156105a057600080fd5b81019080805160405193929190846401000000008211156105c057600080fd5b9083019060208201858111156105d557600080fd5b82518660208202830111640100000000821117156105f257600080fd5b82525081516020918201928201910280838360005b8381101561061f578181015183820152602001610607565b505050509050016040526020018051604051939291908464010000000082111561064857600080fd5b90830190602082018581111561065d57600080fd5b825186602082028301116401000000008211171561067a57600080fd5b82525081516020918201928201910280838360005b838110156106a757818101518382015260200161068f565b50505050905001604052505050915091506000826000815181106106c757fe5b6020026020010151836001815181106106dc57fe5b60200260200101510390506000826000815181106106f657fe5b60200260200101518360018151811061070b57fe5b60200260200101510390508763ffffffff168260060b8161072857fe5b05965060008260060b12801561075257508763ffffffff168260060b8161074b57fe5b0760060b15155b1561075f57600019909601955b63ffffffff88166001600160a01b0302640100000000600160c01b03602083901b166001600160c01b0382168161079257fe5b0496505050505050509250929050565b60008060008360020b126107b9578260020b6107c1565b8260020b6000035b9050620d89e88111156107ff576040805162461bcd60e51b81526020600482015260016024820152601560fa1b604482015290519081900360640190fd5b60006001821661081357600160801b610825565b6ffffcb933bd6fad37aa2d162d1a5940015b70ffffffffffffffffffffffffffffffffff1690506002821615610859576ffff97272373d413259a46990580e213a0260801c5b6004821615610878576ffff2e50f5f656932ef12357cf3c7fdcc0260801c5b6008821615610897576fffe5caca7e10e4e61c3624eaa0941cd00260801c5b60108216156108b6576fffcb9843d60f6159c9db58835c9266440260801c5b60208216156108d5576fff973b41fa98c081472e6896dfb254c00260801c5b60408216156108f4576fff2ea16466c96a3843ec78b326b528610260801c5b6080821615610913576ffe5dee046a99a2a811c461f1969c30530260801c5b610100821615610933576ffcbe86c7900a88aedcffc83b479aa3a40260801c5b610200821615610953576ff987a7253ac413176f2b074cf7815e540260801c5b610400821615610973576ff3392b0822b70005940c7a398e4b70f30260801c5b610800821615610993576fe7159475a2c29b7443b29c7fa6e889d90260801c5b6110008216156109b3576fd097f3bdfd2022b8845ad8f792aa58250260801c5b6120008216156109d3576fa9f746462d870fdf8a65dc1f90e061e50260801c5b6140008216156109f3576f70d869a156d2a1b890bb3df62baf32f70260801c5b618000821615610a13576f31be135f97d08fd981231505542fcfa60260801c5b62010000821615610a34576f09aa508b5b7a84e1c677de54f3e99bc90260801c5b62020000821615610a54576e5d6af8dedb81196699c329225ee6040260801c5b62040000821615610a73576d2216e584f5fa1ea926041bedfe980260801c5b62080000821615610a90576b048a170391f7dc42444e8fa20260801c5b60008460020b1315610aab578060001981610aa757fe5b0490505b640100000000810615610abf576001610ac2565b60005b60ff16602082901c0192505050919050565b600080836001600160a01b0316856001600160a01b03161115610af5579293925b846001600160a01b0316866001600160a01b031611610b2057610b19858585610cc8565b9150610b67565b836001600160a01b0316866001600160a01b03161015610b5957610b45868585610cc8565b9150610b52858785610d31565b9050610b67565b610b64858585610d31565b90505b94509492505050565b6000808060001985870986860292508281109083900303905080610ba65760008411610b9b57600080fd5b508290049050610c19565b808411610bb257600080fd5b6000848688096000868103871696879004966002600389028118808a02820302808a02820302808a02820302808a02820302808a02820302808a02909103029181900381900460010186841190950394909402919094039290920491909117919091029150505b9392505050565b6000826001600160a01b0316846001600160a01b03161115610c40579192915b6000610c63856001600160a01b0316856001600160a01b0316600160601b610b70565b905061021d610c7e84838888036001600160a01b0316610b70565b610d74565b6000826001600160a01b0316846001600160a01b03161115610ca3579192915b610cc0610c7e83600160601b8787036001600160a01b0316610b70565b949350505050565b6000826001600160a01b0316846001600160a01b03161115610ce8579192915b836001600160a01b0316610d21606060ff16846001600160801b0316901b8686036001600160a01b0316866001600160a01b0316610b70565b81610d2857fe5b04949350505050565b6000826001600160a01b0316846001600160a01b03161115610d51579192915b610cc0826001600160801b03168585036001600160a01b0316600160601b610b70565b806001600160801b0381168114610d8a57600080fd5b91905056fea2646970667358221220c196e6ddd3d794868d5535355ff10d918de829028ff9a4d74a6a63678ac84afc64736f6c63430007060033",
  "devdoc": {
    "kind": "dev",
    "methods": {},
    "version": 1
  },
  "userdoc": {
    "kind": "user",
    "methods": {},
    "version": 1
  },
  "storageLayout": {
    "storage": [],
    "types": null
  }
}