{
  "address": "0x633be46e9CB855731c9306949F6623BAf55d8A86",
  "abi": [
    {
      "inputs": [],
      "stateMutability": "nonpayable",
      "type": "constructor"
    },
    {
      "inputs": [
        {
          "internalType": "uint256",
          "name": "amount",
          "type": "uint256"
        }
      ],
      "name": "LEND_FAILED",
      "type": "error"
    },
    {
      "inputs": [
        {
          "internalType": "uint256",
          "name": "amount",
          "type": "uint256"
        }
      ],
      "name": "REDEEM_FAILED",
      "type": "error"
    },
    {
      "inputs": [],
      "name": "ZERO_ADDRESS",
      "type": "error"
    },
    {
      "inputs": [],
      "name": "ZERO_AMOUNT",
      "type": "error"
    },
    {
      "anonymous": false,
      "inputs": [
        {
          "indexed": true,
          "internalType": "address",
          "name": "owner",
          "type": "address"
        },
        {
          "indexed": true,
          "internalType": "address",
          "name": "spender",
          "type": "address"
        },
        {
          "indexed": false,
          "internalType": "uint256",
          "name": "value",
          "type": "uint256"
        }
      ],
      "name": "Approval",
      "type": "event"
    },
    {
      "anonymous": false,
      "inputs": [
        {
          "indexed": true,
          "internalType": "address",
          "name": "account",
          "type": "address"
        },
        {
          "indexed": false,
          "internalType": "uint256",
          "name": "amount",
          "type": "uint256"
        },
        {
          "indexed": false,
          "internalType": "uint256",
          "name": "shareAmount",
          "type": "uint256"
        }
      ],
      "name": "Deposited",
      "type": "event"
    },
    {
      "anonymous": false,
      "inputs": [
        {
          "indexed": false,
          "internalType": "uint8",
          "name": "version",
          "type": "uint8"
        }
      ],
      "name": "Initialized",
      "type": "event"
    },
    {
      "anonymous": false,
      "inputs": [
        {
          "indexed": true,
          "internalType": "address",
          "name": "previousOwner",
          "type": "address"
        },
        {
          "indexed": true,
          "internalType": "address",
          "name": "newOwner",
          "type": "address"
        }
      ],
      "name": "OwnershipTransferred",
      "type": "event"
    },
    {
      "anonymous": false,
      "inputs": [
        {
          "indexed": true,
          "internalType": "address",
          "name": "from",
          "type": "address"
        },
        {
          "indexed": true,
          "internalType": "address",
          "name": "to",
          "type": "address"
        },
        {
          "indexed": false,
          "internalType": "uint256",
          "name": "value",
          "type": "uint256"
        }
      ],
      "name": "Transfer",
      "type": "event"
    },
    {
      "anonymous": false,
      "inputs": [
        {
          "indexed": true,
          "internalType": "address",
          "name": "account",
          "type": "address"
        },
        {
          "indexed": false,
          "internalType": "uint256",
          "name": "amount",
          "type": "uint256"
        },
        {
          "indexed": false,
          "internalType": "uint256",
          "name": "shareAmount",
          "type": "uint256"
        }
      ],
      "name": "Withdrawn",
      "type": "event"
    },
    {
      "inputs": [
        {
          "internalType": "address",
          "name": "owner",
          "type": "address"
        },
        {
          "internalType": "address",
          "name": "spender",
          "type": "address"
        }
      ],
      "name": "allowance",
      "outputs": [
        {
          "internalType": "uint256",
          "name": "",
          "type": "uint256"
        }
      ],
      "stateMutability": "view",
      "type": "function"
    },
    {
      "inputs": [
        {
          "internalType": "address",
          "name": "spender",
          "type": "address"
        },
        {
          "internalType": "uint256",
          "name": "amount",
          "type": "uint256"
        }
      ],
      "name": "approve",
      "outputs": [
        {
          "internalType": "bool",
          "name": "",
          "type": "bool"
        }
      ],
      "stateMutability": "nonpayable",
      "type": "function"
    },
    {
      "inputs": [],
      "name": "bToken",
      "outputs": [
        {
          "internalType": "contract ICErc20",
          "name": "",
          "type": "address"
        }
      ],
      "stateMutability": "view",
      "type": "function"
    },
    {
      "inputs": [
        {
          "internalType": "address",
          "name": "account",
          "type": "address"
        }
      ],
      "name": "balanceOf",
      "outputs": [
        {
          "internalType": "uint256",
          "name": "",
          "type": "uint256"
        }
      ],
      "stateMutability": "view",
      "type": "function"
    },
    {
      "inputs": [],
      "name": "config",
      "outputs": [
        {
          "internalType": "contract IProtocolConfig",
          "name": "",
          "type": "address"
        }
      ],
      "stateMutability": "view",
      "type": "function"
    },
    {
      "inputs": [],
      "name": "decimals",
      "outputs": [
        {
          "internalType": "uint8",
          "name": "",
          "type": "uint8"
        }
      ],
      "stateMutability": "view",
      "type": "function"
    },
    {
      "inputs": [
        {
          "internalType": "address",
          "name": "spender",
          "type": "address"
        },
        {
          "internalType": "uint256",
          "name": "subtractedValue",
          "type": "uint256"
        }
      ],
      "name": "decreaseAllowance",
      "outputs": [
        {
          "internalType": "bool",
          "name": "",
          "type": "bool"
        }
      ],
      "stateMutability": "nonpayable",
      "type": "function"
    },
    {
      "inputs": [
        {
          "internalType": "uint256",
          "name": "amount",
          "type": "uint256"
        }
      ],
      "name": "deposit",
      "outputs": [
        {
          "internalType": "uint256",
          "name": "shareAmount",
          "type": "uint256"
        }
      ],
      "stateMutability": "nonpayable",
      "type": "function"
    },
    {
      "inputs": [
        {
          "internalType": "address",
          "name": "spender",
          "type": "address"
        },
        {
          "internalType": "uint256",
          "name": "addedValue",
          "type": "uint256"
        }
      ],
      "name": "increaseAllowance",
      "outputs": [
        {
          "internalType": "bool",
          "name": "",
          "type": "bool"
        }
      ],
      "stateMutability": "nonpayable",
      "type": "function"
    },
    {
      "inputs": [
        {
          "internalType": "contract IProtocolConfig",
          "name": "_config",
          "type": "address"
        },
        {
          "internalType": "contract ICErc20",
          "name": "_bToken",
          "type": "address"
        },
        {
          "internalType": "string",
          "name": "_name",
          "type": "string"
        },
        {
          "internalType": "string",
          "name": "_symbol",
          "type": "string"
        }
      ],
      "name": "initialize",
      "outputs": [],
      "stateMutability": "nonpayable",
      "type": "function"
    },
    {
      "inputs": [],
      "name": "name",
      "outputs": [
        {
          "internalType": "string",
          "name": "",
          "type": "string"
        }
      ],
      "stateMutability": "view",
      "type": "function"
    },
    {
      "inputs": [],
      "name": "owner",
      "outputs": [
        {
          "internalType": "address",
          "name": "",
          "type": "address"
        }
      ],
      "stateMutability": "view",
      "type": "function"
    },
    {
      "inputs": [],
      "name": "renounceOwnership",
      "outputs": [],
      "stateMutability": "nonpayable",
      "type": "function"
    },
    {
      "inputs": [],
      "name": "symbol",
      "outputs": [
        {
          "internalType": "string",
          "name": "",
          "type": "string"
        }
      ],
      "stateMutability": "view",
      "type": "function"
    },
    {
      "inputs": [],
      "name": "totalSupply",
      "outputs": [
        {
          "internalType": "uint256",
          "name": "",
          "type": "uint256"
        }
      ],
      "stateMutability": "view",
      "type": "function"
    },
    {
      "inputs": [
        {
          "internalType": "address",
          "name": "to",
          "type": "address"
        },
        {
          "internalType": "uint256",
          "name": "amount",
          "type": "uint256"
        }
      ],
      "name": "transfer",
      "outputs": [
        {
          "internalType": "bool",
          "name": "",
          "type": "bool"
        }
      ],
      "stateMutability": "nonpayable",
      "type": "function"
    },
    {
      "inputs": [
        {
          "internalType": "address",
          "name": "from",
          "type": "address"
        },
        {
          "internalType": "address",
          "name": "to",
          "type": "address"
        },
        {
          "internalType": "uint256",
          "name": "amount",
          "type": "uint256"
        }
      ],
      "name": "transferFrom",
      "outputs": [
        {
          "internalType": "bool",
          "name": "",
          "type": "bool"
        }
      ],
      "stateMutability": "nonpayable",
      "type": "function"
    },
    {
      "inputs": [
        {
          "internalType": "address",
          "name": "newOwner",
          "type": "address"
        }
      ],
      "name": "transferOwnership",
      "outputs": [],
      "stateMutability": "nonpayable",
      "type": "function"
    },
    {
      "inputs": [],
      "name": "uToken",
      "outputs": [
        {
          "internalType": "contract IERC20Upgradeable",
          "name": "",
          "type": "address"
        }
      ],
      "stateMutability": "view",
      "type": "function"
    },
    {
      "inputs": [
        {
          "internalType": "uint256",
          "name": "shareAmount",
          "type": "uint256"
        }
      ],
      "name": "withdraw",
      "outputs": [
        {
          "internalType": "uint256",
          "name": "withdrawAmount",
          "type": "uint256"
        }
      ],
      "stateMutability": "nonpayable",
      "type": "function"
    }
  ],
  "transactionHash": "0x6c2c2d1c94b95352b6f143045a8a30289507c41075402552c4beeecd1a3f56bc",
  "args": [],
  "numDeployments": 1,
  "solcInputHash": "40a5e959dbaee40ef6eeed84d8383760",
  "bytecode": "0x608060405234801561001057600080fd5b5061001961001e565b6100de565b600054610100900460ff161561008a5760405162461bcd60e51b815260206004820152602760248201527f496e697469616c697a61626c653a20636f6e747261637420697320696e697469604482015266616c697a696e6760c81b606482015260840160405180910390fd5b60005460ff90811610156100dc576000805460ff191660ff9081179091556040519081527f7f26b83ff96e1f2b6a682f133852f6798a09c465da95921460cefb38474024989060200160405180910390a15b565b611f40806100ed6000396000f3fe608060405234801561001057600080fd5b506004361061012c5760003560e01c806370a08231116100ad578063a457c2d711610071578063a457c2d714610287578063a9059cbb1461029a578063b6b55f25146102ad578063dd62ed3e146102c0578063f2fde38b146102d357600080fd5b806370a082311461022a578063715018a61461025357806379502c551461025b5780638da5cb5b1461026e57806395d89b411461027f57600080fd5b806323b872dd116100f457806323b872dd146101c45780632e1a7d4d146101d7578063313ce567146101ea5780633950935114610204578063633156371461021757600080fd5b806306fdde0314610131578063095ea7b31461014f578063180f58421461017257806318160ddd1461019d5780632016a0d2146101af575b600080fd5b6101396102e6565b6040516101469190611a54565b60405180910390f35b61016261015d366004611a9c565b610378565b6040519015158152602001610146565b60c954610185906001600160a01b031681565b6040516001600160a01b039091168152602001610146565b6067545b604051908152602001610146565b6101c26101bd366004611b6b565b610392565b005b6101626101d2366004611bf4565b610597565b6101a16101e5366004611c35565b6105bd565b6101f2610989565b60405160ff9091168152602001610146565b610162610212366004611a9c565b6109fc565b60ca54610185906001600160a01b031681565b6101a1610238366004611c4e565b6001600160a01b031660009081526065602052604090205490565b6101c2610a1e565b60cb54610185906001600160a01b031681565b6033546001600160a01b0316610185565b610139610a32565b610162610295366004611a9c565b610a41565b6101626102a8366004611a9c565b610ac7565b6101a16102bb366004611c35565b610ad5565b6101a16102ce366004611c6b565b610e43565b6101c26102e1366004611c4e565b610e6e565b6060606880546102f590611ca4565b80601f016020809104026020016040519081016040528092919081815260200182805461032190611ca4565b801561036e5780601f106103435761010080835404028352916020019161036e565b820191906000526020600020905b81548152906001019060200180831161035157829003601f168201915b5050505050905090565b600033610386818585610ee7565b60019150505b92915050565b600054610100900460ff16158080156103b25750600054600160ff909116105b806103cc5750303b1580156103cc575060005460ff166001145b6104345760405162461bcd60e51b815260206004820152602e60248201527f496e697469616c697a61626c653a20636f6e747261637420697320616c72656160448201526d191e481a5b9a5d1a585b1a5e995960921b60648201526084015b60405180910390fd5b6000805460ff191660011790558015610457576000805461ff0019166101001790555b61045f61100c565b61046761103b565b610471838361106a565b6001600160a01b038416158061048e57506001600160a01b038516155b156104ac5760405163538ba4f960e01b815260040160405180910390fd5b6000846001600160a01b0316636f307dc36040518163ffffffff1660e01b8152600401602060405180830381865afa1580156104ec573d6000803e3d6000fd5b505050506040513d601f19601f820116820180604052508101906105109190611cde565b60cb80546001600160a01b03808a166001600160a01b03199283161790925560c9805489841690831617905560ca8054929093169116179055508015610590576000805461ff0019169055604051600181527f7f26b83ff96e1f2b6a682f133852f6798a09c465da95921460cefb38474024989060200160405180910390a15b5050505050565b6000336105a585828561109f565b6105b0858585611119565b60019150505b9392505050565b60006002609754036106115760405162461bcd60e51b815260206004820152601f60248201527f5265656e7472616e637947756172643a207265656e7472616e742063616c6c00604482015260640161042b565b6002609755600082900361063857604051630f6fa54560e41b815260040160405180910390fd5b61064233836112e7565b60ca546040516370a0823160e01b81523060048201526000916001600160a01b0316906370a0823190602401602060405180830381865afa15801561068b573d6000803e3d6000fd5b505050506040513d601f19601f820116820180604052508101906106af9190611cfb565b60c95460405163db006a7560e01b8152600481018690529192506001600160a01b03169063db006a75906024016020604051808303816000875af11580156106fb573d6000803e3d6000fd5b505050506040513d601f19601f8201168201806040525081019061071f9190611cfb565b1561074057604051639a8c640160e01b81526004810184905260240161042b565b60ca546040516370a0823160e01b81523060048201526000916001600160a01b0316906370a0823190602401602060405180830381865afa158015610789573d6000803e3d6000fd5b505050506040513d601f19601f820116820180604052508101906107ad9190611cfb565b90506107b98282611d2a565b60ca5460cb546040805163d0fb020360e01b8152905193965061083b936001600160a01b03938416939092169163d0fb0203916004808201926020929091908290030181865afa158015610811573d6000803e3d6000fd5b505050506040513d601f19601f820116820180604052508101906108359190611cde565b85611432565b60cb60009054906101000a90046001600160a01b03166001600160a01b031663d0fb02036040518163ffffffff1660e01b8152600401602060405180830381865afa15801561088e573d6000803e3d6000fd5b505050506040513d601f19601f820116820180604052508101906108b29190611cde565b60ca5460405163272bed8360e11b81526001600160a01b03918216600482015260248101869052911690634e57db06906044016020604051808303816000875af1158015610904573d6000803e3d6000fd5b505050506040513d601f19601f820116820180604052508101906109289190611cfb565b60ca54909350610942906001600160a01b03163385611519565b604080518481526020810186905233917f92ccf450a286a957af52509bc1c9939d1a6a481783e142e41e2499f0bb66ebc6910160405180910390a250506001609755919050565b60c9546040805163313ce56760e01b815290516000926001600160a01b03169163313ce5679160048083019260209291908290030181865afa1580156109d3573d6000803e3d6000fd5b505050506040513d601f19601f820116820180604052508101906109f79190611d3d565b905090565b600033610386818585610a0f8383610e43565b610a199190611d60565b610ee7565b610a2661157c565b610a3060006115d6565b565b6060606980546102f590611ca4565b60003381610a4f8286610e43565b905083811015610aaf5760405162461bcd60e51b815260206004820152602560248201527f45524332303a2064656372656173656420616c6c6f77616e63652062656c6f77604482015264207a65726f60d81b606482015260840161042b565b610abc8286868403610ee7565b506001949350505050565b600033610386818585611119565b6000600260975403610b295760405162461bcd60e51b815260206004820152601f60248201527f5265656e7472616e637947756172643a207265656e7472616e742063616c6c00604482015260640161042b565b60026097556000829003610b5057604051630f6fa54560e41b815260040160405180910390fd5b60ca546040516370a0823160e01b81523060048201526000916001600160a01b0316906370a0823190602401602060405180830381865afa158015610b99573d6000803e3d6000fd5b505050506040513d601f19601f82011682018060405250810190610bbd9190611cfb565b60ca54909150610bd8906001600160a01b0316333086611628565b60ca546040516370a0823160e01b81523060048201526000916001600160a01b0316906370a0823190602401602060405180830381865afa158015610c21573d6000803e3d6000fd5b505050506040513d601f19601f82011682018060405250810190610c459190611cfb565b60c9546040516370a0823160e01b81523060048201529192506000916001600160a01b03909116906370a0823190602401602060405180830381865afa158015610c93573d6000803e3d6000fd5b505050506040513d601f19601f82011682018060405250810190610cb79190611cfb565b60ca5460c954919250610cd7916001600160a01b03918216911687611432565b60c9546001600160a01b031663a0712d68610cf28585611d2a565b6040518263ffffffff1660e01b8152600401610d1091815260200190565b6020604051808303816000875af1158015610d2f573d6000803e3d6000fd5b505050506040513d601f19601f82011682018060405250810190610d539190611cfb565b15610d7457604051633207478960e21b81526004810186905260240161042b565b60c9546040516370a0823160e01b81523060048201526000916001600160a01b0316906370a0823190602401602060405180830381865afa158015610dbd573d6000803e3d6000fd5b505050506040513d601f19601f82011682018060405250810190610de19190611cfb565b9050610ded8282611d2a565b9450610df93386611660565b604080518781526020810187905233917f73a19dd210f1a7f902193214c0ee91dd35ee5b4d920cba8d519eca65a7b488ca910160405180910390a250506001609755509092915050565b6001600160a01b03918216600090815260666020908152604080832093909416825291909152205490565b610e7661157c565b6001600160a01b038116610edb5760405162461bcd60e51b815260206004820152602660248201527f4f776e61626c653a206e6577206f776e657220697320746865207a65726f206160448201526564647265737360d01b606482015260840161042b565b610ee4816115d6565b50565b6001600160a01b038316610f495760405162461bcd60e51b8152602060048201526024808201527f45524332303a20617070726f76652066726f6d20746865207a65726f206164646044820152637265737360e01b606482015260840161042b565b6001600160a01b038216610faa5760405162461bcd60e51b815260206004820152602260248201527f45524332303a20617070726f766520746f20746865207a65726f206164647265604482015261737360f01b606482015260840161042b565b6001600160a01b0383811660008181526066602090815260408083209487168084529482529182902085905590518481527f8c5be1e5ebec7d5bd14f71427d1e84f3dd0314c0f7b2291e5b200ac8c7c3b92591015b60405180910390a3505050565b600054610100900460ff166110335760405162461bcd60e51b815260040161042b90611d73565b610a3061173f565b600054610100900460ff166110625760405162461bcd60e51b815260040161042b90611d73565b610a3061176d565b600054610100900460ff166110915760405162461bcd60e51b815260040161042b90611d73565b61109b828261179d565b5050565b60006110ab8484610e43565b9050600019811461111357818110156111065760405162461bcd60e51b815260206004820152601d60248201527f45524332303a20696e73756666696369656e7420616c6c6f77616e6365000000604482015260640161042b565b6111138484848403610ee7565b50505050565b6001600160a01b03831661117d5760405162461bcd60e51b815260206004820152602560248201527f45524332303a207472616e736665722066726f6d20746865207a65726f206164604482015264647265737360d81b606482015260840161042b565b6001600160a01b0382166111df5760405162461bcd60e51b815260206004820152602360248201527f45524332303a207472616e7366657220746f20746865207a65726f206164647260448201526265737360e81b606482015260840161042b565b6001600160a01b038316600090815260656020526040902054818110156112575760405162461bcd60e51b815260206004820152602660248201527f45524332303a207472616e7366657220616d6f756e7420657863656564732062604482015265616c616e636560d01b606482015260840161042b565b6001600160a01b0380851660009081526065602052604080822085850390559185168152908120805484929061128e908490611d60565b92505081905550826001600160a01b0316846001600160a01b03167fddf252ad1be2c89b69c2b068fc378daa952ba7f163c4a11628f55a4df523b3ef846040516112da91815260200190565b60405180910390a3611113565b6001600160a01b0382166113475760405162461bcd60e51b815260206004820152602160248201527f45524332303a206275726e2066726f6d20746865207a65726f206164647265736044820152607360f81b606482015260840161042b565b6001600160a01b038216600090815260656020526040902054818110156113bb5760405162461bcd60e51b815260206004820152602260248201527f45524332303a206275726e20616d6f756e7420657863656564732062616c616e604482015261636560f01b606482015260840161042b565b6001600160a01b03831660009081526065602052604081208383039055606780548492906113ea908490611d2a565b90915550506040518281526000906001600160a01b038516907fddf252ad1be2c89b69c2b068fc378daa952ba7f163c4a11628f55a4df523b3ef90602001610fff565b505050565b60405163095ea7b360e01b81526001600160a01b0383811660048301526000602483015284169063095ea7b3906044016020604051808303816000875af1158015611481573d6000803e3d6000fd5b505050506040513d601f19601f820116820180604052508101906114a59190611dbe565b5060405163095ea7b360e01b81526001600160a01b0383811660048301526024820183905284169063095ea7b3906044016020604051808303816000875af11580156114f5573d6000803e3d6000fd5b505050506040513d601f19601f820116820180604052508101906111139190611dbe565b6040516001600160a01b03831660248201526044810182905261142d90849063a9059cbb60e01b906064015b60408051601f198184030181529190526020810180516001600160e01b03166001600160e01b0319909316929092179091526117dd565b6033546001600160a01b03163314610a305760405162461bcd60e51b815260206004820181905260248201527f4f776e61626c653a2063616c6c6572206973206e6f7420746865206f776e6572604482015260640161042b565b603380546001600160a01b038381166001600160a01b0319831681179093556040519116919082907f8be0079c531659141344cd1fd0a4f28419497f9722a3daafe3b4186f6b6457e090600090a35050565b6040516001600160a01b03808516602483015283166044820152606481018290526111139085906323b872dd60e01b90608401611545565b6001600160a01b0382166116b65760405162461bcd60e51b815260206004820152601f60248201527f45524332303a206d696e7420746f20746865207a65726f206164647265737300604482015260640161042b565b80606760008282546116c89190611d60565b90915550506001600160a01b038216600090815260656020526040812080548392906116f5908490611d60565b90915550506040518181526001600160a01b038316906000907fddf252ad1be2c89b69c2b068fc378daa952ba7f163c4a11628f55a4df523b3ef9060200160405180910390a35050565b600054610100900460ff166117665760405162461bcd60e51b815260040161042b90611d73565b6001609755565b600054610100900460ff166117945760405162461bcd60e51b815260040161042b90611d73565b610a30336115d6565b600054610100900460ff166117c45760405162461bcd60e51b815260040161042b90611d73565b60686117d08382611e2e565b50606961142d8282611e2e565b6000611832826040518060400160405280602081526020017f5361666545524332303a206c6f772d6c6576656c2063616c6c206661696c6564815250856001600160a01b03166118af9092919063ffffffff16565b80519091501561142d57808060200190518101906118509190611dbe565b61142d5760405162461bcd60e51b815260206004820152602a60248201527f5361666545524332303a204552433230206f7065726174696f6e20646964206e6044820152691bdd081cdd58d8d9595960b21b606482015260840161042b565b60606118be84846000856118c6565b949350505050565b6060824710156119275760405162461bcd60e51b815260206004820152602660248201527f416464726573733a20696e73756666696369656e742062616c616e636520666f6044820152651c8818d85b1b60d21b606482015260840161042b565b6001600160a01b0385163b61197e5760405162461bcd60e51b815260206004820152601d60248201527f416464726573733a2063616c6c20746f206e6f6e2d636f6e7472616374000000604482015260640161042b565b600080866001600160a01b0316858760405161199a9190611eee565b60006040518083038185875af1925050503d80600081146119d7576040519150601f19603f3d011682016040523d82523d6000602084013e6119dc565b606091505b50915091506119ec8282866119f7565b979650505050505050565b60608315611a065750816105b6565b825115611a165782518084602001fd5b8160405162461bcd60e51b815260040161042b9190611a54565b60005b83811015611a4b578181015183820152602001611a33565b50506000910152565b6020815260008251806020840152611a73816040850160208701611a30565b601f01601f19169190910160400192915050565b6001600160a01b0381168114610ee457600080fd5b60008060408385031215611aaf57600080fd5b8235611aba81611a87565b946020939093013593505050565b634e487b7160e01b600052604160045260246000fd5b600082601f830112611aef57600080fd5b813567ffffffffffffffff80821115611b0a57611b0a611ac8565b604051601f8301601f19908116603f01168101908282118183101715611b3257611b32611ac8565b81604052838152866020858801011115611b4b57600080fd5b836020870160208301376000602085830101528094505050505092915050565b60008060008060808587031215611b8157600080fd5b8435611b8c81611a87565b93506020850135611b9c81611a87565b9250604085013567ffffffffffffffff80821115611bb957600080fd5b611bc588838901611ade565b93506060870135915080821115611bdb57600080fd5b50611be887828801611ade565b91505092959194509250565b600080600060608486031215611c0957600080fd5b8335611c1481611a87565b92506020840135611c2481611a87565b929592945050506040919091013590565b600060208284031215611c4757600080fd5b5035919050565b600060208284031215611c6057600080fd5b81356105b681611a87565b60008060408385031215611c7e57600080fd5b8235611c8981611a87565b91506020830135611c9981611a87565b809150509250929050565b600181811c90821680611cb857607f821691505b602082108103611cd857634e487b7160e01b600052602260045260246000fd5b50919050565b600060208284031215611cf057600080fd5b81516105b681611a87565b600060208284031215611d0d57600080fd5b5051919050565b634e487b7160e01b600052601160045260246000fd5b8181038181111561038c5761038c611d14565b600060208284031215611d4f57600080fd5b815160ff811681146105b657600080fd5b8082018082111561038c5761038c611d14565b6020808252602b908201527f496e697469616c697a61626c653a20636f6e7472616374206973206e6f74206960408201526a6e697469616c697a696e6760a81b606082015260800190565b600060208284031215611dd057600080fd5b815180151581146105b657600080fd5b601f82111561142d57600081815260208120601f850160051c81016020861015611e075750805b601f850160051c820191505b81811015611e2657828155600101611e13565b505050505050565b815167ffffffffffffffff811115611e4857611e48611ac8565b611e5c81611e568454611ca4565b84611de0565b602080601f831160018114611e915760008415611e795750858301515b600019600386901b1c1916600185901b178555611e26565b600085815260208120601f198616915b82811015611ec057888601518255948401946001909101908401611ea1565b5085821015611ede5787850151600019600388901b60f8161c191681555b5050505050600190811b01905550565b60008251611f00818460208701611a30565b919091019291505056fea2646970667358221220659189df25483f4273aed1437b481d2ef898224ddfc39e130338f2a58613c5cd64736f6c63430008100033",
  "devdoc": {
    "author": "BlueberryProtocol",
    "details": "SoftVault is communicating with bTokens to lend and borrow underlying tokens from/to Blueberry Money Market.      Underlying tokens can be ERC20 tokens listed by Blueberry team, such as USDC, USDT, DAI, WETH, ...",
    "kind": "dev",
    "methods": {
      "allowance(address,address)": {
        "details": "See {IERC20-allowance}."
      },
      "approve(address,uint256)": {
        "details": "See {IERC20-approve}. NOTE: If `amount` is the maximum `uint256`, the allowance is not updated on `transferFrom`. This is semantically equivalent to an infinite approval. Requirements: - `spender` cannot be the zero address."
      },
      "balanceOf(address)": {
        "details": "See {IERC20-balanceOf}."
      },
      "constructor": {
        "custom:oz-upgrades-unsafe-allow": "constructor"
      },
      "decimals()": {
        "details": "Vault has same decimal as bToken, bToken has same decimal as underlyingToken"
      },
      "decreaseAllowance(address,uint256)": {
        "details": "Atomically decreases the allowance granted to `spender` by the caller. This is an alternative to {approve} that can be used as a mitigation for problems described in {IERC20-approve}. Emits an {Approval} event indicating the updated allowance. Requirements: - `spender` cannot be the zero address. - `spender` must have allowance for the caller of at least `subtractedValue`."
      },
      "deposit(uint256)": {
        "details": "Emits a {Deposited} event.",
        "params": {
          "amount": "Underlying token amount to deposit"
        },
        "returns": {
          "shareAmount": "same as bToken amount received"
        }
      },
      "increaseAllowance(address,uint256)": {
        "details": "Atomically increases the allowance granted to `spender` by the caller. This is an alternative to {approve} that can be used as a mitigation for problems described in {IERC20-approve}. Emits an {Approval} event indicating the updated allowance. Requirements: - `spender` cannot be the zero address."
      },
      "initialize(address,address,string,string)": {
        "params": {
          "_bToken": "Address of bToken",
          "_config": "Address of protocol configuration",
          "_name": "ERC20 name for the SoftVault token",
          "_symbol": "ERC20 symbol for the SoftVault token"
        }
      },
      "name()": {
        "details": "Returns the name of the token."
      },
      "owner()": {
        "details": "Returns the address of the current owner."
      },
      "renounceOwnership()": {
        "details": "Leaves the contract without owner. It will not be possible to call `onlyOwner` functions anymore. Can only be called by the current owner. NOTE: Renouncing ownership will leave the contract without an owner, thereby removing any functionality that is only available to the owner."
      },
      "symbol()": {
        "details": "Returns the symbol of the token, usually a shorter version of the name."
      },
      "totalSupply()": {
        "details": "See {IERC20-totalSupply}."
      },
      "transfer(address,uint256)": {
        "details": "See {IERC20-transfer}. Requirements: - `to` cannot be the zero address. - the caller must have a balance of at least `amount`."
      },
      "transferFrom(address,address,uint256)": {
        "details": "See {IERC20-transferFrom}. Emits an {Approval} event indicating the updated allowance. This is not required by the EIP. See the note at the beginning of {ERC20}. NOTE: Does not update the allowance if the current allowance is the maximum `uint256`. Requirements: - `from` and `to` cannot be the zero address. - `from` must have a balance of at least `amount`. - the caller must have allowance for ``from``'s tokens of at least `amount`."
      },
      "transferOwnership(address)": {
        "details": "Transfers ownership of the contract to a new account (`newOwner`). Can only be called by the current owner."
      },
      "withdraw(uint256)": {
        "details": "Emits a {Withdrawn} event.It cuts vault withdraw fee when you withdraw within the vault withdraw window",
        "params": {
          "shareAmount": "Amount of bTokens to redeem"
        },
        "returns": {
          "withdrawAmount": "Amount of underlying assets withdrawn"
        }
      }
    },
    "stateVariables": {
      "bToken": {
        "details": "address of bToken for underlying token"
      },
      "config": {
        "details": "address of protocol config"
      },
      "uToken": {
        "details": "address of underlying token"
      }
    },
    "title": "Soft Vault",
    "version": 1
  },
  "userdoc": {
    "errors": {
      "LEND_FAILED(uint256)": [
        {
          "notice": "Thrown when lending to the vault fails."
        }
      ],
      "REDEEM_FAILED(uint256)": [
        {
          "notice": "Thrown when redeeming from the vault fails."
        }
      ],
      "ZERO_ADDRESS()": [
        {
          "notice": "Thrown when the address provided is the zero address."
        }
      ],
      "ZERO_AMOUNT()": [
        {
          "notice": "Thrown when an action involves zero amount of tokens."
        }
      ]
    },
    "events": {
      "Deposited(address,uint256,uint256)": {
        "notice": "Event emitted when an account deposits assets."
      },
      "Withdrawn(address,uint256,uint256)": {
        "notice": "Event emitted when an account withdraws assets."
      }
    },
    "kind": "user",
    "methods": {
      "deposit(uint256)": {
        "notice": "Deposit underlying assets on Blueberry Money Market and issue share token"
      },
      "initialize(address,address,string,string)": {
        "notice": "Initializes the contract"
      },
      "withdraw(uint256)": {
        "notice": "Withdraw underlying assets from Blueberry Money Market"
      }
    },
    "notice": "Soft Vault is a spot where users lend and borrow tokens from/to Blueberry Money Market.",
    "version": 1
  },
  "storageLayout": {
    "storage": [
      {
        "astId": 241,
        "contract": "contracts/vault/SoftVault.sol:SoftVault",
        "label": "_initialized",
        "offset": 0,
        "slot": "0",
        "type": "t_uint8"
      },
      {
        "astId": 244,
        "contract": "contracts/vault/SoftVault.sol:SoftVault",
        "label": "_initializing",
        "offset": 1,
        "slot": "0",
        "type": "t_bool"
      },
      {
        "astId": 3309,
        "contract": "contracts/vault/SoftVault.sol:SoftVault",
        "label": "__gap",
        "offset": 0,
        "slot": "1",
        "type": "t_array(t_uint256)50_storage"
      },
      {
        "astId": 113,
        "contract": "contracts/vault/SoftVault.sol:SoftVault",
        "label": "_owner",
        "offset": 0,
        "slot": "51",
        "type": "t_address"
      },
      {
        "astId": 233,
        "contract": "contracts/vault/SoftVault.sol:SoftVault",
        "label": "__gap",
        "offset": 0,
        "slot": "52",
        "type": "t_array(t_uint256)49_storage"
      },
      {
        "astId": 2013,
        "contract": "contracts/vault/SoftVault.sol:SoftVault",
        "label": "_balances",
        "offset": 0,
        "slot": "101",
        "type": "t_mapping(t_address,t_uint256)"
      },
      {
        "astId": 2019,
        "contract": "contracts/vault/SoftVault.sol:SoftVault",
        "label": "_allowances",
        "offset": 0,
        "slot": "102",
        "type": "t_mapping(t_address,t_mapping(t_address,t_uint256))"
      },
      {
        "astId": 2021,
        "contract": "contracts/vault/SoftVault.sol:SoftVault",
        "label": "_totalSupply",
        "offset": 0,
        "slot": "103",
        "type": "t_uint256"
      },
      {
        "astId": 2023,
        "contract": "contracts/vault/SoftVault.sol:SoftVault",
        "label": "_name",
        "offset": 0,
        "slot": "104",
        "type": "t_string_storage"
      },
      {
        "astId": 2025,
        "contract": "contracts/vault/SoftVault.sol:SoftVault",
        "label": "_symbol",
        "offset": 0,
        "slot": "105",
        "type": "t_string_storage"
      },
      {
        "astId": 2604,
        "contract": "contracts/vault/SoftVault.sol:SoftVault",
        "label": "__gap",
        "offset": 0,
        "slot": "106",
        "type": "t_array(t_uint256)45_storage"
      },
      {
        "astId": 526,
        "contract": "contracts/vault/SoftVault.sol:SoftVault",
        "label": "_status",
        "offset": 0,
        "slot": "151",
        "type": "t_uint256"
      },
      {
        "astId": 570,
        "contract": "contracts/vault/SoftVault.sol:SoftVault",
        "label": "__gap",
        "offset": 0,
        "slot": "152",
        "type": "t_array(t_uint256)49_storage"
      },
      {
        "astId": 35657,
        "contract": "contracts/vault/SoftVault.sol:SoftVault",
        "label": "bToken",
        "offset": 0,
        "slot": "201",
        "type": "t_contract(ICErc20)14582"
      },
      {
        "astId": 35661,
        "contract": "contracts/vault/SoftVault.sol:SoftVault",
        "label": "uToken",
        "offset": 0,
        "slot": "202",
        "type": "t_contract(IERC20Upgradeable)2683"
      },
      {
        "astId": 35665,
        "contract": "contracts/vault/SoftVault.sol:SoftVault",
        "label": "config",
        "offset": 0,
        "slot": "203",
        "type": "t_contract(IProtocolConfig)13609"
      }
    ],
    "types": {
      "t_address": {
        "encoding": "inplace",
        "label": "address",
        "numberOfBytes": "20"
      },
      "t_array(t_uint256)45_storage": {
        "base": "t_uint256",
        "encoding": "inplace",
        "label": "uint256[45]",
        "numberOfBytes": "1440"
      },
      "t_array(t_uint256)49_storage": {
        "base": "t_uint256",
        "encoding": "inplace",
        "label": "uint256[49]",
        "numberOfBytes": "1568"
      },
      "t_array(t_uint256)50_storage": {
        "base": "t_uint256",
        "encoding": "inplace",
        "label": "uint256[50]",
        "numberOfBytes": "1600"
      },
      "t_bool": {
        "encoding": "inplace",
        "label": "bool",
        "numberOfBytes": "1"
      },
      "t_contract(ICErc20)14582": {
        "encoding": "inplace",
        "label": "contract ICErc20",
        "numberOfBytes": "20"
      },
      "t_contract(IERC20Upgradeable)2683": {
        "encoding": "inplace",
        "label": "contract IERC20Upgradeable",
        "numberOfBytes": "20"
      },
      "t_contract(IProtocolConfig)13609": {
        "encoding": "inplace",
        "label": "contract IProtocolConfig",
        "numberOfBytes": "20"
      },
      "t_mapping(t_address,t_mapping(t_address,t_uint256))": {
        "encoding": "mapping",
        "key": "t_address",
        "label": "mapping(address => mapping(address => uint256))",
        "numberOfBytes": "32",
        "value": "t_mapping(t_address,t_uint256)"
      },
      "t_mapping(t_address,t_uint256)": {
        "encoding": "mapping",
        "key": "t_address",
        "label": "mapping(address => uint256)",
        "numberOfBytes": "32",
        "value": "t_uint256"
      },
      "t_string_storage": {
        "encoding": "bytes",
        "label": "string",
        "numberOfBytes": "32"
      },
      "t_uint256": {
        "encoding": "inplace",
        "label": "uint256",
        "numberOfBytes": "32"
      },
      "t_uint8": {
        "encoding": "inplace",
        "label": "uint8",
        "numberOfBytes": "1"
      }
    }
  }
}