{
  "_format": "hh-sol-artifact-1",
  "contractName": "UniswapV2Oracle",
  "sourceName": "contracts/oracle/UniswapV2Oracle.sol",
  "abi": [
    {
      "inputs": [],
      "stateMutability": "nonpayable",
      "type": "constructor"
    },
    {
      "inputs": [],
      "name": "ZERO_ADDRESS",
      "type": "error"
    },
    {
      "anonymous": false,
      "inputs": [
        {
          "indexed": false,
          "internalType": "uint8",
          "name": "version",
          "type": "uint8"
        }
      ],
      "name": "Initialized",
      "type": "event"
    },
    {
      "anonymous": false,
      "inputs": [
        {
          "indexed": true,
          "internalType": "address",
          "name": "previousOwner",
          "type": "address"
        },
        {
          "indexed": true,
          "internalType": "address",
          "name": "newOwner",
          "type": "address"
        }
      ],
      "name": "OwnershipTransferStarted",
      "type": "event"
    },
    {
      "anonymous": false,
      "inputs": [
        {
          "indexed": true,
          "internalType": "address",
          "name": "previousOwner",
          "type": "address"
        },
        {
          "indexed": true,
          "internalType": "address",
          "name": "newOwner",
          "type": "address"
        }
      ],
      "name": "OwnershipTransferred",
      "type": "event"
    },
    {
      "anonymous": false,
      "inputs": [
        {
          "indexed": false,
          "internalType": "address",
          "name": "token",
          "type": "address"
        }
      ],
      "name": "RegisterLpToken",
      "type": "event"
    },
    {
      "inputs": [],
      "name": "acceptOwnership",
      "outputs": [],
      "stateMutability": "nonpayable",
      "type": "function"
    },
    {
      "inputs": [],
      "name": "getBaseOracle",
      "outputs": [
        {
          "internalType": "contract IBaseOracle",
          "name": "",
          "type": "address"
        }
      ],
      "stateMutability": "view",
      "type": "function"
    },
    {
      "inputs": [
        {
          "internalType": "address",
          "name": "pair",
          "type": "address"
        }
      ],
      "name": "getPrice",
      "outputs": [
        {
          "internalType": "uint256",
          "name": "",
          "type": "uint256"
        }
      ],
      "stateMutability": "nonpayable",
      "type": "function"
    },
    {
      "inputs": [
        {
          "internalType": "address",
          "name": "pair",
          "type": "address"
        }
      ],
      "name": "getTokenInfo",
      "outputs": [
        {
          "components": [
            {
              "internalType": "address",
              "name": "token0",
              "type": "address"
            },
            {
              "internalType": "address",
              "name": "token1",
              "type": "address"
            },
            {
              "internalType": "uint8",
              "name": "token0Decimals",
              "type": "uint8"
            },
            {
              "internalType": "uint8",
              "name": "token1Decimals",
              "type": "uint8"
            }
          ],
          "internalType": "struct UniswapV2Oracle.TokenInfo",
          "name": "",
          "type": "tuple"
        }
      ],
      "stateMutability": "view",
      "type": "function"
    },
    {
      "inputs": [
        {
          "internalType": "contract IBaseOracle",
          "name": "base",
          "type": "address"
        },
        {
          "internalType": "address",
          "name": "owner",
          "type": "address"
        }
      ],
      "name": "initialize",
      "outputs": [],
      "stateMutability": "nonpayable",
      "type": "function"
    },
    {
      "inputs": [],
      "name": "owner",
      "outputs": [
        {
          "internalType": "address",
          "name": "",
          "type": "address"
        }
      ],
      "stateMutability": "view",
      "type": "function"
    },
    {
      "inputs": [],
      "name": "pendingOwner",
      "outputs": [
        {
          "internalType": "address",
          "name": "",
          "type": "address"
        }
      ],
      "stateMutability": "view",
      "type": "function"
    },
    {
      "inputs": [
        {
          "internalType": "address",
          "name": "pair",
          "type": "address"
        }
      ],
      "name": "registerPair",
      "outputs": [],
      "stateMutability": "nonpayable",
      "type": "function"
    },
    {
      "inputs": [],
      "name": "renounceOwnership",
      "outputs": [],
      "stateMutability": "nonpayable",
      "type": "function"
    },
    {
      "inputs": [
        {
          "internalType": "address",
          "name": "newOwner",
          "type": "address"
        }
      ],
      "name": "transferOwnership",
      "outputs": [],
      "stateMutability": "nonpayable",
      "type": "function"
    }
  ],
  "bytecode": "0x608060405234801561001057600080fd5b50610019610026565b610021610026565b6100e5565b600054610100900460ff16156100925760405162461bcd60e51b815260206004820152602760248201527f496e697469616c697a61626c653a20636f6e747261637420697320696e697469604482015266616c697a696e6760c81b606482015260840160405180910390fd5b60005460ff908116146100e3576000805460ff191660ff9081179091556040519081527f7f26b83ff96e1f2b6a682f133852f6798a09c465da95921460cefb38474024989060200160405180910390a15b565b610fb4806100f46000396000f3fe608060405234801561001057600080fd5b506004361061009e5760003560e01c806379ba50971161006657806379ba5097146101665780638da5cb5b1461016e578063dc314b441461017f578063e30c397814610192578063f2fde38b146101a357600080fd5b80631f69565f146100a35780633088794e1461010357806341976e0914610128578063485cc95514610149578063715018a61461015e575b600080fd5b6100b66100b1366004610ca6565b6101b6565b6040805182516001600160a01b039081168252602080850151909116908201528282015160ff90811692820192909252606092830151909116918101919091526080015b60405180910390f35b6097546001600160a01b03165b6040516001600160a01b0390911681526020016100fa565b61013b610136366004610ca6565b61022d565b6040519081526020016100fa565b61015c610157366004610cca565b6104c6565b005b61015c6105e0565b61015c6105f4565b6033546001600160a01b0316610110565b61015c61018d366004610ca6565b61066e565b6065546001600160a01b0316610110565b61015c6101b1366004610ca6565b610924565b60408051608080820183526000808352602080840182905283850182905260609384018290526001600160a01b03958616825260a281529084902084519283018552805486168352600101549485169082015260ff600160a01b8504811693820193909352600160a81b9093049091169082015290565b600080610239836101b6565b905060008390506000816001600160a01b03166318160ddd6040518163ffffffff1660e01b8152600401602060405180830381865afa158015610280573d6000803e3d6000fd5b505050506040513d601f19601f820116820180604052508101906102a49190610d03565b9050806000036102b957506000949350505050565b8251602084015160006102d46097546001600160a01b031690565b9050600080866001600160a01b0316630902f1ac6040518163ffffffff1660e01b8152600401606060405180830381865afa158015610317573d6000803e3d6000fd5b505050506040513d601f19601f8201168201806040525081019061033b9190610d38565b506040516341976e0960e01b81526001600160a01b0388811660048301526001600160701b039384169550919092169250600091908516906341976e09906024016020604051808303816000875af115801561039b573d6000803e3d6000fd5b505050506040513d601f19601f820116820180604052508101906103bf9190610d03565b6040516341976e0960e01b81526001600160a01b0387811660048301529192506000918616906341976e09906024016020604051808303816000875af115801561040d573d6000803e3d6000fd5b505050506040513d601f19601f820116820180604052508101906104319190610d03565b60408b015160608c015191925060ff9081169116600061048482610456856024610d9e565b6104609190610d9e565b61046b90600a610e9b565b610475888a610ea7565b61047f9190610ea7565b610995565b90508a61049461047f8688610ea7565b61049f836002610ea7565b6104a99190610ea7565b6104b39190610ebe565b9f9e505050505050505050505050505050565b600054610100900460ff16158080156104e65750600054600160ff909116105b806105005750303b158015610500575060005460ff166001145b6105685760405162461bcd60e51b815260206004820152602e60248201527f496e697469616c697a61626c653a20636f6e747261637420697320616c72656160448201526d191e481a5b9a5d1a585b1a5e995960921b60648201526084015b60405180910390fd5b6000805460ff19166001179055801561058b576000805461ff0019166101001790555b6105958383610b16565b80156105db576000805461ff0019169055604051600181527f7f26b83ff96e1f2b6a682f133852f6798a09c465da95921460cefb38474024989060200160405180910390a15b505050565b6105e8610b6d565b6105f26000610bc7565b565b60655433906001600160a01b031681146106625760405162461bcd60e51b815260206004820152602960248201527f4f776e61626c6532537465703a2063616c6c6572206973206e6f7420746865206044820152683732bb9037bbb732b960b91b606482015260840161055f565b61066b81610bc7565b50565b610676610b6d565b6001600160a01b03811661069d5760405163538ba4f960e01b815260040160405180910390fd5b60008190506000816001600160a01b0316630dfe16816040518163ffffffff1660e01b8152600401602060405180830381865afa1580156106e2573d6000803e3d6000fd5b505050506040513d601f19601f820116820180604052508101906107069190610ee0565b90506000826001600160a01b031663d21220a76040518163ffffffff1660e01b8152600401602060405180830381865afa158015610748573d6000803e3d6000fd5b505050506040513d601f19601f8201168201806040525081019061076c9190610ee0565b90506040518060800160405280836001600160a01b03168152602001826001600160a01b03168152602001836001600160a01b031663313ce5676040518163ffffffff1660e01b8152600401602060405180830381865afa1580156107d5573d6000803e3d6000fd5b505050506040513d601f19601f820116820180604052508101906107f99190610efd565b60ff168152602001826001600160a01b031663313ce5676040518163ffffffff1660e01b8152600401602060405180830381865afa15801561083f573d6000803e3d6000fd5b505050506040513d601f19601f820116820180604052508101906108639190610efd565b60ff9081169091526001600160a01b03868116600081815260a26020908152604091829020865181549086166001600160a01b03199091161781558682015160019091018054888501516060909901518816600160a81b0260ff60a81b1999909816600160a01b026001600160a81b0319909116929096169190911794909417959095169390931790915590519081527f40b39da51b8530ffd459fd9b3a53974555c0744c0f8b0f15499c129933acbd90910160405180910390a150505050565b61092c610b6d565b606580546001600160a01b0383166001600160a01b0319909116811790915561095d6033546001600160a01b031690565b6001600160a01b03167f38d16b8cac22d99fc7c124b9cd0de2d3fa1faef420bfe791d8c362d765e2270060405160405180910390a350565b6000816000036109a757506000919050565b816001600160801b82106109c05760809190911c9060401b5b6801000000000000000082106109db5760409190911c9060201b5b64010000000082106109f25760209190911c9060101b5b620100008210610a075760109190911c9060081b5b6101008210610a1b5760089190911c9060041b5b60108210610a2e5760049190911c9060021b5b60088210610a3a5760011b5b6001610a468286610ebe565b610a509083610f20565b901c90506001610a608286610ebe565b610a6a9083610f20565b901c90506001610a7a8286610ebe565b610a849083610f20565b901c90506001610a948286610ebe565b610a9e9083610f20565b901c90506001610aae8286610ebe565b610ab89083610f20565b901c90506001610ac88286610ebe565b610ad29083610f20565b901c90506001610ae28286610ebe565b610aec9083610f20565b901c90506000610afc8286610ebe565b9050808210610b0b5780610b0d565b815b95945050505050565b600054610100900460ff16610b3d5760405162461bcd60e51b815260040161055f90610f33565b609780546001600160a01b0319166001600160a01b038416179055610b60610be0565b610b6981610bc7565b5050565b6033546001600160a01b031633146105f25760405162461bcd60e51b815260206004820181905260248201527f4f776e61626c653a2063616c6c6572206973206e6f7420746865206f776e6572604482015260640161055f565b606580546001600160a01b031916905561066b81610c0f565b600054610100900460ff16610c075760405162461bcd60e51b815260040161055f90610f33565b6105f2610c61565b603380546001600160a01b038381166001600160a01b0319831681179093556040519116919082907f8be0079c531659141344cd1fd0a4f28419497f9722a3daafe3b4186f6b6457e090600090a35050565b600054610100900460ff16610c885760405162461bcd60e51b815260040161055f90610f33565b6105f233610bc7565b6001600160a01b038116811461066b57600080fd5b600060208284031215610cb857600080fd5b8135610cc381610c91565b9392505050565b60008060408385031215610cdd57600080fd5b8235610ce881610c91565b91506020830135610cf881610c91565b809150509250929050565b600060208284031215610d1557600080fd5b5051919050565b80516001600160701b0381168114610d3357600080fd5b919050565b600080600060608486031215610d4d57600080fd5b610d5684610d1c565b9250610d6460208501610d1c565b9150604084015163ffffffff81168114610d7d57600080fd5b809150509250925092565b634e487b7160e01b600052601160045260246000fd5b81810381811115610db157610db1610d88565b92915050565b600181815b80851115610df2578160001904821115610dd857610dd8610d88565b80851615610de557918102915b93841c9390800290610dbc565b509250929050565b600082610e0957506001610db1565b81610e1657506000610db1565b8160018114610e2c5760028114610e3657610e52565b6001915050610db1565b60ff841115610e4757610e47610d88565b50506001821b610db1565b5060208310610133831016604e8410600b8410161715610e75575081810a610db1565b610e7f8383610db7565b8060001904821115610e9357610e93610d88565b029392505050565b6000610cc38383610dfa565b8082028115828204841417610db157610db1610d88565b600082610edb57634e487b7160e01b600052601260045260246000fd5b500490565b600060208284031215610ef257600080fd5b8151610cc381610c91565b600060208284031215610f0f57600080fd5b815160ff81168114610cc357600080fd5b80820180821115610db157610db1610d88565b6020808252602b908201527f496e697469616c697a61626c653a20636f6e7472616374206973206e6f74206960408201526a6e697469616c697a696e6760a81b60608201526080019056fea26469706673582212201c9c2fde4a64319fb132e2f6d7077e036cf1f9663a5a422f6c1566f993d6104964736f6c63430008160033",
  "linkReferences": {},
  "deployedLinkReferences": {}
}