{
  "_format": "hh-sol-artifact-1",
  "contractName": "ShortLongSpell",
  "sourceName": "contracts/spell/ShortLongSpell.sol",
  "abi": [
    {
      "inputs": [],
      "stateMutability": "nonpayable",
      "type": "constructor"
    },
    {
      "inputs": [
        {
          "internalType": "uint256",
          "name": "strategyId",
          "type": "uint256"
        },
        {
          "internalType": "address",
          "name": "colToken",
          "type": "address"
        }
      ],
      "name": "COLLATERAL_NOT_EXIST",
      "type": "error"
    },
    {
      "inputs": [],
      "name": "EXCEED_MAX_LTV",
      "type": "error"
    },
    {
      "inputs": [
        {
          "internalType": "uint256",
          "name": "strategyId",
          "type": "uint256"
        }
      ],
      "name": "EXCEED_MAX_POS_SIZE",
      "type": "error"
    },
    {
      "inputs": [
        {
          "internalType": "uint256",
          "name": "strategyId",
          "type": "uint256"
        }
      ],
      "name": "EXCEED_MIN_POS_SIZE",
      "type": "error"
    },
    {
      "inputs": [
        {
          "internalType": "address",
          "name": "colToken",
          "type": "address"
        }
      ],
      "name": "INCORRECT_COLTOKEN",
      "type": "error"
    },
    {
      "inputs": [
        {
          "internalType": "address",
          "name": "lpToken",
          "type": "address"
        }
      ],
      "name": "INCORRECT_LP",
      "type": "error"
    },
    {
      "inputs": [
        {
          "internalType": "uint256",
          "name": "strategyId",
          "type": "uint256"
        }
      ],
      "name": "INCORRECT_STRATEGY_ID",
      "type": "error"
    },
    {
      "inputs": [
        {
          "internalType": "address",
          "name": "uToken",
          "type": "address"
        }
      ],
      "name": "INCORRECT_UNDERLYING",
      "type": "error"
    },
    {
      "inputs": [],
      "name": "INPUT_ARRAY_MISMATCH",
      "type": "error"
    },
    {
      "inputs": [],
      "name": "INVALID_POS_SIZE",
      "type": "error"
    },
    {
      "inputs": [
        {
          "internalType": "address",
          "name": "spell",
          "type": "address"
        },
        {
          "internalType": "uint256",
          "name": "strategyId",
          "type": "uint256"
        }
      ],
      "name": "STRATEGY_NOT_EXIST",
      "type": "error"
    },
    {
      "inputs": [
        {
          "internalType": "address",
          "name": "swapToken",
          "type": "address"
        }
      ],
      "name": "SWAP_FAILED",
      "type": "error"
    },
    {
      "inputs": [],
      "name": "ZERO_ADDRESS",
      "type": "error"
    },
    {
      "inputs": [],
      "name": "ZERO_AMOUNT",
      "type": "error"
    },
    {
      "anonymous": false,
      "inputs": [
        {
          "indexed": false,
          "internalType": "uint256",
          "name": "strategyId",
          "type": "uint256"
        },
        {
          "indexed": false,
          "internalType": "address[]",
          "name": "collaterals",
          "type": "address[]"
        },
        {
          "indexed": false,
          "internalType": "uint256[]",
          "name": "maxLTVs",
          "type": "uint256[]"
        }
      ],
      "name": "CollateralsMaxLTVSet",
      "type": "event"
    },
    {
      "anonymous": false,
      "inputs": [
        {
          "indexed": false,
          "internalType": "uint8",
          "name": "version",
          "type": "uint8"
        }
      ],
      "name": "Initialized",
      "type": "event"
    },
    {
      "anonymous": false,
      "inputs": [
        {
          "indexed": true,
          "internalType": "address",
          "name": "previousOwner",
          "type": "address"
        },
        {
          "indexed": true,
          "internalType": "address",
          "name": "newOwner",
          "type": "address"
        }
      ],
      "name": "OwnershipTransferStarted",
      "type": "event"
    },
    {
      "anonymous": false,
      "inputs": [
        {
          "indexed": true,
          "internalType": "address",
          "name": "previousOwner",
          "type": "address"
        },
        {
          "indexed": true,
          "internalType": "address",
          "name": "newOwner",
          "type": "address"
        }
      ],
      "name": "OwnershipTransferred",
      "type": "event"
    },
    {
      "anonymous": false,
      "inputs": [
        {
          "indexed": false,
          "internalType": "uint256",
          "name": "strategyId",
          "type": "uint256"
        },
        {
          "indexed": false,
          "internalType": "address",
          "name": "vault",
          "type": "address"
        },
        {
          "indexed": false,
          "internalType": "uint256",
          "name": "minPosSize",
          "type": "uint256"
        },
        {
          "indexed": false,
          "internalType": "uint256",
          "name": "maxPosSize",
          "type": "uint256"
        }
      ],
      "name": "StrategyAdded",
      "type": "event"
    },
    {
      "anonymous": false,
      "inputs": [
        {
          "indexed": false,
          "internalType": "uint256",
          "name": "strategyId",
          "type": "uint256"
        },
        {
          "indexed": false,
          "internalType": "uint256",
          "name": "minPosSize",
          "type": "uint256"
        },
        {
          "indexed": false,
          "internalType": "uint256",
          "name": "maxPosSize",
          "type": "uint256"
        }
      ],
      "name": "StrategyPosSizeUpdated",
      "type": "event"
    },
    {
      "inputs": [],
      "name": "acceptOwnership",
      "outputs": [],
      "stateMutability": "nonpayable",
      "type": "function"
    },
    {
      "inputs": [
        {
          "internalType": "address",
          "name": "swapToken",
          "type": "address"
        },
        {
          "internalType": "uint256",
          "name": "minPosSize",
          "type": "uint256"
        },
        {
          "internalType": "uint256",
          "name": "maxPosSize",
          "type": "uint256"
        }
      ],
      "name": "addStrategy",
      "outputs": [],
      "stateMutability": "nonpayable",
      "type": "function"
    },
    {
      "inputs": [
        {
          "components": [
            {
              "internalType": "uint256",
              "name": "strategyId",
              "type": "uint256"
            },
            {
              "internalType": "address",
              "name": "collToken",
              "type": "address"
            },
            {
              "internalType": "address",
              "name": "borrowToken",
              "type": "address"
            },
            {
              "internalType": "uint256",
              "name": "amountRepay",
              "type": "uint256"
            },
            {
              "internalType": "uint256",
              "name": "amountPosRemove",
              "type": "uint256"
            },
            {
              "internalType": "uint256",
              "name": "amountShareWithdraw",
              "type": "uint256"
            },
            {
              "internalType": "uint256",
              "name": "amountOutMin",
              "type": "uint256"
            },
            {
              "internalType": "uint256",
              "name": "amountToSwap",
              "type": "uint256"
            },
            {
              "internalType": "bytes",
              "name": "swapData",
              "type": "bytes"
            }
          ],
          "internalType": "struct IBasicSpell.ClosePosParam",
          "name": "param",
          "type": "tuple"
        },
        {
          "internalType": "bytes",
          "name": "swapData",
          "type": "bytes"
        }
      ],
      "name": "closePosition",
      "outputs": [],
      "stateMutability": "nonpayable",
      "type": "function"
    },
    {
      "inputs": [],
      "name": "getAugustusSwapper",
      "outputs": [
        {
          "internalType": "address",
          "name": "",
          "type": "address"
        }
      ],
      "stateMutability": "view",
      "type": "function"
    },
    {
      "inputs": [],
      "name": "getBank",
      "outputs": [
        {
          "internalType": "contract IBank",
          "name": "",
          "type": "address"
        }
      ],
      "stateMutability": "view",
      "type": "function"
    },
    {
      "inputs": [
        {
          "internalType": "uint256",
          "name": "strategyId",
          "type": "uint256"
        },
        {
          "internalType": "address",
          "name": "collateral",
          "type": "address"
        }
      ],
      "name": "getMaxLTV",
      "outputs": [
        {
          "internalType": "uint256",
          "name": "",
          "type": "uint256"
        }
      ],
      "stateMutability": "view",
      "type": "function"
    },
    {
      "inputs": [
        {
          "internalType": "uint256",
          "name": "strategyId",
          "type": "uint256"
        }
      ],
      "name": "getStrategy",
      "outputs": [
        {
          "components": [
            {
              "internalType": "address",
              "name": "vault",
              "type": "address"
            },
            {
              "internalType": "uint256",
              "name": "minPositionSize",
              "type": "uint256"
            },
            {
              "internalType": "uint256",
              "name": "maxPositionSize",
              "type": "uint256"
            }
          ],
          "internalType": "struct IBasicSpell.Strategy",
          "name": "",
          "type": "tuple"
        }
      ],
      "stateMutability": "view",
      "type": "function"
    },
    {
      "inputs": [],
      "name": "getTokenTransferProxy",
      "outputs": [
        {
          "internalType": "address",
          "name": "",
          "type": "address"
        }
      ],
      "stateMutability": "view",
      "type": "function"
    },
    {
      "inputs": [],
      "name": "getWETH",
      "outputs": [
        {
          "internalType": "address",
          "name": "",
          "type": "address"
        }
      ],
      "stateMutability": "view",
      "type": "function"
    },
    {
      "inputs": [],
      "name": "getWrappedERC20",
      "outputs": [
        {
          "internalType": "contract IWERC20",
          "name": "",
          "type": "address"
        }
      ],
      "stateMutability": "view",
      "type": "function"
    },
    {
      "inputs": [
        {
          "internalType": "address",
          "name": "token",
          "type": "address"
        },
        {
          "internalType": "uint256",
          "name": "amount",
          "type": "uint256"
        }
      ],
      "name": "increasePosition",
      "outputs": [],
      "stateMutability": "nonpayable",
      "type": "function"
    },
    {
      "inputs": [
        {
          "internalType": "contract IBank",
          "name": "bank",
          "type": "address"
        },
        {
          "internalType": "address",
          "name": "werc20",
          "type": "address"
        },
        {
          "internalType": "address",
          "name": "weth",
          "type": "address"
        },
        {
          "internalType": "address",
          "name": "augustusSwapper",
          "type": "address"
        },
        {
          "internalType": "address",
          "name": "tokenTransferProxy",
          "type": "address"
        },
        {
          "internalType": "address",
          "name": "owner",
          "type": "address"
        }
      ],
      "name": "initialize",
      "outputs": [],
      "stateMutability": "nonpayable",
      "type": "function"
    },
    {
      "inputs": [
        {
          "internalType": "address",
          "name": "",
          "type": "address"
        },
        {
          "internalType": "address",
          "name": "",
          "type": "address"
        },
        {
          "internalType": "uint256[]",
          "name": "",
          "type": "uint256[]"
        },
        {
          "internalType": "uint256[]",
          "name": "",
          "type": "uint256[]"
        },
        {
          "internalType": "bytes",
          "name": "",
          "type": "bytes"
        }
      ],
      "name": "onERC1155BatchReceived",
      "outputs": [
        {
          "internalType": "bytes4",
          "name": "",
          "type": "bytes4"
        }
      ],
      "stateMutability": "pure",
      "type": "function"
    },
    {
      "inputs": [
        {
          "internalType": "address",
          "name": "",
          "type": "address"
        },
        {
          "internalType": "address",
          "name": "",
          "type": "address"
        },
        {
          "internalType": "uint256",
          "name": "",
          "type": "uint256"
        },
        {
          "internalType": "uint256",
          "name": "",
          "type": "uint256"
        },
        {
          "internalType": "bytes",
          "name": "",
          "type": "bytes"
        }
      ],
      "name": "onERC1155Received",
      "outputs": [
        {
          "internalType": "bytes4",
          "name": "",
          "type": "bytes4"
        }
      ],
      "stateMutability": "pure",
      "type": "function"
    },
    {
      "inputs": [
        {
          "components": [
            {
              "internalType": "uint256",
              "name": "strategyId",
              "type": "uint256"
            },
            {
              "internalType": "address",
              "name": "collToken",
              "type": "address"
            },
            {
              "internalType": "uint256",
              "name": "collAmount",
              "type": "uint256"
            },
            {
              "internalType": "address",
              "name": "borrowToken",
              "type": "address"
            },
            {
              "internalType": "uint256",
              "name": "borrowAmount",
              "type": "uint256"
            },
            {
              "internalType": "uint256",
              "name": "farmingPoolId",
              "type": "uint256"
            }
          ],
          "internalType": "struct IBasicSpell.OpenPosParam",
          "name": "param",
          "type": "tuple"
        },
        {
          "internalType": "bytes",
          "name": "swapData",
          "type": "bytes"
        }
      ],
      "name": "openPosition",
      "outputs": [],
      "stateMutability": "nonpayable",
      "type": "function"
    },
    {
      "inputs": [],
      "name": "owner",
      "outputs": [
        {
          "internalType": "address",
          "name": "",
          "type": "address"
        }
      ],
      "stateMutability": "view",
      "type": "function"
    },
    {
      "inputs": [],
      "name": "pendingOwner",
      "outputs": [
        {
          "internalType": "address",
          "name": "",
          "type": "address"
        }
      ],
      "stateMutability": "view",
      "type": "function"
    },
    {
      "inputs": [
        {
          "internalType": "uint256",
          "name": "strategyId",
          "type": "uint256"
        },
        {
          "internalType": "address",
          "name": "collToken",
          "type": "address"
        },
        {
          "internalType": "uint256",
          "name": "collShareAmount",
          "type": "uint256"
        }
      ],
      "name": "reducePosition",
      "outputs": [],
      "stateMutability": "nonpayable",
      "type": "function"
    },
    {
      "inputs": [],
      "name": "renounceOwnership",
      "outputs": [],
      "stateMutability": "nonpayable",
      "type": "function"
    },
    {
      "inputs": [
        {
          "internalType": "uint256",
          "name": "strategyId",
          "type": "uint256"
        },
        {
          "internalType": "address[]",
          "name": "collaterals",
          "type": "address[]"
        },
        {
          "internalType": "uint256[]",
          "name": "maxLTVs",
          "type": "uint256[]"
        }
      ],
      "name": "setCollateralsMaxLTVs",
      "outputs": [],
      "stateMutability": "nonpayable",
      "type": "function"
    },
    {
      "inputs": [
        {
          "internalType": "uint256",
          "name": "strategyId",
          "type": "uint256"
        },
        {
          "internalType": "uint256",
          "name": "minPosSize",
          "type": "uint256"
        },
        {
          "internalType": "uint256",
          "name": "maxPosSize",
          "type": "uint256"
        }
      ],
      "name": "setPosSize",
      "outputs": [],
      "stateMutability": "nonpayable",
      "type": "function"
    },
    {
      "inputs": [
        {
          "internalType": "bytes4",
          "name": "interfaceId",
          "type": "bytes4"
        }
      ],
      "name": "supportsInterface",
      "outputs": [
        {
          "internalType": "bool",
          "name": "",
          "type": "bool"
        }
      ],
      "stateMutability": "view",
      "type": "function"
    },
    {
      "inputs": [
        {
          "internalType": "address",
          "name": "newOwner",
          "type": "address"
        }
      ],
      "name": "transferOwnership",
      "outputs": [],
      "stateMutability": "nonpayable",
      "type": "function"
    },
    {
      "stateMutability": "payable",
      "type": "receive"
    }
  ],
  "bytecode": "0x60806040523480156200001157600080fd5b506200001c6200002c565b620000266200002c565b620000ed565b600054610100900460ff1615620000995760405162461bcd60e51b815260206004820152602760248201527f496e697469616c697a61626c653a20636f6e747261637420697320696e697469604482015266616c697a696e6760c81b606482015260840160405180910390fd5b60005460ff90811614620000eb576000805460ff191660ff9081179091556040519081527f7f26b83ff96e1f2b6a682f133852f6798a09c465da95921460cefb38474024989060200160405180910390a15b565b6139e580620000fd6000396000f3fe6080604052600436106101445760003560e01c80639b657070116100b6578063d2c4b5981161006f578063d2c4b598146103ed578063e30c39781461040b578063eeea72c414610429578063f23a6e6114610449578063f2fde38b14610476578063fa34d6111461049657600080fd5b80639b657070146102de578063bc197c81146102fc578063be41d9d214610344578063cae5f11e14610364578063cc2a9a5b14610382578063cfc0cc34146103a257600080fd5b806360d704db1161010857806360d704db1461022657806366a1a0f014610258578063715018a61461027857806379ba50971461028d5780638b5c97c7146102a25780638da5cb5b146102c057600080fd5b806301ffc9a714610150578063024aeb32146101965780631a41241c146101b85780631f418713146101e65780633773678d1461020657600080fd5b3661014b57005b600080fd5b34801561015c57600080fd5b5061018161016b366004612f27565b6001600160e01b031916630271189760e51b1490565b60405190151581526020015b60405180910390f35b3480156101a257600080fd5b506101b66101b1366004613035565b6104b6565b005b3480156101c457600080fd5b506101d86101d3366004613102565b61065e565b60405190815260200161018d565b3480156101f257600080fd5b506101b6610201366004613132565b610688565b34801561021257600080fd5b506101b661022136600461315e565b61078a565b34801561023257600080fd5b506097546001600160a01b03165b6040516001600160a01b03909116815260200161018d565b34801561026457600080fd5b506101b66102733660046131d3565b610798565b34801561028457600080fd5b506101b66109ff565b34801561029957600080fd5b506101b6610a13565b3480156102ae57600080fd5b50609a546001600160a01b0316610240565b3480156102cc57600080fd5b506033546001600160a01b0316610240565b3480156102ea57600080fd5b506098546001600160a01b0316610240565b34801561030857600080fd5b5061032b610317366004613273565b63bc197c8160e01b98975050505050505050565b6040516001600160e01b0319909116815260200161018d565b34801561035057600080fd5b506101b661035f366004613332565b610a8d565b34801561037057600080fd5b506099546001600160a01b0316610240565b34801561038e57600080fd5b506101b661039d36600461336a565b610bf4565b3480156103ae57600080fd5b506103c26103bd3660046133ec565b610d8f565b6040805182516001600160a01b0316815260208084015190820152918101519082015260600161018d565b3480156103f957600080fd5b50609b546001600160a01b0316610240565b34801561041757600080fd5b506065546001600160a01b0316610240565b34801561043557600080fd5b506101b6610444366004613405565b610e18565b34801561045557600080fd5b5061032b61046436600461346a565b63f23a6e6160e01b9695505050505050565b34801561048257600080fd5b506101b66104913660046134e6565b611171565b3480156104a257600080fd5b506101b66104b1366004613503565b6111e2565b609c54839081106104e7573081604051637d8b9ec760e01b81526004016104de929190613538565b60405180910390fd5b6104ef6111fa565b815183511415806104ff57508251155b1561051d5760405163025e650f60e01b815260040160405180910390fd5b60005b835181101561061c5760006001600160a01b031684828151811061054657610546613551565b60200260200101516001600160a01b0316036105755760405163538ba4f960e01b815260040160405180910390fd5b82818151811061058757610587613551565b60200260200101516000036105af57604051630f6fa54560e41b815260040160405180910390fd5b8281815181106105c1576105c1613551565b6020026020010151609d600087815260200190815260200160002060008684815181106105f0576105f0613551565b6020908102919091018101516001600160a01b0316825281019190915260400160002055600101610520565b507f27f3c4b3dd7f84e103b037b6d823521ed2147ae463c4d632bcff511d4818353984848460405161065093929190613567565b60405180910390a150505050565b6000828152609d602090815260408083206001600160a01b03851684529091529020545b92915050565b609c54839081106106b0573081604051637d8b9ec760e01b81526004016104de929190613538565b6106b86111fa565b816000036106d957604051630f6fa54560e41b815260040160405180910390fd5b8183106106f9576040516391b88ab760e01b815260040160405180910390fd5b82609c858154811061070d5761070d613551565b90600052602060002090600302016001018190555081609c858154811061073657610736613551565b6000918252602091829020600260039092020101919091556040805186815291820185905281018390527f02072ffe80e3752e5cc4fe3734dc5ebfcc8db5990257226f29c309147dd0562b90606001610650565b6107948282611254565b5050565b609c5483359081106107c1573081604051637d8b9ec760e01b81526004016104de929190613538565b83356107d360408601602087016134e6565b6000828152609d602090815260408083206001600160a01b038516845290915281205490036108275760405163771ebc0560e11b8152600481018390526001600160a01b03821660248201526044016104de565b6000609c87600001358154811061084057610840613551565b60009182526020918290206040805160608082018352600390940290920180546001600160a01b031683526001810154948301949094526002909301549281019290925290915061089790608089019089016134e6565b6001600160a01b031681600001516001600160a01b031663ee719bc86040518163ffffffff1660e01b8152600401602060405180830381865afa1580156108e2573d6000803e3d6000fd5b505050506040513d601f19601f8201168201806040525081019061090691906135f6565b6001600160a01b0316036109495761092460808801606089016134e6565b604051632fa4e7ef60e11b81526001600160a01b0390911660048201526024016104de565b6109548787876112c2565b6000609c88600001358154811061096d5761096d613551565b60009182526020909120600390910201546040516370a0823160e01b81523060048201526001600160a01b0390911691506109f590829081906370a0823190602401602060405180830381865afa1580156109cc573d6000803e3d6000fd5b505050506040513d601f19601f820116820180604052508101906109f09190613613565b6115c8565b5050505050505050565b610a076111fa565b610a1160006116d4565b565b60655433906001600160a01b03168114610a815760405162461bcd60e51b815260206004820152602960248201527f4f776e61626c6532537465703a2063616c6c6572206973206e6f7420746865206044820152683732bb9037bbb732b960b91b60648201526084016104de565b610a8a816116d4565b50565b6097546040805163f70aedd960e01b815290516000926001600160a01b03169163f70aedd9916004808301926101009291908290030181865afa158015610ad8573d6000803e3d6000fd5b505050506040513d601f19601f82011682018060405250810190610afc919061363c565b9050600081602001516001600160a01b031663a47757728360a001516040518263ffffffff1660e01b8152600401610b3691815260200190565b602060405180830381865afa158015610b53573d6000803e3d6000fd5b505050506040513d601f19601f82011682018060405250810190610b7791906135f6565b9050806001600160a01b0316609c8681548110610b9657610b96613551565b60009182526020909120600390910201546001600160a01b031614610bd15760405163b09dea7360e01b8152600481018690526024016104de565b610bdb84846116ed565b610be484611725565b610bed856117c2565b5050505050565b600054610100900460ff1615808015610c145750600054600160ff909116105b80610c2e5750303b158015610c2e575060005460ff166001145b610c915760405162461bcd60e51b815260206004820152602e60248201527f496e697469616c697a61626c653a20636f6e747261637420697320616c72656160448201526d191e481a5b9a5d1a585b1a5e995960921b60648201526084016104de565b6000805460ff191660011790558015610cb4576000805461ff0019166101001790555b6001600160a01b038416610cdb5760405163538ba4f960e01b815260040160405180910390fd5b6001600160a01b038316610d025760405163538ba4f960e01b815260040160405180910390fd5b609a80546001600160a01b038087166001600160a01b031992831617909255609b805492861692909116919091179055610d408787878787876119d5565b8015610d86576000805461ff0019169055604051600181527f7f26b83ff96e1f2b6a682f133852f6798a09c465da95921460cefb38474024989060200160405180910390a15b50505050505050565b610dbc604051806060016040528060006001600160a01b0316815260200160008152602001600081525090565b609c8281548110610dcf57610dcf613551565b600091825260209182902060408051606081018252600390930290910180546001600160a01b031683526001810154938301939093526002909201549181019190915292915050565b609c548335908110610e41573081604051637d8b9ec760e01b81526004016104de929190613538565b8335610e5360408601602087016134e6565b6000828152609d602090815260408083206001600160a01b03851684529091528120549003610ea75760405163771ebc0560e11b8152600481018390526001600160a01b03821660248201526044016104de565b6000610ebb6097546001600160a01b031690565b90506000610ed16098546001600160a01b031690565b90506000609c896000013581548110610eec57610eec613551565b6000918252602080832060408051606081018252600390940290910180546001600160a01b0390811680865260018301549486019490945260029091015484830152815163f70aedd960e01b815291519395509193929187169163f70aedd991600480820192610100929091908290030181865afa158015610f72573d6000803e3d6000fd5b505050506040513d601f19601f82011682018060405250810190610f96919061363c565b602081015160a082015160405163523babb960e11b81526004810182905292935090916001600160a01b03858116919084169063a477577290602401602060405180830381865afa158015610fef573d6000803e3d6000fd5b505050506040513d601f19601f8201168201806040525081019061101391906135f6565b6001600160a01b0316146110455760405163a1a006a360e01b81526001600160a01b03851660048201526024016104de565b856001600160a01b0316826001600160a01b03161461108257604051634154f11960e01b81526001600160a01b03831660048201526024016104de565b60405163458070cb60e11b815260808e013560048201526000906001600160a01b03891690638b00e196906024016020604051808303816000875af11580156110cf573d6000803e3d6000fd5b505050506040513d601f19601f820116820180604052508101906110f39190613613565b604051632770a7eb60e21b81529091506001600160a01b03881690639dc29fac906111249088908590600401613538565b600060405180830381600087803b15801561113e57600080fd5b505af1158015611152573d6000803e3d6000fd5b505050506111618e8e8e611b13565b5050505050505050505050505050565b6111796111fa565b606580546001600160a01b0383166001600160a01b031990911681179091556111aa6033546001600160a01b031690565b6001600160a01b03167f38d16b8cac22d99fc7c124b9cd0de2d3fa1faef420bfe791d8c362d765e2270060405160405180910390a350565b6111ea6111fa565b6111f5838383611fad565b505050565b6033546001600160a01b03163314610a115760405162461bcd60e51b815260206004820181905260248201527f4f776e61626c653a2063616c6c6572206973206e6f7420746865206f776e657260448201526064016104de565b80156107945760975460405163a2fb342d60e01b81526001600160a01b039091169063a2fb342d9061128c9085908590600401613538565b600060405180830381600087803b1580156112a657600080fd5b505af11580156112ba573d6000803e3d6000fd5b505050505050565b6000609c8460000135815481106112db576112db613551565b600091825260209182902060408051606081018252600390930290910180546001600160a01b0316835260018101548385015260020154828201529092506113359161132b9187019087016134e6565b8560400135611254565b61135261134860808601606087016134e6565b8560800135612133565b50600081600001516001600160a01b031663ee719bc86040518163ffffffff1660e01b8152600401602060405180830381865afa158015611397573d6000803e3d6000fd5b505050506040513d601f19601f820116820180604052508101906113bb91906135f6565b6040516370a0823160e01b81523060048201529091506000906001600160a01b038316906370a0823190602401602060405180830381865afa158015611405573d6000803e3d6000fd5b505050506040513d601f19601f820116820180604052508101906114299190613613565b9050600061143d60808801606089016134e6565b609a54609b54919250611464916001600160a01b0391821691168360808b01358a8a6122d3565b61148c5760405163f65efd3160e01b81526001600160a01b03821660048201526024016104de565b6040516370a0823160e01b815230600482015282906001600160a01b038516906370a0823190602401602060405180830381865afa1580156114d2573d6000803e3d6000fd5b505050506040513d601f19601f820116820180604052508101906114f69190613613565b6115009190613703565b91508160000361152e5760405163f65efd3160e01b81526001600160a01b03821660048201526024016104de565b8351611545906001600160a01b038516908461236b565b835160405163b6b55f2560e01b8152600481018490526001600160a01b039091169063b6b55f25906024016020604051808303816000875af115801561158f573d6000803e3d6000fd5b505050506040513d601f19601f820116820180604052508101906115b39190613613565b506115be87356117c2565b610d86873561238c565b80156107945760006115e26098546001600160a01b031690565b90506115f86001600160a01b038416828461236b565b6040516340c10f1960e01b81526001600160a01b038216906340c10f19906116269086908690600401613538565b6020604051808303816000875af1158015611645573d6000803e3d6000fd5b505050506040513d601f19601f820116820180604052508101906116699190613613565b5060975460405163314568d960e01b81526001600160a01b0383811660048301528581166024830152604482018590529091169063314568d990606401600060405180830381600087803b1580156116c057600080fd5b505af1158015610d86573d6000803e3d6000fd5b606580546001600160a01b0319169055610a8a81612790565b801561079457609754604051637b7fb58960e11b81526001600160a01b039091169063f6ff6b129061128c9085908590600401613538565b600061173a6001600160a01b038316306127e2565b90508015610794576097546040805163630dc7cb60e01b815290516111f5926001600160a01b03169163630dc7cb9160048083019260209291908290030181865afa15801561178d573d6000803e3d6000fd5b505050506040513d601f19601f820116820180604052508101906117b191906135f6565b6001600160a01b0384169083612874565b60006117d66097546001600160a01b031690565b90506000816001600160a01b031663d7ac71ff6040518163ffffffff1660e01b8152600401602060405180830381865afa158015611818573d6000803e3d6000fd5b505050506040513d601f19601f8201168201806040525081019061183c9190613613565b60405163519f509960e01b8152600481018290529091506000906001600160a01b0384169063519f50999060240161010060405180830381865afa158015611888573d6000803e3d6000fd5b505050506040513d601f19601f820116820180604052508101906118ac919061363c565b60405163c0177bd560e01b8152600481018490529091506000906001600160a01b0385169063c0177bd5906024016020604051808303816000875af11580156118f9573d6000803e3d6000fd5b505050506040513d601f19601f8201168201806040525081019061191d9190613613565b6040516394d95d0560e01b8152600481018590529091506000906001600160a01b038616906394d95d05906024016020604051808303816000875af115801561196a573d6000803e3d6000fd5b505050506040513d601f19601f8201168201806040525081019061198e9190613613565b90506127106119a187856040015161065e565b6119ab9083613716565b6119b5919061372d565b8211156112ba57604051639ec6e1ab60e01b815260040160405180910390fd5b600054610100900460ff166119fc5760405162461bcd60e51b81526004016104de9061374f565b6001600160a01b0386161580611a1957506001600160a01b038516155b80611a2b57506001600160a01b038416155b15611a495760405163538ba4f960e01b815260040160405180910390fd5b611a51612956565b611a5a816116d4565b609780546001600160a01b03199081166001600160a01b03898116918217909355609880548316898516908117909155609980548416898616179055609a80548416888616179055609b80549093169386169390931790915560405163a22cb46560e01b815260048101919091526001602482015263a22cb465906044015b600060405180830381600087803b158015611af357600080fd5b505af1158015611b07573d6000803e3d6000fd5b50505050505050505050565b6000609c846000013581548110611b2c57611b2c613551565b6000918252602080832060408051606081018252600390940290910180546001600160a01b0316808552600182015493850193909352600201549083015290925090611b806097546001600160a01b031690565b90506000816001600160a01b031663d7ac71ff6040518163ffffffff1660e01b8152600401602060405180830381865afa158015611bc2573d6000803e3d6000fd5b505050506040513d601f19601f82011682018060405250810190611be69190613613565b9050608087013560018101611c60576040516370a0823160e01b81523060048201526001600160a01b038516906370a0823190602401602060405180830381865afa158015611c39573d6000803e3d6000fd5b505050506040513d601f19601f82011682018060405250810190611c5d9190613613565b90505b604051632e1a7d4d60e01b8152600481018290526000906001600160a01b03861690632e1a7d4d906024016020604051808303816000875af1158015611caa573d6000803e3d6000fd5b505050506040513d601f19601f82011682018060405250810190611cce9190613613565b9050600086600001516001600160a01b031663ee719bc86040518163ffffffff1660e01b8152600401602060405180830381865afa158015611d14573d6000803e3d6000fd5b505050506040513d601f19601f82011682018060405250810190611d3891906135f6565b6040516370a0823160e01b81523060048201529091506000906001600160a01b038316906370a0823190602401602060405180830381865afa158015611d82573d6000803e3d6000fd5b505050506040513d601f19601f82011682018060405250810190611da69190613613565b609a54609b54919250611dc9916001600160a01b03918216911684868e8e6122d3565b611df15760405163f65efd3160e01b81526001600160a01b03831660048201526024016104de565b611dfb8382613703565b6040516370a0823160e01b81523060048201526001600160a01b038416906370a0823190602401602060405180830381865afa158015611e3f573d6000803e3d6000fd5b505050506040513d601f19601f82011682018060405250810190611e639190613613565b1115611e8d57604051632fa4e7ef60e11b81526001600160a01b03831660048201526024016104de565b50611ead9050611ea360408b0160208c016134e6565b8a60a001356116ed565b611ed8611ec060408b0160208c016134e6565b60e08b0135611ed36101008d018d61379a565b612985565b606089013560018101611f535760405163269a4bad60e01b8152600481018590526001600160a01b0386169063269a4bad906024016020604051808303816000875af1158015611f2c573d6000803e3d6000fd5b505050506040513d601f19601f82011682018060405250810190611f509190613613565b90505b611f6c611f6660608c0160408d016134e6565b826129bf565b50611f7789356117c2565b611f8f611f8a60608b0160408c016134e6565b611725565b611fa2611f8a60408b0160208c016134e6565b505050505050505050565b6001600160a01b038316611fd45760405163538ba4f960e01b815260040160405180910390fd5b80600003611ff557604051630f6fa54560e41b815260040160405180910390fd5b808210612015576040516391b88ab760e01b815260040160405180910390fd5b604080516060810182526001600160a01b03858116825260208201858152928201848152609c805460018082018355600083905294517faf85b9071dfafeac1409d3f1d19bafc9bc7c37974cde8df0ee6168f0086e539c600390920291820180546001600160a01b031916919095161790935593517faf85b9071dfafeac1409d3f1d19bafc9bc7c37974cde8df0ee6168f0086e539d830155517faf85b9071dfafeac1409d3f1d19bafc9bc7c37974cde8df0ee6168f0086e539e9091015590547f66ba603c43e21681e4417f6ba08d4984e7711e0f696718b5c621b9e1f12e64949161210191613703565b604080519182526001600160a01b038616602083015281018490526060810183905260800160405180910390a1505050565b6000811561068257600061214f846001600160a01b0316612ab0565b905060006121656097546001600160a01b031690565b9050600061217b6099546001600160a01b031690565b9050821561225657604051634b8a352960e01b81526001600160a01b03831690634b8a3529906121b19084908990600401613538565b6020604051808303816000875af11580156121d0573d6000803e3d6000fd5b505050506040513d601f19601f820116820180604052508101906121f49190613613565b604051632e1a7d4d60e01b8152600481018290529094506001600160a01b03821690632e1a7d4d90602401600060405180830381600087803b15801561223957600080fd5b505af115801561224d573d6000803e3d6000fd5b505050506122ca565b604051634b8a352960e01b81526001600160a01b03831690634b8a3529906122849089908990600401613538565b6020604051808303816000875af11580156122a3573d6000803e3d6000fd5b505050506040513d601f19601f820116820180604052508101906122c79190613613565b93505b50505092915050565b60006122e0858786612ae9565b6060876001600160a01b031684846040516122fc9291906137e1565b6000604051808303816000865af19150503d8060008114612339576040519150601f19603f3d011682016040523d82523d6000602084013e61233e565b606091505b5090925090506123508688600061236b565b8051156123605780518082602001fd5b509695505050505050565b61237483612ab0565b6111f5576111f56001600160a01b0384168383612b00565b60006123a06097546001600160a01b031690565b90506000609c83815481106123b7576123b7613551565b6000918252602080832060408051606081018252600390940290910180546001600160a01b0390811685526001820154938501939093526002015483820152805163f70aedd960e01b815290519294509085169163f70aedd991600480820192610100929091908290030181865afa158015612437573d6000803e3d6000fd5b505050506040513d601f19601f8201168201806040525081019061245b919061363c565b60208101519091506000906001600160a01b03161561256457836001600160a01b031663833b1fce6040518163ffffffff1660e01b8152600401602060405180830381865afa1580156124b2573d6000803e3d6000fd5b505050506040513d601f19601f820116820180604052508101906124d691906135f6565b602083015160a084015160c08501516040516001621852b960e21b031981526001600160a01b0393841660048201526024810192909252604482015291169063ff9eb51c906064016020604051808303816000875af115801561253d573d6000803e3d6000fd5b505050506040513d601f19601f820116820180604052508101906125619190613613565b90505b82516040516370a0823160e01b81523060048201526000919082906001600160a01b038316906370a0823190602401602060405180830381865afa1580156125b0573d6000803e3d6000fd5b505050506040513d601f19601f820116820180604052508101906125d49190613613565b90506000876001600160a01b031663833b1fce6040518163ffffffff1660e01b8152600401602060405180830381865afa158015612616573d6000803e3d6000fd5b505050506040513d601f19601f8201168201806040525081019061263a91906135f6565b6040516341976e0960e01b81526001600160a01b03858116600483015291909116906341976e09906024016020604051808303816000875af1158015612684573d6000803e3d6000fd5b505050506040513d601f19601f820116820180604052508101906126a89190613613565b9050826001600160a01b031663313ce5676040518163ffffffff1660e01b8152600401602060405180830381865afa1580156126e8573d6000803e3d6000fd5b505050506040513d601f19601f8201168201806040525081019061270c91906137f1565b61271790600a6138f8565b6127218383613716565b61272b919061372d565b604088015190945061273d8587613907565b111561275f5760405163d7eb71dd60e01b8152600481018a90526024016104de565b602087015161276e8587613907565b1015611fa2576040516309f2a95760e01b8152600481018a90526024016104de565b603380546001600160a01b038381166001600160a01b0319831681179093556040519116919082907f8be0079c531659141344cd1fd0a4f28419497f9722a3daafe3b4186f6b6457e090600090a35050565b60006127ed83612ab0565b1561280357506001600160a01b03811631610682565b6040516370a0823160e01b81526001600160a01b0383811660048301528416906370a0823190602401602060405180830381865afa158015612849573d6000803e3d6000fd5b505050506040513d601f19601f8201168201806040525081019061286d9190613613565b9050610682565b6000816000036128865750600161294f565b61288f84612ab0565b15612937576000836001600160a01b03168360405160006040518083038185875af1925050503d80600081146128e1576040519150601f19603f3d011682016040523d82523d6000602084013e6128e6565b606091505b505090508061292d5760405162461bcd60e51b8152602060048201526013602482015272115512081d1c985b9cd9995c8819985a5b1959606a1b60448201526064016104de565b600191505061294f565b61294b6001600160a01b0385168484612bcc565b5060015b9392505050565b600054610100900460ff1661297d5760405162461bcd60e51b81526004016104de9061374f565b610a11612beb565b60008311801561299457508015155b156129b957609a54609b54610bed916001600160a01b039081169116868686866122d3565b50505050565b8015610794576000806129da846001600160a01b0316612ab0565b905060006129f06099546001600160a01b031690565b90508115612a5457806001600160a01b031663d0e30db0856040518263ffffffff1660e01b81526004016000604051808303818588803b158015612a3357600080fd5b505af1158015612a47573d6000803e3d6000fd5b5050505050809250612a58565b8492505b6000612a6c6097546001600160a01b031690565b9050612a826001600160a01b038516828761236b565b604051630450cfaf60e31b81526001600160a01b038216906322867d7890611ad99087908990600401613538565b60006001600160a01b038216158061068257506001600160a01b03821673eeeeeeeeeeeeeeeeeeeeeeeeeeeeeeeeeeeeeeee1492915050565b612af58383600061236b565b6111f583838361236b565b600063095ea7b360e01b8383604051602401612b1d929190613538565b60408051601f198184030181529190526020810180516001600160e01b03166001600160e01b0319909316929092179091529050612b5b8482612c1b565b6129b9576040516001600160a01b038416602482015260006044820152612bc290859063095ea7b360e01b906064015b60408051601f198184030181529190526020810180516001600160e01b03166001600160e01b031990931692909217909152612cc2565b6129b98482612cc2565b6111f58363a9059cbb60e01b8484604051602401612b8b929190613538565b600054610100900460ff16612c125760405162461bcd60e51b81526004016104de9061374f565b610a11336116d4565b6000806000846001600160a01b031684604051612c38919061393e565b6000604051808303816000865af19150503d8060008114612c75576040519150601f19603f3d011682016040523d82523d6000602084013e612c7a565b606091505b5091509150818015612ca4575080511580612ca4575080806020019051810190612ca4919061395a565b8015612cb957506001600160a01b0385163b15155b95945050505050565b6000612d17826040518060400160405280602081526020017f5361666545524332303a206c6f772d6c6576656c2063616c6c206661696c6564815250856001600160a01b0316612d979092919063ffffffff16565b9050805160001480612d38575080806020019051810190612d38919061395a565b6111f55760405162461bcd60e51b815260206004820152602a60248201527f5361666545524332303a204552433230206f7065726174696f6e20646964206e6044820152691bdd081cdd58d8d9595960b21b60648201526084016104de565b6060612da68484600085612dae565b949350505050565b606082471015612e0f5760405162461bcd60e51b815260206004820152602660248201527f416464726573733a20696e73756666696369656e742062616c616e636520666f6044820152651c8818d85b1b60d21b60648201526084016104de565b600080866001600160a01b03168587604051612e2b919061393e565b60006040518083038185875af1925050503d8060008114612e68576040519150601f19603f3d011682016040523d82523d6000602084013e612e6d565b606091505b5091509150612e7e87838387612e89565b979650505050505050565b60608315612ef8578251600003612ef1576001600160a01b0385163b612ef15760405162461bcd60e51b815260206004820152601d60248201527f416464726573733a2063616c6c20746f206e6f6e2d636f6e747261637400000060448201526064016104de565b5081612da6565b612da68383815115612f0d5781518083602001fd5b8060405162461bcd60e51b81526004016104de919061397c565b600060208284031215612f3957600080fd5b81356001600160e01b03198116811461294f57600080fd5b634e487b7160e01b600052604160045260246000fd5b604051601f8201601f1916810167ffffffffffffffff81118282101715612f9057612f90612f51565b604052919050565b600067ffffffffffffffff821115612fb257612fb2612f51565b5060051b60200190565b6001600160a01b0381168114610a8a57600080fd5b600082601f830112612fe257600080fd5b81356020612ff7612ff283612f98565b612f67565b8083825260208201915060208460051b87010193508684111561301957600080fd5b602086015b84811015612360578035835291830191830161301e565b60008060006060848603121561304a57600080fd5b8335925060208085013567ffffffffffffffff8082111561306a57600080fd5b818701915087601f83011261307e57600080fd5b813561308c612ff282612f98565b81815260059190911b8301840190848101908a8311156130ab57600080fd5b938501935b828510156130d25784356130c381612fbc565b825293850193908501906130b0565b9650505060408701359250808311156130ea57600080fd5b50506130f886828701612fd1565b9150509250925092565b6000806040838503121561311557600080fd5b82359150602083013561312781612fbc565b809150509250929050565b60008060006060848603121561314757600080fd5b505081359360208301359350604090920135919050565b6000806040838503121561317157600080fd5b823561317c81612fbc565b946020939093013593505050565b60008083601f84011261319c57600080fd5b50813567ffffffffffffffff8111156131b457600080fd5b6020830191508360208285010111156131cc57600080fd5b9250929050565b600080600083850360e08112156131e957600080fd5b60c08112156131f757600080fd5b5083925060c084013567ffffffffffffffff81111561321557600080fd5b6132218682870161318a565b9497909650939450505050565b60008083601f84011261324057600080fd5b50813567ffffffffffffffff81111561325857600080fd5b6020830191508360208260051b85010111156131cc57600080fd5b60008060008060008060008060a0898b03121561328f57600080fd5b883561329a81612fbc565b975060208901356132aa81612fbc565b9650604089013567ffffffffffffffff808211156132c757600080fd5b6132d38c838d0161322e565b909850965060608b01359150808211156132ec57600080fd5b6132f88c838d0161322e565b909650945060808b013591508082111561331157600080fd5b5061331e8b828c0161318a565b999c989b5096995094979396929594505050565b60008060006060848603121561334757600080fd5b83359250602084013561335981612fbc565b929592945050506040919091013590565b60008060008060008060c0878903121561338357600080fd5b863561338e81612fbc565b9550602087013561339e81612fbc565b945060408701356133ae81612fbc565b935060608701356133be81612fbc565b925060808701356133ce81612fbc565b915060a08701356133de81612fbc565b809150509295509295509295565b6000602082840312156133fe57600080fd5b5035919050565b60008060006040848603121561341a57600080fd5b833567ffffffffffffffff8082111561343257600080fd5b90850190610120828803121561344757600080fd5b9093506020850135908082111561345d57600080fd5b506132218682870161318a565b60008060008060008060a0878903121561348357600080fd5b863561348e81612fbc565b9550602087013561349e81612fbc565b94506040870135935060608701359250608087013567ffffffffffffffff8111156134c857600080fd5b6134d489828a0161318a565b979a9699509497509295939492505050565b6000602082840312156134f857600080fd5b813561294f81612fbc565b60008060006060848603121561351857600080fd5b833561352381612fbc565b95602085013595506040909401359392505050565b6001600160a01b03929092168252602082015260400190565b634e487b7160e01b600052603260045260246000fd5b6000606082018583526020606081850152818651808452608086019150828801935060005b818110156135b15784516001600160a01b03168352938301939183019160010161358c565b50508481036040860152855180825290820192508186019060005b818110156135e8578251855293830193918301916001016135cc565b509298975050505050505050565b60006020828403121561360857600080fd5b815161294f81612fbc565b60006020828403121561362557600080fd5b5051919050565b805161363781612fbc565b919050565b600061010080838503121561365057600080fd5b6040519081019067ffffffffffffffff8211818310171561367357613673612f51565b816040528351915061368482612fbc565b8181526136936020850161362c565b60208201526136a46040850161362c565b60408201526136b56060850161362c565b60608201526080840151608082015260a084015160a082015260c084015160c082015260e084015160e0820152809250505092915050565b634e487b7160e01b600052601160045260246000fd5b81810381811115610682576106826136ed565b8082028115828204841417610682576106826136ed565b60008261374a57634e487b7160e01b600052601260045260246000fd5b500490565b6020808252602b908201527f496e697469616c697a61626c653a20636f6e7472616374206973206e6f74206960408201526a6e697469616c697a696e6760a81b606082015260800190565b6000808335601e198436030181126137b157600080fd5b83018035915067ffffffffffffffff8211156137cc57600080fd5b6020019150368190038213156131cc57600080fd5b8183823760009101908152919050565b60006020828403121561380357600080fd5b815160ff8116811461294f57600080fd5b600181815b8085111561384f578160001904821115613835576138356136ed565b8085161561384257918102915b93841c9390800290613819565b509250929050565b60008261386657506001610682565b8161387357506000610682565b81600181146138895760028114613893576138af565b6001915050610682565b60ff8411156138a4576138a46136ed565b50506001821b610682565b5060208310610133831016604e8410600b84101617156138d2575081810a610682565b6138dc8383613814565b80600019048211156138f0576138f06136ed565b029392505050565b600061294f60ff841683613857565b80820180821115610682576106826136ed565b60005b8381101561393557818101518382015260200161391d565b50506000910152565b6000825161395081846020870161391a565b9190910192915050565b60006020828403121561396c57600080fd5b8151801515811461294f57600080fd5b602081526000825180602084015261399b81604085016020870161391a565b601f01601f1916919091016040019291505056fea2646970667358221220df8a2255ac76bde921e0daf38f3f0cf83df052dbaa3ae0b053723d829000ddaf64736f6c63430008160033",
  "linkReferences": {},
  "deployedLinkReferences": {}
}