{
  "_format": "hh-sol-artifact-1",
  "contractName": "WeightedBPTOracle",
  "sourceName": "contracts/oracle/WeightedBPTOracle.sol",
  "abi": [
    {
      "inputs": [],
      "stateMutability": "nonpayable",
      "type": "constructor"
    },
    {
      "inputs": [],
      "name": "ZERO_ADDRESS",
      "type": "error"
    },
    {
      "anonymous": false,
      "inputs": [
        {
          "indexed": false,
          "internalType": "uint8",
          "name": "version",
          "type": "uint8"
        }
      ],
      "name": "Initialized",
      "type": "event"
    },
    {
      "anonymous": false,
      "inputs": [
        {
          "indexed": true,
          "internalType": "address",
          "name": "previousOwner",
          "type": "address"
        },
        {
          "indexed": true,
          "internalType": "address",
          "name": "newOwner",
          "type": "address"
        }
      ],
      "name": "OwnershipTransferStarted",
      "type": "event"
    },
    {
      "anonymous": false,
      "inputs": [
        {
          "indexed": true,
          "internalType": "address",
          "name": "previousOwner",
          "type": "address"
        },
        {
          "indexed": true,
          "internalType": "address",
          "name": "newOwner",
          "type": "address"
        }
      ],
      "name": "OwnershipTransferred",
      "type": "event"
    },
    {
      "anonymous": false,
      "inputs": [
        {
          "indexed": false,
          "internalType": "address",
          "name": "token",
          "type": "address"
        }
      ],
      "name": "RegisterLpToken",
      "type": "event"
    },
    {
      "inputs": [],
      "name": "acceptOwnership",
      "outputs": [],
      "stateMutability": "nonpayable",
      "type": "function"
    },
    {
      "inputs": [],
      "name": "getBaseOracle",
      "outputs": [
        {
          "internalType": "contract IBaseOracle",
          "name": "",
          "type": "address"
        }
      ],
      "stateMutability": "view",
      "type": "function"
    },
    {
      "inputs": [
        {
          "internalType": "address",
          "name": "bpt",
          "type": "address"
        }
      ],
      "name": "getBptInfo",
      "outputs": [
        {
          "components": [
            {
              "internalType": "address[]",
              "name": "tokens",
              "type": "address[]"
            },
            {
              "internalType": "uint256[]",
              "name": "normalizedWeights",
              "type": "uint256[]"
            }
          ],
          "internalType": "struct WeightedBPTOracle.TokenInfo",
          "name": "",
          "type": "tuple"
        }
      ],
      "stateMutability": "view",
      "type": "function"
    },
    {
      "inputs": [
        {
          "internalType": "address",
          "name": "token",
          "type": "address"
        }
      ],
      "name": "getPrice",
      "outputs": [
        {
          "internalType": "uint256",
          "name": "",
          "type": "uint256"
        }
      ],
      "stateMutability": "nonpayable",
      "type": "function"
    },
    {
      "inputs": [],
      "name": "getStablePoolOracle",
      "outputs": [
        {
          "internalType": "address",
          "name": "",
          "type": "address"
        }
      ],
      "stateMutability": "view",
      "type": "function"
    },
    {
      "inputs": [
        {
          "internalType": "contract IBalancerVault",
          "name": "vault",
          "type": "address"
        },
        {
          "internalType": "contract IBaseOracle",
          "name": "base",
          "type": "address"
        },
        {
          "internalType": "address",
          "name": "owner",
          "type": "address"
        }
      ],
      "name": "initialize",
      "outputs": [],
      "stateMutability": "nonpayable",
      "type": "function"
    },
    {
      "inputs": [],
      "name": "owner",
      "outputs": [
        {
          "internalType": "address",
          "name": "",
          "type": "address"
        }
      ],
      "stateMutability": "view",
      "type": "function"
    },
    {
      "inputs": [],
      "name": "pendingOwner",
      "outputs": [
        {
          "internalType": "address",
          "name": "",
          "type": "address"
        }
      ],
      "stateMutability": "view",
      "type": "function"
    },
    {
      "inputs": [
        {
          "internalType": "address",
          "name": "bpt",
          "type": "address"
        }
      ],
      "name": "registerBpt",
      "outputs": [],
      "stateMutability": "nonpayable",
      "type": "function"
    },
    {
      "inputs": [],
      "name": "renounceOwnership",
      "outputs": [],
      "stateMutability": "nonpayable",
      "type": "function"
    },
    {
      "inputs": [
        {
          "internalType": "address",
          "name": "oracle",
          "type": "address"
        }
      ],
      "name": "setStablePoolOracle",
      "outputs": [],
      "stateMutability": "nonpayable",
      "type": "function"
    },
    {
      "inputs": [
        {
          "internalType": "address",
          "name": "newOwner",
          "type": "address"
        }
      ],
      "name": "transferOwnership",
      "outputs": [],
      "stateMutability": "nonpayable",
      "type": "function"
    }
  ],
  "bytecode": "0x60806040523480156200001157600080fd5b506200001c6200002c565b620000266200002c565b620000ed565b600054610100900460ff1615620000995760405162461bcd60e51b815260206004820152602760248201527f496e697469616c697a61626c653a20636f6e747261637420697320696e697469604482015266616c697a696e6760c81b606482015260840160405180910390fd5b60005460ff90811614620000eb576000805460ff191660ff9081179091556040519081527f7f26b83ff96e1f2b6a682f133852f6798a09c465da95921460cefb38474024989060200160405180910390a15b565b6123fc80620000fd6000396000f3fe608060405234801561001057600080fd5b50600436106100b45760003560e01c80638da5cb5b116100715780638da5cb5b1461013a57806396a421041461014b578063c0c53b8b1461016b578063e30c39781461017e578063ea2e7f101461018f578063f2fde38b146101a257600080fd5b8063257cc90d146100b95780633088794e146100ce57806341976e09146100f8578063715018a61461011957806379ba5097146101215780637da4da7d14610129575b600080fd5b6100cc6100c7366004611eef565b6101b5565b005b6097546001600160a01b03165b6040516001600160a01b0390911681526020015b60405180910390f35b61010b610106366004611eef565b610394565b6040519081526020016100ef565b6100cc61054c565b6100cc610560565b60a2546001600160a01b03166100db565b6033546001600160a01b03166100db565b61015e610159366004611eef565b6105df565b6040516100ef9190611f0c565b6100cc610179366004611faa565b6106c8565b6065546001600160a01b03166100db565b6100cc61019d366004611eef565b6107f9565b6100cc6101b0366004611eef565b61084a565b6101bd6108bb565b6001600160a01b0381166101e45760405163538ba4f960e01b815260040160405180910390fd5b60a3546040805163038fff2d60e41b8152905183926000926001600160a01b039182169263f94d4668928616916338fff2d09160048083019260209291908290030181865afa15801561023b573d6000803e3d6000fd5b505050506040513d601f19601f8201168201806040525081019061025f9190611ff5565b6040518263ffffffff1660e01b815260040161027d91815260200190565b600060405180830381865afa15801561029a573d6000803e3d6000fd5b505050506040513d6000823e601f3d908101601f191682016040526102c291908101906120e8565b505090506000826001600160a01b031663f89f27ed6040518163ffffffff1660e01b8152600401600060405180830381865afa158015610306573d6000803e3d6000fd5b505050506040513d6000823e601f3d908101601f1916820160405261032e91908101906121b6565b60408051808201825284815260208082018490526001600160a01b038816600090815260a48252929092208151805194955091939092610372928492910190611e25565b50602082810151805161038b9260018501920190611e8a565b50505050505050565b60a3546000906103ac906001600160a01b0316610915565b8160006103b8826105df565b805160208083015180516040805163c0ff1a1560e01b81529051959650939491939092670de0b6b3a7640000926000926001600160a01b038a169263c0ff1a15926004808401938290030181865afa158015610418573d6000803e3d6000fd5b505050506040513d601f19601f8201168201806040525081019061043c9190611ff5565b905060005b838110156104c357600061046d878381518110610460576104606121eb565b60200260200101516109c2565b90506000868381518110610483576104836121eb565b602002602001015190506104b46104ad826104a78486610aaa90919063ffffffff16565b90610b0f565b8690610bd8565b94505050806001019050610441565b506000876001600160a01b03166318160ddd6040518163ffffffff1660e01b8152600401602060405180830381865afa158015610504573d6000803e3d6000fd5b505050506040513d601f19601f820116820180604052508101906105289190611ff5565b905061053e816105388486610bd8565b90610aaa565b9a9950505050505050505050565b6105546108bb565b61055e6000610c18565b565b60655433906001600160a01b031681146105d35760405162461bcd60e51b815260206004820152602960248201527f4f776e61626c6532537465703a2063616c6c6572206973206e6f7420746865206044820152683732bb9037bbb732b960b91b60648201526084015b60405180910390fd5b6105dc81610c18565b50565b604080518082018252606080825260208083018290526001600160a01b038516600090815260a482528490208451815492830281018401865294850182815293949390928492849184018282801561066057602002820191906000526020600020905b81546001600160a01b03168152600190910190602001808311610642575b50505050508152602001600182018054806020026020016040519081016040528092919081815260200182805480156106b857602002820191906000526020600020905b8154815260200190600101908083116106a4575b5050505050815250509050919050565b600054610100900460ff16158080156106e85750600054600160ff909116105b806107025750303b158015610702575060005460ff166001145b6107655760405162461bcd60e51b815260206004820152602e60248201527f496e697469616c697a61626c653a20636f6e747261637420697320616c72656160448201526d191e481a5b9a5d1a585b1a5e995960921b60648201526084016105ca565b6000805460ff191660011790558015610788576000805461ff0019166101001790555b6107928383610c31565b60a380546001600160a01b0319166001600160a01b03861617905580156107f3576000805461ff0019169055604051600181527f7f26b83ff96e1f2b6a682f133852f6798a09c465da95921460cefb38474024989060200160405180910390a15b50505050565b6108016108bb565b6001600160a01b0381166108285760405163538ba4f960e01b815260040160405180910390fd5b60a280546001600160a01b0319166001600160a01b0392909216919091179055565b6108526108bb565b606580546001600160a01b0383166001600160a01b031990911681179091556108836033546001600160a01b031690565b6001600160a01b03167f38d16b8cac22d99fc7c124b9cd0de2d3fa1faef420bfe791d8c362d765e2270060405160405180910390a350565b6033546001600160a01b0316331461055e5760405162461bcd60e51b815260206004820181905260248201527f4f776e61626c653a2063616c6c6572206973206e6f7420746865206f776e657260448201526064016105ca565b604080516000602480830182905283518084039091018152604490920183526020820180516001600160e01b03166303a38fa160e21b17905291516001600160a01b03841691612710916109699190612201565b6000604051808303818686fa925050503d80600081146109a5576040519150601f19603f3d011682016040523d82523d6000602084013e6109aa565b606091505b509150506109be8151600014610190610c84565b5050565b6097546040516341976e0960e01b81526001600160a01b03838116600483015260009216906341976e09906024016020604051808303816000875af1925050508015610a2b575060408051601f3d908101601f19168201909252610a2891810190611ff5565b60015b610aa45760a2546040516341976e0960e01b81526001600160a01b038481166004830152909116906341976e09906024016020604051808303816000875af1925050508015610a97575060408051601f3d908101601f19168201909252610a9491810190611ff5565b60015b610aa457610aa482610394565b92915050565b6000610ab98215156004610c84565b82600003610ac957506000610aa4565b6000610add670de0b6b3a764000085612246565b9050610afd670de0b6b3a7640000610af58684612273565b146005610c84565b610b078382612273565b949350505050565b6000670de0b6b3a76400008203610b27575081610aa4565b610b3a670de0b6b3a76400006002612246565b8203610b5157610b4a8384610bd8565b9050610aa4565b610b64670de0b6b3a76400006004612246565b8203610b82576000610b768485610bd8565b9050610b078182610bd8565b6000610b8e8484610c92565b90506000610ba8610ba183612710610e06565b6001610e6d565b905080821015610bbd57600092505050610aa4565b610bc78282610e91565b92505050610aa4565b505092915050565b600080610be58385612246565b9050610c06841580610bff575083610bfd8684612273565b145b6003610c84565b610b07670de0b6b3a764000082612273565b606580546001600160a01b03191690556105dc81610ead565b600054610100900460ff16610c585760405162461bcd60e51b81526004016105ca90612287565b609780546001600160a01b0319166001600160a01b038416179055610c7b610eff565b6109be81610c18565b816109be576109be81610f2e565b600081600003610cab5750670de0b6b3a7640000610aa4565b82600003610cbb57506000610aa4565b610ccb60ff84901c156006610c84565b82610cef610ce668056bc75e2d63100000600160fe1b612273565b84106007610c84565b82600082610d0d67016345785d8a0000670de0b6b3a76400006122d2565b128015610d325750610d2f670de0b6b3a764000067016345785d8a00006122f2565b83125b15610d9b576000610d4284610f3e565b9050670de0b6b3a764000083610d588284612312565b610d629190612326565b610d6c9190612356565b83610d7f670de0b6b3a764000084612356565b610d899190612326565b610d9391906122f2565b915050610db2565b81610da584611175565b610daf9190612326565b90505b610dc4670de0b6b3a764000082612356565b9050610df381680238fd42c5cf03ffff1913158015610dec575068070c1cc73b00c800008213155b6008610c84565b610dfc8161175b565b9695505050505050565b600080610e138385612246565b9050610e2b841580610bff575083610bfd8684612273565b80600003610e3d576000915050610aa4565b670de0b6b3a7640000610e51600183612384565b610e5b9190612273565b610b07906001612397565b5092915050565b600080610e7a8385612397565b9050610e8a848210156000610c84565b9392505050565b6000610ea1838311156001610c84565b6000610b078385612384565b603380546001600160a01b038381166001600160a01b0319831681179093556040519116919082907f8be0079c531659141344cd1fd0a4f28419497f9722a3daafe3b4186f6b6457e090600090a35050565b600054610100900460ff16610f265760405162461bcd60e51b81526004016105ca90612287565b61055e611d92565b6105dc816210905360ea1b611dc2565b6000610f52670de0b6b3a764000083612326565b91506000610f6e6a0c097ce7bc90715b34b9f160241b846122f2565b6a0c097ce7bc90715b34b9f160241b610f8781866122d2565b610f919190612326565b610f9b9190612356565b905060006a0c097ce7bc90715b34b9f160241b610fb88380612326565b610fc29190612356565b905081806a0c097ce7bc90715b34b9f160241b610fdf8483612326565b610fe99190612356565b9150610ff6600383612356565b61100090826122f2565b90506a0c097ce7bc90715b34b9f160241b61101b8484612326565b6110259190612356565b9150611032600583612356565b61103c90826122f2565b90506a0c097ce7bc90715b34b9f160241b6110578484612326565b6110619190612356565b915061106e600783612356565b61107890826122f2565b90506a0c097ce7bc90715b34b9f160241b6110938484612326565b61109d9190612356565b91506110aa600983612356565b6110b490826122f2565b90506a0c097ce7bc90715b34b9f160241b6110cf8484612326565b6110d99190612356565b91506110e6600b83612356565b6110f090826122f2565b90506a0c097ce7bc90715b34b9f160241b61110b8484612326565b6111159190612356565b9150611122600d83612356565b61112c90826122f2565b90506a0c097ce7bc90715b34b9f160241b6111478484612326565b6111519190612356565b915061115e600f83612356565b61116890826122f2565b9050610dfc816002612326565b6000670de0b6b3a76400008212156111b5576111ac8261119d670de0b6b3a764000080612326565b6111a79190612356565b611175565b610aa4906123aa565b60006111e1670de0b6b3a7640000770195e54c5dd42177f53a27172fa9ec630262827000000000612326565b831261122157611209770195e54c5dd42177f53a27172fa9ec63026282700000000084612356565b925061121e6806f05b59d3b2000000826122f2565b90505b61123f670de0b6b3a76400006b1425982cf597cd205cef7380612326565b83126112735761125b6b1425982cf597cd205cef738084612356565b92506112706803782dace9d9000000826122f2565b90505b61127e606482612326565b905061128b606484612326565b92506e01855144814a7ff805980ff008400083126112e8576e01855144814a7ff805980ff00840006112c668056bc75e2d6310000085612326565b6112d09190612356565b92506112e568ad78ebc5ac62000000826122f2565b90505b6b02df0ab5a80a22c61ab5a700831261133d576b02df0ab5a80a22c61ab5a70061131b68056bc75e2d6310000085612326565b6113259190612356565b925061133a6856bc75e2d631000000826122f2565b90505b693f1fce3da636ea5cf850831261138e57693f1fce3da636ea5cf85061136c68056bc75e2d6310000085612326565b6113769190612356565b925061138b682b5e3af16b18800000826122f2565b90505b690127fa27722cc06cc5e283126113df57690127fa27722cc06cc5e26113bd68056bc75e2d6310000085612326565b6113c79190612356565b92506113dc6815af1d78b58c400000826122f2565b90505b68280e60114edb805d03831261142e5768280e60114edb805d0361140c68056bc75e2d6310000085612326565b6114169190612356565b925061142b680ad78ebc5ac6200000826122f2565b90505b680ebc5fb41746121110831261147d57680ebc5fb4174612111061145b68056bc75e2d6310000085612326565b6114659190612356565b925061147a68056bc75e2d63100000826122f2565b90505b6808f00f760a4b2db55d83126114cc576808f00f760a4b2db55d6114aa68056bc75e2d6310000085612326565b6114b49190612356565b92506114c96802b5e3af16b1880000826122f2565b90505b6806f5f1775788937937831261151b576806f5f17757889379376114f968056bc75e2d6310000085612326565b6115039190612356565b925061151868015af1d78b58c40000826122f2565b90505b6806248f33704b2866038312611569576806248f33704b28660361154868056bc75e2d6310000085612326565b6115529190612356565b925061156667ad78ebc5ac620000826122f2565b90505b6805c548670b9510e7ac83126115b7576805c548670b9510e7ac61159668056bc75e2d6310000085612326565b6115a09190612356565b92506115b46756bc75e2d6310000826122f2565b90505b60006115cc68056bc75e2d63100000856122f2565b68056bc75e2d631000006115e081876122d2565b6115ea9190612326565b6115f49190612356565b9050600068056bc75e2d6310000061160c8380612326565b6116169190612356565b9050818068056bc75e2d6310000061162e8483612326565b6116389190612356565b9150611645600383612356565b61164f90826122f2565b905068056bc75e2d631000006116658484612326565b61166f9190612356565b915061167c600583612356565b61168690826122f2565b905068056bc75e2d6310000061169c8484612326565b6116a69190612356565b91506116b3600783612356565b6116bd90826122f2565b905068056bc75e2d631000006116d38484612326565b6116dd9190612356565b91506116ea600983612356565b6116f490826122f2565b905068056bc75e2d6310000061170a8484612326565b6117149190612356565b9150611721600b83612356565b61172b90826122f2565b9050611738600282612326565b9050606461174682876122f2565b6117509190612356565b979650505050505050565b600061178a680238fd42c5cf03ffff198312158015611783575068070c1cc73b00c800008313155b6009610c84565b60008212156117c0576117a461179f836123aa565b61175b565b6117b6670de0b6b3a764000080612326565b610aa49190612356565b60006806f05b59d3b20000008312611807576117e56806f05b59d3b2000000846122d2565b9250770195e54c5dd42177f53a27172fa9ec6302628270000000009050611844565b6803782dace9d900000083126118405761182a6803782dace9d9000000846122d2565b92506b1425982cf597cd205cef73809050611844565b5060015b61184f606484612326565b925068056bc75e2d6310000068ad78ebc5ac6200000084126118b05761187e68ad78ebc5ac62000000856122d2565b935068056bc75e2d631000006118a36e01855144814a7ff805980ff008400083612326565b6118ad9190612356565b90505b6856bc75e2d6310000008412611902576118d36856bc75e2d631000000856122d2565b935068056bc75e2d631000006118f56b02df0ab5a80a22c61ab5a70083612326565b6118ff9190612356565b90505b682b5e3af16b18800000841261195257611925682b5e3af16b18800000856122d2565b935068056bc75e2d63100000611945693f1fce3da636ea5cf85083612326565b61194f9190612356565b90505b6815af1d78b58c40000084126119a2576119756815af1d78b58c400000856122d2565b935068056bc75e2d63100000611995690127fa27722cc06cc5e283612326565b61199f9190612356565b90505b680ad78ebc5ac620000084126119f1576119c5680ad78ebc5ac6200000856122d2565b935068056bc75e2d631000006119e468280e60114edb805d0383612326565b6119ee9190612356565b90505b68056bc75e2d631000008412611a4057611a1468056bc75e2d63100000856122d2565b935068056bc75e2d63100000611a33680ebc5fb4174612111083612326565b611a3d9190612356565b90505b6802b5e3af16b18800008412611a8f57611a636802b5e3af16b1880000856122d2565b935068056bc75e2d63100000611a826808f00f760a4b2db55d83612326565b611a8c9190612356565b90505b68015af1d78b58c400008412611ade57611ab268015af1d78b58c40000856122d2565b935068056bc75e2d63100000611ad16806f5f177578893793783612326565b611adb9190612356565b90505b68056bc75e2d6310000084611af381836122f2565b9150600268056bc75e2d63100000611b0b8884612326565b611b159190612356565b611b1f9190612356565b9050611b2b81836122f2565b9150600368056bc75e2d63100000611b438884612326565b611b4d9190612356565b611b579190612356565b9050611b6381836122f2565b9150600468056bc75e2d63100000611b7b8884612326565b611b859190612356565b611b8f9190612356565b9050611b9b81836122f2565b9150600568056bc75e2d63100000611bb38884612326565b611bbd9190612356565b611bc79190612356565b9050611bd381836122f2565b9150600668056bc75e2d63100000611beb8884612326565b611bf59190612356565b611bff9190612356565b9050611c0b81836122f2565b9150600768056bc75e2d63100000611c238884612326565b611c2d9190612356565b611c379190612356565b9050611c4381836122f2565b9150600868056bc75e2d63100000611c5b8884612326565b611c659190612356565b611c6f9190612356565b9050611c7b81836122f2565b9150600968056bc75e2d63100000611c938884612326565b611c9d9190612356565b611ca79190612356565b9050611cb381836122f2565b9150600a68056bc75e2d63100000611ccb8884612326565b611cd59190612356565b611cdf9190612356565b9050611ceb81836122f2565b9150600b68056bc75e2d63100000611d038884612326565b611d0d9190612356565b611d179190612356565b9050611d2381836122f2565b9150600c68056bc75e2d63100000611d3b8884612326565b611d459190612356565b611d4f9190612356565b9050611d5b81836122f2565b915060648468056bc75e2d63100000611d748587612326565b611d7e9190612356565b611d889190612326565b610dfc9190612356565b600054610100900460ff16611db95760405162461bcd60e51b81526004016105ca90612287565b61055e33610c18565b62461bcd60e51b600090815260206004526007602452600a808404818106603090810160081b958390069590950190829004918206850160101b01602363ffffff0060e086901c160160181b0190930160c81b604481905260e883901c91606490fd5b828054828255906000526020600020908101928215611e7a579160200282015b82811115611e7a57825182546001600160a01b0319166001600160a01b03909116178255602090920191600190910190611e45565b50611e86929150611ec5565b5090565b828054828255906000526020600020908101928215611e7a579160200282015b82811115611e7a578251825591602001919060010190611eaa565b5b80821115611e865760008155600101611ec6565b6001600160a01b03811681146105dc57600080fd5b600060208284031215611f0157600080fd5b8135610e8a81611eda565b6020808252825160408383015280516060840181905260009291820190839060808601905b80831015611f5a5783516001600160a01b03168252928401926001929092019190840190611f31565b5086840151868203601f190160408801528051808352908501935090840191506000905b80821015611f9e5783518352928401929184019160019190910190611f7e565b50909695505050505050565b600080600060608486031215611fbf57600080fd5b8335611fca81611eda565b92506020840135611fda81611eda565b91506040840135611fea81611eda565b809150509250925092565b60006020828403121561200757600080fd5b5051919050565b634e487b7160e01b600052604160045260246000fd5b604051601f8201601f1916810167ffffffffffffffff8111828210171561204d5761204d61200e565b604052919050565b600067ffffffffffffffff82111561206f5761206f61200e565b5060051b60200190565b600082601f83011261208a57600080fd5b8151602061209f61209a83612055565b612024565b8083825260208201915060208460051b8701019350868411156120c157600080fd5b602086015b848110156120dd57805183529183019183016120c6565b509695505050505050565b6000806000606084860312156120fd57600080fd5b835167ffffffffffffffff8082111561211557600080fd5b818601915086601f83011261212957600080fd5b8151602061213961209a83612055565b82815260059290921b8401810191818101908a84111561215857600080fd5b948201945b8386101561217f57855161217081611eda565b8252948201949082019061215d565b9189015191975090935050508082111561219857600080fd5b506121a586828701612079565b925050604084015190509250925092565b6000602082840312156121c857600080fd5b815167ffffffffffffffff8111156121df57600080fd5b610b0784828501612079565b634e487b7160e01b600052603260045260246000fd5b6000825160005b818110156122225760208186018101518583015201612208565b506000920191825250919050565b634e487b7160e01b600052601160045260246000fd5b8082028115828204841417610aa457610aa4612230565b634e487b7160e01b600052601260045260246000fd5b6000826122825761228261225d565b500490565b6020808252602b908201527f496e697469616c697a61626c653a20636f6e7472616374206973206e6f74206960408201526a6e697469616c697a696e6760a81b606082015260800190565b8181036000831280158383131683831282161715610e6657610e66612230565b8082018281126000831280158216821582161715610bd057610bd0612230565b6000826123215761232161225d565b500790565b80820260008212600160ff1b8414161561234257612342612230565b8181058314821517610aa457610aa4612230565b6000826123655761236561225d565b600160ff1b82146000198414161561237f5761237f612230565b500590565b81810381811115610aa457610aa4612230565b80820180821115610aa457610aa4612230565b6000600160ff1b82016123bf576123bf612230565b506000039056fea2646970667358221220887552c153b1768bc3bf2ac89fef3bc46df739081dbc439ef27a1f95c902b27064736f6c63430008160033",
  "linkReferences": {},
  "deployedLinkReferences": {}
}