{
  "_format": "hh-sol-artifact-1",
  "contractName": "CurveVolatileOracle",
  "sourceName": "contracts/oracle/CurveVolatileOracle.sol",
  "abi": [
    {
      "inputs": [],
      "stateMutability": "nonpayable",
      "type": "constructor"
    },
    {
      "inputs": [],
      "name": "INCORRECT_LIMITS",
      "type": "error"
    },
    {
      "inputs": [
        {
          "internalType": "address",
          "name": "lp",
          "type": "address"
        }
      ],
      "name": "ORACLE_NOT_SUPPORT_LP",
      "type": "error"
    },
    {
      "inputs": [],
      "name": "VALUE_OUT_OF_RANGE",
      "type": "error"
    },
    {
      "inputs": [],
      "name": "ZERO_ADDRESS",
      "type": "error"
    },
    {
      "anonymous": false,
      "inputs": [
        {
          "indexed": false,
          "internalType": "uint8",
          "name": "version",
          "type": "uint8"
        }
      ],
      "name": "Initialized",
      "type": "event"
    },
    {
      "anonymous": false,
      "inputs": [
        {
          "indexed": false,
          "internalType": "uint256",
          "name": "lowerBound",
          "type": "uint256"
        },
        {
          "indexed": false,
          "internalType": "uint256",
          "name": "upperBound",
          "type": "uint256"
        }
      ],
      "name": "NewLimiterParams",
      "type": "event"
    },
    {
      "anonymous": false,
      "inputs": [
        {
          "indexed": true,
          "internalType": "address",
          "name": "previousOwner",
          "type": "address"
        },
        {
          "indexed": true,
          "internalType": "address",
          "name": "newOwner",
          "type": "address"
        }
      ],
      "name": "OwnershipTransferStarted",
      "type": "event"
    },
    {
      "anonymous": false,
      "inputs": [
        {
          "indexed": true,
          "internalType": "address",
          "name": "previousOwner",
          "type": "address"
        },
        {
          "indexed": true,
          "internalType": "address",
          "name": "newOwner",
          "type": "address"
        }
      ],
      "name": "OwnershipTransferred",
      "type": "event"
    },
    {
      "anonymous": false,
      "inputs": [
        {
          "indexed": false,
          "internalType": "address",
          "name": "token",
          "type": "address"
        }
      ],
      "name": "RegisterLpToken",
      "type": "event"
    },
    {
      "inputs": [],
      "name": "acceptOwnership",
      "outputs": [],
      "stateMutability": "nonpayable",
      "type": "function"
    },
    {
      "inputs": [],
      "name": "getAddressProvider",
      "outputs": [
        {
          "internalType": "contract ICurveAddressProvider",
          "name": "",
          "type": "address"
        }
      ],
      "stateMutability": "view",
      "type": "function"
    },
    {
      "inputs": [],
      "name": "getBaseOracle",
      "outputs": [
        {
          "internalType": "contract IBaseOracle",
          "name": "",
          "type": "address"
        }
      ],
      "stateMutability": "view",
      "type": "function"
    },
    {
      "inputs": [],
      "name": "getLowerBound",
      "outputs": [
        {
          "internalType": "uint256",
          "name": "",
          "type": "uint256"
        }
      ],
      "stateMutability": "view",
      "type": "function"
    },
    {
      "inputs": [
        {
          "internalType": "address",
          "name": "crvLp",
          "type": "address"
        }
      ],
      "name": "getPoolInfo",
      "outputs": [
        {
          "internalType": "address",
          "name": "pool",
          "type": "address"
        },
        {
          "internalType": "address[]",
          "name": "coins",
          "type": "address[]"
        },
        {
          "internalType": "uint256",
          "name": "virtualPrice",
          "type": "uint256"
        }
      ],
      "stateMutability": "view",
      "type": "function"
    },
    {
      "inputs": [
        {
          "internalType": "address",
          "name": "crvLp",
          "type": "address"
        }
      ],
      "name": "getPrice",
      "outputs": [
        {
          "internalType": "uint256",
          "name": "",
          "type": "uint256"
        }
      ],
      "stateMutability": "nonpayable",
      "type": "function"
    },
    {
      "inputs": [
        {
          "internalType": "address",
          "name": "crvLp",
          "type": "address"
        }
      ],
      "name": "getTokenInfo",
      "outputs": [
        {
          "components": [
            {
              "internalType": "address",
              "name": "pool",
              "type": "address"
            },
            {
              "internalType": "address[]",
              "name": "tokens",
              "type": "address[]"
            },
            {
              "internalType": "uint256",
              "name": "registryIndex",
              "type": "uint256"
            }
          ],
          "internalType": "struct CurveBaseOracle.TokenInfo",
          "name": "",
          "type": "tuple"
        }
      ],
      "stateMutability": "view",
      "type": "function"
    },
    {
      "inputs": [
        {
          "internalType": "contract ICurveAddressProvider",
          "name": "addressProvider",
          "type": "address"
        },
        {
          "internalType": "contract IBaseOracle",
          "name": "base",
          "type": "address"
        },
        {
          "internalType": "address",
          "name": "owner",
          "type": "address"
        }
      ],
      "name": "initialize",
      "outputs": [],
      "stateMutability": "nonpayable",
      "type": "function"
    },
    {
      "inputs": [],
      "name": "owner",
      "outputs": [
        {
          "internalType": "address",
          "name": "",
          "type": "address"
        }
      ],
      "stateMutability": "view",
      "type": "function"
    },
    {
      "inputs": [],
      "name": "pendingOwner",
      "outputs": [
        {
          "internalType": "address",
          "name": "",
          "type": "address"
        }
      ],
      "stateMutability": "view",
      "type": "function"
    },
    {
      "inputs": [
        {
          "internalType": "address",
          "name": "crvLp",
          "type": "address"
        }
      ],
      "name": "registerCurveLp",
      "outputs": [],
      "stateMutability": "nonpayable",
      "type": "function"
    },
    {
      "inputs": [],
      "name": "renounceOwnership",
      "outputs": [],
      "stateMutability": "nonpayable",
      "type": "function"
    },
    {
      "inputs": [
        {
          "internalType": "address",
          "name": "crvLp",
          "type": "address"
        },
        {
          "internalType": "uint256",
          "name": "lowerBound",
          "type": "uint256"
        }
      ],
      "name": "setLimiter",
      "outputs": [],
      "stateMutability": "nonpayable",
      "type": "function"
    },
    {
      "inputs": [
        {
          "internalType": "address",
          "name": "newOwner",
          "type": "address"
        }
      ],
      "name": "transferOwnership",
      "outputs": [],
      "stateMutability": "nonpayable",
      "type": "function"
    }
  ],
  "bytecode": "0x60806040523480156200001157600080fd5b506200001c62000036565b6200002662000036565b6200003062000036565b620000f7565b600054610100900460ff1615620000a35760405162461bcd60e51b815260206004820152602760248201527f496e697469616c697a61626c653a20636f6e747261637420697320696e697469604482015266616c697a696e6760c81b606482015260840160405180910390fd5b60005460ff90811614620000f5576000805460ff191660ff9081179091556040519081527f7f26b83ff96e1f2b6a682f133852f6798a09c465da95921460cefb38474024989060200160405180910390a15b565b612c9d80620001076000396000f3fe608060405234801561001057600080fd5b50600436106100ea5760003560e01c8063715018a61161008c578063c0c53b8b11610066578063c0c53b8b146101da578063e30c3978146101ed578063f2fde38b146101fe578063f8c689341461021157600080fd5b8063715018a6146101b957806379ba5097146101c15780638da5cb5b146101c957600080fd5b80633088794e116100c85780633088794e146101595780633fd629391461017e57806341976e09146101935780636143e7eb146101a657600080fd5b806306bfa938146100ef5780631de0f0951461011a5780631f69565f14610139575b600080fd5b6101026100fd366004612838565b610222565b60405161011193929190612855565b60405180910390f35b33600090815260a460205260409020545b604051908152602001610111565b61014c610147366004612838565b61023f565b60405161011191906128ba565b6097546001600160a01b03165b6040516001600160a01b039091168152602001610111565b61019161018c366004612838565b610309565b005b61012b6101a1366004612838565b6103c8565b6101916101b4366004612930565b6106cc565b6101916106e2565b6101916106f6565b6033546001600160a01b0316610166565b6101916101e836600461295c565b610775565b6065546001600160a01b0316610166565b61019161020c366004612838565b61088c565b60a2546001600160a01b0316610166565b600060606000610231846108fd565b9250925092505b9193909250565b61026c604051806060016040528060006001600160a01b0316815260200160608152602001600081525090565b6001600160a01b03808316600090815260a360209081526040918290208251606081018452815490941684526001810180548451818502810185019095528085529193858401939092908301828280156102ef57602002820191906000526020600020905b81546001600160a01b031681526001909101906020018083116102d1575b505050505081526020016002820154815250509050919050565b610311610ab4565b6001600160a01b0381166103385760405163538ba4f960e01b815260040160405180910390fd5b600080600061034684610b0e565b604080516060810182526001600160a01b03858116825260208083018681528385018690528b8316600090815260a3835294909420835181546001600160a01b0319169316929092178255925180519699509497509295509391926103b492600185019291909101906127a9565b506040820151816002015590505050505050565b6000806000806103d7856108fd565b9250925092506103e883835161129f565b815160006103fe6097546001600160a01b031690565b90506000816001600160a01b03166341976e0986600081518110610424576104246129a7565b60200260200101516040518263ffffffff1660e01b815260040161045791906001600160a01b0391909116815260200190565b6020604051808303816000875af1158015610476573d6000803e3d6000fd5b505050506040513d601f19601f8201168201806040525081019061049a91906129bd565b90506000826001600160a01b03166341976e09876001815181106104c0576104c06129a7565b60200260200101516040518263ffffffff1660e01b81526004016104f391906001600160a01b0391909116815260200190565b6020604051808303816000875af1158015610512573d6000803e3d6000fd5b505050506040513d601f19601f8201168201806040525081019061053691906129bd565b905060006305f5e100610551670de0b6b3a7640000856129ec565b61055b9190612a19565b90506105886305f5e100610577670de0b6b3a7640000856129ec565b6105819190612a19565b82906112fc565b90508460030361065d576000846001600160a01b03166341976e09896002815181106105b6576105b66129a7565b60200260200101516040518263ffffffff1660e01b81526004016105e991906001600160a01b0391909116815260200190565b6020604051808303816000875af1158015610608573d6000803e3d6000fd5b505050506040513d601f19601f8201168201806040525081019061062c91906129bd565b90506106596305f5e100610648670de0b6b3a7640000846129ec565b6106529190612a19565b83906112fc565b9150505b6106678a87611346565b9550600061069a61067888886129ec565b61069461068d89670de0b6b3a7640000612a19565b85906113a5565b906112fc565b9050670de0b6b3a76400006106b36305f5e100836129ec565b6106bd9190612a19565b9b9a5050505050505050505050565b6106d4610ab4565b6106de8282611476565b5050565b6106ea610ab4565b6106f46000611513565b565b60655433906001600160a01b031681146107695760405162461bcd60e51b815260206004820152602960248201527f4f776e61626c6532537465703a2063616c6c6572206973206e6f7420746865206044820152683732bb9037bbb732b960b91b60648201526084015b60405180910390fd5b61077281611513565b50565b600054610100900460ff16158080156107955750600054600160ff909116105b806107af5750303b1580156107af575060005460ff166001145b6108125760405162461bcd60e51b815260206004820152602e60248201527f496e697469616c697a61626c653a20636f6e747261637420697320616c72656160448201526d191e481a5b9a5d1a585b1a5e995960921b6064820152608401610760565b6000805460ff191660011790558015610835576000805461ff0019166101001790555b61084084848461152c565b8015610886576000805461ff0019169055604051600181527f7f26b83ff96e1f2b6a682f133852f6798a09c465da95921460cefb38474024989060200160405180910390a15b50505050565b610894610ab4565b606580546001600160a01b0383166001600160a01b031990911681179091556108c56033546001600160a01b031690565b6001600160a01b03167f38d16b8cac22d99fc7c124b9cd0de2d3fa1faef420bfe791d8c362d765e2270060405160405180910390a350565b6000606060008061090d8561023f565b80519091506001600160a01b03166109435760405163385fd8c560e11b81526001600160a01b0386166004820152602401610760565b8060400151600003610a405760a2546040805163a262904b60e01b815290516000926001600160a01b03169163a262904b9160048083019260209291908290030181865afa158015610999573d6000803e3d6000fd5b505050506040513d601f19601f820116820180604052508101906109bd9190612a3d565b825160208401516040516362db83a560e11b81526001600160a01b038a8116600483015292985090965091925082169063c5b7074a90602401602060405180830381865afa158015610a13573d6000803e3d6000fd5b505050506040513d601f19601f82011682018060405250810190610a3791906129bd565b92505050610238565b806040015160051480610a57575080604001516007145b15610aac5760a254604082810151905163124fd3dd60e21b815260048101919091526000916001600160a01b03169063493f4f7490602401602060405180830381865afa158015610999573d6000803e3d6000fd5b509193909250565b6033546001600160a01b031633146106f45760405162461bcd60e51b815260206004820181905260248201527f4f776e61626c653a2063616c6c6572206973206e6f7420746865206f776e65726044820152606401610760565b6000606060008060a260009054906101000a90046001600160a01b03166001600160a01b031663a262904b6040518163ffffffff1660e01b8152600401602060405180830381865afa158015610b68573d6000803e3d6000fd5b505050506040513d601f19601f82011682018060405250810190610b8c9190612a3d565b60405163bdf475c360e01b81526001600160a01b0387811660048301529192509082169063bdf475c390602401602060405180830381865afa158015610bd6573d6000803e3d6000fd5b505050506040513d601f19601f82011682018060405250810190610bfa9190612a3d565b93506001600160a01b03841615610d935760405163940494f160e01b81526001600160a01b0385811660048301526000919083169063940494f1906024016040805180830381865afa158015610c54573d6000803e3d6000fd5b505050506040513d601f19601f82011682018060405250810190610c789190612a5a565b50604051639ac90d3d60e01b81526001600160a01b038781166004830152919250600091841690639ac90d3d9060240161010060405180830381865afa158015610cc6573d6000803e3d6000fd5b505050506040513d601f19601f82011682018060405250810190610cea9190612a94565b90508167ffffffffffffffff811115610d0557610d05612a7e565b604051908082528060200260200182016040528015610d2e578160200160208202803683370190505b50945060005b82811015610d8557818160088110610d4e57610d4e6129a7565b6020020151868281518110610d6557610d656129a7565b6001600160a01b0390921660209283029190910190910152600101610d34565b506000935061023892505050565b60a25460405163124fd3dd60e21b8152600560048201526001600160a01b039091169063493f4f7490602401602060405180830381865afa158015610ddc573d6000803e3d6000fd5b505050506040513d601f19601f82011682018060405250810190610e009190612a3d565b60405163bdf475c360e01b81526001600160a01b0387811660048301529192509082169063bdf475c390602401602060405180830381865afa158015610e4a573d6000803e3d6000fd5b505050506040513d601f19601f82011682018060405250810190610e6e9190612a3d565b93506001600160a01b038416156110075760405163940494f160e01b81526001600160a01b0385811660048301526000919083169063940494f190602401602060405180830381865afa158015610ec9573d6000803e3d6000fd5b505050506040513d601f19601f82011682018060405250810190610eed91906129bd565b604051639ac90d3d60e01b81526001600160a01b038781166004830152919250600091841690639ac90d3d9060240161010060405180830381865afa158015610f3a573d6000803e3d6000fd5b505050506040513d601f19601f82011682018060405250810190610f5e9190612a94565b90508167ffffffffffffffff811115610f7957610f79612a7e565b604051908082528060200260200182016040528015610fa2578160200160208202803683370190505b50945060005b82811015610ff957818160088110610fc257610fc26129a7565b6020020151868281518110610fd957610fd96129a7565b6001600160a01b0390921660209283029190910190910152600101610fa8565b506005935061023892505050565b60a25460405163124fd3dd60e21b8152600760048201526001600160a01b039091169063493f4f7490602401602060405180830381865afa158015611050573d6000803e3d6000fd5b505050506040513d601f19601f820116820180604052508101906110749190612a3d565b60405163bdf475c360e01b81526001600160a01b0387811660048301529192509082169063bdf475c390602401602060405180830381865afa1580156110be573d6000803e3d6000fd5b505050506040513d601f19601f820116820180604052508101906110e29190612a3d565b93506001600160a01b0384161561127b5760405163940494f160e01b81526001600160a01b0385811660048301526000919083169063940494f190602401602060405180830381865afa15801561113d573d6000803e3d6000fd5b505050506040513d601f19601f8201168201806040525081019061116191906129bd565b604051639ac90d3d60e01b81526001600160a01b038781166004830152919250600091841690639ac90d3d9060240161010060405180830381865afa1580156111ae573d6000803e3d6000fd5b505050506040513d601f19601f820116820180604052508101906111d29190612a94565b90508167ffffffffffffffff8111156111ed576111ed612a7e565b604051908082528060200260200182016040528015611216578160200160208202803683370190505b50945060005b8281101561126d57818160088110611236576112366129a7565b602002015186828151811061124d5761124d6129a7565b6001600160a01b039092166020928302919091019091015260010161121c565b506007935061023892505050565b60405163385fd8c560e11b81526001600160a01b0386166004820152602401610760565b6000829050806001600160a01b031663c93f49e86040518163ffffffff1660e01b8152600401600060405180830381600087803b1580156112df57600080fd5b505af11580156112f3573d6000803e3d6000fd5b50505050505050565b60008061130983856129ec565b905061132a8415806113235750836113218684612a19565b145b600361155a565b61133c670de0b6b3a764000082612a19565b9150505b92915050565b6001600160a01b038216600090815260a460205260408120548083101561138057604051634ec702b160e01b815260040160405180910390fd5b600061138b82611568565b905080841161139a578361139c565b805b95945050505050565b6000670de0b6b3a764000082036113bd575081611340565b6113d0670de0b6b3a764000060026129ec565b82036113e7576113e083846112fc565b9050611340565b6113fa670de0b6b3a764000060046129ec565b820361142057600061140c84856112fc565b905061141881826112fc565b915050611340565b600061142c848461158c565b9050600061144661143f83612710611700565b6001611767565b90508082101561145b57600092505050611340565b611465828261178b565b92505050611340565b505092915050565b8015806114935750611491828261148c84611568565b6117a7565b155b156114b157604051632e56026d60e21b815260040160405180910390fd5b6001600160a01b038216600090815260a4602052604090208190557f82e7ee47180a631312683eeb2a85ad264c9af490d54de5a75bbdb95b968c6de2816114f781611568565b6040805192835260208301919091520160405180910390a15050565b606580546001600160a01b0319169055610772816117de565b6115368282611830565b505060a280546001600160a01b0319166001600160a01b0392909216919091179055565b816106de576106de81611883565b600061271061157860c882612b28565b61158290846129ec565b6113409190612a19565b6000816000036115a55750670de0b6b3a7640000611340565b826000036115b557506000611340565b6115c560ff84901c15600661155a565b826115e96115e068056bc75e2d63100000600160fe1b612a19565b8410600761155a565b8260008261160767016345785d8a0000670de0b6b3a7640000612b3b565b12801561162c5750611629670de0b6b3a764000067016345785d8a0000612b5b565b83125b1561169557600061163c84611893565b9050670de0b6b3a7640000836116528284612b7b565b61165c9190612b8f565b6116669190612bbf565b83611679670de0b6b3a764000084612bbf565b6116839190612b8f565b61168d9190612b5b565b9150506116ac565b8161169f84611aca565b6116a99190612b8f565b90505b6116be670de0b6b3a764000082612bbf565b90506116ed81680238fd42c5cf03ffff19131580156116e6575068070c1cc73b00c800008213155b600861155a565b6116f6816120b0565b9695505050505050565b60008061170d83856129ec565b90506117258415806113235750836113218684612a19565b80600003611737576000915050611340565b670de0b6b3a764000061174b600183612bed565b6117559190612a19565b611418906001612b28565b5092915050565b6000806117748385612b28565b905061178484821015600061155a565b9392505050565b600061179b83831115600161155a565b600061133c8385612bed565b6000806117b3856108fd565b92505050838110806117c457508281115b156117d3576000915050611784565b506001949350505050565b603380546001600160a01b038381166001600160a01b0319831681179093556040519116919082907f8be0079c531659141344cd1fd0a4f28419497f9722a3daafe3b4186f6b6457e090600090a35050565b600054610100900460ff166118575760405162461bcd60e51b815260040161076090612c00565b609780546001600160a01b0319166001600160a01b03841617905561187a6126e7565b6106de81611513565b610772816210905360ea1b612716565b60006118a7670de0b6b3a764000083612b8f565b915060006118c36a0c097ce7bc90715b34b9f160241b84612b5b565b6a0c097ce7bc90715b34b9f160241b6118dc8186612b3b565b6118e69190612b8f565b6118f09190612bbf565b905060006a0c097ce7bc90715b34b9f160241b61190d8380612b8f565b6119179190612bbf565b905081806a0c097ce7bc90715b34b9f160241b6119348483612b8f565b61193e9190612bbf565b915061194b600383612bbf565b6119559082612b5b565b90506a0c097ce7bc90715b34b9f160241b6119708484612b8f565b61197a9190612bbf565b9150611987600583612bbf565b6119919082612b5b565b90506a0c097ce7bc90715b34b9f160241b6119ac8484612b8f565b6119b69190612bbf565b91506119c3600783612bbf565b6119cd9082612b5b565b90506a0c097ce7bc90715b34b9f160241b6119e88484612b8f565b6119f29190612bbf565b91506119ff600983612bbf565b611a099082612b5b565b90506a0c097ce7bc90715b34b9f160241b611a248484612b8f565b611a2e9190612bbf565b9150611a3b600b83612bbf565b611a459082612b5b565b90506a0c097ce7bc90715b34b9f160241b611a608484612b8f565b611a6a9190612bbf565b9150611a77600d83612bbf565b611a819082612b5b565b90506a0c097ce7bc90715b34b9f160241b611a9c8484612b8f565b611aa69190612bbf565b9150611ab3600f83612bbf565b611abd9082612b5b565b90506116f6816002612b8f565b6000670de0b6b3a7640000821215611b0a57611b0182611af2670de0b6b3a764000080612b8f565b611afc9190612bbf565b611aca565b61134090612c4b565b6000611b36670de0b6b3a7640000770195e54c5dd42177f53a27172fa9ec630262827000000000612b8f565b8312611b7657611b5e770195e54c5dd42177f53a27172fa9ec63026282700000000084612bbf565b9250611b736806f05b59d3b200000082612b5b565b90505b611b94670de0b6b3a76400006b1425982cf597cd205cef7380612b8f565b8312611bc857611bb06b1425982cf597cd205cef738084612bbf565b9250611bc56803782dace9d900000082612b5b565b90505b611bd3606482612b8f565b9050611be0606484612b8f565b92506e01855144814a7ff805980ff00840008312611c3d576e01855144814a7ff805980ff0084000611c1b68056bc75e2d6310000085612b8f565b611c259190612bbf565b9250611c3a68ad78ebc5ac6200000082612b5b565b90505b6b02df0ab5a80a22c61ab5a7008312611c92576b02df0ab5a80a22c61ab5a700611c7068056bc75e2d6310000085612b8f565b611c7a9190612bbf565b9250611c8f6856bc75e2d63100000082612b5b565b90505b693f1fce3da636ea5cf8508312611ce357693f1fce3da636ea5cf850611cc168056bc75e2d6310000085612b8f565b611ccb9190612bbf565b9250611ce0682b5e3af16b1880000082612b5b565b90505b690127fa27722cc06cc5e28312611d3457690127fa27722cc06cc5e2611d1268056bc75e2d6310000085612b8f565b611d1c9190612bbf565b9250611d316815af1d78b58c40000082612b5b565b90505b68280e60114edb805d038312611d835768280e60114edb805d03611d6168056bc75e2d6310000085612b8f565b611d6b9190612bbf565b9250611d80680ad78ebc5ac620000082612b5b565b90505b680ebc5fb417461211108312611dd257680ebc5fb41746121110611db068056bc75e2d6310000085612b8f565b611dba9190612bbf565b9250611dcf68056bc75e2d6310000082612b5b565b90505b6808f00f760a4b2db55d8312611e21576808f00f760a4b2db55d611dff68056bc75e2d6310000085612b8f565b611e099190612bbf565b9250611e1e6802b5e3af16b188000082612b5b565b90505b6806f5f17757889379378312611e70576806f5f1775788937937611e4e68056bc75e2d6310000085612b8f565b611e589190612bbf565b9250611e6d68015af1d78b58c4000082612b5b565b90505b6806248f33704b2866038312611ebe576806248f33704b286603611e9d68056bc75e2d6310000085612b8f565b611ea79190612bbf565b9250611ebb67ad78ebc5ac62000082612b5b565b90505b6805c548670b9510e7ac8312611f0c576805c548670b9510e7ac611eeb68056bc75e2d6310000085612b8f565b611ef59190612bbf565b9250611f096756bc75e2d631000082612b5b565b90505b6000611f2168056bc75e2d6310000085612b5b565b68056bc75e2d63100000611f358187612b3b565b611f3f9190612b8f565b611f499190612bbf565b9050600068056bc75e2d63100000611f618380612b8f565b611f6b9190612bbf565b9050818068056bc75e2d63100000611f838483612b8f565b611f8d9190612bbf565b9150611f9a600383612bbf565b611fa49082612b5b565b905068056bc75e2d63100000611fba8484612b8f565b611fc49190612bbf565b9150611fd1600583612bbf565b611fdb9082612b5b565b905068056bc75e2d63100000611ff18484612b8f565b611ffb9190612bbf565b9150612008600783612bbf565b6120129082612b5b565b905068056bc75e2d631000006120288484612b8f565b6120329190612bbf565b915061203f600983612bbf565b6120499082612b5b565b905068056bc75e2d6310000061205f8484612b8f565b6120699190612bbf565b9150612076600b83612bbf565b6120809082612b5b565b905061208d600282612b8f565b9050606461209b8287612b5b565b6120a59190612bbf565b979650505050505050565b60006120df680238fd42c5cf03ffff1983121580156120d8575068070c1cc73b00c800008313155b600961155a565b6000821215612115576120f96120f483612c4b565b6120b0565b61210b670de0b6b3a764000080612b8f565b6113409190612bbf565b60006806f05b59d3b2000000831261215c5761213a6806f05b59d3b200000084612b3b565b9250770195e54c5dd42177f53a27172fa9ec6302628270000000009050612199565b6803782dace9d900000083126121955761217f6803782dace9d900000084612b3b565b92506b1425982cf597cd205cef73809050612199565b5060015b6121a4606484612b8f565b925068056bc75e2d6310000068ad78ebc5ac620000008412612205576121d368ad78ebc5ac6200000085612b3b565b935068056bc75e2d631000006121f86e01855144814a7ff805980ff008400083612b8f565b6122029190612bbf565b90505b6856bc75e2d6310000008412612257576122286856bc75e2d63100000085612b3b565b935068056bc75e2d6310000061224a6b02df0ab5a80a22c61ab5a70083612b8f565b6122549190612bbf565b90505b682b5e3af16b1880000084126122a75761227a682b5e3af16b1880000085612b3b565b935068056bc75e2d6310000061229a693f1fce3da636ea5cf85083612b8f565b6122a49190612bbf565b90505b6815af1d78b58c40000084126122f7576122ca6815af1d78b58c40000085612b3b565b935068056bc75e2d631000006122ea690127fa27722cc06cc5e283612b8f565b6122f49190612bbf565b90505b680ad78ebc5ac620000084126123465761231a680ad78ebc5ac620000085612b3b565b935068056bc75e2d6310000061233968280e60114edb805d0383612b8f565b6123439190612bbf565b90505b68056bc75e2d6310000084126123955761236968056bc75e2d6310000085612b3b565b935068056bc75e2d63100000612388680ebc5fb4174612111083612b8f565b6123929190612bbf565b90505b6802b5e3af16b188000084126123e4576123b86802b5e3af16b188000085612b3b565b935068056bc75e2d631000006123d76808f00f760a4b2db55d83612b8f565b6123e19190612bbf565b90505b68015af1d78b58c4000084126124335761240768015af1d78b58c4000085612b3b565b935068056bc75e2d631000006124266806f5f177578893793783612b8f565b6124309190612bbf565b90505b68056bc75e2d63100000846124488183612b5b565b9150600268056bc75e2d631000006124608884612b8f565b61246a9190612bbf565b6124749190612bbf565b90506124808183612b5b565b9150600368056bc75e2d631000006124988884612b8f565b6124a29190612bbf565b6124ac9190612bbf565b90506124b88183612b5b565b9150600468056bc75e2d631000006124d08884612b8f565b6124da9190612bbf565b6124e49190612bbf565b90506124f08183612b5b565b9150600568056bc75e2d631000006125088884612b8f565b6125129190612bbf565b61251c9190612bbf565b90506125288183612b5b565b9150600668056bc75e2d631000006125408884612b8f565b61254a9190612bbf565b6125549190612bbf565b90506125608183612b5b565b9150600768056bc75e2d631000006125788884612b8f565b6125829190612bbf565b61258c9190612bbf565b90506125988183612b5b565b9150600868056bc75e2d631000006125b08884612b8f565b6125ba9190612bbf565b6125c49190612bbf565b90506125d08183612b5b565b9150600968056bc75e2d631000006125e88884612b8f565b6125f29190612bbf565b6125fc9190612bbf565b90506126088183612b5b565b9150600a68056bc75e2d631000006126208884612b8f565b61262a9190612bbf565b6126349190612bbf565b90506126408183612b5b565b9150600b68056bc75e2d631000006126588884612b8f565b6126629190612bbf565b61266c9190612bbf565b90506126788183612b5b565b9150600c68056bc75e2d631000006126908884612b8f565b61269a9190612bbf565b6126a49190612bbf565b90506126b08183612b5b565b915060648468056bc75e2d631000006126c98587612b8f565b6126d39190612bbf565b6126dd9190612b8f565b6116f69190612bbf565b600054610100900460ff1661270e5760405162461bcd60e51b815260040161076090612c00565b6106f4612779565b62461bcd60e51b600090815260206004526007602452600a808404818106603090810160081b958390069590950190829004918206850160101b01602363ffffff0060e086901c160160181b0190930160c81b604481905260e883901c91606490fd5b600054610100900460ff166127a05760405162461bcd60e51b815260040161076090612c00565b6106f433611513565b8280548282559060005260206000209081019282156127fe579160200282015b828111156127fe57825182546001600160a01b0319166001600160a01b039091161782556020909201916001909101906127c9565b5061280a92915061280e565b5090565b5b8082111561280a576000815560010161280f565b6001600160a01b038116811461077257600080fd5b60006020828403121561284a57600080fd5b813561178481612823565b6001600160a01b038481168252606060208084018290528551918401829052600092868201929091906080860190855b818110156128a3578551851683529483019491830191600101612885565b505080945050505050826040830152949350505050565b602080825282516001600160a01b03908116838301528382015160606040850152805160808501819052600093929183019190849060a08701905b80831015612917578451841682529385019360019290920191908501906128f5565b5060408801516060880152809550505050505092915050565b6000806040838503121561294357600080fd5b823561294e81612823565b946020939093013593505050565b60008060006060848603121561297157600080fd5b833561297c81612823565b9250602084013561298c81612823565b9150604084013561299c81612823565b809150509250925092565b634e487b7160e01b600052603260045260246000fd5b6000602082840312156129cf57600080fd5b5051919050565b634e487b7160e01b600052601160045260246000fd5b8082028115828204841417611340576113406129d6565b634e487b7160e01b600052601260045260246000fd5b600082612a2857612a28612a03565b500490565b8051612a3881612823565b919050565b600060208284031215612a4f57600080fd5b815161178481612823565b60008060408385031215612a6d57600080fd5b505080516020909101519092909150565b634e487b7160e01b600052604160045260246000fd5b6000610100808385031215612aa857600080fd5b83601f840112612ab757600080fd5b60405181810181811067ffffffffffffffff82111715612ae757634e487b7160e01b600052604160045260246000fd5b604052908301908085831115612afc57600080fd5b845b83811015612b1d57612b0f81612a2d565b825260209182019101612afe565b509095945050505050565b80820180821115611340576113406129d6565b8181036000831280158383131683831282161715611760576117606129d6565b808201828112600083128015821682158216171561146e5761146e6129d6565b600082612b8a57612b8a612a03565b500790565b80820260008212600160ff1b84141615612bab57612bab6129d6565b8181058314821517611340576113406129d6565b600082612bce57612bce612a03565b600160ff1b821460001984141615612be857612be86129d6565b500590565b81810381811115611340576113406129d6565b6020808252602b908201527f496e697469616c697a61626c653a20636f6e7472616374206973206e6f74206960408201526a6e697469616c697a696e6760a81b606082015260800190565b6000600160ff1b8201612c6057612c606129d6565b506000039056fea26469706673582212209d0a9a989c1dc4739d7dc9dfd568c9ebedde6a21b1a422fb27836b5bb1cfb3b664736f6c63430008160033",
  "linkReferences": {},
  "deployedLinkReferences": {}
}