{
  "_format": "hh-sol-artifact-1",
  "contractName": "CurveTricryptoOracle",
  "sourceName": "contracts/oracle/CurveTricryptoOracle.sol",
  "abi": [
    {
      "inputs": [],
      "stateMutability": "nonpayable",
      "type": "constructor"
    },
    {
      "inputs": [
        {
          "internalType": "address",
          "name": "lp",
          "type": "address"
        }
      ],
      "name": "ORACLE_NOT_SUPPORT_LP",
      "type": "error"
    },
    {
      "inputs": [],
      "name": "ZERO_ADDRESS",
      "type": "error"
    },
    {
      "anonymous": false,
      "inputs": [
        {
          "indexed": false,
          "internalType": "uint8",
          "name": "version",
          "type": "uint8"
        }
      ],
      "name": "Initialized",
      "type": "event"
    },
    {
      "anonymous": false,
      "inputs": [
        {
          "indexed": true,
          "internalType": "address",
          "name": "previousOwner",
          "type": "address"
        },
        {
          "indexed": true,
          "internalType": "address",
          "name": "newOwner",
          "type": "address"
        }
      ],
      "name": "OwnershipTransferStarted",
      "type": "event"
    },
    {
      "anonymous": false,
      "inputs": [
        {
          "indexed": true,
          "internalType": "address",
          "name": "previousOwner",
          "type": "address"
        },
        {
          "indexed": true,
          "internalType": "address",
          "name": "newOwner",
          "type": "address"
        }
      ],
      "name": "OwnershipTransferred",
      "type": "event"
    },
    {
      "anonymous": false,
      "inputs": [
        {
          "indexed": false,
          "internalType": "address",
          "name": "token",
          "type": "address"
        }
      ],
      "name": "RegisterLpToken",
      "type": "event"
    },
    {
      "inputs": [],
      "name": "acceptOwnership",
      "outputs": [],
      "stateMutability": "nonpayable",
      "type": "function"
    },
    {
      "inputs": [],
      "name": "getAddressProvider",
      "outputs": [
        {
          "internalType": "contract ICurveAddressProvider",
          "name": "",
          "type": "address"
        }
      ],
      "stateMutability": "view",
      "type": "function"
    },
    {
      "inputs": [],
      "name": "getBaseOracle",
      "outputs": [
        {
          "internalType": "contract IBaseOracle",
          "name": "",
          "type": "address"
        }
      ],
      "stateMutability": "view",
      "type": "function"
    },
    {
      "inputs": [
        {
          "internalType": "address",
          "name": "crvLp",
          "type": "address"
        }
      ],
      "name": "getPoolInfo",
      "outputs": [
        {
          "internalType": "address",
          "name": "pool",
          "type": "address"
        },
        {
          "internalType": "address[]",
          "name": "coins",
          "type": "address[]"
        },
        {
          "internalType": "uint256",
          "name": "virtualPrice",
          "type": "uint256"
        }
      ],
      "stateMutability": "view",
      "type": "function"
    },
    {
      "inputs": [
        {
          "internalType": "address",
          "name": "crvLp",
          "type": "address"
        }
      ],
      "name": "getPrice",
      "outputs": [
        {
          "internalType": "uint256",
          "name": "",
          "type": "uint256"
        }
      ],
      "stateMutability": "nonpayable",
      "type": "function"
    },
    {
      "inputs": [
        {
          "internalType": "address",
          "name": "crvLp",
          "type": "address"
        }
      ],
      "name": "getTokenInfo",
      "outputs": [
        {
          "components": [
            {
              "internalType": "address",
              "name": "pool",
              "type": "address"
            },
            {
              "internalType": "address[]",
              "name": "tokens",
              "type": "address[]"
            },
            {
              "internalType": "uint256",
              "name": "registryIndex",
              "type": "uint256"
            }
          ],
          "internalType": "struct CurveBaseOracle.TokenInfo",
          "name": "",
          "type": "tuple"
        }
      ],
      "stateMutability": "view",
      "type": "function"
    },
    {
      "inputs": [
        {
          "internalType": "contract ICurveAddressProvider",
          "name": "addressProvider",
          "type": "address"
        },
        {
          "internalType": "contract IBaseOracle",
          "name": "base",
          "type": "address"
        },
        {
          "internalType": "address",
          "name": "owner",
          "type": "address"
        }
      ],
      "name": "initialize",
      "outputs": [],
      "stateMutability": "nonpayable",
      "type": "function"
    },
    {
      "inputs": [],
      "name": "owner",
      "outputs": [
        {
          "internalType": "address",
          "name": "",
          "type": "address"
        }
      ],
      "stateMutability": "view",
      "type": "function"
    },
    {
      "inputs": [],
      "name": "pendingOwner",
      "outputs": [
        {
          "internalType": "address",
          "name": "",
          "type": "address"
        }
      ],
      "stateMutability": "view",
      "type": "function"
    },
    {
      "inputs": [
        {
          "internalType": "address",
          "name": "crvLp",
          "type": "address"
        }
      ],
      "name": "registerCurveLp",
      "outputs": [],
      "stateMutability": "nonpayable",
      "type": "function"
    },
    {
      "inputs": [],
      "name": "renounceOwnership",
      "outputs": [],
      "stateMutability": "nonpayable",
      "type": "function"
    },
    {
      "inputs": [
        {
          "internalType": "address",
          "name": "newOwner",
          "type": "address"
        }
      ],
      "name": "transferOwnership",
      "outputs": [],
      "stateMutability": "nonpayable",
      "type": "function"
    }
  ],
  "bytecode": "0x60806040523480156200001157600080fd5b506200001c62000036565b6200002662000036565b6200003062000036565b620000f7565b600054610100900460ff1615620000a35760405162461bcd60e51b815260206004820152602760248201527f496e697469616c697a61626c653a20636f6e747261637420697320696e697469604482015266616c697a696e6760c81b606482015260840160405180910390fd5b60005460ff90811614620000f5576000805460ff191660ff9081179091556040519081527f7f26b83ff96e1f2b6a682f133852f6798a09c465da95921460cefb38474024989060200160405180910390a15b565b61189580620001076000396000f3fe608060405234801561001057600080fd5b50600436106100b45760003560e01c806379ba50971161007157806379ba5097146101675780638da5cb5b1461016f578063c0c53b8b14610180578063e30c397814610193578063f2fde38b146101a4578063f8c68934146101b757600080fd5b806306bfa938146100b95780631f69565f146100e45780633088794e146101045780633fd629391461012957806341976e091461013e578063715018a61461015f575b600080fd5b6100cc6100c7366004611525565b6101c8565b6040516100db93929190611549565b60405180910390f35b6100f76100f2366004611525565b6101e5565b6040516100db91906115ae565b6097546001600160a01b03165b6040516001600160a01b0390911681526020016100db565b61013c610137366004611525565b6102af565b005b61015161014c366004611525565b61036e565b6040519081526020016100db565b61013c6105b1565b61013c6105c5565b6033546001600160a01b0316610111565b61013c61018e366004611624565b61063f565b6065546001600160a01b0316610111565b61013c6101b2366004611525565b610756565b60a2546001600160a01b0316610111565b6000606060006101d7846107c7565b9250925092505b9193909250565b610212604051806060016040528060006001600160a01b0316815260200160608152602001600081525090565b6001600160a01b03808316600090815260a3602090815260409182902082516060810184528154909416845260018101805484518185028101850190955280855291938584019390929083018282801561029557602002820191906000526020600020905b81546001600160a01b03168152600190910190602001808311610277575b505050505081526020016002820154815250509050919050565b6102b761097e565b6001600160a01b0381166102de5760405163538ba4f960e01b815260040160405180910390fd5b60008060006102ec846109d8565b604080516060810182526001600160a01b03858116825260208083018681528385018690528b8316600090815260a3835294909420835181546001600160a01b03191693169290921782559251805196995094975092955093919261035a9260018501929190910190611496565b506040820151816002015590505050505050565b60008060008061037d856107c7565b92509250925061038e838351611169565b60006103a26097546001600160a01b031690565b905082516003036105885761057e82826001600160a01b03166341976e09866000815181106103d3576103d361166f565b60200260200101516040518263ffffffff1660e01b815260040161040691906001600160a01b0391909116815260200190565b6020604051808303816000875af1158015610425573d6000803e3d6000fd5b505050506040513d601f19601f820116820180604052508101906104499190611685565b836001600160a01b03166341976e098760018151811061046b5761046b61166f565b60200260200101516040518263ffffffff1660e01b815260040161049e91906001600160a01b0391909116815260200190565b6020604051808303816000875af11580156104bd573d6000803e3d6000fd5b505050506040513d601f19601f820116820180604052508101906104e19190611685565b846001600160a01b03166341976e09886002815181106105035761050361166f565b60200260200101516040518263ffffffff1660e01b815260040161053691906001600160a01b0391909116815260200190565b6020604051808303816000875af1158015610555573d6000803e3d6000fd5b505050506040513d601f19601f820116820180604052508101906105799190611685565b6111c6565b9695505050505050565b60405163385fd8c560e11b81526001600160a01b03871660048201526024015b60405180910390fd5b6105b961097e565b6105c36000611221565b565b60655433906001600160a01b031681146106335760405162461bcd60e51b815260206004820152602960248201527f4f776e61626c6532537465703a2063616c6c6572206973206e6f7420746865206044820152683732bb9037bbb732b960b91b60648201526084016105a8565b61063c81611221565b50565b600054610100900460ff161580801561065f5750600054600160ff909116105b806106795750303b158015610679575060005460ff166001145b6106dc5760405162461bcd60e51b815260206004820152602e60248201527f496e697469616c697a61626c653a20636f6e747261637420697320616c72656160448201526d191e481a5b9a5d1a585b1a5e995960921b60648201526084016105a8565b6000805460ff1916600117905580156106ff576000805461ff0019166101001790555b61070a84848461123a565b8015610750576000805461ff0019169055604051600181527f7f26b83ff96e1f2b6a682f133852f6798a09c465da95921460cefb38474024989060200160405180910390a15b50505050565b61075e61097e565b606580546001600160a01b0383166001600160a01b0319909116811790915561078f6033546001600160a01b031690565b6001600160a01b03167f38d16b8cac22d99fc7c124b9cd0de2d3fa1faef420bfe791d8c362d765e2270060405160405180910390a350565b600060606000806107d7856101e5565b80519091506001600160a01b031661080d5760405163385fd8c560e11b81526001600160a01b03861660048201526024016105a8565b806040015160000361090a5760a2546040805163a262904b60e01b815290516000926001600160a01b03169163a262904b9160048083019260209291908290030181865afa158015610863573d6000803e3d6000fd5b505050506040513d601f19601f8201168201806040525081019061088791906116ae565b825160208401516040516362db83a560e11b81526001600160a01b038a8116600483015292985090965091925082169063c5b7074a90602401602060405180830381865afa1580156108dd573d6000803e3d6000fd5b505050506040513d601f19601f820116820180604052508101906109019190611685565b925050506101de565b806040015160051480610921575080604001516007145b156109765760a254604082810151905163124fd3dd60e21b815260048101919091526000916001600160a01b03169063493f4f7490602401602060405180830381865afa158015610863573d6000803e3d6000fd5b509193909250565b6033546001600160a01b031633146105c35760405162461bcd60e51b815260206004820181905260248201527f4f776e61626c653a2063616c6c6572206973206e6f7420746865206f776e657260448201526064016105a8565b6000606060008060a260009054906101000a90046001600160a01b03166001600160a01b031663a262904b6040518163ffffffff1660e01b8152600401602060405180830381865afa158015610a32573d6000803e3d6000fd5b505050506040513d601f19601f82011682018060405250810190610a5691906116ae565b60405163bdf475c360e01b81526001600160a01b0387811660048301529192509082169063bdf475c390602401602060405180830381865afa158015610aa0573d6000803e3d6000fd5b505050506040513d601f19601f82011682018060405250810190610ac491906116ae565b93506001600160a01b03841615610c5d5760405163940494f160e01b81526001600160a01b0385811660048301526000919083169063940494f1906024016040805180830381865afa158015610b1e573d6000803e3d6000fd5b505050506040513d601f19601f82011682018060405250810190610b4291906116cb565b50604051639ac90d3d60e01b81526001600160a01b038781166004830152919250600091841690639ac90d3d9060240161010060405180830381865afa158015610b90573d6000803e3d6000fd5b505050506040513d601f19601f82011682018060405250810190610bb49190611705565b90508167ffffffffffffffff811115610bcf57610bcf6116ef565b604051908082528060200260200182016040528015610bf8578160200160208202803683370190505b50945060005b82811015610c4f57818160088110610c1857610c1861166f565b6020020151868281518110610c2f57610c2f61166f565b6001600160a01b0390921660209283029190910190910152600101610bfe565b50600093506101de92505050565b60a25460405163124fd3dd60e21b8152600560048201526001600160a01b039091169063493f4f7490602401602060405180830381865afa158015610ca6573d6000803e3d6000fd5b505050506040513d601f19601f82011682018060405250810190610cca91906116ae565b60405163bdf475c360e01b81526001600160a01b0387811660048301529192509082169063bdf475c390602401602060405180830381865afa158015610d14573d6000803e3d6000fd5b505050506040513d601f19601f82011682018060405250810190610d3891906116ae565b93506001600160a01b03841615610ed15760405163940494f160e01b81526001600160a01b0385811660048301526000919083169063940494f190602401602060405180830381865afa158015610d93573d6000803e3d6000fd5b505050506040513d601f19601f82011682018060405250810190610db79190611685565b604051639ac90d3d60e01b81526001600160a01b038781166004830152919250600091841690639ac90d3d9060240161010060405180830381865afa158015610e04573d6000803e3d6000fd5b505050506040513d601f19601f82011682018060405250810190610e289190611705565b90508167ffffffffffffffff811115610e4357610e436116ef565b604051908082528060200260200182016040528015610e6c578160200160208202803683370190505b50945060005b82811015610ec357818160088110610e8c57610e8c61166f565b6020020151868281518110610ea357610ea361166f565b6001600160a01b0390921660209283029190910190910152600101610e72565b50600593506101de92505050565b60a25460405163124fd3dd60e21b8152600760048201526001600160a01b039091169063493f4f7490602401602060405180830381865afa158015610f1a573d6000803e3d6000fd5b505050506040513d601f19601f82011682018060405250810190610f3e91906116ae565b60405163bdf475c360e01b81526001600160a01b0387811660048301529192509082169063bdf475c390602401602060405180830381865afa158015610f88573d6000803e3d6000fd5b505050506040513d601f19601f82011682018060405250810190610fac91906116ae565b93506001600160a01b038416156111455760405163940494f160e01b81526001600160a01b0385811660048301526000919083169063940494f190602401602060405180830381865afa158015611007573d6000803e3d6000fd5b505050506040513d601f19601f8201168201806040525081019061102b9190611685565b604051639ac90d3d60e01b81526001600160a01b038781166004830152919250600091841690639ac90d3d9060240161010060405180830381865afa158015611078573d6000803e3d6000fd5b505050506040513d601f19601f8201168201806040525081019061109c9190611705565b90508167ffffffffffffffff8111156110b7576110b76116ef565b6040519080825280602002602001820160405280156110e0578160200160208202803683370190505b50945060005b82811015611137578181600881106111005761110061166f565b60200201518682815181106111175761111761166f565b6001600160a01b03909216602092830291909101909101526001016110e6565b50600793506101de92505050565b60405163385fd8c560e11b81526001600160a01b03861660048201526024016105a8565b6000829050806001600160a01b031663c93f49e86040518163ffffffff1660e01b8152600401600060405180830381600087803b1580156111a957600080fd5b505af11580156111bd573d6000803e3d6000fd5b50505050505050565b6000670de0b6b3a76400006111f983826111e087896117af565b6111ea91906117cc565b6111f491906117af565b611268565b6112048760036117af565b61120e91906117af565b61121891906117cc565b95945050505050565b606580546001600160a01b031916905561063c81611393565b61124482826113e5565b505060a280546001600160a01b0319166001600160a01b0392909216919091179055565b60008061127d670de0b6b3a7640000846117cc565b905060005b60ff81101561135757816729a2241af62c000081670de0b6b3a764000081816112ab828b6117cc565b6112b591906117af565b6112bf91906117cc565b6112c991906117af565b6112d391906117cc565b6112e590671bc16d674ec800006117ee565b6112ef90856117af565b6112f991906117cc565b925060008184116113135761130e8483611801565b61131d565b61131d8285611801565b9050600281108061133e57508361133c670de0b6b3a7640000836117af565b105b1561134d575091949350505050565b5050600101611282565b5060405162461bcd60e51b815260206004820152601060248201526f446964204e6f7420436f6e766572676560801b60448201526064016105a8565b603380546001600160a01b038381166001600160a01b0319831681179093556040519116919082907f8be0079c531659141344cd1fd0a4f28419497f9722a3daafe3b4186f6b6457e090600090a35050565b600054610100900460ff1661140c5760405162461bcd60e51b81526004016105a890611814565b609780546001600160a01b0319166001600160a01b03841617905561142f61143c565b61143881611221565b5050565b600054610100900460ff166114635760405162461bcd60e51b81526004016105a890611814565b6105c3600054610100900460ff1661148d5760405162461bcd60e51b81526004016105a890611814565b6105c333611221565b8280548282559060005260206000209081019282156114eb579160200282015b828111156114eb57825182546001600160a01b0319166001600160a01b039091161782556020909201916001909101906114b6565b506114f79291506114fb565b5090565b5b808211156114f757600081556001016114fc565b6001600160a01b038116811461063c57600080fd5b60006020828403121561153757600080fd5b813561154281611510565b9392505050565b6001600160a01b038481168252606060208084018290528551918401829052600092868201929091906080860190855b81811015611597578551851683529483019491830191600101611579565b505080945050505050826040830152949350505050565b602080825282516001600160a01b03908116838301528382015160606040850152805160808501819052600093929183019190849060a08701905b8083101561160b578451841682529385019360019290920191908501906115e9565b5060408801516060880152809550505050505092915050565b60008060006060848603121561163957600080fd5b833561164481611510565b9250602084013561165481611510565b9150604084013561166481611510565b809150509250925092565b634e487b7160e01b600052603260045260246000fd5b60006020828403121561169757600080fd5b5051919050565b80516116a981611510565b919050565b6000602082840312156116c057600080fd5b815161154281611510565b600080604083850312156116de57600080fd5b505080516020909101519092909150565b634e487b7160e01b600052604160045260246000fd5b600061010080838503121561171957600080fd5b83601f84011261172857600080fd5b60405181810181811067ffffffffffffffff8211171561175857634e487b7160e01b600052604160045260246000fd5b60405290830190808583111561176d57600080fd5b845b8381101561178e576117808161169e565b82526020918201910161176f565b509095945050505050565b634e487b7160e01b600052601160045260246000fd5b80820281158282048414176117c6576117c6611799565b92915050565b6000826117e957634e487b7160e01b600052601260045260246000fd5b500490565b808201808211156117c6576117c6611799565b818103818111156117c6576117c6611799565b6020808252602b908201527f496e697469616c697a61626c653a20636f6e7472616374206973206e6f74206960408201526a6e697469616c697a696e6760a81b60608201526080019056fea2646970667358221220fa89c56f4c5906bc4966c0ab56549f0180945fd006f74a787a32ab3bc1e26d1d64736f6c63430008160033",
  "linkReferences": {},
  "deployedLinkReferences": {}
}