{
  "_format": "hh-sol-artifact-1",
  "contractName": "AggregatorOracle",
  "sourceName": "contracts/oracle/AggregatorOracle.sol",
  "abi": [
    {
      "inputs": [],
      "stateMutability": "nonpayable",
      "type": "constructor"
    },
    {
      "inputs": [],
      "name": "EXCEED_DEVIATION",
      "type": "error"
    },
    {
      "inputs": [
        {
          "internalType": "uint256",
          "name": "length",
          "type": "uint256"
        }
      ],
      "name": "EXCEED_SOURCE_LEN",
      "type": "error"
    },
    {
      "inputs": [],
      "name": "INPUT_ARRAY_MISMATCH",
      "type": "error"
    },
    {
      "inputs": [
        {
          "internalType": "address",
          "name": "token",
          "type": "address"
        }
      ],
      "name": "NO_PRIMARY_SOURCE",
      "type": "error"
    },
    {
      "inputs": [
        {
          "internalType": "address",
          "name": "token",
          "type": "address"
        }
      ],
      "name": "NO_VALID_SOURCE",
      "type": "error"
    },
    {
      "inputs": [
        {
          "internalType": "uint256",
          "name": "deviation",
          "type": "uint256"
        }
      ],
      "name": "OUT_OF_DEVIATION_CAP",
      "type": "error"
    },
    {
      "inputs": [],
      "name": "ZERO_ADDRESS",
      "type": "error"
    },
    {
      "anonymous": false,
      "inputs": [
        {
          "indexed": false,
          "internalType": "uint8",
          "name": "version",
          "type": "uint8"
        }
      ],
      "name": "Initialized",
      "type": "event"
    },
    {
      "anonymous": false,
      "inputs": [
        {
          "indexed": true,
          "internalType": "address",
          "name": "previousOwner",
          "type": "address"
        },
        {
          "indexed": true,
          "internalType": "address",
          "name": "newOwner",
          "type": "address"
        }
      ],
      "name": "OwnershipTransferStarted",
      "type": "event"
    },
    {
      "anonymous": false,
      "inputs": [
        {
          "indexed": true,
          "internalType": "address",
          "name": "previousOwner",
          "type": "address"
        },
        {
          "indexed": true,
          "internalType": "address",
          "name": "newOwner",
          "type": "address"
        }
      ],
      "name": "OwnershipTransferred",
      "type": "event"
    },
    {
      "anonymous": false,
      "inputs": [
        {
          "indexed": false,
          "internalType": "address",
          "name": "token",
          "type": "address"
        }
      ],
      "name": "RegisterLpToken",
      "type": "event"
    },
    {
      "anonymous": false,
      "inputs": [
        {
          "indexed": true,
          "internalType": "address",
          "name": "token",
          "type": "address"
        },
        {
          "indexed": false,
          "internalType": "uint256",
          "name": "maxPriceDeviation",
          "type": "uint256"
        },
        {
          "indexed": false,
          "internalType": "contract IBaseOracle[]",
          "name": "oracles",
          "type": "address[]"
        }
      ],
      "name": "SetPrimarySources",
      "type": "event"
    },
    {
      "inputs": [],
      "name": "acceptOwnership",
      "outputs": [],
      "stateMutability": "nonpayable",
      "type": "function"
    },
    {
      "inputs": [
        {
          "internalType": "address",
          "name": "token",
          "type": "address"
        }
      ],
      "name": "getMaxPriceDeviation",
      "outputs": [
        {
          "internalType": "uint256",
          "name": "",
          "type": "uint256"
        }
      ],
      "stateMutability": "view",
      "type": "function"
    },
    {
      "inputs": [
        {
          "internalType": "address",
          "name": "token",
          "type": "address"
        }
      ],
      "name": "getPrice",
      "outputs": [
        {
          "internalType": "uint256",
          "name": "",
          "type": "uint256"
        }
      ],
      "stateMutability": "nonpayable",
      "type": "function"
    },
    {
      "inputs": [
        {
          "internalType": "address",
          "name": "token",
          "type": "address"
        },
        {
          "internalType": "uint256",
          "name": "index",
          "type": "uint256"
        }
      ],
      "name": "getPrimarySource",
      "outputs": [
        {
          "internalType": "contract IBaseOracle",
          "name": "",
          "type": "address"
        }
      ],
      "stateMutability": "view",
      "type": "function"
    },
    {
      "inputs": [
        {
          "internalType": "address",
          "name": "token",
          "type": "address"
        }
      ],
      "name": "getPrimarySourceCount",
      "outputs": [
        {
          "internalType": "uint256",
          "name": "",
          "type": "uint256"
        }
      ],
      "stateMutability": "view",
      "type": "function"
    },
    {
      "inputs": [
        {
          "internalType": "address",
          "name": "owner",
          "type": "address"
        }
      ],
      "name": "initialize",
      "outputs": [],
      "stateMutability": "nonpayable",
      "type": "function"
    },
    {
      "inputs": [],
      "name": "owner",
      "outputs": [
        {
          "internalType": "address",
          "name": "",
          "type": "address"
        }
      ],
      "stateMutability": "view",
      "type": "function"
    },
    {
      "inputs": [],
      "name": "pendingOwner",
      "outputs": [
        {
          "internalType": "address",
          "name": "",
          "type": "address"
        }
      ],
      "stateMutability": "view",
      "type": "function"
    },
    {
      "inputs": [],
      "name": "renounceOwnership",
      "outputs": [],
      "stateMutability": "nonpayable",
      "type": "function"
    },
    {
      "inputs": [
        {
          "internalType": "address[]",
          "name": "tokens",
          "type": "address[]"
        },
        {
          "internalType": "uint256[]",
          "name": "maxPriceDeviationList",
          "type": "uint256[]"
        },
        {
          "internalType": "contract IBaseOracle[][]",
          "name": "allSources",
          "type": "address[][]"
        }
      ],
      "name": "setMultiPrimarySources",
      "outputs": [],
      "stateMutability": "nonpayable",
      "type": "function"
    },
    {
      "inputs": [
        {
          "internalType": "address",
          "name": "token",
          "type": "address"
        },
        {
          "internalType": "uint256",
          "name": "maxPriceDeviation",
          "type": "uint256"
        },
        {
          "internalType": "contract IBaseOracle[]",
          "name": "sources",
          "type": "address[]"
        }
      ],
      "name": "setPrimarySources",
      "outputs": [],
      "stateMutability": "nonpayable",
      "type": "function"
    },
    {
      "inputs": [
        {
          "internalType": "address",
          "name": "newOwner",
          "type": "address"
        }
      ],
      "name": "transferOwnership",
      "outputs": [],
      "stateMutability": "nonpayable",
      "type": "function"
    }
  ],
  "bytecode": "0x608060405234801561001057600080fd5b5061001961001e565b6100dd565b600054610100900460ff161561008a5760405162461bcd60e51b815260206004820152602760248201527f496e697469616c697a61626c653a20636f6e747261637420697320696e697469604482015266616c697a696e6760c81b606482015260840160405180910390fd5b60005460ff908116146100db576000805460ff191660ff9081179091556040519081527f7f26b83ff96e1f2b6a682f133852f6798a09c465da95921460cefb38474024989060200160405180910390a15b565b6111f0806100ec6000396000f3fe608060405234801561001057600080fd5b50600436106100b45760003560e01c8063909d84e311610071578063909d84e314610152578063b733052514610165578063c4d66de81461018e578063e30c3978146101a1578063e431a4f5146101b2578063f2fde38b146101c557600080fd5b806341343ea3146100b957806341976e09146100f5578063507b9ede14610108578063715018a61461011d57806379ba5097146101255780638da5cb5b1461012d575b600080fd5b6100e26100c7366004610d12565b6001600160a01b031660009081526097602052604090205490565b6040519081526020015b60405180910390f35b6100e2610103366004610d12565b6101d8565b61011b610116366004610ef8565b6106e1565b005b61011b61078a565b61011b61079e565b6033546001600160a01b03165b6040516001600160a01b0390911681526020016100ec565b61013a610160366004610fde565b610818565b6100e2610173366004610d12565b6001600160a01b031660009081526099602052604090205490565b61011b61019c366004610d12565b610845565b6065546001600160a01b031661013a565b61011b6101c036600461100a565b610960565b61011b6101d3366004610d12565b610978565b6001600160a01b038116600090815260976020526040812054806000036102225760405163daa6404b60e01b81526001600160a01b03841660048201526024015b60405180910390fd5b60008167ffffffffffffffff81111561023d5761023d610d36565b604051908082528060200260200182016040528015610266578160200160208202803683370190505b5090506000805b83811015610338576001600160a01b038681166000818152609860209081526040808320868452909152908190205490516341976e0960e01b81526004810192909252909116906341976e09906024016020604051808303816000875af19250505080156102f8575060408051601f3d908101601f191682019092526102f591810190611059565b60015b1561033057801561032e5780848461030f81611088565b955081518110610321576103216110a1565b6020026020010181815250505b505b60010161026d565b50806000036103655760405163bb3328ed60e01b81526001600160a01b0386166004820152602401610219565b60005b6103736001836110b7565b8110156104745760005b600161038983856110b7565b61039391906110b7565b81101561046b57836103a68260016110ca565b815181106103b6576103b66110a1565b60200260200101518482815181106103d0576103d06110a1565b6020026020010151111561046357836103ea8260016110ca565b815181106103fa576103fa6110a1565b6020026020010151848281518110610414576104146110a1565b602002602001015185838151811061042e5761042e6110a1565b602002602001018684600161044391906110ca565b81518110610453576104536110a1565b6020908102919091010191909152525b60010161037d565b50600101610368565b506001600160a01b03851660009081526099602052604090205460018290036104bd57826000815181106104aa576104aa6110a1565b6020026020010151945050505050919050565b8160020361057757610504836000815181106104db576104db6110a1565b6020026020010151846001815181106104f6576104f66110a1565b6020026020010151836109e9565b61052157604051637114d53360e01b815260040160405180910390fd5b600283600181518110610536576105366110a1565b602002602001015184600081518110610551576105516110a1565b602002602001015161056391906110ca565b61056d91906110dd565b9695505050505050565b60006105b88460008151811061058f5761058f6110a1565b6020026020010151856001815181106105aa576105aa6110a1565b6020026020010151846109e9565b905060006105fb856001815181106105d2576105d26110a1565b6020026020010151866002815181106105ed576105ed6110a1565b6020026020010151856109e9565b90508180156106075750805b15610634578460018151811061061f5761061f6110a1565b60200260200101519650505050505050919050565b81156106925760028560018151811061064f5761064f6110a1565b60200260200101518660008151811061066a5761066a6110a1565b602002602001015161067c91906110ca565b61068691906110dd565b98975050505050505050565b80156106c8576002856002815181106106ad576106ad6110a1565b60200260200101518660018151811061066a5761066a6110a1565b604051637114d53360e01b815260040160405180910390fd5b6106e9610a3f565b805183511415806106fc57508151835114155b1561071a5760405163025e650f60e01b815260040160405180910390fd5b60005b83518110156107845761077c84828151811061073b5761073b6110a1565b6020026020010151848381518110610755576107556110a1565b602002602001015184848151811061076f5761076f6110a1565b6020026020010151610a99565b60010161071d565b50505050565b610792610a3f565b61079c6000610c33565b565b60655433906001600160a01b0316811461080c5760405162461bcd60e51b815260206004820152602960248201527f4f776e61626c6532537465703a2063616c6c6572206973206e6f7420746865206044820152683732bb9037bbb732b960b91b6064820152608401610219565b61081581610c33565b50565b6001600160a01b038083166000908152609860209081526040808320858452909152902054165b92915050565b600054610100900460ff16158080156108655750600054600160ff909116105b8061087f5750303b15801561087f575060005460ff166001145b6108e25760405162461bcd60e51b815260206004820152602e60248201527f496e697469616c697a61626c653a20636f6e747261637420697320616c72656160448201526d191e481a5b9a5d1a585b1a5e995960921b6064820152608401610219565b6000805460ff191660011790558015610905576000805461ff0019166101001790555b61090d610c4c565b61091682610c33565b801561095c576000805461ff0019169055604051600181527f7f26b83ff96e1f2b6a682f133852f6798a09c465da95921460cefb38474024989060200160405180910390a15b5050565b610968610a3f565b610973838383610a99565b505050565b610980610a3f565b606580546001600160a01b0383166001600160a01b031990911681179091556109b16033546001600160a01b031690565b6001600160a01b03167f38d16b8cac22d99fc7c124b9cd0de2d3fa1faef420bfe791d8c362d765e2270060405160405180910390a350565b6000808385116109f957836109fb565b845b90506000848611610a0c5785610a0e565b845b90508382612710610a1f84836110b7565b610a2991906110ff565b610a3391906110dd565b11159695505050505050565b6033546001600160a01b0316331461079c5760405162461bcd60e51b815260206004820181905260248201527f4f776e61626c653a2063616c6c6572206973206e6f7420746865206f776e65726044820152606401610219565b6001600160a01b038316610ac05760405163538ba4f960e01b815260040160405180910390fd5b6103e8821115610ae657604051631a6b806360e21b815260048101839052602401610219565b80516003811115610b0d5760405163118f6cf360e11b815260048101829052602401610219565b6001600160a01b0384166000908152609760209081526040808320849055609990915281208490555b81811015610be95760006001600160a01b0316838281518110610b5b57610b5b6110a1565b60200260200101516001600160a01b031603610b8a5760405163538ba4f960e01b815260040160405180910390fd5b828181518110610b9c57610b9c6110a1565b6020908102919091018101516001600160a01b0387811660009081526098845260408082208683529094529290922080546001600160a01b03191692909116919091179055600101610b36565b50836001600160a01b03167ffaf0e7a4bd03038343c2a7e8953d95dfec44a01478bba4f65a5b5ec9c397da538484604051610c25929190611116565b60405180910390a250505050565b606580546001600160a01b031916905561081581610c7b565b600054610100900460ff16610c735760405162461bcd60e51b81526004016102199061116f565b61079c610ccd565b603380546001600160a01b038381166001600160a01b0319831681179093556040519116919082907f8be0079c531659141344cd1fd0a4f28419497f9722a3daafe3b4186f6b6457e090600090a35050565b600054610100900460ff16610cf45760405162461bcd60e51b81526004016102199061116f565b61079c33610c33565b6001600160a01b038116811461081557600080fd5b600060208284031215610d2457600080fd5b8135610d2f81610cfd565b9392505050565b634e487b7160e01b600052604160045260246000fd5b604051601f8201601f1916810167ffffffffffffffff81118282101715610d7557610d75610d36565b604052919050565b600067ffffffffffffffff821115610d9757610d97610d36565b5060051b60200190565b600082601f830112610db257600080fd5b81356020610dc7610dc283610d7d565b610d4c565b8083825260208201915060208460051b870101935086841115610de957600080fd5b602086015b84811015610e055780358352918301918301610dee565b509695505050505050565b600082601f830112610e2157600080fd5b81356020610e31610dc283610d7d565b8083825260208201915060208460051b870101935086841115610e5357600080fd5b602086015b84811015610e05578035610e6b81610cfd565b8352918301918301610e58565b600082601f830112610e8957600080fd5b81356020610e99610dc283610d7d565b82815260059290921b84018101918181019086841115610eb857600080fd5b8286015b84811015610e0557803567ffffffffffffffff811115610edc5760008081fd5b610eea8986838b0101610e10565b845250918301918301610ebc565b600080600060608486031215610f0d57600080fd5b833567ffffffffffffffff80821115610f2557600080fd5b818601915086601f830112610f3957600080fd5b81356020610f49610dc283610d7d565b82815260059290921b8401810191818101908a841115610f6857600080fd5b948201945b83861015610f8f578535610f8081610cfd565b82529482019490820190610f6d565b97505087013592505080821115610fa557600080fd5b610fb187838801610da1565b93506040860135915080821115610fc757600080fd5b50610fd486828701610e78565b9150509250925092565b60008060408385031215610ff157600080fd5b8235610ffc81610cfd565b946020939093013593505050565b60008060006060848603121561101f57600080fd5b833561102a81610cfd565b925060208401359150604084013567ffffffffffffffff81111561104d57600080fd5b610fd486828701610e10565b60006020828403121561106b57600080fd5b5051919050565b634e487b7160e01b600052601160045260246000fd5b60006001820161109a5761109a611072565b5060010190565b634e487b7160e01b600052603260045260246000fd5b8181038181111561083f5761083f611072565b8082018082111561083f5761083f611072565b6000826110fa57634e487b7160e01b600052601260045260246000fd5b500490565b808202811582820484141761083f5761083f611072565b60006040820184835260206040602085015281855180845260608601915060208701935060005b818110156111625784516001600160a01b03168352938301939183019160010161113d565b5090979650505050505050565b6020808252602b908201527f496e697469616c697a61626c653a20636f6e7472616374206973206e6f74206960408201526a6e697469616c697a696e6760a81b60608201526080019056fea2646970667358221220ff9f3e052f2f3bd19332d629bddb1d878247647dd69b9bcc29e99c650f9e363464736f6c63430008160033",
  "linkReferences": {},
  "deployedLinkReferences": {}
}