{
  "_format": "hh-sol-artifact-1",
  "contractName": "AuraSpell",
  "sourceName": "contracts/spell/AuraSpell.sol",
  "abi": [
    {
      "inputs": [],
      "stateMutability": "nonpayable",
      "type": "constructor"
    },
    {
      "inputs": [
        {
          "internalType": "uint256",
          "name": "strategyId",
          "type": "uint256"
        },
        {
          "internalType": "address",
          "name": "colToken",
          "type": "address"
        }
      ],
      "name": "COLLATERAL_NOT_EXIST",
      "type": "error"
    },
    {
      "inputs": [],
      "name": "EXCEED_MAX_LTV",
      "type": "error"
    },
    {
      "inputs": [
        {
          "internalType": "uint256",
          "name": "strategyId",
          "type": "uint256"
        }
      ],
      "name": "EXCEED_MAX_POS_SIZE",
      "type": "error"
    },
    {
      "inputs": [
        {
          "internalType": "uint256",
          "name": "strategyId",
          "type": "uint256"
        }
      ],
      "name": "EXCEED_MIN_POS_SIZE",
      "type": "error"
    },
    {
      "inputs": [
        {
          "internalType": "address",
          "name": "colToken",
          "type": "address"
        }
      ],
      "name": "INCORRECT_COLTOKEN",
      "type": "error"
    },
    {
      "inputs": [
        {
          "internalType": "address",
          "name": "lpToken",
          "type": "address"
        }
      ],
      "name": "INCORRECT_LP",
      "type": "error"
    },
    {
      "inputs": [
        {
          "internalType": "uint256",
          "name": "pid",
          "type": "uint256"
        }
      ],
      "name": "INCORRECT_PID",
      "type": "error"
    },
    {
      "inputs": [
        {
          "internalType": "uint256",
          "name": "strategyId",
          "type": "uint256"
        }
      ],
      "name": "INCORRECT_STRATEGY_ID",
      "type": "error"
    },
    {
      "inputs": [
        {
          "internalType": "address",
          "name": "uToken",
          "type": "address"
        }
      ],
      "name": "INCORRECT_UNDERLYING",
      "type": "error"
    },
    {
      "inputs": [],
      "name": "INPUT_ARRAY_MISMATCH",
      "type": "error"
    },
    {
      "inputs": [],
      "name": "INVALID_POS_SIZE",
      "type": "error"
    },
    {
      "inputs": [
        {
          "internalType": "address",
          "name": "spell",
          "type": "address"
        },
        {
          "internalType": "uint256",
          "name": "strategyId",
          "type": "uint256"
        }
      ],
      "name": "STRATEGY_NOT_EXIST",
      "type": "error"
    },
    {
      "inputs": [
        {
          "internalType": "address",
          "name": "swapToken",
          "type": "address"
        }
      ],
      "name": "SWAP_FAILED",
      "type": "error"
    },
    {
      "inputs": [],
      "name": "ZERO_ADDRESS",
      "type": "error"
    },
    {
      "inputs": [],
      "name": "ZERO_AMOUNT",
      "type": "error"
    },
    {
      "anonymous": false,
      "inputs": [
        {
          "indexed": false,
          "internalType": "uint256",
          "name": "strategyId",
          "type": "uint256"
        },
        {
          "indexed": false,
          "internalType": "address[]",
          "name": "collaterals",
          "type": "address[]"
        },
        {
          "indexed": false,
          "internalType": "uint256[]",
          "name": "maxLTVs",
          "type": "uint256[]"
        }
      ],
      "name": "CollateralsMaxLTVSet",
      "type": "event"
    },
    {
      "anonymous": false,
      "inputs": [
        {
          "indexed": false,
          "internalType": "uint8",
          "name": "version",
          "type": "uint8"
        }
      ],
      "name": "Initialized",
      "type": "event"
    },
    {
      "anonymous": false,
      "inputs": [
        {
          "indexed": true,
          "internalType": "address",
          "name": "previousOwner",
          "type": "address"
        },
        {
          "indexed": true,
          "internalType": "address",
          "name": "newOwner",
          "type": "address"
        }
      ],
      "name": "OwnershipTransferStarted",
      "type": "event"
    },
    {
      "anonymous": false,
      "inputs": [
        {
          "indexed": true,
          "internalType": "address",
          "name": "previousOwner",
          "type": "address"
        },
        {
          "indexed": true,
          "internalType": "address",
          "name": "newOwner",
          "type": "address"
        }
      ],
      "name": "OwnershipTransferred",
      "type": "event"
    },
    {
      "anonymous": false,
      "inputs": [
        {
          "indexed": false,
          "internalType": "uint256",
          "name": "strategyId",
          "type": "uint256"
        },
        {
          "indexed": false,
          "internalType": "address",
          "name": "vault",
          "type": "address"
        },
        {
          "indexed": false,
          "internalType": "uint256",
          "name": "minPosSize",
          "type": "uint256"
        },
        {
          "indexed": false,
          "internalType": "uint256",
          "name": "maxPosSize",
          "type": "uint256"
        }
      ],
      "name": "StrategyAdded",
      "type": "event"
    },
    {
      "anonymous": false,
      "inputs": [
        {
          "indexed": false,
          "internalType": "uint256",
          "name": "strategyId",
          "type": "uint256"
        },
        {
          "indexed": false,
          "internalType": "uint256",
          "name": "minPosSize",
          "type": "uint256"
        },
        {
          "indexed": false,
          "internalType": "uint256",
          "name": "maxPosSize",
          "type": "uint256"
        }
      ],
      "name": "StrategyPosSizeUpdated",
      "type": "event"
    },
    {
      "inputs": [],
      "name": "acceptOwnership",
      "outputs": [],
      "stateMutability": "nonpayable",
      "type": "function"
    },
    {
      "inputs": [
        {
          "internalType": "address",
          "name": "bpt",
          "type": "address"
        },
        {
          "internalType": "uint256",
          "name": "minPosSize",
          "type": "uint256"
        },
        {
          "internalType": "uint256",
          "name": "maxPosSize",
          "type": "uint256"
        }
      ],
      "name": "addStrategy",
      "outputs": [],
      "stateMutability": "nonpayable",
      "type": "function"
    },
    {
      "inputs": [
        {
          "components": [
            {
              "internalType": "uint256",
              "name": "strategyId",
              "type": "uint256"
            },
            {
              "internalType": "address",
              "name": "collToken",
              "type": "address"
            },
            {
              "internalType": "address",
              "name": "borrowToken",
              "type": "address"
            },
            {
              "internalType": "uint256",
              "name": "amountRepay",
              "type": "uint256"
            },
            {
              "internalType": "uint256",
              "name": "amountPosRemove",
              "type": "uint256"
            },
            {
              "internalType": "uint256",
              "name": "amountShareWithdraw",
              "type": "uint256"
            },
            {
              "internalType": "uint256",
              "name": "amountOutMin",
              "type": "uint256"
            },
            {
              "internalType": "uint256",
              "name": "amountToSwap",
              "type": "uint256"
            },
            {
              "internalType": "bytes",
              "name": "swapData",
              "type": "bytes"
            }
          ],
          "internalType": "struct IBasicSpell.ClosePosParam",
          "name": "param",
          "type": "tuple"
        },
        {
          "internalType": "uint256[]",
          "name": "expectedRewards",
          "type": "uint256[]"
        },
        {
          "internalType": "bytes[]",
          "name": "swapDatas",
          "type": "bytes[]"
        }
      ],
      "name": "closePositionFarm",
      "outputs": [],
      "stateMutability": "nonpayable",
      "type": "function"
    },
    {
      "inputs": [],
      "name": "getAugustusSwapper",
      "outputs": [
        {
          "internalType": "address",
          "name": "",
          "type": "address"
        }
      ],
      "stateMutability": "view",
      "type": "function"
    },
    {
      "inputs": [],
      "name": "getAuraToken",
      "outputs": [
        {
          "internalType": "address",
          "name": "",
          "type": "address"
        }
      ],
      "stateMutability": "view",
      "type": "function"
    },
    {
      "inputs": [],
      "name": "getBank",
      "outputs": [
        {
          "internalType": "contract IBank",
          "name": "",
          "type": "address"
        }
      ],
      "stateMutability": "view",
      "type": "function"
    },
    {
      "inputs": [
        {
          "internalType": "uint256",
          "name": "strategyId",
          "type": "uint256"
        },
        {
          "internalType": "address",
          "name": "collateral",
          "type": "address"
        }
      ],
      "name": "getMaxLTV",
      "outputs": [
        {
          "internalType": "uint256",
          "name": "",
          "type": "uint256"
        }
      ],
      "stateMutability": "view",
      "type": "function"
    },
    {
      "inputs": [
        {
          "internalType": "uint256",
          "name": "strategyId",
          "type": "uint256"
        }
      ],
      "name": "getStrategy",
      "outputs": [
        {
          "components": [
            {
              "internalType": "address",
              "name": "vault",
              "type": "address"
            },
            {
              "internalType": "uint256",
              "name": "minPositionSize",
              "type": "uint256"
            },
            {
              "internalType": "uint256",
              "name": "maxPositionSize",
              "type": "uint256"
            }
          ],
          "internalType": "struct IBasicSpell.Strategy",
          "name": "",
          "type": "tuple"
        }
      ],
      "stateMutability": "view",
      "type": "function"
    },
    {
      "inputs": [],
      "name": "getTokenTransferProxy",
      "outputs": [
        {
          "internalType": "address",
          "name": "",
          "type": "address"
        }
      ],
      "stateMutability": "view",
      "type": "function"
    },
    {
      "inputs": [],
      "name": "getWAuraBooster",
      "outputs": [
        {
          "internalType": "contract IWAuraBooster",
          "name": "",
          "type": "address"
        }
      ],
      "stateMutability": "view",
      "type": "function"
    },
    {
      "inputs": [],
      "name": "getWETH",
      "outputs": [
        {
          "internalType": "address",
          "name": "",
          "type": "address"
        }
      ],
      "stateMutability": "view",
      "type": "function"
    },
    {
      "inputs": [],
      "name": "getWrappedERC20",
      "outputs": [
        {
          "internalType": "contract IWERC20",
          "name": "",
          "type": "address"
        }
      ],
      "stateMutability": "view",
      "type": "function"
    },
    {
      "inputs": [
        {
          "internalType": "address",
          "name": "token",
          "type": "address"
        },
        {
          "internalType": "uint256",
          "name": "amount",
          "type": "uint256"
        }
      ],
      "name": "increasePosition",
      "outputs": [],
      "stateMutability": "nonpayable",
      "type": "function"
    },
    {
      "inputs": [
        {
          "internalType": "contract IBank",
          "name": "bank",
          "type": "address"
        },
        {
          "internalType": "address",
          "name": "werc20",
          "type": "address"
        },
        {
          "internalType": "address",
          "name": "weth",
          "type": "address"
        },
        {
          "internalType": "address",
          "name": "wAuraBooster",
          "type": "address"
        },
        {
          "internalType": "address",
          "name": "augustusSwapper",
          "type": "address"
        },
        {
          "internalType": "address",
          "name": "tokenTransferProxy",
          "type": "address"
        },
        {
          "internalType": "address",
          "name": "owner",
          "type": "address"
        }
      ],
      "name": "initialize",
      "outputs": [],
      "stateMutability": "nonpayable",
      "type": "function"
    },
    {
      "inputs": [
        {
          "internalType": "address",
          "name": "",
          "type": "address"
        },
        {
          "internalType": "address",
          "name": "",
          "type": "address"
        },
        {
          "internalType": "uint256[]",
          "name": "",
          "type": "uint256[]"
        },
        {
          "internalType": "uint256[]",
          "name": "",
          "type": "uint256[]"
        },
        {
          "internalType": "bytes",
          "name": "",
          "type": "bytes"
        }
      ],
      "name": "onERC1155BatchReceived",
      "outputs": [
        {
          "internalType": "bytes4",
          "name": "",
          "type": "bytes4"
        }
      ],
      "stateMutability": "pure",
      "type": "function"
    },
    {
      "inputs": [
        {
          "internalType": "address",
          "name": "",
          "type": "address"
        },
        {
          "internalType": "address",
          "name": "",
          "type": "address"
        },
        {
          "internalType": "uint256",
          "name": "",
          "type": "uint256"
        },
        {
          "internalType": "uint256",
          "name": "",
          "type": "uint256"
        },
        {
          "internalType": "bytes",
          "name": "",
          "type": "bytes"
        }
      ],
      "name": "onERC1155Received",
      "outputs": [
        {
          "internalType": "bytes4",
          "name": "",
          "type": "bytes4"
        }
      ],
      "stateMutability": "pure",
      "type": "function"
    },
    {
      "inputs": [
        {
          "components": [
            {
              "internalType": "uint256",
              "name": "strategyId",
              "type": "uint256"
            },
            {
              "internalType": "address",
              "name": "collToken",
              "type": "address"
            },
            {
              "internalType": "uint256",
              "name": "collAmount",
              "type": "uint256"
            },
            {
              "internalType": "address",
              "name": "borrowToken",
              "type": "address"
            },
            {
              "internalType": "uint256",
              "name": "borrowAmount",
              "type": "uint256"
            },
            {
              "internalType": "uint256",
              "name": "farmingPoolId",
              "type": "uint256"
            }
          ],
          "internalType": "struct IBasicSpell.OpenPosParam",
          "name": "param",
          "type": "tuple"
        },
        {
          "internalType": "uint256",
          "name": "minimumBPT",
          "type": "uint256"
        }
      ],
      "name": "openPositionFarm",
      "outputs": [],
      "stateMutability": "nonpayable",
      "type": "function"
    },
    {
      "inputs": [],
      "name": "owner",
      "outputs": [
        {
          "internalType": "address",
          "name": "",
          "type": "address"
        }
      ],
      "stateMutability": "view",
      "type": "function"
    },
    {
      "inputs": [],
      "name": "pendingOwner",
      "outputs": [
        {
          "internalType": "address",
          "name": "",
          "type": "address"
        }
      ],
      "stateMutability": "view",
      "type": "function"
    },
    {
      "inputs": [
        {
          "internalType": "uint256",
          "name": "strategyId",
          "type": "uint256"
        },
        {
          "internalType": "address",
          "name": "collToken",
          "type": "address"
        },
        {
          "internalType": "uint256",
          "name": "collShareAmount",
          "type": "uint256"
        }
      ],
      "name": "reducePosition",
      "outputs": [],
      "stateMutability": "nonpayable",
      "type": "function"
    },
    {
      "inputs": [],
      "name": "renounceOwnership",
      "outputs": [],
      "stateMutability": "nonpayable",
      "type": "function"
    },
    {
      "inputs": [
        {
          "internalType": "uint256",
          "name": "strategyId",
          "type": "uint256"
        },
        {
          "internalType": "address[]",
          "name": "collaterals",
          "type": "address[]"
        },
        {
          "internalType": "uint256[]",
          "name": "maxLTVs",
          "type": "uint256[]"
        }
      ],
      "name": "setCollateralsMaxLTVs",
      "outputs": [],
      "stateMutability": "nonpayable",
      "type": "function"
    },
    {
      "inputs": [
        {
          "internalType": "uint256",
          "name": "strategyId",
          "type": "uint256"
        },
        {
          "internalType": "uint256",
          "name": "minPosSize",
          "type": "uint256"
        },
        {
          "internalType": "uint256",
          "name": "maxPosSize",
          "type": "uint256"
        }
      ],
      "name": "setPosSize",
      "outputs": [],
      "stateMutability": "nonpayable",
      "type": "function"
    },
    {
      "inputs": [
        {
          "internalType": "bytes4",
          "name": "interfaceId",
          "type": "bytes4"
        }
      ],
      "name": "supportsInterface",
      "outputs": [
        {
          "internalType": "bool",
          "name": "",
          "type": "bool"
        }
      ],
      "stateMutability": "view",
      "type": "function"
    },
    {
      "inputs": [
        {
          "internalType": "address",
          "name": "newOwner",
          "type": "address"
        }
      ],
      "name": "transferOwnership",
      "outputs": [],
      "stateMutability": "nonpayable",
      "type": "function"
    },
    {
      "stateMutability": "payable",
      "type": "receive"
    }
  ],
  "bytecode": "0x60806040523480156200001157600080fd5b506200001c6200002c565b620000266200002c565b620000ed565b600054610100900460ff1615620000995760405162461bcd60e51b815260206004820152602760248201527f496e697469616c697a61626c653a20636f6e747261637420697320696e697469604482015266616c697a696e6760c81b606482015260840160405180910390fd5b60005460ff90811614620000eb576000805460ff191660ff9081179091556040519081527f7f26b83ff96e1f2b6a682f133852f6798a09c465da95921460cefb38474024989060200160405180910390a15b565b6145e680620000fd6000396000f3fe60806040526004361061016a5760003560e01c80638b5c97c7116100d1578063cae5f11e1161008a578063e30c397811610064578063e30c39781461048d578063f23a6e61146104ab578063f2fde38b146104d8578063fa34d611146104f857600080fd5b8063cae5f11e14610406578063cfc0cc3414610424578063d2c4b5981461046f57600080fd5b80638b5c97c7146103265780638da5cb5b146103445780639b65707014610362578063bc197c8114610380578063bdcc0e72146103c8578063be41d9d2146103e657600080fd5b80633c3072d0116101235780633c3072d01461026c5780633c68b36e1461028c578063552470e1146102be57806360d704db146102de578063715018a6146102fc57806379ba50971461031157600080fd5b806301ffc9a714610176578063024aeb32146101bc5780631a41241c146101de5780631f4187131461020c578063358764761461022c5780633773678d1461024c57600080fd5b3661017157005b600080fd5b34801561018257600080fd5b506101a761019136600461378b565b6001600160e01b031916630271189760e51b1490565b60405190151581526020015b60405180910390f35b3480156101c857600080fd5b506101dc6101d7366004613897565b610518565b005b3480156101ea57600080fd5b506101fe6101f9366004613963565b6106c0565b6040519081526020016101b3565b34801561021857600080fd5b506101dc610227366004613993565b6106ea565b34801561023857600080fd5b506101dc6102473660046139bf565b6107ec565b34801561025857600080fd5b506101dc610267366004613a55565b610a25565b34801561027857600080fd5b506101dc610287366004613a81565b610a33565b34801561029857600080fd5b5060c9546001600160a01b03165b6040516001600160a01b0390911681526020016101b3565b3480156102ca57600080fd5b506101dc6102d9366004613afd565b61125c565b3480156102ea57600080fd5b506097546001600160a01b03166102a6565b34801561030857600080fd5b506101dc611922565b34801561031d57600080fd5b506101dc611936565b34801561033257600080fd5b50609a546001600160a01b03166102a6565b34801561035057600080fd5b506033546001600160a01b03166102a6565b34801561036e57600080fd5b506098546001600160a01b03166102a6565b34801561038c57600080fd5b506103af61039b366004613bdb565b63bc197c8160e01b98975050505050505050565b6040516001600160e01b031990911681526020016101b3565b3480156103d457600080fd5b5060ca546001600160a01b03166102a6565b3480156103f257600080fd5b506101dc610401366004613c99565b6119b0565b34801561041257600080fd5b506099546001600160a01b03166102a6565b34801561043057600080fd5b5061044461043f366004613cd1565b611b17565b6040805182516001600160a01b031681526020808401519082015291810151908201526060016101b3565b34801561047b57600080fd5b50609b546001600160a01b03166102a6565b34801561049957600080fd5b506065546001600160a01b03166102a6565b3480156104b757600080fd5b506103af6104c6366004613cea565b63f23a6e6160e01b9695505050505050565b3480156104e457600080fd5b506101dc6104f3366004613d65565b611ba0565b34801561050457600080fd5b506101dc610513366004613d82565b611c11565b609c5483908110610549573081604051637d8b9ec760e01b8152600401610540929190613db7565b60405180910390fd5b610551611c29565b8151835114158061056157508251155b1561057f5760405163025e650f60e01b815260040160405180910390fd5b60005b835181101561067e5760006001600160a01b03168482815181106105a8576105a8613dd0565b60200260200101516001600160a01b0316036105d75760405163538ba4f960e01b815260040160405180910390fd5b8281815181106105e9576105e9613dd0565b602002602001015160000361061157604051630f6fa54560e41b815260040160405180910390fd5b82818151811061062357610623613dd0565b6020026020010151609d6000878152602001908152602001600020600086848151811061065257610652613dd0565b6020908102919091018101516001600160a01b0316825281019190915260400160002055600101610582565b507f27f3c4b3dd7f84e103b037b6d823521ed2147ae463c4d632bcff511d481835398484846040516106b293929190613e22565b60405180910390a150505050565b6000828152609d602090815260408083206001600160a01b03851684529091529020545b92915050565b609c5483908110610712573081604051637d8b9ec760e01b8152600401610540929190613db7565b61071a611c29565b8160000361073b57604051630f6fa54560e41b815260040160405180910390fd5b81831061075b576040516391b88ab760e01b815260040160405180910390fd5b82609c858154811061076f5761076f613dd0565b90600052602060002090600302016001018190555081609c858154811061079857610798613dd0565b6000918252602091829020600260039092020101919091556040805186815291820185905281018390527f02072ffe80e3752e5cc4fe3734dc5ebfcc8db5990257226f29c309147dd0562b906060016106b2565b600054610100900460ff161580801561080c5750600054600160ff909116105b806108265750303b158015610826575060005460ff166001145b6108895760405162461bcd60e51b815260206004820152602e60248201527f496e697469616c697a61626c653a20636f6e747261637420697320616c72656160448201526d191e481a5b9a5d1a585b1a5e995960921b6064820152608401610540565b6000805460ff1916600117905580156108ac576000805461ff0019166101001790555b6108ba888888878787611c83565b6001600160a01b0385166108e15760405163538ba4f960e01b815260040160405180910390fd5b60c980546001600160a01b0319166001600160a01b03871690811790915560408051635ee6073960e11b8152905163bdcc0e72916004808201926020929091908290030181865afa15801561093a573d6000803e3d6000fd5b505050506040513d601f19601f8201168201806040525081019061095e9190613e8e565b60ca80546001600160a01b0319166001600160a01b0392831617905560405163a22cb46560e01b81528982166004820152600160248201529086169063a22cb46590604401600060405180830381600087803b1580156109bd57600080fd5b505af11580156109d1573d6000803e3d6000fd5b505050508015610a1b576000805461ff0019169055604051600181527f7f26b83ff96e1f2b6a682f133852f6798a09c465da95921460cefb38474024989060200160405180910390a15b5050505050505050565b610a2f8282611db5565b5050565b609c548235908110610a5c573081604051637d8b9ec760e01b8152600401610540929190613db7565b8235610a6e6040850160208601613d65565b6000828152609d602090815260408083206001600160a01b03851684529091528120549003610ac25760405163771ebc0560e11b8152600481018390526001600160a01b0382166024820152604401610540565b6000610ad66097546001600160a01b031690565b90506000609c876000013581548110610af157610af1613dd0565b600091825260208083206040805160608101825260039490940290910180546001600160a01b039081168552600182015493850193909352600201548382015260c9549051635ba2f90960e01b815260a08c013560048201529294501690635ba2f9099060240160c060405180830381865afa158015610b75573d6000803e3d6000fd5b505050506040513d601f19601f82011682018060405250810190610b999190613ecb565b50505050509050806001600160a01b031682600001516001600160a01b031614610be157604051632fa4e7ef60e11b81526001600160a01b0382166004820152602401610540565b610bfe610bf460408a0160208b01613d65565b8960400135611db5565b610c1b610c1160808a0160608b01613d65565b8960800135611e23565b5060c954604080516311b2515f60e31b8152905189926000926001600160a01b0390911691638d928af8916004808201926020929091908290030181865afa158015610c6b573d6000803e3d6000fd5b505050506040513d601f19601f82011682018060405250810190610c8f9190613e8e565b60c95460405163ca4f280360e01b81526001600160a01b0386811660048301529293506000929091169063ca4f280390602401600060405180830381865afa158015610cdf573d6000803e3d6000fd5b505050506040513d6000823e601f3d908101601f19168201604052610d079190810190614014565b50509050600080610d19848488611fc3565b60c9546040516377e3d66b60e11b81526001600160a01b038a811660048301529395509193508683169263b95cac289291169063efc7acd690602401602060405180830381865afa158015610d72573d6000803e3d6000fd5b505050506040513d601f19601f82011682018060405250810190610d969190614080565b303060405180608001604052808981526020018881526020016001888d604051602001610dc593929190614099565b6040516020818303038152906040528152602001600015158152506040518563ffffffff1660e01b8152600401610dff94939291906141ae565b600060405180830381600087803b158015610e1957600080fd5b505af1158015610e2d573d6000803e3d6000fd5b505050505050505050610e438860000135612224565b610e4d8835612437565b6000836001600160a01b031663f70aedd96040518163ffffffff1660e01b815260040161010060405180830381865afa158015610e8e573d6000803e3d6000fd5b505050506040513d601f19601f82011682018060405250810190610eb291906141ea565b60c0810151909150156110de5760c95460a0820151604051636e10637d60e11b815260048101919091526000916001600160a01b03169063dc20c6fa906024016040805180830381865afa158015610f0e573d6000803e3d6000fd5b505050506040513d601f19601f82011682018060405250810190610f32919061429a565b509050808a60a0013514610f5f5760405163283618b560e11b815260a08b01356004820152602401610540565b60c95460208301516001600160a01b03908116911614610fa3576020820151604051634154f11960e01b81526001600160a01b039091166004820152602401610540565b60c082015160405163458070cb60e11b815260048101919091526001600160a01b03861690638b00e196906024016020604051808303816000875af1158015610ff0573d6000803e3d6000fd5b505050506040513d601f19601f820116820180604052508101906110149190614080565b5060c95460a083015160c084015160405163b390c0ab60e01b81526000936001600160a01b03169263b390c0ab9261105792600401918252602082015260400190565b6000604051808303816000875af1158015611076573d6000803e3d6000fd5b505050506040513d6000823e601f3d908101601f1916820160405261109e91908101906142be565b50805190915060005b818110156110d9576110d18382815181106110c4576110c4613dd0565b6020026020010151612846565b6001016110a7565b505050505b6040516370a0823160e01b81523060048201526000906001600160a01b038416906370a0823190602401602060405180830381865afa158015611125573d6000803e3d6000fd5b505050506040513d601f19601f820116820180604052508101906111499190614080565b60c954909150611166906001600160a01b03858116911683612859565b60c954604051630d9778e560e11b815260a08c01356004820152602481018390526000916001600160a01b031690631b2ef1ca906044016020604051808303816000875af11580156111bc573d6000803e3d6000fd5b505050506040513d601f19601f820116820180604052508101906111e09190614080565b60c95460405163314568d960e01b81526001600160a01b039182166004820152602481018390526044810185905291925087169063314568d990606401600060405180830381600087803b15801561123757600080fd5b505af115801561124b573d6000803e3d6000fd5b505050505050505050505050505050565b609c548535908110611285573081604051637d8b9ec760e01b8152600401610540929190613db7565b85356112976040880160208901613d65565b6000828152609d602090815260408083206001600160a01b038516845290915281205490036112eb5760405163771ebc0560e11b8152600481018390526001600160a01b0382166024820152604401610540565b60006112ff6097546001600160a01b031690565b90506000816001600160a01b031663f70aedd96040518163ffffffff1660e01b815260040161010060405180830381865afa158015611342573d6000803e3d6000fd5b505050506040513d601f19601f8201168201806040525081019061136691906141ea565b90506000609c8b600001358154811061138157611381613dd0565b60009182526020918290206003909102015460c954918401516001600160a01b03918216935081169116146113da576020820151604051634154f11960e01b81526001600160a01b039091166004820152602401610540565b60c95460a083015160405163523babb960e11b815260048101919091526001600160a01b0383811692169063a477577290602401602060405180830381865afa15801561142b573d6000803e3d6000fd5b505050506040513d601f19601f8201168201806040525081019061144f9190613e8e565b6001600160a01b0316146114815760405163a1a006a360e01b81526001600160a01b0382166004820152602401610540565b60405163458070cb60e11b815260808c013560048201526001600160a01b03841690638b00e196906024016020604051808303816000875af11580156114cb573d6000803e3d6000fd5b505050506040513d601f19601f820116820180604052508101906114ef9190614080565b5060c95460a083015160405163b390c0ab60e01b8152600481019190915260808d013560248201526060916001600160a01b03169063b390c0ab906044016000604051808303816000875af115801561154c573d6000803e3d6000fd5b505050506040513d6000823e601f3d908101601f1916820160405261157491908101906142be565b509050611584818c8c8c8c61287a565b5060808b0135600181016115fd576040516370a0823160e01b81523060048201526001600160a01b038316906370a0823190602401602060405180830381865afa1580156115d6573d6000803e3d6000fd5b505050506040513d601f19601f820116820180604052508101906115fa9190614080565b90505b600080600061160c8f86612973565b92509250925060c960009054906101000a90046001600160a01b03166001600160a01b0316638d928af86040518163ffffffff1660e01b8152600401602060405180830381865afa158015611665573d6000803e3d6000fd5b505050506040513d601f19601f820116820180604052508101906116899190613e8e565b6001600160a01b0316638bdb3913866001600160a01b03166338fff2d06040518163ffffffff1660e01b8152600401602060405180830381865afa1580156116d5573d6000803e3d6000fd5b505050506040513d601f19601f820116820180604052508101906116f99190614080565b604080516080808201835287825260208083018a9052835160009181018290528085018c905260608082018a9052855180830382018152919093018552838501529082015290516001600160e01b031960e085901b168152611763929130918291906004016141ae565b600060405180830381600087803b15801561177d57600080fd5b505af1158015611791573d6000803e3d6000fd5b5050505050505050506117ba8a60200160208101906117b09190613d65565b8b60a00135612b0b565b6117e56117cd60408c0160208d01613d65565b60e08c01356117e06101008e018e614321565b612b43565b60608a0135600181016118c757826001600160a01b031663269a4bad846001600160a01b031663d7ac71ff6040518163ffffffff1660e01b8152600401602060405180830381865afa15801561183f573d6000803e3d6000fd5b505050506040513d601f19601f820116820180604052508101906118639190614080565b6040518263ffffffff1660e01b815260040161188191815260200190565b6020604051808303816000875af11580156118a0573d6000803e3d6000fd5b505050506040513d601f19601f820116820180604052508101906118c49190614080565b90505b6118e06118da60608d0160408e01613d65565b82612b7d565b506118eb8a35612224565b6119036118fe60608c0160408d01613d65565b612c6e565b6119166118fe60408c0160208d01613d65565b50505050505050505050565b61192a611c29565b6119346000612d0b565b565b60655433906001600160a01b031681146119a45760405162461bcd60e51b815260206004820152602960248201527f4f776e61626c6532537465703a2063616c6c6572206973206e6f7420746865206044820152683732bb9037bbb732b960b91b6064820152608401610540565b6119ad81612d0b565b50565b6097546040805163f70aedd960e01b815290516000926001600160a01b03169163f70aedd9916004808301926101009291908290030181865afa1580156119fb573d6000803e3d6000fd5b505050506040513d601f19601f82011682018060405250810190611a1f91906141ea565b9050600081602001516001600160a01b031663a47757728360a001516040518263ffffffff1660e01b8152600401611a5991815260200190565b602060405180830381865afa158015611a76573d6000803e3d6000fd5b505050506040513d601f19601f82011682018060405250810190611a9a9190613e8e565b9050806001600160a01b0316609c8681548110611ab957611ab9613dd0565b60009182526020909120600390910201546001600160a01b031614611af45760405163b09dea7360e01b815260048101869052602401610540565b611afe8484612b0b565b611b0784612c6e565b611b1085612224565b5050505050565b611b44604051806060016040528060006001600160a01b0316815260200160008152602001600081525090565b609c8281548110611b5757611b57613dd0565b600091825260209182902060408051606081018252600390930290910180546001600160a01b031683526001810154938301939093526002909201549181019190915292915050565b611ba8611c29565b606580546001600160a01b0383166001600160a01b03199091168117909155611bd96033546001600160a01b031690565b6001600160a01b03167f38d16b8cac22d99fc7c124b9cd0de2d3fa1faef420bfe791d8c362d765e2270060405160405180910390a350565b611c19611c29565b611c24838383612d24565b505050565b6033546001600160a01b031633146119345760405162461bcd60e51b815260206004820181905260248201527f4f776e61626c653a2063616c6c6572206973206e6f7420746865206f776e65726044820152606401610540565b600054610100900460ff16611caa5760405162461bcd60e51b815260040161054090614367565b6001600160a01b0386161580611cc757506001600160a01b038516155b80611cd957506001600160a01b038416155b15611cf75760405163538ba4f960e01b815260040160405180910390fd5b611cff612eaa565b611d0881612d0b565b609780546001600160a01b03199081166001600160a01b03898116918217909355609880548316898516908117909155609980548416898616179055609a80548416888616179055609b80549093169386169390931790915560405163a22cb46560e01b815260048101919091526001602482015263a22cb465906044015b600060405180830381600087803b158015611da157600080fd5b505af1158015611916573d6000803e3d6000fd5b8015610a2f5760975460405163a2fb342d60e01b81526001600160a01b039091169063a2fb342d90611ded9085908590600401613db7565b600060405180830381600087803b158015611e0757600080fd5b505af1158015611e1b573d6000803e3d6000fd5b505050505050565b600081156106e4576000611e3f846001600160a01b0316612ed9565b90506000611e556097546001600160a01b031690565b90506000611e6b6099546001600160a01b031690565b90508215611f4657604051634b8a352960e01b81526001600160a01b03831690634b8a352990611ea19084908990600401613db7565b6020604051808303816000875af1158015611ec0573d6000803e3d6000fd5b505050506040513d601f19601f82011682018060405250810190611ee49190614080565b604051632e1a7d4d60e01b8152600481018290529094506001600160a01b03821690632e1a7d4d90602401600060405180830381600087803b158015611f2957600080fd5b505af1158015611f3d573d6000803e3d6000fd5b50505050611fba565b604051634b8a352960e01b81526001600160a01b03831690634b8a352990611f749089908990600401613db7565b6020604051808303816000875af1158015611f93573d6000803e3d6000fd5b505050506040513d601f19601f82011682018060405250810190611fb79190614080565b93505b50505092915050565b6060806000806000865190506000816001600160401b03811115611fe957611fe96137b5565b604051908082528060200260200182016040528015612012578160200160208202803683370190505b5090506000826001600160401b0381111561202f5761202f6137b5565b604051908082528060200260200182016040528015612058578160200160208202803683370190505b50905060005b8386101561220657886001600160a01b03168a878151811061208257612082613dd0565b60200260200101516001600160a01b0316146121f7578986815181106120aa576120aa613dd0565b60209081029190910101516040516370a0823160e01b81523060048201526001600160a01b03909116906370a0823190602401602060405180830381865afa1580156120fa573d6000803e3d6000fd5b505050506040513d601f19601f8201168201806040525081019061211e9190614080565b82868151811061213057612130613dd0565b602002602001018181525050600082868151811061215057612150613dd0565b602002602001015111156121e7576121ae8b83878151811061217457612174613dd0565b60200260200101518c898151811061218e5761218e613dd0565b60200260200101516001600160a01b03166128599092919063ffffffff16565b8185815181106121c0576121c0613dd0565b60200260200101518387815181106121da576121da613dd0565b6020026020010181815250505b6121f0856143c8565b94506121fb565b5060015b85600101955061205e565b801561221457600182510382525b5090999098509650505050505050565b60006122386097546001600160a01b031690565b90506000816001600160a01b031663d7ac71ff6040518163ffffffff1660e01b8152600401602060405180830381865afa15801561227a573d6000803e3d6000fd5b505050506040513d601f19601f8201168201806040525081019061229e9190614080565b60405163519f509960e01b8152600481018290529091506000906001600160a01b0384169063519f50999060240161010060405180830381865afa1580156122ea573d6000803e3d6000fd5b505050506040513d601f19601f8201168201806040525081019061230e91906141ea565b60405163c0177bd560e01b8152600481018490529091506000906001600160a01b0385169063c0177bd5906024016020604051808303816000875af115801561235b573d6000803e3d6000fd5b505050506040513d601f19601f8201168201806040525081019061237f9190614080565b6040516394d95d0560e01b8152600481018590529091506000906001600160a01b038616906394d95d05906024016020604051808303816000875af11580156123cc573d6000803e3d6000fd5b505050506040513d601f19601f820116820180604052508101906123f09190614080565b90506127106124038785604001516106c0565b61240d90836143e1565b61241791906143f8565b821115611e1b57604051639ec6e1ab60e01b815260040160405180910390fd5b600061244b6097546001600160a01b031690565b90506000609c838154811061246257612462613dd0565b6000918252602080832060408051606081018252600390940290910180546001600160a01b0390811685526001820154938501939093526002015483820152805163f70aedd960e01b815290519294509085169163f70aedd991600480820192610100929091908290030181865afa1580156124e2573d6000803e3d6000fd5b505050506040513d601f19601f8201168201806040525081019061250691906141ea565b60208101519091506000906001600160a01b03161561260f57836001600160a01b031663833b1fce6040518163ffffffff1660e01b8152600401602060405180830381865afa15801561255d573d6000803e3d6000fd5b505050506040513d601f19601f820116820180604052508101906125819190613e8e565b602083015160a084015160c08501516040516001621852b960e21b031981526001600160a01b0393841660048201526024810192909252604482015291169063ff9eb51c906064016020604051808303816000875af11580156125e8573d6000803e3d6000fd5b505050506040513d601f19601f8201168201806040525081019061260c9190614080565b90505b82516040516370a0823160e01b81523060048201526000919082906001600160a01b038316906370a0823190602401602060405180830381865afa15801561265b573d6000803e3d6000fd5b505050506040513d601f19601f8201168201806040525081019061267f9190614080565b90506000876001600160a01b031663833b1fce6040518163ffffffff1660e01b8152600401602060405180830381865afa1580156126c1573d6000803e3d6000fd5b505050506040513d601f19601f820116820180604052508101906126e59190613e8e565b6040516341976e0960e01b81526001600160a01b03858116600483015291909116906341976e09906024016020604051808303816000875af115801561272f573d6000803e3d6000fd5b505050506040513d601f19601f820116820180604052508101906127539190614080565b9050826001600160a01b031663313ce5676040518163ffffffff1660e01b8152600401602060405180830381865afa158015612793573d6000803e3d6000fd5b505050506040513d601f19601f820116820180604052508101906127b7919061441a565b6127c290600a614521565b6127cc83836143e1565b6127d691906143f8565b60408801519094506127e88587614530565b111561280a5760405163d7eb71dd60e01b8152600481018a9052602401610540565b60208701516128198587614530565b101561283b576040516309f2a95760e01b8152600481018a9052602401610540565b505050505050505050565b61284f81612f12565b506119ad81612c6e565b61286283612ed9565b611c2457611c246001600160a01b03841683836130ef565b845160005b8181101561296a57600087828151811061289b5761289b613dd0565b602002602001015190506128ae81612f12565b508686838181106128c1576128c1613dd0565b9050602002013560001415801561292f5750609a54609b5461292d916001600160a01b039081169116838a8a878181106128fd576128fd613dd0565b9050602002013589898881811061291657612916613dd0565b90506020028101906129289190614321565b6131bb565b155b156129585760405163f65efd3160e01b81526001600160a01b0382166004820152602401610540565b61296181612c6e565b5060010161287f565b50505050505050565b60608060008061298886840160408801613d65565b60c95460405163ca4f280360e01b81526001600160a01b03888116600483015292935060c089013592600092169063ca4f280390602401600060405180830381865afa1580156129dc573d6000803e3d6000fd5b505050506040513d6000823e601f3d908101601f19168201604052612a049190810190614014565b505080519091506000816001600160401b03811115612a2557612a256137b5565b604051908082528060200260200182016040528015612a4e578160200160208202803683370190505b5090506000805b83811015612af957866001600160a01b0316858281518110612a7957612a79613dd0565b60200260200101516001600160a01b031603612ab35785838281518110612aa257612aa2613dd0565b602002602001018181525050612af9565b8a6001600160a01b0316858281518110612acf57612acf613dd0565b60200260200101516001600160a01b031614612af157612aee826143c8565b91505b600101612a55565b50909a92995097509095505050505050565b8015610a2f57609754604051637b7fb58960e11b81526001600160a01b039091169063f6ff6b1290611ded9085908590600401613db7565b600083118015612b5257508015155b15612b7757609a54609b54611b10916001600160a01b039081169116868686866131bb565b50505050565b8015610a2f57600080612b98846001600160a01b0316612ed9565b90506000612bae6099546001600160a01b031690565b90508115612c1257806001600160a01b031663d0e30db0856040518263ffffffff1660e01b81526004016000604051808303818588803b158015612bf157600080fd5b505af1158015612c05573d6000803e3d6000fd5b5050505050809250612c16565b8492505b6000612c2a6097546001600160a01b031690565b9050612c406001600160a01b0385168287612859565b604051630450cfaf60e31b81526001600160a01b038216906322867d7890611d879087908990600401613db7565b6000612c836001600160a01b03831630613253565b90508015610a2f576097546040805163630dc7cb60e01b81529051611c24926001600160a01b03169163630dc7cb9160048083019260209291908290030181865afa158015612cd6573d6000803e3d6000fd5b505050506040513d601f19601f82011682018060405250810190612cfa9190613e8e565b6001600160a01b03841690836132e5565b606580546001600160a01b03191690556119ad816133c7565b6001600160a01b038316612d4b5760405163538ba4f960e01b815260040160405180910390fd5b80600003612d6c57604051630f6fa54560e41b815260040160405180910390fd5b808210612d8c576040516391b88ab760e01b815260040160405180910390fd5b604080516060810182526001600160a01b03858116825260208201858152928201848152609c805460018082018355600083905294517faf85b9071dfafeac1409d3f1d19bafc9bc7c37974cde8df0ee6168f0086e539c600390920291820180546001600160a01b031916919095161790935593517faf85b9071dfafeac1409d3f1d19bafc9bc7c37974cde8df0ee6168f0086e539d830155517faf85b9071dfafeac1409d3f1d19bafc9bc7c37974cde8df0ee6168f0086e539e9091015590547f66ba603c43e21681e4417f6ba08d4984e7711e0f696718b5c621b9e1f12e649491612e7891614543565b604080519182526001600160a01b038616602083015281018490526060810183905260800160405180910390a1505050565b600054610100900460ff16612ed15760405162461bcd60e51b815260040161054090614367565b611934613419565b60006001600160a01b03821615806106e457506001600160a01b03821673eeeeeeeeeeeeeeeeeeeeeeeeeeeeeeeeeeeeeeee1492915050565b6040516370a0823160e01b815230600482015260009081906001600160a01b038416906370a0823190602401602060405180830381865afa158015612f5b573d6000803e3d6000fd5b505050506040513d601f19601f82011682018060405250810190612f7f9190614080565b905080156130e9576000612f9b6097546001600160a01b031690565b9050613013816001600160a01b031663f2d638266040518163ffffffff1660e01b8152600401602060405180830381865afa158015612fde573d6000803e3d6000fd5b505050506040513d601f19601f820116820180604052508101906130029190613e8e565b6001600160a01b0386169084612859565b806001600160a01b031663f2d638266040518163ffffffff1660e01b8152600401602060405180830381865afa158015613051573d6000803e3d6000fd5b505050506040513d601f19601f820116820180604052508101906130759190613e8e565b6001600160a01b031663e43c128d85846040518363ffffffff1660e01b81526004016130a2929190613db7565b6020604051808303816000875af11580156130c1573d6000803e3d6000fd5b505050506040513d601f19601f820116820180604052508101906130e59190614080565b9250505b50919050565b600063095ea7b360e01b838360405160240161310c929190613db7565b60408051601f198184030181529190526020810180516001600160e01b03166001600160e01b031990931692909217909152905061314a8482613449565b612b77576040516001600160a01b0384166024820152600060448201526131b190859063095ea7b360e01b906064015b60408051601f198184030181529190526020810180516001600160e01b03166001600160e01b0319909316929092179091526134f0565b612b7784826134f0565b60006131c88587866135c5565b6060876001600160a01b031684846040516131e4929190614556565b6000604051808303816000865af19150503d8060008114613221576040519150601f19603f3d011682016040523d82523d6000602084013e613226565b606091505b50909250905061323886886000612859565b8051156132485780518082602001fd5b509695505050505050565b600061325e83612ed9565b1561327457506001600160a01b038116316106e4565b6040516370a0823160e01b81526001600160a01b0383811660048301528416906370a0823190602401602060405180830381865afa1580156132ba573d6000803e3d6000fd5b505050506040513d601f19601f820116820180604052508101906132de9190614080565b90506106e4565b6000816000036132f7575060016133c0565b61330084612ed9565b156133a8576000836001600160a01b03168360405160006040518083038185875af1925050503d8060008114613352576040519150601f19603f3d011682016040523d82523d6000602084013e613357565b606091505b505090508061339e5760405162461bcd60e51b8152602060048201526013602482015272115512081d1c985b9cd9995c8819985a5b1959606a1b6044820152606401610540565b60019150506133c0565b6133bc6001600160a01b03851684846135dc565b5060015b9392505050565b603380546001600160a01b038381166001600160a01b0319831681179093556040519116919082907f8be0079c531659141344cd1fd0a4f28419497f9722a3daafe3b4186f6b6457e090600090a35050565b600054610100900460ff166134405760405162461bcd60e51b815260040161054090614367565b61193433612d0b565b6000806000846001600160a01b0316846040516134669190614566565b6000604051808303816000865af19150503d80600081146134a3576040519150601f19603f3d011682016040523d82523d6000602084013e6134a8565b606091505b50915091508180156134d25750805115806134d25750808060200190518101906134d29190614582565b80156134e757506001600160a01b0385163b15155b95945050505050565b6000613545826040518060400160405280602081526020017f5361666545524332303a206c6f772d6c6576656c2063616c6c206661696c6564815250856001600160a01b03166135fb9092919063ffffffff16565b90508051600014806135665750808060200190518101906135669190614582565b611c245760405162461bcd60e51b815260206004820152602a60248201527f5361666545524332303a204552433230206f7065726174696f6e20646964206e6044820152691bdd081cdd58d8d9595960b21b6064820152608401610540565b6135d183836000612859565b611c24838383612859565b611c248363a9059cbb60e01b848460405160240161317a929190613db7565b606061360a8484600085613612565b949350505050565b6060824710156136735760405162461bcd60e51b815260206004820152602660248201527f416464726573733a20696e73756666696369656e742062616c616e636520666f6044820152651c8818d85b1b60d21b6064820152608401610540565b600080866001600160a01b0316858760405161368f9190614566565b60006040518083038185875af1925050503d80600081146136cc576040519150601f19603f3d011682016040523d82523d6000602084013e6136d1565b606091505b50915091506136e2878383876136ed565b979650505050505050565b6060831561375c578251600003613755576001600160a01b0385163b6137555760405162461bcd60e51b815260206004820152601d60248201527f416464726573733a2063616c6c20746f206e6f6e2d636f6e74726163740000006044820152606401610540565b508161360a565b61360a83838151156137715781518083602001fd5b8060405162461bcd60e51b8152600401610540919061459d565b60006020828403121561379d57600080fd5b81356001600160e01b0319811681146133c057600080fd5b634e487b7160e01b600052604160045260246000fd5b604051601f8201601f191681016001600160401b03811182821017156137f3576137f36137b5565b604052919050565b60006001600160401b03821115613814576138146137b5565b5060051b60200190565b6001600160a01b03811681146119ad57600080fd5b600082601f83011261384457600080fd5b81356020613859613854836137fb565b6137cb565b8083825260208201915060208460051b87010193508684111561387b57600080fd5b602086015b848110156132485780358352918301918301613880565b6000806000606084860312156138ac57600080fd5b833592506020808501356001600160401b03808211156138cb57600080fd5b818701915087601f8301126138df57600080fd5b81356138ed613854826137fb565b81815260059190911b8301840190848101908a83111561390c57600080fd5b938501935b828510156139335784356139248161381e565b82529385019390850190613911565b96505050604087013592508083111561394b57600080fd5b505061395986828701613833565b9150509250925092565b6000806040838503121561397657600080fd5b8235915060208301356139888161381e565b809150509250929050565b6000806000606084860312156139a857600080fd5b505081359360208301359350604090920135919050565b600080600080600080600060e0888a0312156139da57600080fd5b87356139e58161381e565b965060208801356139f58161381e565b95506040880135613a058161381e565b94506060880135613a158161381e565b93506080880135613a258161381e565b925060a0880135613a358161381e565b915060c0880135613a458161381e565b8091505092959891949750929550565b60008060408385031215613a6857600080fd5b8235613a738161381e565b946020939093013593505050565b60008082840360e0811215613a9557600080fd5b60c0811215613aa357600080fd5b50919360c08501359350915050565b60008083601f840112613ac457600080fd5b5081356001600160401b03811115613adb57600080fd5b6020830191508360208260051b8501011115613af657600080fd5b9250929050565b600080600080600060608688031215613b1557600080fd5b85356001600160401b0380821115613b2c57600080fd5b90870190610120828a031215613b4157600080fd5b90955060208701359080821115613b5757600080fd5b613b6389838a01613ab2565b90965094506040880135915080821115613b7c57600080fd5b50613b8988828901613ab2565b969995985093965092949392505050565b60008083601f840112613bac57600080fd5b5081356001600160401b03811115613bc357600080fd5b602083019150836020828501011115613af657600080fd5b60008060008060008060008060a0898b031215613bf757600080fd5b8835613c028161381e565b97506020890135613c128161381e565b965060408901356001600160401b0380821115613c2e57600080fd5b613c3a8c838d01613ab2565b909850965060608b0135915080821115613c5357600080fd5b613c5f8c838d01613ab2565b909650945060808b0135915080821115613c7857600080fd5b50613c858b828c01613b9a565b999c989b5096995094979396929594505050565b600080600060608486031215613cae57600080fd5b833592506020840135613cc08161381e565b929592945050506040919091013590565b600060208284031215613ce357600080fd5b5035919050565b60008060008060008060a08789031215613d0357600080fd5b8635613d0e8161381e565b95506020870135613d1e8161381e565b9450604087013593506060870135925060808701356001600160401b03811115613d4757600080fd5b613d5389828a01613b9a565b979a9699509497509295939492505050565b600060208284031215613d7757600080fd5b81356133c08161381e565b600080600060608486031215613d9757600080fd5b8335613da28161381e565b95602085013595506040909401359392505050565b6001600160a01b03929092168252602082015260400190565b634e487b7160e01b600052603260045260246000fd5b60008151808452602080850194506020840160005b83811015613e1757815187529582019590820190600101613dfb565b509495945050505050565b60006060820185835260206060602085015281865180845260808601915060208801935060005b81811015613e6e5784516001600160a01b031683529383019391830191600101613e49565b50508481036040860152613e828187613de6565b98975050505050505050565b600060208284031215613ea057600080fd5b81516133c08161381e565b8051613eb68161381e565b919050565b80518015158114613eb657600080fd5b60008060008060008060c08789031215613ee457600080fd5b8651613eef8161381e565b6020880151909650613f008161381e565b6040880151909550613f118161381e565b6060880151909450613f228161381e565b6080880151909350613f338161381e565b9150613f4160a08801613ebb565b90509295509295509295565b600082601f830112613f5e57600080fd5b81516020613f6e613854836137fb565b8083825260208201915060208460051b870101935086841115613f9057600080fd5b602086015b84811015613248578051613fa88161381e565b8352918301918301613f95565b600082601f830112613fc657600080fd5b81516020613fd6613854836137fb565b8083825260208201915060208460051b870101935086841115613ff857600080fd5b602086015b848110156132485780518352918301918301613ffd565b60008060006060848603121561402957600080fd5b83516001600160401b038082111561404057600080fd5b61404c87838801613f4d565b9450602086015191508082111561406257600080fd5b5061406f86828701613fb5565b925050604084015190509250925092565b60006020828403121561409257600080fd5b5051919050565b60ff841681526060602082015260006140b56060830185613de6565b9050826040830152949350505050565b60005b838110156140e05781810151838201526020016140c8565b50506000910152565b600081518084526141018160208601602086016140c5565b601f01601f19169290920160200192915050565b8051608080845281519084018190526000916020919082019060a0860190845b8181101561415a5783516001600160a01b031683529284019291840191600101614135565b50506020850151925085810360208701526141758184613de6565b925050506040830151848203604086015261419082826140e9565b91505060608301516141a6606086018215159052565b509392505050565b8481526001600160a01b038481166020830152831660408201526080606082018190526000906141e090830184614115565b9695505050505050565b60006101008083850312156141fe57600080fd5b604051908101906001600160401b0382118183101715614220576142206137b5565b81604052835191506142318261381e565b81815261424060208501613eab565b602082015261425160408501613eab565b604082015261426260608501613eab565b60608201526080840151608082015260a084015160a082015260c084015160c082015260e084015160e0820152809250505092915050565b600080604083850312156142ad57600080fd5b505080516020909101519092909150565b600080604083850312156142d157600080fd5b82516001600160401b03808211156142e857600080fd5b6142f486838701613f4d565b9350602085015191508082111561430a57600080fd5b5061431785828601613fb5565b9150509250929050565b6000808335601e1984360301811261433857600080fd5b8301803591506001600160401b0382111561435257600080fd5b602001915036819003821315613af657600080fd5b6020808252602b908201527f496e697469616c697a61626c653a20636f6e7472616374206973206e6f74206960408201526a6e697469616c697a696e6760a81b606082015260800190565b634e487b7160e01b600052601160045260246000fd5b6000600182016143da576143da6143b2565b5060010190565b80820281158282048414176106e4576106e46143b2565b60008261441557634e487b7160e01b600052601260045260246000fd5b500490565b60006020828403121561442c57600080fd5b815160ff811681146133c057600080fd5b600181815b8085111561447857816000190482111561445e5761445e6143b2565b8085161561446b57918102915b93841c9390800290614442565b509250929050565b60008261448f575060016106e4565b8161449c575060006106e4565b81600181146144b257600281146144bc576144d8565b60019150506106e4565b60ff8411156144cd576144cd6143b2565b50506001821b6106e4565b5060208310610133831016604e8410600b84101617156144fb575081810a6106e4565b614505838361443d565b8060001904821115614519576145196143b2565b029392505050565b60006133c060ff841683614480565b808201808211156106e4576106e46143b2565b818103818111156106e4576106e46143b2565b8183823760009101908152919050565b600082516145788184602087016140c5565b9190910192915050565b60006020828403121561459457600080fd5b6133c082613ebb565b6020815260006133c060208301846140e956fea26469706673582212202362e83fab7de21254bc4ad924af865597fdd6f4ddd7f4f7c236e8f5ca65d07364736f6c63430008160033",
  "linkReferences": {},
  "deployedLinkReferences": {}
}