{
  "_format": "hh-sol-artifact-1",
  "contractName": "IchiVaultOracle",
  "sourceName": "contracts/oracle/IchiVaultOracle.sol",
  "abi": [
    {
      "inputs": [],
      "stateMutability": "nonpayable",
      "type": "constructor"
    },
    {
      "inputs": [],
      "name": "EXCEED_DEVIATION",
      "type": "error"
    },
    {
      "inputs": [
        {
          "internalType": "address",
          "name": "lp",
          "type": "address"
        }
      ],
      "name": "ORACLE_NOT_SUPPORT_LP",
      "type": "error"
    },
    {
      "inputs": [
        {
          "internalType": "uint256",
          "name": "deviation",
          "type": "uint256"
        }
      ],
      "name": "OUT_OF_DEVIATION_CAP",
      "type": "error"
    },
    {
      "inputs": [
        {
          "internalType": "uint256",
          "name": "delayTime",
          "type": "uint256"
        }
      ],
      "name": "TOO_LONG_DELAY",
      "type": "error"
    },
    {
      "inputs": [
        {
          "internalType": "uint256",
          "name": "mean",
          "type": "uint256"
        }
      ],
      "name": "TOO_LOW_MEAN",
      "type": "error"
    },
    {
      "inputs": [],
      "name": "ZERO_ADDRESS",
      "type": "error"
    },
    {
      "anonymous": false,
      "inputs": [
        {
          "indexed": false,
          "internalType": "uint8",
          "name": "version",
          "type": "uint8"
        }
      ],
      "name": "Initialized",
      "type": "event"
    },
    {
      "anonymous": false,
      "inputs": [
        {
          "indexed": true,
          "internalType": "address",
          "name": "previousOwner",
          "type": "address"
        },
        {
          "indexed": true,
          "internalType": "address",
          "name": "newOwner",
          "type": "address"
        }
      ],
      "name": "OwnershipTransferStarted",
      "type": "event"
    },
    {
      "anonymous": false,
      "inputs": [
        {
          "indexed": true,
          "internalType": "address",
          "name": "previousOwner",
          "type": "address"
        },
        {
          "indexed": true,
          "internalType": "address",
          "name": "newOwner",
          "type": "address"
        }
      ],
      "name": "OwnershipTransferred",
      "type": "event"
    },
    {
      "anonymous": false,
      "inputs": [
        {
          "indexed": false,
          "internalType": "address",
          "name": "token",
          "type": "address"
        }
      ],
      "name": "RegisterLpToken",
      "type": "event"
    },
    {
      "anonymous": false,
      "inputs": [
        {
          "indexed": true,
          "internalType": "address",
          "name": "token",
          "type": "address"
        },
        {
          "indexed": false,
          "internalType": "uint256",
          "name": "maxPriceDeviation",
          "type": "uint256"
        }
      ],
      "name": "SetPriceDeviation",
      "type": "event"
    },
    {
      "inputs": [],
      "name": "acceptOwnership",
      "outputs": [],
      "stateMutability": "nonpayable",
      "type": "function"
    },
    {
      "inputs": [],
      "name": "getBaseOracle",
      "outputs": [
        {
          "internalType": "contract IBaseOracle",
          "name": "",
          "type": "address"
        }
      ],
      "stateMutability": "view",
      "type": "function"
    },
    {
      "inputs": [
        {
          "internalType": "address",
          "name": "token",
          "type": "address"
        }
      ],
      "name": "getMaxPriceDeviation",
      "outputs": [
        {
          "internalType": "uint256",
          "name": "",
          "type": "uint256"
        }
      ],
      "stateMutability": "view",
      "type": "function"
    },
    {
      "inputs": [
        {
          "internalType": "address",
          "name": "token",
          "type": "address"
        }
      ],
      "name": "getPrice",
      "outputs": [
        {
          "internalType": "uint256",
          "name": "",
          "type": "uint256"
        }
      ],
      "stateMutability": "nonpayable",
      "type": "function"
    },
    {
      "inputs": [
        {
          "internalType": "address",
          "name": "token",
          "type": "address"
        }
      ],
      "name": "getVaultInfo",
      "outputs": [
        {
          "components": [
            {
              "internalType": "address",
              "name": "token0",
              "type": "address"
            },
            {
              "internalType": "address",
              "name": "token1",
              "type": "address"
            },
            {
              "internalType": "uint8",
              "name": "token0Decimals",
              "type": "uint8"
            },
            {
              "internalType": "uint8",
              "name": "token1Decimals",
              "type": "uint8"
            },
            {
              "internalType": "uint8",
              "name": "vaultDecimals",
              "type": "uint8"
            }
          ],
          "internalType": "struct IchiVaultOracle.VaultInfo",
          "name": "",
          "type": "tuple"
        }
      ],
      "stateMutability": "view",
      "type": "function"
    },
    {
      "inputs": [
        {
          "internalType": "contract IBaseOracle",
          "name": "base",
          "type": "address"
        },
        {
          "internalType": "address",
          "name": "owner",
          "type": "address"
        }
      ],
      "name": "initialize",
      "outputs": [],
      "stateMutability": "nonpayable",
      "type": "function"
    },
    {
      "inputs": [],
      "name": "owner",
      "outputs": [
        {
          "internalType": "address",
          "name": "",
          "type": "address"
        }
      ],
      "stateMutability": "view",
      "type": "function"
    },
    {
      "inputs": [],
      "name": "pendingOwner",
      "outputs": [
        {
          "internalType": "address",
          "name": "",
          "type": "address"
        }
      ],
      "stateMutability": "view",
      "type": "function"
    },
    {
      "inputs": [
        {
          "internalType": "address",
          "name": "vaultToken",
          "type": "address"
        }
      ],
      "name": "registerVault",
      "outputs": [],
      "stateMutability": "nonpayable",
      "type": "function"
    },
    {
      "inputs": [],
      "name": "renounceOwnership",
      "outputs": [],
      "stateMutability": "nonpayable",
      "type": "function"
    },
    {
      "inputs": [
        {
          "internalType": "address",
          "name": "token",
          "type": "address"
        },
        {
          "internalType": "uint256",
          "name": "maxPriceDeviation",
          "type": "uint256"
        }
      ],
      "name": "setPriceDeviation",
      "outputs": [],
      "stateMutability": "nonpayable",
      "type": "function"
    },
    {
      "inputs": [
        {
          "internalType": "contract IICHIVault",
          "name": "vault",
          "type": "address"
        }
      ],
      "name": "spotPrice0InToken1",
      "outputs": [
        {
          "internalType": "uint256",
          "name": "",
          "type": "uint256"
        }
      ],
      "stateMutability": "view",
      "type": "function"
    },
    {
      "inputs": [
        {
          "internalType": "address",
          "name": "newOwner",
          "type": "address"
        }
      ],
      "name": "transferOwnership",
      "outputs": [],
      "stateMutability": "nonpayable",
      "type": "function"
    },
    {
      "inputs": [
        {
          "internalType": "contract IICHIVault",
          "name": "vault",
          "type": "address"
        }
      ],
      "name": "twapPrice0InToken1",
      "outputs": [
        {
          "internalType": "uint256",
          "name": "",
          "type": "uint256"
        }
      ],
      "stateMutability": "view",
      "type": "function"
    }
  ],
  "bytecode": "0x608060405234801561001057600080fd5b50610019610026565b610021610026565b6100e5565b600054610100900460ff16156100925760405162461bcd60e51b815260206004820152602760248201527f496e697469616c697a61626c653a20636f6e747261637420697320696e697469604482015266616c697a696e6760c81b606482015260840160405180910390fd5b60005460ff908116146100e3576000805460ff191660ff9081179091556040519081527f7f26b83ff96e1f2b6a682f133852f6798a09c465da95921460cefb38474024989060200160405180910390a15b565b61166f806100f46000396000f3fe608060405234801561001057600080fd5b50600436106100ea5760003560e01c80638da5cb5b1161008c578063b7f2638411610066578063b7f2638414610229578063d4c55a281461023c578063e30c39781461024f578063f2fde38b1461026057600080fd5b80638da5cb5b1461018557806390229af714610196578063b73305251461020057600080fd5b806353997a5f116100c857806353997a5f1461014f57806367ccd1cb14610162578063715018a61461017557806379ba50971461017d57600080fd5b80633088794e146100ef57806341976e0914610119578063485cc9551461013a575b600080fd5b6097546001600160a01b03165b6040516001600160a01b0390911681526020015b60405180910390f35b61012c6101273660046112bb565b610273565b604051908152602001610110565b61014d6101483660046112df565b61058c565b005b61014d61015d366004611318565b6106a1565b61014d6101703660046112bb565b61074f565b61014d610a8b565b61014d610a9f565b6033546001600160a01b03166100fc565b6101a96101a43660046112bb565b610b19565b6040516101109190600060a08201905060018060a01b038084511683528060208501511660208401525060ff604084015116604083015260ff606084015116606083015260ff608084015116608083015292915050565b61012c61020e3660046112bb565b6001600160a01b0316600090815260a3602052604090205490565b61012c6102373660046112bb565b610ba5565b61012c61024a3660046112bb565b610eb3565b6065546001600160a01b03166100fc565b61014d61026e3660046112bb565b611064565b6000818161028082610b19565b80519091506001600160a01b03166102bb5760405163385fd8c560e11b81526001600160a01b03851660048201526024015b60405180910390fd5b6000826001600160a01b03166318160ddd6040518163ffffffff1660e01b8152600401602060405180830381865afa1580156102fb573d6000803e3d6000fd5b505050506040513d601f19601f8201168201806040525081019061031f9190611344565b90508060000361033457506000949350505050565b81516020830151600061034686610eb3565b9050600061035387610ba5565b6001600160a01b038516600090815260a3602052604090205490915061037a8383836110d5565b61039757604051637114d53360e01b815260040160405180910390fd5b60006103ab6097546001600160a01b031690565b90506000808a6001600160a01b031663c4a7761e6040518163ffffffff1660e01b81526004016040805180830381865afa1580156103ed573d6000803e3d6000fd5b505050506040513d601f19601f82011682018060405250810190610411919061135d565b6040516341976e0960e01b81526001600160a01b038b811660048301529294509092506000918516906341976e09906024016020604051808303816000875af1158015610462573d6000803e3d6000fd5b505050506040513d601f19601f820116820180604052508101906104869190611344565b6040516341976e0960e01b81526001600160a01b038a811660048301529192506000918616906341976e09906024016020604051808303816000875af11580156104d4573d6000803e3d6000fd5b505050506040513d601f19601f820116820180604052508101906104f89190611344565b905060008c60600151600a61050d919061147b565b610517838661148a565b61052191906114a1565b60408e015161053190600a61147b565b61053b858861148a565b61054591906114a1565b61054f91906114c3565b90508b8d60800151600a610563919061147b565b61056d908361148a565b61057791906114a1565b9e505050505050505050505050505050919050565b600054610100900460ff16158080156105ac5750600054600160ff909116105b806105c65750303b1580156105c6575060005460ff166001145b6106295760405162461bcd60e51b815260206004820152602e60248201527f496e697469616c697a61626c653a20636f6e747261637420697320616c72656160448201526d191e481a5b9a5d1a585b1a5e995960921b60648201526084016102b2565b6000805460ff19166001179055801561064c576000805461ff0019166101001790555b610656838361112b565b801561069c576000805461ff0019169055604051600181527f7f26b83ff96e1f2b6a682f133852f6798a09c465da95921460cefb38474024989060200160405180910390a15b505050565b6106a9611182565b6001600160a01b0382166106d05760405163538ba4f960e01b815260040160405180910390fd5b6103e88111156106f657604051631a6b806360e21b8152600481018290526024016102b2565b6001600160a01b038216600081815260a3602052604090819020839055517fbcc48d4ac37a64aecfe6bd804bc60445843735ed2ea3a4eb2be82fd9817601b5906107439084815260200190565b60405180910390a25050565b610757611182565b6001600160a01b03811661077e5760405163538ba4f960e01b815260040160405180910390fd5b60008190506000816001600160a01b0316630dfe16816040518163ffffffff1660e01b8152600401602060405180830381865afa1580156107c3573d6000803e3d6000fd5b505050506040513d601f19601f820116820180604052508101906107e791906114d6565b90506000826001600160a01b031663d21220a76040518163ffffffff1660e01b8152600401602060405180830381865afa158015610829573d6000803e3d6000fd5b505050506040513d601f19601f8201168201806040525081019061084d91906114d6565b90506040518060a00160405280836001600160a01b03168152602001826001600160a01b03168152602001836001600160a01b031663313ce5676040518163ffffffff1660e01b8152600401602060405180830381865afa1580156108b6573d6000803e3d6000fd5b505050506040513d601f19601f820116820180604052508101906108da91906114f3565b60ff168152602001826001600160a01b031663313ce5676040518163ffffffff1660e01b8152600401602060405180830381865afa158015610920573d6000803e3d6000fd5b505050506040513d601f19601f8201168201806040525081019061094491906114f3565b60ff168152602001846001600160a01b031663313ce5676040518163ffffffff1660e01b8152600401602060405180830381865afa15801561098a573d6000803e3d6000fd5b505050506040513d601f19601f820116820180604052508101906109ae91906114f3565b60ff9081169091526001600160a01b03868116600081815260a26020908152604091829020865181546001600160a01b03191690861617815586820151600190910180548885015160608a01516080909a0151939097166001600160a81b031990911617600160a01b968816969096029590951761ffff60a81b1916600160a81b9787169790970260ff60b01b191696909617600160b01b96909516959095029390931790915590519081527f40b39da51b8530ffd459fd9b3a53974555c0744c0f8b0f15499c129933acbd90910160405180910390a150505050565b610a93611182565b610a9d60006111dc565b565b60655433906001600160a01b03168114610b0d5760405162461bcd60e51b815260206004820152602960248201527f4f776e61626c6532537465703a2063616c6c6572206973206e6f7420746865206044820152683732bb9037bbb732b960b91b60648201526084016102b2565b610b16816111dc565b50565b6040805160a0808201835260008083526020808401829052838501829052606080850183905260809485018390526001600160a01b03968716835260a282529185902085519384018652805487168452600101549586169083015260ff600160a01b8604811694830194909452600160a81b8504841690820152600160b01b9093049091169082015290565b600080826001600160a01b031663f62073266040518163ffffffff1660e01b8152600401602060405180830381865afa158015610be6573d6000803e3d6000fd5b505050506040513d601f19601f82011682018060405250810190610c0a9190611516565b90506202a30063ffffffff82161115610c3e5760405163f5d3e54f60e01b815263ffffffff821660048201526024016102b2565b610e1063ffffffff82161015610c6f57604051635cab37cb60e11b815263ffffffff821660048201526024016102b2565b600073__$50975bd21082d4b196a7c644d5cf6229e7$__6382413489856001600160a01b03166316f0115b6040518163ffffffff1660e01b8152600401602060405180830381865afa158015610cc9573d6000803e3d6000fd5b505050506040513d601f19601f82011682018060405250810190610ced91906114d6565b6040516001600160e01b031960e084901b1681526001600160a01b03909116600482015263ffffffff851660248201526044016040805180830381865af4158015610d3c573d6000803e3d6000fd5b505050506040513d601f19601f82011682018060405250810190610d609190611553565b50905073__$50975bd21082d4b196a7c644d5cf6229e7$__6343c57a2782670de0b6b3a7640000876001600160a01b0316630dfe16816040518163ffffffff1660e01b8152600401602060405180830381865afa158015610dc5573d6000803e3d6000fd5b505050506040513d601f19601f82011682018060405250810190610de991906114d6565b886001600160a01b031663d21220a76040518163ffffffff1660e01b8152600401602060405180830381865afa158015610e27573d6000803e3d6000fd5b505050506040513d601f19601f82011682018060405250810190610e4b91906114d6565b6040518563ffffffff1660e01b8152600401610e6a949392919061158b565b602060405180830381865af4158015610e87573d6000803e3d6000fd5b505050506040513d601f19601f82011682018060405250810190610eab9190611344565b949350505050565b600073__$50975bd21082d4b196a7c644d5cf6229e7$__6343c57a27836001600160a01b031663065e53606040518163ffffffff1660e01b8152600401602060405180830381865afa158015610f0d573d6000803e3d6000fd5b505050506040513d601f19601f82011682018060405250810190610f3191906115c0565b670de0b6b3a7640000856001600160a01b0316630dfe16816040518163ffffffff1660e01b8152600401602060405180830381865afa158015610f78573d6000803e3d6000fd5b505050506040513d601f19601f82011682018060405250810190610f9c91906114d6565b866001600160a01b031663d21220a76040518163ffffffff1660e01b8152600401602060405180830381865afa158015610fda573d6000803e3d6000fd5b505050506040513d601f19601f82011682018060405250810190610ffe91906114d6565b6040518563ffffffff1660e01b815260040161101d949392919061158b565b602060405180830381865af415801561103a573d6000803e3d6000fd5b505050506040513d601f19601f8201168201806040525081019061105e9190611344565b92915050565b61106c611182565b606580546001600160a01b0383166001600160a01b0319909116811790915561109d6033546001600160a01b031690565b6001600160a01b03167f38d16b8cac22d99fc7c124b9cd0de2d3fa1faef420bfe791d8c362d765e2270060405160405180910390a350565b6000808385116110e557836110e7565b845b905060008486116110f857856110fa565b845b9050838261271061110b84836115db565b611115919061148a565b61111f91906114a1565b11159695505050505050565b600054610100900460ff166111525760405162461bcd60e51b81526004016102b2906115ee565b609780546001600160a01b0319166001600160a01b0384161790556111756111f5565b61117e816111dc565b5050565b6033546001600160a01b03163314610a9d5760405162461bcd60e51b815260206004820181905260248201527f4f776e61626c653a2063616c6c6572206973206e6f7420746865206f776e657260448201526064016102b2565b606580546001600160a01b0319169055610b1681611224565b600054610100900460ff1661121c5760405162461bcd60e51b81526004016102b2906115ee565b610a9d611276565b603380546001600160a01b038381166001600160a01b0319831681179093556040519116919082907f8be0079c531659141344cd1fd0a4f28419497f9722a3daafe3b4186f6b6457e090600090a35050565b600054610100900460ff1661129d5760405162461bcd60e51b81526004016102b2906115ee565b610a9d336111dc565b6001600160a01b0381168114610b1657600080fd5b6000602082840312156112cd57600080fd5b81356112d8816112a6565b9392505050565b600080604083850312156112f257600080fd5b82356112fd816112a6565b9150602083013561130d816112a6565b809150509250929050565b6000806040838503121561132b57600080fd5b8235611336816112a6565b946020939093013593505050565b60006020828403121561135657600080fd5b5051919050565b6000806040838503121561137057600080fd5b505080516020909101519092909150565b634e487b7160e01b600052601160045260246000fd5b600181815b808511156113d25781600019048211156113b8576113b8611381565b808516156113c557918102915b93841c939080029061139c565b509250929050565b6000826113e95750600161105e565b816113f65750600061105e565b816001811461140c576002811461141657611432565b600191505061105e565b60ff84111561142757611427611381565b50506001821b61105e565b5060208310610133831016604e8410600b8410161715611455575081810a61105e565b61145f8383611397565b806000190482111561147357611473611381565b029392505050565b60006112d860ff8416836113da565b808202811582820484141761105e5761105e611381565b6000826114be57634e487b7160e01b600052601260045260246000fd5b500490565b8082018082111561105e5761105e611381565b6000602082840312156114e857600080fd5b81516112d8816112a6565b60006020828403121561150557600080fd5b815160ff811681146112d857600080fd5b60006020828403121561152857600080fd5b815163ffffffff811681146112d857600080fd5b8051600281900b811461154e57600080fd5b919050565b6000806040838503121561156657600080fd5b61156f8361153c565b915060208301516001600160801b038116811461130d57600080fd5b60029490940b84526001600160801b039290921660208401526001600160a01b03908116604084015216606082015260800190565b6000602082840312156115d257600080fd5b6112d88261153c565b8181038181111561105e5761105e611381565b6020808252602b908201527f496e697469616c697a61626c653a20636f6e7472616374206973206e6f74206960408201526a6e697469616c697a696e6760a81b60608201526080019056fea264697066735822122012b8a5a4a7300b5bca4d46a695152eaf4e72b447fead35ac2e07e291d3e3c7e864736f6c63430008160033",
  "linkReferences": {
    "contracts/libraries/UniV3/UniV3WrappedLibContainer.sol": {
      "UniV3WrappedLibContainer": [
        {
          "length": 20,
          "start": 3431
        },
        {
          "length": 20,
          "start": 3673
        },
        {
          "length": 20,
          "start": 4011
        }
      ]
    }
  },
  "deployedLinkReferences": {
    "contracts/libraries/UniV3/UniV3WrappedLibContainer.sol": {
      "UniV3WrappedLibContainer": [
        {
          "length": 20,
          "start": 3187
        },
        {
          "length": 20,
          "start": 3429
        },
        {
          "length": 20,
          "start": 3767
        }
      ]
    }
  }
}