{
  "_format": "hh-sol-artifact-1",
  "contractName": "UniV3WrappedLibContainer",
  "sourceName": "contracts/libraries/UniV3/UniV3WrappedLibContainer.sol",
  "abi": [
    {
      "inputs": [
        {
          "internalType": "address",
          "name": "pool",
          "type": "address"
        },
        {
          "internalType": "uint32",
          "name": "secondsAgo",
          "type": "uint32"
        }
      ],
      "name": "consult",
      "outputs": [
        {
          "internalType": "int24",
          "name": "arithmeticMeanTick",
          "type": "int24"
        },
        {
          "internalType": "uint128",
          "name": "harmonicMeanLiquidity",
          "type": "uint128"
        }
      ],
      "stateMutability": "view",
      "type": "function"
    },
    {
      "inputs": [
        {
          "internalType": "uint160",
          "name": "sqrtRatioX96",
          "type": "uint160"
        },
        {
          "internalType": "uint160",
          "name": "sqrtRatioAX96",
          "type": "uint160"
        },
        {
          "internalType": "uint160",
          "name": "sqrtRatioBX96",
          "type": "uint160"
        },
        {
          "internalType": "uint128",
          "name": "liquidity",
          "type": "uint128"
        }
      ],
      "name": "getAmountsForLiquidity",
      "outputs": [
        {
          "internalType": "uint256",
          "name": "amount0",
          "type": "uint256"
        },
        {
          "internalType": "uint256",
          "name": "amount1",
          "type": "uint256"
        }
      ],
      "stateMutability": "pure",
      "type": "function"
    },
    {
      "inputs": [
        {
          "internalType": "uint160",
          "name": "sqrtRatioX96",
          "type": "uint160"
        },
        {
          "internalType": "uint160",
          "name": "sqrtRatioAX96",
          "type": "uint160"
        },
        {
          "internalType": "uint160",
          "name": "sqrtRatioBX96",
          "type": "uint160"
        },
        {
          "internalType": "uint256",
          "name": "amount0",
          "type": "uint256"
        },
        {
          "internalType": "uint256",
          "name": "amount1",
          "type": "uint256"
        }
      ],
      "name": "getLiquidityForAmounts",
      "outputs": [
        {
          "internalType": "uint128",
          "name": "liquidity",
          "type": "uint128"
        }
      ],
      "stateMutability": "pure",
      "type": "function"
    },
    {
      "inputs": [
        {
          "internalType": "int24",
          "name": "tick",
          "type": "int24"
        },
        {
          "internalType": "uint128",
          "name": "baseAmount",
          "type": "uint128"
        },
        {
          "internalType": "address",
          "name": "baseToken",
          "type": "address"
        },
        {
          "internalType": "address",
          "name": "quoteToken",
          "type": "address"
        }
      ],
      "name": "getQuoteAtTick",
      "outputs": [
        {
          "internalType": "uint256",
          "name": "quoteAmount",
          "type": "uint256"
        }
      ],
      "stateMutability": "pure",
      "type": "function"
    },
    {
      "inputs": [
        {
          "internalType": "int24",
          "name": "tick",
          "type": "int24"
        }
      ],
      "name": "getSqrtRatioAtTick",
      "outputs": [
        {
          "internalType": "uint160",
          "name": "sqrtPriceX96",
          "type": "uint160"
        }
      ],
      "stateMutability": "pure",
      "type": "function"
    }
  ],
  "bytecode": "0x61034361003a600b82828239805160001a60731461002d57634e487b7160e01b600052600060045260246000fd5b30600052607381538281f3fe73000000000000000000000000000000000000000030146080604052600436106100615760003560e01c806343c57a27146100665780636098fd4a1461009157806382413489146100c2578063986cfba3146100fb578063c72e160b14610127575b600080fd5b61007e61007436600461019c565b6000949350505050565b6040519081526020015b60405180910390f35b6100aa61009f3660046101f4565b600095945050505050565b6040516001600160801b039091168152602001610088565b6100d96100d036600461024f565b50600091829150565b6040805160029390930b83526001600160801b03909116602083015201610088565b61010f610109366004610291565b50600090565b6040516001600160a01b039091168152602001610088565b6101416101353660046102b3565b60008094509492505050565b60408051928352602083019190915201610088565b8035600281900b811461016857600080fd5b919050565b80356001600160801b038116811461016857600080fd5b6001600160a01b038116811461019957600080fd5b50565b600080600080608085870312156101b257600080fd5b6101bb85610156565b93506101c96020860161016d565b925060408501356101d981610184565b915060608501356101e981610184565b939692955090935050565b600080600080600060a0868803121561020c57600080fd5b853561021781610184565b9450602086013561022781610184565b9350604086013561023781610184565b94979396509394606081013594506080013592915050565b6000806040838503121561026257600080fd5b823561026d81610184565b9150602083013563ffffffff8116811461028657600080fd5b809150509250929050565b6000602082840312156102a357600080fd5b6102ac82610156565b9392505050565b600080600080608085870312156102c957600080fd5b84356102d481610184565b935060208501356102e481610184565b925060408501356102f481610184565b91506103026060860161016d565b90509295919450925056fea264697066735822122020e13a917be1f6b52b2adddc439187f58071bf2ac903fdc184e8592a041ca3f564736f6c63430008160033",
  "linkReferences": {},
  "deployedLinkReferences": {}
}