{
  "_format": "hh-sol-artifact-1",
  "contractName": "WERC20",
  "sourceName": "contracts/wrapper/WERC20.sol",
  "abi": [
    {
      "inputs": [],
      "stateMutability": "nonpayable",
      "type": "constructor"
    },
    {
      "inputs": [
        {
          "internalType": "uint256",
          "name": "tokenId",
          "type": "uint256"
        }
      ],
      "name": "DUPLICATE_TOKEN_ID",
      "type": "error"
    },
    {
      "inputs": [
        {
          "internalType": "uint256",
          "name": "tokenId",
          "type": "uint256"
        }
      ],
      "name": "INVALID_TOKEN_ID",
      "type": "error"
    },
    {
      "anonymous": false,
      "inputs": [
        {
          "indexed": true,
          "internalType": "address",
          "name": "account",
          "type": "address"
        },
        {
          "indexed": true,
          "internalType": "address",
          "name": "operator",
          "type": "address"
        },
        {
          "indexed": false,
          "internalType": "bool",
          "name": "approved",
          "type": "bool"
        }
      ],
      "name": "ApprovalForAll",
      "type": "event"
    },
    {
      "anonymous": false,
      "inputs": [
        {
          "indexed": true,
          "internalType": "uint256",
          "name": "id",
          "type": "uint256"
        },
        {
          "indexed": false,
          "internalType": "uint256",
          "name": "amount",
          "type": "uint256"
        }
      ],
      "name": "Burned",
      "type": "event"
    },
    {
      "anonymous": false,
      "inputs": [
        {
          "indexed": false,
          "internalType": "uint8",
          "name": "version",
          "type": "uint8"
        }
      ],
      "name": "Initialized",
      "type": "event"
    },
    {
      "anonymous": false,
      "inputs": [
        {
          "indexed": true,
          "internalType": "uint256",
          "name": "id",
          "type": "uint256"
        },
        {
          "indexed": false,
          "internalType": "uint256",
          "name": "amount",
          "type": "uint256"
        }
      ],
      "name": "Minted",
      "type": "event"
    },
    {
      "anonymous": false,
      "inputs": [
        {
          "indexed": true,
          "internalType": "address",
          "name": "previousOwner",
          "type": "address"
        },
        {
          "indexed": true,
          "internalType": "address",
          "name": "newOwner",
          "type": "address"
        }
      ],
      "name": "OwnershipTransferStarted",
      "type": "event"
    },
    {
      "anonymous": false,
      "inputs": [
        {
          "indexed": true,
          "internalType": "address",
          "name": "previousOwner",
          "type": "address"
        },
        {
          "indexed": true,
          "internalType": "address",
          "name": "newOwner",
          "type": "address"
        }
      ],
      "name": "OwnershipTransferred",
      "type": "event"
    },
    {
      "anonymous": false,
      "inputs": [
        {
          "indexed": true,
          "internalType": "address",
          "name": "operator",
          "type": "address"
        },
        {
          "indexed": true,
          "internalType": "address",
          "name": "from",
          "type": "address"
        },
        {
          "indexed": true,
          "internalType": "address",
          "name": "to",
          "type": "address"
        },
        {
          "indexed": false,
          "internalType": "uint256[]",
          "name": "ids",
          "type": "uint256[]"
        },
        {
          "indexed": false,
          "internalType": "uint256[]",
          "name": "values",
          "type": "uint256[]"
        }
      ],
      "name": "TransferBatch",
      "type": "event"
    },
    {
      "anonymous": false,
      "inputs": [
        {
          "indexed": true,
          "internalType": "address",
          "name": "operator",
          "type": "address"
        },
        {
          "indexed": true,
          "internalType": "address",
          "name": "from",
          "type": "address"
        },
        {
          "indexed": true,
          "internalType": "address",
          "name": "to",
          "type": "address"
        },
        {
          "indexed": false,
          "internalType": "uint256",
          "name": "id",
          "type": "uint256"
        },
        {
          "indexed": false,
          "internalType": "uint256",
          "name": "value",
          "type": "uint256"
        }
      ],
      "name": "TransferSingle",
      "type": "event"
    },
    {
      "anonymous": false,
      "inputs": [
        {
          "indexed": false,
          "internalType": "string",
          "name": "value",
          "type": "string"
        },
        {
          "indexed": true,
          "internalType": "uint256",
          "name": "id",
          "type": "uint256"
        }
      ],
      "name": "URI",
      "type": "event"
    },
    {
      "inputs": [],
      "name": "acceptOwnership",
      "outputs": [],
      "stateMutability": "nonpayable",
      "type": "function"
    },
    {
      "inputs": [
        {
          "internalType": "address",
          "name": "account",
          "type": "address"
        },
        {
          "internalType": "uint256",
          "name": "id",
          "type": "uint256"
        }
      ],
      "name": "balanceOf",
      "outputs": [
        {
          "internalType": "uint256",
          "name": "",
          "type": "uint256"
        }
      ],
      "stateMutability": "view",
      "type": "function"
    },
    {
      "inputs": [
        {
          "internalType": "address[]",
          "name": "accounts",
          "type": "address[]"
        },
        {
          "internalType": "uint256[]",
          "name": "ids",
          "type": "uint256[]"
        }
      ],
      "name": "balanceOfBatch",
      "outputs": [
        {
          "internalType": "uint256[]",
          "name": "",
          "type": "uint256[]"
        }
      ],
      "stateMutability": "view",
      "type": "function"
    },
    {
      "inputs": [
        {
          "internalType": "address",
          "name": "token",
          "type": "address"
        },
        {
          "internalType": "address",
          "name": "user",
          "type": "address"
        }
      ],
      "name": "balanceOfERC20",
      "outputs": [
        {
          "internalType": "uint256",
          "name": "",
          "type": "uint256"
        }
      ],
      "stateMutability": "view",
      "type": "function"
    },
    {
      "inputs": [
        {
          "internalType": "address",
          "name": "token",
          "type": "address"
        },
        {
          "internalType": "uint256",
          "name": "amount",
          "type": "uint256"
        }
      ],
      "name": "burn",
      "outputs": [],
      "stateMutability": "nonpayable",
      "type": "function"
    },
    {
      "inputs": [
        {
          "internalType": "uint256",
          "name": "tokenId",
          "type": "uint256"
        }
      ],
      "name": "getUnderlyingToken",
      "outputs": [
        {
          "internalType": "address",
          "name": "token",
          "type": "address"
        }
      ],
      "stateMutability": "pure",
      "type": "function"
    },
    {
      "inputs": [
        {
          "internalType": "address",
          "name": "owner",
          "type": "address"
        }
      ],
      "name": "initialize",
      "outputs": [],
      "stateMutability": "nonpayable",
      "type": "function"
    },
    {
      "inputs": [
        {
          "internalType": "address",
          "name": "account",
          "type": "address"
        },
        {
          "internalType": "address",
          "name": "operator",
          "type": "address"
        }
      ],
      "name": "isApprovedForAll",
      "outputs": [
        {
          "internalType": "bool",
          "name": "",
          "type": "bool"
        }
      ],
      "stateMutability": "view",
      "type": "function"
    },
    {
      "inputs": [
        {
          "internalType": "address",
          "name": "token",
          "type": "address"
        },
        {
          "internalType": "uint256",
          "name": "amount",
          "type": "uint256"
        }
      ],
      "name": "mint",
      "outputs": [
        {
          "internalType": "uint256",
          "name": "id",
          "type": "uint256"
        }
      ],
      "stateMutability": "nonpayable",
      "type": "function"
    },
    {
      "inputs": [],
      "name": "owner",
      "outputs": [
        {
          "internalType": "address",
          "name": "",
          "type": "address"
        }
      ],
      "stateMutability": "view",
      "type": "function"
    },
    {
      "inputs": [],
      "name": "pendingOwner",
      "outputs": [
        {
          "internalType": "address",
          "name": "",
          "type": "address"
        }
      ],
      "stateMutability": "view",
      "type": "function"
    },
    {
      "inputs": [
        {
          "internalType": "uint256",
          "name": "tokenId",
          "type": "uint256"
        },
        {
          "internalType": "uint256",
          "name": "amount",
          "type": "uint256"
        }
      ],
      "name": "pendingRewards",
      "outputs": [
        {
          "internalType": "address[]",
          "name": "",
          "type": "address[]"
        },
        {
          "internalType": "uint256[]",
          "name": "",
          "type": "uint256[]"
        }
      ],
      "stateMutability": "view",
      "type": "function"
    },
    {
      "inputs": [],
      "name": "renounceOwnership",
      "outputs": [],
      "stateMutability": "nonpayable",
      "type": "function"
    },
    {
      "inputs": [
        {
          "internalType": "address",
          "name": "from",
          "type": "address"
        },
        {
          "internalType": "address",
          "name": "to",
          "type": "address"
        },
        {
          "internalType": "uint256[]",
          "name": "ids",
          "type": "uint256[]"
        },
        {
          "internalType": "uint256[]",
          "name": "amounts",
          "type": "uint256[]"
        },
        {
          "internalType": "bytes",
          "name": "data",
          "type": "bytes"
        }
      ],
      "name": "safeBatchTransferFrom",
      "outputs": [],
      "stateMutability": "nonpayable",
      "type": "function"
    },
    {
      "inputs": [
        {
          "internalType": "address",
          "name": "from",
          "type": "address"
        },
        {
          "internalType": "address",
          "name": "to",
          "type": "address"
        },
        {
          "internalType": "uint256",
          "name": "id",
          "type": "uint256"
        },
        {
          "internalType": "uint256",
          "name": "amount",
          "type": "uint256"
        },
        {
          "internalType": "bytes",
          "name": "data",
          "type": "bytes"
        }
      ],
      "name": "safeTransferFrom",
      "outputs": [],
      "stateMutability": "nonpayable",
      "type": "function"
    },
    {
      "inputs": [
        {
          "internalType": "address",
          "name": "operator",
          "type": "address"
        },
        {
          "internalType": "bool",
          "name": "approved",
          "type": "bool"
        }
      ],
      "name": "setApprovalForAll",
      "outputs": [],
      "stateMutability": "nonpayable",
      "type": "function"
    },
    {
      "inputs": [
        {
          "internalType": "bytes4",
          "name": "interfaceId",
          "type": "bytes4"
        }
      ],
      "name": "supportsInterface",
      "outputs": [
        {
          "internalType": "bool",
          "name": "",
          "type": "bool"
        }
      ],
      "stateMutability": "view",
      "type": "function"
    },
    {
      "inputs": [
        {
          "internalType": "address",
          "name": "newOwner",
          "type": "address"
        }
      ],
      "name": "transferOwnership",
      "outputs": [],
      "stateMutability": "nonpayable",
      "type": "function"
    },
    {
      "inputs": [
        {
          "internalType": "uint256",
          "name": "",
          "type": "uint256"
        }
      ],
      "name": "uri",
      "outputs": [
        {
          "internalType": "string",
          "name": "",
          "type": "string"
        }
      ],
      "stateMutability": "view",
      "type": "function"
    }
  ],
  "bytecode": "0x608060405234801561001057600080fd5b5061001961001e565b6100dd565b600054610100900460ff161561008a5760405162461bcd60e51b815260206004820152602760248201527f496e697469616c697a61626c653a20636f6e747261637420697320696e697469604482015266616c697a696e6760c81b606482015260840160405180910390fd5b60005460ff908116146100db576000805460ff191660ff9081179091556040519081527f7f26b83ff96e1f2b6a682f133852f6798a09c465da95921460cefb38474024989060200160405180910390a15b565b61239b80620000ed6000396000f3fe608060405234801561001057600080fd5b50600436106101205760003560e01c80637e50205e116100ad578063c4d66de811610071578063c4d66de81461027c578063e30c39781461028f578063e985e9c5146102a0578063f242432a146102dc578063f2fde38b146102ef57600080fd5b80637e50205e1461020b5780638da5cb5b1461021e5780639dc29fac14610243578063a22cb46514610256578063a47757721461026957600080fd5b806340c10f19116100f457806340c10f19146101a35780634e1273f4146101b65780635ef819ce146101d6578063715018a6146101fb57806379ba50971461020357600080fd5b8062fdd58e1461012557806301ffc9a71461014b5780630e89341c1461016e5780632eb2c2d61461018e575b600080fd5b61013861013336600461191d565b610302565b6040519081526020015b60405180910390f35b61015e61015936600461195d565b61039d565b6040519015158152602001610142565b61018161017c36600461197a565b6103ed565b60405161014291906119e3565b6101a161019c366004611b47565b610481565b005b6101386101b136600461191d565b6104cd565b6101c96101c4366004611bf1565b610645565b6040516101429190611cf8565b6101ed6101e4366004611d0b565b50606091829150565b604051610142929190611d2d565b6101a1610767565b6101a161077b565b610138610219366004611d8e565b6107f5565b60c9546001600160a01b03165b6040516001600160a01b039091168152602001610142565b6101a161025136600461191d565b610811565b6101a1610264366004611dcf565b61088b565b61022b61027736600461197a565b610896565b6101a161028a366004611e06565b6108c8565b60fb546001600160a01b031661022b565b61015e6102ae366004611d8e565b6001600160a01b03918216600090815260666020908152604080832093909416825291909152205460ff1690565b6101a16102ea366004611e21565b610a11565b6101a16102fd366004611e06565b610a56565b60006001600160a01b0383166103725760405162461bcd60e51b815260206004820152602a60248201527f455243313135353a2061646472657373207a65726f206973206e6f742061207660448201526930b634b21037bbb732b960b11b60648201526084015b60405180910390fd5b5060008181526065602090815260408083206001600160a01b03861684529091529020545b92915050565b60006001600160e01b03198216636cdb3d1360e11b14806103ce57506001600160e01b031982166303a24d0760e21b145b8061039757506301ffc9a760e01b6001600160e01b0319831614610397565b6060606780546103fc90611e86565b80601f016020809104026020016040519081016040528092919081815260200182805461042890611e86565b80156104755780601f1061044a57610100808354040283529160200191610475565b820191906000526020600020905b81548152906001019060200180831161045857829003601f168201915b50505050509050919050565b6001600160a01b03851633148061049d575061049d85336102ae565b6104b95760405162461bcd60e51b815260040161036990611ec0565b6104c68585858585610ac7565b5050505050565b60006104d7610ca0565b6040516370a0823160e01b81523060048201526000906001600160a01b038516906370a0823190602401602060405180830381865afa15801561051e573d6000803e3d6000fd5b505050506040513d601f19601f820116820180604052508101906105429190611f0e565b90506105596001600160a01b038516333086610cf9565b6040516370a0823160e01b81523060048201526000906001600160a01b038616906370a0823190602401602060405180830381865afa1580156105a0573d6000803e3d6000fd5b505050506040513d601f19601f820116820180604052508101906105c49190611f0e565b90506001600160a01b03851692506105db83610d6a565b6105ff33846105ea8585611f3d565b60405180602001604052806000815250610d95565b827f8a9dcf4e150b1153011b29fec302d5be0c13e84fa8f56ab78587f778a32a90dd8560405161063191815260200190565b60405180910390a250506103976001609755565b606081518351146106aa5760405162461bcd60e51b815260206004820152602960248201527f455243313135353a206163636f756e747320616e6420696473206c656e677468604482015268040dad2e6dac2e8c6d60bb1b6064820152608401610369565b6000835167ffffffffffffffff8111156106c6576106c66119f6565b6040519080825280602002602001820160405280156106ef578160200160208202803683370190505b50905060005b845181101561075f5761073a85828151811061071357610713611f50565b602002602001015185838151811061072d5761072d611f50565b6020026020010151610302565b82828151811061074c5761074c611f50565b60209081029190910101526001016106f5565b509392505050565b61076f610eb2565b6107796000610f0c565b565b60fb5433906001600160a01b031681146107e95760405162461bcd60e51b815260206004820152602960248201527f4f776e61626c6532537465703a2063616c6c6572206973206e6f7420746865206044820152683732bb9037bbb732b960b91b6064820152608401610369565b6107f281610f0c565b50565b600061080a826001600160a01b038516610302565b9392505050565b610819610ca0565b6001600160a01b03821661082e338284610f25565b6108426001600160a01b03841633846110a4565b807fcec1bae6e024d929f2929f3478ce70f55f9c636c8ef7b5073a61d7c3a432451b8360405161087491815260200190565b60405180910390a2506108876001609755565b5050565b6108873383836110d9565b806001600160a01b03811681146108c357604051633add4c3760e01b815260048101839052602401610369565b919050565b600054610100900460ff16158080156108e85750600054600160ff909116105b806109025750303b158015610902575060005460ff166001145b6109655760405162461bcd60e51b815260206004820152602e60248201527f496e697469616c697a61626c653a20636f6e747261637420697320616c72656160448201526d191e481a5b9a5d1a585b1a5e995960921b6064820152608401610369565b6000805460ff191660011790558015610988576000805461ff0019166101001790555b6109906111b9565b61099982610f0c565b6109a16111e8565b6109c86040518060400160405280600681526020016507745524332360d41b815250611217565b8015610887576000805461ff0019169055604051600181527f7f26b83ff96e1f2b6a682f133852f6798a09c465da95921460cefb38474024989060200160405180910390a15050565b6001600160a01b038516331480610a2d5750610a2d85336102ae565b610a495760405162461bcd60e51b815260040161036990611ec0565b6104c68585858585611247565b610a5e610eb2565b60fb80546001600160a01b0383166001600160a01b03199091168117909155610a8f60c9546001600160a01b031690565b6001600160a01b03167f38d16b8cac22d99fc7c124b9cd0de2d3fa1faef420bfe791d8c362d765e2270060405160405180910390a350565b8151835114610b295760405162461bcd60e51b815260206004820152602860248201527f455243313135353a2069647320616e6420616d6f756e7473206c656e677468206044820152670dad2e6dac2e8c6d60c31b6064820152608401610369565b6001600160a01b038416610b4f5760405162461bcd60e51b815260040161036990611f66565b3360005b8451811015610c32576000858281518110610b7057610b70611f50565b602002602001015190506000858381518110610b8e57610b8e611f50565b60209081029190910181015160008481526065835260408082206001600160a01b038e168352909352919091205490915081811015610bdf5760405162461bcd60e51b815260040161036990611fab565b60008381526065602090815260408083206001600160a01b038e8116855292528083208585039055908b16825281208054849290610c1e908490611ff5565b909155505060019093019250610b53915050565b50846001600160a01b0316866001600160a01b0316826001600160a01b03167f4a39dc06d4c0dbc64b70af90fd698a233a518aa5d07e595d983b8c0526c8f7fb8787604051610c82929190612008565b60405180910390a4610c98818787878787611375565b505050505050565b600260975403610cf25760405162461bcd60e51b815260206004820152601f60248201527f5265656e7472616e637947756172643a207265656e7472616e742063616c6c006044820152606401610369565b6002609755565b6040516001600160a01b0380851660248301528316604482015260648101829052610d649085906323b872dd60e01b906084015b60408051601f198184030181529190526020810180516001600160e01b03166001600160e01b0319909316929092179091526114d0565b50505050565b610d743382610302565b156107f25760405163bc1de82760e01b815260048101829052602401610369565b6001600160a01b038416610df55760405162461bcd60e51b815260206004820152602160248201527f455243313135353a206d696e7420746f20746865207a65726f206164647265736044820152607360f81b6064820152608401610369565b336000610e01856115a5565b90506000610e0e856115a5565b905060008681526065602090815260408083206001600160a01b038b16845290915281208054879290610e42908490611ff5565b909155505060408051878152602081018790526001600160a01b03808a1692600092918716917fc3d58168c5ae7397731d063d5bbf3d657854427343f4c083240f7aacaa2d0f62910160405180910390a4610ea2836000898989896115f0565b50505050505050565b6001609755565b60c9546001600160a01b031633146107795760405162461bcd60e51b815260206004820181905260248201527f4f776e61626c653a2063616c6c6572206973206e6f7420746865206f776e65726044820152606401610369565b60fb80546001600160a01b03191690556107f2816116ab565b6001600160a01b038316610f875760405162461bcd60e51b815260206004820152602360248201527f455243313135353a206275726e2066726f6d20746865207a65726f206164647260448201526265737360e81b6064820152608401610369565b336000610f93846115a5565b90506000610fa0846115a5565b6040805160208082018352600091829052888252606581528282206001600160a01b038b168352905220549091508481101561102a5760405162461bcd60e51b8152602060048201526024808201527f455243313135353a206275726e20616d6f756e7420657863656564732062616c604482015263616e636560e01b6064820152608401610369565b60008681526065602090815260408083206001600160a01b038b81168086529184528285208a8703905582518b81529384018a90529092908816917fc3d58168c5ae7397731d063d5bbf3d657854427343f4c083240f7aacaa2d0f62910160405180910390a4604080516020810190915260009052610ea2565b6040516001600160a01b0383166024820152604481018290526110d490849063a9059cbb60e01b90606401610d2d565b505050565b816001600160a01b0316836001600160a01b03160361114c5760405162461bcd60e51b815260206004820152602960248201527f455243313135353a2073657474696e6720617070726f76616c20737461747573604482015268103337b91039b2b63360b91b6064820152608401610369565b6001600160a01b03838116600081815260666020908152604080832094871680845294825291829020805460ff191686151590811790915591519182527f17307eab39ab6107e8899845ad3d59bd9653f200f220920489ca2b5937696c31910160405180910390a3505050565b600054610100900460ff166111e05760405162461bcd60e51b815260040161036990612036565b6107796116fd565b600054610100900460ff1661120f5760405162461bcd60e51b815260040161036990612036565b61077961172d565b600054610100900460ff1661123e5760405162461bcd60e51b815260040161036990612036565b6107f281611754565b6001600160a01b03841661126d5760405162461bcd60e51b815260040161036990611f66565b336000611279856115a5565b90506000611286856115a5565b905060008681526065602090815260408083206001600160a01b038c168452909152902054858110156112cb5760405162461bcd60e51b815260040161036990611fab565b60008781526065602090815260408083206001600160a01b038d8116855292528083208985039055908a1682528120805488929061130a908490611ff5565b909155505060408051888152602081018890526001600160a01b03808b16928c821692918816917fc3d58168c5ae7397731d063d5bbf3d657854427343f4c083240f7aacaa2d0f62910160405180910390a461136a848a8a8a8a8a6115f0565b505050505050505050565b6001600160a01b0384163b15610c985760405163bc197c8160e01b81526001600160a01b0385169063bc197c81906113b99089908990889088908890600401612081565b6020604051808303816000875af19250505080156113f4575060408051601f3d908101601f191682019092526113f1918101906120df565b60015b6114a0576114006120fc565b806308c379a0036114395750611414612118565b8061141f575061143b565b8060405162461bcd60e51b815260040161036991906119e3565b505b60405162461bcd60e51b815260206004820152603460248201527f455243313135353a207472616e7366657220746f206e6f6e2d455243313135356044820152732932b1b2b4bb32b91034b6b83632b6b2b73a32b960611b6064820152608401610369565b6001600160e01b0319811663bc197c8160e01b14610ea25760405162461bcd60e51b8152600401610369906121a2565b6000611525826040518060400160405280602081526020017f5361666545524332303a206c6f772d6c6576656c2063616c6c206661696c6564815250856001600160a01b03166117849092919063ffffffff16565b905080516000148061154657508080602001905181019061154691906121ea565b6110d45760405162461bcd60e51b815260206004820152602a60248201527f5361666545524332303a204552433230206f7065726174696f6e20646964206e6044820152691bdd081cdd58d8d9595960b21b6064820152608401610369565b604080516001808252818301909252606091600091906020808301908036833701905050905082816000815181106115df576115df611f50565b602090810291909101015292915050565b6001600160a01b0384163b15610c985760405163f23a6e6160e01b81526001600160a01b0385169063f23a6e61906116349089908990889088908890600401612207565b6020604051808303816000875af192505050801561166f575060408051601f3d908101601f1916820190925261166c918101906120df565b60015b61167b576114006120fc565b6001600160e01b0319811663f23a6e6160e01b14610ea25760405162461bcd60e51b8152600401610369906121a2565b60c980546001600160a01b038381166001600160a01b0319831681179093556040519116919082907f8be0079c531659141344cd1fd0a4f28419497f9722a3daafe3b4186f6b6457e090600090a35050565b600054610100900460ff166117245760405162461bcd60e51b815260040161036990612036565b61077933610f0c565b600054610100900460ff16610eab5760405162461bcd60e51b815260040161036990612036565b600054610100900460ff1661177b5760405162461bcd60e51b815260040161036990612036565b6107f28161179b565b606061179384846000856117a7565b949350505050565b60676108878282612289565b6060824710156118085760405162461bcd60e51b815260206004820152602660248201527f416464726573733a20696e73756666696369656e742062616c616e636520666f6044820152651c8818d85b1b60d21b6064820152608401610369565b600080866001600160a01b031685876040516118249190612349565b60006040518083038185875af1925050503d8060008114611861576040519150601f19603f3d011682016040523d82523d6000602084013e611866565b606091505b509150915061187787838387611882565b979650505050505050565b606083156118f15782516000036118ea576001600160a01b0385163b6118ea5760405162461bcd60e51b815260206004820152601d60248201527f416464726573733a2063616c6c20746f206e6f6e2d636f6e74726163740000006044820152606401610369565b5081611793565b611793838381511561141f5781518083602001fd5b80356001600160a01b03811681146108c357600080fd5b6000806040838503121561193057600080fd5b61193983611906565b946020939093013593505050565b6001600160e01b0319811681146107f257600080fd5b60006020828403121561196f57600080fd5b813561080a81611947565b60006020828403121561198c57600080fd5b5035919050565b60005b838110156119ae578181015183820152602001611996565b50506000910152565b600081518084526119cf816020860160208601611993565b601f01601f19169290920160200192915050565b60208152600061080a60208301846119b7565b634e487b7160e01b600052604160045260246000fd5b601f8201601f1916810167ffffffffffffffff81118282101715611a3257611a326119f6565b6040525050565b600067ffffffffffffffff821115611a5357611a536119f6565b5060051b60200190565b600082601f830112611a6e57600080fd5b81356020611a7b82611a39565b604051611a888282611a0c565b80915083815260208101915060208460051b870101935086841115611aac57600080fd5b602086015b84811015611ac85780358352918301918301611ab1565b509695505050505050565b600082601f830112611ae457600080fd5b813567ffffffffffffffff811115611afe57611afe6119f6565b604051611b15601f8301601f191660200182611a0c565b818152846020838601011115611b2a57600080fd5b816020850160208301376000918101602001919091529392505050565b600080600080600060a08688031215611b5f57600080fd5b611b6886611906565b9450611b7660208701611906565b9350604086013567ffffffffffffffff80821115611b9357600080fd5b611b9f89838a01611a5d565b94506060880135915080821115611bb557600080fd5b611bc189838a01611a5d565b93506080880135915080821115611bd757600080fd5b50611be488828901611ad3565b9150509295509295909350565b60008060408385031215611c0457600080fd5b823567ffffffffffffffff80821115611c1c57600080fd5b818501915085601f830112611c3057600080fd5b81356020611c3d82611a39565b604051611c4a8282611a0c565b83815260059390931b8501820192828101915089841115611c6a57600080fd5b948201945b83861015611c8f57611c8086611906565b82529482019490820190611c6f565b96505086013592505080821115611ca557600080fd5b50611cb285828601611a5d565b9150509250929050565b60008151808452602080850194506020840160005b83811015611ced57815187529582019590820190600101611cd1565b509495945050505050565b60208152600061080a6020830184611cbc565b60008060408385031215611d1e57600080fd5b50508035926020909101359150565b604080825283519082018190526000906020906060840190828701845b82811015611d6f5781516001600160a01b031684529284019290840190600101611d4a565b5050508381036020850152611d848186611cbc565b9695505050505050565b60008060408385031215611da157600080fd5b611daa83611906565b9150611db860208401611906565b90509250929050565b80151581146107f257600080fd5b60008060408385031215611de257600080fd5b611deb83611906565b91506020830135611dfb81611dc1565b809150509250929050565b600060208284031215611e1857600080fd5b61080a82611906565b600080600080600060a08688031215611e3957600080fd5b611e4286611906565b9450611e5060208701611906565b93506040860135925060608601359150608086013567ffffffffffffffff811115611e7a57600080fd5b611be488828901611ad3565b600181811c90821680611e9a57607f821691505b602082108103611eba57634e487b7160e01b600052602260045260246000fd5b50919050565b6020808252602e908201527f455243313135353a2063616c6c6572206973206e6f7420746f6b656e206f776e60408201526d195c881bdc88185c1c1c9bdd995960921b606082015260800190565b600060208284031215611f2057600080fd5b5051919050565b634e487b7160e01b600052601160045260246000fd5b8181038181111561039757610397611f27565b634e487b7160e01b600052603260045260246000fd5b60208082526025908201527f455243313135353a207472616e7366657220746f20746865207a65726f206164604082015264647265737360d81b606082015260800190565b6020808252602a908201527f455243313135353a20696e73756666696369656e742062616c616e636520666f60408201526939103a3930b739b332b960b11b606082015260800190565b8082018082111561039757610397611f27565b60408152600061201b6040830185611cbc565b828103602084015261202d8185611cbc565b95945050505050565b6020808252602b908201527f496e697469616c697a61626c653a20636f6e7472616374206973206e6f74206960408201526a6e697469616c697a696e6760a81b606082015260800190565b6001600160a01b0386811682528516602082015260a0604082018190526000906120ad90830186611cbc565b82810360608401526120bf8186611cbc565b905082810360808401526120d381856119b7565b98975050505050505050565b6000602082840312156120f157600080fd5b815161080a81611947565b600060033d11156121155760046000803e5060005160e01c5b90565b600060443d10156121265790565b6040516003193d81016004833e81513d67ffffffffffffffff816024840111818411171561215657505050505090565b828501915081518181111561216e5750505050505090565b843d87010160208285010111156121885750505050505090565b61219760208286010187611a0c565b509095945050505050565b60208082526028908201527f455243313135353a204552433131353552656365697665722072656a656374656040820152676420746f6b656e7360c01b606082015260800190565b6000602082840312156121fc57600080fd5b815161080a81611dc1565b6001600160a01b03868116825285166020820152604081018490526060810183905260a060808201819052600090611877908301846119b7565b601f8211156110d4576000816000526020600020601f850160051c8101602086101561226a5750805b601f850160051c820191505b81811015610c9857828155600101612276565b815167ffffffffffffffff8111156122a3576122a36119f6565b6122b7816122b18454611e86565b84612241565b602080601f8311600181146122ec57600084156122d45750858301515b600019600386901b1c1916600185901b178555610c98565b600085815260208120601f198616915b8281101561231b578886015182559484019460019091019084016122fc565b50858210156123395787850151600019600388901b60f8161c191681555b5050505050600190811b01905550565b6000825161235b818460208701611993565b919091019291505056fea2646970667358221220f43aadcfc96a71f383153ee31dbd1dfc8235e02800dfe5ea73957c0982047b2a64736f6c63430008160033",
  "linkReferences": {},
  "deployedLinkReferences": {}
}