{
  "_format": "hh-sol-artifact-1",
  "contractName": "BCollateralCapErc20Delegate",
  "sourceName": "contracts/money-market/BCollateralCapErc20Delegate.sol",
  "abi": [
    {
      "inputs": [],
      "payable": false,
      "stateMutability": "nonpayable",
      "type": "constructor"
    },
    {
      "anonymous": false,
      "inputs": [
        {
          "indexed": false,
          "internalType": "uint256",
          "name": "cashPrior",
          "type": "uint256"
        },
        {
          "indexed": false,
          "internalType": "uint256",
          "name": "interestAccumulated",
          "type": "uint256"
        },
        {
          "indexed": false,
          "internalType": "uint256",
          "name": "borrowIndex",
          "type": "uint256"
        },
        {
          "indexed": false,
          "internalType": "uint256",
          "name": "totalBorrows",
          "type": "uint256"
        }
      ],
      "name": "AccrueInterest",
      "type": "event"
    },
    {
      "anonymous": false,
      "inputs": [
        {
          "indexed": true,
          "internalType": "address",
          "name": "owner",
          "type": "address"
        },
        {
          "indexed": true,
          "internalType": "address",
          "name": "spender",
          "type": "address"
        },
        {
          "indexed": false,
          "internalType": "uint256",
          "name": "amount",
          "type": "uint256"
        }
      ],
      "name": "Approval",
      "type": "event"
    },
    {
      "anonymous": false,
      "inputs": [
        {
          "indexed": false,
          "internalType": "address",
          "name": "borrower",
          "type": "address"
        },
        {
          "indexed": false,
          "internalType": "uint256",
          "name": "borrowAmount",
          "type": "uint256"
        },
        {
          "indexed": false,
          "internalType": "uint256",
          "name": "accountBorrows",
          "type": "uint256"
        },
        {
          "indexed": false,
          "internalType": "uint256",
          "name": "totalBorrows",
          "type": "uint256"
        }
      ],
      "name": "Borrow",
      "type": "event"
    },
    {
      "anonymous": false,
      "inputs": [
        {
          "indexed": false,
          "internalType": "uint256",
          "name": "error",
          "type": "uint256"
        },
        {
          "indexed": false,
          "internalType": "uint256",
          "name": "info",
          "type": "uint256"
        },
        {
          "indexed": false,
          "internalType": "uint256",
          "name": "detail",
          "type": "uint256"
        }
      ],
      "name": "Failure",
      "type": "event"
    },
    {
      "anonymous": false,
      "inputs": [
        {
          "indexed": true,
          "internalType": "address",
          "name": "receiver",
          "type": "address"
        },
        {
          "indexed": false,
          "internalType": "uint256",
          "name": "amount",
          "type": "uint256"
        },
        {
          "indexed": false,
          "internalType": "uint256",
          "name": "totalFee",
          "type": "uint256"
        },
        {
          "indexed": false,
          "internalType": "uint256",
          "name": "reservesFee",
          "type": "uint256"
        }
      ],
      "name": "Flashloan",
      "type": "event"
    },
    {
      "anonymous": false,
      "inputs": [
        {
          "indexed": false,
          "internalType": "address",
          "name": "liquidator",
          "type": "address"
        },
        {
          "indexed": false,
          "internalType": "address",
          "name": "borrower",
          "type": "address"
        },
        {
          "indexed": false,
          "internalType": "uint256",
          "name": "repayAmount",
          "type": "uint256"
        },
        {
          "indexed": false,
          "internalType": "address",
          "name": "bTokenCollateral",
          "type": "address"
        },
        {
          "indexed": false,
          "internalType": "uint256",
          "name": "seizeTokens",
          "type": "uint256"
        }
      ],
      "name": "LiquidateBorrow",
      "type": "event"
    },
    {
      "anonymous": false,
      "inputs": [
        {
          "indexed": false,
          "internalType": "address",
          "name": "minter",
          "type": "address"
        },
        {
          "indexed": false,
          "internalType": "uint256",
          "name": "mintAmount",
          "type": "uint256"
        },
        {
          "indexed": false,
          "internalType": "uint256",
          "name": "mintTokens",
          "type": "uint256"
        }
      ],
      "name": "Mint",
      "type": "event"
    },
    {
      "anonymous": false,
      "inputs": [
        {
          "indexed": false,
          "internalType": "address",
          "name": "oldAdmin",
          "type": "address"
        },
        {
          "indexed": false,
          "internalType": "address",
          "name": "newAdmin",
          "type": "address"
        }
      ],
      "name": "NewAdmin",
      "type": "event"
    },
    {
      "anonymous": false,
      "inputs": [
        {
          "indexed": false,
          "internalType": "address",
          "name": "token",
          "type": "address"
        },
        {
          "indexed": false,
          "internalType": "uint256",
          "name": "newCap",
          "type": "uint256"
        }
      ],
      "name": "NewCollateralCap",
      "type": "event"
    },
    {
      "anonymous": false,
      "inputs": [
        {
          "indexed": false,
          "internalType": "contract ComptrollerInterface",
          "name": "oldComptroller",
          "type": "address"
        },
        {
          "indexed": false,
          "internalType": "contract ComptrollerInterface",
          "name": "newComptroller",
          "type": "address"
        }
      ],
      "name": "NewComptroller",
      "type": "event"
    },
    {
      "anonymous": false,
      "inputs": [
        {
          "indexed": false,
          "internalType": "contract InterestRateModel",
          "name": "oldInterestRateModel",
          "type": "address"
        },
        {
          "indexed": false,
          "internalType": "contract InterestRateModel",
          "name": "newInterestRateModel",
          "type": "address"
        }
      ],
      "name": "NewMarketInterestRateModel",
      "type": "event"
    },
    {
      "anonymous": false,
      "inputs": [
        {
          "indexed": false,
          "internalType": "address",
          "name": "oldPendingAdmin",
          "type": "address"
        },
        {
          "indexed": false,
          "internalType": "address",
          "name": "newPendingAdmin",
          "type": "address"
        }
      ],
      "name": "NewPendingAdmin",
      "type": "event"
    },
    {
      "anonymous": false,
      "inputs": [
        {
          "indexed": false,
          "internalType": "uint256",
          "name": "oldReserveFactorMantissa",
          "type": "uint256"
        },
        {
          "indexed": false,
          "internalType": "uint256",
          "name": "newReserveFactorMantissa",
          "type": "uint256"
        }
      ],
      "name": "NewReserveFactor",
      "type": "event"
    },
    {
      "anonymous": false,
      "inputs": [
        {
          "indexed": false,
          "internalType": "address",
          "name": "redeemer",
          "type": "address"
        },
        {
          "indexed": false,
          "internalType": "uint256",
          "name": "redeemAmount",
          "type": "uint256"
        },
        {
          "indexed": false,
          "internalType": "uint256",
          "name": "redeemTokens",
          "type": "uint256"
        }
      ],
      "name": "Redeem",
      "type": "event"
    },
    {
      "anonymous": false,
      "inputs": [
        {
          "indexed": false,
          "internalType": "address",
          "name": "payer",
          "type": "address"
        },
        {
          "indexed": false,
          "internalType": "address",
          "name": "borrower",
          "type": "address"
        },
        {
          "indexed": false,
          "internalType": "uint256",
          "name": "repayAmount",
          "type": "uint256"
        },
        {
          "indexed": false,
          "internalType": "uint256",
          "name": "accountBorrows",
          "type": "uint256"
        },
        {
          "indexed": false,
          "internalType": "uint256",
          "name": "totalBorrows",
          "type": "uint256"
        }
      ],
      "name": "RepayBorrow",
      "type": "event"
    },
    {
      "anonymous": false,
      "inputs": [
        {
          "indexed": false,
          "internalType": "address",
          "name": "benefactor",
          "type": "address"
        },
        {
          "indexed": false,
          "internalType": "uint256",
          "name": "addAmount",
          "type": "uint256"
        },
        {
          "indexed": false,
          "internalType": "uint256",
          "name": "newTotalReserves",
          "type": "uint256"
        }
      ],
      "name": "ReservesAdded",
      "type": "event"
    },
    {
      "anonymous": false,
      "inputs": [
        {
          "indexed": false,
          "internalType": "address",
          "name": "admin",
          "type": "address"
        },
        {
          "indexed": false,
          "internalType": "uint256",
          "name": "reduceAmount",
          "type": "uint256"
        },
        {
          "indexed": false,
          "internalType": "uint256",
          "name": "newTotalReserves",
          "type": "uint256"
        }
      ],
      "name": "ReservesReduced",
      "type": "event"
    },
    {
      "anonymous": false,
      "inputs": [
        {
          "indexed": true,
          "internalType": "address",
          "name": "from",
          "type": "address"
        },
        {
          "indexed": true,
          "internalType": "address",
          "name": "to",
          "type": "address"
        },
        {
          "indexed": false,
          "internalType": "uint256",
          "name": "amount",
          "type": "uint256"
        }
      ],
      "name": "Transfer",
      "type": "event"
    },
    {
      "anonymous": false,
      "inputs": [
        {
          "indexed": false,
          "internalType": "address",
          "name": "account",
          "type": "address"
        },
        {
          "indexed": false,
          "internalType": "uint256",
          "name": "newCollateralTokens",
          "type": "uint256"
        }
      ],
      "name": "UserCollateralChanged",
      "type": "event"
    },
    {
      "constant": false,
      "inputs": [],
      "name": "_acceptAdmin",
      "outputs": [
        {
          "internalType": "uint256",
          "name": "",
          "type": "uint256"
        }
      ],
      "payable": false,
      "stateMutability": "nonpayable",
      "type": "function"
    },
    {
      "constant": false,
      "inputs": [
        {
          "internalType": "uint256",
          "name": "addAmount",
          "type": "uint256"
        }
      ],
      "name": "_addReserves",
      "outputs": [
        {
          "internalType": "uint256",
          "name": "",
          "type": "uint256"
        }
      ],
      "payable": false,
      "stateMutability": "nonpayable",
      "type": "function"
    },
    {
      "constant": false,
      "inputs": [
        {
          "internalType": "bytes",
          "name": "data",
          "type": "bytes"
        }
      ],
      "name": "_becomeImplementation",
      "outputs": [],
      "payable": false,
      "stateMutability": "nonpayable",
      "type": "function"
    },
    {
      "constant": false,
      "inputs": [
        {
          "internalType": "uint256",
          "name": "reduceAmount",
          "type": "uint256"
        }
      ],
      "name": "_reduceReserves",
      "outputs": [
        {
          "internalType": "uint256",
          "name": "",
          "type": "uint256"
        }
      ],
      "payable": false,
      "stateMutability": "nonpayable",
      "type": "function"
    },
    {
      "constant": false,
      "inputs": [],
      "name": "_resignImplementation",
      "outputs": [],
      "payable": false,
      "stateMutability": "nonpayable",
      "type": "function"
    },
    {
      "constant": false,
      "inputs": [
        {
          "internalType": "uint256",
          "name": "newCollateralCap",
          "type": "uint256"
        }
      ],
      "name": "_setCollateralCap",
      "outputs": [],
      "payable": false,
      "stateMutability": "nonpayable",
      "type": "function"
    },
    {
      "constant": false,
      "inputs": [
        {
          "internalType": "contract ComptrollerInterface",
          "name": "newComptroller",
          "type": "address"
        }
      ],
      "name": "_setComptroller",
      "outputs": [
        {
          "internalType": "uint256",
          "name": "",
          "type": "uint256"
        }
      ],
      "payable": false,
      "stateMutability": "nonpayable",
      "type": "function"
    },
    {
      "constant": false,
      "inputs": [
        {
          "internalType": "contract InterestRateModel",
          "name": "newInterestRateModel",
          "type": "address"
        }
      ],
      "name": "_setInterestRateModel",
      "outputs": [
        {
          "internalType": "uint256",
          "name": "",
          "type": "uint256"
        }
      ],
      "payable": false,
      "stateMutability": "nonpayable",
      "type": "function"
    },
    {
      "constant": false,
      "inputs": [
        {
          "internalType": "address payable",
          "name": "newPendingAdmin",
          "type": "address"
        }
      ],
      "name": "_setPendingAdmin",
      "outputs": [
        {
          "internalType": "uint256",
          "name": "",
          "type": "uint256"
        }
      ],
      "payable": false,
      "stateMutability": "nonpayable",
      "type": "function"
    },
    {
      "constant": false,
      "inputs": [
        {
          "internalType": "uint256",
          "name": "newReserveFactorMantissa",
          "type": "uint256"
        }
      ],
      "name": "_setReserveFactor",
      "outputs": [
        {
          "internalType": "uint256",
          "name": "",
          "type": "uint256"
        }
      ],
      "payable": false,
      "stateMutability": "nonpayable",
      "type": "function"
    },
    {
      "constant": true,
      "inputs": [
        {
          "internalType": "address",
          "name": "",
          "type": "address"
        }
      ],
      "name": "accountCollateralTokens",
      "outputs": [
        {
          "internalType": "uint256",
          "name": "",
          "type": "uint256"
        }
      ],
      "payable": false,
      "stateMutability": "view",
      "type": "function"
    },
    {
      "constant": true,
      "inputs": [],
      "name": "accrualBlockNumber",
      "outputs": [
        {
          "internalType": "uint256",
          "name": "",
          "type": "uint256"
        }
      ],
      "payable": false,
      "stateMutability": "view",
      "type": "function"
    },
    {
      "constant": false,
      "inputs": [],
      "name": "accrueInterest",
      "outputs": [
        {
          "internalType": "uint256",
          "name": "",
          "type": "uint256"
        }
      ],
      "payable": false,
      "stateMutability": "nonpayable",
      "type": "function"
    },
    {
      "constant": true,
      "inputs": [],
      "name": "admin",
      "outputs": [
        {
          "internalType": "address payable",
          "name": "",
          "type": "address"
        }
      ],
      "payable": false,
      "stateMutability": "view",
      "type": "function"
    },
    {
      "constant": true,
      "inputs": [
        {
          "internalType": "address",
          "name": "owner",
          "type": "address"
        },
        {
          "internalType": "address",
          "name": "spender",
          "type": "address"
        }
      ],
      "name": "allowance",
      "outputs": [
        {
          "internalType": "uint256",
          "name": "",
          "type": "uint256"
        }
      ],
      "payable": false,
      "stateMutability": "view",
      "type": "function"
    },
    {
      "constant": false,
      "inputs": [
        {
          "internalType": "address",
          "name": "spender",
          "type": "address"
        },
        {
          "internalType": "uint256",
          "name": "amount",
          "type": "uint256"
        }
      ],
      "name": "approve",
      "outputs": [
        {
          "internalType": "bool",
          "name": "",
          "type": "bool"
        }
      ],
      "payable": false,
      "stateMutability": "nonpayable",
      "type": "function"
    },
    {
      "constant": true,
      "inputs": [
        {
          "internalType": "address",
          "name": "owner",
          "type": "address"
        }
      ],
      "name": "balanceOf",
      "outputs": [
        {
          "internalType": "uint256",
          "name": "",
          "type": "uint256"
        }
      ],
      "payable": false,
      "stateMutability": "view",
      "type": "function"
    },
    {
      "constant": false,
      "inputs": [
        {
          "internalType": "address",
          "name": "owner",
          "type": "address"
        }
      ],
      "name": "balanceOfUnderlying",
      "outputs": [
        {
          "internalType": "uint256",
          "name": "",
          "type": "uint256"
        }
      ],
      "payable": false,
      "stateMutability": "nonpayable",
      "type": "function"
    },
    {
      "constant": false,
      "inputs": [
        {
          "internalType": "uint256",
          "name": "borrowAmount",
          "type": "uint256"
        }
      ],
      "name": "borrow",
      "outputs": [
        {
          "internalType": "uint256",
          "name": "",
          "type": "uint256"
        }
      ],
      "payable": false,
      "stateMutability": "nonpayable",
      "type": "function"
    },
    {
      "constant": false,
      "inputs": [
        {
          "internalType": "address",
          "name": "account",
          "type": "address"
        }
      ],
      "name": "borrowBalanceCurrent",
      "outputs": [
        {
          "internalType": "uint256",
          "name": "",
          "type": "uint256"
        }
      ],
      "payable": false,
      "stateMutability": "nonpayable",
      "type": "function"
    },
    {
      "constant": true,
      "inputs": [
        {
          "internalType": "address",
          "name": "account",
          "type": "address"
        }
      ],
      "name": "borrowBalanceStored",
      "outputs": [
        {
          "internalType": "uint256",
          "name": "",
          "type": "uint256"
        }
      ],
      "payable": false,
      "stateMutability": "view",
      "type": "function"
    },
    {
      "constant": true,
      "inputs": [],
      "name": "borrowIndex",
      "outputs": [
        {
          "internalType": "uint256",
          "name": "",
          "type": "uint256"
        }
      ],
      "payable": false,
      "stateMutability": "view",
      "type": "function"
    },
    {
      "constant": true,
      "inputs": [],
      "name": "borrowRatePerBlock",
      "outputs": [
        {
          "internalType": "uint256",
          "name": "",
          "type": "uint256"
        }
      ],
      "payable": false,
      "stateMutability": "view",
      "type": "function"
    },
    {
      "constant": true,
      "inputs": [],
      "name": "collateralCap",
      "outputs": [
        {
          "internalType": "uint256",
          "name": "",
          "type": "uint256"
        }
      ],
      "payable": false,
      "stateMutability": "view",
      "type": "function"
    },
    {
      "constant": true,
      "inputs": [],
      "name": "comptroller",
      "outputs": [
        {
          "internalType": "contract ComptrollerInterface",
          "name": "",
          "type": "address"
        }
      ],
      "payable": false,
      "stateMutability": "view",
      "type": "function"
    },
    {
      "constant": true,
      "inputs": [],
      "name": "decimals",
      "outputs": [
        {
          "internalType": "uint8",
          "name": "",
          "type": "uint8"
        }
      ],
      "payable": false,
      "stateMutability": "view",
      "type": "function"
    },
    {
      "constant": true,
      "inputs": [
        {
          "internalType": "uint256",
          "name": "change",
          "type": "uint256"
        },
        {
          "internalType": "bool",
          "name": "repay",
          "type": "bool"
        }
      ],
      "name": "estimateBorrowRatePerBlockAfterChange",
      "outputs": [
        {
          "internalType": "uint256",
          "name": "",
          "type": "uint256"
        }
      ],
      "payable": false,
      "stateMutability": "view",
      "type": "function"
    },
    {
      "constant": true,
      "inputs": [
        {
          "internalType": "uint256",
          "name": "change",
          "type": "uint256"
        },
        {
          "internalType": "bool",
          "name": "repay",
          "type": "bool"
        }
      ],
      "name": "estimateSupplyRatePerBlockAfterChange",
      "outputs": [
        {
          "internalType": "uint256",
          "name": "",
          "type": "uint256"
        }
      ],
      "payable": false,
      "stateMutability": "view",
      "type": "function"
    },
    {
      "constant": false,
      "inputs": [],
      "name": "exchangeRateCurrent",
      "outputs": [
        {
          "internalType": "uint256",
          "name": "",
          "type": "uint256"
        }
      ],
      "payable": false,
      "stateMutability": "nonpayable",
      "type": "function"
    },
    {
      "constant": true,
      "inputs": [],
      "name": "exchangeRateStored",
      "outputs": [
        {
          "internalType": "uint256",
          "name": "",
          "type": "uint256"
        }
      ],
      "payable": false,
      "stateMutability": "view",
      "type": "function"
    },
    {
      "constant": true,
      "inputs": [
        {
          "internalType": "address",
          "name": "token",
          "type": "address"
        },
        {
          "internalType": "uint256",
          "name": "amount",
          "type": "uint256"
        }
      ],
      "name": "flashFee",
      "outputs": [
        {
          "internalType": "uint256",
          "name": "",
          "type": "uint256"
        }
      ],
      "payable": false,
      "stateMutability": "view",
      "type": "function"
    },
    {
      "constant": true,
      "inputs": [],
      "name": "flashFeeBips",
      "outputs": [
        {
          "internalType": "uint256",
          "name": "",
          "type": "uint256"
        }
      ],
      "payable": false,
      "stateMutability": "view",
      "type": "function"
    },
    {
      "constant": false,
      "inputs": [
        {
          "internalType": "contract ERC3156FlashBorrowerInterface",
          "name": "receiver",
          "type": "address"
        },
        {
          "internalType": "address",
          "name": "token",
          "type": "address"
        },
        {
          "internalType": "uint256",
          "name": "amount",
          "type": "uint256"
        },
        {
          "internalType": "bytes",
          "name": "data",
          "type": "bytes"
        }
      ],
      "name": "flashLoan",
      "outputs": [
        {
          "internalType": "bool",
          "name": "",
          "type": "bool"
        }
      ],
      "payable": false,
      "stateMutability": "nonpayable",
      "type": "function"
    },
    {
      "constant": true,
      "inputs": [
        {
          "internalType": "address",
          "name": "account",
          "type": "address"
        }
      ],
      "name": "getAccountSnapshot",
      "outputs": [
        {
          "internalType": "uint256",
          "name": "",
          "type": "uint256"
        },
        {
          "internalType": "uint256",
          "name": "",
          "type": "uint256"
        },
        {
          "internalType": "uint256",
          "name": "",
          "type": "uint256"
        },
        {
          "internalType": "uint256",
          "name": "",
          "type": "uint256"
        }
      ],
      "payable": false,
      "stateMutability": "view",
      "type": "function"
    },
    {
      "constant": true,
      "inputs": [],
      "name": "getCash",
      "outputs": [
        {
          "internalType": "uint256",
          "name": "",
          "type": "uint256"
        }
      ],
      "payable": false,
      "stateMutability": "view",
      "type": "function"
    },
    {
      "constant": false,
      "inputs": [],
      "name": "gulp",
      "outputs": [],
      "payable": false,
      "stateMutability": "nonpayable",
      "type": "function"
    },
    {
      "constant": true,
      "inputs": [],
      "name": "implementation",
      "outputs": [
        {
          "internalType": "address",
          "name": "",
          "type": "address"
        }
      ],
      "payable": false,
      "stateMutability": "view",
      "type": "function"
    },
    {
      "constant": false,
      "inputs": [
        {
          "internalType": "address",
          "name": "underlying_",
          "type": "address"
        },
        {
          "internalType": "contract ComptrollerInterface",
          "name": "comptroller_",
          "type": "address"
        },
        {
          "internalType": "contract InterestRateModel",
          "name": "interestRateModel_",
          "type": "address"
        },
        {
          "internalType": "uint256",
          "name": "initialExchangeRateMantissa_",
          "type": "uint256"
        },
        {
          "internalType": "string",
          "name": "name_",
          "type": "string"
        },
        {
          "internalType": "string",
          "name": "symbol_",
          "type": "string"
        },
        {
          "internalType": "uint8",
          "name": "decimals_",
          "type": "uint8"
        }
      ],
      "name": "initialize",
      "outputs": [],
      "payable": false,
      "stateMutability": "nonpayable",
      "type": "function"
    },
    {
      "constant": false,
      "inputs": [
        {
          "internalType": "contract ComptrollerInterface",
          "name": "comptroller_",
          "type": "address"
        },
        {
          "internalType": "contract InterestRateModel",
          "name": "interestRateModel_",
          "type": "address"
        },
        {
          "internalType": "uint256",
          "name": "initialExchangeRateMantissa_",
          "type": "uint256"
        },
        {
          "internalType": "string",
          "name": "name_",
          "type": "string"
        },
        {
          "internalType": "string",
          "name": "symbol_",
          "type": "string"
        },
        {
          "internalType": "uint8",
          "name": "decimals_",
          "type": "uint8"
        }
      ],
      "name": "initialize",
      "outputs": [],
      "payable": false,
      "stateMutability": "nonpayable",
      "type": "function"
    },
    {
      "constant": true,
      "inputs": [],
      "name": "interestRateModel",
      "outputs": [
        {
          "internalType": "contract InterestRateModel",
          "name": "",
          "type": "address"
        }
      ],
      "payable": false,
      "stateMutability": "view",
      "type": "function"
    },
    {
      "constant": true,
      "inputs": [],
      "name": "internalCash",
      "outputs": [
        {
          "internalType": "uint256",
          "name": "",
          "type": "uint256"
        }
      ],
      "payable": false,
      "stateMutability": "view",
      "type": "function"
    },
    {
      "constant": true,
      "inputs": [],
      "name": "isBToken",
      "outputs": [
        {
          "internalType": "bool",
          "name": "",
          "type": "bool"
        }
      ],
      "payable": false,
      "stateMutability": "view",
      "type": "function"
    },
    {
      "constant": true,
      "inputs": [
        {
          "internalType": "address",
          "name": "",
          "type": "address"
        }
      ],
      "name": "isCollateralTokenInit",
      "outputs": [
        {
          "internalType": "bool",
          "name": "",
          "type": "bool"
        }
      ],
      "payable": false,
      "stateMutability": "view",
      "type": "function"
    },
    {
      "constant": false,
      "inputs": [
        {
          "internalType": "address",
          "name": "borrower",
          "type": "address"
        },
        {
          "internalType": "uint256",
          "name": "repayAmount",
          "type": "uint256"
        },
        {
          "internalType": "contract BTokenInterface",
          "name": "bTokenCollateral",
          "type": "address"
        }
      ],
      "name": "liquidateBorrow",
      "outputs": [
        {
          "internalType": "uint256",
          "name": "",
          "type": "uint256"
        }
      ],
      "payable": false,
      "stateMutability": "nonpayable",
      "type": "function"
    },
    {
      "constant": true,
      "inputs": [
        {
          "internalType": "address",
          "name": "token",
          "type": "address"
        }
      ],
      "name": "maxFlashLoan",
      "outputs": [
        {
          "internalType": "uint256",
          "name": "",
          "type": "uint256"
        }
      ],
      "payable": false,
      "stateMutability": "view",
      "type": "function"
    },
    {
      "constant": false,
      "inputs": [
        {
          "internalType": "uint256",
          "name": "mintAmount",
          "type": "uint256"
        }
      ],
      "name": "mint",
      "outputs": [
        {
          "internalType": "uint256",
          "name": "",
          "type": "uint256"
        }
      ],
      "payable": false,
      "stateMutability": "nonpayable",
      "type": "function"
    },
    {
      "constant": true,
      "inputs": [],
      "name": "name",
      "outputs": [
        {
          "internalType": "string",
          "name": "",
          "type": "string"
        }
      ],
      "payable": false,
      "stateMutability": "view",
      "type": "function"
    },
    {
      "constant": true,
      "inputs": [],
      "name": "pendingAdmin",
      "outputs": [
        {
          "internalType": "address payable",
          "name": "",
          "type": "address"
        }
      ],
      "payable": false,
      "stateMutability": "view",
      "type": "function"
    },
    {
      "constant": false,
      "inputs": [
        {
          "internalType": "uint256",
          "name": "redeemTokens",
          "type": "uint256"
        }
      ],
      "name": "redeem",
      "outputs": [
        {
          "internalType": "uint256",
          "name": "",
          "type": "uint256"
        }
      ],
      "payable": false,
      "stateMutability": "nonpayable",
      "type": "function"
    },
    {
      "constant": false,
      "inputs": [
        {
          "internalType": "uint256",
          "name": "redeemAmount",
          "type": "uint256"
        }
      ],
      "name": "redeemUnderlying",
      "outputs": [
        {
          "internalType": "uint256",
          "name": "",
          "type": "uint256"
        }
      ],
      "payable": false,
      "stateMutability": "nonpayable",
      "type": "function"
    },
    {
      "constant": false,
      "inputs": [
        {
          "internalType": "address",
          "name": "account",
          "type": "address"
        }
      ],
      "name": "registerCollateral",
      "outputs": [
        {
          "internalType": "uint256",
          "name": "",
          "type": "uint256"
        }
      ],
      "payable": false,
      "stateMutability": "nonpayable",
      "type": "function"
    },
    {
      "constant": false,
      "inputs": [
        {
          "internalType": "uint256",
          "name": "repayAmount",
          "type": "uint256"
        }
      ],
      "name": "repayBorrow",
      "outputs": [
        {
          "internalType": "uint256",
          "name": "",
          "type": "uint256"
        }
      ],
      "payable": false,
      "stateMutability": "nonpayable",
      "type": "function"
    },
    {
      "constant": false,
      "inputs": [
        {
          "internalType": "address",
          "name": "borrower",
          "type": "address"
        },
        {
          "internalType": "uint256",
          "name": "repayAmount",
          "type": "uint256"
        }
      ],
      "name": "repayBorrowBehalf",
      "outputs": [
        {
          "internalType": "uint256",
          "name": "",
          "type": "uint256"
        }
      ],
      "payable": false,
      "stateMutability": "nonpayable",
      "type": "function"
    },
    {
      "constant": true,
      "inputs": [],
      "name": "reserveFactorMantissa",
      "outputs": [
        {
          "internalType": "uint256",
          "name": "",
          "type": "uint256"
        }
      ],
      "payable": false,
      "stateMutability": "view",
      "type": "function"
    },
    {
      "constant": false,
      "inputs": [
        {
          "internalType": "address",
          "name": "liquidator",
          "type": "address"
        },
        {
          "internalType": "address",
          "name": "borrower",
          "type": "address"
        },
        {
          "internalType": "uint256",
          "name": "seizeTokens",
          "type": "uint256"
        }
      ],
      "name": "seize",
      "outputs": [
        {
          "internalType": "uint256",
          "name": "",
          "type": "uint256"
        }
      ],
      "payable": false,
      "stateMutability": "nonpayable",
      "type": "function"
    },
    {
      "constant": true,
      "inputs": [],
      "name": "supplyRatePerBlock",
      "outputs": [
        {
          "internalType": "uint256",
          "name": "",
          "type": "uint256"
        }
      ],
      "payable": false,
      "stateMutability": "view",
      "type": "function"
    },
    {
      "constant": true,
      "inputs": [],
      "name": "symbol",
      "outputs": [
        {
          "internalType": "string",
          "name": "",
          "type": "string"
        }
      ],
      "payable": false,
      "stateMutability": "view",
      "type": "function"
    },
    {
      "constant": true,
      "inputs": [],
      "name": "totalBorrows",
      "outputs": [
        {
          "internalType": "uint256",
          "name": "",
          "type": "uint256"
        }
      ],
      "payable": false,
      "stateMutability": "view",
      "type": "function"
    },
    {
      "constant": false,
      "inputs": [],
      "name": "totalBorrowsCurrent",
      "outputs": [
        {
          "internalType": "uint256",
          "name": "",
          "type": "uint256"
        }
      ],
      "payable": false,
      "stateMutability": "nonpayable",
      "type": "function"
    },
    {
      "constant": true,
      "inputs": [],
      "name": "totalCollateralTokens",
      "outputs": [
        {
          "internalType": "uint256",
          "name": "",
          "type": "uint256"
        }
      ],
      "payable": false,
      "stateMutability": "view",
      "type": "function"
    },
    {
      "constant": true,
      "inputs": [],
      "name": "totalReserves",
      "outputs": [
        {
          "internalType": "uint256",
          "name": "",
          "type": "uint256"
        }
      ],
      "payable": false,
      "stateMutability": "view",
      "type": "function"
    },
    {
      "constant": true,
      "inputs": [],
      "name": "totalSupply",
      "outputs": [
        {
          "internalType": "uint256",
          "name": "",
          "type": "uint256"
        }
      ],
      "payable": false,
      "stateMutability": "view",
      "type": "function"
    },
    {
      "constant": false,
      "inputs": [
        {
          "internalType": "address",
          "name": "dst",
          "type": "address"
        },
        {
          "internalType": "uint256",
          "name": "amount",
          "type": "uint256"
        }
      ],
      "name": "transfer",
      "outputs": [
        {
          "internalType": "bool",
          "name": "",
          "type": "bool"
        }
      ],
      "payable": false,
      "stateMutability": "nonpayable",
      "type": "function"
    },
    {
      "constant": false,
      "inputs": [
        {
          "internalType": "address",
          "name": "src",
          "type": "address"
        },
        {
          "internalType": "address",
          "name": "dst",
          "type": "address"
        },
        {
          "internalType": "uint256",
          "name": "amount",
          "type": "uint256"
        }
      ],
      "name": "transferFrom",
      "outputs": [
        {
          "internalType": "bool",
          "name": "",
          "type": "bool"
        }
      ],
      "payable": false,
      "stateMutability": "nonpayable",
      "type": "function"
    },
    {
      "constant": true,
      "inputs": [],
      "name": "underlying",
      "outputs": [
        {
          "internalType": "address",
          "name": "",
          "type": "address"
        }
      ],
      "payable": false,
      "stateMutability": "view",
      "type": "function"
    },
    {
      "constant": false,
      "inputs": [
        {
          "internalType": "address",
          "name": "account",
          "type": "address"
        }
      ],
      "name": "unregisterCollateral",
      "outputs": [],
      "payable": false,
      "stateMutability": "nonpayable",
      "type": "function"
    }
  ],
  "bytecode": "0x608060405234801561001057600080fd5b50615e3f80620000216000396000f3fe608060405234801561001057600080fd5b50600436106103e65760003560e01c8063852a12e31161020a578063bd6d894d11610125578063e9c714f2116100b8578063f5e3c46211610087578063f5e3c46214610df8578063f851a44014610e2e578063f8f9da2814610e36578063fbb6233714610e3e578063fca7820b14610e46576103e6565b8063e9c714f214610dba578063ea11eea414610dc2578063f2b3abbd14610dca578063f3fdb15a14610df0576103e6565b8063d2bb18e9116100f4578063d2bb18e914610d3b578063d9d98ce414610d43578063db006a7514610d6f578063dd62ed3e14610d8c576103e6565b8063bd6d894d14610ca4578063c37f68e214610cac578063c5ebeaec14610cf8578063d240d64a14610d15576103e6565b806399d8c1b41161019d578063aa5af0fd1161016c578063aa5af0fd14610c38578063ae9d70b014610c40578063b2a02ff114610c48578063b71d1a0c14610c7e576103e6565b806399d8c1b414610a99578063a0712d6814610be7578063a6afed9514610c04578063a9059cbb14610c0c576103e6565b80638f840ddd116101d95780638f840ddd14610a5b57806394909e6214610a6357806395d89b4114610a6b57806395dd919314610a73576103e6565b8063852a12e3146109cc57806385d8a2e6146109e95780638897bd8514610a0f5780638b35776b14610a35576103e6565b8063313ce567116103055780635cffe9de116102985780636c540baf116102675780636c540baf146109715780636f307dc31461097957806370a082311461098157806373acee98146109a757806381cf00eb146109af576103e6565b80635cffe9de146108985780635fe3b56714610926578063601a0bf11461092e578063613255ab1461094b576103e6565b80634576b5db116102d45780634576b5db146107be57806347bd3718146107e457806356e67728146107ec5780635c60da1b14610890576103e6565b8063313ce567146107555780633af9e669146107735780633b1d21a2146107995780633e941010146107a1576103e6565b806318160ddd1161037d57806322abdbf51161034c57806322abdbf5146106c757806323b872dd146106cf5780632608f818146107055780632678224714610731576103e6565b806318160ddd14610559578063182df0f51461056157806319a4dd3c146105695780631a31d46514610571576103e6565b80630f226888116103b95780630f226888146104fc578063153ab50514610521578063173b99041461052b57806317bfdfbc14610533576103e6565b806305dd00b8146103eb57806306fdde0314610422578063095ea7b31461049f5780630e752702146104df575b600080fd5b6104106004803603604081101561040157600080fd5b50803590602001351515610e63565b60408051918252519081900360200190f35b61042a610f4a565b6040805160208082528351818301528351919283929083019185019080838360005b8381101561046457818101518382015260200161044c565b50505050905090810190601f1680156104915780820380516001836020036101000a031916815260200191505b509250505060405180910390f35b6104cb600480360360408110156104b557600080fd5b506001600160a01b038135169060200135610fd7565b604080519115158252519081900360200190f35b610410600480360360208110156104f557600080fd5b5035611042565b6104106004803603604081101561051257600080fd5b5080359060200135151561109b565b61052961114a565b005b61041061119d565b6104106004803603602081101561054957600080fd5b50356001600160a01b03166111a3565b610410611218565b61041061121e565b61041061122e565b610529600480360360e081101561058757600080fd5b6001600160a01b03823581169260208101358216926040820135909216916060820135919081019060a081016080820135600160201b8111156105c957600080fd5b8201836020820111156105db57600080fd5b803590602001918460018302840111600160201b831117156105fc57600080fd5b91908080601f0160208091040260200160405190810160405280939291908181526020018383808284376000920191909152509295949360208101935035915050600160201b81111561064e57600080fd5b82018360208201111561066057600080fd5b803590602001918460018302840111600160201b8311171561068157600080fd5b91908080601f0160208091040260200160405190810160405280939291908181526020018383808284376000920191909152509295505050903560ff1691506112349050565b6104106112d3565b6104cb600480360360608110156106e557600080fd5b506001600160a01b038135811691602081013590911690604001356112d9565b6104106004803603604081101561071b57600080fd5b506001600160a01b03813516906020013561134b565b6107396113ad565b604080516001600160a01b039092168252519081900360200190f35b61075d6113bc565b6040805160ff9092168252519081900360200190f35b6104106004803603602081101561078957600080fd5b50356001600160a01b03166113c5565b610410611414565b610410600480360360208110156107b757600080fd5b503561141e565b610410600480360360208110156107d457600080fd5b50356001600160a01b0316611473565b6104106115b7565b6105296004803603602081101561080257600080fd5b810190602081018135600160201b81111561081c57600080fd5b82018360208201111561082e57600080fd5b803590602001918460018302840111600160201b8311171561084f57600080fd5b91908080601f0160208091040260200160405190810160405280939291908181526020018383808284376000920191909152509295506115bd945050505050565b610739611687565b6104cb600480360360808110156108ae57600080fd5b6001600160a01b03823581169260208101359091169160408201359190810190608081016060820135600160201b8111156108e857600080fd5b8201836020820111156108fa57600080fd5b803590602001918460018302840111600160201b8311171561091b57600080fd5b509092509050611696565b610739611b8f565b6104106004803603602081101561094457600080fd5b5035611b9e565b6104106004803603602081101561096157600080fd5b50356001600160a01b0316611bff565b610410611cc4565b610739611cca565b6104106004803603602081101561099757600080fd5b50356001600160a01b0316611cd9565b610410611cf4565b610529600480360360208110156109c557600080fd5b5035611d60565b610410600480360360208110156109e257600080fd5b5035611df4565b6104cb600480360360208110156109ff57600080fd5b50356001600160a01b0316611e53565b61041060048036036020811015610a2557600080fd5b50356001600160a01b0316611e68565b61052960048036036020811015610a4b57600080fd5b50356001600160a01b0316611eff565b610410612055565b61052961205b565b61042a6120f0565b61041060048036036020811015610a8957600080fd5b50356001600160a01b0316612148565b610529600480360360c0811015610aaf57600080fd5b6001600160a01b03823581169260208101359091169160408201359190810190608081016060820135600160201b811115610ae957600080fd5b820183602082011115610afb57600080fd5b803590602001918460018302840111600160201b83111715610b1c57600080fd5b91908080601f0160208091040260200160405190810160405280939291908181526020018383808284376000920191909152509295949360208101935035915050600160201b811115610b6e57600080fd5b820183602082011115610b8057600080fd5b803590602001918460018302840111600160201b83111715610ba157600080fd5b91908080601f0160208091040260200160405190810160405280939291908181526020018383808284376000920191909152509295505050903560ff1691506121539050565b61041060048036036020811015610bfd57600080fd5b503561234f565b6104106123a1565b6104cb60048036036040811015610c2257600080fd5b506001600160a01b0381351690602001356125a8565b610410612619565b61041061261f565b61041060048036036060811015610c5e57600080fd5b506001600160a01b038135811691602081013590911690604001356126be565b61041060048036036020811015610c9457600080fd5b50356001600160a01b031661272f565b6104106127bb565b610cd260048036036020811015610cc257600080fd5b50356001600160a01b031661282d565b604080519485526020850193909352838301919091526060830152519081900360800190f35b61041060048036036020811015610d0e57600080fd5b5035612869565b61041060048036036020811015610d2b57600080fd5b50356001600160a01b03166128b8565b6104106128ca565b61041060048036036040811015610d5957600080fd5b506001600160a01b0381351690602001356128d0565b61041060048036036020811015610d8557600080fd5b5035612a10565b61041060048036036040811015610da257600080fd5b506001600160a01b0381358116916020013516612a5f565b610410612a8a565b610410612b8d565b61041060048036036020811015610de057600080fd5b50356001600160a01b0316612b92565b610739612ba6565b61041060048036036060811015610e0e57600080fd5b506001600160a01b03813581169160208101359160409091013516612bb5565b610739612c23565b610410612c37565b6104cb612b8d565b61041060048036036020811015610e5c57600080fd5b5035612c9b565b60008060008315610e9457610e7f610e79612cfc565b86612d02565b9150610e8d600b5486612d38565b9050610eb6565b610ea5610e9f612cfc565b86612d38565b9150610eb3600b5486612d02565b90505b600654600c54604080516315f2405360e01b815260048101869052602481018590526044810192909252516001600160a01b03909216916315f2405391606480820192602092909190829003018186803b158015610f1357600080fd5b505afa158015610f27573d6000803e3d6000fd5b505050506040513d6020811015610f3d57600080fd5b5051925050505b92915050565b60018054604080516020600284861615610100026000190190941693909304601f81018490048402820184019092528181529291830182828015610fcf5780601f10610fa457610100808354040283529160200191610fcf565b820191906000526020600020905b815481529060010190602001808311610fb257829003601f168201915b505050505081565b336000818152600f602090815260408083206001600160a01b03871680855290835281842086905581518681529151939493909284927f8c5be1e5ebec7d5bd14f71427d1e84f3dd0314c0f7b2291e5b200ac8c7c3b925929081900390910190a35060019392505050565b600080611050836000612d72565b5090508015611095576040805162461bcd60e51b815260206004820152600c60248201526b1c995c185e4819985a5b195960a21b604482015290519081900360640190fd5b50919050565b600080600083156110c6576110b1610e79612cfc565b91506110bf600b5486612d38565b90506110e2565b6110d1610e9f612cfc565b91506110df600b5486612d02565b90505b600654600c5460085460408051635c0b440b60e11b8152600481018790526024810186905260448101939093526064830191909152516001600160a01b039092169163b816881691608480820192602092909190829003018186803b158015610f1357600080fd5b60035461010090046001600160a01b0316331461119b576040805162461bcd60e51b815260206004820152600a60248201526961646d696e206f6e6c7960b01b604482015290519081900360640190fd5b565b60085481565b6000805460ff166111e8576040805162461bcd60e51b815260206004820152600a6024820152691c994b595b9d195c995960b21b604482015290519081900360640190fd5b6000805460ff191690556111fa6123a1565b5061120482612148565b90506000805460ff19166001179055919050565b600d5481565b6000611228612df2565b90505b90565b60145481565b611242868686868686612153565b601180546001600160a01b0319166001600160a01b038981169190911791829055604080516318160ddd60e01b8152905192909116916318160ddd91600480820192602092909190829003018186803b15801561129e57600080fd5b505afa1580156112b2573d6000803e3d6000fd5b505050506040513d60208110156112c857600080fd5b505050505050505050565b60135481565b6000805460ff1661131e576040805162461bcd60e51b815260206004820152600a6024820152691c994b595b9d195c995960b21b604482015290519081900360640190fd5b6000805460ff1916815561133433868686612e58565b1490506000805460ff191660011790559392505050565b60008061135a84846000613239565b50905080156113a6576040805162461bcd60e51b81526020600482015260136024820152721c995c185e4818995a185b198819985a5b1959606a1b604482015290519081900360640190fd5b5092915050565b6004546001600160a01b031681565b60035460ff1681565b60006113cf615c42565b60405180602001604052806113e26127bb565b90526001600160a01b0384166000908152600e602052604090205490915061140b9082906132ba565b9150505b919050565b6000611228612cfc565b600061142b8260006132e1565b1561140f576040805162461bcd60e51b8152602060048201526013602482015272185919081c995cd95c9d995cc819985a5b1959606a1b604482015290519081900360640190fd5b60035460009061010090046001600160a01b031633146114a0576114996001602961335c565b905061140f565b60055460408051623f1ee960e11b815290516001600160a01b0392831692851691627e3dd2916004808301926020929190829003018186803b1580156114e557600080fd5b505afa1580156114f9573d6000803e3d6000fd5b505050506040513d602081101561150f57600080fd5b5051611554576040805162461bcd60e51b815260206004820152600f60248201526e3737ba1031b7b6b83a3937b63632b960891b604482015290519081900360640190fd5b600580546001600160a01b0319166001600160a01b03858116918217909255604080519284168352602083019190915280517f7ac369dbd14fa5ea3f473ed67cc9d598964a77501540ba6751eb0b3decf5870d9281900390910190a1600061140b565b600b5481565b60035461010090046001600160a01b0316331461160e576040805162461bcd60e51b815260206004820152600a60248201526961646d696e206f6e6c7960b01b604482015290519081900360640190fd5b6116166133c2565b60135560055460408051630aa5747760e01b81523060048201526001602482015290516001600160a01b0390921691630aa574779160448082019260009290919082900301818387803b15801561166c57600080fd5b505af1158015611680573d6000803e3d6000fd5b5050505050565b6012546001600160a01b031681565b6000805460ff166116db576040805162461bcd60e51b815260206004820152600a6024820152691c994b595b9d195c995960b21b604482015290519081900360640190fd5b6000805460ff1916905583611737576040805162461bcd60e51b815260206004820152601860248201527f696e76616c696420666c6173686c6f616e20616d6f756e740000000000000000604482015290519081900360640190fd5b6011546001600160a01b03868116911614611790576040805162461bcd60e51b8152602060048201526014602482015273756e737570706f727465642063757272656e637960601b604482015290519081900360640190fd5b6117986123a1565b506005546040516358d5bc7360e11b815230600482018181526001600160a01b038a81166024850152604484018990526080606485019081526084850188905294169363b1ab78e6938b928a928a928a92919060a401848480828437600081840152601f19601f820116905080830192505050965050505050505060206040518083038186803b15801561182b57600080fd5b505afa15801561183f573d6000803e3d6000fd5b505050506040513d602081101561185557600080fd5b505161189e576040805162461bcd60e51b8152602060048201526013602482015272199b185cda1b1bd85b881a5cc81c185d5cd959606a1b604482015290519081900360640190fd5b60006118a86133c2565b905060006118b4612cfc565b9050858110156118ff576040805162461bcd60e51b81526020600482015260116024820152700d2dce6eaccccd2c6d2cadce840c6c2e6d607b1b604482015290519081900360640190fd5b600061190b8888613442565b90506119198988600061345a565b611925600b5488612d02565b600b55604051806029615da282396040519081900360290181206011546323e30c8b60e01b835233600484018181526001600160a01b0392831660248601819052604486018e90526064860188905260a06084870190815260a487018d9052949650928f16946323e30c8b949293928e9289928f928f929160c401848480828437600081840152601f19601f820116905080830192505050975050505050505050602060405180830381600087803b1580156119e057600080fd5b505af11580156119f4573d6000803e3d6000fd5b505050506040513d6020811015611a0a57600080fd5b505114611a5e576040805162461bcd60e51b815260206004820152601960248201527f49455243333135363a2043616c6c6261636b206661696c656400000000000000604482015290519081900360640190fd5b6000611a6a8883612d02565b9050611a788a826000613553565b506000611a836133c2565b9050611a8f8584612d02565b8114611ad9576040805162461bcd60e51b8152602060048201526014602482015273696e636f6e73697374656e742062616c616e636560601b604482015290519081900360640190fd5b6000611af56040518060200160405280600854815250856132ba565b9050611b03600c5482612d02565b600c55611b108585612d02565b601355600b54611b20908b612d38565b600b55604080518b81526020810186905280820183905290516001600160a01b038e16917f33c8e097c526683cbdb29adf782fac95e9d0fbe0ed635c13d8c75fdf726557d9919081900360600190a2600196505050505050506000805460ff1916600117905595945050505050565b6005546001600160a01b031681565b6000805460ff16611be3576040805162461bcd60e51b815260206004820152600a6024820152691c994b595b9d195c995960b21b604482015290519081900360640190fd5b6000805460ff19169055611bf56123a1565b5061120482613756565b60115460009081906001600160a01b038481169116148015611cb05750600554604080516358d5bc7360e11b81523060048201526000602482018190526044820185905260806064830152608482015290516001600160a01b039092169163b1ab78e69160c480820192602092909190829003018186803b158015611c8357600080fd5b505afa158015611c97573d6000803e3d6000fd5b505050506040513d6020811015611cad57600080fd5b50515b15610f4457611cbd612cfc565b9392505050565b60095481565b6011546001600160a01b031681565b6001600160a01b03166000908152600e602052604090205490565b6000805460ff16611d39576040805162461bcd60e51b815260206004820152600a6024820152691c994b595b9d195c995960b21b604482015290519081900360640190fd5b6000805460ff19169055611d4b6123a1565b5050600b546000805460ff1916600117905590565b60035461010090046001600160a01b03163314611db1576040805162461bcd60e51b815260206004820152600a60248201526961646d696e206f6e6c7960b01b604482015290519081900360640190fd5b6017819055604080513081526020810183905281517f01b7c780e0f385803fe80cbe0efc086d13b8eb443a2ce43e2061fd92bc0e34f1929181900390910190a150565b6000611e0182600061385c565b1561140f576040805162461bcd60e51b815260206004820152601860248201527f72656465656d20756e6465726c79696e67206661696c65640000000000000000604482015290519081900360640190fd5b60166020526000908152604090205460ff1681565b6000611e73826138d6565b6005546001600160a01b03163314611ec5576040805162461bcd60e51b815260206004820152601060248201526f636f6d7074726f6c6c6572206f6e6c7960801b604482015290519081900360640190fd5b6001600160a01b0382166000908152600e60209081526040808320546015909252822054611ef39190612d38565b905061140b8382613a18565b611f08816138d6565b6005546001600160a01b03163314611f5a576040805162461bcd60e51b815260206004820152601060248201526f636f6d7074726f6c6c6572206f6e6c7960801b604482015290519081900360640190fd5b6005546001600160a01b03828116600081815260156020908152604080832054815163eabe7d9160e01b81523060048201526024810195909552604485015251939094169363eabe7d9193606480850194929391928390030190829087803b158015611fc557600080fd5b505af1158015611fd9573d6000803e3d6000fd5b505050506040513d6020811015611fef57600080fd5b50511561202e576040805162461bcd60e51b81526020600482015260086024820152671c995a9958dd195960c21b604482015290519081900360640190fd5b6001600160a01b038116600090815260156020526040902054612052908290613b6b565b50565b600c5481565b60005460ff1661209f576040805162461bcd60e51b815260206004820152600a6024820152691c994b595b9d195c995960b21b604482015290519081900360640190fd5b6000805460ff191681556120b16133c2565b905060006120bd612cfc565b905060006120cb8383612d38565b90506120d9600c5482612d02565b600c5550506013556000805460ff19166001179055565b6002805460408051602060018416156101000260001901909316849004601f81018490048402820184019092528181529291830182828015610fcf5780601f10610fa457610100808354040283529160200191610fcf565b6000610f4482613bf1565b60035461010090046001600160a01b031633146121a4576040805162461bcd60e51b815260206004820152600a60248201526961646d696e206f6e6c7960b01b604482015290519081900360640190fd5b6009541580156121b45750600a54155b6121f3576040805162461bcd60e51b815260206004820152600b60248201526a1a5b9a5d1a585b1a5e995960aa1b604482015290519081900360640190fd5b600784905583612242576040805162461bcd60e51b8152602060048201526015602482015274696e76616c69642065786368616e6765207261746560581b604482015290519081900360640190fd5b600061224d87611473565b9050801561229b576040805162461bcd60e51b81526020600482015260166024820152751cd95d0818dbdb5c1d1c9bdb1b195c8819985a5b195960521b604482015290519081900360640190fd5b6122a3613c46565b600955670de0b6b3a7640000600a556122bb86613c4a565b90508015612301576040805162461bcd60e51b815260206004820152600e60248201526d1cd95d081254934819985a5b195960921b604482015290519081900360640190fd5b8351612314906001906020870190615c55565b508251612328906002906020860190615c55565b50506003805460ff90921660ff199283161790556000805490911660011790555050505050565b60008061235d836000613dad565b5090508015611095576040805162461bcd60e51b815260206004820152600b60248201526a1b5a5b9d0819985a5b195960aa1b604482015290519081900360640190fd5b6000806123ac613c46565b600954909150808214156123c55760009250505061122b565b60006123cf612cfc565b600b54600c54600a54600654604080516315f2405360e01b815260048101879052602481018690526044810185905290519596509394929391926000926001600160a01b03909216916315f24053916064808301926020929190829003018186803b15801561243d57600080fd5b505afa158015612451573d6000803e3d6000fd5b505050506040513d602081101561246757600080fd5b5051905065048c273950008111156124bd576040805162461bcd60e51b81526020600482015260146024820152730c4dee4e4deee40e4c2e8ca40e8dede40d0d2ced60631b604482015290519081900360640190fd5b60006124c98888612d38565b90506124d3615c42565b6124eb60405180602001604052808581525083613e12565b905060006124f982886132ba565b905060006125078289612d02565b905060006125266040518060200160405280600854815250848a613e3c565b9050600061253585898a613e3c565b60098e9055600a819055600b849055600c839055604080518d8152602081018790528082018390526060810186905290519192507f4dec04e750ca11537cabcd8a9eab06494de08da3735bc8871cd41250e190bc04919081900360800190a160009d505050505050505050505050505090565b6000805460ff166125ed576040805162461bcd60e51b815260206004820152600a6024820152691c994b595b9d195c995960b21b604482015290519081900360640190fd5b6000805460ff1916815561260333338686612e58565b1490506000805460ff1916600117905592915050565b600a5481565b6006546000906001600160a01b031663b816881661263b612cfc565b600b54600c546008546040518563ffffffff1660e01b81526004018085815260200184815260200183815260200182815260200194505050505060206040518083038186803b15801561268d57600080fd5b505afa1580156126a1573d6000803e3d6000fd5b505050506040513d60208110156126b757600080fd5b5051905090565b6000805460ff16612703576040805162461bcd60e51b815260206004820152600a6024820152691c994b595b9d195c995960b21b604482015290519081900360640190fd5b6000805460ff1916905561271933858585613e64565b90506000805460ff191660011790559392505050565b60035460009061010090046001600160a01b03163314612755576114996001602f61335c565b600480546001600160a01b038481166001600160a01b0319831681179093556040805191909216808252602082019390935281517fca4f2f25d0898edd99413412fb94012f9e54ec8142f9b093e7720646a95b16a9929181900390910190a1600061140b565b6000805460ff16612800576040805162461bcd60e51b815260206004820152600a6024820152691c994b595b9d195c995960b21b604482015290519081900360640190fd5b6000805460ff191690556128126123a1565b5061281b61121e565b90506000805460ff1916600117905590565b600080600080600061283e866141de565b9050600061284b87613bf1565b90506000612857612df2565b90506000989297509095509350915050565b600061287682600061423d565b1561140f576040805162461bcd60e51b815260206004820152600d60248201526c189bdc9c9bddc819985a5b1959609a1b604482015290519081900360640190fd5b60156020526000908152604090205481565b60175481565b6011546000906001600160a01b0384811691161461292c576040805162461bcd60e51b8152602060048201526014602482015273756e737570706f727465642063757272656e637960601b604482015290519081900360640190fd5b600554604080516358d5bc7360e11b81523060048201526000602482018190526044820186905260806064830152608482015290516001600160a01b039092169163b1ab78e69160c480820192602092909190829003018186803b15801561299357600080fd5b505afa1580156129a7573d6000803e3d6000fd5b505050506040513d60208110156129bd57600080fd5b5051612a06576040805162461bcd60e51b8152602060048201526013602482015272199b185cda1b1bd85b881a5cc81c185d5cd959606a1b604482015290519081900360640190fd5b611cbd8383613442565b6000612a1d8260006142a0565b1561140f576040805162461bcd60e51b815260206004820152600d60248201526c1c995919595b4819985a5b1959609a1b604482015290519081900360640190fd5b6001600160a01b039182166000908152600f6020908152604080832093909416825291909152205490565b6004546000906001600160a01b031633141580612aa5575033155b15612abd57612ab66001600061335c565b905061122b565b60038054600480546001600160a01b03818116610100818102610100600160a81b0319871617968790556001600160a01b031990931690935560408051948390048216808652929095041660208401528351909391927ff9ffabca9c8276e99321725bcb43fb076a6c66a54b7f21c4e8146d8519b417dc92908290030190a1600454604080516001600160a01b038085168252909216602083015280517fca4f2f25d0898edd99413412fb94012f9e54ec8142f9b093e7720646a95b16a99281900390910190a160009250505090565b600181565b6000612b9c6123a1565b50610f4482613c4a565b6006546001600160a01b031681565b600080612bc58585856000614305565b5090508015612c1b576040805162461bcd60e51b815260206004820152601760248201527f6c697175696461746520626f72726f77206661696c6564000000000000000000604482015290519081900360640190fd5b509392505050565b60035461010090046001600160a01b031681565b6006546000906001600160a01b03166315f24053612c53612cfc565b600b54600c546040518463ffffffff1660e01b815260040180848152602001838152602001828152602001935050505060206040518083038186803b15801561268d57600080fd5b6000805460ff16612ce0576040805162461bcd60e51b815260206004820152600a6024820152691c994b595b9d195c995960b21b604482015290519081900360640190fd5b6000805460ff19169055612cf26123a1565b506112048261443c565b60135490565b6000611cbd8383604051806040016040528060118152602001706164646974696f6e206f766572666c6f7760781b8152506144e4565b6000611cbd8383604051806040016040528060158152602001747375627472616374696f6e20756e646572666c6f7760581b81525061457f565b60008054819060ff16612db9576040805162461bcd60e51b815260206004820152600a6024820152691c994b595b9d195c995960b21b604482015290519081900360640190fd5b6000805460ff19169055612dcb6123a1565b50612dd8333386866145d9565b915091506000805460ff1916600117905590939092509050565b600d5460009080612e0757505060075461122b565b6000612e11612cfc565b90506000612e2c612e2483600b54612d02565b600c54612d38565b90506000612e48826040518060200160405280878152506148cb565b945061122b9350505050565b5090565b6000612e63846138d6565b612e6c836138d6565b6000612e7883866148e9565b600554604080516317b9b84b60e31b81523060048201526001600160a01b038981166024830152888116604483015260648201859052915193945091169163bdcdc258916084808201926020929091908290030181600087803b158015612ede57600080fd5b505af1158015612ef2573d6000803e3d6000fd5b505050506040513d6020811015612f0857600080fd5b505115612f47576040805162461bcd60e51b81526020600482015260086024820152671c995a9958dd195960c21b604482015290519081900360640190fd5b836001600160a01b0316856001600160a01b03161415612f9a576040805162461bcd60e51b8152602060048201526009602482015268189859081a5b9c1d5d60ba1b604482015290519081900360640190fd5b60006001600160a01b038781169087161415612fb95750600019612fe1565b506001600160a01b038086166000908152600f60209081526040808320938a16835292905220545b6001600160a01b0386166000908152600e60205260409020546130049085612d38565b6001600160a01b038088166000908152600e602052604080822093909355908716815220546130339085612d02565b6001600160a01b0386166000908152600e60205260409020558115613137576001600160a01b0386166000908152601560205260409020546130759083612d38565b6001600160a01b0380881660009081526015602052604080822093909355908716815220546130a49083612d02565b6001600160a01b0380871660009081526015602090815260408083209490945591891680825290839020548351918252918101919091528151600080516020615deb833981519152929181900390910190a16001600160a01b038516600081815260156020908152604091829020548251938452908301528051600080516020615deb8339815191529281900390910190a15b60001981146131715761314a8185612d38565b6001600160a01b038088166000908152600f60209081526040808320938c16835292905220555b846001600160a01b0316866001600160a01b0316600080516020615dcb833981519152866040518082815260200191505060405180910390a36005546040805163352b4a3f60e11b81523060048201526001600160a01b03898116602483015288811660448301526064820188905291519190921691636a56947e91608480830192600092919082900301818387803b15801561320d57600080fd5b505af1158015613221573d6000803e3d6000fd5b506000925061322e915050565b979650505050505050565b60008054819060ff16613280576040805162461bcd60e51b815260206004820152600a6024820152691c994b595b9d195c995960b21b604482015290519081900360640190fd5b6000805460ff191690556132926123a1565b5061329f338686866145d9565b915091506000805460ff191660011790559094909350915050565b60006132c4615c42565b6132ce8484613e12565b90506132d98161492e565b949350505050565b6000805460ff16613326576040805162461bcd60e51b815260206004820152600a6024820152691c994b595b9d195c995960b21b604482015290519081900360640190fd5b6000805460ff191690556133386123a1565b506000613345848461493d565b509150506000805460ff1916600117905592915050565b60007f45b96fe442630264581b197e84bbada861235052c5a1aadfff9ea4e40a969aa083601081111561338b57fe5b83603881111561339757fe5b604080519283526020830191909152600082820152519081900360600190a1826010811115611cbd57fe5b601154604080516370a0823160e01b815230600482015290516000926001600160a01b03169182916370a0823191602480820192602092909190829003018186803b15801561341057600080fd5b505afa158015613424573d6000803e3d6000fd5b505050506040513d602081101561343a57600080fd5b505191505090565b6000611cbd6134528360016149db565b612710614a1d565b6011546040805163a9059cbb60e01b81526001600160a01b0386811660048301526024820186905291519190921691829163a9059cbb9160448082019260009290919082900301818387803b1580156134b257600080fd5b505af11580156134c6573d6000803e3d6000fd5b5050505060003d600081146134e257602081146134ec57600080fd5b60001991506134f8565b60206000803e60005191505b508061353d576040805162461bcd60e51b815260206004820152600f60248201526e1d1c985b9cd9995c8819985a5b1959608a1b604482015290519081900360640190fd5b61354960135485612d38565b6013555050505050565b601154604080516370a0823160e01b815230600482015290516000926001600160a01b031691839183916370a08231916024808301926020929190829003018186803b1580156135a257600080fd5b505afa1580156135b6573d6000803e3d6000fd5b505050506040513d60208110156135cc57600080fd5b5051604080516323b872dd60e01b81526001600160a01b038981166004830152306024830152604482018990529151929350908416916323b872dd9160648082019260009290919082900301818387803b15801561362957600080fd5b505af115801561363d573d6000803e3d6000fd5b5050505060003d60008114613659576020811461366357600080fd5b600019915061366f565b60206000803e60005191505b50806136b4576040805162461bcd60e51b815260206004820152600f60248201526e1d1c985b9cd9995c8819985a5b1959608a1b604482015290519081900360640190fd5b601154604080516370a0823160e01b815230600482015290516000926001600160a01b0316916370a08231916024808301926020929190829003018186803b1580156136ff57600080fd5b505afa158015613713573d6000803e3d6000fd5b505050506040513d602081101561372957600080fd5b5051905060006137398285612d38565b905061374760135482612d02565b60135598975050505050505050565b600354600090819061010090046001600160a01b031633146137865761377e6001601e61335c565b91505061140f565b61378e613c46565b600954146137a25761377e600a602061335c565b826137ab612cfc565b10156137bd5761377e600e601f61335c565b600c548311156137d35761377e6002602161335c565b6137df600c5484612d38565b600c8190556003549091506138049061010090046001600160a01b031684600061345a565b600354604080516101009092046001600160a01b0316825260208201859052818101839052517f3bad0c59cf2f06e7314077049f48a93578cd16f5ef92329f1dab1420a99c177e916060908290030190a1600061140b565b6000805460ff166138a1576040805162461bcd60e51b815260206004820152600a6024820152691c994b595b9d195c995960b21b604482015290519081900360640190fd5b6000805460ff191690556138b36123a1565b506138c13360008585614a50565b90506000805460ff1916600117905592915050565b6001600160a01b03811660009081526016602052604090205460ff16612052576005546040805163929fe9a160e01b81526001600160a01b0384811660048301523060248301529151919092169163929fe9a1916044808301926020929190829003018186803b15801561394957600080fd5b505afa15801561395d573d6000803e3d6000fd5b505050506040513d602081101561397357600080fd5b5051156139f2576001600160a01b0381166000908152600e60208181526040808420546015835293208390556014549190526139ae91612d02565b6014556001600160a01b038116600081815260156020908152604091829020548251938452908301528051600080516020615deb8339815191529281900390910190a15b6001600160a01b0381166000908152601660205260409020805460ff1916600117905550565b600080613a2760145484612d02565b905060175460001480613a48575060175415801590613a4857506017548111155b15613ac35760148190556001600160a01b038416600090815260156020526040902054613a759084612d02565b6001600160a01b03851660008181526015602090815260409182902084905581519283528201929092528151600080516020615deb833981519152929181900390910190a182915050610f44565b6014546017541115613b61576000613adf601754601454612d38565b9050613aed60145482612d02565b6014556001600160a01b038516600090815260156020526040902054613b139082612d02565b6001600160a01b03861660008181526015602090815260409182902084905581519283528201929092528151600080516020615deb833981519152929181900390910190a19150610f449050565b5060009392505050565b80613b7557613bed565b613b8160145482612d38565b6014556001600160a01b038216600090815260156020526040902054613ba79082612d38565b6001600160a01b03831660008181526015602090815260409182902084905581519283528201929092528151600080516020615deb833981519152929181900390910190a15b5050565b6001600160a01b03811660009081526010602052604081208054613c1957600091505061140f565b6000613c2b8260000154600a546149db565b90506000613c3d828460010154614a1d565b95945050505050565b4390565b600354600090819061010090046001600160a01b03163314613c725761377e6001602c61335c565b613c7a613c46565b60095414613c8e5761377e600a602b61335c565b600660009054906101000a90046001600160a01b03169050826001600160a01b0316632191f92a6040518163ffffffff1660e01b815260040160206040518083038186803b158015613cdf57600080fd5b505afa158015613cf3573d6000803e3d6000fd5b505050506040513d6020811015613d0957600080fd5b5051613d4a576040805162461bcd60e51b815260206004820152600b60248201526a696e76616c69642049524d60a81b604482015290519081900360640190fd5b600680546001600160a01b0319166001600160a01b03858116918217909255604080519284168352602083019190915280517fedffc32e068c7c95dfd4bdfd5c4d939a084d6b11c4199eac8436ed234d72f9269281900390910190a1600061140b565b60008054819060ff16613df4576040805162461bcd60e51b815260206004820152600a6024820152691c994b595b9d195c995960b21b604482015290519081900360640190fd5b6000805460ff19169055613e066123a1565b50612dd8338585614dfe565b613e1a615c42565b6040518060200160405280613e338560000151856149db565b90529392505050565b6000613e46615c42565b613e508585613e12565b9050613c3d613e5e8261492e565b84612d02565b6000613e6f846138d6565b613e78836138d6565b6000613e8483856148e9565b6005546040805163d02f735160e01b81523060048201526001600160a01b038a811660248301528981166044830152888116606483015260848201859052915193945091169163d02f73519160a4808201926020929091908290030181600087803b158015613ef257600080fd5b505af1158015613f06573d6000803e3d6000fd5b505050506040513d6020811015613f1c57600080fd5b505115613f5b576040805162461bcd60e51b81526020600482015260086024820152671c995a9958dd195960c21b604482015290519081900360640190fd5b846001600160a01b0316846001600160a01b03161415613fb9576040805162461bcd60e51b815260206004820152601460248201527334b73b30b634b21030b1b1b7bab73a103830b4b960611b604482015290519081900360640190fd5b6001600160a01b0384166000908152600e6020526040902054613fdc9084612d38565b6001600160a01b038086166000908152600e6020526040808220939093559087168152205461400b9084612d02565b6001600160a01b0386166000908152600e6020526040902055801561410f576001600160a01b03841660009081526015602052604090205461404d9082612d38565b6001600160a01b03808616600090815260156020526040808220939093559087168152205461407c9082612d02565b6001600160a01b0380871660009081526015602090815260408083209490945591871680825290839020548351918252918101919091528151600080516020615deb833981519152929181900390910190a16001600160a01b038516600081815260156020908152604091829020548251938452908301528051600080516020615deb8339815191529281900390910190a15b846001600160a01b0316846001600160a01b0316600080516020615dcb833981519152856040518082815260200191505060405180910390a360055460408051636d35bf9160e01b81523060048201526001600160a01b038981166024830152888116604483015287811660648301526084820187905291519190921691636d35bf919160a480830192600092919082900301818387803b1580156141b357600080fd5b505af11580156141c7573d6000803e3d6000fd5b50600092506141d4915050565b9695505050505050565b6001600160a01b03811660009081526016602052604081205460ff161561421e57506001600160a01b03811660009081526015602052604090205461140f565b506001600160a01b0381166000908152600e602052604090205461140f565b6000805460ff16614282576040805162461bcd60e51b815260206004820152600a6024820152691c994b595b9d195c995960b21b604482015290519081900360640190fd5b6000805460ff191690556142946123a1565b506138c133848461517f565b6000805460ff166142e5576040805162461bcd60e51b815260206004820152600a6024820152691c994b595b9d195c995960b21b604482015290519081900360640190fd5b6000805460ff191690556142f76123a1565b506138c13384600085614a50565b60008054819060ff1661434c576040805162461bcd60e51b815260206004820152600a6024820152691c994b595b9d195c995960b21b604482015290519081900360640190fd5b6000805460ff1916905561435e6123a1565b506000846001600160a01b031663a6afed956040518163ffffffff1660e01b8152600401602060405180830381600087803b15801561439c57600080fd5b505af11580156143b0573d6000803e3d6000fd5b505050506040513d60208110156143c657600080fd5b505114614413576040805162461bcd60e51b81526020600482015260166024820152751858d8dc9d59481a5b9d195c995cdd0819985a5b195960521b604482015290519081900360640190fd5b614420338787878761542e565b915091506000805460ff19166001179055909590945092505050565b60035460009061010090046001600160a01b03163314614462576114996001603161335c565b61446a613c46565b6009541461447e57611499600a603261335c565b670de0b6b3a764000082111561449a576114996002603361335c565b6008805490839055604080518281526020810185905281517faaa68312e2ea9d50e16af5068410ab56e1a1fd06037b1a35664812c30f821460929181900390910190a1600061140b565b600083830182858210156145765760405162461bcd60e51b81526004018080602001828103825283818151815260200191508051906020019080838360005b8381101561453b578181015183820152602001614523565b50505050905090810190601f1680156145685780820380516001836020036101000a031916815260200191505b509250505060405180910390fd5b50949350505050565b600081848411156145d15760405162461bcd60e51b815260206004820181815283516024840152835190928392604490910191908501908083836000831561453b578181015183820152602001614523565b505050900390565b60055460408051631200453160e11b81523060048201526001600160a01b0387811660248301528681166044830152606482018690529151600093849316916324008a6291608480830192602092919082900301818787803b15801561463e57600080fd5b505af1158015614652573d6000803e3d6000fd5b505050506040513d602081101561466857600080fd5b5051156146a7576040805162461bcd60e51b81526020600482015260086024820152671c995a9958dd195960c21b604482015290519081900360640190fd5b6146af613c46565b600954146146f6576040805162461bcd60e51b815260206004820152600f60248201526e6d61726b6574206973207374616c6560881b604482015290519081900360640190fd5b6146fe615ccf565b6001600160a01b038616600090815260106020526040902060010154606082015261472886613bf1565b6080820152600019851415614746576080810151604082015261474e565b604081018590525b61475d87826040015186613553565b60e08201819052608082015161477291612d38565b60a0820152600b5460e08201516147899190612d38565b60c0820190815260a080830180516001600160a01b03808b16600081815260106020908152604091829020948555600a546001909501949094559551600b81905560e088015194518751938f16845293830191909152818601939093526060810191909152608081019190915291517f1a2a22cb034d26d1854bdc6666a5b91fe25efbbb5dcad3b0355478d6f5c362a19281900390910190a160055460e0820151606083015160408051631ededc9160e01b81523060048201526001600160a01b038c811660248301528b8116604483015260648201949094526084810192909252519190921691631ededc919160a480830192600092919082900301818387803b15801561489757600080fd5b505af11580156148ab573d6000803e3d6000fd5b50600092506148b8915050565b8160e00151925092505094509492505050565b6000611cbd6148e284670de0b6b3a76400006149db565b8351614a1d565b6001600160a01b0381166000908152600e60209081526040808320546015909252822054829161491891612d38565b90506000818511156132d9575090920392915050565b51670de0b6b3a7640000900490565b60008060008061494b613c46565b6009541461496a5761495f600a603761335c565b935091506149d49050565b614975338787613553565b9050614983600c5482612d02565b600c819055604080513381526020810184905280820183905290519193507fa91e67c5ea634cd43a12c5a482724b03de01e85ca68702a53d0c2f45cb7c1dc5919081900360600190a1600093509150505b9250929050565b6000611cbd83836040518060400160405280601781526020017f6d756c7469706c69636174696f6e206f766572666c6f77000000000000000000815250615b1e565b6000611cbd83836040518060400160405280600e81526020016d646976696465206279207a65726f60901b815250615b94565b6000614a5b856138d6565b831580614a66575082155b614aa3576040805162461bcd60e51b8152602060048201526009602482015268189859081a5b9c1d5d60ba1b604482015290519081900360640190fd5b614aab615d15565b614ab3612df2565b81528415614ae457602080820186905260408051918201905281518152614ada90866132ba565b6040820152614b0d565b614b008460405180602001604052808460000151815250615bf6565b6020820152604081018490525b614b1b8160200151876148e9565b606082018190526005546040805163eabe7d9160e01b81523060048201526001600160a01b038a8116602483015260448201949094529051929091169163eabe7d91916064808201926020929091908290030181600087803b158015614b8057600080fd5b505af1158015614b94573d6000803e3d6000fd5b505050506040513d6020811015614baa57600080fd5b505115614be9576040805162461bcd60e51b81526020600482015260086024820152671c995a9958dd195960c21b604482015290519081900360640190fd5b614bf1613c46565b60095414614c38576040805162461bcd60e51b815260206004820152600f60248201526e6d61726b6574206973207374616c6560881b604482015290519081900360640190fd5b8060400151614c45612cfc565b1015614c8c576040805162461bcd60e51b81526020600482015260116024820152700d2dce6eaccccd2c6d2cadce840c6c2e6d607b1b604482015290519081900360640190fd5b614c9c600d548260200151612d38565b600d556001600160a01b0386166000908152600e602090815260409091205490820151614cc99190612d38565b6001600160a01b0387166000908152600e60205260409020556060810151614cf2908790613b6b565b614d018682604001518561345a565b306001600160a01b0316866001600160a01b0316600080516020615dcb83398151915283602001516040518082815260200191505060405180910390a360408082015160208084015183516001600160a01b038b168152918201929092528083019190915290517fe5b754fb1abb7f01b499791d0b820ae3b6af3424ac1c59768edb53f4ec31a9299181900360600190a1600554604080830151602084015182516351dff98960e01b81523060048201526001600160a01b038b811660248301526044820193909352606481019190915291519216916351dff9899160848082019260009290919082900301818387803b1580156141b357600080fd5b600080614e0a856138d6565b60055460408051634ef4c3e160e01b81523060048201526001600160a01b0388811660248301526044820188905291519190921691634ef4c3e19160648083019260209291908290030181600087803b158015614e6657600080fd5b505af1158015614e7a573d6000803e3d6000fd5b505050506040513d6020811015614e9057600080fd5b505115614ecf576040805162461bcd60e51b81526020600482015260086024820152671c995a9958dd195960c21b604482015290519081900360640190fd5b83614edf57506000905080615177565b614ee7613c46565b60095414614f2e576040805162461bcd60e51b815260206004820152600f60248201526e6d61726b6574206973207374616c6560881b604482015290519081900360640190fd5b614f36615d3d565b614f3e612df2565b8152614f4b868686613553565b604080830182905280516020810190915282518152614f6a9190615bf6565b60208201819052600d54614f7d91612d02565b600d556001600160a01b0386166000908152600e602090815260409091205490820151614faa9190612d02565b6001600160a01b038088166000818152600e602090815260409182902094909455600554815163929fe9a160e01b81526004810193909352306024840152905192169263929fe9a192604480840193829003018186803b15801561500d57600080fd5b505afa158015615021573d6000803e3d6000fd5b505050506040513d602081101561503757600080fd5b50511561504e5761504c868260200151613a18565b505b60408082015160208084015183516001600160a01b038b168152918201929092528083019190915290517f4c209b5fc8ad50758f13e2e1088ba56a560dff690a1c6fef26394f4c03821c4f9181900360600190a1856001600160a01b0316306001600160a01b0316600080516020615dcb83398151915283602001516040518082815260200191505060405180910390a3600554604080830151602084015182516341c728b960e01b81523060048201526001600160a01b038b811660248301526044820193909352606481019190915291519216916341c728b99160848082019260009290919082900301818387803b15801561514b57600080fd5b505af115801561515f573d6000803e3d6000fd5b506000925061516c915050565b816040015192509250505b935093915050565b6005546040805163368f515360e21b81523060048201526001600160a01b038681166024830152604482018690529151600093929092169163da3d454c9160648082019260209290919082900301818787803b1580156151de57600080fd5b505af11580156151f2573d6000803e3d6000fd5b505050506040513d602081101561520857600080fd5b505115615247576040805162461bcd60e51b81526020600482015260086024820152671c995a9958dd195960c21b604482015290519081900360640190fd5b61524f613c46565b60095414615296576040805162461bcd60e51b815260206004820152600f60248201526e6d61726b6574206973207374616c6560881b604482015290519081900360640190fd5b8261529f612cfc565b10156152e6576040805162461bcd60e51b81526020600482015260116024820152700d2dce6eaccccd2c6d2cadce840c6c2e6d607b1b604482015290519081900360640190fd5b6152ee615d5e565b6152f785613bf1565b602082018190526153089085612d02565b6040820152600b5461531a9085612d02565b606082019081526040808301516001600160a01b0388166000908152601060205291909120908155600a5460019091015551600b5561535a85858561345a565b60408082015160608084015183516001600160a01b038a16815260208101899052808501939093529082015290517f13ed6866d4e1ee6da46f845c46d7e54120883d75c5ea9a2dacc1c4ca8984ab809181900360800190a160055460408051635c77860560e01b81523060048201526001600160a01b0388811660248301526044820188905291519190921691635c77860591606480830192600092919082900301818387803b15801561540d57600080fd5b505af1158015615421573d6000803e3d6000fd5b5060009250613c3d915050565b60055460408051632fe3f38f60e11b81523060048201526001600160a01b0385811660248301528881166044830152878116606483015260848201879052915160009384931691635fc7e71e9160a480830192602092919082900301818787803b15801561549b57600080fd5b505af11580156154af573d6000803e3d6000fd5b505050506040513d60208110156154c557600080fd5b505115615504576040805162461bcd60e51b81526020600482015260086024820152671c995a9958dd195960c21b604482015290519081900360640190fd5b61550c613c46565b60095414615553576040805162461bcd60e51b815260206004820152600f60248201526e6d61726b6574206973207374616c6560881b604482015290519081900360640190fd5b61555b613c46565b846001600160a01b0316636c540baf6040518163ffffffff1660e01b815260040160206040518083038186803b15801561559457600080fd5b505afa1580156155a8573d6000803e3d6000fd5b505050506040513d60208110156155be57600080fd5b505114615604576040805162461bcd60e51b815260206004820152600f60248201526e6d61726b6574206973207374616c6560881b604482015290519081900360640190fd5b866001600160a01b0316866001600160a01b03161415615662576040805162461bcd60e51b815260206004820152601460248201527334b73b30b634b21030b1b1b7bab73a103830b4b960611b604482015290519081900360640190fd5b60008511801561567457506000198514155b6156b6576040805162461bcd60e51b815260206004820152600e60248201526d1a5b9d985b1a5908185b5bdd5b9d60921b604482015290519081900360640190fd5b6156be615d15565b6156ca888888876145d9565b60208301528082521561571a576040805162461bcd60e51b81526020600482015260136024820152721c995c185e48189bdc9c9bddc819985a5b1959606a1b604482015290519081900360640190fd5b60055460208201516040805163c488847b60e01b81523060048201526001600160a01b03898116602483015260448201939093528151929093169263c488847b9260648083019392829003018186803b15801561577657600080fd5b505afa15801561578a573d6000803e3d6000fd5b505050506040513d60408110156157a057600080fd5b50805160209091015160608301526040820181905215615807576040805162461bcd60e51b815260206004820152601d60248201527f63616c63756c617465207365697a6520616d6f756e74206661696c6564000000604482015290519081900360640190fd5b8060600151856001600160a01b03166370a08231896040518263ffffffff1660e01b815260040180826001600160a01b03166001600160a01b0316815260200191505060206040518083038186803b15801561586257600080fd5b505afa158015615876573d6000803e3d6000fd5b505050506040513d602081101561588c57600080fd5b505110156158d2576040805162461bcd60e51b815260206004820152600e60248201526d0e6cad2f4ca40e8dede40daeac6d60931b604482015290519081900360640190fd5b60006001600160a01b0386163014156158fc576158f5308a8a8560600151613e64565b905061598c565b60608201516040805163b2a02ff160e01b81526001600160a01b038c811660048301528b81166024830152604482019390935290519188169163b2a02ff1916064808201926020929091908290030181600087803b15801561595d57600080fd5b505af1158015615971573d6000803e3d6000fd5b505050506040513d602081101561598757600080fd5b505190505b80156159d6576040805162461bcd60e51b81526020600482015260146024820152731d1bdad95b881cd95a5e9d5c994819985a5b195960621b604482015290519081900360640190fd5b7f298637f684da70674f26509b10f07ec2fbc77a335ab1e7d6215a4b2484d8bb528989846020015189866060015160405180866001600160a01b03166001600160a01b03168152602001856001600160a01b03166001600160a01b03168152602001848152602001836001600160a01b03166001600160a01b031681526020018281526020019550505050505060405180910390a160055460208301516060840151604080516347ef3b3b60e01b81523060048201526001600160a01b038b811660248301528e811660448301528d81166064830152608482019490945260a48101929092525191909216916347ef3b3b9160c480830192600092919082900301818387803b158015615ae857600080fd5b505af1158015615afc573d6000803e3d6000fd5b5060009250615b09915050565b82602001519350935050509550959350505050565b6000831580615b2b575082155b15615b3857506000611cbd565b83830283858281615b4557fe5b041483906145765760405162461bcd60e51b815260206004820181815283516024840152835190928392604490910191908501908083836000831561453b578181015183820152602001614523565b60008183615be35760405162461bcd60e51b815260206004820181815283516024840152835190928392604490910191908501908083836000831561453b578181015183820152602001614523565b50828481615bed57fe5b04949350505050565b6000615c00615c42565b6132ce8484615c0d615c42565b6000615c21670de0b6b3a7640000856149db565b90506040518060200160405280615c3883866148cb565b9052949350505050565b6040518060200160405280600081525090565b828054600181600116156101000203166002900490600052602060002090601f016020900481019282601f10615c9657805160ff1916838001178555615cc3565b82800160010185558215615cc3579182015b82811115615cc3578251825591602001919060010190615ca8565b50612e54929150615d87565b6040805161010081019091528060008152602001600081526020016000815260200160008152602001600081526020016000815260200160008152602001600081525090565b6040518060800160405280600081526020016000815260200160008152602001600081525090565b60405180606001604052806000815260200160008152602001600081525090565b604080516080810190915280600081526020016000815260200160008152602001600081525090565b61122b91905b80821115612e545760008155600101615d8d56fe45524333313536466c617368426f72726f776572496e746572666163652e6f6e466c6173684c6f616eddf252ad1be2c89b69c2b068fc378daa952ba7f163c4a11628f55a4df523b3ef1d22042d9eb89f2620572acbf8d85b66fba5a2ca19d166d8659574440175c964a265627a7a723158207e96373b0a82dae1ba7c3ba831cd423e3bef8f567ff059a995f9bcc5f056399964736f6c63430005100032",
  "linkReferences": {},
  "deployedLinkReferences": {}
}