{
  "_format": "hh-sol-artifact-1",
  "contractName": "JumpRateModelV2",
  "sourceName": "contracts/money-market/JumpRateModelV2.sol",
  "abi": [
    {
      "inputs": [
        {
          "internalType": "uint256",
          "name": "baseRatePerYear",
          "type": "uint256"
        },
        {
          "internalType": "uint256",
          "name": "multiplierPerYear",
          "type": "uint256"
        },
        {
          "internalType": "uint256",
          "name": "jumpMultiplierPerYear",
          "type": "uint256"
        },
        {
          "internalType": "uint256",
          "name": "kink_",
          "type": "uint256"
        },
        {
          "internalType": "uint256",
          "name": "roof_",
          "type": "uint256"
        }
      ],
      "payable": false,
      "stateMutability": "nonpayable",
      "type": "constructor"
    },
    {
      "anonymous": false,
      "inputs": [
        {
          "indexed": false,
          "internalType": "uint256",
          "name": "baseRatePerBlock",
          "type": "uint256"
        },
        {
          "indexed": false,
          "internalType": "uint256",
          "name": "multiplierPerBlock",
          "type": "uint256"
        },
        {
          "indexed": false,
          "internalType": "uint256",
          "name": "jumpMultiplierPerBlock",
          "type": "uint256"
        },
        {
          "indexed": false,
          "internalType": "uint256",
          "name": "kink",
          "type": "uint256"
        },
        {
          "indexed": false,
          "internalType": "uint256",
          "name": "roof",
          "type": "uint256"
        }
      ],
      "name": "NewInterestParams",
      "type": "event"
    },
    {
      "constant": true,
      "inputs": [],
      "name": "baseRatePerBlock",
      "outputs": [
        {
          "internalType": "uint256",
          "name": "",
          "type": "uint256"
        }
      ],
      "payable": false,
      "stateMutability": "view",
      "type": "function"
    },
    {
      "constant": true,
      "inputs": [],
      "name": "blocksPerYear",
      "outputs": [
        {
          "internalType": "uint256",
          "name": "",
          "type": "uint256"
        }
      ],
      "payable": false,
      "stateMutability": "view",
      "type": "function"
    },
    {
      "constant": true,
      "inputs": [
        {
          "internalType": "uint256",
          "name": "cash",
          "type": "uint256"
        },
        {
          "internalType": "uint256",
          "name": "borrows",
          "type": "uint256"
        },
        {
          "internalType": "uint256",
          "name": "reserves",
          "type": "uint256"
        }
      ],
      "name": "getBorrowRate",
      "outputs": [
        {
          "internalType": "uint256",
          "name": "",
          "type": "uint256"
        }
      ],
      "payable": false,
      "stateMutability": "view",
      "type": "function"
    },
    {
      "constant": true,
      "inputs": [
        {
          "internalType": "uint256",
          "name": "cash",
          "type": "uint256"
        },
        {
          "internalType": "uint256",
          "name": "borrows",
          "type": "uint256"
        },
        {
          "internalType": "uint256",
          "name": "reserves",
          "type": "uint256"
        },
        {
          "internalType": "uint256",
          "name": "reserveFactorMantissa",
          "type": "uint256"
        }
      ],
      "name": "getSupplyRate",
      "outputs": [
        {
          "internalType": "uint256",
          "name": "",
          "type": "uint256"
        }
      ],
      "payable": false,
      "stateMutability": "view",
      "type": "function"
    },
    {
      "constant": true,
      "inputs": [],
      "name": "isInterestRateModel",
      "outputs": [
        {
          "internalType": "bool",
          "name": "",
          "type": "bool"
        }
      ],
      "payable": false,
      "stateMutability": "view",
      "type": "function"
    },
    {
      "constant": true,
      "inputs": [],
      "name": "jumpMultiplierPerBlock",
      "outputs": [
        {
          "internalType": "uint256",
          "name": "",
          "type": "uint256"
        }
      ],
      "payable": false,
      "stateMutability": "view",
      "type": "function"
    },
    {
      "constant": true,
      "inputs": [],
      "name": "kink",
      "outputs": [
        {
          "internalType": "uint256",
          "name": "",
          "type": "uint256"
        }
      ],
      "payable": false,
      "stateMutability": "view",
      "type": "function"
    },
    {
      "constant": true,
      "inputs": [],
      "name": "multiplierPerBlock",
      "outputs": [
        {
          "internalType": "uint256",
          "name": "",
          "type": "uint256"
        }
      ],
      "payable": false,
      "stateMutability": "view",
      "type": "function"
    },
    {
      "constant": true,
      "inputs": [],
      "name": "roof",
      "outputs": [
        {
          "internalType": "uint256",
          "name": "",
          "type": "uint256"
        }
      ],
      "payable": false,
      "stateMutability": "view",
      "type": "function"
    },
    {
      "constant": true,
      "inputs": [
        {
          "internalType": "uint256",
          "name": "cash",
          "type": "uint256"
        },
        {
          "internalType": "uint256",
          "name": "borrows",
          "type": "uint256"
        },
        {
          "internalType": "uint256",
          "name": "reserves",
          "type": "uint256"
        }
      ],
      "name": "utilizationRate",
      "outputs": [
        {
          "internalType": "uint256",
          "name": "",
          "type": "uint256"
        }
      ],
      "payable": false,
      "stateMutability": "view",
      "type": "function"
    }
  ],
  "bytecode": "0x608060405234801561001057600080fd5b5060405161092a38038061092a833981810160405260a081101561003357600080fd5b5080516020820151604083015160608401516080909401519293919290919061006885858585856001600160e01b0361007216565b5050505050610300565b670de0b6b3a76400008110156100c4576040805162461bcd60e51b8152602060048201526012602482015271696e76616c696420726f6f662076616c756560701b604482015290519081900360640190fd5b6100de622819a0866101b460201b6103ca1790919060201c565b60015561012d6100fc622819a084610205602090811b61036817901c565b61011b670de0b6b3a76400008761020560201b6103681790919060201c565b6101b460201b6103ca1790919060201c565b60005561014883622819a06101b4602090811b6103ca17901c565b60028190556003839055600482905560015460005460408051928352602083019190915281810192909252606081018490526080810183905290517fd4a5368e470b1a5bcef19c35c285f3c1507a740d3a0044927d719c8a81bb1cdd9181900360a00190a15050505050565b60006101fc83836040518060400160405280601a81526020017f536166654d6174683a206469766973696f6e206279207a65726f00000000000081525061025e60201b60201c565b90505b92915050565b600082610214575060006101ff565b8282028284828161022157fe5b04146101fc5760405162461bcd60e51b81526004018080602001828103825260218152602001806109096021913960400191505060405180910390fd5b600081836102ea5760405162461bcd60e51b81526004018080602001828103825283818151815260200191508051906020019080838360005b838110156102af578181015183820152602001610297565b50505050905090810190601f1680156102dc5780820380516001836020036101000a031916815260200191505b509250505060405180910390fd5b5060008385816102f657fe5b0495945050505050565b6105fa8061030f6000396000f3fe608060405234801561001057600080fd5b506004361061009e5760003560e01c8063a385fb9611610066578063a385fb9614610133578063b81688161461013b578063b9f9850a1461016a578063f14039de14610172578063fd2da3391461017a5761009e565b806315f24053146100a35780632191f92a146100de578063573be0fb146100fa5780636e71e2d8146101025780638726bb891461012b575b600080fd5b6100cc600480360360608110156100b957600080fd5b5080359060208101359060400135610182565b60408051918252519081900360200190f35b6100e661025a565b604080519115158252519081900360200190f35b6100cc61025f565b6100cc6004803603606081101561011857600080fd5b5080359060208101359060400135610265565b6100cc6102ca565b6100cc6102d0565b6100cc6004803603608081101561015157600080fd5b50803590602081013590604081013590606001356102d7565b6100cc610356565b6100cc61035c565b6100cc610362565b600080610190858585610265565b905060035481116101e2576101da6001546101ce670de0b6b3a76400006101c26000548661036890919063ffffffff16565b9063ffffffff6103ca16565b9063ffffffff61040c16565b915050610253565b600061020d6001546101ce670de0b6b3a76400006101c260005460035461036890919063ffffffff16565b905060006102266003548461046690919063ffffffff16565b905061024d826101ce670de0b6b3a76400006101c26002548661036890919063ffffffff16565b93505050505b9392505050565b600181565b60045481565b60008261027457506000610253565b60006102b16102998461028d888863ffffffff61040c16565b9063ffffffff61046616565b6101c286670de0b6b3a764000063ffffffff61036816565b90506004548111156102c257506004545b949350505050565b60005481565b622819a081565b6000806102f2670de0b6b3a76400008463ffffffff61046616565b90506000610301878787610182565b90506000610321670de0b6b3a76400006101c2848663ffffffff61036816565b905061034a670de0b6b3a76400006101c28361033e8c8c8c610265565b9063ffffffff61036816565b98975050505050505050565b60025481565b60015481565b60035481565b600082610377575060006103c4565b8282028284828161038457fe5b04146103c15760405162461bcd60e51b81526004018080602001828103825260218152602001806105a56021913960400191505060405180910390fd5b90505b92915050565b60006103c183836040518060400160405280601a81526020017f536166654d6174683a206469766973696f6e206279207a65726f0000000000008152506104a8565b6000828201838110156103c1576040805162461bcd60e51b815260206004820152601b60248201527f536166654d6174683a206164646974696f6e206f766572666c6f770000000000604482015290519081900360640190fd5b60006103c183836040518060400160405280601f81526020017f536166654d6174683a207375627472616374696f6e20756e646572666c6f770081525061054a565b600081836105345760405162461bcd60e51b81526004018080602001828103825283818151815260200191508051906020019080838360005b838110156104f95781810151838201526020016104e1565b50505050905090810190601f1680156105265780820380516001836020036101000a031916815260200191505b509250505060405180910390fd5b50600083858161054057fe5b0495945050505050565b6000818484111561059c5760405162461bcd60e51b81526020600482018181528351602484015283519092839260449091019190850190808383600083156104f95781810151838201526020016104e1565b50505090039056fe536166654d6174683a206d756c7469706c69636174696f6e206f766572666c6f77a265627a7a72315820bfc232fa0e58c1d06b05d8469c5ce7abee794e70905f50f2097e3fa9ef4aa79b64736f6c63430005100032536166654d6174683a206d756c7469706c69636174696f6e206f766572666c6f77",
  "linkReferences": {},
  "deployedLinkReferences": {}
}