{
  "_format": "hh-sol-artifact-1",
  "contractName": "Comptroller",
  "sourceName": "contracts/money-market/Comptroller.sol",
  "abi": [
    {
      "inputs": [],
      "payable": false,
      "stateMutability": "nonpayable",
      "type": "constructor"
    },
    {
      "anonymous": false,
      "inputs": [
        {
          "indexed": false,
          "internalType": "string",
          "name": "action",
          "type": "string"
        },
        {
          "indexed": false,
          "internalType": "bool",
          "name": "pauseState",
          "type": "bool"
        }
      ],
      "name": "ActionPaused",
      "type": "event"
    },
    {
      "anonymous": false,
      "inputs": [
        {
          "indexed": false,
          "internalType": "contract BToken",
          "name": "bToken",
          "type": "address"
        },
        {
          "indexed": false,
          "internalType": "string",
          "name": "action",
          "type": "string"
        },
        {
          "indexed": false,
          "internalType": "bool",
          "name": "pauseState",
          "type": "bool"
        }
      ],
      "name": "ActionPaused",
      "type": "event"
    },
    {
      "anonymous": false,
      "inputs": [
        {
          "indexed": false,
          "internalType": "address",
          "name": "protocol",
          "type": "address"
        },
        {
          "indexed": false,
          "internalType": "address",
          "name": "market",
          "type": "address"
        },
        {
          "indexed": false,
          "internalType": "uint256",
          "name": "creditLimit",
          "type": "uint256"
        }
      ],
      "name": "CreditLimitChanged",
      "type": "event"
    },
    {
      "anonymous": false,
      "inputs": [
        {
          "indexed": false,
          "internalType": "uint256",
          "name": "error",
          "type": "uint256"
        },
        {
          "indexed": false,
          "internalType": "uint256",
          "name": "info",
          "type": "uint256"
        },
        {
          "indexed": false,
          "internalType": "uint256",
          "name": "detail",
          "type": "uint256"
        }
      ],
      "name": "Failure",
      "type": "event"
    },
    {
      "anonymous": false,
      "inputs": [
        {
          "indexed": false,
          "internalType": "contract BToken",
          "name": "bToken",
          "type": "address"
        },
        {
          "indexed": false,
          "internalType": "bool",
          "name": "force",
          "type": "bool"
        }
      ],
      "name": "MarketDelisted",
      "type": "event"
    },
    {
      "anonymous": false,
      "inputs": [
        {
          "indexed": false,
          "internalType": "contract BToken",
          "name": "bToken",
          "type": "address"
        },
        {
          "indexed": false,
          "internalType": "address",
          "name": "account",
          "type": "address"
        }
      ],
      "name": "MarketEntered",
      "type": "event"
    },
    {
      "anonymous": false,
      "inputs": [
        {
          "indexed": false,
          "internalType": "contract BToken",
          "name": "bToken",
          "type": "address"
        },
        {
          "indexed": false,
          "internalType": "address",
          "name": "account",
          "type": "address"
        }
      ],
      "name": "MarketExited",
      "type": "event"
    },
    {
      "anonymous": false,
      "inputs": [
        {
          "indexed": false,
          "internalType": "contract BToken",
          "name": "bToken",
          "type": "address"
        }
      ],
      "name": "MarketListed",
      "type": "event"
    },
    {
      "anonymous": false,
      "inputs": [
        {
          "indexed": false,
          "internalType": "contract BToken",
          "name": "bToken",
          "type": "address"
        },
        {
          "indexed": false,
          "internalType": "enum ComptrollerV1Storage.Version",
          "name": "oldVersion",
          "type": "uint8"
        },
        {
          "indexed": false,
          "internalType": "enum ComptrollerV1Storage.Version",
          "name": "newVersion",
          "type": "uint8"
        }
      ],
      "name": "NewBTokenVersion",
      "type": "event"
    },
    {
      "anonymous": false,
      "inputs": [
        {
          "indexed": true,
          "internalType": "contract BToken",
          "name": "bToken",
          "type": "address"
        },
        {
          "indexed": false,
          "internalType": "uint256",
          "name": "newBorrowCap",
          "type": "uint256"
        }
      ],
      "name": "NewBorrowCap",
      "type": "event"
    },
    {
      "anonymous": false,
      "inputs": [
        {
          "indexed": false,
          "internalType": "uint256",
          "name": "oldCloseFactorMantissa",
          "type": "uint256"
        },
        {
          "indexed": false,
          "internalType": "uint256",
          "name": "newCloseFactorMantissa",
          "type": "uint256"
        }
      ],
      "name": "NewCloseFactor",
      "type": "event"
    },
    {
      "anonymous": false,
      "inputs": [
        {
          "indexed": false,
          "internalType": "contract BToken",
          "name": "bToken",
          "type": "address"
        },
        {
          "indexed": false,
          "internalType": "uint256",
          "name": "oldCollateralFactorMantissa",
          "type": "uint256"
        },
        {
          "indexed": false,
          "internalType": "uint256",
          "name": "newCollateralFactorMantissa",
          "type": "uint256"
        }
      ],
      "name": "NewCollateralFactor",
      "type": "event"
    },
    {
      "anonymous": false,
      "inputs": [
        {
          "indexed": false,
          "internalType": "address",
          "name": "oldCreditLimitManager",
          "type": "address"
        },
        {
          "indexed": false,
          "internalType": "address",
          "name": "newCreditLimitManager",
          "type": "address"
        }
      ],
      "name": "NewCreditLimitManager",
      "type": "event"
    },
    {
      "anonymous": false,
      "inputs": [
        {
          "indexed": false,
          "internalType": "address",
          "name": "oldGuardian",
          "type": "address"
        },
        {
          "indexed": false,
          "internalType": "address",
          "name": "newGuardian",
          "type": "address"
        }
      ],
      "name": "NewGuardian",
      "type": "event"
    },
    {
      "anonymous": false,
      "inputs": [
        {
          "indexed": false,
          "internalType": "uint256",
          "name": "oldLiquidationIncentiveMantissa",
          "type": "uint256"
        },
        {
          "indexed": false,
          "internalType": "uint256",
          "name": "newLiquidationIncentiveMantissa",
          "type": "uint256"
        }
      ],
      "name": "NewLiquidationIncentive",
      "type": "event"
    },
    {
      "anonymous": false,
      "inputs": [
        {
          "indexed": false,
          "internalType": "address",
          "name": "oldLiquidityMining",
          "type": "address"
        },
        {
          "indexed": false,
          "internalType": "address",
          "name": "newLiquidityMining",
          "type": "address"
        }
      ],
      "name": "NewLiquidityMining",
      "type": "event"
    },
    {
      "anonymous": false,
      "inputs": [
        {
          "indexed": false,
          "internalType": "contract PriceOracle",
          "name": "oldPriceOracle",
          "type": "address"
        },
        {
          "indexed": false,
          "internalType": "contract PriceOracle",
          "name": "newPriceOracle",
          "type": "address"
        }
      ],
      "name": "NewPriceOracle",
      "type": "event"
    },
    {
      "anonymous": false,
      "inputs": [
        {
          "indexed": true,
          "internalType": "contract BToken",
          "name": "bToken",
          "type": "address"
        },
        {
          "indexed": false,
          "internalType": "uint256",
          "name": "newSupplyCap",
          "type": "uint256"
        }
      ],
      "name": "NewSupplyCap",
      "type": "event"
    },
    {
      "constant": false,
      "inputs": [
        {
          "internalType": "contract Unitroller",
          "name": "unitroller",
          "type": "address"
        }
      ],
      "name": "_become",
      "outputs": [],
      "payable": false,
      "stateMutability": "nonpayable",
      "type": "function"
    },
    {
      "constant": true,
      "inputs": [],
      "name": "_borrowGuardianPaused",
      "outputs": [
        {
          "internalType": "bool",
          "name": "",
          "type": "bool"
        }
      ],
      "payable": false,
      "stateMutability": "view",
      "type": "function"
    },
    {
      "constant": false,
      "inputs": [
        {
          "internalType": "contract BToken",
          "name": "bToken",
          "type": "address"
        },
        {
          "internalType": "bool",
          "name": "force",
          "type": "bool"
        }
      ],
      "name": "_delistMarket",
      "outputs": [],
      "payable": false,
      "stateMutability": "nonpayable",
      "type": "function"
    },
    {
      "constant": true,
      "inputs": [],
      "name": "_mintGuardianPaused",
      "outputs": [
        {
          "internalType": "bool",
          "name": "",
          "type": "bool"
        }
      ],
      "payable": false,
      "stateMutability": "view",
      "type": "function"
    },
    {
      "constant": false,
      "inputs": [
        {
          "internalType": "address",
          "name": "protocol",
          "type": "address"
        },
        {
          "internalType": "address",
          "name": "market",
          "type": "address"
        }
      ],
      "name": "_pauseCreditLimit",
      "outputs": [],
      "payable": false,
      "stateMutability": "nonpayable",
      "type": "function"
    },
    {
      "constant": false,
      "inputs": [
        {
          "internalType": "contract BToken",
          "name": "bToken",
          "type": "address"
        },
        {
          "internalType": "bool",
          "name": "state",
          "type": "bool"
        }
      ],
      "name": "_setBorrowPaused",
      "outputs": [
        {
          "internalType": "bool",
          "name": "",
          "type": "bool"
        }
      ],
      "payable": false,
      "stateMutability": "nonpayable",
      "type": "function"
    },
    {
      "constant": false,
      "inputs": [
        {
          "internalType": "uint256",
          "name": "newCloseFactorMantissa",
          "type": "uint256"
        }
      ],
      "name": "_setCloseFactor",
      "outputs": [
        {
          "internalType": "uint256",
          "name": "",
          "type": "uint256"
        }
      ],
      "payable": false,
      "stateMutability": "nonpayable",
      "type": "function"
    },
    {
      "constant": false,
      "inputs": [
        {
          "internalType": "contract BToken",
          "name": "bToken",
          "type": "address"
        },
        {
          "internalType": "uint256",
          "name": "newCollateralFactorMantissa",
          "type": "uint256"
        }
      ],
      "name": "_setCollateralFactor",
      "outputs": [
        {
          "internalType": "uint256",
          "name": "",
          "type": "uint256"
        }
      ],
      "payable": false,
      "stateMutability": "nonpayable",
      "type": "function"
    },
    {
      "constant": false,
      "inputs": [
        {
          "internalType": "address",
          "name": "protocol",
          "type": "address"
        },
        {
          "internalType": "address",
          "name": "market",
          "type": "address"
        },
        {
          "internalType": "uint256",
          "name": "creditLimit",
          "type": "uint256"
        }
      ],
      "name": "_setCreditLimit",
      "outputs": [],
      "payable": false,
      "stateMutability": "nonpayable",
      "type": "function"
    },
    {
      "constant": false,
      "inputs": [
        {
          "internalType": "address",
          "name": "newCreditLimitManager",
          "type": "address"
        }
      ],
      "name": "_setCreditLimitManager",
      "outputs": [],
      "payable": false,
      "stateMutability": "nonpayable",
      "type": "function"
    },
    {
      "constant": false,
      "inputs": [
        {
          "internalType": "contract BToken",
          "name": "bToken",
          "type": "address"
        },
        {
          "internalType": "bool",
          "name": "state",
          "type": "bool"
        }
      ],
      "name": "_setFlashloanPaused",
      "outputs": [
        {
          "internalType": "bool",
          "name": "",
          "type": "bool"
        }
      ],
      "payable": false,
      "stateMutability": "nonpayable",
      "type": "function"
    },
    {
      "constant": false,
      "inputs": [
        {
          "internalType": "address",
          "name": "newGuardian",
          "type": "address"
        }
      ],
      "name": "_setGuardian",
      "outputs": [
        {
          "internalType": "uint256",
          "name": "",
          "type": "uint256"
        }
      ],
      "payable": false,
      "stateMutability": "nonpayable",
      "type": "function"
    },
    {
      "constant": false,
      "inputs": [
        {
          "internalType": "uint256",
          "name": "newLiquidationIncentiveMantissa",
          "type": "uint256"
        }
      ],
      "name": "_setLiquidationIncentive",
      "outputs": [
        {
          "internalType": "uint256",
          "name": "",
          "type": "uint256"
        }
      ],
      "payable": false,
      "stateMutability": "nonpayable",
      "type": "function"
    },
    {
      "constant": false,
      "inputs": [
        {
          "internalType": "address",
          "name": "newLiquidityMining",
          "type": "address"
        }
      ],
      "name": "_setLiquidityMining",
      "outputs": [],
      "payable": false,
      "stateMutability": "nonpayable",
      "type": "function"
    },
    {
      "constant": false,
      "inputs": [
        {
          "internalType": "contract BToken[]",
          "name": "bTokens",
          "type": "address[]"
        },
        {
          "internalType": "uint256[]",
          "name": "newBorrowCaps",
          "type": "uint256[]"
        }
      ],
      "name": "_setMarketBorrowCaps",
      "outputs": [],
      "payable": false,
      "stateMutability": "nonpayable",
      "type": "function"
    },
    {
      "constant": false,
      "inputs": [
        {
          "internalType": "contract BToken[]",
          "name": "bTokens",
          "type": "address[]"
        },
        {
          "internalType": "uint256[]",
          "name": "newSupplyCaps",
          "type": "uint256[]"
        }
      ],
      "name": "_setMarketSupplyCaps",
      "outputs": [],
      "payable": false,
      "stateMutability": "nonpayable",
      "type": "function"
    },
    {
      "constant": false,
      "inputs": [
        {
          "internalType": "contract BToken",
          "name": "bToken",
          "type": "address"
        },
        {
          "internalType": "bool",
          "name": "state",
          "type": "bool"
        }
      ],
      "name": "_setMintPaused",
      "outputs": [
        {
          "internalType": "bool",
          "name": "",
          "type": "bool"
        }
      ],
      "payable": false,
      "stateMutability": "nonpayable",
      "type": "function"
    },
    {
      "constant": false,
      "inputs": [
        {
          "internalType": "contract PriceOracle",
          "name": "newOracle",
          "type": "address"
        }
      ],
      "name": "_setPriceOracle",
      "outputs": [
        {
          "internalType": "uint256",
          "name": "",
          "type": "uint256"
        }
      ],
      "payable": false,
      "stateMutability": "nonpayable",
      "type": "function"
    },
    {
      "constant": false,
      "inputs": [
        {
          "internalType": "bool",
          "name": "state",
          "type": "bool"
        }
      ],
      "name": "_setSeizePaused",
      "outputs": [
        {
          "internalType": "bool",
          "name": "",
          "type": "bool"
        }
      ],
      "payable": false,
      "stateMutability": "nonpayable",
      "type": "function"
    },
    {
      "constant": false,
      "inputs": [
        {
          "internalType": "bool",
          "name": "state",
          "type": "bool"
        }
      ],
      "name": "_setTransferPaused",
      "outputs": [
        {
          "internalType": "bool",
          "name": "",
          "type": "bool"
        }
      ],
      "payable": false,
      "stateMutability": "nonpayable",
      "type": "function"
    },
    {
      "constant": false,
      "inputs": [
        {
          "internalType": "contract BToken",
          "name": "bToken",
          "type": "address"
        },
        {
          "internalType": "enum ComptrollerV1Storage.Version",
          "name": "version",
          "type": "uint8"
        }
      ],
      "name": "_supportMarket",
      "outputs": [
        {
          "internalType": "uint256",
          "name": "",
          "type": "uint256"
        }
      ],
      "payable": false,
      "stateMutability": "nonpayable",
      "type": "function"
    },
    {
      "constant": true,
      "inputs": [
        {
          "internalType": "address",
          "name": "",
          "type": "address"
        },
        {
          "internalType": "uint256",
          "name": "",
          "type": "uint256"
        }
      ],
      "name": "accountAssets",
      "outputs": [
        {
          "internalType": "contract BToken",
          "name": "",
          "type": "address"
        }
      ],
      "payable": false,
      "stateMutability": "view",
      "type": "function"
    },
    {
      "constant": true,
      "inputs": [],
      "name": "admin",
      "outputs": [
        {
          "internalType": "address",
          "name": "",
          "type": "address"
        }
      ],
      "payable": false,
      "stateMutability": "view",
      "type": "function"
    },
    {
      "constant": true,
      "inputs": [
        {
          "internalType": "uint256",
          "name": "",
          "type": "uint256"
        }
      ],
      "name": "allMarkets",
      "outputs": [
        {
          "internalType": "contract BToken",
          "name": "",
          "type": "address"
        }
      ],
      "payable": false,
      "stateMutability": "view",
      "type": "function"
    },
    {
      "constant": false,
      "inputs": [
        {
          "internalType": "address",
          "name": "bToken",
          "type": "address"
        },
        {
          "internalType": "address",
          "name": "borrower",
          "type": "address"
        },
        {
          "internalType": "uint256",
          "name": "borrowAmount",
          "type": "uint256"
        }
      ],
      "name": "borrowAllowed",
      "outputs": [
        {
          "internalType": "uint256",
          "name": "",
          "type": "uint256"
        }
      ],
      "payable": false,
      "stateMutability": "nonpayable",
      "type": "function"
    },
    {
      "constant": true,
      "inputs": [],
      "name": "borrowCapGuardian",
      "outputs": [
        {
          "internalType": "address",
          "name": "",
          "type": "address"
        }
      ],
      "payable": false,
      "stateMutability": "view",
      "type": "function"
    },
    {
      "constant": true,
      "inputs": [
        {
          "internalType": "address",
          "name": "",
          "type": "address"
        }
      ],
      "name": "borrowCaps",
      "outputs": [
        {
          "internalType": "uint256",
          "name": "",
          "type": "uint256"
        }
      ],
      "payable": false,
      "stateMutability": "view",
      "type": "function"
    },
    {
      "constant": true,
      "inputs": [
        {
          "internalType": "address",
          "name": "",
          "type": "address"
        }
      ],
      "name": "borrowGuardianPaused",
      "outputs": [
        {
          "internalType": "bool",
          "name": "",
          "type": "bool"
        }
      ],
      "payable": false,
      "stateMutability": "view",
      "type": "function"
    },
    {
      "constant": false,
      "inputs": [
        {
          "internalType": "address",
          "name": "bToken",
          "type": "address"
        },
        {
          "internalType": "address",
          "name": "borrower",
          "type": "address"
        },
        {
          "internalType": "uint256",
          "name": "borrowAmount",
          "type": "uint256"
        }
      ],
      "name": "borrowVerify",
      "outputs": [],
      "payable": false,
      "stateMutability": "nonpayable",
      "type": "function"
    },
    {
      "constant": true,
      "inputs": [
        {
          "internalType": "address",
          "name": "account",
          "type": "address"
        },
        {
          "internalType": "contract BToken",
          "name": "bToken",
          "type": "address"
        }
      ],
      "name": "checkMembership",
      "outputs": [
        {
          "internalType": "bool",
          "name": "",
          "type": "bool"
        }
      ],
      "payable": false,
      "stateMutability": "view",
      "type": "function"
    },
    {
      "constant": true,
      "inputs": [],
      "name": "closeFactorMantissa",
      "outputs": [
        {
          "internalType": "uint256",
          "name": "",
          "type": "uint256"
        }
      ],
      "payable": false,
      "stateMutability": "view",
      "type": "function"
    },
    {
      "constant": true,
      "inputs": [
        {
          "internalType": "address",
          "name": "",
          "type": "address"
        }
      ],
      "name": "compAccrued",
      "outputs": [
        {
          "internalType": "uint256",
          "name": "",
          "type": "uint256"
        }
      ],
      "payable": false,
      "stateMutability": "view",
      "type": "function"
    },
    {
      "constant": true,
      "inputs": [
        {
          "internalType": "address",
          "name": "",
          "type": "address"
        }
      ],
      "name": "compBorrowState",
      "outputs": [
        {
          "internalType": "uint224",
          "name": "index",
          "type": "uint224"
        },
        {
          "internalType": "uint32",
          "name": "block",
          "type": "uint32"
        }
      ],
      "payable": false,
      "stateMutability": "view",
      "type": "function"
    },
    {
      "constant": true,
      "inputs": [
        {
          "internalType": "address",
          "name": "",
          "type": "address"
        },
        {
          "internalType": "address",
          "name": "",
          "type": "address"
        }
      ],
      "name": "compBorrowerIndex",
      "outputs": [
        {
          "internalType": "uint256",
          "name": "",
          "type": "uint256"
        }
      ],
      "payable": false,
      "stateMutability": "view",
      "type": "function"
    },
    {
      "constant": true,
      "inputs": [
        {
          "internalType": "address",
          "name": "",
          "type": "address"
        }
      ],
      "name": "compSpeeds",
      "outputs": [
        {
          "internalType": "uint256",
          "name": "",
          "type": "uint256"
        }
      ],
      "payable": false,
      "stateMutability": "view",
      "type": "function"
    },
    {
      "constant": true,
      "inputs": [
        {
          "internalType": "address",
          "name": "",
          "type": "address"
        },
        {
          "internalType": "address",
          "name": "",
          "type": "address"
        }
      ],
      "name": "compSupplierIndex",
      "outputs": [
        {
          "internalType": "uint256",
          "name": "",
          "type": "uint256"
        }
      ],
      "payable": false,
      "stateMutability": "view",
      "type": "function"
    },
    {
      "constant": true,
      "inputs": [
        {
          "internalType": "address",
          "name": "",
          "type": "address"
        }
      ],
      "name": "compSupplyState",
      "outputs": [
        {
          "internalType": "uint224",
          "name": "index",
          "type": "uint224"
        },
        {
          "internalType": "uint32",
          "name": "block",
          "type": "uint32"
        }
      ],
      "payable": false,
      "stateMutability": "view",
      "type": "function"
    },
    {
      "constant": true,
      "inputs": [],
      "name": "comptrollerImplementation",
      "outputs": [
        {
          "internalType": "address",
          "name": "",
          "type": "address"
        }
      ],
      "payable": false,
      "stateMutability": "view",
      "type": "function"
    },
    {
      "constant": true,
      "inputs": [],
      "name": "creditLimitManager",
      "outputs": [
        {
          "internalType": "address",
          "name": "",
          "type": "address"
        }
      ],
      "payable": false,
      "stateMutability": "view",
      "type": "function"
    },
    {
      "constant": true,
      "inputs": [
        {
          "internalType": "address",
          "name": "protocol",
          "type": "address"
        },
        {
          "internalType": "address",
          "name": "market",
          "type": "address"
        }
      ],
      "name": "creditLimits",
      "outputs": [
        {
          "internalType": "uint256",
          "name": "",
          "type": "uint256"
        }
      ],
      "payable": false,
      "stateMutability": "view",
      "type": "function"
    },
    {
      "constant": true,
      "inputs": [
        {
          "internalType": "address",
          "name": "protocol",
          "type": "address"
        }
      ],
      "name": "creditLimits",
      "outputs": [
        {
          "internalType": "uint256",
          "name": "",
          "type": "uint256"
        }
      ],
      "payable": false,
      "stateMutability": "view",
      "type": "function"
    },
    {
      "constant": false,
      "inputs": [
        {
          "internalType": "address[]",
          "name": "bTokens",
          "type": "address[]"
        }
      ],
      "name": "enterMarkets",
      "outputs": [
        {
          "internalType": "uint256[]",
          "name": "",
          "type": "uint256[]"
        }
      ],
      "payable": false,
      "stateMutability": "nonpayable",
      "type": "function"
    },
    {
      "constant": false,
      "inputs": [
        {
          "internalType": "address",
          "name": "bTokenAddress",
          "type": "address"
        }
      ],
      "name": "exitMarket",
      "outputs": [
        {
          "internalType": "uint256",
          "name": "",
          "type": "uint256"
        }
      ],
      "payable": false,
      "stateMutability": "nonpayable",
      "type": "function"
    },
    {
      "constant": true,
      "inputs": [
        {
          "internalType": "address",
          "name": "bToken",
          "type": "address"
        },
        {
          "internalType": "address",
          "name": "receiver",
          "type": "address"
        },
        {
          "internalType": "uint256",
          "name": "amount",
          "type": "uint256"
        },
        {
          "internalType": "bytes",
          "name": "params",
          "type": "bytes"
        }
      ],
      "name": "flashloanAllowed",
      "outputs": [
        {
          "internalType": "bool",
          "name": "",
          "type": "bool"
        }
      ],
      "payable": false,
      "stateMutability": "view",
      "type": "function"
    },
    {
      "constant": true,
      "inputs": [
        {
          "internalType": "address",
          "name": "",
          "type": "address"
        }
      ],
      "name": "flashloanGuardianPaused",
      "outputs": [
        {
          "internalType": "bool",
          "name": "",
          "type": "bool"
        }
      ],
      "payable": false,
      "stateMutability": "view",
      "type": "function"
    },
    {
      "constant": true,
      "inputs": [
        {
          "internalType": "address",
          "name": "account",
          "type": "address"
        }
      ],
      "name": "getAccountLiquidity",
      "outputs": [
        {
          "internalType": "uint256",
          "name": "",
          "type": "uint256"
        },
        {
          "internalType": "uint256",
          "name": "",
          "type": "uint256"
        },
        {
          "internalType": "uint256",
          "name": "",
          "type": "uint256"
        }
      ],
      "payable": false,
      "stateMutability": "view",
      "type": "function"
    },
    {
      "constant": true,
      "inputs": [],
      "name": "getAllMarkets",
      "outputs": [
        {
          "internalType": "contract BToken[]",
          "name": "",
          "type": "address[]"
        }
      ],
      "payable": false,
      "stateMutability": "view",
      "type": "function"
    },
    {
      "constant": true,
      "inputs": [
        {
          "internalType": "address",
          "name": "account",
          "type": "address"
        }
      ],
      "name": "getAssetsIn",
      "outputs": [
        {
          "internalType": "contract BToken[]",
          "name": "",
          "type": "address[]"
        }
      ],
      "payable": false,
      "stateMutability": "view",
      "type": "function"
    },
    {
      "constant": true,
      "inputs": [],
      "name": "getBlockNumber",
      "outputs": [
        {
          "internalType": "uint256",
          "name": "",
          "type": "uint256"
        }
      ],
      "payable": false,
      "stateMutability": "view",
      "type": "function"
    },
    {
      "constant": true,
      "inputs": [
        {
          "internalType": "address",
          "name": "account",
          "type": "address"
        },
        {
          "internalType": "address",
          "name": "bTokenModify",
          "type": "address"
        },
        {
          "internalType": "uint256",
          "name": "redeemTokens",
          "type": "uint256"
        },
        {
          "internalType": "uint256",
          "name": "borrowAmount",
          "type": "uint256"
        }
      ],
      "name": "getHypotheticalAccountLiquidity",
      "outputs": [
        {
          "internalType": "uint256",
          "name": "",
          "type": "uint256"
        },
        {
          "internalType": "uint256",
          "name": "",
          "type": "uint256"
        },
        {
          "internalType": "uint256",
          "name": "",
          "type": "uint256"
        }
      ],
      "payable": false,
      "stateMutability": "view",
      "type": "function"
    },
    {
      "constant": true,
      "inputs": [],
      "name": "guardian",
      "outputs": [
        {
          "internalType": "address",
          "name": "",
          "type": "address"
        }
      ],
      "payable": false,
      "stateMutability": "view",
      "type": "function"
    },
    {
      "constant": true,
      "inputs": [],
      "name": "isComptroller",
      "outputs": [
        {
          "internalType": "bool",
          "name": "",
          "type": "bool"
        }
      ],
      "payable": false,
      "stateMutability": "view",
      "type": "function"
    },
    {
      "constant": true,
      "inputs": [
        {
          "internalType": "address",
          "name": "account",
          "type": "address"
        },
        {
          "internalType": "address",
          "name": "bToken",
          "type": "address"
        }
      ],
      "name": "isCreditAccount",
      "outputs": [
        {
          "internalType": "bool",
          "name": "",
          "type": "bool"
        }
      ],
      "payable": false,
      "stateMutability": "view",
      "type": "function"
    },
    {
      "constant": true,
      "inputs": [
        {
          "internalType": "address",
          "name": "",
          "type": "address"
        }
      ],
      "name": "isMarketDelisted",
      "outputs": [
        {
          "internalType": "bool",
          "name": "",
          "type": "bool"
        }
      ],
      "payable": false,
      "stateMutability": "view",
      "type": "function"
    },
    {
      "constant": true,
      "inputs": [
        {
          "internalType": "address",
          "name": "bTokenAddress",
          "type": "address"
        }
      ],
      "name": "isMarketListed",
      "outputs": [
        {
          "internalType": "bool",
          "name": "",
          "type": "bool"
        }
      ],
      "payable": false,
      "stateMutability": "view",
      "type": "function"
    },
    {
      "constant": true,
      "inputs": [
        {
          "internalType": "address",
          "name": "bTokenAddress",
          "type": "address"
        }
      ],
      "name": "isMarketListedOrDelisted",
      "outputs": [
        {
          "internalType": "bool",
          "name": "",
          "type": "bool"
        }
      ],
      "payable": false,
      "stateMutability": "view",
      "type": "function"
    },
    {
      "constant": false,
      "inputs": [
        {
          "internalType": "address",
          "name": "bTokenBorrowed",
          "type": "address"
        },
        {
          "internalType": "address",
          "name": "bTokenCollateral",
          "type": "address"
        },
        {
          "internalType": "address",
          "name": "liquidator",
          "type": "address"
        },
        {
          "internalType": "address",
          "name": "borrower",
          "type": "address"
        },
        {
          "internalType": "uint256",
          "name": "repayAmount",
          "type": "uint256"
        }
      ],
      "name": "liquidateBorrowAllowed",
      "outputs": [
        {
          "internalType": "uint256",
          "name": "",
          "type": "uint256"
        }
      ],
      "payable": false,
      "stateMutability": "nonpayable",
      "type": "function"
    },
    {
      "constant": false,
      "inputs": [
        {
          "internalType": "address",
          "name": "bTokenBorrowed",
          "type": "address"
        },
        {
          "internalType": "address",
          "name": "bTokenCollateral",
          "type": "address"
        },
        {
          "internalType": "address",
          "name": "liquidator",
          "type": "address"
        },
        {
          "internalType": "address",
          "name": "borrower",
          "type": "address"
        },
        {
          "internalType": "uint256",
          "name": "actualRepayAmount",
          "type": "uint256"
        },
        {
          "internalType": "uint256",
          "name": "seizeTokens",
          "type": "uint256"
        }
      ],
      "name": "liquidateBorrowVerify",
      "outputs": [],
      "payable": false,
      "stateMutability": "nonpayable",
      "type": "function"
    },
    {
      "constant": true,
      "inputs": [
        {
          "internalType": "address",
          "name": "bTokenBorrowed",
          "type": "address"
        },
        {
          "internalType": "address",
          "name": "bTokenCollateral",
          "type": "address"
        },
        {
          "internalType": "uint256",
          "name": "actualRepayAmount",
          "type": "uint256"
        }
      ],
      "name": "liquidateCalculateSeizeTokens",
      "outputs": [
        {
          "internalType": "uint256",
          "name": "",
          "type": "uint256"
        },
        {
          "internalType": "uint256",
          "name": "",
          "type": "uint256"
        }
      ],
      "payable": false,
      "stateMutability": "view",
      "type": "function"
    },
    {
      "constant": true,
      "inputs": [],
      "name": "liquidationIncentiveMantissa",
      "outputs": [
        {
          "internalType": "uint256",
          "name": "",
          "type": "uint256"
        }
      ],
      "payable": false,
      "stateMutability": "view",
      "type": "function"
    },
    {
      "constant": true,
      "inputs": [],
      "name": "liquidityMining",
      "outputs": [
        {
          "internalType": "address",
          "name": "",
          "type": "address"
        }
      ],
      "payable": false,
      "stateMutability": "view",
      "type": "function"
    },
    {
      "constant": true,
      "inputs": [
        {
          "internalType": "address",
          "name": "",
          "type": "address"
        }
      ],
      "name": "markets",
      "outputs": [
        {
          "internalType": "bool",
          "name": "isListed",
          "type": "bool"
        },
        {
          "internalType": "uint256",
          "name": "collateralFactorMantissa",
          "type": "uint256"
        },
        {
          "internalType": "enum ComptrollerV1Storage.Version",
          "name": "version",
          "type": "uint8"
        }
      ],
      "payable": false,
      "stateMutability": "view",
      "type": "function"
    },
    {
      "constant": false,
      "inputs": [
        {
          "internalType": "address",
          "name": "bToken",
          "type": "address"
        },
        {
          "internalType": "address",
          "name": "minter",
          "type": "address"
        },
        {
          "internalType": "uint256",
          "name": "mintAmount",
          "type": "uint256"
        }
      ],
      "name": "mintAllowed",
      "outputs": [
        {
          "internalType": "uint256",
          "name": "",
          "type": "uint256"
        }
      ],
      "payable": false,
      "stateMutability": "nonpayable",
      "type": "function"
    },
    {
      "constant": true,
      "inputs": [
        {
          "internalType": "address",
          "name": "",
          "type": "address"
        }
      ],
      "name": "mintGuardianPaused",
      "outputs": [
        {
          "internalType": "bool",
          "name": "",
          "type": "bool"
        }
      ],
      "payable": false,
      "stateMutability": "view",
      "type": "function"
    },
    {
      "constant": false,
      "inputs": [
        {
          "internalType": "address",
          "name": "bToken",
          "type": "address"
        },
        {
          "internalType": "address",
          "name": "minter",
          "type": "address"
        },
        {
          "internalType": "uint256",
          "name": "actualMintAmount",
          "type": "uint256"
        },
        {
          "internalType": "uint256",
          "name": "mintTokens",
          "type": "uint256"
        }
      ],
      "name": "mintVerify",
      "outputs": [],
      "payable": false,
      "stateMutability": "nonpayable",
      "type": "function"
    },
    {
      "constant": true,
      "inputs": [],
      "name": "oracle",
      "outputs": [
        {
          "internalType": "contract PriceOracle",
          "name": "",
          "type": "address"
        }
      ],
      "payable": false,
      "stateMutability": "view",
      "type": "function"
    },
    {
      "constant": true,
      "inputs": [],
      "name": "pendingAdmin",
      "outputs": [
        {
          "internalType": "address",
          "name": "",
          "type": "address"
        }
      ],
      "payable": false,
      "stateMutability": "view",
      "type": "function"
    },
    {
      "constant": true,
      "inputs": [],
      "name": "pendingComptrollerImplementation",
      "outputs": [
        {
          "internalType": "address",
          "name": "",
          "type": "address"
        }
      ],
      "payable": false,
      "stateMutability": "view",
      "type": "function"
    },
    {
      "constant": false,
      "inputs": [
        {
          "internalType": "address",
          "name": "bToken",
          "type": "address"
        },
        {
          "internalType": "address",
          "name": "redeemer",
          "type": "address"
        },
        {
          "internalType": "uint256",
          "name": "redeemTokens",
          "type": "uint256"
        }
      ],
      "name": "redeemAllowed",
      "outputs": [
        {
          "internalType": "uint256",
          "name": "",
          "type": "uint256"
        }
      ],
      "payable": false,
      "stateMutability": "nonpayable",
      "type": "function"
    },
    {
      "constant": false,
      "inputs": [
        {
          "internalType": "address",
          "name": "bToken",
          "type": "address"
        },
        {
          "internalType": "address",
          "name": "redeemer",
          "type": "address"
        },
        {
          "internalType": "uint256",
          "name": "redeemAmount",
          "type": "uint256"
        },
        {
          "internalType": "uint256",
          "name": "redeemTokens",
          "type": "uint256"
        }
      ],
      "name": "redeemVerify",
      "outputs": [],
      "payable": false,
      "stateMutability": "nonpayable",
      "type": "function"
    },
    {
      "constant": false,
      "inputs": [
        {
          "internalType": "address",
          "name": "bToken",
          "type": "address"
        },
        {
          "internalType": "address",
          "name": "payer",
          "type": "address"
        },
        {
          "internalType": "address",
          "name": "borrower",
          "type": "address"
        },
        {
          "internalType": "uint256",
          "name": "repayAmount",
          "type": "uint256"
        }
      ],
      "name": "repayBorrowAllowed",
      "outputs": [
        {
          "internalType": "uint256",
          "name": "",
          "type": "uint256"
        }
      ],
      "payable": false,
      "stateMutability": "nonpayable",
      "type": "function"
    },
    {
      "constant": false,
      "inputs": [
        {
          "internalType": "address",
          "name": "bToken",
          "type": "address"
        },
        {
          "internalType": "address",
          "name": "payer",
          "type": "address"
        },
        {
          "internalType": "address",
          "name": "borrower",
          "type": "address"
        },
        {
          "internalType": "uint256",
          "name": "actualRepayAmount",
          "type": "uint256"
        },
        {
          "internalType": "uint256",
          "name": "borrowerIndex",
          "type": "uint256"
        }
      ],
      "name": "repayBorrowVerify",
      "outputs": [],
      "payable": false,
      "stateMutability": "nonpayable",
      "type": "function"
    },
    {
      "constant": false,
      "inputs": [
        {
          "internalType": "address",
          "name": "bTokenCollateral",
          "type": "address"
        },
        {
          "internalType": "address",
          "name": "bTokenBorrowed",
          "type": "address"
        },
        {
          "internalType": "address",
          "name": "liquidator",
          "type": "address"
        },
        {
          "internalType": "address",
          "name": "borrower",
          "type": "address"
        },
        {
          "internalType": "uint256",
          "name": "seizeTokens",
          "type": "uint256"
        }
      ],
      "name": "seizeAllowed",
      "outputs": [
        {
          "internalType": "uint256",
          "name": "",
          "type": "uint256"
        }
      ],
      "payable": false,
      "stateMutability": "nonpayable",
      "type": "function"
    },
    {
      "constant": true,
      "inputs": [],
      "name": "seizeGuardianPaused",
      "outputs": [
        {
          "internalType": "bool",
          "name": "",
          "type": "bool"
        }
      ],
      "payable": false,
      "stateMutability": "view",
      "type": "function"
    },
    {
      "constant": false,
      "inputs": [
        {
          "internalType": "address",
          "name": "bTokenCollateral",
          "type": "address"
        },
        {
          "internalType": "address",
          "name": "bTokenBorrowed",
          "type": "address"
        },
        {
          "internalType": "address",
          "name": "liquidator",
          "type": "address"
        },
        {
          "internalType": "address",
          "name": "borrower",
          "type": "address"
        },
        {
          "internalType": "uint256",
          "name": "seizeTokens",
          "type": "uint256"
        }
      ],
      "name": "seizeVerify",
      "outputs": [],
      "payable": false,
      "stateMutability": "nonpayable",
      "type": "function"
    },
    {
      "constant": true,
      "inputs": [],
      "name": "supplyCapGuardian",
      "outputs": [
        {
          "internalType": "address",
          "name": "",
          "type": "address"
        }
      ],
      "payable": false,
      "stateMutability": "view",
      "type": "function"
    },
    {
      "constant": true,
      "inputs": [
        {
          "internalType": "address",
          "name": "",
          "type": "address"
        }
      ],
      "name": "supplyCaps",
      "outputs": [
        {
          "internalType": "uint256",
          "name": "",
          "type": "uint256"
        }
      ],
      "payable": false,
      "stateMutability": "view",
      "type": "function"
    },
    {
      "constant": false,
      "inputs": [
        {
          "internalType": "address",
          "name": "bToken",
          "type": "address"
        },
        {
          "internalType": "address",
          "name": "src",
          "type": "address"
        },
        {
          "internalType": "address",
          "name": "dst",
          "type": "address"
        },
        {
          "internalType": "uint256",
          "name": "transferTokens",
          "type": "uint256"
        }
      ],
      "name": "transferAllowed",
      "outputs": [
        {
          "internalType": "uint256",
          "name": "",
          "type": "uint256"
        }
      ],
      "payable": false,
      "stateMutability": "nonpayable",
      "type": "function"
    },
    {
      "constant": true,
      "inputs": [],
      "name": "transferGuardianPaused",
      "outputs": [
        {
          "internalType": "bool",
          "name": "",
          "type": "bool"
        }
      ],
      "payable": false,
      "stateMutability": "view",
      "type": "function"
    },
    {
      "constant": false,
      "inputs": [
        {
          "internalType": "address",
          "name": "bToken",
          "type": "address"
        },
        {
          "internalType": "address",
          "name": "src",
          "type": "address"
        },
        {
          "internalType": "address",
          "name": "dst",
          "type": "address"
        },
        {
          "internalType": "uint256",
          "name": "transferTokens",
          "type": "uint256"
        }
      ],
      "name": "transferVerify",
      "outputs": [],
      "payable": false,
      "stateMutability": "nonpayable",
      "type": "function"
    },
    {
      "constant": false,
      "inputs": [
        {
          "internalType": "address",
          "name": "bToken",
          "type": "address"
        },
        {
          "internalType": "enum ComptrollerV1Storage.Version",
          "name": "newVersion",
          "type": "uint8"
        }
      ],
      "name": "updateBTokenVersion",
      "outputs": [],
      "payable": false,
      "stateMutability": "nonpayable",
      "type": "function"
    }
  ],
  "bytecode": "0x608060405234801561001057600080fd5b50600080546001600160a01b0319163317905561562680620000336000396000f3fe608060405234801561001057600080fd5b506004361061048a5760003560e01c80636a56947e11610262578063bb82aa5e11610151578063da3d454c116100ce578063e6653f3d11610092578063e6653f3d146112c8578063e8755446146112d0578063ea5d0104146112d8578063eabe7d91146112fe578063ede4edd014611334578063f851a4401461135a5761048a565b8063da3d454c1461120c578063dce1544914611242578063dcfbc0c71461126e578063e38e8c0f14611276578063e4028eee1461129c5761048a565b8063cc7ebdc411610115578063cc7ebdc41461111e578063d02f735114611144578063d13911491461118a578063d672d3e2146111b0578063d84f6aeb146111d65761048a565b8063bb82aa5e14610fbc578063bdcdc25814610fc4578063c299823814611000578063c488847b146110a1578063ca0af043146110f05761048a565b80638ebf6364116101df578063ac0b0bb7116101a3578063ac0b0bb714610ec2578063b0772d0b14610eca578063b1ab78e614610ed2578063b1e1af2414610f60578063b21be7fd14610f8e5761048a565b80638ebf636414610dd1578063929fe9a114610df057806399bc187314610e1e578063a979f0c514610e44578063abfceffc14610e4c5761048a565b80637dc0d1d0116102265780637dc0d1d014610d3757806385b2d53514610d3f57806387f7630314610d475780638c57804e14610d4f5780638e8f294b14610d755761048a565b80636a56947e14610c1b5780636b79c38d14610c575780636d154ea514610ca55780636d35bf9114610ccb578063731f0c2b14610d115761048a565b80633d98a1e51161037e57806350f6c85a116102fb5780635c778605116102bf5780635c77860514610a955780635e2e9a4414610acb5780635ec88c7914610af15780635fc7e71e14610b17578063607ef6c114610b5d5761048a565b806350f6c85a1461092a57806351a485e41461095857806351dff98914610a1657806352d84d1e14610a5257806355ee1fe114610a6f5761048a565b80634a584432116103425780634a5844321461084f5780634ada90af146108755780634e79238f1461087d5780634ef4c3e1146108d75780634fd42e171461090d5761048a565b80633d98a1e51461079157806341c728b9146107b757806342cbb15c146107f3578063452a9320146107fb57806347ef3b3b146108035761048a565b806321af45691161040c57806336bdd087116103d057806336bdd087146106d057806339e47ad2146106ff5780633b3af2571461072d5780633bcf7ec11461075b5780633c94786f146107895761048a565b806321af45691461064857806324008a6214610650578063267822471461068c5780632d70db7814610694578063317b0b77146106b35761048a565b8063188f848311610453578063188f84831461056657806318c882a51461058c5780631d504dc6146105ba5780631d7b33d7146105e05780631ededc91146106065761048a565b80627e3dd21461048f57806302c3bcbb146104ab5780630445254d146104e35780630aa5747714610511578063178de7eb14610542575b600080fd5b610497611362565b604080519115158252519081900360200190f35b6104d1600480360360208110156104c157600080fd5b50356001600160a01b0316611367565b60408051918252519081900360200190f35b6104d1600480360360408110156104f957600080fd5b506001600160a01b0381358116916020013516611379565b6105406004803603604081101561052757600080fd5b5080356001600160a01b0316906020013560ff166113a6565b005b61054a6114b5565b604080516001600160a01b039092168252519081900360200190f35b6104976004803603602081101561057c57600080fd5b50356001600160a01b03166114c4565b610497600480360360408110156105a257600080fd5b506001600160a01b038135169060200135151561150b565b610540600480360360208110156105d057600080fd5b50356001600160a01b031661169e565b6104d1600480360360208110156105f657600080fd5b50356001600160a01b0316611802565b610540600480360360a081101561061c57600080fd5b506001600160a01b03813581169160208101358216916040820135169060608101359060800135611814565b61054a61181b565b6104d16004803603608081101561066657600080fd5b506001600160a01b0381358116916020810135821691604082013516906060013561182a565b61054a6118df565b610497600480360360208110156106aa57600080fd5b503515156118ee565b6104d1600480360360208110156106c957600080fd5b5035611a27565b6104d1600480360360408110156106e657600080fd5b5080356001600160a01b0316906020013560ff16611a9a565b6105406004803603604081101561071557600080fd5b506001600160a01b0381351690602001351515611c64565b6104976004803603604081101561074357600080fd5b506001600160a01b0381358116916020013516611fe1565b6104976004803603604081101561077157600080fd5b506001600160a01b038135169060200135151561200e565b61049761219f565b610497600480360360208110156107a757600080fd5b50356001600160a01b03166121af565b610540600480360360808110156107cd57600080fd5b506001600160a01b038135811691602081013590911690604081013590606001356121cd565b6104d16121d3565b61054a6121d8565b610540600480360360c081101561081957600080fd5b506001600160a01b0381358116916020810135821691604082013581169160608101359091169060808101359060a001356121e7565b6104d16004803603602081101561086557600080fd5b50356001600160a01b03166121ef565b6104d1612201565b6108b96004803603608081101561089357600080fd5b506001600160a01b03813581169160208101359091169060408101359060600135612207565b60408051938452602084019290925282820152519081900360600190f35b6104d1600480360360608110156108ed57600080fd5b506001600160a01b03813581169160208101359091169060400135612241565b6104d16004803603602081101561092357600080fd5b503561258d565b6105406004803603604081101561094057600080fd5b506001600160a01b03813581169160200135166125f6565b6105406004803603604081101561096e57600080fd5b810190602081018135600160201b81111561098857600080fd5b82018360208201111561099a57600080fd5b803590602001918460208302840111600160201b831117156109bb57600080fd5b919390929091602081019035600160201b8111156109d857600080fd5b8201836020820111156109ea57600080fd5b803590602001918460208302840111600160201b83111715610a0b57600080fd5b509092509050612651565b61054060048036036080811015610a2c57600080fd5b506001600160a01b038135811691602081013590911690604081013590606001356127f0565b61054a60048036036020811015610a6857600080fd5b5035612844565b6104d160048036036020811015610a8557600080fd5b50356001600160a01b031661286b565b61054060048036036060811015610aab57600080fd5b506001600160a01b038135811691602081013590911690604001356128f0565b61054060048036036020811015610ae157600080fd5b50356001600160a01b03166128f5565b6108b960048036036020811015610b0757600080fd5b50356001600160a01b03166129a3565b6104d1600480360360a0811015610b2d57600080fd5b506001600160a01b03813581169160208101358216916040820135811691606081013590911690608001356129d8565b61054060048036036040811015610b7357600080fd5b810190602081018135600160201b811115610b8d57600080fd5b820183602082011115610b9f57600080fd5b803590602001918460208302840111600160201b83111715610bc057600080fd5b919390929091602081019035600160201b811115610bdd57600080fd5b820183602082011115610bef57600080fd5b803590602001918460208302840111600160201b83111715610c1057600080fd5b509092509050612c1b565b61054060048036036080811015610c3157600080fd5b506001600160a01b038135811691602081013582169160408201351690606001356121cd565b610c7d60048036036020811015610c6d57600080fd5b50356001600160a01b0316612db1565b604080516001600160e01b03909316835263ffffffff90911660208301528051918290030190f35b61049760048036036020811015610cbb57600080fd5b50356001600160a01b0316612ddb565b610540600480360360a0811015610ce157600080fd5b506001600160a01b0381358116916020810135821691604082013581169160608101359091169060800135611814565b61049760048036036020811015610d2757600080fd5b50356001600160a01b0316612df0565b61054a612e05565b61054a612e14565b610497612e23565b610c7d60048036036020811015610d6557600080fd5b50356001600160a01b0316612e33565b610d9b60048036036020811015610d8b57600080fd5b50356001600160a01b0316612e5d565b6040518084151515158152602001838152602001826002811115610dbb57fe5b60ff168152602001935050505060405180910390f35b61049760048036036020811015610de757600080fd5b50351515612e83565b61049760048036036040811015610e0657600080fd5b506001600160a01b0381358116916020013516612fbf565b6104d160048036036020811015610e3457600080fd5b50356001600160a01b0316612ff2565b61054a612ff8565b610e7260048036036020811015610e6257600080fd5b50356001600160a01b0316613007565b60408051602080825283518183015283519192839290830191858101910280838360005b83811015610eae578181015183820152602001610e96565b505050509050019250505060405180910390f35b610497613090565b610e726130a0565b61049760048036036080811015610ee857600080fd5b6001600160a01b03823581169260208101359091169160408201359190810190608081016060820135600160201b811115610f2257600080fd5b820183602082011115610f3457600080fd5b803590602001918460018302840111600160201b83111715610f5557600080fd5b509092509050613102565b61049760048036036040811015610f7657600080fd5b506001600160a01b0381351690602001351515613125565b6104d160048036036040811015610fa457600080fd5b506001600160a01b03813581169160200135166132bb565b61054a6132d8565b6104d160048036036080811015610fda57600080fd5b506001600160a01b038135811691602081013582169160408201351690606001356132e7565b610e726004803603602081101561101657600080fd5b810190602081018135600160201b81111561103057600080fd5b82018360208201111561104257600080fd5b803590602001918460208302840111600160201b8311171561106357600080fd5b91908080602002602001604051908101604052809392919081815260200183836020028082843760009201919091525092955061338f945050505050565b6110d7600480360360608110156110b757600080fd5b506001600160a01b03813581169160208101359091169060400135613426565b6040805192835260208301919091528051918290030190f35b6104d16004803603604081101561110657600080fd5b506001600160a01b038135811691602001351661367c565b6104d16004803603602081101561113457600080fd5b50356001600160a01b0316613699565b6104d1600480360360a081101561115a57600080fd5b506001600160a01b03813581169160208101358216916040820135811691606081013590911690608001356136ab565b610497600480360360208110156111a057600080fd5b50356001600160a01b03166138e8565b610497600480360360208110156111c657600080fd5b50356001600160a01b03166138fd565b610540600480360360608110156111ec57600080fd5b506001600160a01b03813581169160208101359091169060400135613912565b6104d16004803603606081101561122257600080fd5b506001600160a01b0381358116916020810135909116906040013561397b565b61054a6004803603604081101561125857600080fd5b506001600160a01b038135169060200135613f1e565b61054a613f53565b6104d16004803603602081101561128c57600080fd5b50356001600160a01b0316613f62565b6104d1600480360360408110156112b257600080fd5b506001600160a01b038135169060200135613fe6565b610497614196565b6104d16141a6565b610540600480360360208110156112ee57600080fd5b50356001600160a01b03166141ac565b6104d16004803603606081101561131457600080fd5b506001600160a01b0381358116916020810135909116906040013561431b565b6104d16004803603602081101561134a57600080fd5b50356001600160a01b0316614330565b61054a614725565b600181565b60166020526000908152604090205481565b6001600160a01b038083166000908152601a60209081526040808320938516835292905220545b92915050565b336001600160a01b038316146113f1576040805162461bcd60e51b815260206004820152600b60248201526a62546f6b656e206f6e6c7960a81b604482015290519081900360640190fd5b6113fa826121af565b156114b1576001600160a01b0382166000908152600860205260409020600301805460ff811691839160ff1916600183600281111561143557fe5b02179055507f94d8c3b3b1c3ffd041fd0875027844944165fdf4c35639c43eed07a99583084f83828460405180846001600160a01b03166001600160a01b0316815260200183600281111561148657fe5b60ff16815260200182600281111561149a57fe5b60ff168152602001935050505060405180910390a1505b5050565b601c546001600160a01b031681565b6001600160a01b03811660009081526008602052604081205460ff168061150357506001600160a01b0382166000908152601b602052604090205460ff165b90505b919050565b6000611516836121af565b611555576040805162461bcd60e51b81526020600482015260116024820152600080516020615542833981519152604482015290519081900360640190fd5b6009546001600160a01b031633148061157857506000546001600160a01b031633145b6115c2576040805162461bcd60e51b8152602060048201526016602482015275677561726469616e206f722061646d696e206f6e6c7960501b604482015290519081900360640190fd5b6000546001600160a01b03163314806115dd57506001821515145b61161b576040805162461bcd60e51b815260206004820152600a60248201526961646d696e206f6e6c7960b01b604482015290519081900360640190fd5b6001600160a01b0383166000818152600b6020908152604091829020805486151560ff199091168117909155825193845283830152606090830181905260069083015265426f72726f7760d01b6080830152517f71aec636243f9709bb0007ae15e9afb8150ab01716d75fd7573be5cc096e03b09181900360a00190a150919050565b806001600160a01b031663f851a4406040518163ffffffff1660e01b815260040160206040518083038186803b1580156116d757600080fd5b505afa1580156116eb573d6000803e3d6000fd5b505050506040513d602081101561170157600080fd5b50516001600160a01b03163314611757576040805162461bcd60e51b8152602060048201526015602482015274756e6974726f6c6c65722061646d696e206f6e6c7960581b604482015290519081900360640190fd5b806001600160a01b031663c1e803346040518163ffffffff1660e01b8152600401602060405180830381600087803b15801561179257600080fd5b505af11580156117a6573d6000803e3d6000fd5b505050506040513d60208110156117bc57600080fd5b5051156117ff576040805162461bcd60e51b815260206004820152600c60248201526b1d5b985d5d1a1bdc9a5e995960a21b604482015290519081900360640190fd5b50565b600d6020526000908152604090205481565b5050505050565b6013546001600160a01b031681565b6000611835856114c4565b611874576040805162461bcd60e51b81526020600482015260116024820152600080516020615542833981519152604482015290519081900360640190fd5b61187e8386611fe1565b156118d357836001600160a01b0316836001600160a01b0316146118d35760405162461bcd60e51b81526004018080602001828103825260288152602001806155a86028913960400191505060405180910390fd5b60005b95945050505050565b6001546001600160a01b031681565b6009546000906001600160a01b031633148061191457506000546001600160a01b031633145b61195e576040805162461bcd60e51b8152602060048201526016602482015275677561726469616e206f722061646d696e206f6e6c7960501b604482015290519081900360640190fd5b6000546001600160a01b031633148061197957506001821515145b6119b7576040805162461bcd60e51b815260206004820152600a60248201526961646d696e206f6e6c7960b01b604482015290519081900360640190fd5b60098054831515600160b81b810260ff60b81b1990921691909117909155604080516020810192909252808252600582820152645365697a6560d81b6060830152517fef159d9a32b2472e32b098f954f3ce62d232939f1c207070b584df1814de2de09181900360800190a15090565b600080546001600160a01b03163314611a4d57611a4660016004614734565b9050611506565b6005805490839055604080518281526020810185905281517f3b9670cf975d26958e754b57098eaa2ac914d8d2a31b83257997b9f346110fd9929181900390910190a160005b9392505050565b600080546001600160a01b03163314611ae7576040805162461bcd60e51b815260206004820152600a60248201526961646d696e206f6e6c7960b01b604482015290519081900360640190fd5b611af0836114c4565b15611b2c5760405162461bcd60e51b81526004018080602001828103825260218152602001806155876021913960400191505060405180910390fd5b826001600160a01b031663fbb623376040518163ffffffff1660e01b815260040160206040518083038186803b158015611b6557600080fd5b505afa158015611b79573d6000803e3d6000fd5b505050506040513d6020811015611b8f57600080fd5b5050604080516060810182526001815260006020820152908101836002811115611bb557fe5b90526001600160a01b0384166000908152600860209081526040918290208351815490151560ff1991821617825591840151600180830191909155928401516003820180549294919390921690836002811115611c0e57fe5b0217905550905050611c1f8361479a565b604080516001600160a01b038516815290517fcf583bb0c569eb967f806b11601c4cb93c10310485c67add5f8362c2f212321f9181900360200190a160009392505050565b6000546001600160a01b03163314611cb0576040805162461bcd60e51b815260206004820152600a60248201526961646d696e206f6e6c7960b01b604482015290519081900360640190fd5b6001600160a01b03821660009081526008602052604090206001015415611d16576040805162461bcd60e51b81526020600482015260156024820152741b585c9ad95d081a185cc818dbdb1b185d195c985b605a1b604482015290519081900360640190fd5b6001600160a01b0382166000908152600a602052604090205460ff168015611d5657506001600160a01b0382166000908152600b602052604090205460ff165b8015611d7a57506001600160a01b03821660009081526018602052604090205460ff165b611dbf576040805162461bcd60e51b81526020600482015260116024820152701b585c9ad95d081b9bdd081c185d5cd959607a1b604482015290519081900360640190fd5b80611e3457611dcd826121af565b611e0c576040805162461bcd60e51b81526020600482015260116024820152600080516020615542833981519152604482015290519081900360640190fd5b6001600160a01b0382166000908152601b60205260409020805460ff19166001179055611e78565b611e3d826114c4565b611e785760405162461bcd60e51b81526004018080602001828103825260228152602001806155206022913960400191505060405180910390fd5b6001600160a01b0382166000908152600860205260408120805460ff199081168255600182018390556003909101805490911690555b600c54811015611f9757826001600160a01b0316600c8281548110611ecf57fe5b6000918252602090912001546001600160a01b03161415611f8f57600c80546000198101908110611efc57fe5b600091825260209091200154600c80546001600160a01b039092169183908110611f2257fe5b600091825260209091200180546001600160a01b0319166001600160a01b0392909216919091179055600c80546000198101908110611f5d57fe5b600091825260209091200180546001600160a01b0319169055600c805490611f8990600019830161543d565b50611f97565b600101611eae565b50604080516001600160a01b0384168152821515602082015281517f1fc2e72349204abf00cbc7494177aff8e597323c72b7f50dfe56055d0d8f6d9a929181900390910190a15050565b6001600160a01b039182166000908152601a60209081526040808320939094168252919091522054151590565b6000612019836121af565b612058576040805162461bcd60e51b81526020600482015260116024820152600080516020615542833981519152604482015290519081900360640190fd5b6009546001600160a01b031633148061207b57506000546001600160a01b031633145b6120c5576040805162461bcd60e51b8152602060048201526016602482015275677561726469616e206f722061646d696e206f6e6c7960501b604482015290519081900360640190fd5b6000546001600160a01b03163314806120e057506001821515145b61211e576040805162461bcd60e51b815260206004820152600a60248201526961646d696e206f6e6c7960b01b604482015290519081900360640190fd5b6001600160a01b0383166000818152600a6020908152604091829020805486151560ff199091168117909155825193845283830152606090830181905260049083015263135a5b9d60e21b6080830152517f71aec636243f9709bb0007ae15e9afb8150ab01716d75fd7573be5cc096e03b09181900360a00190a150919050565b600954600160a01b900460ff1681565b6001600160a01b031660009081526008602052604090205460ff1690565b50505050565b435b90565b6009546001600160a01b031681565b505050505050565b60146020526000908152604090205481565b60065481565b60008060008060008061221c8a8a8a8a614878565b92509250925082601181111561222e57fe5b95509093509150505b9450945094915050565b6001600160a01b0383166000908152600a602052604081205460ff16156122a0576040805162461bcd60e51b815260206004820152600e60248201526d1b5a5b9d081a5cc81c185d5cd95960921b604482015290519081900360640190fd5b6122aa8385611fe1565b156122fc576040805162461bcd60e51b815260206004820152601a60248201527f637265646974206163636f756e742063616e6e6f74206d696e74000000000000604482015290519081900360640190fd5b612305846121af565b612344576040805162461bcd60e51b81526020600482015260116024820152600080516020615542833981519152604482015290519081900360640190fd5b6001600160a01b03841660009081526016602052604090205480156118d3576000856001600160a01b0316633b1d21a26040518163ffffffff1660e01b815260040160206040518083038186803b15801561239e57600080fd5b505afa1580156123b2573d6000803e3d6000fd5b505050506040513d60208110156123c857600080fd5b5051604080516308f7a6e360e31b815290519192506000916001600160a01b038916916347bd3718916004808301926020929190829003018186803b15801561241057600080fd5b505afa158015612424573d6000803e3d6000fd5b505050506040513d602081101561243a57600080fd5b505160408051638f840ddd60e01b815290519192506000916001600160a01b038a1691638f840ddd916004808301926020929190829003018186803b15801561248257600080fd5b505afa158015612496573d6000803e3d6000fd5b505050506040513d60208110156124ac57600080fd5b505190506000806124be858585614c4e565b909250905060008260038111156124d157fe5b1461251a576040805162461bcd60e51b81526020600482015260146024820152731d1bdd185b14dd5c1c1b1a595cc819985a5b195960621b604482015290519081900360640190fd5b6000612526828a614c9a565b905086811061257c576040805162461bcd60e51b815260206004820152601960248201527f6d61726b657420737570706c7920636170207265616368656400000000000000604482015290519081900360640190fd5b505050505050600095945050505050565b600080546001600160a01b031633146125ac57611a466001600b614734565b6006805490839055604080518281526020810185905281517faeba5a6c40a8ac138134bff1aaa65debf25971188a58804bad717f82f0ec1316929181900390910190a16000611a93565b6009546001600160a01b03163314612645576040805162461bcd60e51b815260206004820152600d60248201526c677561726469616e206f6e6c7960981b604482015290519081900360640190fd5b6114b182826001614cd0565b6000546001600160a01b031633148061267457506009546001600160a01b031633145b6126be576040805162461bcd60e51b815260206004820152601660248201527561646d696e206f7220677561726469616e206f6e6c7960501b604482015290519081900360640190fd5b828181158015906126ce57508082145b61270f576040805162461bcd60e51b815260206004820152600d60248201526c1a5b9d985b1a59081a5b9c1d5d609a1b604482015290519081900360640190fd5b60005b828110156127e75784848281811061272657fe5b905060200201356016600089898581811061273d57fe5b905060200201356001600160a01b03166001600160a01b03166001600160a01b031681526020019081526020016000208190555086868281811061277d57fe5b905060200201356001600160a01b03166001600160a01b03167f9e0ad9cee10bdf36b7fbd38910c0bdff0f275ace679b45b922381c2723d676f88686848181106127c357fe5b905060200201356040518082815260200191505060405180910390a2600101612712565b50505050505050565b801580156127fe5750600082115b156121cd576040805162461bcd60e51b815260206004820152601160248201527072656465656d546f6b656e73207a65726f60781b604482015290519081900360640190fd5b600c818154811061285157fe5b6000918252602090912001546001600160a01b0316905081565b600080546001600160a01b0316331461288a57611a4660016010614734565b600480546001600160a01b038481166001600160a01b0319831681179093556040805191909216808252602082019390935281517fd52b2b9b7e9ee655fcb95d2e5b9e0c9f69e7ef2b8e9d2d0ea78402d576d22e22929181900390910190a16000611a93565b505050565b6000546001600160a01b03163314612941576040805162461bcd60e51b815260206004820152600a60248201526961646d696e206f6e6c7960b01b604482015290519081900360640190fd5b601c80546001600160a01b038381166001600160a01b0319831617928390556040805192821680845293909116602083015280517fa4c457d40aa1c979a2194279d244db38b26ba51dac56dfa7f01446c0d00f8f659281900390910190a15050565b6000806000806000806129ba876000806000614878565b9250925092508260118111156129cc57fe5b97919650945092505050565b60006129e48387611fe1565b15612a36576040805162461bcd60e51b815260206004820152601f60248201527f63616e6e6f74206c697175696461746520637265646974206163636f756e7400604482015290519081900360640190fd5b612a3f866114c4565b8015612a4f5750612a4f856114c4565b612a8e576040805162461bcd60e51b81526020600482015260116024820152600080516020615542833981519152604482015290519081900360640190fd5b600080612a9a85614d86565b91935090915060009050826011811115612ab057fe5b14612b02576040805162461bcd60e51b815260206004820152601f60248201527f6661696c656420746f20676574206163636f756e74206c697175696469747900604482015290519081900360640190fd5b60008111612b50576040805162461bcd60e51b81526020600482015260166024820152751a5b9cdd59999a58da595b9d081cda1bdc9d19985b1b60521b604482015290519081900360640190fd5b6000886001600160a01b03166395dd9193876040518263ffffffff1660e01b815260040180826001600160a01b03166001600160a01b0316815260200191505060206040518083038186803b158015612ba857600080fd5b505afa158015612bbc573d6000803e3d6000fd5b505050506040513d6020811015612bd257600080fd5b505160408051602081019091526005548152909150600090612bf49083614da6565b905080861115612c0b5760119450505050506118d6565b5060009998505050505050505050565b6000546001600160a01b0316331480612c3e57506009546001600160a01b031633145b612c88576040805162461bcd60e51b815260206004820152601660248201527561646d696e206f7220677561726469616e206f6e6c7960501b604482015290519081900360640190fd5b82818115801590612c9857508082145b612cd9576040805162461bcd60e51b815260206004820152600d60248201526c1a5b9d985b1a59081a5b9c1d5d609a1b604482015290519081900360640190fd5b60005b828110156127e757848482818110612cf057fe5b9050602002013560146000898985818110612d0757fe5b905060200201356001600160a01b03166001600160a01b03166001600160a01b0316815260200190815260200160002081905550868682818110612d4757fe5b905060200201356001600160a01b03166001600160a01b03167f6f1951b2aad10f3fc81b86d91105b413a5b3f847a34bbc5ce1904201b14438f6868684818110612d8d57fe5b905060200201356040518082815260200191505060405180910390a2600101612cdc565b600e602052600090815260409020546001600160e01b03811690600160e01b900463ffffffff1682565b600b6020526000908152604090205460ff1681565b600a6020526000908152604090205460ff1681565b6004546001600160a01b031681565b6019546001600160a01b031681565b600954600160b01b900460ff1681565b600f602052600090815260409020546001600160e01b03811690600160e01b900463ffffffff1682565b60086020526000908152604090208054600182015460039092015460ff91821692911683565b6009546000906001600160a01b0316331480612ea957506000546001600160a01b031633145b612ef3576040805162461bcd60e51b8152602060048201526016602482015275677561726469616e206f722061646d696e206f6e6c7960501b604482015290519081900360640190fd5b6000546001600160a01b0316331480612f0e57506001821515145b612f4c576040805162461bcd60e51b815260206004820152600a60248201526961646d696e206f6e6c7960b01b604482015290519081900360640190fd5b60098054831515600160b01b810260ff60b01b1990921691909117909155604080516020810192909252808252600882820152672a3930b739b332b960c11b6060830152517fef159d9a32b2472e32b098f954f3ce62d232939f1c207070b584df1814de2de09181900360800190a15090565b6001600160a01b038082166000908152600860209081526040808320938616835260029093019052205460ff1692915050565b50600090565b6015546001600160a01b031681565b60608060076000846001600160a01b03166001600160a01b0316815260200190815260200160002080548060200260200160405190810160405280929190818152602001828054801561308357602002820191906000526020600020905b81546001600160a01b03168152600190910190602001808311613065575b5093979650505050505050565b600954600160b81b900460ff1681565b6060600c8054806020026020016040519081016040528092919081815260200182805480156130f857602002820191906000526020600020905b81546001600160a01b031681526001909101906020018083116130da575b5050505050905090565b505050506001600160a01b031660009081526018602052604090205460ff161590565b6000613130836121af565b61316f576040805162461bcd60e51b81526020600482015260116024820152600080516020615542833981519152604482015290519081900360640190fd5b6009546001600160a01b031633148061319257506000546001600160a01b031633145b6131dc576040805162461bcd60e51b8152602060048201526016602482015275677561726469616e206f722061646d696e206f6e6c7960501b604482015290519081900360640190fd5b6000546001600160a01b03163314806131f757506001821515145b613235576040805162461bcd60e51b815260206004820152600a60248201526961646d696e206f6e6c7960b01b604482015290519081900360640190fd5b6001600160a01b038316600081815260186020908152604091829020805486151560ff199091168117909155825193845283830152606090830181905260099083015268233630b9b43637b0b760b91b6080830152517f71aec636243f9709bb0007ae15e9afb8150ab01716d75fd7573be5cc096e03b09181900360a00190a150919050565b601060209081526000928352604080842090915290825290205481565b6002546001600160a01b031681565b600954600090600160b01b900460ff161561333e576040805162461bcd60e51b81526020600482015260126024820152711d1c985b9cd9995c881a5cc81c185d5cd95960721b604482015290519081900360640190fd5b6133488386611fe1565b156133845760405162461bcd60e51b81526004018080602001828103825260238152602001806154fd6023913960400191505060405180910390fd5b6118d6858584614dc5565b60606000825190506060816040519080825280602002602001820160405280156133c3578160200160208202803883390190505b50905060005b8281101561341e5760008582815181106133df57fe5b602002602001015190506133f38133614f68565b60118111156133fe57fe5b83838151811061340a57fe5b6020908102919091010152506001016133c9565b509392505050565b600480546040805163fc57d4df60e01b81526001600160a01b038781169482019490945290516000938493849391169163fc57d4df91602480820192602092909190829003018186803b15801561347c57600080fd5b505afa158015613490573d6000803e3d6000fd5b505050506040513d60208110156134a657600080fd5b5051600480546040805163fc57d4df60e01b81526001600160a01b038a8116948201949094529051939450600093929091169163fc57d4df91602480820192602092909190829003018186803b1580156134ff57600080fd5b505afa158015613513573d6000803e3d6000fd5b505050506040513d602081101561352957600080fd5b50519050811580159061353c5750600081115b61357b576040805162461bcd60e51b815260206004820152600b60248201526a383934b1b29032b93937b960a91b604482015290519081900360640190fd5b6000866001600160a01b031663182df0f56040518163ffffffff1660e01b815260040160206040518083038186803b1580156135b657600080fd5b505afa1580156135ca573d6000803e3d6000fd5b505050506040513d60208110156135e057600080fd5b505190506135ec615461565b613614604051806020016040528060065481525060405180602001604052808781525061512f565b905061361e615461565b61364460405180602001604052808681525060405180602001604052808681525061512f565b905061364e615461565b613658838361516e565b90506000613666828b614da6565b600099509750505050505050505b935093915050565b601160209081526000928352604080842090915290825290205481565b60126020526000908152604090205481565b600954600090600160b81b900460ff16156136ff576040805162461bcd60e51b815260206004820152600f60248201526e1cd95a5e99481a5cc81c185d5cd959608a1b604482015290519081900360640190fd5b6137098386611fe1565b1561375b576040805162461bcd60e51b815260206004820181905260248201527f63616e6e6f74207365697a652066726f6d20637265646974206163636f756e74604482015290519081900360640190fd5b613764856114c4565b80156137745750613774866114c4565b6137b3576040805162461bcd60e51b81526020600482015260116024820152600080516020615542833981519152604482015290519081900360640190fd5b846001600160a01b0316635fe3b5676040518163ffffffff1660e01b815260040160206040518083038186803b1580156137ec57600080fd5b505afa158015613800573d6000803e3d6000fd5b505050506040513d602081101561381657600080fd5b505160408051635fe3b56760e01b815290516001600160a01b0392831692891691635fe3b567916004808301926020929190829003018186803b15801561385c57600080fd5b505afa158015613870573d6000803e3d6000fd5b505050506040513d602081101561388657600080fd5b50516001600160a01b0316146138dc576040805162461bcd60e51b815260206004820152601660248201527518dbdb5c1d1c9bdb1b195c881b5a5cdb585d18da195960521b604482015290519081900360640190fd5b60009695505050505050565b601b6020526000908152604090205460ff1681565b60186020526000908152604090205460ff1681565b6000546001600160a01b03163314806139355750601c546001600160a01b031633145b6139705760405162461bcd60e51b81526004018080602001828103825260228152602001806155d06022913960400191505060405180910390fd5b6128f0838383614cd0565b6001600160a01b0383166000908152600b602052604081205460ff16156139dc576040805162461bcd60e51b815260206004820152601060248201526f189bdc9c9bddc81a5cc81c185d5cd95960821b604482015290519081900360640190fd5b6139e5846121af565b613a24576040805162461bcd60e51b81526020600482015260116024820152600080516020615542833981519152604482015290519081900360640190fd5b6001600160a01b038085166000908152600860209081526040808320938716835260029093019052205460ff16613b3d57336001600160a01b03851614613aaa576040805162461bcd60e51b815260206004820152601560248201527439b2b73232b91036bab9ba10313290312a37b5b2b760591b604482015290519081900360640190fd5b6000613ab68585614f68565b6011811115613ac157fe5b14613b0a576040805162461bcd60e51b815260206004820152601460248201527319985a5b1959081d1bc8185919081b585c9ad95d60621b604482015290519081900360640190fd5b6001600160a01b038085166000908152600860209081526040808320938716835260029093019052205460ff16613b3d57fe5b600480546040805163fc57d4df60e01b81526001600160a01b03888116948201949094529051929091169163fc57d4df91602480820192602092909190829003018186803b158015613b8e57600080fd5b505afa158015613ba2573d6000803e3d6000fd5b505050506040513d6020811015613bb857600080fd5b5051613bf9576040805162461bcd60e51b815260206004820152600b60248201526a383934b1b29032b93937b960a91b604482015290519081900360640190fd5b6001600160a01b0384166000908152601460205260409020548015613ce6576000856001600160a01b03166347bd37186040518163ffffffff1660e01b815260040160206040518083038186803b158015613c5357600080fd5b505afa158015613c67573d6000803e3d6000fd5b505050506040513d6020811015613c7d57600080fd5b505190506000613c8d8286614c9a565b9050828110613ce3576040805162461bcd60e51b815260206004820152601960248201527f6d61726b657420626f72726f7720636170207265616368656400000000000000604482015290519081900360640190fd5b50505b6001600160a01b038085166000908152601a60209081526040808320938916835292905220548015613e4c57600080876001600160a01b031663c37f68e2886040518263ffffffff1660e01b815260040180826001600160a01b03166001600160a01b0316815260200191505060806040518083038186803b158015613d6b57600080fd5b505afa158015613d7f573d6000803e3d6000fd5b505050506040513d6080811015613d9557600080fd5b50805160409091015190925090508115613de7576040805162461bcd60e51b815260206004820152600e60248201526d39b730b839b437ba1032b93937b960911b604482015290519081900360640190fd5b613df18187614c9a565b831015613e45576040805162461bcd60e51b815260206004820152601960248201527f696e73756666696369656e7420637265646974206c696d697400000000000000604482015290519081900360640190fd5b50506138dc565b600080613e5c8789600089614878565b91935090915060009050826011811115613e7257fe5b14613ec4576040805162461bcd60e51b815260206004820152601f60248201527f6661696c656420746f20676574206163636f756e74206c697175696469747900604482015290519081900360640190fd5b8015613f10576040805162461bcd60e51b8152602060048201526016602482015275696e73756666696369656e74206c697175696469747960501b604482015290519081900360640190fd5b505060009695505050505050565b60076020528160005260406000208181548110613f3757fe5b6000918252602090912001546001600160a01b03169150829050565b6003546001600160a01b031681565b600080546001600160a01b03163314613f8157611a4660016013614734565b600980546001600160a01b038481166001600160a01b0319831617928390556040805192821680845293909116602083015280517f08fdaf06427a2010e5958f4329b566993472d14ce81d3f16ce7f2a2660da98e39281900390910190a16000611a93565b600080546001600160a01b0316331461400c5761400560016006614734565b90506113a0565b6001600160a01b0383166000908152600860205260409020805460ff166140415761403960096007614734565b9150506113a0565b614049615461565b506040805160208101909152838152614060615461565b506040805160208101909152670c7d713b49da0000815261408181836151aa565b1561409c5761409260066008614734565b93505050506113a0565b84158015906141255750600480546040805163fc57d4df60e01b81526001600160a01b038a8116948201949094529051929091169163fc57d4df91602480820192602092909190829003018186803b1580156140f757600080fd5b505afa15801561410b573d6000803e3d6000fd5b505050506040513d602081101561412157600080fd5b5051155b1561413657614092600d6009614734565b60018301805490869055604080516001600160a01b03891681526020810183905280820188905290517f70483e6592cd5182d45ac970e05bc62cdcc90e9d8ef2c2dbe686cf383bcd7fc59181900360600190a16000979650505050505050565b600954600160a81b900460ff1681565b60055481565b6000546001600160a01b031633146141f8576040805162461bcd60e51b815260206004820152600a60248201526961646d696e206f6e6c7960b01b604482015290519081900360640190fd5b306001600160a01b0316816001600160a01b0316635fe3b5676040518163ffffffff1660e01b815260040160206040518083038186803b15801561423b57600080fd5b505afa15801561424f573d6000803e3d6000fd5b505050506040513d602081101561426557600080fd5b50516001600160a01b0316146142b9576040805162461bcd60e51b815260206004820152601460248201527336b4b9b6b0ba31b41031b7b6b83a3937b63632b960611b604482015290519081900360640190fd5b601980546001600160a01b038381166001600160a01b0319831617928390556040805192821680845293909116602083015280517f4247a233ab0926daf14619c57e7d333975443a34cc5e1a30478bc4e7e716c8a29281900390910190a15050565b6000614328848484614dc5565b949350505050565b6000808290506000806000836001600160a01b031663c37f68e2336040518263ffffffff1660e01b815260040180826001600160a01b03166001600160a01b0316815260200191505060806040518083038186803b15801561439157600080fd5b505afa1580156143a5573d6000803e3d6000fd5b505050506040513d60808110156143bb57600080fd5b50805160208201516040909201519094509092509050821561440e5760405162461bcd60e51b81526004018080602001828103825260258152602001806155626025913960400191505060405180910390fd5b801561445a576040805162461bcd60e51b81526020600482015260166024820152756e6f6e7a65726f20626f72726f772062616c616e636560501b604482015290519081900360640190fd5b614465863384614dc5565b156144af576040805162461bcd60e51b815260206004820152601560248201527419985a5b1959081d1bc8195e1a5d081b585c9ad95d605a1b604482015290519081900360640190fd5b6001600160a01b03861660009081526008602052604090206001600382015460ff1660028111156144dc57fe5b14156145425760408051638b35776b60e01b815233600482015290516001600160a01b03891691638b35776b91602480830192600092919082900301818387803b15801561452957600080fd5b505af115801561453d573d6000803e3d6000fd5b505050505b33600090815260028201602052604090205460ff1661456957600095505050505050611506565b3360009081526002820160209081526040808320805460ff1916905560078252918290208054835181840281018401909452808452606093928301828280156145db57602002820191906000526020600020905b81546001600160a01b031681526001909101906020018083116145bd575b5050835193945083925060009150505b8281101561463057886001600160a01b031684828151811061460957fe5b60200260200101516001600160a01b0316141561462857809150614630565b6001016145eb565b5081811061463a57fe5b33600090815260076020526040902080546000190182146146c05780548190600019810190811061466757fe5b9060005260206000200160009054906101000a90046001600160a01b031681838154811061469157fe5b9060005260206000200160006101000a8154816001600160a01b0302191690836001600160a01b031602179055505b80546146d082600019830161543d565b50604080516001600160a01b038b16815233602082015281517fe699a64c18b07ac5b7301aa273f36a2287239eb9501d81950672794afba29a0d929181900390910190a160009b9a5050505050505050505050565b6000546001600160a01b031681565b60007f45b96fe442630264581b197e84bbada861235052c5a1aadfff9ea4e40a969aa083601181111561476357fe5b83601381111561476f57fe5b604080519283526020830191909152600082820152519081900360600190a1826011811115611a9357fe5b60005b600c5481101561482557816001600160a01b0316600c82815481106147be57fe5b6000918252602090912001546001600160a01b0316141561481d576040805162461bcd60e51b81526020600482015260146024820152731b585c9ad95d08185b1c9958591e48185919195960621b604482015290519081900360640190fd5b60010161479d565b50600c80546001810182556000919091527fdf6966c971051c3d54ec59162606531493a51404a002842f56009d7e5cf4a8c70180546001600160a01b0319166001600160a01b0392909216919091179055565b6000806000614885615474565b6001600160a01b038816600090815260076020908152604080832080548251818502810185019093528083526060938301828280156148ed57602002820191906000526020600020905b81546001600160a01b031681526001909101906020018083116148cf575b50939450600093505050505b8151811015614c0f57600082828151811061491057fe5b60200260200101519050614923816114c4565b61492d5750614c07565b806001600160a01b031663c37f68e28d6040518263ffffffff1660e01b815260040180826001600160a01b03166001600160a01b0316815260200191505060806040518083038186803b15801561498357600080fd5b505afa158015614997573d6000803e3d6000fd5b505050506040513d60808110156149ad57600080fd5b508051602082015160408084015160609485015160808b0152938901939093529187019190915293508315614a1a576040805162461bcd60e51b815260206004820152600e60248201526d39b730b839b437ba1032b93937b960911b604482015290519081900360640190fd5b6040850151158015614a2e57506060850151155b8015614a4c57508a6001600160a01b0316816001600160a01b031614155b15614a575750614c07565b60408051602080820183526001600160a01b0380851660008181526008845285902060010154845260c08a01939093528351808301855260808a0151815260e08a015260048054855163fc57d4df60e01b815291820194909452935192169263fc57d4df9260248083019392829003018186803b158015614ad757600080fd5b505afa158015614aeb573d6000803e3d6000fd5b505050506040513d6020811015614b0157600080fd5b505160a08601819052614b49576040805162461bcd60e51b815260206004820152600b60248201526a383934b1b29032b93937b960a91b604482015290519081900360640190fd5b604080516020810190915260a0860151815261010086015260c085015160e0860151614b8391614b789161512f565b86610100015161512f565b610120860181905260408601518651614b9d9291906151b1565b855261010085015160608601516020870151614bba9291906151b1565b60208601526001600160a01b03818116908c161415614c0557614be78561012001518b87602001516151b1565b60208601819052610100860151614bff918b906151b1565b60208601525b505b6001016148f9565b50602083015183511115614c355750506020810151905160009450039150829050612237565b5050805160209091015160009450849350039050612237565b600080600080614c5e87876151d9565b90925090506000826003811115614c7157fe5b14614c825750915060009050613674565b614c8c8186615202565b935093505050935093915050565b6000611a938383604051806040016040528060118152602001706164646974696f6e206f766572666c6f7760781b815250615225565b614cd9826121af565b614d18576040805162461bcd60e51b81526020600482015260116024820152600080516020615542833981519152604482015290519081900360640190fd5b6001600160a01b038084166000818152601a6020908152604080832094871680845294825291829020859055815192835282019290925280820183905290517fd2430896b2083037d8bf873ee97e05de0442c7137b4c9413b9e928f7212869e99181900360600190a1505050565b6000806000614d99846000806000614878565b9250925092509193909250565b6000614db0615461565b614dba84846152c0565b9050614328816152e1565b6000614dd0846114c4565b614e0f576040805162461bcd60e51b81526020600482015260116024820152600080516020615542833981519152604482015290519081900360640190fd5b614e198385611fe1565b15614e6b576040805162461bcd60e51b815260206004820152601c60248201527f637265646974206163636f756e742063616e6e6f742072656465656d00000000604482015290519081900360640190fd5b6001600160a01b038085166000908152600860209081526040808320938716835260029093019052205460ff16614ea457506000611a93565b600080614eb48587866000614878565b91935090915060009050826011811115614eca57fe5b14614f1c576040805162461bcd60e51b815260206004820152601f60248201527f6661696c656420746f20676574206163636f756e74206c697175696469747900604482015290519081900360640190fd5b80156138dc576040805162461bcd60e51b8152602060048201526016602482015275696e73756666696369656e74206c697175696469747960501b604482015290519081900360640190fd5b6001600160a01b0382166000908152600860205260408120805460ff16614fc4576040805162461bcd60e51b81526020600482015260116024820152600080516020615542833981519152604482015290519081900360640190fd5b6001600382015460ff166002811115614fd957fe5b141561506457836001600160a01b0316638897bd85846040518263ffffffff1660e01b815260040180826001600160a01b03166001600160a01b03168152602001915050602060405180830381600087803b15801561503757600080fd5b505af115801561504b573d6000803e3d6000fd5b505050506040513d602081101561506157600080fd5b50505b6001600160a01b038316600090815260028201602052604090205460ff161515600114156150965760009150506113a0565b6001600160a01b0380841660008181526002840160209081526040808320805460ff19166001908117909155600783528184208054918201815584529282902090920180549489166001600160a01b031990951685179055815193845283019190915280517f3ab23ab0d51cccc0c3085aec51f99228625aa1a922b3a8ca89a26b0f2027a1a59281900390910190a15060009392505050565b615137615461565b6040518060200160405280670de0b6b3a764000061515d866000015186600001516152f0565b8161516457fe5b0490529392505050565b615176615461565b60405180602001604052806151a161519a8660000151670de0b6b3a76400006152f0565b8551615332565b90529392505050565b5190511090565b60006151bb615461565b6151c585856152c0565b90506118d66151d3826152e1565b84614c9a565b6000808383018481106151f1576000925090506151fb565b5060029150600090505b9250929050565b6000808383116152195750600090508183036151fb565b506003905060006151fb565b600083830182858210156152b75760405162461bcd60e51b81526004018080602001828103825283818151815260200191508051906020019080838360005b8381101561527c578181015183820152602001615264565b50505050905090810190601f1680156152a95780820380516001836020036101000a031916815260200191505b509250505060405180910390fd5b50949350505050565b6152c8615461565b60405180602001604052806151a18560000151856152f0565b51670de0b6b3a7640000900490565b6000611a9383836040518060400160405280601781526020017f6d756c7469706c69636174696f6e206f766572666c6f77000000000000000000815250615365565b6000611a9383836040518060400160405280600e81526020016d646976696465206279207a65726f60901b8152506153db565b6000831580615372575082155b1561537f57506000611a93565b8383028385828161538c57fe5b041483906152b75760405162461bcd60e51b815260206004820181815283516024840152835190928392604490910191908501908083836000831561527c578181015183820152602001615264565b6000818361542a5760405162461bcd60e51b815260206004820181815283516024840152835190928392604490910191908501908083836000831561527c578181015183820152602001615264565b5082848161543457fe5b04949350505050565b8154818355818111156128f0576000838152602090206128f09181019083016154de565b6040518060200160405280600081525090565b6040518061014001604052806000815260200160008152602001600081526020016000815260200160008152602001600081526020016154b2615461565b81526020016154bf615461565b81526020016154cc615461565b81526020016154d9615461565b905290565b6121d591905b808211156154f857600081556001016154e4565b509056fe63616e6e6f74207472616e7366657220746f206120637265646974206163636f756e746d61726b6574206e6f74206c6973746564206f7220736f66742064656c69737465646d61726b6574206e6f74206c6973746564000000000000000000000000000000657869744d61726b65743a206765744163636f756e74536e617073686f74206661696c65646d61726b657420616c7265616479206c6973746564206f722064656c697374656463616e6e6f74207265706179206f6e20626568616c66206f6620637265646974206163636f756e7461646d696e206f7220637265646974206c696d6974206d616e61676572206f6e6c79a265627a7a723158200f98be64054f07c3c9e3d0df4f56f981a18d1ab4d9113788d2b73ffdc00d3cb864736f6c63430005100032",
  "linkReferences": {},
  "deployedLinkReferences": {}
}