{
  "_format": "hh-sol-artifact-1",
  "contractName": "SoftVault",
  "sourceName": "contracts/vault/SoftVault.sol",
  "abi": [
    {
      "inputs": [],
      "stateMutability": "nonpayable",
      "type": "constructor"
    },
    {
      "inputs": [
        {
          "internalType": "uint256",
          "name": "amount",
          "type": "uint256"
        }
      ],
      "name": "LEND_FAILED",
      "type": "error"
    },
    {
      "inputs": [
        {
          "internalType": "uint256",
          "name": "amount",
          "type": "uint256"
        }
      ],
      "name": "REDEEM_FAILED",
      "type": "error"
    },
    {
      "inputs": [],
      "name": "ZERO_ADDRESS",
      "type": "error"
    },
    {
      "inputs": [],
      "name": "ZERO_AMOUNT",
      "type": "error"
    },
    {
      "anonymous": false,
      "inputs": [
        {
          "indexed": true,
          "internalType": "address",
          "name": "owner",
          "type": "address"
        },
        {
          "indexed": true,
          "internalType": "address",
          "name": "spender",
          "type": "address"
        },
        {
          "indexed": false,
          "internalType": "uint256",
          "name": "value",
          "type": "uint256"
        }
      ],
      "name": "Approval",
      "type": "event"
    },
    {
      "anonymous": false,
      "inputs": [
        {
          "indexed": true,
          "internalType": "address",
          "name": "account",
          "type": "address"
        },
        {
          "indexed": false,
          "internalType": "uint256",
          "name": "amount",
          "type": "uint256"
        },
        {
          "indexed": false,
          "internalType": "uint256",
          "name": "shareAmount",
          "type": "uint256"
        }
      ],
      "name": "Deposited",
      "type": "event"
    },
    {
      "anonymous": false,
      "inputs": [
        {
          "indexed": false,
          "internalType": "uint8",
          "name": "version",
          "type": "uint8"
        }
      ],
      "name": "Initialized",
      "type": "event"
    },
    {
      "anonymous": false,
      "inputs": [
        {
          "indexed": true,
          "internalType": "address",
          "name": "previousOwner",
          "type": "address"
        },
        {
          "indexed": true,
          "internalType": "address",
          "name": "newOwner",
          "type": "address"
        }
      ],
      "name": "OwnershipTransferStarted",
      "type": "event"
    },
    {
      "anonymous": false,
      "inputs": [
        {
          "indexed": true,
          "internalType": "address",
          "name": "previousOwner",
          "type": "address"
        },
        {
          "indexed": true,
          "internalType": "address",
          "name": "newOwner",
          "type": "address"
        }
      ],
      "name": "OwnershipTransferred",
      "type": "event"
    },
    {
      "anonymous": false,
      "inputs": [
        {
          "indexed": true,
          "internalType": "address",
          "name": "from",
          "type": "address"
        },
        {
          "indexed": true,
          "internalType": "address",
          "name": "to",
          "type": "address"
        },
        {
          "indexed": false,
          "internalType": "uint256",
          "name": "value",
          "type": "uint256"
        }
      ],
      "name": "Transfer",
      "type": "event"
    },
    {
      "anonymous": false,
      "inputs": [
        {
          "indexed": true,
          "internalType": "address",
          "name": "account",
          "type": "address"
        },
        {
          "indexed": false,
          "internalType": "uint256",
          "name": "amount",
          "type": "uint256"
        },
        {
          "indexed": false,
          "internalType": "uint256",
          "name": "shareAmount",
          "type": "uint256"
        }
      ],
      "name": "Withdrawn",
      "type": "event"
    },
    {
      "inputs": [],
      "name": "acceptOwnership",
      "outputs": [],
      "stateMutability": "nonpayable",
      "type": "function"
    },
    {
      "inputs": [
        {
          "internalType": "address",
          "name": "owner",
          "type": "address"
        },
        {
          "internalType": "address",
          "name": "spender",
          "type": "address"
        }
      ],
      "name": "allowance",
      "outputs": [
        {
          "internalType": "uint256",
          "name": "",
          "type": "uint256"
        }
      ],
      "stateMutability": "view",
      "type": "function"
    },
    {
      "inputs": [
        {
          "internalType": "address",
          "name": "spender",
          "type": "address"
        },
        {
          "internalType": "uint256",
          "name": "amount",
          "type": "uint256"
        }
      ],
      "name": "approve",
      "outputs": [
        {
          "internalType": "bool",
          "name": "",
          "type": "bool"
        }
      ],
      "stateMutability": "nonpayable",
      "type": "function"
    },
    {
      "inputs": [
        {
          "internalType": "address",
          "name": "account",
          "type": "address"
        }
      ],
      "name": "balanceOf",
      "outputs": [
        {
          "internalType": "uint256",
          "name": "",
          "type": "uint256"
        }
      ],
      "stateMutability": "view",
      "type": "function"
    },
    {
      "inputs": [],
      "name": "decimals",
      "outputs": [
        {
          "internalType": "uint8",
          "name": "",
          "type": "uint8"
        }
      ],
      "stateMutability": "view",
      "type": "function"
    },
    {
      "inputs": [
        {
          "internalType": "address",
          "name": "spender",
          "type": "address"
        },
        {
          "internalType": "uint256",
          "name": "subtractedValue",
          "type": "uint256"
        }
      ],
      "name": "decreaseAllowance",
      "outputs": [
        {
          "internalType": "bool",
          "name": "",
          "type": "bool"
        }
      ],
      "stateMutability": "nonpayable",
      "type": "function"
    },
    {
      "inputs": [
        {
          "internalType": "uint256",
          "name": "amount",
          "type": "uint256"
        }
      ],
      "name": "deposit",
      "outputs": [
        {
          "internalType": "uint256",
          "name": "shareAmount",
          "type": "uint256"
        }
      ],
      "stateMutability": "nonpayable",
      "type": "function"
    },
    {
      "inputs": [],
      "name": "getBToken",
      "outputs": [
        {
          "internalType": "contract IBErc20",
          "name": "",
          "type": "address"
        }
      ],
      "stateMutability": "view",
      "type": "function"
    },
    {
      "inputs": [],
      "name": "getConfig",
      "outputs": [
        {
          "internalType": "contract IProtocolConfig",
          "name": "",
          "type": "address"
        }
      ],
      "stateMutability": "view",
      "type": "function"
    },
    {
      "inputs": [],
      "name": "getUnderlyingToken",
      "outputs": [
        {
          "internalType": "contract IERC20Upgradeable",
          "name": "",
          "type": "address"
        }
      ],
      "stateMutability": "view",
      "type": "function"
    },
    {
      "inputs": [
        {
          "internalType": "address",
          "name": "spender",
          "type": "address"
        },
        {
          "internalType": "uint256",
          "name": "addedValue",
          "type": "uint256"
        }
      ],
      "name": "increaseAllowance",
      "outputs": [
        {
          "internalType": "bool",
          "name": "",
          "type": "bool"
        }
      ],
      "stateMutability": "nonpayable",
      "type": "function"
    },
    {
      "inputs": [
        {
          "internalType": "contract IProtocolConfig",
          "name": "config",
          "type": "address"
        },
        {
          "internalType": "contract IBErc20",
          "name": "bToken",
          "type": "address"
        },
        {
          "internalType": "string",
          "name": "name",
          "type": "string"
        },
        {
          "internalType": "string",
          "name": "symbol",
          "type": "string"
        },
        {
          "internalType": "address",
          "name": "owner",
          "type": "address"
        }
      ],
      "name": "initialize",
      "outputs": [],
      "stateMutability": "nonpayable",
      "type": "function"
    },
    {
      "inputs": [],
      "name": "name",
      "outputs": [
        {
          "internalType": "string",
          "name": "",
          "type": "string"
        }
      ],
      "stateMutability": "view",
      "type": "function"
    },
    {
      "inputs": [],
      "name": "owner",
      "outputs": [
        {
          "internalType": "address",
          "name": "",
          "type": "address"
        }
      ],
      "stateMutability": "view",
      "type": "function"
    },
    {
      "inputs": [],
      "name": "pendingOwner",
      "outputs": [
        {
          "internalType": "address",
          "name": "",
          "type": "address"
        }
      ],
      "stateMutability": "view",
      "type": "function"
    },
    {
      "inputs": [],
      "name": "renounceOwnership",
      "outputs": [],
      "stateMutability": "nonpayable",
      "type": "function"
    },
    {
      "inputs": [],
      "name": "symbol",
      "outputs": [
        {
          "internalType": "string",
          "name": "",
          "type": "string"
        }
      ],
      "stateMutability": "view",
      "type": "function"
    },
    {
      "inputs": [],
      "name": "totalSupply",
      "outputs": [
        {
          "internalType": "uint256",
          "name": "",
          "type": "uint256"
        }
      ],
      "stateMutability": "view",
      "type": "function"
    },
    {
      "inputs": [
        {
          "internalType": "address",
          "name": "to",
          "type": "address"
        },
        {
          "internalType": "uint256",
          "name": "amount",
          "type": "uint256"
        }
      ],
      "name": "transfer",
      "outputs": [
        {
          "internalType": "bool",
          "name": "",
          "type": "bool"
        }
      ],
      "stateMutability": "nonpayable",
      "type": "function"
    },
    {
      "inputs": [
        {
          "internalType": "address",
          "name": "from",
          "type": "address"
        },
        {
          "internalType": "address",
          "name": "to",
          "type": "address"
        },
        {
          "internalType": "uint256",
          "name": "amount",
          "type": "uint256"
        }
      ],
      "name": "transferFrom",
      "outputs": [
        {
          "internalType": "bool",
          "name": "",
          "type": "bool"
        }
      ],
      "stateMutability": "nonpayable",
      "type": "function"
    },
    {
      "inputs": [
        {
          "internalType": "address",
          "name": "newOwner",
          "type": "address"
        }
      ],
      "name": "transferOwnership",
      "outputs": [],
      "stateMutability": "nonpayable",
      "type": "function"
    },
    {
      "inputs": [
        {
          "internalType": "uint256",
          "name": "shareAmount",
          "type": "uint256"
        }
      ],
      "name": "withdraw",
      "outputs": [
        {
          "internalType": "uint256",
          "name": "withdrawAmount",
          "type": "uint256"
        }
      ],
      "stateMutability": "nonpayable",
      "type": "function"
    }
  ],
  "bytecode": "0x608060405234801561001057600080fd5b5061001961001e565b6100dd565b600054610100900460ff161561008a5760405162461bcd60e51b815260206004820152602760248201527f496e697469616c697a61626c653a20636f6e747261637420697320696e697469604482015266616c697a696e6760c81b606482015260840160405180910390fd5b60005460ff908116146100db576000805460ff191660ff9081179091556040519081527f7f26b83ff96e1f2b6a682f133852f6798a09c465da95921460cefb38474024989060200160405180910390a15b565b61204c80620000ed6000396000f3fe608060405234801561001057600080fd5b50600436106101425760003560e01c80638da5cb5b116100b8578063b6b55f251161007c578063b6b55f251461029f578063c3f909d4146102b2578063dd62ed3e146102c3578063e30c3978146102d6578063ee719bc8146102e7578063f2fde38b146102f857600080fd5b80638da5cb5b1461023b57806390250dcf1461026057806395d89b4114610271578063a457c2d714610279578063a9059cbb1461028c57600080fd5b8063313ce5671161010a578063313ce567146101c0578063362925c2146101da57806339509351146101ef57806370a0823114610202578063715018a61461022b57806379ba50971461023357600080fd5b806306fdde0314610147578063095ea7b31461016557806318160ddd1461018857806323b872dd1461019a5780632e1a7d4d146101ad575b600080fd5b61014f61030b565b60405161015c9190611b4a565b60405180910390f35b610178610173366004611b92565b61039d565b604051901515815260200161015c565b6099545b60405190815260200161015c565b6101786101a8366004611bbe565b6103b7565b61018c6101bb366004611bff565b6103db565b6101c861077c565b60405160ff909116815260200161015c565b6101ed6101e8366004611cbb565b6107ef565b005b6101786101fd366004611b92565b6109f9565b61018c610210366004611d59565b6001600160a01b031660009081526097602052604090205490565b6101ed610a1b565b6101ed610a2f565b6033546001600160a01b03165b6040516001600160a01b03909116815260200161015c565b60fb546001600160a01b0316610248565b61014f610aa9565b610178610287366004611b92565b610ab8565b61017861029a366004611b92565b610b33565b61018c6102ad366004611bff565b610b41565b60fd546001600160a01b0316610248565b61018c6102d1366004611d7d565b610e73565b6065546001600160a01b0316610248565b60fc546001600160a01b0316610248565b6101ed610306366004611d59565b610e9e565b6060609a805461031a90611db6565b80601f016020809104026020016040519081016040528092919081815260200182805461034690611db6565b80156103935780601f1061036857610100808354040283529160200191610393565b820191906000526020600020905b81548152906001019060200180831161037657829003601f168201915b5050505050905090565b6000336103ab818585610f0f565b60019150505b92915050565b6000336103c5858285611034565b6103d08585856110ae565b506001949350505050565b60006103e5611259565b8160000361040657604051630f6fa54560e41b815260040160405180910390fd5b600061041a60fb546001600160a01b031690565b9050600061043060fc546001600160a01b031690565b9050600061044660fd546001600160a01b031690565b905061045233866112b2565b6040516370a0823160e01b81523060048201526000906001600160a01b038416906370a0823190602401602060405180830381865afa158015610499573d6000803e3d6000fd5b505050506040513d601f19601f820116820180604052508101906104bd9190611df0565b60405163db006a7560e01b8152600481018890529091506001600160a01b0385169063db006a75906024016020604051808303816000875af1158015610507573d6000803e3d6000fd5b505050506040513d601f19601f8201168201806040525081019061052b9190611df0565b1561055157604051639a8c640160e01b8152600481018790526024015b60405180910390fd5b6040516370a0823160e01b81523060048201526000906001600160a01b038516906370a0823190602401602060405180830381865afa158015610598573d6000803e3d6000fd5b505050506040513d601f19601f820116820180604052508101906105bc9190611df0565b90506105c88282611e1f565b9550610640836001600160a01b031663f2d638266040518163ffffffff1660e01b8152600401602060405180830381865afa15801561060b573d6000803e3d6000fd5b505050506040513d601f19601f8201168201806040525081019061062f9190611e32565b6001600160a01b03861690886113e3565b826001600160a01b031663f2d638266040518163ffffffff1660e01b8152600401602060405180830381865afa15801561067e573d6000803e3d6000fd5b505050506040513d601f19601f820116820180604052508101906106a29190611e32565b60405163272bed8360e11b81526001600160a01b038681166004830152602482018990529190911690634e57db06906044016020604051808303816000875af11580156106f3573d6000803e3d6000fd5b505050506040513d601f19601f820116820180604052508101906107179190611df0565b955061072d6001600160a01b0385163388611404565b604080518781526020810189905233917f92ccf450a286a957af52509bc1c9939d1a6a481783e142e41e2499f0bb66ebc6910160405180910390a25050505050610777600160c955565b919050565b60fb546040805163313ce56760e01b815290516000926001600160a01b03169163313ce5679160048083019260209291908290030181865afa1580156107c6573d6000803e3d6000fd5b505050506040513d601f19601f820116820180604052508101906107ea9190611e4f565b905090565b600054610100900460ff161580801561080f5750600054600160ff909116105b806108295750303b158015610829575060005460ff166001145b61088c5760405162461bcd60e51b815260206004820152602e60248201527f496e697469616c697a61626c653a20636f6e747261637420697320616c72656160448201526d191e481a5b9a5d1a585b1a5e995960921b6064820152608401610548565b6000805460ff1916600117905580156108af576000805461ff0019166101001790555b6108b761146e565b6108bf61149d565b6108c8826114cc565b6108d284846114e5565b6001600160a01b03851615806108ef57506001600160a01b038616155b1561090d5760405163538ba4f960e01b815260040160405180910390fd5b6000856001600160a01b0316636f307dc36040518163ffffffff1660e01b8152600401602060405180830381865afa15801561094d573d6000803e3d6000fd5b505050506040513d601f19601f820116820180604052508101906109719190611e32565b60fd80546001600160a01b03808b166001600160a01b03199283161790925560fb80548a841690831617905560fc80549290931691161790555080156109f1576000805461ff0019169055604051600181527f7f26b83ff96e1f2b6a682f133852f6798a09c465da95921460cefb38474024989060200160405180910390a15b505050505050565b6000336103ab818585610a0c8383610e73565b610a169190611e72565b610f0f565b610a2361151a565b610a2d60006114cc565b565b60655433906001600160a01b03168114610a9d5760405162461bcd60e51b815260206004820152602960248201527f4f776e61626c6532537465703a2063616c6c6572206973206e6f7420746865206044820152683732bb9037bbb732b960b91b6064820152608401610548565b610aa6816114cc565b50565b6060609b805461031a90611db6565b60003381610ac68286610e73565b905083811015610b265760405162461bcd60e51b815260206004820152602560248201527f45524332303a2064656372656173656420616c6c6f77616e63652062656c6f77604482015264207a65726f60d81b6064820152608401610548565b6103d08286868403610f0f565b6000336103ab8185856110ae565b6000610b4b611259565b81600003610b6c57604051630f6fa54560e41b815260040160405180910390fd5b6000610b8060fb546001600160a01b031690565b90506000610b9660fc546001600160a01b031690565b6040516370a0823160e01b81523060048201529091506000906001600160a01b038316906370a0823190602401602060405180830381865afa158015610be0573d6000803e3d6000fd5b505050506040513d601f19601f82011682018060405250810190610c049190611df0565b9050610c1b6001600160a01b038316333088611574565b6040516370a0823160e01b81523060048201526000906001600160a01b038416906370a0823190602401602060405180830381865afa158015610c62573d6000803e3d6000fd5b505050506040513d601f19601f82011682018060405250810190610c869190611df0565b6040516370a0823160e01b81523060048201529091506000906001600160a01b038616906370a0823190602401602060405180830381865afa158015610cd0573d6000803e3d6000fd5b505050506040513d601f19601f82011682018060405250810190610cf49190611df0565b9050610d0a6001600160a01b03851686896113e3565b6001600160a01b03851663a0712d68610d238585611e1f565b6040518263ffffffff1660e01b8152600401610d4191815260200190565b6020604051808303816000875af1158015610d60573d6000803e3d6000fd5b505050506040513d601f19601f82011682018060405250810190610d849190611df0565b15610da557604051633207478960e21b815260048101889052602401610548565b6040516370a0823160e01b81523060048201526000906001600160a01b038716906370a0823190602401602060405180830381865afa158015610dec573d6000803e3d6000fd5b505050506040513d601f19601f82011682018060405250810190610e109190611df0565b9050610e1c8282611e1f565b9650610e2833886115ac565b604080518981526020810189905233917f73a19dd210f1a7f902193214c0ee91dd35ee5b4d920cba8d519eca65a7b488ca910160405180910390a2505050505050610777600160c955565b6001600160a01b03918216600090815260986020908152604080832093909416825291909152205490565b610ea661151a565b606580546001600160a01b0383166001600160a01b03199091168117909155610ed76033546001600160a01b031690565b6001600160a01b03167f38d16b8cac22d99fc7c124b9cd0de2d3fa1faef420bfe791d8c362d765e2270060405160405180910390a350565b6001600160a01b038316610f715760405162461bcd60e51b8152602060048201526024808201527f45524332303a20617070726f76652066726f6d20746865207a65726f206164646044820152637265737360e01b6064820152608401610548565b6001600160a01b038216610fd25760405162461bcd60e51b815260206004820152602260248201527f45524332303a20617070726f766520746f20746865207a65726f206164647265604482015261737360f01b6064820152608401610548565b6001600160a01b0383811660008181526098602090815260408083209487168084529482529182902085905590518481527f8c5be1e5ebec7d5bd14f71427d1e84f3dd0314c0f7b2291e5b200ac8c7c3b92591015b60405180910390a3505050565b60006110408484610e73565b905060001981146110a8578181101561109b5760405162461bcd60e51b815260206004820152601d60248201527f45524332303a20696e73756666696369656e7420616c6c6f77616e63650000006044820152606401610548565b6110a88484848403610f0f565b50505050565b6001600160a01b0383166111125760405162461bcd60e51b815260206004820152602560248201527f45524332303a207472616e736665722066726f6d20746865207a65726f206164604482015264647265737360d81b6064820152608401610548565b6001600160a01b0382166111745760405162461bcd60e51b815260206004820152602360248201527f45524332303a207472616e7366657220746f20746865207a65726f206164647260448201526265737360e81b6064820152608401610548565b6001600160a01b038316600090815260976020526040902054818110156111ec5760405162461bcd60e51b815260206004820152602660248201527f45524332303a207472616e7366657220616d6f756e7420657863656564732062604482015265616c616e636560d01b6064820152608401610548565b6001600160a01b0380851660008181526097602052604080822086860390559286168082529083902080548601905591517fddf252ad1be2c89b69c2b068fc378daa952ba7f163c4a11628f55a4df523b3ef9061124c9086815260200190565b60405180910390a36110a8565b600260c954036112ab5760405162461bcd60e51b815260206004820152601f60248201527f5265656e7472616e637947756172643a207265656e7472616e742063616c6c006044820152606401610548565b600260c955565b6001600160a01b0382166113125760405162461bcd60e51b815260206004820152602160248201527f45524332303a206275726e2066726f6d20746865207a65726f206164647265736044820152607360f81b6064820152608401610548565b6001600160a01b038216600090815260976020526040902054818110156113865760405162461bcd60e51b815260206004820152602260248201527f45524332303a206275726e20616d6f756e7420657863656564732062616c616e604482015261636560f01b6064820152608401610548565b6001600160a01b03831660008181526097602090815260408083208686039055609980548790039055518581529192917fddf252ad1be2c89b69c2b068fc378daa952ba7f163c4a11628f55a4df523b3ef9101611027565b505050565b6113ec8361166d565b6113de576113de6001600160a01b03841683836116a6565b6040516001600160a01b0383166024820152604481018290526113de90849063a9059cbb60e01b906064015b60408051601f198184030181529190526020810180516001600160e01b03166001600160e01b031990931692909217909152611731565b600160c955565b600054610100900460ff166114955760405162461bcd60e51b815260040161054890611e85565b610a2d611806565b600054610100900460ff166114c45760405162461bcd60e51b815260040161054890611e85565b610a2d61182d565b606580546001600160a01b0319169055610aa68161185d565b600054610100900460ff1661150c5760405162461bcd60e51b815260040161054890611e85565b61151682826118af565b5050565b6033546001600160a01b03163314610a2d5760405162461bcd60e51b815260206004820181905260248201527f4f776e61626c653a2063616c6c6572206973206e6f7420746865206f776e65726044820152606401610548565b6040516001600160a01b03808516602483015283166044820152606481018290526110a89085906323b872dd60e01b90608401611430565b6001600160a01b0382166116025760405162461bcd60e51b815260206004820152601f60248201527f45524332303a206d696e7420746f20746865207a65726f2061646472657373006044820152606401610548565b80609960008282546116149190611e72565b90915550506001600160a01b0382166000818152609760209081526040808320805486019055518481527fddf252ad1be2c89b69c2b068fc378daa952ba7f163c4a11628f55a4df523b3ef910160405180910390a35050565b60006001600160a01b03821615806103b157506001600160a01b03821673eeeeeeeeeeeeeeeeeeeeeeeeeeeeeeeeeeeeeeee1492915050565b604080516001600160a01b038416602482015260448082018490528251808303909101815260649091019091526020810180516001600160e01b031663095ea7b360e01b1790526116f784826118ef565b6110a8576040516001600160a01b03841660248201526000604482015261172b90859063095ea7b360e01b90606401611430565b6110a884825b6000611786826040518060400160405280602081526020017f5361666545524332303a206c6f772d6c6576656c2063616c6c206661696c6564815250856001600160a01b03166119969092919063ffffffff16565b90508051600014806117a75750808060200190518101906117a79190611ed0565b6113de5760405162461bcd60e51b815260206004820152602a60248201527f5361666545524332303a204552433230206f7065726174696f6e20646964206e6044820152691bdd081cdd58d8d9595960b21b6064820152608401610548565b600054610100900460ff166114675760405162461bcd60e51b815260040161054890611e85565b600054610100900460ff166118545760405162461bcd60e51b815260040161054890611e85565b610a2d336114cc565b603380546001600160a01b038381166001600160a01b0319831681179093556040519116919082907f8be0079c531659141344cd1fd0a4f28419497f9722a3daafe3b4186f6b6457e090600090a35050565b600054610100900460ff166118d65760405162461bcd60e51b815260040161054890611e85565b609a6118e28382611f3a565b50609b6113de8282611f3a565b6000806000846001600160a01b03168460405161190c9190611ffa565b6000604051808303816000865af19150503d8060008114611949576040519150601f19603f3d011682016040523d82523d6000602084013e61194e565b606091505b50915091508180156119785750805115806119785750808060200190518101906119789190611ed0565b801561198d57506001600160a01b0385163b15155b95945050505050565b60606119a584846000856119ad565b949350505050565b606082471015611a0e5760405162461bcd60e51b815260206004820152602660248201527f416464726573733a20696e73756666696369656e742062616c616e636520666f6044820152651c8818d85b1b60d21b6064820152608401610548565b600080866001600160a01b03168587604051611a2a9190611ffa565b60006040518083038185875af1925050503d8060008114611a67576040519150601f19603f3d011682016040523d82523d6000602084013e611a6c565b606091505b5091509150611a7d87838387611a88565b979650505050505050565b60608315611af7578251600003611af0576001600160a01b0385163b611af05760405162461bcd60e51b815260206004820152601d60248201527f416464726573733a2063616c6c20746f206e6f6e2d636f6e74726163740000006044820152606401610548565b50816119a5565b6119a58383815115611b0c5781518083602001fd5b8060405162461bcd60e51b81526004016105489190611b4a565b60005b83811015611b41578181015183820152602001611b29565b50506000910152565b6020815260008251806020840152611b69816040850160208701611b26565b601f01601f19169190910160400192915050565b6001600160a01b0381168114610aa657600080fd5b60008060408385031215611ba557600080fd5b8235611bb081611b7d565b946020939093013593505050565b600080600060608486031215611bd357600080fd5b8335611bde81611b7d565b92506020840135611bee81611b7d565b929592945050506040919091013590565b600060208284031215611c1157600080fd5b5035919050565b634e487b7160e01b600052604160045260246000fd5b600082601f830112611c3f57600080fd5b813567ffffffffffffffff80821115611c5a57611c5a611c18565b604051601f8301601f19908116603f01168101908282118183101715611c8257611c82611c18565b81604052838152866020858801011115611c9b57600080fd5b836020870160208301376000602085830101528094505050505092915050565b600080600080600060a08688031215611cd357600080fd5b8535611cde81611b7d565b94506020860135611cee81611b7d565b9350604086013567ffffffffffffffff80821115611d0b57600080fd5b611d1789838a01611c2e565b94506060880135915080821115611d2d57600080fd5b50611d3a88828901611c2e565b9250506080860135611d4b81611b7d565b809150509295509295909350565b600060208284031215611d6b57600080fd5b8135611d7681611b7d565b9392505050565b60008060408385031215611d9057600080fd5b8235611d9b81611b7d565b91506020830135611dab81611b7d565b809150509250929050565b600181811c90821680611dca57607f821691505b602082108103611dea57634e487b7160e01b600052602260045260246000fd5b50919050565b600060208284031215611e0257600080fd5b5051919050565b634e487b7160e01b600052601160045260246000fd5b818103818111156103b1576103b1611e09565b600060208284031215611e4457600080fd5b8151611d7681611b7d565b600060208284031215611e6157600080fd5b815160ff81168114611d7657600080fd5b808201808211156103b1576103b1611e09565b6020808252602b908201527f496e697469616c697a61626c653a20636f6e7472616374206973206e6f74206960408201526a6e697469616c697a696e6760a81b606082015260800190565b600060208284031215611ee257600080fd5b81518015158114611d7657600080fd5b601f8211156113de576000816000526020600020601f850160051c81016020861015611f1b5750805b601f850160051c820191505b818110156109f157828155600101611f27565b815167ffffffffffffffff811115611f5457611f54611c18565b611f6881611f628454611db6565b84611ef2565b602080601f831160018114611f9d5760008415611f855750858301515b600019600386901b1c1916600185901b1785556109f1565b600085815260208120601f198616915b82811015611fcc57888601518255948401946001909101908401611fad565b5085821015611fea5787850151600019600388901b60f8161c191681555b5050505050600190811b01905550565b6000825161200c818460208701611b26565b919091019291505056fea2646970667358221220be0257ab51ed6251452e39968da3bf2ca64e0ad067999bbfc3b2837dd49a7f1764736f6c63430008160033",
  "linkReferences": {},
  "deployedLinkReferences": {}
}