{
  "_format": "hh-sol-artifact-1",
  "contractName": "BTokenAdmin",
  "sourceName": "contracts/money-market/BTokenAdmin.sol",
  "abi": [
    {
      "inputs": [
        {
          "internalType": "address payable",
          "name": "_admin",
          "type": "address"
        }
      ],
      "payable": false,
      "stateMutability": "nonpayable",
      "type": "constructor"
    },
    {
      "anonymous": false,
      "inputs": [
        {
          "indexed": true,
          "internalType": "address",
          "name": "bToken",
          "type": "address"
        },
        {
          "indexed": true,
          "internalType": "address",
          "name": "newImplementation",
          "type": "address"
        }
      ],
      "name": "ImplementationChanged",
      "type": "event"
    },
    {
      "anonymous": false,
      "inputs": [
        {
          "indexed": true,
          "internalType": "address",
          "name": "bToken",
          "type": "address"
        },
        {
          "indexed": true,
          "internalType": "address",
          "name": "newImplementation",
          "type": "address"
        }
      ],
      "name": "ImplementationCleared",
      "type": "event"
    },
    {
      "anonymous": false,
      "inputs": [
        {
          "indexed": true,
          "internalType": "address",
          "name": "bToken",
          "type": "address"
        },
        {
          "indexed": true,
          "internalType": "address",
          "name": "newImplementation",
          "type": "address"
        },
        {
          "indexed": false,
          "internalType": "uint256",
          "name": "expiration",
          "type": "uint256"
        }
      ],
      "name": "ImplementationQueued",
      "type": "event"
    },
    {
      "anonymous": false,
      "inputs": [
        {
          "indexed": true,
          "internalType": "address",
          "name": "bToken",
          "type": "address"
        },
        {
          "indexed": true,
          "internalType": "address",
          "name": "newPendingAdmin",
          "type": "address"
        }
      ],
      "name": "PendingAdminChanged",
      "type": "event"
    },
    {
      "anonymous": false,
      "inputs": [
        {
          "indexed": true,
          "internalType": "address",
          "name": "bToken",
          "type": "address"
        },
        {
          "indexed": true,
          "internalType": "address",
          "name": "newPendingAdmin",
          "type": "address"
        }
      ],
      "name": "PendingAdminCleared",
      "type": "event"
    },
    {
      "anonymous": false,
      "inputs": [
        {
          "indexed": true,
          "internalType": "address",
          "name": "bToken",
          "type": "address"
        },
        {
          "indexed": true,
          "internalType": "address",
          "name": "newPendingAdmin",
          "type": "address"
        },
        {
          "indexed": false,
          "internalType": "uint256",
          "name": "expiration",
          "type": "uint256"
        }
      ],
      "name": "PendingAdminQueued",
      "type": "event"
    },
    {
      "anonymous": false,
      "inputs": [
        {
          "indexed": true,
          "internalType": "address",
          "name": "oldAdmin",
          "type": "address"
        },
        {
          "indexed": true,
          "internalType": "address",
          "name": "newAdmin",
          "type": "address"
        }
      ],
      "name": "SetAdmin",
      "type": "event"
    },
    {
      "anonymous": false,
      "inputs": [
        {
          "indexed": true,
          "internalType": "address",
          "name": "oldReserveManager",
          "type": "address"
        },
        {
          "indexed": true,
          "internalType": "address",
          "name": "newAdmin",
          "type": "address"
        }
      ],
      "name": "SetReserveManager",
      "type": "event"
    },
    {
      "constant": false,
      "inputs": [
        {
          "internalType": "address",
          "name": "bToken",
          "type": "address"
        }
      ],
      "name": "_acceptAdmin",
      "outputs": [
        {
          "internalType": "uint256",
          "name": "",
          "type": "uint256"
        }
      ],
      "payable": false,
      "stateMutability": "nonpayable",
      "type": "function"
    },
    {
      "constant": false,
      "inputs": [
        {
          "internalType": "address",
          "name": "bToken",
          "type": "address"
        },
        {
          "internalType": "address payable",
          "name": "newPendingAdmin",
          "type": "address"
        }
      ],
      "name": "_clearPendingAdmin",
      "outputs": [],
      "payable": false,
      "stateMutability": "nonpayable",
      "type": "function"
    },
    {
      "constant": false,
      "inputs": [
        {
          "internalType": "address",
          "name": "bToken",
          "type": "address"
        },
        {
          "internalType": "address",
          "name": "implementation",
          "type": "address"
        }
      ],
      "name": "_clearPendingImplementation",
      "outputs": [],
      "payable": false,
      "stateMutability": "nonpayable",
      "type": "function"
    },
    {
      "constant": false,
      "inputs": [
        {
          "internalType": "address",
          "name": "bToken",
          "type": "address"
        },
        {
          "internalType": "address payable",
          "name": "newPendingAdmin",
          "type": "address"
        }
      ],
      "name": "_queuePendingAdmin",
      "outputs": [],
      "payable": false,
      "stateMutability": "nonpayable",
      "type": "function"
    },
    {
      "constant": false,
      "inputs": [
        {
          "internalType": "address",
          "name": "bToken",
          "type": "address"
        },
        {
          "internalType": "address",
          "name": "implementation",
          "type": "address"
        }
      ],
      "name": "_queuePendingImplementation",
      "outputs": [],
      "payable": false,
      "stateMutability": "nonpayable",
      "type": "function"
    },
    {
      "constant": false,
      "inputs": [
        {
          "internalType": "address",
          "name": "bToken",
          "type": "address"
        },
        {
          "internalType": "uint256",
          "name": "reduceAmount",
          "type": "uint256"
        }
      ],
      "name": "_reduceReserves",
      "outputs": [
        {
          "internalType": "uint256",
          "name": "",
          "type": "uint256"
        }
      ],
      "payable": false,
      "stateMutability": "nonpayable",
      "type": "function"
    },
    {
      "constant": false,
      "inputs": [
        {
          "internalType": "address",
          "name": "bToken",
          "type": "address"
        },
        {
          "internalType": "uint256",
          "name": "newCollateralCap",
          "type": "uint256"
        }
      ],
      "name": "_setCollateralCap",
      "outputs": [],
      "payable": false,
      "stateMutability": "nonpayable",
      "type": "function"
    },
    {
      "constant": false,
      "inputs": [
        {
          "internalType": "address",
          "name": "bToken",
          "type": "address"
        },
        {
          "internalType": "contract ComptrollerInterface",
          "name": "newComptroller",
          "type": "address"
        }
      ],
      "name": "_setComptroller",
      "outputs": [
        {
          "internalType": "uint256",
          "name": "",
          "type": "uint256"
        }
      ],
      "payable": false,
      "stateMutability": "nonpayable",
      "type": "function"
    },
    {
      "constant": false,
      "inputs": [
        {
          "internalType": "address",
          "name": "bToken",
          "type": "address"
        },
        {
          "internalType": "contract InterestRateModel",
          "name": "newInterestRateModel",
          "type": "address"
        }
      ],
      "name": "_setInterestRateModel",
      "outputs": [
        {
          "internalType": "uint256",
          "name": "",
          "type": "uint256"
        }
      ],
      "payable": false,
      "stateMutability": "nonpayable",
      "type": "function"
    },
    {
      "constant": false,
      "inputs": [
        {
          "internalType": "address",
          "name": "bToken",
          "type": "address"
        },
        {
          "internalType": "uint256",
          "name": "newReserveFactorMantissa",
          "type": "uint256"
        }
      ],
      "name": "_setReserveFactor",
      "outputs": [
        {
          "internalType": "uint256",
          "name": "",
          "type": "uint256"
        }
      ],
      "payable": false,
      "stateMutability": "nonpayable",
      "type": "function"
    },
    {
      "constant": false,
      "inputs": [
        {
          "internalType": "address",
          "name": "bToken",
          "type": "address"
        },
        {
          "internalType": "address payable",
          "name": "newPendingAdmin",
          "type": "address"
        }
      ],
      "name": "_togglePendingAdmin",
      "outputs": [
        {
          "internalType": "uint256",
          "name": "",
          "type": "uint256"
        }
      ],
      "payable": false,
      "stateMutability": "nonpayable",
      "type": "function"
    },
    {
      "constant": false,
      "inputs": [
        {
          "internalType": "address",
          "name": "bToken",
          "type": "address"
        },
        {
          "internalType": "address",
          "name": "implementation",
          "type": "address"
        },
        {
          "internalType": "bool",
          "name": "allowResign",
          "type": "bool"
        },
        {
          "internalType": "bytes",
          "name": "becomeImplementationData",
          "type": "bytes"
        }
      ],
      "name": "_togglePendingImplementation",
      "outputs": [],
      "payable": false,
      "stateMutability": "nonpayable",
      "type": "function"
    },
    {
      "constant": true,
      "inputs": [],
      "name": "admin",
      "outputs": [
        {
          "internalType": "address payable",
          "name": "",
          "type": "address"
        }
      ],
      "payable": false,
      "stateMutability": "view",
      "type": "function"
    },
    {
      "constant": true,
      "inputs": [
        {
          "internalType": "address",
          "name": "",
          "type": "address"
        },
        {
          "internalType": "address",
          "name": "",
          "type": "address"
        }
      ],
      "name": "adminQueue",
      "outputs": [
        {
          "internalType": "uint256",
          "name": "",
          "type": "uint256"
        }
      ],
      "payable": false,
      "stateMutability": "view",
      "type": "function"
    },
    {
      "constant": false,
      "inputs": [
        {
          "internalType": "address",
          "name": "bToken",
          "type": "address"
        },
        {
          "internalType": "uint256",
          "name": "reduceAmount",
          "type": "uint256"
        }
      ],
      "name": "extractReserves",
      "outputs": [],
      "payable": false,
      "stateMutability": "nonpayable",
      "type": "function"
    },
    {
      "constant": true,
      "inputs": [
        {
          "internalType": "address",
          "name": "bToken",
          "type": "address"
        }
      ],
      "name": "getBTokenAdmin",
      "outputs": [
        {
          "internalType": "address",
          "name": "",
          "type": "address"
        }
      ],
      "payable": false,
      "stateMutability": "view",
      "type": "function"
    },
    {
      "constant": true,
      "inputs": [],
      "name": "getBlockTimestamp",
      "outputs": [
        {
          "internalType": "uint256",
          "name": "",
          "type": "uint256"
        }
      ],
      "payable": false,
      "stateMutability": "view",
      "type": "function"
    },
    {
      "constant": true,
      "inputs": [
        {
          "internalType": "address",
          "name": "",
          "type": "address"
        },
        {
          "internalType": "address",
          "name": "",
          "type": "address"
        }
      ],
      "name": "implementationQueue",
      "outputs": [
        {
          "internalType": "uint256",
          "name": "",
          "type": "uint256"
        }
      ],
      "payable": false,
      "stateMutability": "view",
      "type": "function"
    },
    {
      "constant": true,
      "inputs": [],
      "name": "reserveManager",
      "outputs": [
        {
          "internalType": "address payable",
          "name": "",
          "type": "address"
        }
      ],
      "payable": false,
      "stateMutability": "view",
      "type": "function"
    },
    {
      "constant": false,
      "inputs": [
        {
          "internalType": "address",
          "name": "token",
          "type": "address"
        }
      ],
      "name": "seize",
      "outputs": [],
      "payable": false,
      "stateMutability": "nonpayable",
      "type": "function"
    },
    {
      "constant": false,
      "inputs": [
        {
          "internalType": "address payable",
          "name": "newAdmin",
          "type": "address"
        }
      ],
      "name": "setAdmin",
      "outputs": [],
      "payable": false,
      "stateMutability": "nonpayable",
      "type": "function"
    },
    {
      "constant": false,
      "inputs": [
        {
          "internalType": "address payable",
          "name": "newReserveManager",
          "type": "address"
        }
      ],
      "name": "setReserveManager",
      "outputs": [],
      "payable": false,
      "stateMutability": "nonpayable",
      "type": "function"
    },
    {
      "constant": true,
      "inputs": [],
      "name": "timeLock",
      "outputs": [
        {
          "internalType": "uint256",
          "name": "",
          "type": "uint256"
        }
      ],
      "payable": false,
      "stateMutability": "view",
      "type": "function"
    }
  ],
  "bytecode": "0x608060405234801561001057600080fd5b50604051611a0b380380611a0b8339818101604052602081101561003357600080fd5b5051610047816001600160e01b0361004d16565b506100f8565b6001600160a01b0381166100a8576040805162461bcd60e51b815260206004820181905260248201527f6e65772061646d696e2063616e6e6f74206265207a65726f2061646472657373604482015290519081900360640190fd5b600080546001600160a01b038381166001600160a01b0319831681178455604051919092169283917f848ac24ab84501710d6631faab117b66b79aba7ec6f7778cf3bcff428c1a4efc9190a35050565b611904806101076000396000f3fe608060405234801561001057600080fd5b506004361061014d5760003560e01c80639efa8b1d116100c3578063dc5295851161007c578063dc52958514610464578063df7da75414610492578063e55bac11146104b8578063e960f038146104e6578063f851a44014610512578063fb3ee5711461051a5761014d565b80639efa8b1d1461038a578063b32eba97146103cc578063bb004abc146103fa578063c0c5b91014610402578063cd6935451461042e578063d085835a1461045c5761014d565b806326a5b7971161011557806326a5b797146102485780633e542a311461026e578063507b53551461029c578063704b6c021461032e578063796b89b9146103545780639a42d2b41461035c5761014d565b806302a1ef501461015257806307da3c1d14610182578063081ad1cc146101ae5780630e8e12c2146101ee57806322cca35f1461021a575b600080fd5b6101806004803603604081101561016857600080fd5b506001600160a01b0381358116916020013516610540565b005b6101806004803603604081101561019857600080fd5b506001600160a01b0381351690602001356105de565b6101dc600480360360408110156101c457600080fd5b506001600160a01b0381358116916020013516610772565b60408051918252519081900360200190f35b6101806004803603604081101561020457600080fd5b506001600160a01b038135169060200135610847565b6101dc6004803603604081101561023057600080fd5b506001600160a01b03813581169160200135166108f2565b6101dc6004803603602081101561025e57600080fd5b50356001600160a01b0316610ad0565b6101806004803603604081101561028457600080fd5b506001600160a01b0381358116916020013516610b87565b610180600480360360808110156102b257600080fd5b6001600160a01b0382358116926020810135909116916040820135151591908101906080810160608201356401000000008111156102ef57600080fd5b82018360208201111561030157600080fd5b8035906020019184600183028401116401000000008311171561032357600080fd5b509092509050610c25565b6101806004803603602081101561034457600080fd5b50356001600160a01b0316610e21565b6101dc610e76565b6101806004803603604081101561037257600080fd5b506001600160a01b0381358116916020013516610e7a565b6103b0600480360360208110156103a057600080fd5b50356001600160a01b031661100d565b604080516001600160a01b039092168252519081900360200190f35b6101dc600480360360408110156103e257600080fd5b506001600160a01b038135811691602001351661105c565b6103b0611079565b6101dc6004803603604081101561041857600080fd5b506001600160a01b038135169060200135611088565b6101806004803603604081101561044457600080fd5b506001600160a01b0381358116916020013516611118565b6101dc6112a2565b6101dc6004803603604081101561047a57600080fd5b506001600160a01b03813581169160200135166112a9565b610180600480360360208110156104a857600080fd5b50356001600160a01b031661134b565b6101dc600480360360408110156104ce57600080fd5b506001600160a01b03813581169160200135166113e6565b6101dc600480360360408110156104fc57600080fd5b506001600160a01b038135169060200135611403565b6103b0611493565b6101806004803603602081101561053057600080fd5b50356001600160a01b03166114a2565b6000546001600160a01b031633146105895760405162461bcd60e51b81526004018080602001828103825260258152602001806118ab6025913960400191505060405180910390fd5b6001600160a01b03808316600081815260026020908152604080832094861680845294909152808220829055517f06059ca611d1105ffbfb0705c9a31b0f482d77761cb18facb6d0e7f21cfc293b9190a35050565b6001546001600160a01b031633146106275760405162461bcd60e51b815260040180806020018281038252602f81526020018061187c602f913960400191505060405180910390fd5b816001600160a01b031663601a0bf1826040518263ffffffff1660e01b815260040180828152602001915050602060405180830381600087803b15801561066d57600080fd5b505af1158015610681573d6000803e3d6000fd5b505050506040513d602081101561069757600080fd5b5051156106eb576040805162461bcd60e51b815260206004820152601960248201527f6661696c656420746f2072656475636520726573657276657300000000000000604482015290519081900360640190fd5b6000826001600160a01b0316636f307dc36040518163ffffffff1660e01b815260040160206040518083038186803b15801561072657600080fd5b505afa15801561073a573d6000803e3d6000fd5b505050506040513d602081101561075057600080fd5b505160015490915061076d9082906001600160a01b031684611585565b505050565b600080546001600160a01b031633146107bc5760405162461bcd60e51b81526004018080602001828103825260258152602001806118ab6025913960400191505060405180910390fd5b826001600160a01b031663f2b3abbd836040518263ffffffff1660e01b815260040180826001600160a01b03166001600160a01b03168152602001915050602060405180830381600087803b15801561081457600080fd5b505af1158015610828573d6000803e3d6000fd5b505050506040513d602081101561083e57600080fd5b50519392505050565b6000546001600160a01b031633146108905760405162461bcd60e51b81526004018080602001828103825260258152602001806118ab6025913960400191505060405180910390fd5b816001600160a01b03166381cf00eb826040518263ffffffff1660e01b815260040180828152602001915050600060405180830381600087803b1580156108d657600080fd5b505af11580156108ea573d6000803e3d6000fd5b505050505050565b600080546001600160a01b0316331461093c5760405162461bcd60e51b81526004018080602001828103825260258152602001806118ab6025913960400191505060405180910390fd5b6001600160a01b03808416600090815260026020908152604080832093861683529290522054806109a3576040805162461bcd60e51b815260206004820152600c60248201526b6e6f7420696e20717565756560a01b604482015290519081900360640190fd5b6109ab610e76565b8111156109f3576040805162461bcd60e51b81526020600482015260116024820152701c5d595d59481b9bdd08195e1c1a5c9959607a1b604482015290519081900360640190fd5b6001600160a01b03808516600081815260026020908152604080832094881680845294909152808220829055517fce9caef2978509c160ecb4635d80502a939fccaf6f7f6967edbe940500cffd779190a3836001600160a01b031663b71d1a0c846040518263ffffffff1660e01b815260040180826001600160a01b03166001600160a01b03168152602001915050602060405180830381600087803b158015610a9c57600080fd5b505af1158015610ab0573d6000803e3d6000fd5b505050506040513d6020811015610ac657600080fd5b5051949350505050565b600080546001600160a01b03163314610b1a5760405162461bcd60e51b81526004018080602001828103825260258152602001806118ab6025913960400191505060405180910390fd5b816001600160a01b031663e9c714f26040518163ffffffff1660e01b8152600401602060405180830381600087803b158015610b5557600080fd5b505af1158015610b69573d6000803e3d6000fd5b505050506040513d6020811015610b7f57600080fd5b505192915050565b6000546001600160a01b03163314610bd05760405162461bcd60e51b81526004018080602001828103825260258152602001806118ab6025913960400191505060405180910390fd5b6001600160a01b03808316600081815260036020908152604080832094861680845294909152808220829055517f836a92393584e40709afc11c52c83319fd1881a6c95bd7ad567df2f605d6e1cc9190a35050565b6000546001600160a01b03163314610c6e5760405162461bcd60e51b81526004018080602001828103825260258152602001806118ab6025913960400191505060405180910390fd5b6001600160a01b0380861660009081526003602090815260408083209388168352929052205480610cd5576040805162461bcd60e51b815260206004820152600c60248201526b6e6f7420696e20717565756560a01b604482015290519081900360640190fd5b610cdd610e76565b811115610d25576040805162461bcd60e51b81526020600482015260116024820152701c5d595d59481b9bdd08195e1c1a5c9959607a1b604482015290519081900360640190fd5b6001600160a01b038087166000818152600360209081526040808320948a1680845294909152808220829055517fcfbf4028add9318bbf716f08c348595afb063b0e9feed1f86d33681a4b3ed4d39190a36040516301556f3160e61b81526001600160a01b03868116600483019081528615156024840152606060448401908152606484018690529189169263555bcc4092899289928992899291608401848480828437600081840152601f19601f82011690508083019250505095505050505050600060405180830381600087803b158015610e0157600080fd5b505af1158015610e15573d6000803e3d6000fd5b50505050505050505050565b6000546001600160a01b03163314610e6a5760405162461bcd60e51b81526004018080602001828103825260258152602001806118ab6025913960400191505060405180910390fd5b610e73816116f8565b50565b4290565b6000546001600160a01b03163314610ec35760405162461bcd60e51b81526004018080602001828103825260258152602001806118ab6025913960400191505060405180910390fd5b6001600160a01b03821615801590610ee357506001600160a01b03811615155b610f24576040805162461bcd60e51b815260206004820152600d60248201526c1a5b9d985b1a59081a5b9c1d5d609a1b604482015290519081900360640190fd5b6001600160a01b0380831660009081526002602090815260408083209385168352929052205415610f8f576040805162461bcd60e51b815260206004820152601060248201526f616c726561647920696e20717565756560801b604482015290519081900360640190fd5b6000610fa5610f9c610e76565b6202a3006117a3565b6001600160a01b0380851660008181526002602090815260408083209488168084529482529182902085905581518581529151949550929391927fd18acd804f859ddcf71cbe94699a388874a9cee95ab48d9f5d899774efe5db7792918290030190a3505050565b6000816001600160a01b031663f851a4406040518163ffffffff1660e01b815260040160206040518083038186803b15801561104857600080fd5b505afa158015610b69573d6000803e3d6000fd5b600260209081526000928352604080842090915290825290205481565b6001546001600160a01b031681565b600080546001600160a01b031633146110d25760405162461bcd60e51b81526004018080602001828103825260258152602001806118ab6025913960400191505060405180910390fd5b826001600160a01b031663601a0bf1836040518263ffffffff1660e01b815260040180828152602001915050602060405180830381600087803b15801561081457600080fd5b6000546001600160a01b031633146111615760405162461bcd60e51b81526004018080602001828103825260258152602001806118ab6025913960400191505060405180910390fd5b6001600160a01b0382161580159061118157506001600160a01b03811615155b6111c2576040805162461bcd60e51b815260206004820152600d60248201526c1a5b9d985b1a59081a5b9c1d5d609a1b604482015290519081900360640190fd5b6001600160a01b038083166000908152600360209081526040808320938516835292905220541561122d576040805162461bcd60e51b815260206004820152601060248201526f616c726561647920696e20717565756560801b604482015290519081900360640190fd5b600061123a610f9c610e76565b6001600160a01b0380851660008181526003602090815260408083209488168084529482529182902085905581518581529151949550929391927f6bb7d32c7f37d3fb34ebb1e8d23f4d54279b2ba761f4e807477e57ef354ef12b92918290030190a3505050565b6202a30081565b600080546001600160a01b031633146112f35760405162461bcd60e51b81526004018080602001828103825260258152602001806118ab6025913960400191505060405180910390fd5b826001600160a01b0316634576b5db836040518263ffffffff1660e01b815260040180826001600160a01b03166001600160a01b03168152602001915050602060405180830381600087803b15801561081457600080fd5b6000546001600160a01b031633146113945760405162461bcd60e51b81526004018080602001828103825260258152602001806118ab6025913960400191505060405180910390fd5b600180546001600160a01b038381166001600160a01b0319831681179093556040519116919082907f6de65d20b5f4740dc478f865c4c6d0b5d6811f6f4c57223bcad98be9a166d90b90600090a35050565b600360209081526000928352604080842090915290825290205481565b600080546001600160a01b0316331461144d5760405162461bcd60e51b81526004018080602001828103825260258152602001806118ab6025913960400191505060405180910390fd5b826001600160a01b031663fca7820b836040518263ffffffff1660e01b815260040180828152602001915050602060405180830381600087803b15801561081457600080fd5b6000546001600160a01b031681565b6000546001600160a01b031633146114eb5760405162461bcd60e51b81526004018080602001828103825260258152602001806118ab6025913960400191505060405180910390fd5b604080516370a0823160e01b815230600482015290516000916001600160a01b038416916370a0823191602480820192602092909190829003018186803b15801561153557600080fd5b505afa158015611549573d6000803e3d6000fd5b505050506040513d602081101561155f57600080fd5b505190508015611581576000546115819083906001600160a01b031683611585565b5050565b6001600160a01b0382166115e0576040805162461bcd60e51b815260206004820152601f60248201527f72656365697665722063616e6e6f74206265207a65726f206164647265737300604482015290519081900360640190fd5b826001600160a01b031663a9059cbb83836040518363ffffffff1660e01b815260040180836001600160a01b03166001600160a01b0316815260200182815260200192505050600060405180830381600087803b15801561164057600080fd5b505af1158015611654573d6000803e3d6000fd5b5050505060003d6000811461168957602081146116935760203d101561167957600080fd5b60206000803e600051915061169f565b600019915061169f565b60206000803e60005191505b50806116f2576040805162461bcd60e51b815260206004820152601960248201527f544f4b454e5f5452414e534645525f4f55545f4641494c454400000000000000604482015290519081900360640190fd5b50505050565b6001600160a01b038116611753576040805162461bcd60e51b815260206004820181905260248201527f6e65772061646d696e2063616e6e6f74206265207a65726f2061646472657373604482015290519081900360640190fd5b600080546001600160a01b038381166001600160a01b0319831681178455604051919092169283917f848ac24ab84501710d6631faab117b66b79aba7ec6f7778cf3bcff428c1a4efc9190a35050565b60006117d98383604051806040016040528060118152602001706164646974696f6e206f766572666c6f7760781b8152506117e0565b9392505050565b600083830182858210156118725760405162461bcd60e51b81526004018080602001828103825283818151815260200191508051906020019080838360005b8381101561183757818101518382015260200161181f565b50505050905090810190601f1680156118645780820380516001836020036101000a031916815260200191505b509250505060405180910390fd5b5094935050505056fe6f6e6c79207468652072657365727665206d616e61676572206d61792063616c6c20746869732066756e6374696f6e6f6e6c79207468652061646d696e206d61792063616c6c20746869732066756e6374696f6ea265627a7a723158208914cb689d8bffc23900fb164293180567fc41b45dbb3f93b1b01f249128203b64736f6c63430005100032",
  "linkReferences": {},
  "deployedLinkReferences": {}
}